{
  "_format": "hh-sol-artifact-1",
  "contractName": "BvaultsStrategy",
  "sourceName": "contracts/BvaultsStrategy.5.vswap.fass.sol",
  "abi": [
    {
      "inputs": [
        {
          "internalType": "address",
          "name": "_controller",
          "type": "address"
        },
        {
          "internalType": "bool",
          "name": "_isAutoComp",
          "type": "bool"
        },
        {
          "internalType": "address",
          "name": "_farmContractAddress",
          "type": "address"
        },
        {
          "internalType": "address",
          "name": "_wantAddress",
          "type": "address"
        },
        {
          "internalType": "address",
          "name": "_earnedAddress",
          "type": "address"
        },
        {
          "internalType": "address[]",
          "name": "_faasRewards",
          "type": "address[]"
        },
        {
          "internalType": "address",
          "name": "_vswapRouterAddress",
          "type": "address"
        },
        {
          "internalType": "address",
          "name": "_vswapFormula",
          "type": "address"
        },
        {
          "internalType": "address[]",
          "name": "_buyBackToken1Info",
          "type": "address[]"
        },
        {
          "internalType": "address[]",
          "name": "_buyBackToken2Info",
          "type": "address[]"
        },
        {
          "internalType": "address",
          "name": "_token0",
          "type": "address"
        },
        {
          "internalType": "address",
          "name": "_token1",
          "type": "address"
        },
        {
          "internalType": "uint256",
          "name": "_ratio0",
          "type": "uint256"
        }
      ],
      "stateMutability": "nonpayable",
      "type": "constructor"
    },
    {
      "anonymous": false,
      "inputs": [
        {
          "indexed": false,
          "internalType": "address",
          "name": "earnedAddress",
          "type": "address"
        },
        {
          "indexed": false,
          "internalType": "address",
          "name": "buyBackToken",
          "type": "address"
        },
        {
          "indexed": false,
          "internalType": "uint256",
          "name": "earnedAmt",
          "type": "uint256"
        },
        {
          "indexed": false,
          "internalType": "uint256",
          "name": "buyBackAmt",
          "type": "uint256"
        },
        {
          "indexed": false,
          "internalType": "address",
          "name": "receiver",
          "type": "address"
        }
      ],
      "name": "BuyBack",
      "type": "event"
    },
    {
      "anonymous": false,
      "inputs": [
        {
          "indexed": false,
          "internalType": "address",
          "name": "token0Address",
          "type": "address"
        },
        {
          "indexed": false,
          "internalType": "uint256",
          "name": "token0Amt",
          "type": "uint256"
        },
        {
          "indexed": false,
          "internalType": "address",
          "name": "token1Address",
          "type": "address"
        },
        {
          "indexed": false,
          "internalType": "uint256",
          "name": "token1Amt",
          "type": "uint256"
        }
      ],
      "name": "Compound",
      "type": "event"
    },
    {
      "anonymous": false,
      "inputs": [
        {
          "indexed": false,
          "internalType": "address",
          "name": "tokenAddress",
          "type": "address"
        },
        {
          "indexed": false,
          "internalType": "address",
          "name": "earnedAddress",
          "type": "address"
        },
        {
          "indexed": false,
          "internalType": "uint256",
          "name": "tokenAmt",
          "type": "uint256"
        }
      ],
      "name": "ConvertDustToEarned",
      "type": "event"
    },
    {
      "anonymous": false,
      "inputs": [
        {
          "indexed": false,
          "internalType": "uint256",
          "name": "amount",
          "type": "uint256"
        }
      ],
      "name": "Deposit",
      "type": "event"
    },
    {
      "anonymous": false,
      "inputs": [
        {
          "indexed": false,
          "internalType": "address",
          "name": "earnedAddress",
          "type": "address"
        },
        {
          "indexed": false,
          "internalType": "uint256",
          "name": "fee",
          "type": "uint256"
        },
        {
          "indexed": false,
          "internalType": "address",
          "name": "receiver",
          "type": "address"
        }
      ],
      "name": "DistributeFee",
      "type": "event"
    },
    {
      "anonymous": false,
      "inputs": [
        {
          "indexed": false,
          "internalType": "address",
          "name": "earnedAddress",
          "type": "address"
        },
        {
          "indexed": false,
          "internalType": "uint256",
          "name": "earnedAmt",
          "type": "uint256"
        }
      ],
      "name": "Earned",
      "type": "event"
    },
    {
      "anonymous": false,
      "inputs": [
        {
          "indexed": true,
          "internalType": "address",
          "name": "target",
          "type": "address"
        },
        {
          "indexed": false,
          "internalType": "uint256",
          "name": "value",
          "type": "uint256"
        },
        {
          "indexed": false,
          "internalType": "string",
          "name": "signature",
          "type": "string"
        },
        {
          "indexed": false,
          "internalType": "bytes",
          "name": "data",
          "type": "bytes"
        }
      ],
      "name": "ExecuteTransaction",
      "type": "event"
    },
    {
      "anonymous": false,
      "inputs": [
        {
          "indexed": false,
          "internalType": "uint256",
          "name": "amount",
          "type": "uint256"
        }
      ],
      "name": "Farm",
      "type": "event"
    },
    {
      "anonymous": false,
      "inputs": [
        {
          "indexed": false,
          "internalType": "address",
          "name": "tokenAddress",
          "type": "address"
        },
        {
          "indexed": false,
          "internalType": "uint256",
          "name": "tokenAmt",
          "type": "uint256"
        },
        {
          "indexed": false,
          "internalType": "address",
          "name": "receiver",
          "type": "address"
        }
      ],
      "name": "InCaseTokensGetStuck",
      "type": "event"
    },
    {
      "anonymous": false,
      "inputs": [
        {
          "indexed": true,
          "internalType": "address",
          "name": "previousOwner",
          "type": "address"
        },
        {
          "indexed": true,
          "internalType": "address",
          "name": "newOwner",
          "type": "address"
        }
      ],
      "name": "OwnershipTransferred",
      "type": "event"
    },
    {
      "anonymous": false,
      "inputs": [
        {
          "indexed": false,
          "internalType": "address",
          "name": "account",
          "type": "address"
        }
      ],
      "name": "Paused",
      "type": "event"
    },
    {
      "anonymous": false,
      "inputs": [
        {
          "indexed": false,
          "internalType": "address",
          "name": "account",
          "type": "address"
        }
      ],
      "name": "Unpaused",
      "type": "event"
    },
    {
      "anonymous": false,
      "inputs": [
        {
          "indexed": false,
          "internalType": "uint256",
          "name": "amount",
          "type": "uint256"
        }
      ],
      "name": "Withdraw",
      "type": "event"
    },
    {
      "inputs": [],
      "name": "busdAddress",
      "outputs": [
        {
          "internalType": "address",
          "name": "",
          "type": "address"
        }
      ],
      "stateMutability": "view",
      "type": "function"
    },
    {
      "inputs": [],
      "name": "buyBackAddress1",
      "outputs": [
        {
          "internalType": "address",
          "name": "",
          "type": "address"
        }
      ],
      "stateMutability": "view",
      "type": "function"
    },
    {
      "inputs": [],
      "name": "buyBackAddress2",
      "outputs": [
        {
          "internalType": "address",
          "name": "",
          "type": "address"
        }
      ],
      "stateMutability": "view",
      "type": "function"
    },
    {
      "inputs": [],
      "name": "buyBackRate1",
      "outputs": [
        {
          "internalType": "uint256",
          "name": "",
          "type": "uint256"
        }
      ],
      "stateMutability": "view",
      "type": "function"
    },
    {
      "inputs": [],
      "name": "buyBackRate2",
      "outputs": [
        {
          "internalType": "uint256",
          "name": "",
          "type": "uint256"
        }
      ],
      "stateMutability": "view",
      "type": "function"
    },
    {
      "inputs": [],
      "name": "buyBackRateMax",
      "outputs": [
        {
          "internalType": "uint256",
          "name": "",
          "type": "uint256"
        }
      ],
      "stateMutability": "view",
      "type": "function"
    },
    {
      "inputs": [],
      "name": "buyBackRateUL",
      "outputs": [
        {
          "internalType": "uint256",
          "name": "",
          "type": "uint256"
        }
      ],
      "stateMutability": "view",
      "type": "function"
    },
    {
      "inputs": [],
      "name": "buyBackToken1",
      "outputs": [
        {
          "internalType": "address",
          "name": "",
          "type": "address"
        }
      ],
      "stateMutability": "view",
      "type": "function"
    },
    {
      "inputs": [],
      "name": "buyBackToken2",
      "outputs": [
        {
          "internalType": "address",
          "name": "",
          "type": "address"
        }
      ],
      "stateMutability": "view",
      "type": "function"
    },
    {
      "inputs": [],
      "name": "checkForUnlockReward",
      "outputs": [
        {
          "internalType": "bool",
          "name": "",
          "type": "bool"
        }
      ],
      "stateMutability": "view",
      "type": "function"
    },
    {
      "inputs": [],
      "name": "controllerFee",
      "outputs": [
        {
          "internalType": "uint256",
          "name": "",
          "type": "uint256"
        }
      ],
      "stateMutability": "view",
      "type": "function"
    },
    {
      "inputs": [],
      "name": "controllerFeeMax",
      "outputs": [
        {
          "internalType": "uint256",
          "name": "",
          "type": "uint256"
        }
      ],
      "stateMutability": "view",
      "type": "function"
    },
    {
      "inputs": [],
      "name": "controllerFeeUL",
      "outputs": [
        {
          "internalType": "uint256",
          "name": "",
          "type": "uint256"
        }
      ],
      "stateMutability": "view",
      "type": "function"
    },
    {
      "inputs": [],
      "name": "convertDustToEarned",
      "outputs": [],
      "stateMutability": "nonpayable",
      "type": "function"
    },
    {
      "inputs": [
        {
          "internalType": "address",
          "name": "",
          "type": "address"
        },
        {
          "internalType": "uint256",
          "name": "_wantAmt",
          "type": "uint256"
        }
      ],
      "name": "deposit",
      "outputs": [
        {
          "internalType": "uint256",
          "name": "",
          "type": "uint256"
        }
      ],
      "stateMutability": "nonpayable",
      "type": "function"
    },
    {
      "inputs": [],
      "name": "earn",
      "outputs": [],
      "stateMutability": "nonpayable",
      "type": "function"
    },
    {
      "inputs": [],
      "name": "earnedAddress",
      "outputs": [
        {
          "internalType": "address",
          "name": "",
          "type": "address"
        }
      ],
      "stateMutability": "view",
      "type": "function"
    },
    {
      "inputs": [],
      "name": "entranceFeeFactor",
      "outputs": [
        {
          "internalType": "uint256",
          "name": "",
          "type": "uint256"
        }
      ],
      "stateMutability": "view",
      "type": "function"
    },
    {
      "inputs": [],
      "name": "entranceFeeFactorLL",
      "outputs": [
        {
          "internalType": "uint256",
          "name": "",
          "type": "uint256"
        }
      ],
      "stateMutability": "view",
      "type": "function"
    },
    {
      "inputs": [],
      "name": "entranceFeeFactorMax",
      "outputs": [
        {
          "internalType": "uint256",
          "name": "",
          "type": "uint256"
        }
      ],
      "stateMutability": "view",
      "type": "function"
    },
    {
      "inputs": [
        {
          "internalType": "address",
          "name": "_inputToken",
          "type": "address"
        },
        {
          "internalType": "address",
          "name": "_outputToken",
          "type": "address"
        },
        {
          "internalType": "uint256",
          "name": "_tokenAmount",
          "type": "uint256"
        }
      ],
      "name": "exchangeRate",
      "outputs": [
        {
          "internalType": "uint256",
          "name": "",
          "type": "uint256"
        }
      ],
      "stateMutability": "view",
      "type": "function"
    },
    {
      "inputs": [
        {
          "internalType": "address",
          "name": "target",
          "type": "address"
        },
        {
          "internalType": "uint256",
          "name": "value",
          "type": "uint256"
        },
        {
          "internalType": "string",
          "name": "signature",
          "type": "string"
        },
        {
          "internalType": "bytes",
          "name": "data",
          "type": "bytes"
        }
      ],
      "name": "executeTransaction",
      "outputs": [
        {
          "internalType": "bytes",
          "name": "",
          "type": "bytes"
        }
      ],
      "stateMutability": "nonpayable",
      "type": "function"
    },
    {
      "inputs": [],
      "name": "faasRewardLength",
      "outputs": [
        {
          "internalType": "uint8",
          "name": "",
          "type": "uint8"
        }
      ],
      "stateMutability": "view",
      "type": "function"
    },
    {
      "inputs": [
        {
          "internalType": "uint256",
          "name": "",
          "type": "uint256"
        }
      ],
      "name": "faasRewards",
      "outputs": [
        {
          "internalType": "address",
          "name": "",
          "type": "address"
        }
      ],
      "stateMutability": "view",
      "type": "function"
    },
    {
      "inputs": [],
      "name": "farm",
      "outputs": [],
      "stateMutability": "nonpayable",
      "type": "function"
    },
    {
      "inputs": [],
      "name": "farmContractAddress",
      "outputs": [
        {
          "internalType": "address",
          "name": "",
          "type": "address"
        }
      ],
      "stateMutability": "view",
      "type": "function"
    },
    {
      "inputs": [
        {
          "internalType": "address",
          "name": "_token",
          "type": "address"
        },
        {
          "internalType": "uint256",
          "name": "_amount",
          "type": "uint256"
        },
        {
          "internalType": "address",
          "name": "_to",
          "type": "address"
        }
      ],
      "name": "inCaseTokensGetStuck",
      "outputs": [],
      "stateMutability": "nonpayable",
      "type": "function"
    },
    {
      "inputs": [
        {
          "internalType": "address",
          "name": "_account",
          "type": "address"
        }
      ],
      "name": "isAuthorised",
      "outputs": [
        {
          "internalType": "bool",
          "name": "",
          "type": "bool"
        }
      ],
      "stateMutability": "view",
      "type": "function"
    },
    {
      "inputs": [],
      "name": "isAutoComp",
      "outputs": [
        {
          "internalType": "bool",
          "name": "",
          "type": "bool"
        }
      ],
      "stateMutability": "view",
      "type": "function"
    },
    {
      "inputs": [],
      "name": "lastEarnBlock",
      "outputs": [
        {
          "internalType": "uint256",
          "name": "",
          "type": "uint256"
        }
      ],
      "stateMutability": "view",
      "type": "function"
    },
    {
      "inputs": [],
      "name": "notPublic",
      "outputs": [
        {
          "internalType": "bool",
          "name": "",
          "type": "bool"
        }
      ],
      "stateMutability": "view",
      "type": "function"
    },
    {
      "inputs": [],
      "name": "operator",
      "outputs": [
        {
          "internalType": "address",
          "name": "",
          "type": "address"
        }
      ],
      "stateMutability": "view",
      "type": "function"
    },
    {
      "inputs": [],
      "name": "owner",
      "outputs": [
        {
          "internalType": "address",
          "name": "",
          "type": "address"
        }
      ],
      "stateMutability": "view",
      "type": "function"
    },
    {
      "inputs": [],
      "name": "pause",
      "outputs": [],
      "stateMutability": "nonpayable",
      "type": "function"
    },
    {
      "inputs": [],
      "name": "paused",
      "outputs": [
        {
          "internalType": "bool",
          "name": "",
          "type": "bool"
        }
      ],
      "stateMutability": "view",
      "type": "function"
    },
    {
      "inputs": [],
      "name": "pendingHarvest",
      "outputs": [
        {
          "internalType": "uint256",
          "name": "",
          "type": "uint256"
        }
      ],
      "stateMutability": "view",
      "type": "function"
    },
    {
      "inputs": [],
      "name": "pendingHarvestDollarValue",
      "outputs": [
        {
          "internalType": "uint256",
          "name": "",
          "type": "uint256"
        }
      ],
      "stateMutability": "view",
      "type": "function"
    },
    {
      "inputs": [],
      "name": "ratio0",
      "outputs": [
        {
          "internalType": "uint256",
          "name": "",
          "type": "uint256"
        }
      ],
      "stateMutability": "view",
      "type": "function"
    },
    {
      "inputs": [],
      "name": "ratio1",
      "outputs": [
        {
          "internalType": "uint256",
          "name": "",
          "type": "uint256"
        }
      ],
      "stateMutability": "view",
      "type": "function"
    },
    {
      "inputs": [],
      "name": "renounceOwnership",
      "outputs": [],
      "stateMutability": "nonpayable",
      "type": "function"
    },
    {
      "inputs": [
        {
          "internalType": "address",
          "name": "_buyBackAddress1",
          "type": "address"
        }
      ],
      "name": "setBuyBackAddress1",
      "outputs": [],
      "stateMutability": "nonpayable",
      "type": "function"
    },
    {
      "inputs": [
        {
          "internalType": "address",
          "name": "_buyBackAddress2",
          "type": "address"
        }
      ],
      "name": "setBuyBackAddress2",
      "outputs": [],
      "stateMutability": "nonpayable",
      "type": "function"
    },
    {
      "inputs": [
        {
          "internalType": "uint256",
          "name": "_buyBackRate1",
          "type": "uint256"
        }
      ],
      "name": "setBuyBackRate1",
      "outputs": [],
      "stateMutability": "nonpayable",
      "type": "function"
    },
    {
      "inputs": [
        {
          "internalType": "uint256",
          "name": "_buyBackRate2",
          "type": "uint256"
        }
      ],
      "name": "setBuyBackRate2",
      "outputs": [],
      "stateMutability": "nonpayable",
      "type": "function"
    },
    {
      "inputs": [
        {
          "internalType": "uint256",
          "name": "_controllerFee",
          "type": "uint256"
        }
      ],
      "name": "setControllerFee",
      "outputs": [],
      "stateMutability": "nonpayable",
      "type": "function"
    },
    {
      "inputs": [
        {
          "internalType": "uint256",
          "name": "_entranceFeeFactor",
          "type": "uint256"
        }
      ],
      "name": "setEntranceFeeFactor",
      "outputs": [],
      "stateMutability": "nonpayable",
      "type": "function"
    },
    {
      "inputs": [
        {
          "internalType": "address[]",
          "name": "_faasRewards",
          "type": "address[]"
        }
      ],
      "name": "setFaasRewards",
      "outputs": [],
      "stateMutability": "nonpayable",
      "type": "function"
    },
    {
      "inputs": [
        {
          "internalType": "address[]",
          "name": "_earnedToBuyBackToken1Path",
          "type": "address[]"
        },
        {
          "internalType": "address[]",
          "name": "_earnedToBuyBackToken2Path",
          "type": "address[]"
        },
        {
          "internalType": "address[]",
          "name": "_earnedToToken0Path",
          "type": "address[]"
        },
        {
          "internalType": "address[]",
          "name": "_earnedToToken1Path",
          "type": "address[]"
        },
        {
          "internalType": "address[]",
          "name": "_earnedToBusdPath",
          "type": "address[]"
        },
        {
          "internalType": "address[]",
          "name": "_token0ToEarnedPath",
          "type": "address[]"
        },
        {
          "internalType": "address[]",
          "name": "_token1ToEarnedPath",
          "type": "address[]"
        }
      ],
      "name": "setMainPaths",
      "outputs": [],
      "stateMutability": "nonpayable",
      "type": "function"
    },
    {
      "inputs": [
        {
          "internalType": "bool",
          "name": "_notPublic",
          "type": "bool"
        }
      ],
      "name": "setNotPublic",
      "outputs": [],
      "stateMutability": "nonpayable",
      "type": "function"
    },
    {
      "inputs": [
        {
          "internalType": "address",
          "name": "_operator",
          "type": "address"
        }
      ],
      "name": "setOperator",
      "outputs": [],
      "stateMutability": "nonpayable",
      "type": "function"
    },
    {
      "inputs": [
        {
          "internalType": "address",
          "name": "_strategist",
          "type": "address"
        }
      ],
      "name": "setStrategist",
      "outputs": [],
      "stateMutability": "nonpayable",
      "type": "function"
    },
    {
      "inputs": [
        {
          "internalType": "address",
          "name": "_timelock",
          "type": "address"
        }
      ],
      "name": "setTimelock",
      "outputs": [],
      "stateMutability": "nonpayable",
      "type": "function"
    },
    {
      "inputs": [
        {
          "internalType": "address",
          "name": "_inputToken",
          "type": "address"
        },
        {
          "internalType": "address",
          "name": "_outputToken",
          "type": "address"
        },
        {
          "internalType": "address[]",
          "name": "_path",
          "type": "address[]"
        }
      ],
      "name": "setVswapPaths",
      "outputs": [],
      "stateMutability": "nonpayable",
      "type": "function"
    },
    {
      "inputs": [],
      "name": "sharesTotal",
      "outputs": [
        {
          "internalType": "uint256",
          "name": "",
          "type": "uint256"
        }
      ],
      "stateMutability": "view",
      "type": "function"
    },
    {
      "inputs": [],
      "name": "strategist",
      "outputs": [
        {
          "internalType": "address",
          "name": "",
          "type": "address"
        }
      ],
      "stateMutability": "view",
      "type": "function"
    },
    {
      "inputs": [],
      "name": "timelock",
      "outputs": [
        {
          "internalType": "address",
          "name": "",
          "type": "address"
        }
      ],
      "stateMutability": "view",
      "type": "function"
    },
    {
      "inputs": [],
      "name": "token0Address",
      "outputs": [
        {
          "internalType": "address",
          "name": "",
          "type": "address"
        }
      ],
      "stateMutability": "view",
      "type": "function"
    },
    {
      "inputs": [],
      "name": "token1Address",
      "outputs": [
        {
          "internalType": "address",
          "name": "",
          "type": "address"
        }
      ],
      "stateMutability": "view",
      "type": "function"
    },
    {
      "inputs": [
        {
          "internalType": "address",
          "name": "newOwner",
          "type": "address"
        }
      ],
      "name": "transferOwnership",
      "outputs": [],
      "stateMutability": "nonpayable",
      "type": "function"
    },
    {
      "inputs": [],
      "name": "unpause",
      "outputs": [],
      "stateMutability": "nonpayable",
      "type": "function"
    },
    {
      "inputs": [],
      "name": "vswapFormula",
      "outputs": [
        {
          "internalType": "address",
          "name": "",
          "type": "address"
        }
      ],
      "stateMutability": "view",
      "type": "function"
    },
    {
      "inputs": [
        {
          "internalType": "address",
          "name": "",
          "type": "address"
        },
        {
          "internalType": "address",
          "name": "",
          "type": "address"
        },
        {
          "internalType": "uint256",
          "name": "",
          "type": "uint256"
        }
      ],
      "name": "vswapPaths",
      "outputs": [
        {
          "internalType": "address",
          "name": "",
          "type": "address"
        }
      ],
      "stateMutability": "view",
      "type": "function"
    },
    {
      "inputs": [],
      "name": "vswapRouterAddress",
      "outputs": [
        {
          "internalType": "address",
          "name": "",
          "type": "address"
        }
      ],
      "stateMutability": "view",
      "type": "function"
    },
    {
      "inputs": [],
      "name": "wantAddress",
      "outputs": [
        {
          "internalType": "address",
          "name": "",
          "type": "address"
        }
      ],
      "stateMutability": "view",
      "type": "function"
    },
    {
      "inputs": [],
      "name": "wantLockedTotal",
      "outputs": [
        {
          "internalType": "uint256",
          "name": "",
          "type": "uint256"
        }
      ],
      "stateMutability": "view",
      "type": "function"
    },
    {
      "inputs": [],
      "name": "wbnbAddress",
      "outputs": [
        {
          "internalType": "address",
          "name": "",
          "type": "address"
        }
      ],
      "stateMutability": "view",
      "type": "function"
    },
    {
      "inputs": [
        {
          "internalType": "address",
          "name": "",
          "type": "address"
        },
        {
          "internalType": "uint256",
          "name": "_wantAmt",
          "type": "uint256"
        }
      ],
      "name": "withdraw",
      "outputs": [
        {
          "internalType": "uint256",
          "name": "",
          "type": "uint256"
        }
      ],
      "stateMutability": "nonpayable",
      "type": "function"
    }
  ],
  "bytecode": "0x60806040526002805462ff00001916620100001790556113886008819055600955600a80546001600160a01b031990811673b7e19a1188776f32e8c2b790d9ca578f2896da7c17909155600b805482167345f24baeef268bb6d63aee5129015d69702bcdfa179055600f805460ff60a01b199083167392a082ad5a942140bcc791081f775900d0a514d9171690556000601081905560118190556012556013805460ff191690556064601481905560be6015556016805483167381859801b01764d4f0fa5e64729f5a6c3b91435b17905560178054831673aaaf5d9923be358ea0b6205ef2a3b929d460ac7a17905560185560198054821673190b589cf9fb8ddeabbfeae36a813ffb2a702454179055601a8054909116735d42dc503763dd1e7a1b510b055150cc5754656b179055612710601b553480156200014157600080fd5b50604051620051513803806200515183398181016040526101a08110156200016857600080fd5b815160208301516040808501516060860151608087015160a088018051945196989597939692959194929382019284640100000000821115620001aa57600080fd5b908301906020820185811115620001c057600080fd5b8251866020820283011164010000000082111715620001de57600080fd5b82525081516020918201928201910280838360005b838110156200020d578181015183820152602001620001f3565b5050505091909101604081815260208401519084015160609094018051919694959294935090846401000000008211156200024757600080fd5b9083019060208201858111156200025d57600080fd5b82518660208202830111640100000000821117156200027b57600080fd5b82525081516020918201928201910280838360005b83811015620002aa57818101518382015260200162000290565b5050505090500160405260200180516040519392919084640100000000821115620002d457600080fd5b908301906020820185811115620002ea57600080fd5b82518660208202830111640100000000821117156200030857600080fd5b82525081516020918201928201910280838360005b83811015620003375781810151838201526020016200031d565b50505050919091016040908152602083015190830151606090930151909450919250600090506200036762000620565b600080546001600160a01b0319166001600160a01b03831690811782556040519293509160008051602062005131833981519152908290a3506001805560028054600d8054336001600160a01b03199182168117909255600e8054821690921790915561ffff199091166101008f15150217909155600380549091166001600160a01b038c8116919091179091558716156200041957600a80546001600160a01b0319166001600160a01b0389161790555b6001600160a01b038616156200044557600b80546001600160a01b0319166001600160a01b0388161790555b846000815181106200045357fe5b6020026020010151601660006101000a8154816001600160a01b0302191690836001600160a01b03160217905550846001815181106200048f57fe5b6020026020010151601760006101000a8154816001600160a01b0302191690836001600160a01b0316021790555083600081518110620004cb57fe5b6020026020010151601960006101000a8154816001600160a01b0302191690836001600160a01b03160217905550836001815181106200050757fe5b6020908102919091010151601a80546001600160a01b0319166001600160a01b03928316179055600280546301000000600160b81b0319166301000000928e16929092029190911790819055610100900460ff16156200060257600480546001600160a01b038086166001600160a01b03199283161790925560058054928516929091169190911790558015620005bb576008819055620005b76127108262000624602090811b6200345f17901c565b6009555b600680546001600160a01b0319166001600160a01b038b161790558751620005eb9060079060208b01906200080e565b5087516013805460ff191660ff9092169190911790555b6200060d8d62000675565b5050505050505050505050505062000899565b3390565b60006200066e83836040518060400160405280601e81526020017f536166654d6174683a207375627472616374696f6e206f766572666c6f7700008152506200077360201b60201c565b9392505050565b6200067f62000620565b6000546001600160a01b03908116911614620006e2576040805162461bcd60e51b815260206004820181905260248201527f4f776e61626c653a2063616c6c6572206973206e6f7420746865206f776e6572604482015290519081900360640190fd5b6001600160a01b038116620007295760405162461bcd60e51b81526004018080602001828103825260268152602001806200510b6026913960400191505060405180910390fd5b600080546040516001600160a01b03808516939216916000805160206200513183398151915291a3600080546001600160a01b0319166001600160a01b0392909216919091179055565b60008184841115620008065760405162461bcd60e51b81526004018080602001828103825283818151815260200191508051906020019080838360005b83811015620007ca578181015183820152602001620007b0565b50505050905090810190601f168015620007f85780820380516001836020036101000a031916815260200191505b509250505060405180910390fd5b505050900390565b82805482825590600052602060002090810192821562000866579160200282015b828111156200086657825182546001600160a01b0319166001600160a01b039091161782556020909201916001909101906200082f565b506200087492915062000878565b5090565b5b80821115620008745780546001600160a01b031916815560010162000879565b61486280620008a96000396000f3fe608060405234801561001057600080fd5b50600436106104215760003560e01c8063889adfa811610235578063ce5328e411610135578063dfee1dd9116100c8578063ec820c4911610097578063f2fde38b1161007c578063f2fde38b14610eee578063f3fef3a314610f14578063f400d31114610f4057610421565b8063ec820c4914610e4b578063ee50dc3414610a0d57610421565b8063dfee1dd914610e2b578063e5dd455a14610e33578063e719847414610e3b578063e7a0367914610e4357610421565b8063d8be16da11610104578063d8be16da14610e0b578063db7a3c0f14610e13578063dd4bbd7514610e1b578063df5c8a9e14610e2357610421565b8063ce5328e414610deb578063d33219b414610df3578063d389800f14610dfb578063d7cb416f14610e0357610421565b8063b3ab15fb116101c8578063bf94c0ba11610197578063c302a4d01161017c578063c302a4d014610d97578063c3ec8dda14610d9f578063c7b9d53014610dc557610421565b8063bf94c0ba14610d72578063c11c2e9214610d8f57610421565b8063b3ab15fb14610c4d578063bb9928c614610c73578063bca8885014610c90578063bdacb30314610d4c57610421565b80639e692329116102045780639e69232914610be15780639fc33a9f14610c17578063a552863214610c1f578063b3545c0114610c4557610421565b8063889adfa814610bc15780638da5cb5b14610bc95780639665e82a14610bd15780639748911a14610bd957610421565b806347e7ef241161034057806363fe3e3a116102d357806376a90231116102a25780637ff36fbe116102875780637ff36fbe14610ba95780638456cb5914610bb157806385f02dd614610bb957610421565b806376a9023114610b9957806376ba098a14610ba157610421565b806363fe3e3a14610b1d57806367206d4014610b25578063701f660414610b5b578063715018a614610b9157610421565b806351b699cd1161030f57806351b699cd14610acb578063570ca73514610b055780635c975abb14610b0d578063607f35a014610b1557610421565b806347e7ef2414610a795780634a56fcd414610aa55780634d9f7bb214610a0d5780634e65912f14610aad57610421565b80632717eff3116103b85780633f4ba83a116103875780633f4ba83a14610a4257806342da4eb314610a4a57806344a3955e14610a5257806345d6b66714610a5a57610421565b80632717eff314610a0d57806327e6dcbb14610a1557806336e9332d14610a1d5780633e1a891214610a2557610421565b8063197c760b116103f4578063197c760b146104895780631a43da93146108465780631fe4a6861461084e5780632224fa251461085657610421565b8063061c7d48146104265780630fa4e01e146104405780631334903f146104485780631690cbed14610450575b600080fd5b61042e610f5d565b60408051918252519081900360200190f35b61042e610f63565b61042e610f69565b61046d6004803603602081101561046657600080fd5b5035610f6f565b604080516001600160a01b039092168252519081900360200190f35b610844600480360360e081101561049f57600080fd5b8101906020810181356401000000008111156104ba57600080fd5b8201836020820111156104cc57600080fd5b803590602001918460208302840111640100000000831117156104ee57600080fd5b919080806020026020016040519081016040528093929190818152602001838360200280828437600092019190915250929594936020810193503591505064010000000081111561053e57600080fd5b82018360208201111561055057600080fd5b8035906020019184602083028401116401000000008311171561057257600080fd5b91908080602002602001604051908101604052809392919081815260200183836020028082843760009201919091525092959493602081019350359150506401000000008111156105c257600080fd5b8201836020820111156105d457600080fd5b803590602001918460208302840111640100000000831117156105f657600080fd5b919080806020026020016040519081016040528093929190818152602001838360200280828437600092019190915250929594936020810193503591505064010000000081111561064657600080fd5b82018360208201111561065857600080fd5b8035906020019184602083028401116401000000008311171561067a57600080fd5b91908080602002602001604051908101604052809392919081815260200183836020028082843760009201919091525092959493602081019350359150506401000000008111156106ca57600080fd5b8201836020820111156106dc57600080fd5b803590602001918460208302840111640100000000831117156106fe57600080fd5b919080806020026020016040519081016040528093929190818152602001838360200280828437600092019190915250929594936020810193503591505064010000000081111561074e57600080fd5b82018360208201111561076057600080fd5b8035906020019184602083028401116401000000008311171561078257600080fd5b91908080602002602001604051908101604052809392919081815260200183836020028082843760009201919091525092959493602081019350359150506401000000008111156107d257600080fd5b8201836020820111156107e457600080fd5b8035906020019184602083028401116401000000008311171561080657600080fd5b919080806020026020016040519081016040528093929190818152602001838360200280828437600092019190915250929550610f96945050505050565b005b61046d611198565b61046d6111a7565b6109986004803603608081101561086c57600080fd5b6001600160a01b038235169160208101359181019060608101604082013564010000000081111561089c57600080fd5b8201836020820111156108ae57600080fd5b803590602001918460018302840111640100000000831117156108d057600080fd5b91908080601f016020809104026020016040519081016040528093929190818152602001838380828437600092019190915250929594936020810193503591505064010000000081111561092357600080fd5b82018360208201111561093557600080fd5b8035906020019184600183028401116401000000008311171561095757600080fd5b91908080601f0160208091040260200160405190810160405280939291908181526020018383808284376000920191909152509295506111b6945050505050565b6040805160208082528351818301528351919283929083019185019080838360005b838110156109d25781810151838201526020016109ba565b50505050905090810190601f1680156109ff5780820380516001836020036101000a031916815260200191505b509250505060405180910390f35b61042e6114b3565b61046d6114b9565b6108446114c8565b61084460048036036020811015610a3b57600080fd5b5035611533565b610844611618565b61042e61166b565b61042e611671565b61084460048036036020811015610a7057600080fd5b50351515611677565b61042e60048036036040811015610a8f57600080fd5b506001600160a01b03813516906020013561170a565b61046d6118b0565b610ab56118bf565b6040805160ff9092168252519081900360200190f35b610af160048036036020811015610ae157600080fd5b50356001600160a01b03166118c8565b604080519115158252519081900360200190f35b61046d61190e565b610af161191d565b61046d611926565b61046d611935565b61084460048036036060811015610b3b57600080fd5b506001600160a01b0381358116916020810135916040909101351661194d565b61042e60048036036060811015610b7157600080fd5b506001600160a01b03813581169160208101359091169060400135611ac1565b610844611c99565b61046d611d65565b610af1611d7d565b61046d611d8c565b610844611d9b565b61042e611dec565b61042e611df2565b61046d611fb5565b61042e611fc4565b61042e611fca565b61046d60048036036060811015610bf757600080fd5b506001600160a01b03813581169160208101359091169060400135611fd0565b61046d612012565b61084460048036036020811015610c3557600080fd5b50356001600160a01b0316612028565b61042e612108565b61084460048036036020811015610c6357600080fd5b50356001600160a01b031661210e565b61084460048036036020811015610c8957600080fd5b5035612191565b61084460048036036060811015610ca657600080fd5b6001600160a01b038235811692602081013590911691810190606081016040820135640100000000811115610cda57600080fd5b820183602082011115610cec57600080fd5b80359060200191846020830284011164010000000083111715610d0e57600080fd5b919080806020026020016040519081016040528093929190818152602001838360200280828437600092019190915250929550612238945050505050565b61084460048036036020811015610d6257600080fd5b50356001600160a01b03166122bc565b61084460048036036020811015610d8857600080fd5b503561233f565b6108446123e6565b61042e61261c565b61084460048036036020811015610db557600080fd5b50356001600160a01b0316612622565b61084460048036036020811015610ddb57600080fd5b50356001600160a01b0316612704565b61046d612787565b61046d612796565b6108446127a5565b61046d612dc6565b610af1612dd5565b61042e612df6565b61046d612ef0565b61042e612eff565b61042e612f05565b610af1612f0b565b61046d612f19565b61046d612f28565b61084460048036036020811015610e6157600080fd5b810190602081018135640100000000811115610e7c57600080fd5b820183602082011115610e8e57600080fd5b80359060200191846020830284011164010000000083111715610eb057600080fd5b919080806020026020016040519081016040528093929190818152602001838360200280828437600092019190915250929550612f37945050505050565b61084460048036036020811015610f0457600080fd5b50356001600160a01b0316612fc0565b61042e60048036036040811015610f2a57600080fd5b506001600160a01b0381351690602001356130e2565b61084460048036036020811015610f5657600080fd5b50356133ba565b61012c81565b60105481565b601b5481565b60078181548110610f7c57fe5b6000918252602090912001546001600160a01b0316905081565b600d546001600160a01b03163314610fdf5760405162461bcd60e51b815260040180806020018281038252602b815260200180614790602b913960400191505060405180910390fd5b6006546001600160a01b039081166000908152600c602090815260408083206016549094168352928152919020885161101a928a0190614650565b506006546001600160a01b039081166000908152600c602090815260408083206019549094168352928152919020875161105692890190614650565b506006546001600160a01b039081166000908152600c602090815260408083206004549094168352928152919020865161109292880190614650565b506006546001600160a01b039081166000908152600c60209081526040808320600554909416835292815291902085516110ce92870190614650565b506006546001600160a01b03166000908152600c6020908152604080832073e9e7cea3dedca5984780bafc599bd69add087d5684528252909120845161111692860190614650565b506004546001600160a01b039081166000908152600c602090815260408083206006549094168352928152919020835161115292850190614650565b506005546001600160a01b039081166000908152600c602090815260408083206006549094168352928152919020825161118e92840190614650565b5050505050505050565b6017546001600160a01b031681565b600e546001600160a01b031681565b600f546060906001600160a01b031633146112025760405162461bcd60e51b81526004018080602001828103825260278152602001806147dc6027913960400191505060405180910390fd5b60608351600014156112155750816112ad565b83805190602001208360405160200180837bffffffffffffffffffffffffffffffffffffffffffffffffffffffff1916815260040182805190602001908083835b602083106112755780518252601f199092019160209182019101611256565b6001836020036101000a0380198251168184511680821785525050505050509050019250505060405160208183030381529060405290505b60006060876001600160a01b031687846040518082805190602001908083835b602083106112ec5780518252601f1990920191602091820191016112cd565b6001836020036101000a03801982511681845116808217855250505050505090500191505060006040518083038185875af1925050503d806000811461134e576040519150601f19603f3d011682016040523d82523d6000602084013e611353565b606091505b5091509150816113945760405162461bcd60e51b81526004018080602001828103825260448152602001806147056044913960600191505060405180910390fd5b876001600160a01b03167f88405ca50016c636e025868e263efe5a9f63bf11cc45404f7616394c7dc389d0888888604051808481526020018060200180602001838103835285818151815260200191508051906020019080838360005b838110156114095781810151838201526020016113f1565b50505050905090810190601f1680156114365780820380516001836020036101000a031916815260200191505b50838103825284518152845160209182019186019080838360005b83811015611469578181015183820152602001611451565b50505050905090810190601f1680156114965780820380516001836020036101000a031916815260200191505b509550505050505060405180910390a2925050505b949350505050565b61271081565b600b546001600160a01b031681565b60026001541415611520576040805162461bcd60e51b815260206004820152601f60248201527f5265656e7472616e637947756172643a207265656e7472616e742063616c6c00604482015290519081900360640190fd5b600260015561152d6134a8565b60018055565b600d546001600160a01b0316331461157c5760405162461bcd60e51b815260040180806020018281038252602b815260200180614790602b913960400191505060405180910390fd5b6126de81116115d2576040805162461bcd60e51b815260206004820181905260248201527f427661756c747353747261746567793a202173616665202d20746f6f206c6f77604482015290519081900360640190fd5b6127108111156116135760405162461bcd60e51b81526004018080602001828103825260218152602001806147496021913960400191505060405180910390fd5b601b55565b600d546001600160a01b031633146116615760405162461bcd60e51b815260040180806020018281038252602b815260200180614790602b913960400191505060405180910390fd5b611669613601565b565b60115481565b60125481565b600d546001600160a01b031633146116c05760405162461bcd60e51b815260040180806020018281038252602b815260200180614790602b913960400191505060405180910390fd5b600f805491151574010000000000000000000000000000000000000000027fffffffffffffffffffffff00ffffffffffffffffffffffffffffffffffffffff909216919091179055565b60006117146136c6565b6000546001600160a01b03908116911614611776576040805162461bcd60e51b815260206004820181905260248201527f4f776e61626c653a2063616c6c6572206973206e6f7420746865206f776e6572604482015290519081900360640190fd5b60025460ff16156117ce576040805162461bcd60e51b815260206004820152601060248201527f5061757361626c653a2070617573656400000000000000000000000000000000604482015290519081900360640190fd5b6003546117e6906001600160a01b03163330856136ca565b6011548290158015906117fb57506000601254115b156118365761183361271061182d60115461182d601b546118276012548a61375290919063ffffffff16565b90613752565b906137ab565b90505b60125461184390826137ed565b601255600254610100900460ff16156118635761185e6134a8565b611874565b60115461187090846137ed565b6011555b6040805184815290517f4d6ce1e535dbade1c23defba91e23b8f791ce5edc0cc320257a2b364e4e384269181900360200190a190505b92915050565b601a546001600160a01b031681565b60135460ff1681565b600d546000906001600160a01b03838116911614806118f15750600e546001600160a01b031633145b806119065750600f546001600160a01b031633145b90505b919050565b600d546001600160a01b031681565b60025460ff1690565b6019546001600160a01b031681565b73bb4cdb9cbd36b01bd1cbaebf2de08d9173bc095c81565b600d546001600160a01b031633146119965760405162461bcd60e51b815260040180806020018281038252602b815260200180614790602b913960400191505060405180910390fd5b6006546001600160a01b03848116911614156119f9576040805162461bcd60e51b815260206004820152600660248201527f6561726e65640000000000000000000000000000000000000000000000000000604482015290519081900360640190fd5b6003546001600160a01b0384811691161415611a5e576040805162461bcd60e51b8152602060048083019190915260248201527f77616e7400000000000000000000000000000000000000000000000000000000604482015290519081900360640190fd5b611a726001600160a01b0384168284613847565b604080516001600160a01b0380861682526020820185905283168183015290517f22f92dfb4f608ea5db1e9bb08c0b4f5518af93b1259d335fe05900056096ab2c9181900360600190a1505050565b600b546001600160a01b038481166000818152600c60209081526040808320888616808552925280832090517f8fabd82d0000000000000000000000000000000000000000000000000000000081526004810194855260248101929092526044820187905260806064830190815281546084840181905293966060961694638fabd82d948b948b948b94909392909160a4019084908015611b8b57602002820191906000526020600020905b81546001600160a01b03168152600190910190602001808311611b6d575b50509550505050505060006040518083038186803b158015611bac57600080fd5b505afa158015611bc0573d6000803e3d6000fd5b505050506040513d6000823e601f3d908101601f191682016040526020811015611be957600080fd5b8101908080516040519392919084640100000000821115611c0957600080fd5b908301906020820185811115611c1e57600080fd5b8251866020820283011164010000000082111715611c3b57600080fd5b82525081516020918201928201910280838360005b83811015611c68578181015183820152602001611c50565b50505050905001604052505050905080600182510381518110611c8757fe5b60200260200101519150509392505050565b611ca16136c6565b6000546001600160a01b03908116911614611d03576040805162461bcd60e51b815260206004820181905260248201527f4f776e61626c653a2063616c6c6572206973206e6f7420746865206f776e6572604482015290519081900360640190fd5b600080546040516001600160a01b03909116907f8be0079c531659141344cd1fd0a4f28419497f9722a3daafe3b4186f6b6457e0908390a3600080547fffffffffffffffffffffffff0000000000000000000000000000000000000000169055565b73e9e7cea3dedca5984780bafc599bd69add087d5681565b60025462010000900460ff1681565b6004546001600160a01b031681565b600d546001600160a01b03163314611de45760405162461bcd60e51b815260040180806020018281038252602b815260200180614790602b913960400191505060405180910390fd5b6116696138cc565b60145481565b600080805b60135460ff9081169082161015611faf57600060078260ff1681548110611e1a57fe5b60009182526020918290200154604080516370a0823160e01b815230600482015290516001600160a01b03909216926370a0823192602480840193829003018186803b158015611e6957600080fd5b505afa158015611e7d573d6000803e3d6000fd5b505050506040513d6020811015611e9357600080fd5b5051600254604080517fbe61533500000000000000000000000000000000000000000000000000000000815260ff861660048201523060248201529051929350600092611f4692859263010000009091046001600160a01b03169163be61533591604480820192602092909190829003018186803b158015611f1457600080fd5b505afa158015611f28573d6000803e3d6000fd5b505050506040513d6020811015611f3e57600080fd5b5051906137ed565b9050611fa38115611f9957611f9460078560ff1681548110611f6457fe5b6000918252602090912001546001600160a01b031673e9e7cea3dedca5984780bafc599bd69add087d5684611ac1565b611f9c565b60005b85906137ed565b93505050600101611df7565b50905090565b6000546001600160a01b031690565b60095481565b60085481565b600c6020528260005260406000206020528160005260406000208181548110611ff557fe5b6000918252602090912001546001600160a01b0316925083915050565b600254630100000090046001600160a01b031681565b600d546001600160a01b031633146120715760405162461bcd60e51b815260040180806020018281038252602b815260200180614790602b913960400191505060405180910390fd5b6001600160a01b0381166120ce576040805162461bcd60e51b8152602060048083019190915260248201527f7a65726f00000000000000000000000000000000000000000000000000000000604482015290519081900360640190fd5b601a80547fffffffffffffffffffffffff0000000000000000000000000000000000000000166001600160a01b0392909216919091179055565b61032081565b600d546001600160a01b031633146121575760405162461bcd60e51b815260040180806020018281038252602b815260200180614790602b913960400191505060405180910390fd5b600d80547fffffffffffffffffffffffff0000000000000000000000000000000000000000166001600160a01b0392909216919091179055565b600d546001600160a01b031633146121da5760405162461bcd60e51b815260040180806020018281038252602b815260200180614790602b913960400191505060405180910390fd5b6103206018541115612233576040805162461bcd60e51b815260206004820152601960248201527f427661756c747353747261746567793a20746f6f206869676800000000000000604482015290519081900360640190fd5b601855565b600d546001600160a01b031633146122815760405162461bcd60e51b815260040180806020018281038252602b815260200180614790602b913960400191505060405180910390fd5b6001600160a01b038084166000908152600c60209081526040808320938616835292815291902082516122b692840190614650565b50505050565b600f546001600160a01b031633146123055760405162461bcd60e51b81526004018080602001828103825260278152602001806147dc6027913960400191505060405180910390fd5b600f80547fffffffffffffffffffffffff0000000000000000000000000000000000000000166001600160a01b0392909216919091179055565b600d546001600160a01b031633146123885760405162461bcd60e51b815260040180806020018281038252602b815260200180614790602b913960400191505060405180910390fd5b61032060155411156123e1576040805162461bcd60e51b815260206004820152601960248201527f427661756c747353747261746567793a20746f6f206869676800000000000000604482015290519081900360640190fd5b601555565b60025460ff161561243e576040805162461bcd60e51b815260206004820152601060248201527f5061757361626c653a2070617573656400000000000000000000000000000000604482015290519081900360640190fd5b600254610100900460ff1661249a576040805162461bcd60e51b815260206004820152600b60248201527f2169734175746f436f6d70000000000000000000000000000000000000000000604482015290519081900360640190fd5b60048054604080516370a0823160e01b81523093810193909352516000926001600160a01b03909216916370a08231916024808301926020929190829003018186803b1580156124e957600080fd5b505afa1580156124fd573d6000803e3d6000fd5b505050506040513d602081101561251357600080fd5b50516006546004549192506001600160a01b039182169116148015906125395750600081115b1561255b5760045460065461255b916001600160a01b03908116911683613978565b600554604080516370a0823160e01b815230600482015290516000926001600160a01b0316916370a08231916024808301926020929190829003018186803b1580156125a657600080fd5b505afa1580156125ba573d6000803e3d6000fd5b505050506040513d60208110156125d057600080fd5b50516006546005549192506001600160a01b039182169116148015906125f65750600081115b1561261857600554600654612618916001600160a01b03908116911683613978565b5050565b6126de81565b600d546001600160a01b0316331461266b5760405162461bcd60e51b815260040180806020018281038252602b815260200180614790602b913960400191505060405180910390fd5b6017546001600160a01b03166126ca576040805162461bcd60e51b8152602060048083019190915260248201527f7a65726f00000000000000000000000000000000000000000000000000000000604482015290519081900360640190fd5b601780547fffffffffffffffffffffffff0000000000000000000000000000000000000000166001600160a01b0392909216919091179055565b600d546001600160a01b0316331461274d5760405162461bcd60e51b815260040180806020018281038252602b815260200180614790602b913960400191505060405180910390fd5b600e80547fffffffffffffffffffffffff0000000000000000000000000000000000000000166001600160a01b0392909216919091179055565b6016546001600160a01b031681565b600f546001600160a01b031681565b60025460ff16156127fd576040805162461bcd60e51b815260206004820152601060248201527f5061757361626c653a2070617573656400000000000000000000000000000000604482015290519081900360640190fd5b600254610100900460ff16612859576040805162461bcd60e51b815260206004820152601c60248201527f427661756c747353747261746567793a202169734175746f436f6d7000000000604482015290519081900360640190fd5b600f5474010000000000000000000000000000000000000000900460ff1615806128875750612887336118c8565b6128d8576040805162461bcd60e51b815260206004820152601c60248201527f427661756c747353747261746567793a2021617574686f726973656400000000604482015290519081900360640190fd5b600254604080517f362a3fad000000000000000000000000000000000000000000000000000000008152306004820152905163010000009092046001600160a01b03169163362a3fad9160248082019260009290919082900301818387803b15801561294357600080fd5b505af1158015612957573d6000803e3d6000fd5b5050505060005b60135460ff9081169082161015612a7d57600654600780546001600160a01b039092169160ff841690811061298f57fe5b6000918252602090912001546001600160a01b031614612a7557600060078260ff16815481106129bb57fe5b60009182526020918290200154604080516370a0823160e01b815230600482015290516001600160a01b03909216926370a0823192602480840193829003018186803b158015612a0a57600080fd5b505afa158015612a1e573d6000803e3d6000fd5b505050506040513d6020811015612a3457600080fd5b505190508015612a7357612a7360078360ff1681548110612a5157fe5b6000918252602090912001546006546001600160a01b03918216911683613978565b505b60010161295e565b50600654604080516370a0823160e01b815230600482015290516000926001600160a01b0316916370a08231916024808301926020929190829003018186803b158015612ac957600080fd5b505afa158015612add573d6000803e3d6000fd5b505050506040513d6020811015612af357600080fd5b5051600654604080516001600160a01b0390921682526020820183905280519293507f053fa1fc52294a40b4ff1a988765bd298c00caa24d685cc3f767dcfde254ef9a92918290030190a16000612b4982613b6c565b90506000612b5683613c0e565b90506000612b6384613e56565b9050612b7b81612b758481888861345f565b9061345f565b600a54600654919550612b9b916001600160a01b03908116911686614122565b6004546006546001600160a01b03908116911614612be657600654600454600854612be6926001600160a01b03908116921690612be1906127109061182d908a90613752565b613978565b6005546006546001600160a01b03908116911614612c2c57600654600554600954612c2c926001600160a01b03908116921690612be1906127109061182d908a90613752565b60048054604080516370a0823160e01b81523093810193909352516000926001600160a01b03909216916370a08231916024808301926020929190829003018186803b158015612c7b57600080fd5b505afa158015612c8f573d6000803e3d6000fd5b505050506040513d6020811015612ca557600080fd5b5051600554604080516370a0823160e01b815230600482015290519293506000926001600160a01b03909216916370a0823191602480820192602092909190829003018186803b158015612cf857600080fd5b505afa158015612d0c573d6000803e3d6000fd5b505050506040513d6020811015612d2257600080fd5b505190508115801590612d355750600081115b15612db257600454600554612d58916001600160a01b0390811691168484614209565b600454600554604080516001600160a01b0393841681526020810186905291909216818301526060810183905290517f44552da03f807ace3e5f27e98e694712dfe668c743514b28d4d9f5ab70574b0f9181900360800190a15b43601055612dbe6134a8565b505050505050565b6005546001600160a01b031681565b600f5474010000000000000000000000000000000000000000900460ff1681565b600654604080516370a0823160e01b8152306004820152905160009283926001600160a01b03909116916370a0823191602480820192602092909190829003018186803b158015612e4657600080fd5b505afa158015612e5a573d6000803e3d6000fd5b505050506040513d6020811015612e7057600080fd5b5051600254604080517fbe615335000000000000000000000000000000000000000000000000000000008152600060048201523060248201529051929350612eea928492630100000090046001600160a01b03169163be615335916044808301926020929190829003018186803b158015611f1457600080fd5b91505090565b600a546001600160a01b031681565b60155481565b60185481565b600254610100900460ff1681565b6006546001600160a01b031681565b6003546001600160a01b031681565b600d546001600160a01b03163314612f805760405162461bcd60e51b815260040180806020018281038252602b815260200180614790602b913960400191505060405180910390fd5b8051601380547fffffffffffffffffffffffffffffffffffffffffffffffffffffffffffffff001660ff8316179055612618906007906020840190614650565b612fc86136c6565b6000546001600160a01b0390811691161461302a576040805162461bcd60e51b815260206004820181905260248201527f4f776e61626c653a2063616c6c6572206973206e6f7420746865206f776e6572604482015290519081900360640190fd5b6001600160a01b03811661306f5760405162461bcd60e51b815260040180806020018281038252602681526020018061476a6026913960400191505060405180910390fd5b600080546040516001600160a01b03808516939216917f8be0079c531659141344cd1fd0a4f28419497f9722a3daafe3b4186f6b6457e091a3600080547fffffffffffffffffffffffff0000000000000000000000000000000000000000166001600160a01b0392909216919091179055565b60006130ec6136c6565b6000546001600160a01b0390811691161461314e576040805162461bcd60e51b815260206004820181905260248201527f4f776e61626c653a2063616c6c6572206973206e6f7420746865206f776e6572604482015290519081900360640190fd5b600260015414156131a6576040805162461bcd60e51b815260206004820152601f60248201527f5265656e7472616e637947756172643a207265656e7472616e742063616c6c00604482015290519081900360640190fd5b6002600155816131fd576040805162461bcd60e51b815260206004820152601a60248201527f427661756c747353747261746567793a20215f77616e74416d74000000000000604482015290519081900360640190fd5b600254610100900460ff161561328157600260039054906101000a90046001600160a01b03166001600160a01b0316632e1a7d4d836040518263ffffffff1660e01b815260040180828152602001915050600060405180830381600087803b15801561326857600080fd5b505af115801561327c573d6000803e3d6000fd5b505050505b600354604080516370a0823160e01b815230600482015290516000926001600160a01b0316916370a08231916024808301926020929190829003018186803b1580156132cc57600080fd5b505afa1580156132e0573d6000803e3d6000fd5b505050506040513d60208110156132f657600080fd5b5051905080831115613306578092505b8260115410156133165760115492505b600061333360115461182d6012548761375290919063ffffffff16565b905060125481111561334457506012545b601254613351908261345f565b601255601154613361908561345f565b60115560035461337b906001600160a01b03163386613847565b6040805185815290517f5b6b431d4476a211bb7d41c20d1aab9ae2321deee0d20be3d9fc9b1093fa6e3d9181900360200190a160018055949350505050565b600d546001600160a01b031633146134035760405162461bcd60e51b815260040180806020018281038252602b815260200180614790602b913960400191505060405180910390fd5b61012c81111561345a576040805162461bcd60e51b815260206004820152601960248201527f427661756c747353747261746567793a20746f6f206869676800000000000000604482015290519081900360640190fd5b601455565b60006134a183836040518060400160405280601e81526020017f536166654d6174683a207375627472616374696f6e206f766572666c6f770000815250614326565b9392505050565b600354604080516370a0823160e01b815230600482015290516000926001600160a01b0316916370a08231916024808301926020929190829003018186803b1580156134f357600080fd5b505afa158015613507573d6000803e3d6000fd5b505050506040513d602081101561351d57600080fd5b505160115490915061352f90826137ed565b601155600254600354613557916001600160a01b039182169163010000009091041683614122565b600260039054906101000a90046001600160a01b03166001600160a01b031663a694fc3a826040518263ffffffff1660e01b815260040180828152602001915050600060405180830381600087803b1580156135b257600080fd5b505af11580156135c6573d6000803e3d6000fd5b50506040805184815290517fc217459869eed80bfbe5c11e78ab58912eedfd106342671821b6e96d1615dc7f9350908190036020019150a150565b60025460ff16613658576040805162461bcd60e51b815260206004820152601460248201527f5061757361626c653a206e6f7420706175736564000000000000000000000000604482015290519081900360640190fd5b600280547fffffffffffffffffffffffffffffffffffffffffffffffffffffffffffffff001690557f5db9ee0a495bf2e6ff9c91a7834c1ba4fdd244a5e8aa4e537bd38aeae4b073aa6136a96136c6565b604080516001600160a01b039092168252519081900360200190a1565b3390565b604080516001600160a01b0380861660248301528416604482015260648082018490528251808303909101815260849091019091526020810180517bffffffffffffffffffffffffffffffffffffffffffffffffffffffff167f23b872dd000000000000000000000000000000000000000000000000000000001790526122b69085906143bd565b600082613761575060006118aa565b8282028284828161376e57fe5b04146134a15760405162461bcd60e51b81526004018080602001828103825260218152602001806147bb6021913960400191505060405180910390fd5b60006134a183836040518060400160405280601a81526020017f536166654d6174683a206469766973696f6e206279207a65726f00000000000081525061446e565b6000828201838110156134a1576040805162461bcd60e51b815260206004820152601b60248201527f536166654d6174683a206164646974696f6e206f766572666c6f770000000000604482015290519081900360640190fd5b604080516001600160a01b038416602482015260448082018490528251808303909101815260649091019091526020810180517bffffffffffffffffffffffffffffffffffffffffffffffffffffffff167fa9059cbb000000000000000000000000000000000000000000000000000000001790526138c79084906143bd565b505050565b60025460ff1615613924576040805162461bcd60e51b815260206004820152601060248201527f5061757361626c653a2070617573656400000000000000000000000000000000604482015290519081900360640190fd5b600280547fffffffffffffffffffffffffffffffffffffffffffffffffffffffffffffff001660011790557f62e78cea01bee320cd4e420270b5ea74000d11b0c9f74754ebdbfc544b05a2586136a96136c6565b600a54613992906001600160a01b03858116911683614122565b600a546001600160a01b038481166000908152600c602090815260408083208785168452909152902091169063bff51d7190859085908590600190306139da426107086137ed565b6040518863ffffffff1660e01b815260040180886001600160a01b03168152602001876001600160a01b0316815260200186815260200185815260200180602001846001600160a01b031681526020018381526020018281038252858181548152602001915080548015613a7757602002820191906000526020600020905b81546001600160a01b03168152600190910190602001808311613a59575b505098505050505050505050600060405180830381600087803b158015613a9d57600080fd5b505af1158015613ab1573d6000803e3d6000fd5b505050506040513d6000823e601f3d908101601f191682016040526020811015613ada57600080fd5b8101908080516040519392919084640100000000821115613afa57600080fd5b908301906020820185811115613b0f57600080fd5b8251866020820283011164010000000082111715613b2c57600080fd5b82525081516020918201928201910280838360005b83811015613b59578181015183820152602001613b41565b5050505090500160405250505050505050565b60008115611909576014541561190957613b9761271061182d6014548561375290919063ffffffff16565b600d54600654919250613bb7916001600160a01b03908116911683613847565b600654600d54604080516001600160a01b03938416815260208101859052919092168183015290517f056e5430e11cfdfb90a183ec3bf63ed22abe70cdf4e7bd3018d8b459bbd7f6199181900360600190a1919050565b6015546000901580613c2957506017546001600160a01b0316155b15613c3657506000611909565b6000613c5361271061182d6015548661375290919063ffffffff16565b6006546001600160a01b039081166000908152600c6020908152604080832060165485168085529083528184205460175483516370a0823160e01b81529616600487015291519596509094929390926370a0823192602480840193919291829003018186803b158015613cc557600080fd5b505afa158015613cd9573d6000803e3d6000fd5b505050506040513d6020811015613cef57600080fd5b505190508115801590613d1357506016546006546001600160a01b03908116911614155b15613d3a57600654601654613d35916001600160a01b03908116911685613978565b613d57565b601754600654613d57916001600160a01b03918216911685613847565b601654601754604080516370a0823160e01b81526001600160a01b039283166004820152905160009392909216916370a0823191602480820192602092909190829003018186803b158015613dab57600080fd5b505afa158015613dbf573d6000803e3d6000fd5b505050506040513d6020811015613dd557600080fd5b505190506000613de5828461345f565b600654601654601754604080516001600160a01b03948516815292841660208401528281018a9052606083018590529216608082015290519192507fb152a9c4203a9515a80fadb5b18afb6bfce5350eccdfda9d0908ac37ec094222919081900360a00190a1509295945050505050565b6018546000901580613e715750601a546001600160a01b0316155b15613e7e57506000611909565b6000613e9b61271061182d6018548661375290919063ffffffff16565b6006546001600160a01b039081166000908152600c60209081526040808320601954851680855290835281842054601a5483516370a0823160e01b81529616600487015291519596509094929390926370a0823192602480840193919291829003018186803b158015613f0d57600080fd5b505afa158015613f21573d6000803e3d6000fd5b505050506040513d6020811015613f3757600080fd5b505190508115801590613f5b57506019546006546001600160a01b03908116911614155b15613f8257600654601954613f7d916001600160a01b03908116911685613978565b613f9f565b601a54600654613f9f916001600160a01b03918216911685613847565b601954601a54604080516370a0823160e01b81526001600160a01b039283166004820152905160009392909216916370a0823191602480820192602092909190829003018186803b158015613ff357600080fd5b505afa158015614007573d6000803e3d6000fd5b505050506040513d602081101561401d57600080fd5b50519050600061402d828461345f565b9050801561411757601a54604080517f50afa34b0000000000000000000000000000000000000000000000000000000081526004810184905290516001600160a01b03909216916350afa34b9160248082019260009290919082900301818387803b15801561409b57600080fd5b505af11580156140af573d6000803e3d6000fd5b5050600654601954601a54604080516001600160a01b03948516815292841660208401528281018b9052606083018790529216608082015290517fb152a9c4203a9515a80fadb5b18afb6bfce5350eccdfda9d0908ac37ec09422293509081900360a0019150a15b509295945050505050565b600061418682856001600160a01b031663dd62ed3e30876040518363ffffffff1660e01b815260040180836001600160a01b03168152602001826001600160a01b031681526020019250505060206040518083038186803b158015611f1457600080fd5b604080516001600160a01b038616602482015260448082018490528251808303909101815260649091019091526020810180517bffffffffffffffffffffffffffffffffffffffffffffffffffffffff167f095ea7b3000000000000000000000000000000000000000000000000000000001790529091506122b69085906143bd565b600a54614223906001600160a01b03868116911684614122565b600a5461423d906001600160a01b03858116911683614122565b600a546003546001600160a01b039182169163fbf451359116868686866000803061426a426107086137ed565b6040518a63ffffffff1660e01b8152600401808a6001600160a01b03168152602001896001600160a01b03168152602001886001600160a01b03168152602001878152602001868152602001858152602001848152602001836001600160a01b031681526020018281526020019950505050505050505050606060405180830381600087803b1580156142fc57600080fd5b505af1158015614310573d6000803e3d6000fd5b505050506040513d6060811015612dbe57600080fd5b600081848411156143b55760405162461bcd60e51b81526004018080602001828103825283818151815260200191508051906020019080838360005b8381101561437a578181015183820152602001614362565b50505050905090810190601f1680156143a75780820380516001836020036101000a031916815260200191505b509250505060405180910390fd5b505050900390565b6060614412826040518060400160405280602081526020017f5361666545524332303a206c6f772d6c6576656c2063616c6c206661696c6564815250856001600160a01b03166144d39092919063ffffffff16565b8051909150156138c75780806020019051602081101561443157600080fd5b50516138c75760405162461bcd60e51b815260040180806020018281038252602a815260200180614803602a913960400191505060405180910390fd5b600081836144bd5760405162461bcd60e51b815260206004820181815283516024840152835190928392604490910191908501908083836000831561437a578181015183820152602001614362565b5060008385816144c957fe5b0495945050505050565b60606114ab848460008560606144e88561464a565b614539576040805162461bcd60e51b815260206004820152601d60248201527f416464726573733a2063616c6c20746f206e6f6e2d636f6e7472616374000000604482015290519081900360640190fd5b60006060866001600160a01b031685876040518082805190602001908083835b602083106145785780518252601f199092019160209182019101614559565b6001836020036101000a03801982511681845116808217855250505050505090500191505060006040518083038185875af1925050503d80600081146145da576040519150601f19603f3d011682016040523d82523d6000602084013e6145df565b606091505b509150915081156145f35791506114ab9050565b8051156146035780518082602001fd5b60405162461bcd60e51b815260206004820181815286516024840152865187939192839260440191908501908083836000831561437a578181015183820152602001614362565b3b151590565b8280548282559060005260206000209081019282156146bd579160200282015b828111156146bd57825182547fffffffffffffffffffffffff0000000000000000000000000000000000000000166001600160a01b03909116178255602090920191600190910190614670565b506146c99291506146cd565b5090565b5b808211156146c95780547fffffffffffffffffffffffff00000000000000000000000000000000000000001681556001016146ce56fe427661756c747353747261746567793a3a657865637574655472616e73616374696f6e3a205472616e73616374696f6e20657865637574696f6e2072657665727465642e427661756c747353747261746567793a202173616665202d20746f6f20686967684f776e61626c653a206e6577206f776e657220697320746865207a65726f2061646472657373427661756c747353747261746567793a2063616c6c6572206973206e6f7420746865206f70657261746f72536166654d6174683a206d756c7469706c69636174696f6e206f766572666c6f77427661756c747353747261746567793a2063616c6c6572206973206e6f742074696d656c6f636b5361666545524332303a204552433230206f7065726174696f6e20646964206e6f742073756363656564a2646970667358221220346102f7533ad8263fe18cff164b2ec710898e8ea1352355f14f4d098ebe08cb64736f6c634300060c00334f776e61626c653a206e6577206f776e657220697320746865207a65726f20616464726573738be0079c531659141344cd1fd0a4f28419497f9722a3daafe3b4186f6b6457e0",
  "linkReferences": {},
  "deployedLinkReferences": {}
}