{
  "_format": "hh-sol-artifact-1",
  "contractName": "MockStrategy",
  "sourceName": "contracts/test/MockStrategy.sol",
  "abi": [
    {
      "inputs": [
        {
          "internalType": "address",
          "name": "_want",
          "type": "address"
        }
      ],
      "stateMutability": "nonpayable",
      "type": "constructor"
    },
    {
      "inputs": [
        {
          "internalType": "address",
          "name": "",
          "type": "address"
        },
        {
          "internalType": "uint256",
          "name": "_wantAmt",
          "type": "uint256"
        }
      ],
      "name": "deposit",
      "outputs": [
        {
          "internalType": "uint256",
          "name": "",
          "type": "uint256"
        }
      ],
      "stateMutability": "nonpayable",
      "type": "function"
    },
    {
      "inputs": [],
      "name": "earn",
      "outputs": [],
      "stateMutability": "nonpayable",
      "type": "function"
    },
    {
      "inputs": [
        {
          "internalType": "address",
          "name": "_token",
          "type": "address"
        },
        {
          "internalType": "uint256",
          "name": "_amount",
          "type": "uint256"
        },
        {
          "internalType": "address",
          "name": "_to",
          "type": "address"
        }
      ],
      "name": "inCaseTokensGetStuck",
      "outputs": [],
      "stateMutability": "nonpayable",
      "type": "function"
    },
    {
      "inputs": [],
      "name": "sharesTotal",
      "outputs": [
        {
          "internalType": "uint256",
          "name": "",
          "type": "uint256"
        }
      ],
      "stateMutability": "view",
      "type": "function"
    },
    {
      "inputs": [],
      "name": "want",
      "outputs": [
        {
          "internalType": "address",
          "name": "",
          "type": "address"
        }
      ],
      "stateMutability": "view",
      "type": "function"
    },
    {
      "inputs": [],
      "name": "wantLockedTotal",
      "outputs": [
        {
          "internalType": "uint256",
          "name": "",
          "type": "uint256"
        }
      ],
      "stateMutability": "view",
      "type": "function"
    },
    {
      "inputs": [
        {
          "internalType": "address",
          "name": "",
          "type": "address"
        },
        {
          "internalType": "uint256",
          "name": "_wantAmt",
          "type": "uint256"
        }
      ],
      "name": "withdraw",
      "outputs": [
        {
          "internalType": "uint256",
          "name": "",
          "type": "uint256"
        }
      ],
      "stateMutability": "nonpayable",
      "type": "function"
    }
  ],
  "bytecode": "0x608060405234801561001057600080fd5b50604051610a16380380610a168339818101604052602081101561003357600080fd5b5051600080546001600160a01b039092166001600160a01b03199092169190911790556109b1806100656000396000f3fe608060405234801561001057600080fd5b506004361061007d5760003560e01c806347e7ef241161005b57806347e7ef24146100d557806367206d401461010e578063d389800f14610153578063f3fef3a31461015b5761007d565b80631f1fcd511461008257806342da4eb3146100b357806344a3955e146100cd575b600080fd5b61008a610194565b6040805173ffffffffffffffffffffffffffffffffffffffff9092168252519081900360200190f35b6100bb6101b0565b60408051918252519081900360200190f35b6100bb6101fc565b6100bb600480360360408110156100eb57600080fd5b5073ffffffffffffffffffffffffffffffffffffffff8135169060200135610202565b6101516004803603606081101561012457600080fd5b5073ffffffffffffffffffffffffffffffffffffffff813581169160208101359160409091013516610241565b005b610151610246565b6100bb6004803603604081101561017157600080fd5b5073ffffffffffffffffffffffffffffffffffffffff8135169060200135610273565b60005473ffffffffffffffffffffffffffffffffffffffff1681565b60025460009060ff16156101f4576101ed670de0b6b3a76400006101e7670f43fc2c04ee00006001546102a590919063ffffffff16565b9061031f565b90506101f9565b506001545b90565b60015490565b600080546102289073ffffffffffffffffffffffffffffffffffffffff16333085610361565b60015461023590836103fc565b60015550805b92915050565b505050565b600280547fffffffffffffffffffffffffffffffffffffffffffffffffffffffffffffff00166001179055565b600080546102989073ffffffffffffffffffffffffffffffffffffffff163384610470565b60015461023590836104fd565b6000826102b45750600061023b565b828202828482816102c157fe5b0414610318576040517f08c379a00000000000000000000000000000000000000000000000000000000081526004018080602001828103825260218152602001806109316021913960400191505060405180910390fd5b9392505050565b600061031883836040518060400160405280601a81526020017f536166654d6174683a206469766973696f6e206279207a65726f00000000000081525061053f565b6040805173ffffffffffffffffffffffffffffffffffffffff80861660248301528416604482015260648082018490528251808303909101815260849091019091526020810180517bffffffffffffffffffffffffffffffffffffffffffffffffffffffff167f23b872dd000000000000000000000000000000000000000000000000000000001790526103f69085906105fb565b50505050565b60008282018381101561031857604080517f08c379a000000000000000000000000000000000000000000000000000000000815260206004820152601b60248201527f536166654d6174683a206164646974696f6e206f766572666c6f770000000000604482015290519081900360640190fd5b6040805173ffffffffffffffffffffffffffffffffffffffff8416602482015260448082018490528251808303909101815260649091019091526020810180517bffffffffffffffffffffffffffffffffffffffffffffffffffffffff167fa9059cbb000000000000000000000000000000000000000000000000000000001790526102419084906105fb565b600061031883836040518060400160405280601e81526020017f536166654d6174683a207375627472616374696f6e206f766572666c6f7700008152506106d3565b600081836105e5576040517f08c379a00000000000000000000000000000000000000000000000000000000081526004018080602001828103825283818151815260200191508051906020019080838360005b838110156105aa578181015183820152602001610592565b50505050905090810190601f1680156105d75780820380516001836020036101000a031916815260200191505b509250505060405180910390fd5b5060008385816105f157fe5b0495945050505050565b606061065d826040518060400160405280602081526020017f5361666545524332303a206c6f772d6c6576656c2063616c6c206661696c65648152508573ffffffffffffffffffffffffffffffffffffffff166107479092919063ffffffff16565b8051909150156102415780806020019051602081101561067c57600080fd5b5051610241576040517f08c379a000000000000000000000000000000000000000000000000000000000815260040180806020018281038252602a815260200180610952602a913960400191505060405180910390fd5b6000818484111561073f576040517f08c379a00000000000000000000000000000000000000000000000000000000081526020600482018181528351602484015283519092839260449091019190850190808383600083156105aa578181015183820152602001610592565b505050900390565b6060610756848460008561075e565b949350505050565b60606107698561092a565b6107d457604080517f08c379a000000000000000000000000000000000000000000000000000000000815260206004820152601d60248201527f416464726573733a2063616c6c20746f206e6f6e2d636f6e7472616374000000604482015290519081900360640190fd5b600060608673ffffffffffffffffffffffffffffffffffffffff1685876040518082805190602001908083835b6020831061083e57805182527fffffffffffffffffffffffffffffffffffffffffffffffffffffffffffffffe09092019160209182019101610801565b6001836020036101000a03801982511681845116808217855250505050505090500191505060006040518083038185875af1925050503d80600081146108a0576040519150601f19603f3d011682016040523d82523d6000602084013e6108a5565b606091505b509150915081156108b95791506107569050565b8051156108c95780518082602001fd5b6040517f08c379a00000000000000000000000000000000000000000000000000000000081526020600482018181528651602484015286518793919283926044019190850190808383600083156105aa578181015183820152602001610592565b3b15159056fe536166654d6174683a206d756c7469706c69636174696f6e206f766572666c6f775361666545524332303a204552433230206f7065726174696f6e20646964206e6f742073756363656564a2646970667358221220def1c28a59898de94b2a3ded7a7cfb468793056f986478bb4210265369ce19dc64736f6c634300060c0033",
  "linkReferences": {},
  "deployedLinkReferences": {}
}