{
  "_format": "hh-sol-artifact-1",
  "contractName": "BvaultsStrategy",
  "sourceName": "contracts/BvaultsStrategy.pcs.sol",
  "abi": [
    {
      "inputs": [
        {
          "internalType": "address",
          "name": "_controller",
          "type": "address"
        },
        {
          "internalType": "bool",
          "name": "_isAutoComp",
          "type": "bool"
        },
        {
          "internalType": "address",
          "name": "_farmContractAddress",
          "type": "address"
        },
        {
          "internalType": "uint256",
          "name": "_pid",
          "type": "uint256"
        },
        {
          "internalType": "address",
          "name": "_wantAddress",
          "type": "address"
        },
        {
          "internalType": "address",
          "name": "_earnedAddress",
          "type": "address"
        },
        {
          "internalType": "address",
          "name": "_uniRouterAddress",
          "type": "address"
        },
        {
          "internalType": "address[]",
          "name": "_buyBackToken1Info",
          "type": "address[]"
        },
        {
          "internalType": "address[]",
          "name": "_buyBackToken2Info",
          "type": "address[]"
        },
        {
          "internalType": "address",
          "name": "_token0",
          "type": "address"
        },
        {
          "internalType": "address",
          "name": "_token1",
          "type": "address"
        }
      ],
      "stateMutability": "nonpayable",
      "type": "constructor"
    },
    {
      "anonymous": false,
      "inputs": [
        {
          "indexed": false,
          "internalType": "address",
          "name": "earnedAddress",
          "type": "address"
        },
        {
          "indexed": false,
          "internalType": "address",
          "name": "buyBackToken",
          "type": "address"
        },
        {
          "indexed": false,
          "internalType": "uint256",
          "name": "earnedAmt",
          "type": "uint256"
        },
        {
          "indexed": false,
          "internalType": "uint256",
          "name": "buyBackAmt",
          "type": "uint256"
        },
        {
          "indexed": false,
          "internalType": "address",
          "name": "receiver",
          "type": "address"
        }
      ],
      "name": "BuyBack",
      "type": "event"
    },
    {
      "anonymous": false,
      "inputs": [
        {
          "indexed": false,
          "internalType": "address",
          "name": "token0Address",
          "type": "address"
        },
        {
          "indexed": false,
          "internalType": "uint256",
          "name": "token0Amt",
          "type": "uint256"
        },
        {
          "indexed": false,
          "internalType": "address",
          "name": "token1Address",
          "type": "address"
        },
        {
          "indexed": false,
          "internalType": "uint256",
          "name": "token1Amt",
          "type": "uint256"
        }
      ],
      "name": "Compound",
      "type": "event"
    },
    {
      "anonymous": false,
      "inputs": [
        {
          "indexed": false,
          "internalType": "address",
          "name": "tokenAddress",
          "type": "address"
        },
        {
          "indexed": false,
          "internalType": "address",
          "name": "earnedAddress",
          "type": "address"
        },
        {
          "indexed": false,
          "internalType": "uint256",
          "name": "tokenAmt",
          "type": "uint256"
        }
      ],
      "name": "ConvertDustToEarned",
      "type": "event"
    },
    {
      "anonymous": false,
      "inputs": [
        {
          "indexed": false,
          "internalType": "uint256",
          "name": "amount",
          "type": "uint256"
        }
      ],
      "name": "Deposit",
      "type": "event"
    },
    {
      "anonymous": false,
      "inputs": [
        {
          "indexed": false,
          "internalType": "address",
          "name": "earnedAddress",
          "type": "address"
        },
        {
          "indexed": false,
          "internalType": "uint256",
          "name": "fee",
          "type": "uint256"
        },
        {
          "indexed": false,
          "internalType": "address",
          "name": "receiver",
          "type": "address"
        }
      ],
      "name": "DistributeFee",
      "type": "event"
    },
    {
      "anonymous": false,
      "inputs": [
        {
          "indexed": false,
          "internalType": "address",
          "name": "earnedAddress",
          "type": "address"
        },
        {
          "indexed": false,
          "internalType": "uint256",
          "name": "earnedAmt",
          "type": "uint256"
        }
      ],
      "name": "Earned",
      "type": "event"
    },
    {
      "anonymous": false,
      "inputs": [
        {
          "indexed": true,
          "internalType": "address",
          "name": "target",
          "type": "address"
        },
        {
          "indexed": false,
          "internalType": "uint256",
          "name": "value",
          "type": "uint256"
        },
        {
          "indexed": false,
          "internalType": "string",
          "name": "signature",
          "type": "string"
        },
        {
          "indexed": false,
          "internalType": "bytes",
          "name": "data",
          "type": "bytes"
        }
      ],
      "name": "ExecuteTransaction",
      "type": "event"
    },
    {
      "anonymous": false,
      "inputs": [
        {
          "indexed": false,
          "internalType": "uint256",
          "name": "amount",
          "type": "uint256"
        }
      ],
      "name": "Farm",
      "type": "event"
    },
    {
      "anonymous": false,
      "inputs": [
        {
          "indexed": false,
          "internalType": "address",
          "name": "tokenAddress",
          "type": "address"
        },
        {
          "indexed": false,
          "internalType": "uint256",
          "name": "tokenAmt",
          "type": "uint256"
        },
        {
          "indexed": false,
          "internalType": "address",
          "name": "receiver",
          "type": "address"
        }
      ],
      "name": "InCaseTokensGetStuck",
      "type": "event"
    },
    {
      "anonymous": false,
      "inputs": [
        {
          "indexed": true,
          "internalType": "address",
          "name": "previousOwner",
          "type": "address"
        },
        {
          "indexed": true,
          "internalType": "address",
          "name": "newOwner",
          "type": "address"
        }
      ],
      "name": "OwnershipTransferred",
      "type": "event"
    },
    {
      "anonymous": false,
      "inputs": [
        {
          "indexed": false,
          "internalType": "address",
          "name": "account",
          "type": "address"
        }
      ],
      "name": "Paused",
      "type": "event"
    },
    {
      "anonymous": false,
      "inputs": [
        {
          "indexed": false,
          "internalType": "address",
          "name": "account",
          "type": "address"
        }
      ],
      "name": "Unpaused",
      "type": "event"
    },
    {
      "anonymous": false,
      "inputs": [
        {
          "indexed": false,
          "internalType": "uint256",
          "name": "amount",
          "type": "uint256"
        }
      ],
      "name": "Withdraw",
      "type": "event"
    },
    {
      "inputs": [],
      "name": "busdAddress",
      "outputs": [
        {
          "internalType": "address",
          "name": "",
          "type": "address"
        }
      ],
      "stateMutability": "view",
      "type": "function"
    },
    {
      "inputs": [],
      "name": "buyBackAddress1",
      "outputs": [
        {
          "internalType": "address",
          "name": "",
          "type": "address"
        }
      ],
      "stateMutability": "view",
      "type": "function"
    },
    {
      "inputs": [],
      "name": "buyBackAddress2",
      "outputs": [
        {
          "internalType": "address",
          "name": "",
          "type": "address"
        }
      ],
      "stateMutability": "view",
      "type": "function"
    },
    {
      "inputs": [],
      "name": "buyBackRate1",
      "outputs": [
        {
          "internalType": "uint256",
          "name": "",
          "type": "uint256"
        }
      ],
      "stateMutability": "view",
      "type": "function"
    },
    {
      "inputs": [],
      "name": "buyBackRate2",
      "outputs": [
        {
          "internalType": "uint256",
          "name": "",
          "type": "uint256"
        }
      ],
      "stateMutability": "view",
      "type": "function"
    },
    {
      "inputs": [],
      "name": "buyBackRateMax",
      "outputs": [
        {
          "internalType": "uint256",
          "name": "",
          "type": "uint256"
        }
      ],
      "stateMutability": "view",
      "type": "function"
    },
    {
      "inputs": [],
      "name": "buyBackRateUL",
      "outputs": [
        {
          "internalType": "uint256",
          "name": "",
          "type": "uint256"
        }
      ],
      "stateMutability": "view",
      "type": "function"
    },
    {
      "inputs": [],
      "name": "buyBackToken1",
      "outputs": [
        {
          "internalType": "address",
          "name": "",
          "type": "address"
        }
      ],
      "stateMutability": "view",
      "type": "function"
    },
    {
      "inputs": [],
      "name": "buyBackToken2",
      "outputs": [
        {
          "internalType": "address",
          "name": "",
          "type": "address"
        }
      ],
      "stateMutability": "view",
      "type": "function"
    },
    {
      "inputs": [],
      "name": "controllerFee",
      "outputs": [
        {
          "internalType": "uint256",
          "name": "",
          "type": "uint256"
        }
      ],
      "stateMutability": "view",
      "type": "function"
    },
    {
      "inputs": [],
      "name": "controllerFeeMax",
      "outputs": [
        {
          "internalType": "uint256",
          "name": "",
          "type": "uint256"
        }
      ],
      "stateMutability": "view",
      "type": "function"
    },
    {
      "inputs": [],
      "name": "controllerFeeUL",
      "outputs": [
        {
          "internalType": "uint256",
          "name": "",
          "type": "uint256"
        }
      ],
      "stateMutability": "view",
      "type": "function"
    },
    {
      "inputs": [],
      "name": "convertDustToEarned",
      "outputs": [],
      "stateMutability": "nonpayable",
      "type": "function"
    },
    {
      "inputs": [
        {
          "internalType": "address",
          "name": "",
          "type": "address"
        },
        {
          "internalType": "uint256",
          "name": "_wantAmt",
          "type": "uint256"
        }
      ],
      "name": "deposit",
      "outputs": [
        {
          "internalType": "uint256",
          "name": "",
          "type": "uint256"
        }
      ],
      "stateMutability": "nonpayable",
      "type": "function"
    },
    {
      "inputs": [],
      "name": "earn",
      "outputs": [],
      "stateMutability": "nonpayable",
      "type": "function"
    },
    {
      "inputs": [],
      "name": "earnedAddress",
      "outputs": [
        {
          "internalType": "address",
          "name": "",
          "type": "address"
        }
      ],
      "stateMutability": "view",
      "type": "function"
    },
    {
      "inputs": [],
      "name": "entranceFeeFactor",
      "outputs": [
        {
          "internalType": "uint256",
          "name": "",
          "type": "uint256"
        }
      ],
      "stateMutability": "view",
      "type": "function"
    },
    {
      "inputs": [],
      "name": "entranceFeeFactorLL",
      "outputs": [
        {
          "internalType": "uint256",
          "name": "",
          "type": "uint256"
        }
      ],
      "stateMutability": "view",
      "type": "function"
    },
    {
      "inputs": [],
      "name": "entranceFeeFactorMax",
      "outputs": [
        {
          "internalType": "uint256",
          "name": "",
          "type": "uint256"
        }
      ],
      "stateMutability": "view",
      "type": "function"
    },
    {
      "inputs": [
        {
          "internalType": "address",
          "name": "target",
          "type": "address"
        },
        {
          "internalType": "uint256",
          "name": "value",
          "type": "uint256"
        },
        {
          "internalType": "string",
          "name": "signature",
          "type": "string"
        },
        {
          "internalType": "bytes",
          "name": "data",
          "type": "bytes"
        }
      ],
      "name": "executeTransaction",
      "outputs": [
        {
          "internalType": "bytes",
          "name": "",
          "type": "bytes"
        }
      ],
      "stateMutability": "nonpayable",
      "type": "function"
    },
    {
      "inputs": [],
      "name": "farm",
      "outputs": [],
      "stateMutability": "nonpayable",
      "type": "function"
    },
    {
      "inputs": [],
      "name": "farmContractAddress",
      "outputs": [
        {
          "internalType": "address",
          "name": "",
          "type": "address"
        }
      ],
      "stateMutability": "view",
      "type": "function"
    },
    {
      "inputs": [
        {
          "internalType": "address",
          "name": "_token",
          "type": "address"
        },
        {
          "internalType": "uint256",
          "name": "_amount",
          "type": "uint256"
        },
        {
          "internalType": "address",
          "name": "_to",
          "type": "address"
        }
      ],
      "name": "inCaseTokensGetStuck",
      "outputs": [],
      "stateMutability": "nonpayable",
      "type": "function"
    },
    {
      "inputs": [
        {
          "internalType": "address",
          "name": "_account",
          "type": "address"
        }
      ],
      "name": "isAuthorised",
      "outputs": [
        {
          "internalType": "bool",
          "name": "",
          "type": "bool"
        }
      ],
      "stateMutability": "view",
      "type": "function"
    },
    {
      "inputs": [],
      "name": "isAutoComp",
      "outputs": [
        {
          "internalType": "bool",
          "name": "",
          "type": "bool"
        }
      ],
      "stateMutability": "view",
      "type": "function"
    },
    {
      "inputs": [],
      "name": "lastEarnBlock",
      "outputs": [
        {
          "internalType": "uint256",
          "name": "",
          "type": "uint256"
        }
      ],
      "stateMutability": "view",
      "type": "function"
    },
    {
      "inputs": [],
      "name": "notPublic",
      "outputs": [
        {
          "internalType": "bool",
          "name": "",
          "type": "bool"
        }
      ],
      "stateMutability": "view",
      "type": "function"
    },
    {
      "inputs": [],
      "name": "operator",
      "outputs": [
        {
          "internalType": "address",
          "name": "",
          "type": "address"
        }
      ],
      "stateMutability": "view",
      "type": "function"
    },
    {
      "inputs": [],
      "name": "owner",
      "outputs": [
        {
          "internalType": "address",
          "name": "",
          "type": "address"
        }
      ],
      "stateMutability": "view",
      "type": "function"
    },
    {
      "inputs": [
        {
          "internalType": "address",
          "name": "",
          "type": "address"
        },
        {
          "internalType": "address",
          "name": "",
          "type": "address"
        },
        {
          "internalType": "uint256",
          "name": "",
          "type": "uint256"
        }
      ],
      "name": "paths",
      "outputs": [
        {
          "internalType": "address",
          "name": "",
          "type": "address"
        }
      ],
      "stateMutability": "view",
      "type": "function"
    },
    {
      "inputs": [],
      "name": "pause",
      "outputs": [],
      "stateMutability": "nonpayable",
      "type": "function"
    },
    {
      "inputs": [],
      "name": "paused",
      "outputs": [
        {
          "internalType": "bool",
          "name": "",
          "type": "bool"
        }
      ],
      "stateMutability": "view",
      "type": "function"
    },
    {
      "inputs": [],
      "name": "pendingHarvest",
      "outputs": [
        {
          "internalType": "uint256",
          "name": "",
          "type": "uint256"
        }
      ],
      "stateMutability": "view",
      "type": "function"
    },
    {
      "inputs": [],
      "name": "pendingHarvestDollarValue",
      "outputs": [
        {
          "internalType": "uint256",
          "name": "",
          "type": "uint256"
        }
      ],
      "stateMutability": "view",
      "type": "function"
    },
    {
      "inputs": [],
      "name": "pid",
      "outputs": [
        {
          "internalType": "uint256",
          "name": "",
          "type": "uint256"
        }
      ],
      "stateMutability": "view",
      "type": "function"
    },
    {
      "inputs": [],
      "name": "renounceOwnership",
      "outputs": [],
      "stateMutability": "nonpayable",
      "type": "function"
    },
    {
      "inputs": [
        {
          "internalType": "address",
          "name": "_buyBackAddress1",
          "type": "address"
        }
      ],
      "name": "setBuyBackAddress1",
      "outputs": [],
      "stateMutability": "nonpayable",
      "type": "function"
    },
    {
      "inputs": [
        {
          "internalType": "address",
          "name": "_buyBackAddress2",
          "type": "address"
        }
      ],
      "name": "setBuyBackAddress2",
      "outputs": [],
      "stateMutability": "nonpayable",
      "type": "function"
    },
    {
      "inputs": [
        {
          "internalType": "uint256",
          "name": "_buyBackRate1",
          "type": "uint256"
        }
      ],
      "name": "setBuyBackRate1",
      "outputs": [],
      "stateMutability": "nonpayable",
      "type": "function"
    },
    {
      "inputs": [
        {
          "internalType": "uint256",
          "name": "_buyBackRate2",
          "type": "uint256"
        }
      ],
      "name": "setBuyBackRate2",
      "outputs": [],
      "stateMutability": "nonpayable",
      "type": "function"
    },
    {
      "inputs": [
        {
          "internalType": "uint256",
          "name": "_controllerFee",
          "type": "uint256"
        }
      ],
      "name": "setControllerFee",
      "outputs": [],
      "stateMutability": "nonpayable",
      "type": "function"
    },
    {
      "inputs": [
        {
          "internalType": "uint256",
          "name": "_entranceFeeFactor",
          "type": "uint256"
        }
      ],
      "name": "setEntranceFeeFactor",
      "outputs": [],
      "stateMutability": "nonpayable",
      "type": "function"
    },
    {
      "inputs": [
        {
          "internalType": "address[]",
          "name": "_earnedToBuyBackToken1Path",
          "type": "address[]"
        },
        {
          "internalType": "address[]",
          "name": "_earnedToBuyBackToken2Path",
          "type": "address[]"
        },
        {
          "internalType": "address[]",
          "name": "_earnedToToken0Path",
          "type": "address[]"
        },
        {
          "internalType": "address[]",
          "name": "_earnedToToken1Path",
          "type": "address[]"
        },
        {
          "internalType": "address[]",
          "name": "_earnedToBusdPath",
          "type": "address[]"
        },
        {
          "internalType": "address[]",
          "name": "_token0ToEarnedPath",
          "type": "address[]"
        },
        {
          "internalType": "address[]",
          "name": "_token1ToEarnedPath",
          "type": "address[]"
        }
      ],
      "name": "setMainPaths",
      "outputs": [],
      "stateMutability": "nonpayable",
      "type": "function"
    },
    {
      "inputs": [
        {
          "internalType": "bool",
          "name": "_notPublic",
          "type": "bool"
        }
      ],
      "name": "setNotPublic",
      "outputs": [],
      "stateMutability": "nonpayable",
      "type": "function"
    },
    {
      "inputs": [
        {
          "internalType": "address",
          "name": "_operator",
          "type": "address"
        }
      ],
      "name": "setOperator",
      "outputs": [],
      "stateMutability": "nonpayable",
      "type": "function"
    },
    {
      "inputs": [
        {
          "internalType": "address",
          "name": "_inputToken",
          "type": "address"
        },
        {
          "internalType": "address",
          "name": "_outputToken",
          "type": "address"
        },
        {
          "internalType": "address[]",
          "name": "_path",
          "type": "address[]"
        }
      ],
      "name": "setPaths",
      "outputs": [],
      "stateMutability": "nonpayable",
      "type": "function"
    },
    {
      "inputs": [
        {
          "internalType": "address",
          "name": "_strategist",
          "type": "address"
        }
      ],
      "name": "setStrategist",
      "outputs": [],
      "stateMutability": "nonpayable",
      "type": "function"
    },
    {
      "inputs": [
        {
          "internalType": "address",
          "name": "_timelock",
          "type": "address"
        }
      ],
      "name": "setTimelock",
      "outputs": [],
      "stateMutability": "nonpayable",
      "type": "function"
    },
    {
      "inputs": [],
      "name": "sharesTotal",
      "outputs": [
        {
          "internalType": "uint256",
          "name": "",
          "type": "uint256"
        }
      ],
      "stateMutability": "view",
      "type": "function"
    },
    {
      "inputs": [],
      "name": "strategist",
      "outputs": [
        {
          "internalType": "address",
          "name": "",
          "type": "address"
        }
      ],
      "stateMutability": "view",
      "type": "function"
    },
    {
      "inputs": [],
      "name": "timelock",
      "outputs": [
        {
          "internalType": "address",
          "name": "",
          "type": "address"
        }
      ],
      "stateMutability": "view",
      "type": "function"
    },
    {
      "inputs": [],
      "name": "token0Address",
      "outputs": [
        {
          "internalType": "address",
          "name": "",
          "type": "address"
        }
      ],
      "stateMutability": "view",
      "type": "function"
    },
    {
      "inputs": [],
      "name": "token1Address",
      "outputs": [
        {
          "internalType": "address",
          "name": "",
          "type": "address"
        }
      ],
      "stateMutability": "view",
      "type": "function"
    },
    {
      "inputs": [
        {
          "internalType": "address",
          "name": "newOwner",
          "type": "address"
        }
      ],
      "name": "transferOwnership",
      "outputs": [],
      "stateMutability": "nonpayable",
      "type": "function"
    },
    {
      "inputs": [
        {
          "internalType": "uint256",
          "name": "_tokenAmount",
          "type": "uint256"
        },
        {
          "internalType": "address[]",
          "name": "_path",
          "type": "address[]"
        }
      ],
      "name": "uniExchangeRate",
      "outputs": [
        {
          "internalType": "uint256",
          "name": "",
          "type": "uint256"
        }
      ],
      "stateMutability": "view",
      "type": "function"
    },
    {
      "inputs": [],
      "name": "uniRouterAddress",
      "outputs": [
        {
          "internalType": "address",
          "name": "",
          "type": "address"
        }
      ],
      "stateMutability": "view",
      "type": "function"
    },
    {
      "inputs": [],
      "name": "unpause",
      "outputs": [],
      "stateMutability": "nonpayable",
      "type": "function"
    },
    {
      "inputs": [],
      "name": "wantAddress",
      "outputs": [
        {
          "internalType": "address",
          "name": "",
          "type": "address"
        }
      ],
      "stateMutability": "view",
      "type": "function"
    },
    {
      "inputs": [],
      "name": "wantLockedTotal",
      "outputs": [
        {
          "internalType": "uint256",
          "name": "",
          "type": "uint256"
        }
      ],
      "stateMutability": "view",
      "type": "function"
    },
    {
      "inputs": [],
      "name": "wbnbAddress",
      "outputs": [
        {
          "internalType": "address",
          "name": "",
          "type": "address"
        }
      ],
      "stateMutability": "view",
      "type": "function"
    },
    {
      "inputs": [
        {
          "internalType": "address",
          "name": "",
          "type": "address"
        },
        {
          "internalType": "uint256",
          "name": "_wantAmt",
          "type": "uint256"
        }
      ],
      "name": "withdraw",
      "outputs": [
        {
          "internalType": "uint256",
          "name": "",
          "type": "uint256"
        }
      ],
      "stateMutability": "nonpayable",
      "type": "function"
    }
  ],
  "bytecode": "0x6080604052600880546001600160a01b03199081167305ff2b0db69458a0750badebc4f9e13add608c7f17909155600c805460ff60a01b199083167392a082ad5a942140bcc791081f775900d0a514d9171690556000600d819055600e819055600f81905560105561012c6011556012805482167381859801b01764d4f0fa5e64729f5a6c3b91435b17905560138054821661dead90811790915560c860145560158054831673190b589cf9fb8ddeabbfeae36a813ffb2a70245417905560168054909216179055612710601755348015620000da57600080fd5b5060405162004e9138038062004e9183398181016040526101608110156200010157600080fd5b815160208301516040808501516060860151608087015160a088015160c089015160e08a0180519651989a9799959894979396929591949391820192846401000000008211156200015157600080fd5b9083019060208201858111156200016757600080fd5b82518660208202830111640100000000821117156200018557600080fd5b82525081516020918201928201910280838360005b83811015620001b45781810151838201526020016200019a565b5050505090500160405260200180516040519392919084640100000000821115620001de57600080fd5b908301906020820185811115620001f457600080fd5b82518660208202830111640100000000821117156200021257600080fd5b82525081516020918201928201910280838360005b838110156200024157818101518382015260200162000227565b505050509190910160409081526020830151920151919350909150600090506200026a620004a0565b600080546001600160a01b0319166001600160a01b03831690811782556040519293509160008051602062004e71833981519152908290a3506001805560028054600a8054336001600160a01b03199182168117909255600b8054821690921790915561ffff199091166101008d15150217909155600480549091166001600160a01b03898116919091179091558516156200031c57600880546001600160a01b0319166001600160a01b0387161790555b836000815181106200032a57fe5b6020026020010151601260006101000a8154816001600160a01b0302191690836001600160a01b03160217905550836001815181106200036657fe5b6020026020010151601360006101000a8154816001600160a01b0302191690836001600160a01b0316021790555082600081518110620003a257fe5b6020026020010151601560006101000a8154816001600160a01b0302191690836001600160a01b0316021790555082600181518110620003de57fe5b6020908102919091010151601680546001600160a01b0319166001600160a01b03909216919091179055600254610100900460ff16156200048457600580546001600160a01b03199081166001600160a01b03858116919091179092556006805482168484161790556002805462010000600160b01b031916620100008d85160217905560038a9055600780548216898416179055600880549091169187169190911790555b6200048f8b620004a4565b5050505050505050505050620005a2565b3390565b620004ae620004a0565b6000546001600160a01b0390811691161462000511576040805162461bcd60e51b815260206004820181905260248201527f4f776e61626c653a2063616c6c6572206973206e6f7420746865206f776e6572604482015290519081900360640190fd5b6001600160a01b038116620005585760405162461bcd60e51b815260040180806020018281038252602681526020018062004e4b6026913960400191505060405180910390fd5b600080546040516001600160a01b038085169392169160008051602062004e7183398151915291a3600080546001600160a01b0319166001600160a01b0392909216919091179055565b61489980620005b26000396000f3fe608060405234801561001057600080fd5b50600436106103af5760003560e01c806385f02dd6116101f4578063cef4cde41161011a578063e5dd455a116100ad578063f10684541161007c578063f106845414610df2578063f2fde38b14610dfa578063f3fef3a314610e20578063f400d31114610e4c576103af565b8063e5dd455a14610dda578063e719847414610de2578063e7a0367914610dea578063ee50dc341461097e576103af565b8063d8be16da116100e9578063d8be16da14610dba578063db7a3c0f14610dc2578063df5c8a9e14610dca578063dfee1dd914610dd2576103af565b8063cef4cde414610d6c578063d33219b414610da2578063d389800f14610daa578063d7cb416f14610db2576103af565b8063bb9928c611610192578063c302a4d011610161578063c302a4d014610d10578063c3ec8dda14610d18578063c7b9d53014610d3e578063ce5328e414610d64576103af565b8063bb9928c614610ca8578063bdacb30314610cc5578063bf94c0ba14610ceb578063c11c2e9214610d08576103af565b80639fc33a9f116101ce5780639fc33a9f14610c4c578063a552863214610c54578063b3545c0114610c7a578063b3ab15fb14610c82576103af565b806385f02dd614610c34578063889adfa814610c3c5780638da5cb5b14610c44576103af565b80634a56fcd4116102d957806367206d401161027757806376a902311161024657806376a9023114610b6057806376f2892f14610b685780637ff36fbe14610c245780638456cb5914610c2c576103af565b806367206d4014610a705780636804d54a14610aa6578063693a090b14610b50578063715018a614610b58576103af565b8063570ca735116102b3578063570ca73514610a505780635c975abb14610a58578063607f35a014610a6057806363fe3e3a14610a68576103af565b80634a56fcd414610a0e5780634d9f7bb21461097e57806351b699cd14610a16576103af565b80632717eff31161035157806342da4eb31161032057806342da4eb3146109b357806344a3955e146109bb57806345d6b667146109c357806347e7ef24146109e2576103af565b80632717eff31461097e57806336e9332d146109865780633e1a89121461098e5780633f4ba83a146109ab576103af565b8063197c760b1161038d578063197c760b146103de5780631a43da931461079b5780631fe4a686146107bf5780632224fa25146107c7576103af565b8063061c7d48146103b45780630fa4e01e146103ce5780631334903f146103d6575b600080fd5b6103bc610e69565b60408051918252519081900360200190f35b6103bc610e6f565b6103bc610e75565b610799600480360360e08110156103f457600080fd5b81019060208101813564010000000081111561040f57600080fd5b82018360208201111561042157600080fd5b8035906020019184602083028401116401000000008311171561044357600080fd5b919080806020026020016040519081016040528093929190818152602001838360200280828437600092019190915250929594936020810193503591505064010000000081111561049357600080fd5b8201836020820111156104a557600080fd5b803590602001918460208302840111640100000000831117156104c757600080fd5b919080806020026020016040519081016040528093929190818152602001838360200280828437600092019190915250929594936020810193503591505064010000000081111561051757600080fd5b82018360208201111561052957600080fd5b8035906020019184602083028401116401000000008311171561054b57600080fd5b919080806020026020016040519081016040528093929190818152602001838360200280828437600092019190915250929594936020810193503591505064010000000081111561059b57600080fd5b8201836020820111156105ad57600080fd5b803590602001918460208302840111640100000000831117156105cf57600080fd5b919080806020026020016040519081016040528093929190818152602001838360200280828437600092019190915250929594936020810193503591505064010000000081111561061f57600080fd5b82018360208201111561063157600080fd5b8035906020019184602083028401116401000000008311171561065357600080fd5b91908080602002602001604051908101604052809392919081815260200183836020028082843760009201919091525092959493602081019350359150506401000000008111156106a357600080fd5b8201836020820111156106b557600080fd5b803590602001918460208302840111640100000000831117156106d757600080fd5b919080806020026020016040519081016040528093929190818152602001838360200280828437600092019190915250929594936020810193503591505064010000000081111561072757600080fd5b82018360208201111561073957600080fd5b8035906020019184602083028401116401000000008311171561075b57600080fd5b919080806020026020016040519081016040528093929190818152602001838360200280828437600092019190915250929550610e7b945050505050565b005b6107a361107d565b604080516001600160a01b039092168252519081900360200190f35b6107a361108c565b610909600480360360808110156107dd57600080fd5b6001600160a01b038235169160208101359181019060608101604082013564010000000081111561080d57600080fd5b82018360208201111561081f57600080fd5b8035906020019184600183028401116401000000008311171561084157600080fd5b91908080601f016020809104026020016040519081016040528093929190818152602001838380828437600092019190915250929594936020810193503591505064010000000081111561089457600080fd5b8201836020820111156108a657600080fd5b803590602001918460018302840111640100000000831117156108c857600080fd5b91908080601f01602080910402602001604051908101604052809392919081815260200183838082843760009201919091525092955061109b945050505050565b6040805160208082528351818301528351919283929083019185019080838360005b8381101561094357818101518382015260200161092b565b50505050905090810190601f1680156109705780820380516001836020036101000a031916815260200191505b509250505060405180910390f35b6103bc6113d4565b6107996113da565b610799600480360360208110156109a457600080fd5b5035611445565b61079961152a565b6103bc61157d565b6103bc611583565b610799600480360360208110156109d957600080fd5b50351515611589565b6103bc600480360360408110156109f857600080fd5b506001600160a01b03813516906020013561161c565b6107a36117c2565b610a3c60048036036020811015610a2c57600080fd5b50356001600160a01b03166117d1565b604080519115158252519081900360200190f35b6107a3611817565b610a3c611826565b6107a361182f565b6107a361183e565b61079960048036036060811015610a8657600080fd5b506001600160a01b03813581169160208101359160409091013516611856565b6103bc60048036036040811015610abc57600080fd5b81359190810190604081016020820135640100000000811115610ade57600080fd5b820183602082011115610af057600080fd5b80359060200191846020830284011164010000000083111715610b1257600080fd5b9190808060200260200160405190810160405280939291908181526020018383602002808284376000920191909152509295506119c8945050505050565b6107a3611b7d565b610799611b8c565b6107a3611c58565b61079960048036036060811015610b7e57600080fd5b6001600160a01b038235811692602081013590911691810190606081016040820135640100000000811115610bb257600080fd5b820183602082011115610bc457600080fd5b80359060200191846020830284011164010000000083111715610be657600080fd5b919080806020026020016040519081016040528093929190818152602001838360200280828437600092019190915250929550611c70945050505050565b6107a3611cf4565b610799611d03565b6103bc611d54565b6103bc611d5a565b6107a3611d6b565b6107a3611d7a565b61079960048036036020811015610c6a57600080fd5b50356001600160a01b0316611d8f565b6103bc611e6f565b61079960048036036020811015610c9857600080fd5b50356001600160a01b0316611e75565b61079960048036036020811015610cbe57600080fd5b5035611ef8565b61079960048036036020811015610cdb57600080fd5b50356001600160a01b0316611f9f565b61079960048036036020811015610d0157600080fd5b5035612022565b6107996120c9565b6103bc6125c5565b61079960048036036020811015610d2e57600080fd5b50356001600160a01b03166125cb565b61079960048036036020811015610d5457600080fd5b50356001600160a01b03166126ad565b6107a3612730565b6107a360048036036060811015610d8257600080fd5b506001600160a01b0381358116916020810135909116906040013561273f565b6107a3612781565b610799612790565b6107a3612f63565b610a3c612f72565b6103bc612f93565b6103bc6130bb565b6103bc6130c1565b610a3c6130c7565b6107a36130d5565b6107a36130e4565b6103bc6130f3565b61079960048036036020811015610e1057600080fd5b50356001600160a01b03166130f9565b6103bc60048036036040811015610e3657600080fd5b506001600160a01b03813516906020013561321b565b61079960048036036020811015610e6257600080fd5b50356134ff565b61012c81565b600d5481565b60175481565b600a546001600160a01b03163314610ec45760405162461bcd60e51b815260040180806020018281038252602b8152602001806147c7602b913960400191505060405180910390fd5b6007546001600160a01b03908116600090815260096020908152604080832060125490941683529281529190208851610eff928a0190614687565b506007546001600160a01b03908116600090815260096020908152604080832060155490941683529281529190208751610f3b92890190614687565b506007546001600160a01b03908116600090815260096020908152604080832060055490941683529281529190208651610f7792880190614687565b506007546001600160a01b03908116600090815260096020908152604080832060065490941683529281529190208551610fb392870190614687565b506007546001600160a01b0316600090815260096020908152604080832073e9e7cea3dedca5984780bafc599bd69add087d56845282529091208451610ffb92860190614687565b506005546001600160a01b0390811660009081526009602090815260408083206007549094168352928152919020835161103792850190614687565b506006546001600160a01b0390811660009081526009602090815260408083206007549094168352928152919020825161107392840190614687565b5050505050505050565b6013546001600160a01b031681565b600b546001600160a01b031681565b600c546060906001600160a01b031633146110e75760405162461bcd60e51b81526004018080602001828103825260278152602001806148136027913960400191505060405180910390fd5b60608351600014156110fa5750816111b0565b83805190602001208360405160200180837bffffffffffffffffffffffffffffffffffffffffffffffffffffffff1916815260040182805190602001908083835b6020831061117857805182527fffffffffffffffffffffffffffffffffffffffffffffffffffffffffffffffe0909201916020918201910161113b565b6001836020036101000a0380198251168184511680821785525050505050509050019250505060405160208183030381529060405290505b60006060876001600160a01b031687846040518082805190602001908083835b6020831061120d57805182527fffffffffffffffffffffffffffffffffffffffffffffffffffffffffffffffe090920191602091820191016111d0565b6001836020036101000a03801982511681845116808217855250505050505090500191505060006040518083038185875af1925050503d806000811461126f576040519150601f19603f3d011682016040523d82523d6000602084013e611274565b606091505b5091509150816112b55760405162461bcd60e51b815260040180806020018281038252604481526020018061473c6044913960600191505060405180910390fd5b876001600160a01b03167f88405ca50016c636e025868e263efe5a9f63bf11cc45404f7616394c7dc389d0888888604051808481526020018060200180602001838103835285818151815260200191508051906020019080838360005b8381101561132a578181015183820152602001611312565b50505050905090810190601f1680156113575780820380516001836020036101000a031916815260200191505b50838103825284518152845160209182019186019080838360005b8381101561138a578181015183820152602001611372565b50505050905090810190601f1680156113b75780820380516001836020036101000a031916815260200191505b509550505050505060405180910390a2925050505b949350505050565b61271081565b60026001541415611432576040805162461bcd60e51b815260206004820152601f60248201527f5265656e7472616e637947756172643a207265656e7472616e742063616c6c00604482015290519081900360640190fd5b600260015561143f6135a4565b60018055565b600a546001600160a01b0316331461148e5760405162461bcd60e51b815260040180806020018281038252602b8152602001806147c7602b913960400191505060405180910390fd5b6126de81116114e4576040805162461bcd60e51b815260206004820181905260248201527f427661756c747353747261746567793a202173616665202d20746f6f206c6f77604482015290519081900360640190fd5b6127108111156115255760405162461bcd60e51b81526004018080602001828103825260218152602001806147806021913960400191505060405180910390fd5b601755565b600a546001600160a01b031633146115735760405162461bcd60e51b815260040180806020018281038252602b8152602001806147c7602b913960400191505060405180910390fd5b61157b613708565b565b600e5481565b600f5481565b600a546001600160a01b031633146115d25760405162461bcd60e51b815260040180806020018281038252602b8152602001806147c7602b913960400191505060405180910390fd5b600c805491151574010000000000000000000000000000000000000000027fffffffffffffffffffffff00ffffffffffffffffffffffffffffffffffffffff909216919091179055565b60006116266137cd565b6000546001600160a01b03908116911614611688576040805162461bcd60e51b815260206004820181905260248201527f4f776e61626c653a2063616c6c6572206973206e6f7420746865206f776e6572604482015290519081900360640190fd5b60025460ff16156116e0576040805162461bcd60e51b815260206004820152601060248201527f5061757361626c653a2070617573656400000000000000000000000000000000604482015290519081900360640190fd5b6004546116f8906001600160a01b03163330856137d1565b600e5482901580159061170d57506000600f54115b156117485761174561271061173f600e5461173f601754611739600f548a61385990919063ffffffff16565b90613859565b906138b9565b90505b600f5461175590826138fb565b600f55600254610100900460ff1615611775576117706135a4565b611786565b600e5461178290846138fb565b600e555b6040805184815290517f4d6ce1e535dbade1c23defba91e23b8f791ce5edc0cc320257a2b364e4e384269181900360200190a190505b92915050565b6016546001600160a01b031681565b600a546000906001600160a01b03838116911614806117fa5750600b546001600160a01b031633145b8061180f5750600c546001600160a01b031633145b90505b919050565b600a546001600160a01b031681565b60025460ff1690565b6015546001600160a01b031681565b73bb4cdb9cbd36b01bd1cbaebf2de08d9173bc095c81565b600a546001600160a01b0316331461189f5760405162461bcd60e51b815260040180806020018281038252602b8152602001806147c7602b913960400191505060405180910390fd5b6007546001600160a01b0384811691161415611902576040805162461bcd60e51b815260206004820152600560248201527f2173616665000000000000000000000000000000000000000000000000000000604482015290519081900360640190fd5b6004546001600160a01b0384811691161415611965576040805162461bcd60e51b815260206004820152600560248201527f2173616665000000000000000000000000000000000000000000000000000000604482015290519081900360640190fd5b6119796001600160a01b0384168284613955565b604080516001600160a01b0380861682526020820185905283168183015290517f22f92dfb4f608ea5db1e9bb08c0b4f5518af93b1259d335fe05900056096ab2c9181900360600190a1505050565b600854604080517fd06ca61f00000000000000000000000000000000000000000000000000000000815260048101858152602482019283528451604483015284516000946060946001600160a01b039091169363d06ca61f9389938993919260640190602080860191028083838d5b83811015611a4f578181015183820152602001611a37565b50505050905001935050505060006040518083038186803b158015611a7357600080fd5b505afa158015611a87573d6000803e3d6000fd5b505050506040513d6000823e601f3d9081017fffffffffffffffffffffffffffffffffffffffffffffffffffffffffffffffe01682016040526020811015611ace57600080fd5b8101908080516040519392919084640100000000821115611aee57600080fd5b908301906020820185811115611b0357600080fd5b8251866020820283011164010000000082111715611b2057600080fd5b82525081516020918201928201910280838360005b83811015611b4d578181015183820152602001611b35565b50505050905001604052505050905080600182510381518110611b6c57fe5b602002602001015191505092915050565b6008546001600160a01b031681565b611b946137cd565b6000546001600160a01b03908116911614611bf6576040805162461bcd60e51b815260206004820181905260248201527f4f776e61626c653a2063616c6c6572206973206e6f7420746865206f776e6572604482015290519081900360640190fd5b600080546040516001600160a01b03909116907f8be0079c531659141344cd1fd0a4f28419497f9722a3daafe3b4186f6b6457e0908390a3600080547fffffffffffffffffffffffff0000000000000000000000000000000000000000169055565b73e9e7cea3dedca5984780bafc599bd69add087d5681565b600a546001600160a01b03163314611cb95760405162461bcd60e51b815260040180806020018281038252602b8152602001806147c7602b913960400191505060405180910390fd5b6001600160a01b03808416600090815260096020908152604080832093861683529281529190208251611cee92840190614687565b50505050565b6005546001600160a01b031681565b600a546001600160a01b03163314611d4c5760405162461bcd60e51b815260040180806020018281038252602b8152602001806147c7602b913960400191505060405180910390fd5b61157b6139da565b60105481565b600080611d65612f93565b91505090565b6000546001600160a01b031690565b6002546201000090046001600160a01b031681565b600a546001600160a01b03163314611dd85760405162461bcd60e51b815260040180806020018281038252602b8152602001806147c7602b913960400191505060405180910390fd5b6001600160a01b038116611e35576040805162461bcd60e51b8152602060048083019190915260248201527f7a65726f00000000000000000000000000000000000000000000000000000000604482015290519081900360640190fd5b601680547fffffffffffffffffffffffff0000000000000000000000000000000000000000166001600160a01b0392909216919091179055565b61032081565b600a546001600160a01b03163314611ebe5760405162461bcd60e51b815260040180806020018281038252602b8152602001806147c7602b913960400191505060405180910390fd5b600a80547fffffffffffffffffffffffff0000000000000000000000000000000000000000166001600160a01b0392909216919091179055565b600a546001600160a01b03163314611f415760405162461bcd60e51b815260040180806020018281038252602b8152602001806147c7602b913960400191505060405180910390fd5b6103206014541115611f9a576040805162461bcd60e51b815260206004820152601960248201527f427661756c747353747261746567793a20746f6f206869676800000000000000604482015290519081900360640190fd5b601455565b600c546001600160a01b03163314611fe85760405162461bcd60e51b81526004018080602001828103825260278152602001806148136027913960400191505060405180910390fd5b600c80547fffffffffffffffffffffffff0000000000000000000000000000000000000000166001600160a01b0392909216919091179055565b600a546001600160a01b0316331461206b5760405162461bcd60e51b815260040180806020018281038252602b8152602001806147c7602b913960400191505060405180910390fd5b61032060115411156120c4576040805162461bcd60e51b815260206004820152601960248201527f427661756c747353747261746567793a20746f6f206869676800000000000000604482015290519081900360640190fd5b601155565b60025460ff1615612121576040805162461bcd60e51b815260206004820152601060248201527f5061757361626c653a2070617573656400000000000000000000000000000000604482015290519081900360640190fd5b600254610100900460ff1661217d576040805162461bcd60e51b815260206004820152600b60248201527f2169734175746f436f6d70000000000000000000000000000000000000000000604482015290519081900360640190fd5b600554604080516370a0823160e01b815230600482015290516000926001600160a01b0316916370a08231916024808301926020929190829003018186803b1580156121c857600080fd5b505afa1580156121dc573d6000803e3d6000fd5b505050506040513d60208110156121f257600080fd5b50516007546005549192506001600160a01b039182169116148015906122185750600081115b1561239f5760085460055461223a916001600160a01b03918216911683613a86565b6008546005546001600160a01b0390811660009081526009602090815260408083206007548516845290915280822090517f5c11d79500000000000000000000000000000000000000000000000000000000815260048101868152602482018490523060648301819052603c42016084840181905260a060448501908152855460a486018190529790981697635c11d795978a9796959394929360c401908690801561230f57602002820191906000526020600020905b81546001600160a01b031681526001909101906020018083116122f1575b50509650505050505050600060405180830381600087803b15801561233357600080fd5b505af1158015612347573d6000803e3d6000fd5b5050600554600754604080516001600160a01b03938416815291909216602082015280820185905290517f65dcf313a2a7fa900bdbeb87203f9ac8009224d4656965a6b8498b8b245e0e1c9350908190036060019150a15b600654604080516370a0823160e01b815230600482015290516000926001600160a01b0316916370a08231916024808301926020929190829003018186803b1580156123ea57600080fd5b505afa1580156123fe573d6000803e3d6000fd5b505050506040513d602081101561241457600080fd5b50516007546006549192506001600160a01b0391821691161480159061243a5750600081115b156125c15760085460065461245c916001600160a01b03918216911683613a86565b6008546006546001600160a01b0390811660009081526009602090815260408083206007548516845290915280822090517f5c11d79500000000000000000000000000000000000000000000000000000000815260048101868152602482018490523060648301819052603c42016084840181905260a060448501908152855460a486018190529790981697635c11d795978a9796959394929360c401908690801561253157602002820191906000526020600020905b81546001600160a01b03168152600190910190602001808311612513575b50509650505050505050600060405180830381600087803b15801561255557600080fd5b505af1158015612569573d6000803e3d6000fd5b5050600654600754604080516001600160a01b03938416815291909216602082015280820185905290517f65dcf313a2a7fa900bdbeb87203f9ac8009224d4656965a6b8498b8b245e0e1c9350908190036060019150a15b5050565b6126de81565b600a546001600160a01b031633146126145760405162461bcd60e51b815260040180806020018281038252602b8152602001806147c7602b913960400191505060405180910390fd5b6013546001600160a01b0316612673576040805162461bcd60e51b8152602060048083019190915260248201527f7a65726f00000000000000000000000000000000000000000000000000000000604482015290519081900360640190fd5b601380547fffffffffffffffffffffffff0000000000000000000000000000000000000000166001600160a01b0392909216919091179055565b600a546001600160a01b031633146126f65760405162461bcd60e51b815260040180806020018281038252602b8152602001806147c7602b913960400191505060405180910390fd5b600b80547fffffffffffffffffffffffff0000000000000000000000000000000000000000166001600160a01b0392909216919091179055565b6012546001600160a01b031681565b6009602052826000526040600020602052816000526040600020818154811061276457fe5b6000918252602090912001546001600160a01b0316925083915050565b600c546001600160a01b031681565b60025460ff16156127e8576040805162461bcd60e51b815260206004820152601060248201527f5061757361626c653a2070617573656400000000000000000000000000000000604482015290519081900360640190fd5b600254610100900460ff16612844576040805162461bcd60e51b815260206004820152601c60248201527f427661756c747353747261746567793a202169734175746f436f6d7000000000604482015290519081900360640190fd5b600c5474010000000000000000000000000000000000000000900460ff1615806128725750612872336117d1565b6128c3576040805162461bcd60e51b815260206004820152601c60248201527f427661756c747353747261746567793a2021617574686f726973656400000000604482015290519081900360640190fd5b60028054906101000a90046001600160a01b03166001600160a01b031663441a3e7060035460006040518363ffffffff1660e01b81526004018083815260200182815260200192505050600060405180830381600087803b15801561292757600080fd5b505af115801561293b573d6000803e3d6000fd5b5050600754604080516370a0823160e01b81523060048201529051600094506001600160a01b0390921692506370a08231916024808301926020929190829003018186803b15801561298c57600080fd5b505afa1580156129a0573d6000803e3d6000fd5b505050506040513d60208110156129b657600080fd5b5051600754604080516001600160a01b0390921682526020820183905280519293507f053fa1fc52294a40b4ff1a988765bd298c00caa24d685cc3f767dcfde254ef9a92918290030190a16000612a0c82613b6d565b90506000612a1983613c0f565b90506000612a2684613f44565b9050612a3e81612a38848188886142fd565b906142fd565b600854600754919550612a5e916001600160a01b03908116911686613a86565b6005546007546001600160a01b03908116911614612b9f576008546001600160a01b0316635c11d795612a928660026138b9565b6007546001600160a01b039081166000908152600960209081526040808320600554909416835292905281812091517fffffffff0000000000000000000000000000000000000000000000000000000060e086901b16815260048101848152602482018390523060648301819052603c42016084840181905260a060448501908152865460a486018190529596959294919392909160c4019086908015612b6257602002820191906000526020600020905b81546001600160a01b03168152600190910190602001808311612b44575b50509650505050505050600060405180830381600087803b158015612b8657600080fd5b505af1158015612b9a573d6000803e3d6000fd5b505050505b6006546007546001600160a01b03908116911614612ce0576008546001600160a01b0316635c11d795612bd38660026138b9565b6007546001600160a01b039081166000908152600960209081526040808320600654909416835292905281812091517fffffffff0000000000000000000000000000000000000000000000000000000060e086901b16815260048101848152602482018390523060648301819052603c42016084840181905260a060448501908152865460a486018190529596959294919392909160c4019086908015612ca357602002820191906000526020600020905b81546001600160a01b03168152600190910190602001808311612c85575b50509650505050505050600060405180830381600087803b158015612cc757600080fd5b505af1158015612cdb573d6000803e3d6000fd5b505050505b600554604080516370a0823160e01b815230600482015290516000926001600160a01b0316916370a08231916024808301926020929190829003018186803b158015612d2b57600080fd5b505afa158015612d3f573d6000803e3d6000fd5b505050506040513d6020811015612d5557600080fd5b5051600654604080516370a0823160e01b815230600482015290519293506000926001600160a01b03909216916370a0823191602480820192602092909190829003018186803b158015612da857600080fd5b505afa158015612dbc573d6000803e3d6000fd5b505050506040513d6020811015612dd257600080fd5b505190508115801590612de55750600081115b15612f4f57600854600554612e07916001600160a01b03918216911684613a86565b600854600654612e24916001600160a01b03918216911683613a86565b600854600554600654604080517fe8e337000000000000000000000000000000000000000000000000000000000081526001600160a01b0393841660048201529183166024830152604482018690526064820185905260006084830181905260a483018190523060c4840152603c420160e48401529051929093169263e8e3370092610104808401936060939083900390910190829087803b158015612ec957600080fd5b505af1158015612edd573d6000803e3d6000fd5b505050506040513d6060811015612ef357600080fd5b5050600554600654604080516001600160a01b0393841681526020810186905291909216818301526060810183905290517f44552da03f807ace3e5f27e98e694712dfe668c743514b28d4d9f5ab70574b0f9181900360800190a15b43600d55612f5b6135a4565b505050505050565b6006546001600160a01b031681565b600c5474010000000000000000000000000000000000000000900460ff1681565b600754604080516370a0823160e01b8152306004820152905160009283926001600160a01b03909116916370a0823191602480820192602092909190829003018186803b158015612fe357600080fd5b505afa158015612ff7573d6000803e3d6000fd5b505050506040513d602081101561300d57600080fd5b5051600254600354604080517fd1aa5877000000000000000000000000000000000000000000000000000000008152600481019290925230602483015251929350611d659284926201000090046001600160a01b03169163d1aa5877916044808301926020929190829003018186803b15801561308957600080fd5b505afa15801561309d573d6000803e3d6000fd5b505050506040513d60208110156130b357600080fd5b5051906138fb565b60115481565b60145481565b600254610100900460ff1681565b6007546001600160a01b031681565b6004546001600160a01b031681565b60035481565b6131016137cd565b6000546001600160a01b03908116911614613163576040805162461bcd60e51b815260206004820181905260248201527f4f776e61626c653a2063616c6c6572206973206e6f7420746865206f776e6572604482015290519081900360640190fd5b6001600160a01b0381166131a85760405162461bcd60e51b81526004018080602001828103825260268152602001806147a16026913960400191505060405180910390fd5b600080546040516001600160a01b03808516939216917f8be0079c531659141344cd1fd0a4f28419497f9722a3daafe3b4186f6b6457e091a3600080547fffffffffffffffffffffffff0000000000000000000000000000000000000000166001600160a01b0392909216919091179055565b60006132256137cd565b6000546001600160a01b03908116911614613287576040805162461bcd60e51b815260206004820181905260248201527f4f776e61626c653a2063616c6c6572206973206e6f7420746865206f776e6572604482015290519081900360640190fd5b600260015414156132df576040805162461bcd60e51b815260206004820152601f60248201527f5265656e7472616e637947756172643a207265656e7472616e742063616c6c00604482015290519081900360640190fd5b600260015581613336576040805162461bcd60e51b815260206004820152601a60248201527f427661756c747353747261746567793a20215f77616e74416d74000000000000604482015290519081900360640190fd5b600254610100900460ff16156133c25760028054906101000a90046001600160a01b03166001600160a01b031663441a3e70600354846040518363ffffffff1660e01b81526004018083815260200182815260200192505050600060405180830381600087803b1580156133a957600080fd5b505af11580156133bd573d6000803e3d6000fd5b505050505b60048054604080516370a0823160e01b81523093810193909352516000926001600160a01b03909216916370a08231916024808301926020929190829003018186803b15801561341157600080fd5b505afa158015613425573d6000803e3d6000fd5b505050506040513d602081101561343b57600080fd5b505190508083111561344b578092505b82600e54101561345b57600e5492505b6000613478600e5461173f600f548761385990919063ffffffff16565b9050600f548111156134895750600f545b600f5461349690826142fd565b600f55600e546134a690856142fd565b600e556004546134c0906001600160a01b03163386613955565b6040805185815290517f5b6b431d4476a211bb7d41c20d1aab9ae2321deee0d20be3d9fc9b1093fa6e3d9181900360200190a160018055949350505050565b600a546001600160a01b031633146135485760405162461bcd60e51b815260040180806020018281038252602b8152602001806147c7602b913960400191505060405180910390fd5b61012c81111561359f576040805162461bcd60e51b815260206004820152601960248201527f427661756c747353747261746567793a20746f6f206869676800000000000000604482015290519081900360640190fd5b601055565b60048054604080516370a0823160e01b81523093810193909352516000926001600160a01b03909216916370a08231916024808301926020929190829003018186803b1580156135f357600080fd5b505afa158015613607573d6000803e3d6000fd5b505050506040513d602081101561361d57600080fd5b5051600e5490915061362f90826138fb565b600e55600254600454613656916001600160a01b0391821691620100009091041683613a86565b60028054906101000a90046001600160a01b03166001600160a01b031663e2bbb158600354836040518363ffffffff1660e01b81526004018083815260200182815260200192505050600060405180830381600087803b1580156136b957600080fd5b505af11580156136cd573d6000803e3d6000fd5b50506040805184815290517fc217459869eed80bfbe5c11e78ab58912eedfd106342671821b6e96d1615dc7f9350908190036020019150a150565b60025460ff1661375f576040805162461bcd60e51b815260206004820152601460248201527f5061757361626c653a206e6f7420706175736564000000000000000000000000604482015290519081900360640190fd5b600280547fffffffffffffffffffffffffffffffffffffffffffffffffffffffffffffff001690557f5db9ee0a495bf2e6ff9c91a7834c1ba4fdd244a5e8aa4e537bd38aeae4b073aa6137b06137cd565b604080516001600160a01b039092168252519081900360200190a1565b3390565b604080516001600160a01b0380861660248301528416604482015260648082018490528251808303909101815260849091019091526020810180517bffffffffffffffffffffffffffffffffffffffffffffffffffffffff167f23b872dd00000000000000000000000000000000000000000000000000000000179052611cee90859061433f565b600082613868575060006117bc565b8282028284828161387557fe5b04146138b25760405162461bcd60e51b81526004018080602001828103825260218152602001806147f26021913960400191505060405180910390fd5b9392505050565b60006138b283836040518060400160405280601a81526020017f536166654d6174683a206469766973696f6e206279207a65726f0000000000008152506143f0565b6000828201838110156138b2576040805162461bcd60e51b815260206004820152601b60248201527f536166654d6174683a206164646974696f6e206f766572666c6f770000000000604482015290519081900360640190fd5b604080516001600160a01b038416602482015260448082018490528251808303909101815260649091019091526020810180517bffffffffffffffffffffffffffffffffffffffffffffffffffffffff167fa9059cbb000000000000000000000000000000000000000000000000000000001790526139d590849061433f565b505050565b60025460ff1615613a32576040805162461bcd60e51b815260206004820152601060248201527f5061757361626c653a2070617573656400000000000000000000000000000000604482015290519081900360640190fd5b600280547fffffffffffffffffffffffffffffffffffffffffffffffffffffffffffffff001660011790557f62e78cea01bee320cd4e420270b5ea74000d11b0c9f74754ebdbfc544b05a2586137b06137cd565b6000613aea82856001600160a01b031663dd62ed3e30876040518363ffffffff1660e01b815260040180836001600160a01b03168152602001826001600160a01b031681526020019250505060206040518083038186803b15801561308957600080fd5b604080516001600160a01b038616602482015260448082018490528251808303909101815260649091019091526020810180517bffffffffffffffffffffffffffffffffffffffffffffffffffffffff167f095ea7b300000000000000000000000000000000000000000000000000000000179052909150611cee90859061433f565b60008115611812576010541561181257613b9861271061173f6010548561385990919063ffffffff16565b600a54600754919250613bb8916001600160a01b03908116911683613955565b600754600a54604080516001600160a01b03938416815260208101859052919092168183015290517f056e5430e11cfdfb90a183ec3bf63ed22abe70cdf4e7bd3018d8b459bbd7f6199181900360600190a1919050565b6011546000901580613c2a57506013546001600160a01b0316155b15613c3757506000611812565b6000613c5461271061173f6011548661385990919063ffffffff16565b601254601354604080516370a0823160e01b81526001600160a01b039283166004820152905193945060009391909216916370a08231916024808301926020929190829003018186803b158015613caa57600080fd5b505afa158015613cbe573d6000803e3d6000fd5b505050506040513d6020811015613cd457600080fd5b50516012546007549192506001600160a01b03918216911614613e2957600854600754613d0e916001600160a01b03918216911684613a86565b6008546007546001600160a01b0390811660009081526009602090815260408083206012548516845290915280822060135491517f5c11d795000000000000000000000000000000000000000000000000000000008152600481018881526024820185905292851660648201819052603c42016084830181905260a060448401908152845460a485018190529790981697635c11d795978b9796939492939260c4019086908015613de857602002820191906000526020600020905b81546001600160a01b03168152600190910190602001808311613dca575b50509650505050505050600060405180830381600087803b158015613e0c57600080fd5b505af1158015613e20573d6000803e3d6000fd5b50505050613e46565b601354600754613e46916001600160a01b03918216911684613955565b601254601354604080516370a0823160e01b81526001600160a01b039283166004820152905160009392909216916370a0823191602480820192602092909190829003018186803b158015613e9a57600080fd5b505afa158015613eae573d6000803e3d6000fd5b505050506040513d6020811015613ec457600080fd5b505190506000613ed482846142fd565b600754601254601354604080516001600160a01b0394851681529284166020840152828101899052606083018590529216608082015290519192507fb152a9c4203a9515a80fadb5b18afb6bfce5350eccdfda9d0908ac37ec094222919081900360a00190a15091949350505050565b6014546000901580613f5f57506016546001600160a01b0316155b15613f6c57506000611812565b6000613f8961271061173f6014548661385990919063ffffffff16565b601554601654604080516370a0823160e01b81526001600160a01b039283166004820152905193945060009391909216916370a08231916024808301926020929190829003018186803b158015613fdf57600080fd5b505afa158015613ff3573d6000803e3d6000fd5b505050506040513d602081101561400957600080fd5b50516015546007549192506001600160a01b0391821691161461415e57600854600754614043916001600160a01b03918216911684613a86565b6008546007546001600160a01b0390811660009081526009602090815260408083206015548516845290915280822060165491517f5c11d795000000000000000000000000000000000000000000000000000000008152600481018881526024820185905292851660648201819052603c42016084830181905260a060448401908152845460a485018190529790981697635c11d795978b9796939492939260c401908690801561411d57602002820191906000526020600020905b81546001600160a01b031681526001909101906020018083116140ff575b50509650505050505050600060405180830381600087803b15801561414157600080fd5b505af1158015614155573d6000803e3d6000fd5b5050505061417b565b60165460075461417b916001600160a01b03918216911684613955565b601554601654604080516370a0823160e01b81526001600160a01b039283166004820152905160009392909216916370a0823191602480820192602092909190829003018186803b1580156141cf57600080fd5b505afa1580156141e3573d6000803e3d6000fd5b505050506040513d60208110156141f957600080fd5b50519050600061420982846142fd565b905080156142f357601654604080517f50afa34b0000000000000000000000000000000000000000000000000000000081526004810184905290516001600160a01b03909216916350afa34b9160248082019260009290919082900301818387803b15801561427757600080fd5b505af115801561428b573d6000803e3d6000fd5b5050600754601554601654604080516001600160a01b03948516815292841660208401528281018a9052606083018790529216608082015290517fb152a9c4203a9515a80fadb5b18afb6bfce5350eccdfda9d0908ac37ec09422293509081900360a0019150a15b5091949350505050565b60006138b283836040518060400160405280601e81526020017f536166654d6174683a207375627472616374696f6e206f766572666c6f770000815250614492565b6060614394826040518060400160405280602081526020017f5361666545524332303a206c6f772d6c6576656c2063616c6c206661696c6564815250856001600160a01b03166144ec9092919063ffffffff16565b8051909150156139d5578080602001905160208110156143b357600080fd5b50516139d55760405162461bcd60e51b815260040180806020018281038252602a81526020018061483a602a913960400191505060405180910390fd5b6000818361447c5760405162461bcd60e51b81526004018080602001828103825283818151815260200191508051906020019080838360005b83811015614441578181015183820152602001614429565b50505050905090810190601f16801561446e5780820380516001836020036101000a031916815260200191505b509250505060405180910390fd5b50600083858161448857fe5b0495945050505050565b600081848411156144e45760405162461bcd60e51b8152602060048201818152835160248401528351909283926044909101919085019080838360008315614441578181015183820152602001614429565b505050900390565b60606113cc8484600085606061450185614681565b614552576040805162461bcd60e51b815260206004820152601d60248201527f416464726573733a2063616c6c20746f206e6f6e2d636f6e7472616374000000604482015290519081900360640190fd5b60006060866001600160a01b031685876040518082805190602001908083835b602083106145af57805182527fffffffffffffffffffffffffffffffffffffffffffffffffffffffffffffffe09092019160209182019101614572565b6001836020036101000a03801982511681845116808217855250505050505090500191505060006040518083038185875af1925050503d8060008114614611576040519150601f19603f3d011682016040523d82523d6000602084013e614616565b606091505b5091509150811561462a5791506113cc9050565b80511561463a5780518082602001fd5b60405162461bcd60e51b8152602060048201818152865160248401528651879391928392604401919085019080838360008315614441578181015183820152602001614429565b3b151590565b8280548282559060005260206000209081019282156146f4579160200282015b828111156146f457825182547fffffffffffffffffffffffff0000000000000000000000000000000000000000166001600160a01b039091161782556020909201916001909101906146a7565b50614700929150614704565b5090565b5b808211156147005780547fffffffffffffffffffffffff000000000000000000000000000000000000000016815560010161470556fe427661756c747353747261746567793a3a657865637574655472616e73616374696f6e3a205472616e73616374696f6e20657865637574696f6e2072657665727465642e427661756c747353747261746567793a202173616665202d20746f6f20686967684f776e61626c653a206e6577206f776e657220697320746865207a65726f2061646472657373427661756c747353747261746567793a2063616c6c6572206973206e6f7420746865206f70657261746f72536166654d6174683a206d756c7469706c69636174696f6e206f766572666c6f77427661756c747353747261746567793a2063616c6c6572206973206e6f742074696d656c6f636b5361666545524332303a204552433230206f7065726174696f6e20646964206e6f742073756363656564a2646970667358221220add7c5d9f228bc7165fc125f8daae28357ede47ada18b484c3e68d79a8be090964736f6c634300060c00334f776e61626c653a206e6577206f776e657220697320746865207a65726f20616464726573738be0079c531659141344cd1fd0a4f28419497f9722a3daafe3b4186f6b6457e0",
  "linkReferences": {},
  "deployedLinkReferences": {}
}