{
  "_format": "hh-sol-artifact-1",
  "contractName": "BvaultsStrategy",
  "sourceName": "contracts/BvaultsStrategy.4.vswap.ratio.mdg.sol",
  "abi": [
    {
      "inputs": [
        {
          "internalType": "address",
          "name": "_controller",
          "type": "address"
        },
        {
          "internalType": "bool",
          "name": "_isAutoComp",
          "type": "bool"
        },
        {
          "internalType": "address",
          "name": "_farmContractAddress",
          "type": "address"
        },
        {
          "internalType": "uint256",
          "name": "_pid",
          "type": "uint256"
        },
        {
          "internalType": "address",
          "name": "_wantAddress",
          "type": "address"
        },
        {
          "internalType": "address",
          "name": "_earnedAddress",
          "type": "address"
        },
        {
          "internalType": "address",
          "name": "_mdgLockerAddress",
          "type": "address"
        },
        {
          "internalType": "address[]",
          "name": "_bonusRewards",
          "type": "address[]"
        },
        {
          "internalType": "address",
          "name": "_vswapRouterAddress",
          "type": "address"
        },
        {
          "internalType": "address",
          "name": "_vswapFormula",
          "type": "address"
        },
        {
          "internalType": "address[]",
          "name": "_buyBackToken1Info",
          "type": "address[]"
        },
        {
          "internalType": "address[]",
          "name": "_buyBackToken2Info",
          "type": "address[]"
        },
        {
          "internalType": "address",
          "name": "_token0",
          "type": "address"
        },
        {
          "internalType": "address",
          "name": "_token1",
          "type": "address"
        },
        {
          "internalType": "uint256",
          "name": "_ratio0",
          "type": "uint256"
        }
      ],
      "stateMutability": "nonpayable",
      "type": "constructor"
    },
    {
      "anonymous": false,
      "inputs": [
        {
          "indexed": false,
          "internalType": "address",
          "name": "earnedAddress",
          "type": "address"
        },
        {
          "indexed": false,
          "internalType": "address",
          "name": "buyBackToken",
          "type": "address"
        },
        {
          "indexed": false,
          "internalType": "uint256",
          "name": "earnedAmt",
          "type": "uint256"
        },
        {
          "indexed": false,
          "internalType": "uint256",
          "name": "buyBackAmt",
          "type": "uint256"
        },
        {
          "indexed": false,
          "internalType": "address",
          "name": "receiver",
          "type": "address"
        }
      ],
      "name": "BuyBack",
      "type": "event"
    },
    {
      "anonymous": false,
      "inputs": [
        {
          "indexed": false,
          "internalType": "address",
          "name": "token0Address",
          "type": "address"
        },
        {
          "indexed": false,
          "internalType": "uint256",
          "name": "token0Amt",
          "type": "uint256"
        },
        {
          "indexed": false,
          "internalType": "address",
          "name": "token1Address",
          "type": "address"
        },
        {
          "indexed": false,
          "internalType": "uint256",
          "name": "token1Amt",
          "type": "uint256"
        }
      ],
      "name": "Compound",
      "type": "event"
    },
    {
      "anonymous": false,
      "inputs": [
        {
          "indexed": false,
          "internalType": "address",
          "name": "tokenAddress",
          "type": "address"
        },
        {
          "indexed": false,
          "internalType": "address",
          "name": "earnedAddress",
          "type": "address"
        },
        {
          "indexed": false,
          "internalType": "uint256",
          "name": "tokenAmt",
          "type": "uint256"
        }
      ],
      "name": "ConvertDustToEarned",
      "type": "event"
    },
    {
      "anonymous": false,
      "inputs": [
        {
          "indexed": false,
          "internalType": "uint256",
          "name": "amount",
          "type": "uint256"
        }
      ],
      "name": "Deposit",
      "type": "event"
    },
    {
      "anonymous": false,
      "inputs": [
        {
          "indexed": false,
          "internalType": "address",
          "name": "earnedAddress",
          "type": "address"
        },
        {
          "indexed": false,
          "internalType": "uint256",
          "name": "fee",
          "type": "uint256"
        },
        {
          "indexed": false,
          "internalType": "address",
          "name": "receiver",
          "type": "address"
        }
      ],
      "name": "DistributeFee",
      "type": "event"
    },
    {
      "anonymous": false,
      "inputs": [
        {
          "indexed": false,
          "internalType": "address",
          "name": "earnedAddress",
          "type": "address"
        },
        {
          "indexed": false,
          "internalType": "uint256",
          "name": "earnedAmt",
          "type": "uint256"
        }
      ],
      "name": "Earned",
      "type": "event"
    },
    {
      "anonymous": false,
      "inputs": [
        {
          "indexed": true,
          "internalType": "address",
          "name": "target",
          "type": "address"
        },
        {
          "indexed": false,
          "internalType": "uint256",
          "name": "value",
          "type": "uint256"
        },
        {
          "indexed": false,
          "internalType": "string",
          "name": "signature",
          "type": "string"
        },
        {
          "indexed": false,
          "internalType": "bytes",
          "name": "data",
          "type": "bytes"
        }
      ],
      "name": "ExecuteTransaction",
      "type": "event"
    },
    {
      "anonymous": false,
      "inputs": [
        {
          "indexed": false,
          "internalType": "uint256",
          "name": "amount",
          "type": "uint256"
        }
      ],
      "name": "Farm",
      "type": "event"
    },
    {
      "anonymous": false,
      "inputs": [
        {
          "indexed": false,
          "internalType": "address",
          "name": "tokenAddress",
          "type": "address"
        },
        {
          "indexed": false,
          "internalType": "uint256",
          "name": "tokenAmt",
          "type": "uint256"
        },
        {
          "indexed": false,
          "internalType": "address",
          "name": "receiver",
          "type": "address"
        }
      ],
      "name": "InCaseTokensGetStuck",
      "type": "event"
    },
    {
      "anonymous": false,
      "inputs": [
        {
          "indexed": true,
          "internalType": "address",
          "name": "previousOwner",
          "type": "address"
        },
        {
          "indexed": true,
          "internalType": "address",
          "name": "newOwner",
          "type": "address"
        }
      ],
      "name": "OwnershipTransferred",
      "type": "event"
    },
    {
      "anonymous": false,
      "inputs": [
        {
          "indexed": false,
          "internalType": "address",
          "name": "account",
          "type": "address"
        }
      ],
      "name": "Paused",
      "type": "event"
    },
    {
      "anonymous": false,
      "inputs": [
        {
          "indexed": false,
          "internalType": "address",
          "name": "account",
          "type": "address"
        }
      ],
      "name": "Unpaused",
      "type": "event"
    },
    {
      "anonymous": false,
      "inputs": [
        {
          "indexed": false,
          "internalType": "uint256",
          "name": "amount",
          "type": "uint256"
        }
      ],
      "name": "Withdraw",
      "type": "event"
    },
    {
      "inputs": [],
      "name": "bcashAddress",
      "outputs": [
        {
          "internalType": "address",
          "name": "",
          "type": "address"
        }
      ],
      "stateMutability": "view",
      "type": "function"
    },
    {
      "inputs": [],
      "name": "busdAddress",
      "outputs": [
        {
          "internalType": "address",
          "name": "",
          "type": "address"
        }
      ],
      "stateMutability": "view",
      "type": "function"
    },
    {
      "inputs": [],
      "name": "buyBackAddress1",
      "outputs": [
        {
          "internalType": "address",
          "name": "",
          "type": "address"
        }
      ],
      "stateMutability": "view",
      "type": "function"
    },
    {
      "inputs": [],
      "name": "buyBackAddress2",
      "outputs": [
        {
          "internalType": "address",
          "name": "",
          "type": "address"
        }
      ],
      "stateMutability": "view",
      "type": "function"
    },
    {
      "inputs": [],
      "name": "buyBackRate1",
      "outputs": [
        {
          "internalType": "uint256",
          "name": "",
          "type": "uint256"
        }
      ],
      "stateMutability": "view",
      "type": "function"
    },
    {
      "inputs": [],
      "name": "buyBackRate2",
      "outputs": [
        {
          "internalType": "uint256",
          "name": "",
          "type": "uint256"
        }
      ],
      "stateMutability": "view",
      "type": "function"
    },
    {
      "inputs": [],
      "name": "buyBackRateMax",
      "outputs": [
        {
          "internalType": "uint256",
          "name": "",
          "type": "uint256"
        }
      ],
      "stateMutability": "view",
      "type": "function"
    },
    {
      "inputs": [],
      "name": "buyBackRateUL",
      "outputs": [
        {
          "internalType": "uint256",
          "name": "",
          "type": "uint256"
        }
      ],
      "stateMutability": "view",
      "type": "function"
    },
    {
      "inputs": [],
      "name": "buyBackToken1",
      "outputs": [
        {
          "internalType": "address",
          "name": "",
          "type": "address"
        }
      ],
      "stateMutability": "view",
      "type": "function"
    },
    {
      "inputs": [],
      "name": "buyBackToken2",
      "outputs": [
        {
          "internalType": "address",
          "name": "",
          "type": "address"
        }
      ],
      "stateMutability": "view",
      "type": "function"
    },
    {
      "inputs": [],
      "name": "checkForUnlockReward",
      "outputs": [
        {
          "internalType": "bool",
          "name": "",
          "type": "bool"
        }
      ],
      "stateMutability": "view",
      "type": "function"
    },
    {
      "inputs": [],
      "name": "controllerFee",
      "outputs": [
        {
          "internalType": "uint256",
          "name": "",
          "type": "uint256"
        }
      ],
      "stateMutability": "view",
      "type": "function"
    },
    {
      "inputs": [],
      "name": "controllerFeeMax",
      "outputs": [
        {
          "internalType": "uint256",
          "name": "",
          "type": "uint256"
        }
      ],
      "stateMutability": "view",
      "type": "function"
    },
    {
      "inputs": [],
      "name": "controllerFeeUL",
      "outputs": [
        {
          "internalType": "uint256",
          "name": "",
          "type": "uint256"
        }
      ],
      "stateMutability": "view",
      "type": "function"
    },
    {
      "inputs": [],
      "name": "convertDustToEarned",
      "outputs": [],
      "stateMutability": "nonpayable",
      "type": "function"
    },
    {
      "inputs": [
        {
          "internalType": "address",
          "name": "",
          "type": "address"
        },
        {
          "internalType": "uint256",
          "name": "_wantAmt",
          "type": "uint256"
        }
      ],
      "name": "deposit",
      "outputs": [
        {
          "internalType": "uint256",
          "name": "",
          "type": "uint256"
        }
      ],
      "stateMutability": "nonpayable",
      "type": "function"
    },
    {
      "inputs": [],
      "name": "earn",
      "outputs": [],
      "stateMutability": "nonpayable",
      "type": "function"
    },
    {
      "inputs": [],
      "name": "earnedAddress",
      "outputs": [
        {
          "internalType": "address",
          "name": "",
          "type": "address"
        }
      ],
      "stateMutability": "view",
      "type": "function"
    },
    {
      "inputs": [],
      "name": "entranceFeeFactor",
      "outputs": [
        {
          "internalType": "uint256",
          "name": "",
          "type": "uint256"
        }
      ],
      "stateMutability": "view",
      "type": "function"
    },
    {
      "inputs": [],
      "name": "entranceFeeFactorLL",
      "outputs": [
        {
          "internalType": "uint256",
          "name": "",
          "type": "uint256"
        }
      ],
      "stateMutability": "view",
      "type": "function"
    },
    {
      "inputs": [],
      "name": "entranceFeeFactorMax",
      "outputs": [
        {
          "internalType": "uint256",
          "name": "",
          "type": "uint256"
        }
      ],
      "stateMutability": "view",
      "type": "function"
    },
    {
      "inputs": [
        {
          "internalType": "address",
          "name": "_inputToken",
          "type": "address"
        },
        {
          "internalType": "address",
          "name": "_outputToken",
          "type": "address"
        },
        {
          "internalType": "uint256",
          "name": "_tokenAmount",
          "type": "uint256"
        }
      ],
      "name": "exchangeRate",
      "outputs": [
        {
          "internalType": "uint256",
          "name": "",
          "type": "uint256"
        }
      ],
      "stateMutability": "view",
      "type": "function"
    },
    {
      "inputs": [
        {
          "internalType": "address",
          "name": "target",
          "type": "address"
        },
        {
          "internalType": "uint256",
          "name": "value",
          "type": "uint256"
        },
        {
          "internalType": "string",
          "name": "signature",
          "type": "string"
        },
        {
          "internalType": "bytes",
          "name": "data",
          "type": "bytes"
        }
      ],
      "name": "executeTransaction",
      "outputs": [
        {
          "internalType": "bytes",
          "name": "",
          "type": "bytes"
        }
      ],
      "stateMutability": "nonpayable",
      "type": "function"
    },
    {
      "inputs": [],
      "name": "farm",
      "outputs": [],
      "stateMutability": "nonpayable",
      "type": "function"
    },
    {
      "inputs": [],
      "name": "farmContractAddress",
      "outputs": [
        {
          "internalType": "address",
          "name": "",
          "type": "address"
        }
      ],
      "stateMutability": "view",
      "type": "function"
    },
    {
      "inputs": [
        {
          "internalType": "address",
          "name": "_token",
          "type": "address"
        },
        {
          "internalType": "uint256",
          "name": "_amount",
          "type": "uint256"
        },
        {
          "internalType": "address",
          "name": "_to",
          "type": "address"
        }
      ],
      "name": "inCaseTokensGetStuck",
      "outputs": [],
      "stateMutability": "nonpayable",
      "type": "function"
    },
    {
      "inputs": [
        {
          "internalType": "address",
          "name": "_account",
          "type": "address"
        }
      ],
      "name": "isAuthorised",
      "outputs": [
        {
          "internalType": "bool",
          "name": "",
          "type": "bool"
        }
      ],
      "stateMutability": "view",
      "type": "function"
    },
    {
      "inputs": [],
      "name": "isAutoComp",
      "outputs": [
        {
          "internalType": "bool",
          "name": "",
          "type": "bool"
        }
      ],
      "stateMutability": "view",
      "type": "function"
    },
    {
      "inputs": [],
      "name": "lastEarnBlock",
      "outputs": [
        {
          "internalType": "uint256",
          "name": "",
          "type": "uint256"
        }
      ],
      "stateMutability": "view",
      "type": "function"
    },
    {
      "inputs": [],
      "name": "mdgLockerAddress",
      "outputs": [
        {
          "internalType": "address",
          "name": "",
          "type": "address"
        }
      ],
      "stateMutability": "view",
      "type": "function"
    },
    {
      "inputs": [],
      "name": "mdoAddress",
      "outputs": [
        {
          "internalType": "address",
          "name": "",
          "type": "address"
        }
      ],
      "stateMutability": "view",
      "type": "function"
    },
    {
      "inputs": [],
      "name": "notPublic",
      "outputs": [
        {
          "internalType": "bool",
          "name": "",
          "type": "bool"
        }
      ],
      "stateMutability": "view",
      "type": "function"
    },
    {
      "inputs": [],
      "name": "operator",
      "outputs": [
        {
          "internalType": "address",
          "name": "",
          "type": "address"
        }
      ],
      "stateMutability": "view",
      "type": "function"
    },
    {
      "inputs": [],
      "name": "owner",
      "outputs": [
        {
          "internalType": "address",
          "name": "",
          "type": "address"
        }
      ],
      "stateMutability": "view",
      "type": "function"
    },
    {
      "inputs": [],
      "name": "pause",
      "outputs": [],
      "stateMutability": "nonpayable",
      "type": "function"
    },
    {
      "inputs": [],
      "name": "paused",
      "outputs": [
        {
          "internalType": "bool",
          "name": "",
          "type": "bool"
        }
      ],
      "stateMutability": "view",
      "type": "function"
    },
    {
      "inputs": [],
      "name": "pendingHarvest",
      "outputs": [
        {
          "internalType": "uint256",
          "name": "",
          "type": "uint256"
        }
      ],
      "stateMutability": "view",
      "type": "function"
    },
    {
      "inputs": [],
      "name": "pendingHarvestDollarValue",
      "outputs": [
        {
          "internalType": "uint256",
          "name": "",
          "type": "uint256"
        }
      ],
      "stateMutability": "view",
      "type": "function"
    },
    {
      "inputs": [],
      "name": "pid",
      "outputs": [
        {
          "internalType": "uint256",
          "name": "",
          "type": "uint256"
        }
      ],
      "stateMutability": "view",
      "type": "function"
    },
    {
      "inputs": [],
      "name": "ratio0",
      "outputs": [
        {
          "internalType": "uint256",
          "name": "",
          "type": "uint256"
        }
      ],
      "stateMutability": "view",
      "type": "function"
    },
    {
      "inputs": [],
      "name": "ratio1",
      "outputs": [
        {
          "internalType": "uint256",
          "name": "",
          "type": "uint256"
        }
      ],
      "stateMutability": "view",
      "type": "function"
    },
    {
      "inputs": [],
      "name": "renounceOwnership",
      "outputs": [],
      "stateMutability": "nonpayable",
      "type": "function"
    },
    {
      "inputs": [
        {
          "internalType": "address",
          "name": "_buyBackAddress1",
          "type": "address"
        }
      ],
      "name": "setBuyBackAddress1",
      "outputs": [],
      "stateMutability": "nonpayable",
      "type": "function"
    },
    {
      "inputs": [
        {
          "internalType": "address",
          "name": "_buyBackAddress2",
          "type": "address"
        }
      ],
      "name": "setBuyBackAddress2",
      "outputs": [],
      "stateMutability": "nonpayable",
      "type": "function"
    },
    {
      "inputs": [
        {
          "internalType": "uint256",
          "name": "_buyBackRate1",
          "type": "uint256"
        }
      ],
      "name": "setBuyBackRate1",
      "outputs": [],
      "stateMutability": "nonpayable",
      "type": "function"
    },
    {
      "inputs": [
        {
          "internalType": "uint256",
          "name": "_buyBackRate2",
          "type": "uint256"
        }
      ],
      "name": "setBuyBackRate2",
      "outputs": [],
      "stateMutability": "nonpayable",
      "type": "function"
    },
    {
      "inputs": [
        {
          "internalType": "bool",
          "name": "_checkForUnlockReward",
          "type": "bool"
        }
      ],
      "name": "setCheckForUnlockReward",
      "outputs": [],
      "stateMutability": "nonpayable",
      "type": "function"
    },
    {
      "inputs": [
        {
          "internalType": "uint256",
          "name": "_controllerFee",
          "type": "uint256"
        }
      ],
      "name": "setControllerFee",
      "outputs": [],
      "stateMutability": "nonpayable",
      "type": "function"
    },
    {
      "inputs": [
        {
          "internalType": "uint256",
          "name": "_entranceFeeFactor",
          "type": "uint256"
        }
      ],
      "name": "setEntranceFeeFactor",
      "outputs": [],
      "stateMutability": "nonpayable",
      "type": "function"
    },
    {
      "inputs": [
        {
          "internalType": "address[]",
          "name": "_earnedToBuyBackToken1Path",
          "type": "address[]"
        },
        {
          "internalType": "address[]",
          "name": "_earnedToBuyBackToken2Path",
          "type": "address[]"
        },
        {
          "internalType": "address[]",
          "name": "_earnedToToken0Path",
          "type": "address[]"
        },
        {
          "internalType": "address[]",
          "name": "_earnedToToken1Path",
          "type": "address[]"
        },
        {
          "internalType": "address[]",
          "name": "_earnedToBusdPath",
          "type": "address[]"
        },
        {
          "internalType": "address[]",
          "name": "_token0ToEarnedPath",
          "type": "address[]"
        },
        {
          "internalType": "address[]",
          "name": "_token1ToEarnedPath",
          "type": "address[]"
        },
        {
          "internalType": "address[]",
          "name": "_mdoToEarnedPath",
          "type": "address[]"
        },
        {
          "internalType": "address[]",
          "name": "_bcashToEarnedPath",
          "type": "address[]"
        }
      ],
      "name": "setMainPaths",
      "outputs": [],
      "stateMutability": "nonpayable",
      "type": "function"
    },
    {
      "inputs": [
        {
          "internalType": "bool",
          "name": "_notPublic",
          "type": "bool"
        }
      ],
      "name": "setNotPublic",
      "outputs": [],
      "stateMutability": "nonpayable",
      "type": "function"
    },
    {
      "inputs": [
        {
          "internalType": "address",
          "name": "_operator",
          "type": "address"
        }
      ],
      "name": "setOperator",
      "outputs": [],
      "stateMutability": "nonpayable",
      "type": "function"
    },
    {
      "inputs": [
        {
          "internalType": "address",
          "name": "_strategist",
          "type": "address"
        }
      ],
      "name": "setStrategist",
      "outputs": [],
      "stateMutability": "nonpayable",
      "type": "function"
    },
    {
      "inputs": [
        {
          "internalType": "address",
          "name": "_timelock",
          "type": "address"
        }
      ],
      "name": "setTimelock",
      "outputs": [],
      "stateMutability": "nonpayable",
      "type": "function"
    },
    {
      "inputs": [
        {
          "internalType": "address",
          "name": "_inputToken",
          "type": "address"
        },
        {
          "internalType": "address",
          "name": "_outputToken",
          "type": "address"
        },
        {
          "internalType": "address[]",
          "name": "_path",
          "type": "address[]"
        }
      ],
      "name": "setVswapPaths",
      "outputs": [],
      "stateMutability": "nonpayable",
      "type": "function"
    },
    {
      "inputs": [],
      "name": "sharesTotal",
      "outputs": [
        {
          "internalType": "uint256",
          "name": "",
          "type": "uint256"
        }
      ],
      "stateMutability": "view",
      "type": "function"
    },
    {
      "inputs": [],
      "name": "strategist",
      "outputs": [
        {
          "internalType": "address",
          "name": "",
          "type": "address"
        }
      ],
      "stateMutability": "view",
      "type": "function"
    },
    {
      "inputs": [],
      "name": "timelock",
      "outputs": [
        {
          "internalType": "address",
          "name": "",
          "type": "address"
        }
      ],
      "stateMutability": "view",
      "type": "function"
    },
    {
      "inputs": [],
      "name": "token0Address",
      "outputs": [
        {
          "internalType": "address",
          "name": "",
          "type": "address"
        }
      ],
      "stateMutability": "view",
      "type": "function"
    },
    {
      "inputs": [],
      "name": "token1Address",
      "outputs": [
        {
          "internalType": "address",
          "name": "",
          "type": "address"
        }
      ],
      "stateMutability": "view",
      "type": "function"
    },
    {
      "inputs": [
        {
          "internalType": "address",
          "name": "newOwner",
          "type": "address"
        }
      ],
      "name": "transferOwnership",
      "outputs": [],
      "stateMutability": "nonpayable",
      "type": "function"
    },
    {
      "inputs": [],
      "name": "unpause",
      "outputs": [],
      "stateMutability": "nonpayable",
      "type": "function"
    },
    {
      "inputs": [],
      "name": "vswapFormula",
      "outputs": [
        {
          "internalType": "address",
          "name": "",
          "type": "address"
        }
      ],
      "stateMutability": "view",
      "type": "function"
    },
    {
      "inputs": [
        {
          "internalType": "address",
          "name": "",
          "type": "address"
        },
        {
          "internalType": "address",
          "name": "",
          "type": "address"
        },
        {
          "internalType": "uint256",
          "name": "",
          "type": "uint256"
        }
      ],
      "name": "vswapPaths",
      "outputs": [
        {
          "internalType": "address",
          "name": "",
          "type": "address"
        }
      ],
      "stateMutability": "view",
      "type": "function"
    },
    {
      "inputs": [],
      "name": "vswapRouterAddress",
      "outputs": [
        {
          "internalType": "address",
          "name": "",
          "type": "address"
        }
      ],
      "stateMutability": "view",
      "type": "function"
    },
    {
      "inputs": [],
      "name": "wantAddress",
      "outputs": [
        {
          "internalType": "address",
          "name": "",
          "type": "address"
        }
      ],
      "stateMutability": "view",
      "type": "function"
    },
    {
      "inputs": [],
      "name": "wantLockedTotal",
      "outputs": [
        {
          "internalType": "uint256",
          "name": "",
          "type": "uint256"
        }
      ],
      "stateMutability": "view",
      "type": "function"
    },
    {
      "inputs": [],
      "name": "wbnbAddress",
      "outputs": [
        {
          "internalType": "address",
          "name": "",
          "type": "address"
        }
      ],
      "stateMutability": "view",
      "type": "function"
    },
    {
      "inputs": [
        {
          "internalType": "address",
          "name": "",
          "type": "address"
        },
        {
          "internalType": "uint256",
          "name": "_wantAmt",
          "type": "uint256"
        }
      ],
      "name": "withdraw",
      "outputs": [
        {
          "internalType": "uint256",
          "name": "",
          "type": "uint256"
        }
      ],
      "stateMutability": "nonpayable",
      "type": "function"
    }
  ],
  "bytecode": "0x60806040526002805462ff0000191662010000179055611388600b819055600c55600d80546001600160a01b031990811673b7e19a1188776f32e8c2b790d9ca578f2896da7c17909155600e805482167345f24baeef268bb6d63aee5129015d69702bcdfa1790556012805460ff60a01b199083167392a082ad5a942140bcc791081f775900d0a514d9171690556000601381905560148190556015556064601681905560be6017556018805483167381859801b01764d4f0fa5e64729f5a6c3b91435b17905560198054831673aaaf5d9923be358ea0b6205ef2a3b929d460ac7a179055601a55601b8054821673190b589cf9fb8ddeabbfeae36a813ffb2a702454179055601c8054909116735d42dc503763dd1e7a1b510b055150cc5754656b179055612710601d553480156200013757600080fd5b50604051620052c0380380620052c083398181016040526101e08110156200015e57600080fd5b815160208301516040808501516060860151608087015160a088015160c089015160e08a0180519651989a979995989497939692959194939182019284640100000000821115620001ae57600080fd5b908301906020820185811115620001c457600080fd5b8251866020820283011164010000000082111715620001e257600080fd5b82525081516020918201928201910280838360005b8381101562000211578181015183820152602001620001f7565b5050505091909101604081815260208401519084015160609094018051919694959294935090846401000000008211156200024b57600080fd5b9083019060208201858111156200026157600080fd5b82518660208202830111640100000000821117156200027f57600080fd5b82525081516020918201928201910280838360005b83811015620002ae57818101518382015260200162000294565b5050505090500160405260200180516040519392919084640100000000821115620002d857600080fd5b908301906020820185811115620002ee57600080fd5b82518660208202830111640100000000821117156200030c57600080fd5b82525081516020918201928201910280838360005b838110156200033b57818101518382015260200162000321565b50505050919091016040908152602083015190830151606090930151909450919250600090506200036b620006f5565b600080546001600160a01b0319166001600160a01b038316908117825560405192935091600080516020620052a0833981519152908290a350600180819055506000600260006101000a81548160ff02191690831515021790555033601060006101000a8154816001600160a01b0302191690836001600160a01b0316021790555033601160006101000a8154816001600160a01b0302191690836001600160a01b031602179055508d600260016101000a81548160ff0219169083151502179055508a600460006101000a8154816001600160a01b0302191690836001600160a01b0316021790555060006001600160a01b0316876001600160a01b0316146200048c57600d80546001600160a01b0319166001600160a01b0389161790555b6001600160a01b03861615620004b857600e80546001600160a01b0319166001600160a01b0388161790555b84600081518110620004c657fe5b6020026020010151601860006101000a8154816001600160a01b0302191690836001600160a01b03160217905550846001815181106200050257fe5b6020026020010151601960006101000a8154816001600160a01b0302191690836001600160a01b03160217905550836000815181106200053e57fe5b6020026020010151601b60006101000a8154816001600160a01b0302191690836001600160a01b03160217905550836001815181106200057a57fe5b6020908102919091010151601c80546001600160a01b039283166001600160a01b031990911617905560028054918f166301000000026301000000600160b81b0319909216919091179081905560ff6101009091041615620006d557600580546001600160a01b038086166001600160a01b031992831617909255600680549285169290911691909117905580156200063057600b8190556200062c61271082620006f9602090811b6200356e17901c565b600c555b60038c9055600780546001600160a01b0319166001600160a01b038c16179055875188906000906200065e57fe5b6020026020010151600860006101000a8154816001600160a01b0302191690836001600160a01b03160217905550876001815181106200069a57fe5b6020908102919091010151600980546001600160a01b03199081166001600160a01b0393841617909155600a8054909116918b169190911790555b620006e08f6200074a565b505050505050505050505050505050620008e3565b3390565b60006200074383836040518060400160405280601e81526020017f536166654d6174683a207375627472616374696f6e206f766572666c6f7700008152506200084860201b60201c565b9392505050565b62000754620006f5565b6000546001600160a01b03908116911614620007b7576040805162461bcd60e51b815260206004820181905260248201527f4f776e61626c653a2063616c6c6572206973206e6f7420746865206f776e6572604482015290519081900360640190fd5b6001600160a01b038116620007fe5760405162461bcd60e51b81526004018080602001828103825260268152602001806200527a6026913960400191505060405180910390fd5b600080546040516001600160a01b0380851693921691600080516020620052a083398151915291a3600080546001600160a01b0319166001600160a01b0392909216919091179055565b60008184841115620008db5760405162461bcd60e51b81526004018080602001828103825283818151815260200191508051906020019080838360005b838110156200089f57818101518382015260200162000885565b50505050905090810190601f168015620008cd5780820380516001836020036101000a031916815260200191505b509250505060405180910390fd5b505050900390565b61498780620008f36000396000f3fe608060405234801561001057600080fd5b50600436106104575760003560e01c80639665e82a11610250578063ce5328e411610150578063e5dd455a116100c8578063ee50dc3411610097578063f2fde38b1161007c578063f2fde38b14610f8e578063f3fef3a314610fb4578063f400d31114610fe057610457565b8063ee50dc341461068a578063f106845414610f8657610457565b8063e5dd455a14610f66578063e719847414610f6e578063e7a0367914610f76578063e99f3b6014610f7e57610457565b8063d8be16da1161011f578063dd4bbd7511610104578063dd4bbd7514610f4e578063df5c8a9e14610f56578063dfee1dd914610f5e57610457565b8063d8be16da14610f3e578063db7a3c0f14610f4657610457565b8063ce5328e414610f1e578063d33219b414610f26578063d389800f14610f2e578063d7cb416f14610f3657610457565b8063bb9928c6116101e3578063bf94c0ba116101b2578063c302a4d011610197578063c302a4d014610eca578063c3ec8dda14610ed2578063c7b9d53014610ef857610457565b8063bf94c0ba14610ea5578063c11c2e9214610ec257610457565b8063bb9928c614610d9e578063bca8885014610dbb578063bd2d2d9e14610e77578063bdacb30314610e7f57610457565b8063a55286321161021f578063a552863214610d42578063a7a76a0714610d68578063b3545c0114610d70578063b3ab15fb14610d7857610457565b80639665e82a14610cf45780639748911a14610cfc5780639e69232914610d045780639fc33a9f14610d3a57610457565b80634a56fcd41161035b578063701f6604116102ee5780637ff36fbe116102bd57806385f02dd6116102a257806385f02dd614610cdc578063889adfa814610ce45780638da5cb5b14610cec57610457565b80637ff36fbe14610ccc5780638456cb5914610cd457610457565b8063701f660414610c7e578063715018a614610cb457806376a9023114610cbc57806376ba098a14610cc457610457565b80635c975abb1161032a5780635c975abb14610c30578063607f35a014610c3857806363fe3e3a14610c4057806367206d4014610c4857610457565b80634a56fcd414610be65780634d9f7bb21461068a57806351b699cd14610bee578063570ca73514610c2857610457565b806327451bd3116103ee5780633f4ba83a116103bd57806344a3955e116103a257806344a3955e14610b9357806345d6b66714610b9b57806347e7ef2414610bba57610457565b80633f4ba83a14610b8357806342da4eb314610b8b57610457565b806327451bd31461069257806327e6dcbb14610b5657806336e9332d14610b5e5780633e1a891214610b6657610457565b80631f81650c1161042a5780631f81650c146104aa5780631fe4a686146104cb5780632224fa25146104d35780632717eff31461068a57610457565b8063061c7d481461045c5780630fa4e01e146104765780631334903f1461047e5780631a43da9314610486575b600080fd5b610464610ffd565b60408051918252519081900360200190f35b610464611003565b610464611009565b61048e61100f565b604080516001600160a01b039092168252519081900360200190f35b6104c9600480360360208110156104c057600080fd5b5035151561101e565b005b61048e61109f565b610615600480360360808110156104e957600080fd5b6001600160a01b038235169160208101359181019060608101604082013564010000000081111561051957600080fd5b82018360208201111561052b57600080fd5b8035906020019184600183028401116401000000008311171561054d57600080fd5b91908080601f01602080910402602001604051908101604052809392919081815260200183838082843760009201919091525092959493602081019350359150506401000000008111156105a057600080fd5b8201836020820111156105b257600080fd5b803590602001918460018302840111640100000000831117156105d457600080fd5b91908080601f0160208091040260200160405190810160405280939291908181526020018383808284376000920191909152509295506110ae945050505050565b6040805160208082528351818301528351919283929083019185019080838360005b8381101561064f578181015183820152602001610637565b50505050905090810190601f16801561067c5780820380516001836020036101000a031916815260200191505b509250505060405180910390f35b6104646113ab565b6104c960048036036101208110156106a957600080fd5b8101906020810181356401000000008111156106c457600080fd5b8201836020820111156106d657600080fd5b803590602001918460208302840111640100000000831117156106f857600080fd5b919080806020026020016040519081016040528093929190818152602001838360200280828437600092019190915250929594936020810193503591505064010000000081111561074857600080fd5b82018360208201111561075a57600080fd5b8035906020019184602083028401116401000000008311171561077c57600080fd5b91908080602002602001604051908101604052809392919081815260200183836020028082843760009201919091525092959493602081019350359150506401000000008111156107cc57600080fd5b8201836020820111156107de57600080fd5b8035906020019184602083028401116401000000008311171561080057600080fd5b919080806020026020016040519081016040528093929190818152602001838360200280828437600092019190915250929594936020810193503591505064010000000081111561085057600080fd5b82018360208201111561086257600080fd5b8035906020019184602083028401116401000000008311171561088457600080fd5b91908080602002602001604051908101604052809392919081815260200183836020028082843760009201919091525092959493602081019350359150506401000000008111156108d457600080fd5b8201836020820111156108e657600080fd5b8035906020019184602083028401116401000000008311171561090857600080fd5b919080806020026020016040519081016040528093929190818152602001838360200280828437600092019190915250929594936020810193503591505064010000000081111561095857600080fd5b82018360208201111561096a57600080fd5b8035906020019184602083028401116401000000008311171561098c57600080fd5b91908080602002602001604051908101604052809392919081815260200183836020028082843760009201919091525092959493602081019350359150506401000000008111156109dc57600080fd5b8201836020820111156109ee57600080fd5b80359060200191846020830284011164010000000083111715610a1057600080fd5b9190808060200260200160405190810160405280939291908181526020018383602002808284376000920191909152509295949360208101935035915050640100000000811115610a6057600080fd5b820183602082011115610a7257600080fd5b80359060200191846020830284011164010000000083111715610a9457600080fd5b9190808060200260200160405190810160405280939291908181526020018383602002808284376000920191909152509295949360208101935035915050640100000000811115610ae457600080fd5b820183602082011115610af657600080fd5b80359060200191846020830284011164010000000083111715610b1857600080fd5b9190808060200260200160405190810160405280939291908181526020018383602002808284376000920191909152509295506113b1945050505050565b61048e61162d565b6104c961163c565b6104c960048036036020811015610b7c57600080fd5b50356116a7565b6104c961178c565b6104646117df565b6104646117e5565b6104c960048036036020811015610bb157600080fd5b503515156117eb565b61046460048036036040811015610bd057600080fd5b506001600160a01b03813516906020013561187e565b61048e611a14565b610c1460048036036020811015610c0457600080fd5b50356001600160a01b0316611a23565b604080519115158252519081900360200190f35b61048e611a69565b610c14611a78565b61048e611a81565b61048e611a90565b6104c960048036036060811015610c5e57600080fd5b506001600160a01b03813581169160208101359160409091013516611aa8565b61046460048036036060811015610c9457600080fd5b506001600160a01b03813581169160208101359091169060400135611c1c565b6104c9611df4565b61048e611ec0565b610c14611ed8565b61048e611ee7565b6104c9611ef6565b610464611f47565b610464611f4d565b61048e611f99565b610464611fa8565b610464611fae565b61048e60048036036060811015610d1a57600080fd5b506001600160a01b03813581169160208101359091169060400135611fb4565b61048e611ff6565b6104c960048036036020811015610d5857600080fd5b50356001600160a01b031661200c565b61048e6120ec565b6104646120fb565b6104c960048036036020811015610d8e57600080fd5b50356001600160a01b0316612101565b6104c960048036036020811015610db457600080fd5b5035612184565b6104c960048036036060811015610dd157600080fd5b6001600160a01b038235811692602081013590911691810190606081016040820135640100000000811115610e0557600080fd5b820183602082011115610e1757600080fd5b80359060200191846020830284011164010000000083111715610e3957600080fd5b91908080602002602001604051908101604052809392919081815260200183836020028082843760009201919091525092955061222b945050505050565b61048e6122af565b6104c960048036036020811015610e9557600080fd5b50356001600160a01b03166122be565b6104c960048036036020811015610ebb57600080fd5b5035612341565b6104c96123e8565b61046461261a565b6104c960048036036020811015610ee857600080fd5b50356001600160a01b0316612620565b6104c960048036036020811015610f0e57600080fd5b50356001600160a01b0316612702565b61048e612785565b61048e612794565b6104c96127a3565b61048e612f0c565b610c14612f1b565b610464612f3c565b61048e613065565b610464613074565b61046461307a565b610c14613080565b61048e61308e565b61048e61309d565b61048e6130ac565b6104646130bb565b6104c960048036036020811015610fa457600080fd5b50356001600160a01b03166130c1565b61046460048036036040811015610fca57600080fd5b506001600160a01b0381351690602001356131e3565b6104c960048036036020811015610ff657600080fd5b50356134c9565b61012c81565b60135481565b601d5481565b6019546001600160a01b031681565b6010546001600160a01b031633146110675760405162461bcd60e51b815260040180806020018281038252602b8152602001806148b5602b913960400191505060405180910390fd5b6002805491151562010000027fffffffffffffffffffffffffffffffffffffffffffffffffffffffffff00ffff909216919091179055565b6011546001600160a01b031681565b6012546060906001600160a01b031633146110fa5760405162461bcd60e51b81526004018080602001828103825260278152602001806149016027913960400191505060405180910390fd5b606083516000141561110d5750816111a5565b83805190602001208360405160200180837bffffffffffffffffffffffffffffffffffffffffffffffffffffffff1916815260040182805190602001908083835b6020831061116d5780518252601f19909201916020918201910161114e565b6001836020036101000a0380198251168184511680821785525050505050509050019250505060405160208183030381529060405290505b60006060876001600160a01b031687846040518082805190602001908083835b602083106111e45780518252601f1990920191602091820191016111c5565b6001836020036101000a03801982511681845116808217855250505050505090500191505060006040518083038185875af1925050503d8060008114611246576040519150601f19603f3d011682016040523d82523d6000602084013e61124b565b606091505b50915091508161128c5760405162461bcd60e51b815260040180806020018281038252604481526020018061482a6044913960600191505060405180910390fd5b876001600160a01b03167f88405ca50016c636e025868e263efe5a9f63bf11cc45404f7616394c7dc389d0888888604051808481526020018060200180602001838103835285818151815260200191508051906020019080838360005b838110156113015781810151838201526020016112e9565b50505050905090810190601f16801561132e5780820380516001836020036101000a031916815260200191505b50838103825284518152845160209182019186019080838360005b83811015611361578181015183820152602001611349565b50505050905090810190601f16801561138e5780820380516001836020036101000a031916815260200191505b509550505050505060405180910390a2925050505b949350505050565b61271081565b6010546001600160a01b031633146113fa5760405162461bcd60e51b815260040180806020018281038252602b8152602001806148b5602b913960400191505060405180910390fd5b6007546001600160a01b039081166000908152600f6020908152604080832060185490941683529281529190208a51611435928c0190614775565b506007546001600160a01b039081166000908152600f60209081526040808320601b5490941683529281529190208951611471928b0190614775565b506007546001600160a01b039081166000908152600f60209081526040808320600554909416835292815291902088516114ad928a0190614775565b506007546001600160a01b039081166000908152600f60209081526040808320600654909416835292815291902087516114e992890190614775565b506007546001600160a01b03166000908152600f6020908152604080832073e9e7cea3dedca5984780bafc599bd69add087d5684528252909120865161153192880190614775565b506005546001600160a01b039081166000908152600f602090815260408083206007549094168352928152919020855161156d92870190614775565b506006546001600160a01b039081166000908152600f60209081526040808320600754909416835292815291902084516115a992860190614775565b506008546001600160a01b039081166000908152600f60209081526040808320600754909416835292815291902083516115e592850190614775565b506009546001600160a01b039081166000908152600f602090815260408083206007549094168352928152919020825161162192840190614775565b50505050505050505050565b600e546001600160a01b031681565b60026001541415611694576040805162461bcd60e51b815260206004820152601f60248201527f5265656e7472616e637947756172643a207265656e7472616e742063616c6c00604482015290519081900360640190fd5b60026001556116a16135b7565b60018055565b6010546001600160a01b031633146116f05760405162461bcd60e51b815260040180806020018281038252602b8152602001806148b5602b913960400191505060405180910390fd5b6126de8111611746576040805162461bcd60e51b815260206004820181905260248201527f427661756c747353747261746567793a202173616665202d20746f6f206c6f77604482015290519081900360640190fd5b6127108111156117875760405162461bcd60e51b815260040180806020018281038252602181526020018061486e6021913960400191505060405180910390fd5b601d55565b6010546001600160a01b031633146117d55760405162461bcd60e51b815260040180806020018281038252602b8152602001806148b5602b913960400191505060405180910390fd5b6117dd61371e565b565b60145481565b60155481565b6010546001600160a01b031633146118345760405162461bcd60e51b815260040180806020018281038252602b8152602001806148b5602b913960400191505060405180910390fd5b6012805491151574010000000000000000000000000000000000000000027fffffffffffffffffffffff00ffffffffffffffffffffffffffffffffffffffff909216919091179055565b60006118886137e3565b6000546001600160a01b039081169116146118ea576040805162461bcd60e51b815260206004820181905260248201527f4f776e61626c653a2063616c6c6572206973206e6f7420746865206f776e6572604482015290519081900360640190fd5b60025460ff1615611942576040805162461bcd60e51b815260206004820152601060248201527f5061757361626c653a2070617573656400000000000000000000000000000000604482015290519081900360640190fd5b60045461195a906001600160a01b03163330856137e7565b60145482901561199a57611997612710611991601454611991601d5461198b6015548a61386f90919063ffffffff16565b9061386f565b906138c8565b90505b6015546119a7908261390a565b601555600254610100900460ff16156119c7576119c26135b7565b6119d8565b6014546119d4908461390a565b6014555b6040805184815290517f4d6ce1e535dbade1c23defba91e23b8f791ce5edc0cc320257a2b364e4e384269181900360200190a190505b92915050565b601c546001600160a01b031681565b6010546000906001600160a01b0383811691161480611a4c57506011546001600160a01b031633145b80611a6157506012546001600160a01b031633145b90505b919050565b6010546001600160a01b031681565b60025460ff1690565b601b546001600160a01b031681565b73bb4cdb9cbd36b01bd1cbaebf2de08d9173bc095c81565b6010546001600160a01b03163314611af15760405162461bcd60e51b815260040180806020018281038252602b8152602001806148b5602b913960400191505060405180910390fd5b6007546001600160a01b0384811691161415611b54576040805162461bcd60e51b815260206004820152600660248201527f6561726e65640000000000000000000000000000000000000000000000000000604482015290519081900360640190fd5b6004546001600160a01b0384811691161415611bb9576040805162461bcd60e51b8152602060048083019190915260248201527f77616e7400000000000000000000000000000000000000000000000000000000604482015290519081900360640190fd5b611bcd6001600160a01b0384168284613964565b604080516001600160a01b0380861682526020820185905283168183015290517f22f92dfb4f608ea5db1e9bb08c0b4f5518af93b1259d335fe05900056096ab2c9181900360600190a1505050565b600e546001600160a01b038481166000818152600f60209081526040808320888616808552925280832090517f8fabd82d0000000000000000000000000000000000000000000000000000000081526004810194855260248101929092526044820187905260806064830190815281546084840181905293966060961694638fabd82d948b948b948b94909392909160a4019084908015611ce657602002820191906000526020600020905b81546001600160a01b03168152600190910190602001808311611cc8575b50509550505050505060006040518083038186803b158015611d0757600080fd5b505afa158015611d1b573d6000803e3d6000fd5b505050506040513d6000823e601f3d908101601f191682016040526020811015611d4457600080fd5b8101908080516040519392919084640100000000821115611d6457600080fd5b908301906020820185811115611d7957600080fd5b8251866020820283011164010000000082111715611d9657600080fd5b82525081516020918201928201910280838360005b83811015611dc3578181015183820152602001611dab565b50505050905001604052505050905080600182510381518110611de257fe5b60200260200101519150509392505050565b611dfc6137e3565b6000546001600160a01b03908116911614611e5e576040805162461bcd60e51b815260206004820181905260248201527f4f776e61626c653a2063616c6c6572206973206e6f7420746865206f776e6572604482015290519081900360640190fd5b600080546040516001600160a01b03909116907f8be0079c531659141344cd1fd0a4f28419497f9722a3daafe3b4186f6b6457e0908390a3600080547fffffffffffffffffffffffff0000000000000000000000000000000000000000169055565b73e9e7cea3dedca5984780bafc599bd69add087d5681565b60025462010000900460ff1681565b6005546001600160a01b031681565b6010546001600160a01b03163314611f3f5760405162461bcd60e51b815260040180806020018281038252602b8152602001806148b5602b913960400191505060405180910390fd5b6117dd6139e9565b60165481565b600080611f58612f3c565b90508015611f9057600754611f8b906001600160a01b031673e9e7cea3dedca5984780bafc599bd69add087d5683611c1c565b611f93565b60005b91505090565b6000546001600160a01b031690565b600c5481565b600b5481565b600f6020528260005260406000206020528160005260406000208181548110611fd957fe5b6000918252602090912001546001600160a01b0316925083915050565b600254630100000090046001600160a01b031681565b6010546001600160a01b031633146120555760405162461bcd60e51b815260040180806020018281038252602b8152602001806148b5602b913960400191505060405180910390fd5b6001600160a01b0381166120b2576040805162461bcd60e51b8152602060048083019190915260248201527f7a65726f00000000000000000000000000000000000000000000000000000000604482015290519081900360640190fd5b601c80547fffffffffffffffffffffffff0000000000000000000000000000000000000000166001600160a01b0392909216919091179055565b6009546001600160a01b031681565b61032081565b6010546001600160a01b0316331461214a5760405162461bcd60e51b815260040180806020018281038252602b8152602001806148b5602b913960400191505060405180910390fd5b601080547fffffffffffffffffffffffff0000000000000000000000000000000000000000166001600160a01b0392909216919091179055565b6010546001600160a01b031633146121cd5760405162461bcd60e51b815260040180806020018281038252602b8152602001806148b5602b913960400191505060405180910390fd5b610320601a541115612226576040805162461bcd60e51b815260206004820152601960248201527f427661756c747353747261746567793a20746f6f206869676800000000000000604482015290519081900360640190fd5b601a55565b6010546001600160a01b031633146122745760405162461bcd60e51b815260040180806020018281038252602b8152602001806148b5602b913960400191505060405180910390fd5b6001600160a01b038084166000908152600f60209081526040808320938616835292815291902082516122a992840190614775565b50505050565b600a546001600160a01b031681565b6012546001600160a01b031633146123075760405162461bcd60e51b81526004018080602001828103825260278152602001806149016027913960400191505060405180910390fd5b601280547fffffffffffffffffffffffff0000000000000000000000000000000000000000166001600160a01b0392909216919091179055565b6010546001600160a01b0316331461238a5760405162461bcd60e51b815260040180806020018281038252602b8152602001806148b5602b913960400191505060405180910390fd5b61032060175411156123e3576040805162461bcd60e51b815260206004820152601960248201527f427661756c747353747261746567793a20746f6f206869676800000000000000604482015290519081900360640190fd5b601755565b60025460ff1615612440576040805162461bcd60e51b815260206004820152601060248201527f5061757361626c653a2070617573656400000000000000000000000000000000604482015290519081900360640190fd5b600254610100900460ff1661249c576040805162461bcd60e51b815260206004820152600b60248201527f2169734175746f436f6d70000000000000000000000000000000000000000000604482015290519081900360640190fd5b600554604080516370a0823160e01b815230600482015290516000926001600160a01b0316916370a08231916024808301926020929190829003018186803b1580156124e757600080fd5b505afa1580156124fb573d6000803e3d6000fd5b505050506040513d602081101561251157600080fd5b50516007546005549192506001600160a01b039182169116148015906125375750600081115b1561255957600554600754612559916001600160a01b03908116911683613a95565b600654604080516370a0823160e01b815230600482015290516000926001600160a01b0316916370a08231916024808301926020929190829003018186803b1580156125a457600080fd5b505afa1580156125b8573d6000803e3d6000fd5b505050506040513d60208110156125ce57600080fd5b50516007546006549192506001600160a01b039182169116148015906125f45750600081115b1561261657600654600754612616916001600160a01b03908116911683613a95565b5050565b6126de81565b6010546001600160a01b031633146126695760405162461bcd60e51b815260040180806020018281038252602b8152602001806148b5602b913960400191505060405180910390fd5b6019546001600160a01b03166126c8576040805162461bcd60e51b8152602060048083019190915260248201527f7a65726f00000000000000000000000000000000000000000000000000000000604482015290519081900360640190fd5b601980547fffffffffffffffffffffffff0000000000000000000000000000000000000000166001600160a01b0392909216919091179055565b6010546001600160a01b0316331461274b5760405162461bcd60e51b815260040180806020018281038252602b8152602001806148b5602b913960400191505060405180910390fd5b601180547fffffffffffffffffffffffff0000000000000000000000000000000000000000166001600160a01b0392909216919091179055565b6018546001600160a01b031681565b6012546001600160a01b031681565b60025460ff16156127fb576040805162461bcd60e51b815260206004820152601060248201527f5061757361626c653a2070617573656400000000000000000000000000000000604482015290519081900360640190fd5b600254610100900460ff16612857576040805162461bcd60e51b815260206004820152601c60248201527f427661756c747353747261746567793a202169734175746f436f6d7000000000604482015290519081900360640190fd5b60125474010000000000000000000000000000000000000000900460ff161580612885575061288533611a23565b6128d6576040805162461bcd60e51b815260206004820152601c60248201527f427661756c747353747261746567793a2021617574686f726973656400000000604482015290519081900360640190fd5b600260039054906101000a90046001600160a01b03166001600160a01b031663e2bbb15860035460006040518363ffffffff1660e01b81526004018083815260200182815260200192505050600060405180830381600087803b15801561293c57600080fd5b505af1158015612950573d6000803e3d6000fd5b5050600954604080516370a0823160e01b81523060048201529051600094506001600160a01b0390921692506370a08231916024808301926020929190829003018186803b1580156129a157600080fd5b505afa1580156129b5573d6000803e3d6000fd5b505050506040513d60208110156129cb57600080fd5b5051905080156129f2576009546007546129f2916001600160a01b03908116911683613a95565b600854604080516370a0823160e01b815230600482015290516000926001600160a01b0316916370a08231916024808301926020929190829003018186803b158015612a3d57600080fd5b505afa158015612a51573d6000803e3d6000fd5b505050506040513d6020811015612a6757600080fd5b505190508015612a8e57600854600754612a8e916001600160a01b03908116911683613a95565b60025462010000900460ff1615612bc657600a54604080517f202b176000000000000000000000000000000000000000000000000000000000815230600482015290516000926001600160a01b03169163202b1760916024808301926020929190829003018186803b158015612b0357600080fd5b505afa158015612b17573d6000803e3d6000fd5b505050506040513d6020811015612b2d57600080fd5b50511115612bc657600a54604080517f9852595c00000000000000000000000000000000000000000000000000000000815230600482015290516001600160a01b0390921691639852595c91602480820192602092909190829003018186803b158015612b9957600080fd5b505afa158015612bad573d6000803e3d6000fd5b505050506040513d6020811015612bc357600080fd5b50505b600754604080516370a0823160e01b815230600482015290516000926001600160a01b0316916370a08231916024808301926020929190829003018186803b158015612c1157600080fd5b505afa158015612c25573d6000803e3d6000fd5b505050506040513d6020811015612c3b57600080fd5b5051600754604080516001600160a01b0390921682526020820183905280519293507f053fa1fc52294a40b4ff1a988765bd298c00caa24d685cc3f767dcfde254ef9a92918290030190a16000612c9182613c89565b90506000612c9e83613d2b565b90506000612cab84613f73565b9050612cc381612cbd8481888861356e565b9061356e565b600d54600754919550612ce3916001600160a01b0390811691168661423f565b6005546007546001600160a01b03908116911614612d2e57600754600554600b54612d2e926001600160a01b03908116921690612d299061271090611991908a9061386f565b613a95565b6006546007546001600160a01b03908116911614612d7457600754600654600c54612d74926001600160a01b03908116921690612d299061271090611991908a9061386f565b600554604080516370a0823160e01b815230600482015290516000926001600160a01b0316916370a08231916024808301926020929190829003018186803b158015612dbf57600080fd5b505afa158015612dd3573d6000803e3d6000fd5b505050506040513d6020811015612de957600080fd5b5051600654604080516370a0823160e01b815230600482015290519293506000926001600160a01b03909216916370a0823191602480820192602092909190829003018186803b158015612e3c57600080fd5b505afa158015612e50573d6000803e3d6000fd5b505050506040513d6020811015612e6657600080fd5b505190508115801590612e795750600081115b15612ef657600554600654612e9c916001600160a01b0390811691168484614326565b600554600654604080516001600160a01b0393841681526020810186905291909216818301526060810183905290517f44552da03f807ace3e5f27e98e694712dfe668c743514b28d4d9f5ab70574b0f9181900360800190a15b43601355612f026135b7565b5050505050505050565b6006546001600160a01b031681565b60125474010000000000000000000000000000000000000000900460ff1681565b600754604080516370a0823160e01b8152306004820152905160009283926001600160a01b03909116916370a0823191602480820192602092909190829003018186803b158015612f8c57600080fd5b505afa158015612fa0573d6000803e3d6000fd5b505050506040513d6020811015612fb657600080fd5b5051600254600354604080517f98969e82000000000000000000000000000000000000000000000000000000008152600481019290925230602483015251929350611f93928492630100000090046001600160a01b0316916398969e82916044808301926020929190829003018186803b15801561303357600080fd5b505afa158015613047573d6000803e3d6000fd5b505050506040513d602081101561305d57600080fd5b50519061390a565b600d546001600160a01b031681565b60175481565b601a5481565b600254610100900460ff1681565b6007546001600160a01b031681565b6004546001600160a01b031681565b6008546001600160a01b031681565b60035481565b6130c96137e3565b6000546001600160a01b0390811691161461312b576040805162461bcd60e51b815260206004820181905260248201527f4f776e61626c653a2063616c6c6572206973206e6f7420746865206f776e6572604482015290519081900360640190fd5b6001600160a01b0381166131705760405162461bcd60e51b815260040180806020018281038252602681526020018061488f6026913960400191505060405180910390fd5b600080546040516001600160a01b03808516939216917f8be0079c531659141344cd1fd0a4f28419497f9722a3daafe3b4186f6b6457e091a3600080547fffffffffffffffffffffffff0000000000000000000000000000000000000000166001600160a01b0392909216919091179055565b60006131ed6137e3565b6000546001600160a01b0390811691161461324f576040805162461bcd60e51b815260206004820181905260248201527f4f776e61626c653a2063616c6c6572206973206e6f7420746865206f776e6572604482015290519081900360640190fd5b600260015414156132a7576040805162461bcd60e51b815260206004820152601f60248201527f5265656e7472616e637947756172643a207265656e7472616e742063616c6c00604482015290519081900360640190fd5b6002600155816132fe576040805162461bcd60e51b815260206004820152601a60248201527f427661756c747353747261746567793a20215f77616e74416d74000000000000604482015290519081900360640190fd5b600254610100900460ff161561338c57600260039054906101000a90046001600160a01b03166001600160a01b031663441a3e70600354846040518363ffffffff1660e01b81526004018083815260200182815260200192505050600060405180830381600087803b15801561337357600080fd5b505af1158015613387573d6000803e3d6000fd5b505050505b60048054604080516370a0823160e01b81523093810193909352516000926001600160a01b03909216916370a08231916024808301926020929190829003018186803b1580156133db57600080fd5b505afa1580156133ef573d6000803e3d6000fd5b505050506040513d602081101561340557600080fd5b5051905080831115613415578092505b8260145410156134255760145492505b60006134426014546119916015548761386f90919063ffffffff16565b905060155481111561345357506015545b601554613460908261356e565b601555601454613470908561356e565b60145560045461348a906001600160a01b03163386613964565b6040805185815290517f5b6b431d4476a211bb7d41c20d1aab9ae2321deee0d20be3d9fc9b1093fa6e3d9181900360200190a160018055949350505050565b6010546001600160a01b031633146135125760405162461bcd60e51b815260040180806020018281038252602b8152602001806148b5602b913960400191505060405180910390fd5b61012c811115613569576040805162461bcd60e51b815260206004820152601960248201527f427661756c747353747261746567793a20746f6f206869676800000000000000604482015290519081900360640190fd5b601655565b60006135b083836040518060400160405280601e81526020017f536166654d6174683a207375627472616374696f6e206f766572666c6f77000081525061444b565b9392505050565b60048054604080516370a0823160e01b81523093810193909352516000926001600160a01b03909216916370a08231916024808301926020929190829003018186803b15801561360657600080fd5b505afa15801561361a573d6000803e3d6000fd5b505050506040513d602081101561363057600080fd5b5051601454909150613642908261390a565b60145560025460045461366a916001600160a01b03918216916301000000909104168361423f565b600260039054906101000a90046001600160a01b03166001600160a01b031663e2bbb158600354836040518363ffffffff1660e01b81526004018083815260200182815260200192505050600060405180830381600087803b1580156136cf57600080fd5b505af11580156136e3573d6000803e3d6000fd5b50506040805184815290517fc217459869eed80bfbe5c11e78ab58912eedfd106342671821b6e96d1615dc7f9350908190036020019150a150565b60025460ff16613775576040805162461bcd60e51b815260206004820152601460248201527f5061757361626c653a206e6f7420706175736564000000000000000000000000604482015290519081900360640190fd5b600280547fffffffffffffffffffffffffffffffffffffffffffffffffffffffffffffff001690557f5db9ee0a495bf2e6ff9c91a7834c1ba4fdd244a5e8aa4e537bd38aeae4b073aa6137c66137e3565b604080516001600160a01b039092168252519081900360200190a1565b3390565b604080516001600160a01b0380861660248301528416604482015260648082018490528251808303909101815260849091019091526020810180517bffffffffffffffffffffffffffffffffffffffffffffffffffffffff167f23b872dd000000000000000000000000000000000000000000000000000000001790526122a99085906144e2565b60008261387e57506000611a0e565b8282028284828161388b57fe5b04146135b05760405162461bcd60e51b81526004018080602001828103825260218152602001806148e06021913960400191505060405180910390fd5b60006135b083836040518060400160405280601a81526020017f536166654d6174683a206469766973696f6e206279207a65726f000000000000815250614593565b6000828201838110156135b0576040805162461bcd60e51b815260206004820152601b60248201527f536166654d6174683a206164646974696f6e206f766572666c6f770000000000604482015290519081900360640190fd5b604080516001600160a01b038416602482015260448082018490528251808303909101815260649091019091526020810180517bffffffffffffffffffffffffffffffffffffffffffffffffffffffff167fa9059cbb000000000000000000000000000000000000000000000000000000001790526139e49084906144e2565b505050565b60025460ff1615613a41576040805162461bcd60e51b815260206004820152601060248201527f5061757361626c653a2070617573656400000000000000000000000000000000604482015290519081900360640190fd5b600280547fffffffffffffffffffffffffffffffffffffffffffffffffffffffffffffff001660011790557f62e78cea01bee320cd4e420270b5ea74000d11b0c9f74754ebdbfc544b05a2586137c66137e3565b600d54613aaf906001600160a01b0385811691168361423f565b600d546001600160a01b038481166000908152600f602090815260408083208785168452909152902091169063bff51d719085908590859060019030613af74261070861390a565b6040518863ffffffff1660e01b815260040180886001600160a01b03168152602001876001600160a01b0316815260200186815260200185815260200180602001846001600160a01b031681526020018381526020018281038252858181548152602001915080548015613b9457602002820191906000526020600020905b81546001600160a01b03168152600190910190602001808311613b76575b505098505050505050505050600060405180830381600087803b158015613bba57600080fd5b505af1158015613bce573d6000803e3d6000fd5b505050506040513d6000823e601f3d908101601f191682016040526020811015613bf757600080fd5b8101908080516040519392919084640100000000821115613c1757600080fd5b908301906020820185811115613c2c57600080fd5b8251866020820283011164010000000082111715613c4957600080fd5b82525081516020918201928201910280838360005b83811015613c76578181015183820152602001613c5e565b5050505090500160405250505050505050565b60008115611a645760165415611a6457613cb46127106119916016548561386f90919063ffffffff16565b601054600754919250613cd4916001600160a01b03908116911683613964565b600754601054604080516001600160a01b03938416815260208101859052919092168183015290517f056e5430e11cfdfb90a183ec3bf63ed22abe70cdf4e7bd3018d8b459bbd7f6199181900360600190a1919050565b6017546000901580613d4657506019546001600160a01b0316155b15613d5357506000611a64565b6000613d706127106119916017548661386f90919063ffffffff16565b6007546001600160a01b039081166000908152600f6020908152604080832060185485168085529083528184205460195483516370a0823160e01b81529616600487015291519596509094929390926370a0823192602480840193919291829003018186803b158015613de257600080fd5b505afa158015613df6573d6000803e3d6000fd5b505050506040513d6020811015613e0c57600080fd5b505190508115801590613e3057506018546007546001600160a01b03908116911614155b15613e5757600754601854613e52916001600160a01b03908116911685613a95565b613e74565b601954600754613e74916001600160a01b03918216911685613964565b601854601954604080516370a0823160e01b81526001600160a01b039283166004820152905160009392909216916370a0823191602480820192602092909190829003018186803b158015613ec857600080fd5b505afa158015613edc573d6000803e3d6000fd5b505050506040513d6020811015613ef257600080fd5b505190506000613f02828461356e565b600754601854601954604080516001600160a01b03948516815292841660208401528281018a9052606083018590529216608082015290519192507fb152a9c4203a9515a80fadb5b18afb6bfce5350eccdfda9d0908ac37ec094222919081900360a00190a1509295945050505050565b601a546000901580613f8e5750601c546001600160a01b0316155b15613f9b57506000611a64565b6000613fb8612710611991601a548661386f90919063ffffffff16565b6007546001600160a01b039081166000908152600f60209081526040808320601b54851680855290835281842054601c5483516370a0823160e01b81529616600487015291519596509094929390926370a0823192602480840193919291829003018186803b15801561402a57600080fd5b505afa15801561403e573d6000803e3d6000fd5b505050506040513d602081101561405457600080fd5b5051905081158015906140785750601b546007546001600160a01b03908116911614155b1561409f57600754601b5461409a916001600160a01b03908116911685613a95565b6140bc565b601c546007546140bc916001600160a01b03918216911685613964565b601b54601c54604080516370a0823160e01b81526001600160a01b039283166004820152905160009392909216916370a0823191602480820192602092909190829003018186803b15801561411057600080fd5b505afa158015614124573d6000803e3d6000fd5b505050506040513d602081101561413a57600080fd5b50519050600061414a828461356e565b9050801561423457601c54604080517f50afa34b0000000000000000000000000000000000000000000000000000000081526004810184905290516001600160a01b03909216916350afa34b9160248082019260009290919082900301818387803b1580156141b857600080fd5b505af11580156141cc573d6000803e3d6000fd5b5050600754601b54601c54604080516001600160a01b03948516815292841660208401528281018b9052606083018790529216608082015290517fb152a9c4203a9515a80fadb5b18afb6bfce5350eccdfda9d0908ac37ec09422293509081900360a0019150a15b509295945050505050565b60006142a382856001600160a01b031663dd62ed3e30876040518363ffffffff1660e01b815260040180836001600160a01b03168152602001826001600160a01b031681526020019250505060206040518083038186803b15801561303357600080fd5b604080516001600160a01b038616602482015260448082018490528251808303909101815260649091019091526020810180517bffffffffffffffffffffffffffffffffffffffffffffffffffffffff167f095ea7b3000000000000000000000000000000000000000000000000000000001790529091506122a99085906144e2565b600d54614340906001600160a01b0386811691168461423f565b600d5461435a906001600160a01b0385811691168361423f565b600d546004546001600160a01b039182169163fbf45135911686868686600080306143874261070861390a565b6040518a63ffffffff1660e01b8152600401808a6001600160a01b03168152602001896001600160a01b03168152602001886001600160a01b03168152602001878152602001868152602001858152602001848152602001836001600160a01b031681526020018281526020019950505050505050505050606060405180830381600087803b15801561441957600080fd5b505af115801561442d573d6000803e3d6000fd5b505050506040513d606081101561444357600080fd5b505050505050565b600081848411156144da5760405162461bcd60e51b81526004018080602001828103825283818151815260200191508051906020019080838360005b8381101561449f578181015183820152602001614487565b50505050905090810190601f1680156144cc5780820380516001836020036101000a031916815260200191505b509250505060405180910390fd5b505050900390565b6060614537826040518060400160405280602081526020017f5361666545524332303a206c6f772d6c6576656c2063616c6c206661696c6564815250856001600160a01b03166145f89092919063ffffffff16565b8051909150156139e45780806020019051602081101561455657600080fd5b50516139e45760405162461bcd60e51b815260040180806020018281038252602a815260200180614928602a913960400191505060405180910390fd5b600081836145e25760405162461bcd60e51b815260206004820181815283516024840152835190928392604490910191908501908083836000831561449f578181015183820152602001614487565b5060008385816145ee57fe5b0495945050505050565b60606113a38484600085606061460d8561476f565b61465e576040805162461bcd60e51b815260206004820152601d60248201527f416464726573733a2063616c6c20746f206e6f6e2d636f6e7472616374000000604482015290519081900360640190fd5b60006060866001600160a01b031685876040518082805190602001908083835b6020831061469d5780518252601f19909201916020918201910161467e565b6001836020036101000a03801982511681845116808217855250505050505090500191505060006040518083038185875af1925050503d80600081146146ff576040519150601f19603f3d011682016040523d82523d6000602084013e614704565b606091505b509150915081156147185791506113a39050565b8051156147285780518082602001fd5b60405162461bcd60e51b815260206004820181815286516024840152865187939192839260440191908501908083836000831561449f578181015183820152602001614487565b3b151590565b8280548282559060005260206000209081019282156147e2579160200282015b828111156147e257825182547fffffffffffffffffffffffff0000000000000000000000000000000000000000166001600160a01b03909116178255602090920191600190910190614795565b506147ee9291506147f2565b5090565b5b808211156147ee5780547fffffffffffffffffffffffff00000000000000000000000000000000000000001681556001016147f356fe427661756c747353747261746567793a3a657865637574655472616e73616374696f6e3a205472616e73616374696f6e20657865637574696f6e2072657665727465642e427661756c747353747261746567793a202173616665202d20746f6f20686967684f776e61626c653a206e6577206f776e657220697320746865207a65726f2061646472657373427661756c747353747261746567793a2063616c6c6572206973206e6f7420746865206f70657261746f72536166654d6174683a206d756c7469706c69636174696f6e206f766572666c6f77427661756c747353747261746567793a2063616c6c6572206973206e6f742074696d656c6f636b5361666545524332303a204552433230206f7065726174696f6e20646964206e6f742073756363656564a26469706673582212208908ab7191caf76d1a67c00281af5134a78391ca866fb99ab0957288ed7b386d64736f6c634300060c00334f776e61626c653a206e6577206f776e657220697320746865207a65726f20616464726573738be0079c531659141344cd1fd0a4f28419497f9722a3daafe3b4186f6b6457e0",
  "linkReferences": {},
  "deployedLinkReferences": {}
}