{
  "_format": "hh-sol-artifact-1",
  "contractName": "BvaultsStrategy",
  "sourceName": "contracts/BvaultsStrategy.4.vswap.sol",
  "abi": [
    {
      "inputs": [
        {
          "internalType": "address",
          "name": "_controller",
          "type": "address"
        },
        {
          "internalType": "bool",
          "name": "_isCAKEStaking",
          "type": "bool"
        },
        {
          "internalType": "bool",
          "name": "_isAutoComp",
          "type": "bool"
        },
        {
          "internalType": "address",
          "name": "_farmContractAddress",
          "type": "address"
        },
        {
          "internalType": "uint256",
          "name": "_pid",
          "type": "uint256"
        },
        {
          "internalType": "address",
          "name": "_wantAddress",
          "type": "address"
        },
        {
          "internalType": "address",
          "name": "_earnedAddress",
          "type": "address"
        },
        {
          "internalType": "address",
          "name": "_vswapRouterAddress",
          "type": "address"
        },
        {
          "internalType": "address",
          "name": "_vswapFormula",
          "type": "address"
        },
        {
          "internalType": "address[]",
          "name": "_buyBackToken1Info",
          "type": "address[]"
        },
        {
          "internalType": "address[]",
          "name": "_buyBackToken2Info",
          "type": "address[]"
        },
        {
          "internalType": "address",
          "name": "_token0",
          "type": "address"
        },
        {
          "internalType": "address",
          "name": "_token1",
          "type": "address"
        }
      ],
      "stateMutability": "nonpayable",
      "type": "constructor"
    },
    {
      "anonymous": false,
      "inputs": [
        {
          "indexed": false,
          "internalType": "address",
          "name": "earnedAddress",
          "type": "address"
        },
        {
          "indexed": false,
          "internalType": "address",
          "name": "buyBackToken",
          "type": "address"
        },
        {
          "indexed": false,
          "internalType": "uint256",
          "name": "earnedAmt",
          "type": "uint256"
        },
        {
          "indexed": false,
          "internalType": "uint256",
          "name": "buyBackAmt",
          "type": "uint256"
        },
        {
          "indexed": false,
          "internalType": "address",
          "name": "receiver",
          "type": "address"
        }
      ],
      "name": "BuyBack",
      "type": "event"
    },
    {
      "anonymous": false,
      "inputs": [
        {
          "indexed": false,
          "internalType": "address",
          "name": "token0Address",
          "type": "address"
        },
        {
          "indexed": false,
          "internalType": "uint256",
          "name": "token0Amt",
          "type": "uint256"
        },
        {
          "indexed": false,
          "internalType": "address",
          "name": "token1Address",
          "type": "address"
        },
        {
          "indexed": false,
          "internalType": "uint256",
          "name": "token1Amt",
          "type": "uint256"
        }
      ],
      "name": "Compound",
      "type": "event"
    },
    {
      "anonymous": false,
      "inputs": [
        {
          "indexed": false,
          "internalType": "address",
          "name": "tokenAddress",
          "type": "address"
        },
        {
          "indexed": false,
          "internalType": "address",
          "name": "earnedAddress",
          "type": "address"
        },
        {
          "indexed": false,
          "internalType": "uint256",
          "name": "tokenAmt",
          "type": "uint256"
        }
      ],
      "name": "ConvertDustToEarned",
      "type": "event"
    },
    {
      "anonymous": false,
      "inputs": [
        {
          "indexed": false,
          "internalType": "uint256",
          "name": "amount",
          "type": "uint256"
        }
      ],
      "name": "Deposit",
      "type": "event"
    },
    {
      "anonymous": false,
      "inputs": [
        {
          "indexed": false,
          "internalType": "address",
          "name": "earnedAddress",
          "type": "address"
        },
        {
          "indexed": false,
          "internalType": "uint256",
          "name": "fee",
          "type": "uint256"
        },
        {
          "indexed": false,
          "internalType": "address",
          "name": "receiver",
          "type": "address"
        }
      ],
      "name": "DistributeFee",
      "type": "event"
    },
    {
      "anonymous": false,
      "inputs": [
        {
          "indexed": false,
          "internalType": "address",
          "name": "earnedAddress",
          "type": "address"
        },
        {
          "indexed": false,
          "internalType": "uint256",
          "name": "earnedAmt",
          "type": "uint256"
        }
      ],
      "name": "Earned",
      "type": "event"
    },
    {
      "anonymous": false,
      "inputs": [
        {
          "indexed": true,
          "internalType": "address",
          "name": "target",
          "type": "address"
        },
        {
          "indexed": false,
          "internalType": "uint256",
          "name": "value",
          "type": "uint256"
        },
        {
          "indexed": false,
          "internalType": "string",
          "name": "signature",
          "type": "string"
        },
        {
          "indexed": false,
          "internalType": "bytes",
          "name": "data",
          "type": "bytes"
        }
      ],
      "name": "ExecuteTransaction",
      "type": "event"
    },
    {
      "anonymous": false,
      "inputs": [
        {
          "indexed": false,
          "internalType": "uint256",
          "name": "amount",
          "type": "uint256"
        }
      ],
      "name": "Farm",
      "type": "event"
    },
    {
      "anonymous": false,
      "inputs": [
        {
          "indexed": false,
          "internalType": "address",
          "name": "tokenAddress",
          "type": "address"
        },
        {
          "indexed": false,
          "internalType": "uint256",
          "name": "tokenAmt",
          "type": "uint256"
        },
        {
          "indexed": false,
          "internalType": "address",
          "name": "receiver",
          "type": "address"
        }
      ],
      "name": "InCaseTokensGetStuck",
      "type": "event"
    },
    {
      "anonymous": false,
      "inputs": [
        {
          "indexed": true,
          "internalType": "address",
          "name": "previousOwner",
          "type": "address"
        },
        {
          "indexed": true,
          "internalType": "address",
          "name": "newOwner",
          "type": "address"
        }
      ],
      "name": "OwnershipTransferred",
      "type": "event"
    },
    {
      "anonymous": false,
      "inputs": [
        {
          "indexed": false,
          "internalType": "address",
          "name": "account",
          "type": "address"
        }
      ],
      "name": "Paused",
      "type": "event"
    },
    {
      "anonymous": false,
      "inputs": [
        {
          "indexed": false,
          "internalType": "address",
          "name": "account",
          "type": "address"
        }
      ],
      "name": "Unpaused",
      "type": "event"
    },
    {
      "anonymous": false,
      "inputs": [
        {
          "indexed": false,
          "internalType": "uint256",
          "name": "amount",
          "type": "uint256"
        }
      ],
      "name": "Withdraw",
      "type": "event"
    },
    {
      "inputs": [],
      "name": "busdAddress",
      "outputs": [
        {
          "internalType": "address",
          "name": "",
          "type": "address"
        }
      ],
      "stateMutability": "view",
      "type": "function"
    },
    {
      "inputs": [],
      "name": "buyBackAddress1",
      "outputs": [
        {
          "internalType": "address",
          "name": "",
          "type": "address"
        }
      ],
      "stateMutability": "view",
      "type": "function"
    },
    {
      "inputs": [],
      "name": "buyBackAddress2",
      "outputs": [
        {
          "internalType": "address",
          "name": "",
          "type": "address"
        }
      ],
      "stateMutability": "view",
      "type": "function"
    },
    {
      "inputs": [],
      "name": "buyBackRate1",
      "outputs": [
        {
          "internalType": "uint256",
          "name": "",
          "type": "uint256"
        }
      ],
      "stateMutability": "view",
      "type": "function"
    },
    {
      "inputs": [],
      "name": "buyBackRate2",
      "outputs": [
        {
          "internalType": "uint256",
          "name": "",
          "type": "uint256"
        }
      ],
      "stateMutability": "view",
      "type": "function"
    },
    {
      "inputs": [],
      "name": "buyBackRateMax",
      "outputs": [
        {
          "internalType": "uint256",
          "name": "",
          "type": "uint256"
        }
      ],
      "stateMutability": "view",
      "type": "function"
    },
    {
      "inputs": [],
      "name": "buyBackRateUL",
      "outputs": [
        {
          "internalType": "uint256",
          "name": "",
          "type": "uint256"
        }
      ],
      "stateMutability": "view",
      "type": "function"
    },
    {
      "inputs": [],
      "name": "buyBackToken1",
      "outputs": [
        {
          "internalType": "address",
          "name": "",
          "type": "address"
        }
      ],
      "stateMutability": "view",
      "type": "function"
    },
    {
      "inputs": [],
      "name": "buyBackToken2",
      "outputs": [
        {
          "internalType": "address",
          "name": "",
          "type": "address"
        }
      ],
      "stateMutability": "view",
      "type": "function"
    },
    {
      "inputs": [],
      "name": "controllerFee",
      "outputs": [
        {
          "internalType": "uint256",
          "name": "",
          "type": "uint256"
        }
      ],
      "stateMutability": "view",
      "type": "function"
    },
    {
      "inputs": [],
      "name": "controllerFeeMax",
      "outputs": [
        {
          "internalType": "uint256",
          "name": "",
          "type": "uint256"
        }
      ],
      "stateMutability": "view",
      "type": "function"
    },
    {
      "inputs": [],
      "name": "controllerFeeUL",
      "outputs": [
        {
          "internalType": "uint256",
          "name": "",
          "type": "uint256"
        }
      ],
      "stateMutability": "view",
      "type": "function"
    },
    {
      "inputs": [],
      "name": "convertDustToEarned",
      "outputs": [],
      "stateMutability": "nonpayable",
      "type": "function"
    },
    {
      "inputs": [
        {
          "internalType": "address",
          "name": "",
          "type": "address"
        },
        {
          "internalType": "uint256",
          "name": "_wantAmt",
          "type": "uint256"
        }
      ],
      "name": "deposit",
      "outputs": [
        {
          "internalType": "uint256",
          "name": "",
          "type": "uint256"
        }
      ],
      "stateMutability": "nonpayable",
      "type": "function"
    },
    {
      "inputs": [],
      "name": "earn",
      "outputs": [],
      "stateMutability": "nonpayable",
      "type": "function"
    },
    {
      "inputs": [],
      "name": "earnedAddress",
      "outputs": [
        {
          "internalType": "address",
          "name": "",
          "type": "address"
        }
      ],
      "stateMutability": "view",
      "type": "function"
    },
    {
      "inputs": [],
      "name": "entranceFeeFactor",
      "outputs": [
        {
          "internalType": "uint256",
          "name": "",
          "type": "uint256"
        }
      ],
      "stateMutability": "view",
      "type": "function"
    },
    {
      "inputs": [],
      "name": "entranceFeeFactorLL",
      "outputs": [
        {
          "internalType": "uint256",
          "name": "",
          "type": "uint256"
        }
      ],
      "stateMutability": "view",
      "type": "function"
    },
    {
      "inputs": [],
      "name": "entranceFeeFactorMax",
      "outputs": [
        {
          "internalType": "uint256",
          "name": "",
          "type": "uint256"
        }
      ],
      "stateMutability": "view",
      "type": "function"
    },
    {
      "inputs": [
        {
          "internalType": "address",
          "name": "_inputToken",
          "type": "address"
        },
        {
          "internalType": "address",
          "name": "_outputToken",
          "type": "address"
        },
        {
          "internalType": "uint256",
          "name": "_tokenAmount",
          "type": "uint256"
        }
      ],
      "name": "exchangeRate",
      "outputs": [
        {
          "internalType": "uint256",
          "name": "",
          "type": "uint256"
        }
      ],
      "stateMutability": "view",
      "type": "function"
    },
    {
      "inputs": [
        {
          "internalType": "address",
          "name": "target",
          "type": "address"
        },
        {
          "internalType": "uint256",
          "name": "value",
          "type": "uint256"
        },
        {
          "internalType": "string",
          "name": "signature",
          "type": "string"
        },
        {
          "internalType": "bytes",
          "name": "data",
          "type": "bytes"
        }
      ],
      "name": "executeTransaction",
      "outputs": [
        {
          "internalType": "bytes",
          "name": "",
          "type": "bytes"
        }
      ],
      "stateMutability": "nonpayable",
      "type": "function"
    },
    {
      "inputs": [],
      "name": "farm",
      "outputs": [],
      "stateMutability": "nonpayable",
      "type": "function"
    },
    {
      "inputs": [],
      "name": "farmContractAddress",
      "outputs": [
        {
          "internalType": "address",
          "name": "",
          "type": "address"
        }
      ],
      "stateMutability": "view",
      "type": "function"
    },
    {
      "inputs": [
        {
          "internalType": "address",
          "name": "_token",
          "type": "address"
        },
        {
          "internalType": "uint256",
          "name": "_amount",
          "type": "uint256"
        },
        {
          "internalType": "address",
          "name": "_to",
          "type": "address"
        }
      ],
      "name": "inCaseTokensGetStuck",
      "outputs": [],
      "stateMutability": "nonpayable",
      "type": "function"
    },
    {
      "inputs": [
        {
          "internalType": "address",
          "name": "_account",
          "type": "address"
        }
      ],
      "name": "isAuthorised",
      "outputs": [
        {
          "internalType": "bool",
          "name": "",
          "type": "bool"
        }
      ],
      "stateMutability": "view",
      "type": "function"
    },
    {
      "inputs": [],
      "name": "isAutoComp",
      "outputs": [
        {
          "internalType": "bool",
          "name": "",
          "type": "bool"
        }
      ],
      "stateMutability": "view",
      "type": "function"
    },
    {
      "inputs": [],
      "name": "isCAKEStaking",
      "outputs": [
        {
          "internalType": "bool",
          "name": "",
          "type": "bool"
        }
      ],
      "stateMutability": "view",
      "type": "function"
    },
    {
      "inputs": [],
      "name": "lastEarnBlock",
      "outputs": [
        {
          "internalType": "uint256",
          "name": "",
          "type": "uint256"
        }
      ],
      "stateMutability": "view",
      "type": "function"
    },
    {
      "inputs": [],
      "name": "notPublic",
      "outputs": [
        {
          "internalType": "bool",
          "name": "",
          "type": "bool"
        }
      ],
      "stateMutability": "view",
      "type": "function"
    },
    {
      "inputs": [],
      "name": "operator",
      "outputs": [
        {
          "internalType": "address",
          "name": "",
          "type": "address"
        }
      ],
      "stateMutability": "view",
      "type": "function"
    },
    {
      "inputs": [],
      "name": "owner",
      "outputs": [
        {
          "internalType": "address",
          "name": "",
          "type": "address"
        }
      ],
      "stateMutability": "view",
      "type": "function"
    },
    {
      "inputs": [],
      "name": "pause",
      "outputs": [],
      "stateMutability": "nonpayable",
      "type": "function"
    },
    {
      "inputs": [],
      "name": "paused",
      "outputs": [
        {
          "internalType": "bool",
          "name": "",
          "type": "bool"
        }
      ],
      "stateMutability": "view",
      "type": "function"
    },
    {
      "inputs": [],
      "name": "pendingHarvest",
      "outputs": [
        {
          "internalType": "uint256",
          "name": "",
          "type": "uint256"
        }
      ],
      "stateMutability": "view",
      "type": "function"
    },
    {
      "inputs": [],
      "name": "pendingHarvestDollarValue",
      "outputs": [
        {
          "internalType": "uint256",
          "name": "",
          "type": "uint256"
        }
      ],
      "stateMutability": "view",
      "type": "function"
    },
    {
      "inputs": [],
      "name": "pid",
      "outputs": [
        {
          "internalType": "uint256",
          "name": "",
          "type": "uint256"
        }
      ],
      "stateMutability": "view",
      "type": "function"
    },
    {
      "inputs": [],
      "name": "renounceOwnership",
      "outputs": [],
      "stateMutability": "nonpayable",
      "type": "function"
    },
    {
      "inputs": [
        {
          "internalType": "address",
          "name": "_buyBackAddress1",
          "type": "address"
        }
      ],
      "name": "setBuyBackAddress1",
      "outputs": [],
      "stateMutability": "nonpayable",
      "type": "function"
    },
    {
      "inputs": [
        {
          "internalType": "address",
          "name": "_buyBackAddress2",
          "type": "address"
        }
      ],
      "name": "setBuyBackAddress2",
      "outputs": [],
      "stateMutability": "nonpayable",
      "type": "function"
    },
    {
      "inputs": [
        {
          "internalType": "uint256",
          "name": "_buyBackRate1",
          "type": "uint256"
        }
      ],
      "name": "setBuyBackRate1",
      "outputs": [],
      "stateMutability": "nonpayable",
      "type": "function"
    },
    {
      "inputs": [
        {
          "internalType": "uint256",
          "name": "_buyBackRate2",
          "type": "uint256"
        }
      ],
      "name": "setBuyBackRate2",
      "outputs": [],
      "stateMutability": "nonpayable",
      "type": "function"
    },
    {
      "inputs": [
        {
          "internalType": "uint256",
          "name": "_controllerFee",
          "type": "uint256"
        }
      ],
      "name": "setControllerFee",
      "outputs": [],
      "stateMutability": "nonpayable",
      "type": "function"
    },
    {
      "inputs": [
        {
          "internalType": "uint256",
          "name": "_entranceFeeFactor",
          "type": "uint256"
        }
      ],
      "name": "setEntranceFeeFactor",
      "outputs": [],
      "stateMutability": "nonpayable",
      "type": "function"
    },
    {
      "inputs": [
        {
          "internalType": "address[]",
          "name": "_earnedToBuyBackToken1Path",
          "type": "address[]"
        },
        {
          "internalType": "address[]",
          "name": "_earnedToBuyBackToken2Path",
          "type": "address[]"
        },
        {
          "internalType": "address[]",
          "name": "_earnedToToken0Path",
          "type": "address[]"
        },
        {
          "internalType": "address[]",
          "name": "_earnedToToken1Path",
          "type": "address[]"
        },
        {
          "internalType": "address[]",
          "name": "_earnedToBusdPath",
          "type": "address[]"
        },
        {
          "internalType": "address[]",
          "name": "_token0ToEarnedPath",
          "type": "address[]"
        },
        {
          "internalType": "address[]",
          "name": "_token1ToEarnedPath",
          "type": "address[]"
        }
      ],
      "name": "setMainPaths",
      "outputs": [],
      "stateMutability": "nonpayable",
      "type": "function"
    },
    {
      "inputs": [
        {
          "internalType": "bool",
          "name": "_notPublic",
          "type": "bool"
        }
      ],
      "name": "setNotPublic",
      "outputs": [],
      "stateMutability": "nonpayable",
      "type": "function"
    },
    {
      "inputs": [
        {
          "internalType": "address",
          "name": "_operator",
          "type": "address"
        }
      ],
      "name": "setOperator",
      "outputs": [],
      "stateMutability": "nonpayable",
      "type": "function"
    },
    {
      "inputs": [
        {
          "internalType": "address",
          "name": "_strategist",
          "type": "address"
        }
      ],
      "name": "setStrategist",
      "outputs": [],
      "stateMutability": "nonpayable",
      "type": "function"
    },
    {
      "inputs": [
        {
          "internalType": "address",
          "name": "_timelock",
          "type": "address"
        }
      ],
      "name": "setTimelock",
      "outputs": [],
      "stateMutability": "nonpayable",
      "type": "function"
    },
    {
      "inputs": [
        {
          "internalType": "address",
          "name": "_inputToken",
          "type": "address"
        },
        {
          "internalType": "address",
          "name": "_outputToken",
          "type": "address"
        },
        {
          "internalType": "address[]",
          "name": "_path",
          "type": "address[]"
        }
      ],
      "name": "setVswapPaths",
      "outputs": [],
      "stateMutability": "nonpayable",
      "type": "function"
    },
    {
      "inputs": [],
      "name": "sharesTotal",
      "outputs": [
        {
          "internalType": "uint256",
          "name": "",
          "type": "uint256"
        }
      ],
      "stateMutability": "view",
      "type": "function"
    },
    {
      "inputs": [],
      "name": "strategist",
      "outputs": [
        {
          "internalType": "address",
          "name": "",
          "type": "address"
        }
      ],
      "stateMutability": "view",
      "type": "function"
    },
    {
      "inputs": [],
      "name": "timelock",
      "outputs": [
        {
          "internalType": "address",
          "name": "",
          "type": "address"
        }
      ],
      "stateMutability": "view",
      "type": "function"
    },
    {
      "inputs": [],
      "name": "token0Address",
      "outputs": [
        {
          "internalType": "address",
          "name": "",
          "type": "address"
        }
      ],
      "stateMutability": "view",
      "type": "function"
    },
    {
      "inputs": [],
      "name": "token1Address",
      "outputs": [
        {
          "internalType": "address",
          "name": "",
          "type": "address"
        }
      ],
      "stateMutability": "view",
      "type": "function"
    },
    {
      "inputs": [
        {
          "internalType": "address",
          "name": "newOwner",
          "type": "address"
        }
      ],
      "name": "transferOwnership",
      "outputs": [],
      "stateMutability": "nonpayable",
      "type": "function"
    },
    {
      "inputs": [],
      "name": "unpause",
      "outputs": [],
      "stateMutability": "nonpayable",
      "type": "function"
    },
    {
      "inputs": [],
      "name": "vswapFormula",
      "outputs": [
        {
          "internalType": "address",
          "name": "",
          "type": "address"
        }
      ],
      "stateMutability": "view",
      "type": "function"
    },
    {
      "inputs": [
        {
          "internalType": "address",
          "name": "",
          "type": "address"
        },
        {
          "internalType": "address",
          "name": "",
          "type": "address"
        },
        {
          "internalType": "uint256",
          "name": "",
          "type": "uint256"
        }
      ],
      "name": "vswapPaths",
      "outputs": [
        {
          "internalType": "address",
          "name": "",
          "type": "address"
        }
      ],
      "stateMutability": "view",
      "type": "function"
    },
    {
      "inputs": [],
      "name": "vswapRouterAddress",
      "outputs": [
        {
          "internalType": "address",
          "name": "",
          "type": "address"
        }
      ],
      "stateMutability": "view",
      "type": "function"
    },
    {
      "inputs": [],
      "name": "wantAddress",
      "outputs": [
        {
          "internalType": "address",
          "name": "",
          "type": "address"
        }
      ],
      "stateMutability": "view",
      "type": "function"
    },
    {
      "inputs": [],
      "name": "wantLockedTotal",
      "outputs": [
        {
          "internalType": "uint256",
          "name": "",
          "type": "uint256"
        }
      ],
      "stateMutability": "view",
      "type": "function"
    },
    {
      "inputs": [],
      "name": "wbnbAddress",
      "outputs": [
        {
          "internalType": "address",
          "name": "",
          "type": "address"
        }
      ],
      "stateMutability": "view",
      "type": "function"
    },
    {
      "inputs": [
        {
          "internalType": "address",
          "name": "",
          "type": "address"
        },
        {
          "internalType": "uint256",
          "name": "_wantAmt",
          "type": "uint256"
        }
      ],
      "name": "withdraw",
      "outputs": [
        {
          "internalType": "uint256",
          "name": "",
          "type": "uint256"
        }
      ],
      "stateMutability": "nonpayable",
      "type": "function"
    }
  ],
  "bytecode": "0x6080604052600880546001600160a01b031990811673b7e19a1188776f32e8c2b790d9ca578f2896da7c179091556009805482167345f24baeef268bb6d63aee5129015d69702bcdfa179055600d805460ff60a01b199083167392a082ad5a942140bcc791081f775900d0a514d9171690556000600e819055600f819055601081905560115560be6012556013805482167381859801b01764d4f0fa5e64729f5a6c3b91435b17905560148054821673aaaf5d9923be358ea0b6205ef2a3b929d460ac7a179055606460155560168054821673190b589cf9fb8ddeabbfeae36a813ffb2a70245417905560178054909116735d42dc503763dd1e7a1b510b055150cc5754656b1790556127106018553480156200011b57600080fd5b5060405162004d2138038062004d2183398181016040526101a08110156200014257600080fd5b815160208301516040808501516060860151608087015160a088015160c089015160e08a01516101008b01516101208c01805198519a9c999b979a969995989497939692959194929382019284640100000000821115620001a257600080fd5b908301906020820185811115620001b857600080fd5b8251866020820283011164010000000082111715620001d657600080fd5b82525081516020918201928201910280838360005b8381101562000205578181015183820152602001620001eb565b50505050905001604052602001805160405193929190846401000000008211156200022f57600080fd5b9083019060208201858111156200024557600080fd5b82518660208202830111640100000000821117156200026357600080fd5b82525081516020918201928201910280838360005b838110156200029257818101518382015260200162000278565b50505050919091016040908152602083015192015191935090915060009050620002bb620005c7565b600080546001600160a01b0319166001600160a01b03831690811782556040519293509160008051602062004d01833981519152908290a350600180819055506000600260006101000a81548160ff02191690831515021790555033600b60006101000a8154816001600160a01b0302191690836001600160a01b0316021790555033600c60006101000a8154816001600160a01b0302191690836001600160a01b031602179055508b600260016101000a81548160ff0219169083151502179055508a6002806101000a81548160ff02191690831515021790555087600460006101000a8154816001600160a01b0302191690836001600160a01b0316021790555060006001600160a01b0316866001600160a01b031614620003f557600880546001600160a01b0319166001600160a01b0388161790555b6001600160a01b038516156200042157600980546001600160a01b0319166001600160a01b0387161790555b836000815181106200042f57fe5b6020026020010151601360006101000a8154816001600160a01b0302191690836001600160a01b03160217905550836001815181106200046b57fe5b6020026020010151601460006101000a8154816001600160a01b0302191690836001600160a01b0316021790555082600081518110620004a757fe5b6020026020010151601660006101000a8154816001600160a01b0302191690836001600160a01b0316021790555082600181518110620004e357fe5b6020908102919091010151601780546001600160a01b0319166001600160a01b0390921691909117905560025462010000900460ff1615620005a957600254610100900460ff166200056057600580546001600160a01b038085166001600160a01b03199283161790925560068054928416929091169190911790555b600280546301000000600160b81b03191663010000006001600160a01b038d8116919091029190911790915560038a9055600780546001600160a01b0319169189169190911790555b620005b48d620005cb565b50505050505050505050505050620006c9565b3390565b620005d5620005c7565b6000546001600160a01b0390811691161462000638576040805162461bcd60e51b815260206004820181905260248201527f4f776e61626c653a2063616c6c6572206973206e6f7420746865206f776e6572604482015290519081900360640190fd5b6001600160a01b0381166200067f5760405162461bcd60e51b815260040180806020018281038252602681526020018062004cdb6026913960400191505060405180910390fd5b600080546040516001600160a01b038085169392169160008051602062004d0183398151915291a3600080546001600160a01b0319166001600160a01b0392909216919091179055565b61460280620006d96000396000f3fe608060405234801561001057600080fd5b50600436106103c55760003560e01c8063889adfa8116101ff578063d33219b41161011a578063e5dd455a116100ad578063f10684541161007c578063f106845414610da4578063f2fde38b14610dac578063f3fef3a314610dd2578063f400d31114610dfe576103c5565b8063e5dd455a14610d8c578063e719847414610d94578063e7a0367914610d9c578063ee50dc3414610994576103c5565b8063db7a3c0f116100e9578063db7a3c0f14610d6c578063dd4bbd7514610d74578063df5c8a9e14610d7c578063dfee1dd914610d84576103c5565b8063d33219b414610d4c578063d389800f14610d54578063d7cb416f14610d5c578063d8be16da14610d64576103c5565b8063bca8885011610192578063c302a4d011610161578063c302a4d014610cf0578063c3ec8dda14610cf8578063c7b9d53014610d1e578063ce5328e414610d44576103c5565b8063bca8885014610be9578063bdacb30314610ca5578063bf94c0ba14610ccb578063c11c2e9214610ce8576103c5565b8063a5528632116101ce578063a552863214610b78578063b3545c0114610b9e578063b3ab15fb14610ba6578063bb9928c614610bcc576103c5565b8063889adfa814610b2a5780638da5cb5b14610b325780639e69232914610b3a5780639fc33a9f14610b70576103c5565b806347e7ef24116102ef57806367206d40116102825780637ff36fbe116102515780637ff36fbe14610b0a5780638456cb5914610b12578063846d9e1714610b1a57806385f02dd614610b22576103c5565b806367206d4014610a8e578063701f660414610ac4578063715018a614610afa57806376a9023114610b02576103c5565b8063570ca735116102be578063570ca73514610a6e5780635c975abb14610a76578063607f35a014610a7e57806363fe3e3a14610a86576103c5565b806347e7ef2414610a005780634a56fcd414610a2c5780634d9f7bb21461099457806351b699cd14610a34576103c5565b80632717eff3116103675780633f4ba83a116103365780633f4ba83a146109c957806342da4eb3146109d157806344a3955e146109d957806345d6b667146109e1576103c5565b80632717eff31461099457806327e6dcbb1461099c57806336e9332d146109a45780633e1a8912146109ac576103c5565b8063197c760b116103a3578063197c760b146103f45780631a43da93146107b15780631fe4a686146107d55780632224fa25146107dd576103c5565b8063061c7d48146103ca5780630fa4e01e146103e45780631334903f146103ec575b600080fd5b6103d2610e1b565b60408051918252519081900360200190f35b6103d2610e21565b6103d2610e27565b6107af600480360360e081101561040a57600080fd5b81019060208101813564010000000081111561042557600080fd5b82018360208201111561043757600080fd5b8035906020019184602083028401116401000000008311171561045957600080fd5b91908080602002602001604051908101604052809392919081815260200183836020028082843760009201919091525092959493602081019350359150506401000000008111156104a957600080fd5b8201836020820111156104bb57600080fd5b803590602001918460208302840111640100000000831117156104dd57600080fd5b919080806020026020016040519081016040528093929190818152602001838360200280828437600092019190915250929594936020810193503591505064010000000081111561052d57600080fd5b82018360208201111561053f57600080fd5b8035906020019184602083028401116401000000008311171561056157600080fd5b91908080602002602001604051908101604052809392919081815260200183836020028082843760009201919091525092959493602081019350359150506401000000008111156105b157600080fd5b8201836020820111156105c357600080fd5b803590602001918460208302840111640100000000831117156105e557600080fd5b919080806020026020016040519081016040528093929190818152602001838360200280828437600092019190915250929594936020810193503591505064010000000081111561063557600080fd5b82018360208201111561064757600080fd5b8035906020019184602083028401116401000000008311171561066957600080fd5b91908080602002602001604051908101604052809392919081815260200183836020028082843760009201919091525092959493602081019350359150506401000000008111156106b957600080fd5b8201836020820111156106cb57600080fd5b803590602001918460208302840111640100000000831117156106ed57600080fd5b919080806020026020016040519081016040528093929190818152602001838360200280828437600092019190915250929594936020810193503591505064010000000081111561073d57600080fd5b82018360208201111561074f57600080fd5b8035906020019184602083028401116401000000008311171561077157600080fd5b919080806020026020016040519081016040528093929190818152602001838360200280828437600092019190915250929550610e2d945050505050565b005b6107b961102f565b604080516001600160a01b039092168252519081900360200190f35b6107b961103e565b61091f600480360360808110156107f357600080fd5b6001600160a01b038235169160208101359181019060608101604082013564010000000081111561082357600080fd5b82018360208201111561083557600080fd5b8035906020019184600183028401116401000000008311171561085757600080fd5b91908080601f01602080910402602001604051908101604052809392919081815260200183838082843760009201919091525092959493602081019350359150506401000000008111156108aa57600080fd5b8201836020820111156108bc57600080fd5b803590602001918460018302840111640100000000831117156108de57600080fd5b91908080601f01602080910402602001604051908101604052809392919081815260200183838082843760009201919091525092955061104d945050505050565b6040805160208082528351818301528351919283929083019185019080838360005b83811015610959578181015183820152602001610941565b50505050905090810190601f1680156109865780820380516001836020036101000a031916815260200191505b509250505060405180910390f35b6103d261134a565b6107b9611350565b6107af61135f565b6107af600480360360208110156109c257600080fd5b50356113ca565b6107af6114af565b6103d2611502565b6103d2611508565b6107af600480360360208110156109f757600080fd5b5035151561150e565b6103d260048036036040811015610a1657600080fd5b506001600160a01b0381351690602001356115a1565b6107b9611738565b610a5a60048036036020811015610a4a57600080fd5b50356001600160a01b0316611747565b604080519115158252519081900360200190f35b6107b961178d565b610a5a61179c565b6107b96117a5565b6107b96117b4565b6107af60048036036060811015610aa457600080fd5b506001600160a01b038135811691602081013591604090910135166117cc565b6103d260048036036060811015610ada57600080fd5b506001600160a01b03813581169160208101359091169060400135611940565b6107af611b18565b6107b9611be4565b6107b9611bfc565b6107af611c0b565b610a5a611c5c565b6103d2611c6a565b6103d2611c70565b6107b9611cbc565b6107b960048036036060811015610b5057600080fd5b506001600160a01b03813581169160208101359091169060400135611ccb565b6107b9611d0d565b6107af60048036036020811015610b8e57600080fd5b50356001600160a01b0316611d23565b6103d2611e03565b6107af60048036036020811015610bbc57600080fd5b50356001600160a01b0316611e09565b6107af60048036036020811015610be257600080fd5b5035611e8c565b6107af60048036036060811015610bff57600080fd5b6001600160a01b038235811692602081013590911691810190606081016040820135640100000000811115610c3357600080fd5b820183602082011115610c4557600080fd5b80359060200191846020830284011164010000000083111715610c6757600080fd5b919080806020026020016040519081016040528093929190818152602001838360200280828437600092019190915250929550611f33945050505050565b6107af60048036036020811015610cbb57600080fd5b50356001600160a01b0316611fb7565b6107af60048036036020811015610ce157600080fd5b503561203a565b6107af6120e1565b6103d2612371565b6107af60048036036020811015610d0e57600080fd5b50356001600160a01b0316612377565b6107af60048036036020811015610d3457600080fd5b50356001600160a01b0316612459565b6107b96124dc565b6107b96124eb565b6107af6124fa565b6107b9612a87565b610a5a612a96565b6103d2612ab7565b6107b9612be0565b6103d2612bef565b6103d2612bf5565b610a5a612bfb565b6107b9612c0a565b6107b9612c19565b6103d2612c28565b6107af60048036036020811015610dc257600080fd5b50356001600160a01b0316612c2e565b6103d260048036036040811015610de857600080fd5b506001600160a01b038135169060200135612d50565b6107af60048036036020811015610e1457600080fd5b50356130bf565b61012c81565b600e5481565b60185481565b600b546001600160a01b03163314610e765760405162461bcd60e51b815260040180806020018281038252602b815260200180614530602b913960400191505060405180910390fd5b6007546001600160a01b039081166000908152600a6020908152604080832060135490941683529281529190208851610eb1928a01906143f0565b506007546001600160a01b039081166000908152600a6020908152604080832060165490941683529281529190208751610eed928901906143f0565b506007546001600160a01b039081166000908152600a6020908152604080832060055490941683529281529190208651610f29928801906143f0565b506007546001600160a01b039081166000908152600a6020908152604080832060065490941683529281529190208551610f65928701906143f0565b506007546001600160a01b03166000908152600a6020908152604080832073e9e7cea3dedca5984780bafc599bd69add087d56845282529091208451610fad928601906143f0565b506005546001600160a01b039081166000908152600a6020908152604080832060075490941683529281529190208351610fe9928501906143f0565b506006546001600160a01b039081166000908152600a6020908152604080832060075490941683529281529190208251611025928401906143f0565b5050505050505050565b6014546001600160a01b031681565b600c546001600160a01b031681565b600d546060906001600160a01b031633146110995760405162461bcd60e51b815260040180806020018281038252602781526020018061457c6027913960400191505060405180910390fd5b60608351600014156110ac575081611144565b83805190602001208360405160200180837bffffffffffffffffffffffffffffffffffffffffffffffffffffffff1916815260040182805190602001908083835b6020831061110c5780518252601f1990920191602091820191016110ed565b6001836020036101000a0380198251168184511680821785525050505050509050019250505060405160208183030381529060405290505b60006060876001600160a01b031687846040518082805190602001908083835b602083106111835780518252601f199092019160209182019101611164565b6001836020036101000a03801982511681845116808217855250505050505090500191505060006040518083038185875af1925050503d80600081146111e5576040519150601f19603f3d011682016040523d82523d6000602084013e6111ea565b606091505b50915091508161122b5760405162461bcd60e51b81526004018080602001828103825260448152602001806144a56044913960600191505060405180910390fd5b876001600160a01b03167f88405ca50016c636e025868e263efe5a9f63bf11cc45404f7616394c7dc389d0888888604051808481526020018060200180602001838103835285818151815260200191508051906020019080838360005b838110156112a0578181015183820152602001611288565b50505050905090810190601f1680156112cd5780820380516001836020036101000a031916815260200191505b50838103825284518152845160209182019186019080838360005b838110156113005781810151838201526020016112e8565b50505050905090810190601f16801561132d5780820380516001836020036101000a031916815260200191505b509550505050505060405180910390a2925050505b949350505050565b61271081565b6009546001600160a01b031681565b600260015414156113b7576040805162461bcd60e51b815260206004820152601f60248201527f5265656e7472616e637947756172643a207265656e7472616e742063616c6c00604482015290519081900360640190fd5b60026001556113c4613164565b60018055565b600b546001600160a01b031633146114135760405162461bcd60e51b815260040180806020018281038252602b815260200180614530602b913960400191505060405180910390fd5b6126de8111611469576040805162461bcd60e51b815260206004820181905260248201527f427661756c747353747261746567793a202173616665202d20746f6f206c6f77604482015290519081900360640190fd5b6127108111156114aa5760405162461bcd60e51b81526004018080602001828103825260218152602001806144e96021913960400191505060405180910390fd5b601855565b600b546001600160a01b031633146114f85760405162461bcd60e51b815260040180806020018281038252602b815260200180614530602b913960400191505060405180910390fd5b611500613358565b565b600f5481565b60105481565b600b546001600160a01b031633146115575760405162461bcd60e51b815260040180806020018281038252602b815260200180614530602b913960400191505060405180910390fd5b600d805491151574010000000000000000000000000000000000000000027fffffffffffffffffffffff00ffffffffffffffffffffffffffffffffffffffff909216919091179055565b60006115ab61341d565b6000546001600160a01b0390811691161461160d576040805162461bcd60e51b815260206004820181905260248201527f4f776e61626c653a2063616c6c6572206973206e6f7420746865206f776e6572604482015290519081900360640190fd5b60025460ff1615611665576040805162461bcd60e51b815260206004820152601060248201527f5061757361626c653a2070617573656400000000000000000000000000000000604482015290519081900360640190fd5b60045461167d906001600160a01b0316333085613421565b600f548290156116bd576116ba6127106116b4600f546116b46018546116ae6010548a6134a990919063ffffffff16565b906134a9565b90613509565b90505b6010546116ca908261354b565b60105560025462010000900460ff16156116eb576116e6613164565b6116fc565b600f546116f8908461354b565b600f555b6040805184815290517f4d6ce1e535dbade1c23defba91e23b8f791ce5edc0cc320257a2b364e4e384269181900360200190a190505b92915050565b6017546001600160a01b031681565b600b546000906001600160a01b03838116911614806117705750600c546001600160a01b031633145b806117855750600d546001600160a01b031633145b90505b919050565b600b546001600160a01b031681565b60025460ff1690565b6016546001600160a01b031681565b73bb4cdb9cbd36b01bd1cbaebf2de08d9173bc095c81565b600b546001600160a01b031633146118155760405162461bcd60e51b815260040180806020018281038252602b815260200180614530602b913960400191505060405180910390fd5b6007546001600160a01b0384811691161415611878576040805162461bcd60e51b815260206004820152600660248201527f6561726e65640000000000000000000000000000000000000000000000000000604482015290519081900360640190fd5b6004546001600160a01b03848116911614156118dd576040805162461bcd60e51b8152602060048083019190915260248201527f77616e7400000000000000000000000000000000000000000000000000000000604482015290519081900360640190fd5b6118f16001600160a01b03841682846135a5565b604080516001600160a01b0380861682526020820185905283168183015290517f22f92dfb4f608ea5db1e9bb08c0b4f5518af93b1259d335fe05900056096ab2c9181900360600190a1505050565b6009546001600160a01b038481166000818152600a60209081526040808320888616808552925280832090517f8fabd82d0000000000000000000000000000000000000000000000000000000081526004810194855260248101929092526044820187905260806064830190815281546084840181905293966060961694638fabd82d948b948b948b94909392909160a4019084908015611a0a57602002820191906000526020600020905b81546001600160a01b031681526001909101906020018083116119ec575b50509550505050505060006040518083038186803b158015611a2b57600080fd5b505afa158015611a3f573d6000803e3d6000fd5b505050506040513d6000823e601f3d908101601f191682016040526020811015611a6857600080fd5b8101908080516040519392919084640100000000821115611a8857600080fd5b908301906020820185811115611a9d57600080fd5b8251866020820283011164010000000082111715611aba57600080fd5b82525081516020918201928201910280838360005b83811015611ae7578181015183820152602001611acf565b50505050905001604052505050905080600182510381518110611b0657fe5b60200260200101519150509392505050565b611b2061341d565b6000546001600160a01b03908116911614611b82576040805162461bcd60e51b815260206004820181905260248201527f4f776e61626c653a2063616c6c6572206973206e6f7420746865206f776e6572604482015290519081900360640190fd5b600080546040516001600160a01b03909116907f8be0079c531659141344cd1fd0a4f28419497f9722a3daafe3b4186f6b6457e0908390a3600080547fffffffffffffffffffffffff0000000000000000000000000000000000000000169055565b73e9e7cea3dedca5984780bafc599bd69add087d5681565b6005546001600160a01b031681565b600b546001600160a01b03163314611c545760405162461bcd60e51b815260040180806020018281038252602b815260200180614530602b913960400191505060405180910390fd5b61150061362a565b600254610100900460ff1681565b60115481565b600080611c7b612ab7565b90508015611cb357600754611cae906001600160a01b031673e9e7cea3dedca5984780bafc599bd69add087d5683611940565b611cb6565b60005b91505090565b6000546001600160a01b031690565b600a6020528260005260406000206020528160005260406000208181548110611cf057fe5b6000918252602090912001546001600160a01b0316925083915050565b600254630100000090046001600160a01b031681565b600b546001600160a01b03163314611d6c5760405162461bcd60e51b815260040180806020018281038252602b815260200180614530602b913960400191505060405180910390fd5b6001600160a01b038116611dc9576040805162461bcd60e51b8152602060048083019190915260248201527f7a65726f00000000000000000000000000000000000000000000000000000000604482015290519081900360640190fd5b601780547fffffffffffffffffffffffff0000000000000000000000000000000000000000166001600160a01b0392909216919091179055565b61032081565b600b546001600160a01b03163314611e525760405162461bcd60e51b815260040180806020018281038252602b815260200180614530602b913960400191505060405180910390fd5b600b80547fffffffffffffffffffffffff0000000000000000000000000000000000000000166001600160a01b0392909216919091179055565b600b546001600160a01b03163314611ed55760405162461bcd60e51b815260040180806020018281038252602b815260200180614530602b913960400191505060405180910390fd5b6103206015541115611f2e576040805162461bcd60e51b815260206004820152601960248201527f427661756c747353747261746567793a20746f6f206869676800000000000000604482015290519081900360640190fd5b601555565b600b546001600160a01b03163314611f7c5760405162461bcd60e51b815260040180806020018281038252602b815260200180614530602b913960400191505060405180910390fd5b6001600160a01b038084166000908152600a6020908152604080832093861683529281529190208251611fb1928401906143f0565b50505050565b600d546001600160a01b031633146120005760405162461bcd60e51b815260040180806020018281038252602781526020018061457c6027913960400191505060405180910390fd5b600d80547fffffffffffffffffffffffff0000000000000000000000000000000000000000166001600160a01b0392909216919091179055565b600b546001600160a01b031633146120835760405162461bcd60e51b815260040180806020018281038252602b815260200180614530602b913960400191505060405180910390fd5b61032060125411156120dc576040805162461bcd60e51b815260206004820152601960248201527f427661756c747353747261746567793a20746f6f206869676800000000000000604482015290519081900360640190fd5b601255565b60025460ff1615612139576040805162461bcd60e51b815260206004820152601060248201527f5061757361626c653a2070617573656400000000000000000000000000000000604482015290519081900360640190fd5b60025462010000900460ff16612196576040805162461bcd60e51b815260206004820152600b60248201527f2169734175746f436f6d70000000000000000000000000000000000000000000604482015290519081900360640190fd5b600254610100900460ff16156121f3576040805162461bcd60e51b815260206004820152600d60248201527f697343414b455374616b696e6700000000000000000000000000000000000000604482015290519081900360640190fd5b600554604080516370a0823160e01b815230600482015290516000926001600160a01b0316916370a08231916024808301926020929190829003018186803b15801561223e57600080fd5b505afa158015612252573d6000803e3d6000fd5b505050506040513d602081101561226857600080fd5b50516007546005549192506001600160a01b0391821691161480159061228e5750600081115b156122b0576005546007546122b0916001600160a01b039081169116836136d6565b600654604080516370a0823160e01b815230600482015290516000926001600160a01b0316916370a08231916024808301926020929190829003018186803b1580156122fb57600080fd5b505afa15801561230f573d6000803e3d6000fd5b505050506040513d602081101561232557600080fd5b50516007546006549192506001600160a01b0391821691161480159061234b5750600081115b1561236d5760065460075461236d916001600160a01b039081169116836136d6565b5050565b6126de81565b600b546001600160a01b031633146123c05760405162461bcd60e51b815260040180806020018281038252602b815260200180614530602b913960400191505060405180910390fd5b6014546001600160a01b031661241f576040805162461bcd60e51b8152602060048083019190915260248201527f7a65726f00000000000000000000000000000000000000000000000000000000604482015290519081900360640190fd5b601480547fffffffffffffffffffffffff0000000000000000000000000000000000000000166001600160a01b0392909216919091179055565b600b546001600160a01b031633146124a25760405162461bcd60e51b815260040180806020018281038252602b815260200180614530602b913960400191505060405180910390fd5b600c80547fffffffffffffffffffffffff0000000000000000000000000000000000000000166001600160a01b0392909216919091179055565b6013546001600160a01b031681565b600d546001600160a01b031681565b60025460ff1615612552576040805162461bcd60e51b815260206004820152601060248201527f5061757361626c653a2070617573656400000000000000000000000000000000604482015290519081900360640190fd5b60025462010000900460ff166125af576040805162461bcd60e51b815260206004820152601c60248201527f427661756c747353747261746567793a202169734175746f436f6d7000000000604482015290519081900360640190fd5b600d5474010000000000000000000000000000000000000000900460ff1615806125dd57506125dd33611747565b61262e576040805162461bcd60e51b815260206004820152601c60248201527f427661756c747353747261746567793a2021617574686f726973656400000000604482015290519081900360640190fd5b600254610100900460ff16156126b757600260039054906101000a90046001600160a01b03166001600160a01b0316631058d28160006040518263ffffffff1660e01b815260040180828152602001915050600060405180830381600087803b15801561269a57600080fd5b505af11580156126ae573d6000803e3d6000fd5b50505050612736565b600260039054906101000a90046001600160a01b03166001600160a01b031663e2bbb15860035460006040518363ffffffff1660e01b81526004018083815260200182815260200192505050600060405180830381600087803b15801561271d57600080fd5b505af1158015612731573d6000803e3d6000fd5b505050505b600754604080516370a0823160e01b815230600482015290516000926001600160a01b0316916370a08231916024808301926020929190829003018186803b15801561278157600080fd5b505afa158015612795573d6000803e3d6000fd5b505050506040513d60208110156127ab57600080fd5b5051600754604080516001600160a01b0390921682526020820183905280519293507f053fa1fc52294a40b4ff1a988765bd298c00caa24d685cc3f767dcfde254ef9a92918290030190a16000612801826138ca565b9050600061280e8361396c565b9050600061281b84613bb4565b90506128338161282d84818888613e80565b90613e80565b600254909450610100900460ff161561285b5743600e55612852613164565b50505050611500565b600854600754612878916001600160a01b03918216911686613ec2565b6005546007546001600160a01b039081169116146128b7576007546005546128b7916001600160a01b0390811691166128b2876002613509565b6136d6565b6006546007546001600160a01b039081169116146128f1576007546006546128f1916001600160a01b0390811691166128b2876002613509565b600554604080516370a0823160e01b815230600482015290516000926001600160a01b0316916370a08231916024808301926020929190829003018186803b15801561293c57600080fd5b505afa158015612950573d6000803e3d6000fd5b505050506040513d602081101561296657600080fd5b5051600654604080516370a0823160e01b815230600482015290519293506000926001600160a01b03909216916370a0823191602480820192602092909190829003018186803b1580156129b957600080fd5b505afa1580156129cd573d6000803e3d6000fd5b505050506040513d60208110156129e357600080fd5b5051905081158015906129f65750600081115b15612a7357600554600654612a19916001600160a01b0390811691168484613fa9565b600554600654604080516001600160a01b0393841681526020810186905291909216818301526060810183905290517f44552da03f807ace3e5f27e98e694712dfe668c743514b28d4d9f5ab70574b0f9181900360800190a15b43600e55612a7f613164565b505050505050565b6006546001600160a01b031681565b600d5474010000000000000000000000000000000000000000900460ff1681565b600754604080516370a0823160e01b8152306004820152905160009283926001600160a01b03909116916370a0823191602480820192602092909190829003018186803b158015612b0757600080fd5b505afa158015612b1b573d6000803e3d6000fd5b505050506040513d6020811015612b3157600080fd5b5051600254600354604080517f98969e82000000000000000000000000000000000000000000000000000000008152600481019290925230602483015251929350611cb6928492630100000090046001600160a01b0316916398969e82916044808301926020929190829003018186803b158015612bae57600080fd5b505afa158015612bc2573d6000803e3d6000fd5b505050506040513d6020811015612bd857600080fd5b50519061354b565b6008546001600160a01b031681565b60125481565b60155481565b60025462010000900460ff1681565b6007546001600160a01b031681565b6004546001600160a01b031681565b60035481565b612c3661341d565b6000546001600160a01b03908116911614612c98576040805162461bcd60e51b815260206004820181905260248201527f4f776e61626c653a2063616c6c6572206973206e6f7420746865206f776e6572604482015290519081900360640190fd5b6001600160a01b038116612cdd5760405162461bcd60e51b815260040180806020018281038252602681526020018061450a6026913960400191505060405180910390fd5b600080546040516001600160a01b03808516939216917f8be0079c531659141344cd1fd0a4f28419497f9722a3daafe3b4186f6b6457e091a3600080547fffffffffffffffffffffffff0000000000000000000000000000000000000000166001600160a01b0392909216919091179055565b6000612d5a61341d565b6000546001600160a01b03908116911614612dbc576040805162461bcd60e51b815260206004820181905260248201527f4f776e61626c653a2063616c6c6572206973206e6f7420746865206f776e6572604482015290519081900360640190fd5b60026001541415612e14576040805162461bcd60e51b815260206004820152601f60248201527f5265656e7472616e637947756172643a207265656e7472616e742063616c6c00604482015290519081900360640190fd5b600260015581612e6b576040805162461bcd60e51b815260206004820152601a60248201527f427661756c747353747261746567793a20215f77616e74416d74000000000000604482015290519081900360640190fd5b60025462010000900460ff1615612f8257600254610100900460ff1615612f0457600260039054906101000a90046001600160a01b03166001600160a01b0316631058d281836040518263ffffffff1660e01b815260040180828152602001915050600060405180830381600087803b158015612ee757600080fd5b505af1158015612efb573d6000803e3d6000fd5b50505050612f82565b600260039054906101000a90046001600160a01b03166001600160a01b031663441a3e70600354846040518363ffffffff1660e01b81526004018083815260200182815260200192505050600060405180830381600087803b158015612f6957600080fd5b505af1158015612f7d573d6000803e3d6000fd5b505050505b60048054604080516370a0823160e01b81523093810193909352516000926001600160a01b03909216916370a08231916024808301926020929190829003018186803b158015612fd157600080fd5b505afa158015612fe5573d6000803e3d6000fd5b505050506040513d6020811015612ffb57600080fd5b505190508083111561300b578092505b82600f54101561301b57600f5492505b6000613038600f546116b4601054876134a990919063ffffffff16565b905060105481111561304957506010545b6010546130569082613e80565b601055600f546130669085613e80565b600f55600454613080906001600160a01b031633866135a5565b6040805185815290517f5b6b431d4476a211bb7d41c20d1aab9ae2321deee0d20be3d9fc9b1093fa6e3d9181900360200190a160018055949350505050565b600b546001600160a01b031633146131085760405162461bcd60e51b815260040180806020018281038252602b815260200180614530602b913960400191505060405180910390fd5b61012c81111561315f576040805162461bcd60e51b815260206004820152601960248201527f427661756c747353747261746567793a20746f6f206869676800000000000000604482015290519081900360640190fd5b601155565b60048054604080516370a0823160e01b81523093810193909352516000926001600160a01b03909216916370a08231916024808301926020929190829003018186803b1580156131b357600080fd5b505afa1580156131c7573d6000803e3d6000fd5b505050506040513d60208110156131dd57600080fd5b5051600f549091506131ef908261354b565b600f55600254600454613217916001600160a01b039182169163010000009091041683613ec2565b600254610100900460ff16156132a457600260039054906101000a90046001600160a01b03166001600160a01b03166341441d3b826040518263ffffffff1660e01b815260040180828152602001915050600060405180830381600087803b15801561328257600080fd5b505af1158015613296573d6000803e3d6000fd5b505043600e55506133229050565b600260039054906101000a90046001600160a01b03166001600160a01b031663e2bbb158600354836040518363ffffffff1660e01b81526004018083815260200182815260200192505050600060405180830381600087803b15801561330957600080fd5b505af115801561331d573d6000803e3d6000fd5b505050505b6040805182815290517fc217459869eed80bfbe5c11e78ab58912eedfd106342671821b6e96d1615dc7f9181900360200190a150565b60025460ff166133af576040805162461bcd60e51b815260206004820152601460248201527f5061757361626c653a206e6f7420706175736564000000000000000000000000604482015290519081900360640190fd5b600280547fffffffffffffffffffffffffffffffffffffffffffffffffffffffffffffff001690557f5db9ee0a495bf2e6ff9c91a7834c1ba4fdd244a5e8aa4e537bd38aeae4b073aa61340061341d565b604080516001600160a01b039092168252519081900360200190a1565b3390565b604080516001600160a01b0380861660248301528416604482015260648082018490528251808303909101815260849091019091526020810180517bffffffffffffffffffffffffffffffffffffffffffffffffffffffff167f23b872dd00000000000000000000000000000000000000000000000000000000179052611fb19085906140c6565b6000826134b857506000611732565b828202828482816134c557fe5b04146135025760405162461bcd60e51b815260040180806020018281038252602181526020018061455b6021913960400191505060405180910390fd5b9392505050565b600061350283836040518060400160405280601a81526020017f536166654d6174683a206469766973696f6e206279207a65726f000000000000815250614177565b600082820183811015613502576040805162461bcd60e51b815260206004820152601b60248201527f536166654d6174683a206164646974696f6e206f766572666c6f770000000000604482015290519081900360640190fd5b604080516001600160a01b038416602482015260448082018490528251808303909101815260649091019091526020810180517bffffffffffffffffffffffffffffffffffffffffffffffffffffffff167fa9059cbb000000000000000000000000000000000000000000000000000000001790526136259084906140c6565b505050565b60025460ff1615613682576040805162461bcd60e51b815260206004820152601060248201527f5061757361626c653a2070617573656400000000000000000000000000000000604482015290519081900360640190fd5b600280547fffffffffffffffffffffffffffffffffffffffffffffffffffffffffffffff001660011790557f62e78cea01bee320cd4e420270b5ea74000d11b0c9f74754ebdbfc544b05a25861340061341d565b6008546136f0906001600160a01b03858116911683613ec2565b6008546001600160a01b038481166000908152600a602090815260408083208785168452909152902091169063bff51d7190859085908590600190306137384261070861354b565b6040518863ffffffff1660e01b815260040180886001600160a01b03168152602001876001600160a01b0316815260200186815260200185815260200180602001846001600160a01b0316815260200183815260200182810382528581815481526020019150805480156137d557602002820191906000526020600020905b81546001600160a01b031681526001909101906020018083116137b7575b505098505050505050505050600060405180830381600087803b1580156137fb57600080fd5b505af115801561380f573d6000803e3d6000fd5b505050506040513d6000823e601f3d908101601f19168201604052602081101561383857600080fd5b810190808051604051939291908464010000000082111561385857600080fd5b90830190602082018581111561386d57600080fd5b825186602082028301116401000000008211171561388a57600080fd5b82525081516020918201928201910280838360005b838110156138b757818101518382015260200161389f565b5050505090500160405250505050505050565b600081156117885760115415611788576138f56127106116b4601154856134a990919063ffffffff16565b600b54600754919250613915916001600160a01b039081169116836135a5565b600754600b54604080516001600160a01b03938416815260208101859052919092168183015290517f056e5430e11cfdfb90a183ec3bf63ed22abe70cdf4e7bd3018d8b459bbd7f6199181900360600190a1919050565b601254600090158061398757506014546001600160a01b0316155b1561399457506000611788565b60006139b16127106116b4601254866134a990919063ffffffff16565b6007546001600160a01b039081166000908152600a6020908152604080832060135485168085529083528184205460145483516370a0823160e01b81529616600487015291519596509094929390926370a0823192602480840193919291829003018186803b158015613a2357600080fd5b505afa158015613a37573d6000803e3d6000fd5b505050506040513d6020811015613a4d57600080fd5b505190508115801590613a7157506013546007546001600160a01b03908116911614155b15613a9857600754601354613a93916001600160a01b039081169116856136d6565b613ab5565b601454600754613ab5916001600160a01b039182169116856135a5565b601354601454604080516370a0823160e01b81526001600160a01b039283166004820152905160009392909216916370a0823191602480820192602092909190829003018186803b158015613b0957600080fd5b505afa158015613b1d573d6000803e3d6000fd5b505050506040513d6020811015613b3357600080fd5b505190506000613b438284613e80565b600754601354601454604080516001600160a01b03948516815292841660208401528281018a9052606083018590529216608082015290519192507fb152a9c4203a9515a80fadb5b18afb6bfce5350eccdfda9d0908ac37ec094222919081900360a00190a1509295945050505050565b6015546000901580613bcf57506017546001600160a01b0316155b15613bdc57506000611788565b6000613bf96127106116b4601554866134a990919063ffffffff16565b6007546001600160a01b039081166000908152600a6020908152604080832060165485168085529083528184205460175483516370a0823160e01b81529616600487015291519596509094929390926370a0823192602480840193919291829003018186803b158015613c6b57600080fd5b505afa158015613c7f573d6000803e3d6000fd5b505050506040513d6020811015613c9557600080fd5b505190508115801590613cb957506016546007546001600160a01b03908116911614155b15613ce057600754601654613cdb916001600160a01b039081169116856136d6565b613cfd565b601754600754613cfd916001600160a01b039182169116856135a5565b601654601754604080516370a0823160e01b81526001600160a01b039283166004820152905160009392909216916370a0823191602480820192602092909190829003018186803b158015613d5157600080fd5b505afa158015613d65573d6000803e3d6000fd5b505050506040513d6020811015613d7b57600080fd5b505190506000613d8b8284613e80565b90508015613e7557601754604080517f50afa34b0000000000000000000000000000000000000000000000000000000081526004810184905290516001600160a01b03909216916350afa34b9160248082019260009290919082900301818387803b158015613df957600080fd5b505af1158015613e0d573d6000803e3d6000fd5b5050600754601654601754604080516001600160a01b03948516815292841660208401528281018b9052606083018790529216608082015290517fb152a9c4203a9515a80fadb5b18afb6bfce5350eccdfda9d0908ac37ec09422293509081900360a0019150a15b509295945050505050565b600061350283836040518060400160405280601e81526020017f536166654d6174683a207375627472616374696f6e206f766572666c6f770000815250614219565b6000613f2682856001600160a01b031663dd62ed3e30876040518363ffffffff1660e01b815260040180836001600160a01b03168152602001826001600160a01b031681526020019250505060206040518083038186803b158015612bae57600080fd5b604080516001600160a01b038616602482015260448082018490528251808303909101815260649091019091526020810180517bffffffffffffffffffffffffffffffffffffffffffffffffffffffff167f095ea7b300000000000000000000000000000000000000000000000000000000179052909150611fb19085906140c6565b600854613fc3906001600160a01b03868116911684613ec2565b600854613fdd906001600160a01b03858116911683613ec2565b6008546004546001600160a01b039182169163fbf451359116868686866000803061400a4261070861354b565b6040518a63ffffffff1660e01b8152600401808a6001600160a01b03168152602001896001600160a01b03168152602001886001600160a01b03168152602001878152602001868152602001858152602001848152602001836001600160a01b031681526020018281526020019950505050505050505050606060405180830381600087803b15801561409c57600080fd5b505af11580156140b0573d6000803e3d6000fd5b505050506040513d6060811015612a7f57600080fd5b606061411b826040518060400160405280602081526020017f5361666545524332303a206c6f772d6c6576656c2063616c6c206661696c6564815250856001600160a01b03166142739092919063ffffffff16565b8051909150156136255780806020019051602081101561413a57600080fd5b50516136255760405162461bcd60e51b815260040180806020018281038252602a8152602001806145a3602a913960400191505060405180910390fd5b600081836142035760405162461bcd60e51b81526004018080602001828103825283818151815260200191508051906020019080838360005b838110156141c85781810151838201526020016141b0565b50505050905090810190601f1680156141f55780820380516001836020036101000a031916815260200191505b509250505060405180910390fd5b50600083858161420f57fe5b0495945050505050565b6000818484111561426b5760405162461bcd60e51b81526020600482018181528351602484015283519092839260449091019190850190808383600083156141c85781810151838201526020016141b0565b505050900390565b606061134284846000856060614288856143ea565b6142d9576040805162461bcd60e51b815260206004820152601d60248201527f416464726573733a2063616c6c20746f206e6f6e2d636f6e7472616374000000604482015290519081900360640190fd5b60006060866001600160a01b031685876040518082805190602001908083835b602083106143185780518252601f1990920191602091820191016142f9565b6001836020036101000a03801982511681845116808217855250505050505090500191505060006040518083038185875af1925050503d806000811461437a576040519150601f19603f3d011682016040523d82523d6000602084013e61437f565b606091505b509150915081156143935791506113429050565b8051156143a35780518082602001fd5b60405162461bcd60e51b81526020600482018181528651602484015286518793919283926044019190850190808383600083156141c85781810151838201526020016141b0565b3b151590565b82805482825590600052602060002090810192821561445d579160200282015b8281111561445d57825182547fffffffffffffffffffffffff0000000000000000000000000000000000000000166001600160a01b03909116178255602090920191600190910190614410565b5061446992915061446d565b5090565b5b808211156144695780547fffffffffffffffffffffffff000000000000000000000000000000000000000016815560010161446e56fe427661756c747353747261746567793a3a657865637574655472616e73616374696f6e3a205472616e73616374696f6e20657865637574696f6e2072657665727465642e427661756c747353747261746567793a202173616665202d20746f6f20686967684f776e61626c653a206e6577206f776e657220697320746865207a65726f2061646472657373427661756c747353747261746567793a2063616c6c6572206973206e6f7420746865206f70657261746f72536166654d6174683a206d756c7469706c69636174696f6e206f766572666c6f77427661756c747353747261746567793a2063616c6c6572206973206e6f742074696d656c6f636b5361666545524332303a204552433230206f7065726174696f6e20646964206e6f742073756363656564a2646970667358221220d69cd0f5f31745be1044258639a7d392eae355f1a78e2652e1e0bcbf113241d964736f6c634300060c00334f776e61626c653a206e6577206f776e657220697320746865207a65726f20616464726573738be0079c531659141344cd1fd0a4f28419497f9722a3daafe3b4186f6b6457e0",
  "linkReferences": {},
  "deployedLinkReferences": {}
}