{
  "_format": "hh-sol-artifact-1",
  "contractName": "BvaultsStrategy",
  "sourceName": "contracts/BvaultsStrategy.4.vswap.ratio.sol",
  "abi": [
    {
      "inputs": [
        {
          "internalType": "address",
          "name": "_controller",
          "type": "address"
        },
        {
          "internalType": "bool",
          "name": "_isAutoComp",
          "type": "bool"
        },
        {
          "internalType": "address",
          "name": "_farmContractAddress",
          "type": "address"
        },
        {
          "internalType": "uint256",
          "name": "_pid",
          "type": "uint256"
        },
        {
          "internalType": "address",
          "name": "_wantAddress",
          "type": "address"
        },
        {
          "internalType": "address",
          "name": "_earnedAddress",
          "type": "address"
        },
        {
          "internalType": "address",
          "name": "_vswapRouterAddress",
          "type": "address"
        },
        {
          "internalType": "address",
          "name": "_vswapFormula",
          "type": "address"
        },
        {
          "internalType": "address[]",
          "name": "_buyBackToken1Info",
          "type": "address[]"
        },
        {
          "internalType": "address[]",
          "name": "_buyBackToken2Info",
          "type": "address[]"
        },
        {
          "internalType": "address",
          "name": "_token0",
          "type": "address"
        },
        {
          "internalType": "address",
          "name": "_token1",
          "type": "address"
        },
        {
          "internalType": "uint256",
          "name": "_ratio0",
          "type": "uint256"
        }
      ],
      "stateMutability": "nonpayable",
      "type": "constructor"
    },
    {
      "anonymous": false,
      "inputs": [
        {
          "indexed": false,
          "internalType": "address",
          "name": "earnedAddress",
          "type": "address"
        },
        {
          "indexed": false,
          "internalType": "address",
          "name": "buyBackToken",
          "type": "address"
        },
        {
          "indexed": false,
          "internalType": "uint256",
          "name": "earnedAmt",
          "type": "uint256"
        },
        {
          "indexed": false,
          "internalType": "uint256",
          "name": "buyBackAmt",
          "type": "uint256"
        },
        {
          "indexed": false,
          "internalType": "address",
          "name": "receiver",
          "type": "address"
        }
      ],
      "name": "BuyBack",
      "type": "event"
    },
    {
      "anonymous": false,
      "inputs": [
        {
          "indexed": false,
          "internalType": "address",
          "name": "token0Address",
          "type": "address"
        },
        {
          "indexed": false,
          "internalType": "uint256",
          "name": "token0Amt",
          "type": "uint256"
        },
        {
          "indexed": false,
          "internalType": "address",
          "name": "token1Address",
          "type": "address"
        },
        {
          "indexed": false,
          "internalType": "uint256",
          "name": "token1Amt",
          "type": "uint256"
        }
      ],
      "name": "Compound",
      "type": "event"
    },
    {
      "anonymous": false,
      "inputs": [
        {
          "indexed": false,
          "internalType": "address",
          "name": "tokenAddress",
          "type": "address"
        },
        {
          "indexed": false,
          "internalType": "address",
          "name": "earnedAddress",
          "type": "address"
        },
        {
          "indexed": false,
          "internalType": "uint256",
          "name": "tokenAmt",
          "type": "uint256"
        }
      ],
      "name": "ConvertDustToEarned",
      "type": "event"
    },
    {
      "anonymous": false,
      "inputs": [
        {
          "indexed": false,
          "internalType": "uint256",
          "name": "amount",
          "type": "uint256"
        }
      ],
      "name": "Deposit",
      "type": "event"
    },
    {
      "anonymous": false,
      "inputs": [
        {
          "indexed": false,
          "internalType": "address",
          "name": "earnedAddress",
          "type": "address"
        },
        {
          "indexed": false,
          "internalType": "uint256",
          "name": "fee",
          "type": "uint256"
        },
        {
          "indexed": false,
          "internalType": "address",
          "name": "receiver",
          "type": "address"
        }
      ],
      "name": "DistributeFee",
      "type": "event"
    },
    {
      "anonymous": false,
      "inputs": [
        {
          "indexed": false,
          "internalType": "address",
          "name": "earnedAddress",
          "type": "address"
        },
        {
          "indexed": false,
          "internalType": "uint256",
          "name": "earnedAmt",
          "type": "uint256"
        }
      ],
      "name": "Earned",
      "type": "event"
    },
    {
      "anonymous": false,
      "inputs": [
        {
          "indexed": true,
          "internalType": "address",
          "name": "target",
          "type": "address"
        },
        {
          "indexed": false,
          "internalType": "uint256",
          "name": "value",
          "type": "uint256"
        },
        {
          "indexed": false,
          "internalType": "string",
          "name": "signature",
          "type": "string"
        },
        {
          "indexed": false,
          "internalType": "bytes",
          "name": "data",
          "type": "bytes"
        }
      ],
      "name": "ExecuteTransaction",
      "type": "event"
    },
    {
      "anonymous": false,
      "inputs": [
        {
          "indexed": false,
          "internalType": "uint256",
          "name": "amount",
          "type": "uint256"
        }
      ],
      "name": "Farm",
      "type": "event"
    },
    {
      "anonymous": false,
      "inputs": [
        {
          "indexed": false,
          "internalType": "address",
          "name": "tokenAddress",
          "type": "address"
        },
        {
          "indexed": false,
          "internalType": "uint256",
          "name": "tokenAmt",
          "type": "uint256"
        },
        {
          "indexed": false,
          "internalType": "address",
          "name": "receiver",
          "type": "address"
        }
      ],
      "name": "InCaseTokensGetStuck",
      "type": "event"
    },
    {
      "anonymous": false,
      "inputs": [
        {
          "indexed": true,
          "internalType": "address",
          "name": "previousOwner",
          "type": "address"
        },
        {
          "indexed": true,
          "internalType": "address",
          "name": "newOwner",
          "type": "address"
        }
      ],
      "name": "OwnershipTransferred",
      "type": "event"
    },
    {
      "anonymous": false,
      "inputs": [
        {
          "indexed": false,
          "internalType": "address",
          "name": "account",
          "type": "address"
        }
      ],
      "name": "Paused",
      "type": "event"
    },
    {
      "anonymous": false,
      "inputs": [
        {
          "indexed": false,
          "internalType": "address",
          "name": "account",
          "type": "address"
        }
      ],
      "name": "Unpaused",
      "type": "event"
    },
    {
      "anonymous": false,
      "inputs": [
        {
          "indexed": false,
          "internalType": "uint256",
          "name": "amount",
          "type": "uint256"
        }
      ],
      "name": "Withdraw",
      "type": "event"
    },
    {
      "inputs": [],
      "name": "busdAddress",
      "outputs": [
        {
          "internalType": "address",
          "name": "",
          "type": "address"
        }
      ],
      "stateMutability": "view",
      "type": "function"
    },
    {
      "inputs": [],
      "name": "buyBackAddress1",
      "outputs": [
        {
          "internalType": "address",
          "name": "",
          "type": "address"
        }
      ],
      "stateMutability": "view",
      "type": "function"
    },
    {
      "inputs": [],
      "name": "buyBackAddress2",
      "outputs": [
        {
          "internalType": "address",
          "name": "",
          "type": "address"
        }
      ],
      "stateMutability": "view",
      "type": "function"
    },
    {
      "inputs": [],
      "name": "buyBackRate1",
      "outputs": [
        {
          "internalType": "uint256",
          "name": "",
          "type": "uint256"
        }
      ],
      "stateMutability": "view",
      "type": "function"
    },
    {
      "inputs": [],
      "name": "buyBackRate2",
      "outputs": [
        {
          "internalType": "uint256",
          "name": "",
          "type": "uint256"
        }
      ],
      "stateMutability": "view",
      "type": "function"
    },
    {
      "inputs": [],
      "name": "buyBackRateMax",
      "outputs": [
        {
          "internalType": "uint256",
          "name": "",
          "type": "uint256"
        }
      ],
      "stateMutability": "view",
      "type": "function"
    },
    {
      "inputs": [],
      "name": "buyBackRateUL",
      "outputs": [
        {
          "internalType": "uint256",
          "name": "",
          "type": "uint256"
        }
      ],
      "stateMutability": "view",
      "type": "function"
    },
    {
      "inputs": [],
      "name": "buyBackToken1",
      "outputs": [
        {
          "internalType": "address",
          "name": "",
          "type": "address"
        }
      ],
      "stateMutability": "view",
      "type": "function"
    },
    {
      "inputs": [],
      "name": "buyBackToken2",
      "outputs": [
        {
          "internalType": "address",
          "name": "",
          "type": "address"
        }
      ],
      "stateMutability": "view",
      "type": "function"
    },
    {
      "inputs": [],
      "name": "controllerFee",
      "outputs": [
        {
          "internalType": "uint256",
          "name": "",
          "type": "uint256"
        }
      ],
      "stateMutability": "view",
      "type": "function"
    },
    {
      "inputs": [],
      "name": "controllerFeeMax",
      "outputs": [
        {
          "internalType": "uint256",
          "name": "",
          "type": "uint256"
        }
      ],
      "stateMutability": "view",
      "type": "function"
    },
    {
      "inputs": [],
      "name": "controllerFeeUL",
      "outputs": [
        {
          "internalType": "uint256",
          "name": "",
          "type": "uint256"
        }
      ],
      "stateMutability": "view",
      "type": "function"
    },
    {
      "inputs": [],
      "name": "convertDustToEarned",
      "outputs": [],
      "stateMutability": "nonpayable",
      "type": "function"
    },
    {
      "inputs": [
        {
          "internalType": "address",
          "name": "",
          "type": "address"
        },
        {
          "internalType": "uint256",
          "name": "_wantAmt",
          "type": "uint256"
        }
      ],
      "name": "deposit",
      "outputs": [
        {
          "internalType": "uint256",
          "name": "",
          "type": "uint256"
        }
      ],
      "stateMutability": "nonpayable",
      "type": "function"
    },
    {
      "inputs": [],
      "name": "earn",
      "outputs": [],
      "stateMutability": "nonpayable",
      "type": "function"
    },
    {
      "inputs": [],
      "name": "earnedAddress",
      "outputs": [
        {
          "internalType": "address",
          "name": "",
          "type": "address"
        }
      ],
      "stateMutability": "view",
      "type": "function"
    },
    {
      "inputs": [],
      "name": "entranceFeeFactor",
      "outputs": [
        {
          "internalType": "uint256",
          "name": "",
          "type": "uint256"
        }
      ],
      "stateMutability": "view",
      "type": "function"
    },
    {
      "inputs": [],
      "name": "entranceFeeFactorLL",
      "outputs": [
        {
          "internalType": "uint256",
          "name": "",
          "type": "uint256"
        }
      ],
      "stateMutability": "view",
      "type": "function"
    },
    {
      "inputs": [],
      "name": "entranceFeeFactorMax",
      "outputs": [
        {
          "internalType": "uint256",
          "name": "",
          "type": "uint256"
        }
      ],
      "stateMutability": "view",
      "type": "function"
    },
    {
      "inputs": [
        {
          "internalType": "address",
          "name": "_inputToken",
          "type": "address"
        },
        {
          "internalType": "address",
          "name": "_outputToken",
          "type": "address"
        },
        {
          "internalType": "uint256",
          "name": "_tokenAmount",
          "type": "uint256"
        }
      ],
      "name": "exchangeRate",
      "outputs": [
        {
          "internalType": "uint256",
          "name": "",
          "type": "uint256"
        }
      ],
      "stateMutability": "view",
      "type": "function"
    },
    {
      "inputs": [
        {
          "internalType": "address",
          "name": "target",
          "type": "address"
        },
        {
          "internalType": "uint256",
          "name": "value",
          "type": "uint256"
        },
        {
          "internalType": "string",
          "name": "signature",
          "type": "string"
        },
        {
          "internalType": "bytes",
          "name": "data",
          "type": "bytes"
        }
      ],
      "name": "executeTransaction",
      "outputs": [
        {
          "internalType": "bytes",
          "name": "",
          "type": "bytes"
        }
      ],
      "stateMutability": "nonpayable",
      "type": "function"
    },
    {
      "inputs": [],
      "name": "farm",
      "outputs": [],
      "stateMutability": "nonpayable",
      "type": "function"
    },
    {
      "inputs": [],
      "name": "farmContractAddress",
      "outputs": [
        {
          "internalType": "address",
          "name": "",
          "type": "address"
        }
      ],
      "stateMutability": "view",
      "type": "function"
    },
    {
      "inputs": [
        {
          "internalType": "address",
          "name": "_token",
          "type": "address"
        },
        {
          "internalType": "uint256",
          "name": "_amount",
          "type": "uint256"
        },
        {
          "internalType": "address",
          "name": "_to",
          "type": "address"
        }
      ],
      "name": "inCaseTokensGetStuck",
      "outputs": [],
      "stateMutability": "nonpayable",
      "type": "function"
    },
    {
      "inputs": [
        {
          "internalType": "address",
          "name": "_account",
          "type": "address"
        }
      ],
      "name": "isAuthorised",
      "outputs": [
        {
          "internalType": "bool",
          "name": "",
          "type": "bool"
        }
      ],
      "stateMutability": "view",
      "type": "function"
    },
    {
      "inputs": [],
      "name": "isAutoComp",
      "outputs": [
        {
          "internalType": "bool",
          "name": "",
          "type": "bool"
        }
      ],
      "stateMutability": "view",
      "type": "function"
    },
    {
      "inputs": [],
      "name": "lastEarnBlock",
      "outputs": [
        {
          "internalType": "uint256",
          "name": "",
          "type": "uint256"
        }
      ],
      "stateMutability": "view",
      "type": "function"
    },
    {
      "inputs": [],
      "name": "notPublic",
      "outputs": [
        {
          "internalType": "bool",
          "name": "",
          "type": "bool"
        }
      ],
      "stateMutability": "view",
      "type": "function"
    },
    {
      "inputs": [],
      "name": "operator",
      "outputs": [
        {
          "internalType": "address",
          "name": "",
          "type": "address"
        }
      ],
      "stateMutability": "view",
      "type": "function"
    },
    {
      "inputs": [],
      "name": "owner",
      "outputs": [
        {
          "internalType": "address",
          "name": "",
          "type": "address"
        }
      ],
      "stateMutability": "view",
      "type": "function"
    },
    {
      "inputs": [],
      "name": "pause",
      "outputs": [],
      "stateMutability": "nonpayable",
      "type": "function"
    },
    {
      "inputs": [],
      "name": "paused",
      "outputs": [
        {
          "internalType": "bool",
          "name": "",
          "type": "bool"
        }
      ],
      "stateMutability": "view",
      "type": "function"
    },
    {
      "inputs": [],
      "name": "pendingHarvest",
      "outputs": [
        {
          "internalType": "uint256",
          "name": "",
          "type": "uint256"
        }
      ],
      "stateMutability": "view",
      "type": "function"
    },
    {
      "inputs": [],
      "name": "pendingHarvestDollarValue",
      "outputs": [
        {
          "internalType": "uint256",
          "name": "",
          "type": "uint256"
        }
      ],
      "stateMutability": "view",
      "type": "function"
    },
    {
      "inputs": [],
      "name": "pid",
      "outputs": [
        {
          "internalType": "uint256",
          "name": "",
          "type": "uint256"
        }
      ],
      "stateMutability": "view",
      "type": "function"
    },
    {
      "inputs": [],
      "name": "ratio0",
      "outputs": [
        {
          "internalType": "uint256",
          "name": "",
          "type": "uint256"
        }
      ],
      "stateMutability": "view",
      "type": "function"
    },
    {
      "inputs": [],
      "name": "ratio1",
      "outputs": [
        {
          "internalType": "uint256",
          "name": "",
          "type": "uint256"
        }
      ],
      "stateMutability": "view",
      "type": "function"
    },
    {
      "inputs": [],
      "name": "renounceOwnership",
      "outputs": [],
      "stateMutability": "nonpayable",
      "type": "function"
    },
    {
      "inputs": [
        {
          "internalType": "address",
          "name": "_buyBackAddress1",
          "type": "address"
        }
      ],
      "name": "setBuyBackAddress1",
      "outputs": [],
      "stateMutability": "nonpayable",
      "type": "function"
    },
    {
      "inputs": [
        {
          "internalType": "address",
          "name": "_buyBackAddress2",
          "type": "address"
        }
      ],
      "name": "setBuyBackAddress2",
      "outputs": [],
      "stateMutability": "nonpayable",
      "type": "function"
    },
    {
      "inputs": [
        {
          "internalType": "uint256",
          "name": "_buyBackRate1",
          "type": "uint256"
        }
      ],
      "name": "setBuyBackRate1",
      "outputs": [],
      "stateMutability": "nonpayable",
      "type": "function"
    },
    {
      "inputs": [
        {
          "internalType": "uint256",
          "name": "_buyBackRate2",
          "type": "uint256"
        }
      ],
      "name": "setBuyBackRate2",
      "outputs": [],
      "stateMutability": "nonpayable",
      "type": "function"
    },
    {
      "inputs": [
        {
          "internalType": "uint256",
          "name": "_controllerFee",
          "type": "uint256"
        }
      ],
      "name": "setControllerFee",
      "outputs": [],
      "stateMutability": "nonpayable",
      "type": "function"
    },
    {
      "inputs": [
        {
          "internalType": "uint256",
          "name": "_entranceFeeFactor",
          "type": "uint256"
        }
      ],
      "name": "setEntranceFeeFactor",
      "outputs": [],
      "stateMutability": "nonpayable",
      "type": "function"
    },
    {
      "inputs": [
        {
          "internalType": "address[]",
          "name": "_earnedToBuyBackToken1Path",
          "type": "address[]"
        },
        {
          "internalType": "address[]",
          "name": "_earnedToBuyBackToken2Path",
          "type": "address[]"
        },
        {
          "internalType": "address[]",
          "name": "_earnedToToken0Path",
          "type": "address[]"
        },
        {
          "internalType": "address[]",
          "name": "_earnedToToken1Path",
          "type": "address[]"
        },
        {
          "internalType": "address[]",
          "name": "_earnedToBusdPath",
          "type": "address[]"
        },
        {
          "internalType": "address[]",
          "name": "_token0ToEarnedPath",
          "type": "address[]"
        },
        {
          "internalType": "address[]",
          "name": "_token1ToEarnedPath",
          "type": "address[]"
        }
      ],
      "name": "setMainPaths",
      "outputs": [],
      "stateMutability": "nonpayable",
      "type": "function"
    },
    {
      "inputs": [
        {
          "internalType": "bool",
          "name": "_notPublic",
          "type": "bool"
        }
      ],
      "name": "setNotPublic",
      "outputs": [],
      "stateMutability": "nonpayable",
      "type": "function"
    },
    {
      "inputs": [
        {
          "internalType": "address",
          "name": "_operator",
          "type": "address"
        }
      ],
      "name": "setOperator",
      "outputs": [],
      "stateMutability": "nonpayable",
      "type": "function"
    },
    {
      "inputs": [
        {
          "internalType": "address",
          "name": "_strategist",
          "type": "address"
        }
      ],
      "name": "setStrategist",
      "outputs": [],
      "stateMutability": "nonpayable",
      "type": "function"
    },
    {
      "inputs": [
        {
          "internalType": "address",
          "name": "_timelock",
          "type": "address"
        }
      ],
      "name": "setTimelock",
      "outputs": [],
      "stateMutability": "nonpayable",
      "type": "function"
    },
    {
      "inputs": [
        {
          "internalType": "address",
          "name": "_inputToken",
          "type": "address"
        },
        {
          "internalType": "address",
          "name": "_outputToken",
          "type": "address"
        },
        {
          "internalType": "address[]",
          "name": "_path",
          "type": "address[]"
        }
      ],
      "name": "setVswapPaths",
      "outputs": [],
      "stateMutability": "nonpayable",
      "type": "function"
    },
    {
      "inputs": [],
      "name": "sharesTotal",
      "outputs": [
        {
          "internalType": "uint256",
          "name": "",
          "type": "uint256"
        }
      ],
      "stateMutability": "view",
      "type": "function"
    },
    {
      "inputs": [],
      "name": "strategist",
      "outputs": [
        {
          "internalType": "address",
          "name": "",
          "type": "address"
        }
      ],
      "stateMutability": "view",
      "type": "function"
    },
    {
      "inputs": [],
      "name": "timelock",
      "outputs": [
        {
          "internalType": "address",
          "name": "",
          "type": "address"
        }
      ],
      "stateMutability": "view",
      "type": "function"
    },
    {
      "inputs": [],
      "name": "token0Address",
      "outputs": [
        {
          "internalType": "address",
          "name": "",
          "type": "address"
        }
      ],
      "stateMutability": "view",
      "type": "function"
    },
    {
      "inputs": [],
      "name": "token1Address",
      "outputs": [
        {
          "internalType": "address",
          "name": "",
          "type": "address"
        }
      ],
      "stateMutability": "view",
      "type": "function"
    },
    {
      "inputs": [
        {
          "internalType": "address",
          "name": "newOwner",
          "type": "address"
        }
      ],
      "name": "transferOwnership",
      "outputs": [],
      "stateMutability": "nonpayable",
      "type": "function"
    },
    {
      "inputs": [],
      "name": "unpause",
      "outputs": [],
      "stateMutability": "nonpayable",
      "type": "function"
    },
    {
      "inputs": [],
      "name": "vswapFormula",
      "outputs": [
        {
          "internalType": "address",
          "name": "",
          "type": "address"
        }
      ],
      "stateMutability": "view",
      "type": "function"
    },
    {
      "inputs": [
        {
          "internalType": "address",
          "name": "",
          "type": "address"
        },
        {
          "internalType": "address",
          "name": "",
          "type": "address"
        },
        {
          "internalType": "uint256",
          "name": "",
          "type": "uint256"
        }
      ],
      "name": "vswapPaths",
      "outputs": [
        {
          "internalType": "address",
          "name": "",
          "type": "address"
        }
      ],
      "stateMutability": "view",
      "type": "function"
    },
    {
      "inputs": [],
      "name": "vswapRouterAddress",
      "outputs": [
        {
          "internalType": "address",
          "name": "",
          "type": "address"
        }
      ],
      "stateMutability": "view",
      "type": "function"
    },
    {
      "inputs": [],
      "name": "wantAddress",
      "outputs": [
        {
          "internalType": "address",
          "name": "",
          "type": "address"
        }
      ],
      "stateMutability": "view",
      "type": "function"
    },
    {
      "inputs": [],
      "name": "wantLockedTotal",
      "outputs": [
        {
          "internalType": "uint256",
          "name": "",
          "type": "uint256"
        }
      ],
      "stateMutability": "view",
      "type": "function"
    },
    {
      "inputs": [],
      "name": "wbnbAddress",
      "outputs": [
        {
          "internalType": "address",
          "name": "",
          "type": "address"
        }
      ],
      "stateMutability": "view",
      "type": "function"
    },
    {
      "inputs": [
        {
          "internalType": "address",
          "name": "",
          "type": "address"
        },
        {
          "internalType": "uint256",
          "name": "_wantAmt",
          "type": "uint256"
        }
      ],
      "name": "withdraw",
      "outputs": [
        {
          "internalType": "uint256",
          "name": "",
          "type": "uint256"
        }
      ],
      "stateMutability": "nonpayable",
      "type": "function"
    }
  ],
  "bytecode": "0x60806040526113886008819055600955600a80546001600160a01b031990811673b7e19a1188776f32e8c2b790d9ca578f2896da7c17909155600b805482167345f24baeef268bb6d63aee5129015d69702bcdfa179055600f805460ff60a01b199083167392a082ad5a942140bcc791081f775900d0a514d917169055600060108190556011819055601281905560135561012c6014556015805482167381859801b01764d4f0fa5e64729f5a6c3b91435b17905560168054821673aaaf5d9923be358ea0b6205ef2a3b929d460ac7a17905560c860175560188054821673190b589cf9fb8ddeabbfeae36a813ffb2a70245417905560198054909116735d42dc503763dd1e7a1b510b055150cc5754656b179055612710601a553480156200012757600080fd5b5060405162004bb338038062004bb383398181016040526101a08110156200014e57600080fd5b815160208301516040808501516060860151608087015160a088015160c089015160e08a01516101008b0180519751999b989a96999598949793969295919491939282019284640100000000821115620001a757600080fd5b908301906020820185811115620001bd57600080fd5b8251866020820283011164010000000082111715620001db57600080fd5b82525081516020918201928201910280838360005b838110156200020a578181015183820152602001620001f0565b50505050905001604052602001805160405193929190846401000000008211156200023457600080fd5b9083019060208201858111156200024a57600080fd5b82518660208202830111640100000000821117156200026857600080fd5b82525081516020918201928201910280838360005b83811015620002975781810151838201526020016200027d565b5050505091909101604090815260208301519083015160609093015190945091925060009050620002c762000561565b600080546001600160a01b0319166001600160a01b03831690811782556040519293509160008051602062004b93833981519152908290a3506001805560028054600d8054336001600160a01b03199182168117909255600e8054821690921790915561ffff199091166101008f15150217909155600480549091166001600160a01b038b8116919091179091558716156200037957600a80546001600160a01b0319166001600160a01b0389161790555b6001600160a01b03861615620003a557600b80546001600160a01b0319166001600160a01b0388161790555b84600081518110620003b357fe5b6020026020010151601560006101000a8154816001600160a01b0302191690836001600160a01b0316021790555084600181518110620003ef57fe5b6020026020010151601660006101000a8154816001600160a01b0302191690836001600160a01b03160217905550836000815181106200042b57fe5b6020026020010151601860006101000a8154816001600160a01b0302191690836001600160a01b03160217905550836001815181106200046757fe5b6020908102919091010151601980546001600160a01b0319166001600160a01b03909216919091179055600254610100900460ff16156200054357600580546001600160a01b038086166001600160a01b03199283161790925560068054928516929091169190911790558015620004fc576008819055620004f86127108262000565602090811b6200300017901c565b6009555b6002805462010000600160b01b031916620100006001600160a01b038e8116919091029190911790915560038b9055600780546001600160a01b031916918a169190911790555b6200054e8d620005b6565b505050505050505050505050506200074f565b3390565b6000620005af83836040518060400160405280601e81526020017f536166654d6174683a207375627472616374696f6e206f766572666c6f770000815250620006b460201b60201c565b9392505050565b620005c062000561565b6000546001600160a01b0390811691161462000623576040805162461bcd60e51b815260206004820181905260248201527f4f776e61626c653a2063616c6c6572206973206e6f7420746865206f776e6572604482015290519081900360640190fd5b6001600160a01b0381166200066a5760405162461bcd60e51b815260040180806020018281038252602681526020018062004b6d6026913960400191505060405180910390fd5b600080546040516001600160a01b038085169392169160008051602062004b9383398151915291a3600080546001600160a01b0319166001600160a01b0392909216919091179055565b60008184841115620007475760405162461bcd60e51b81526004018080602001828103825283818151815260200191508051906020019080838360005b838110156200070b578181015183820152602001620006f1565b50505050905090810190601f168015620007395780820380516001836020036101000a031916815260200191505b509250505060405180910390fd5b505050900390565b61440e806200075f6000396000f3fe608060405234801561001057600080fd5b50600436106103d05760003560e01c80639665e82a116101ff578063d33219b41161011a578063e5dd455a116100ad578063f10684541161007c578063f106845414610db7578063f2fde38b14610dbf578063f3fef3a314610de5578063f400d31114610e11576103d0565b8063e5dd455a14610d9f578063e719847414610da7578063e7a0367914610daf578063ee50dc341461099f576103d0565b8063db7a3c0f116100e9578063db7a3c0f14610d7f578063dd4bbd7514610d87578063df5c8a9e14610d8f578063dfee1dd914610d97576103d0565b8063d33219b414610d5f578063d389800f14610d67578063d7cb416f14610d6f578063d8be16da14610d77576103d0565b8063bca8885011610192578063c302a4d011610161578063c302a4d014610d03578063c3ec8dda14610d0b578063c7b9d53014610d31578063ce5328e414610d57576103d0565b8063bca8885014610bfc578063bdacb30314610cb8578063bf94c0ba14610cde578063c11c2e9214610cfb576103d0565b8063a5528632116101ce578063a552863214610b8b578063b3545c0114610bb1578063b3ab15fb14610bb9578063bb9928c614610bdf576103d0565b80639665e82a14610b3d5780639748911a14610b455780639e69232914610b4d5780639fc33a9f14610b83576103d0565b80634a56fcd4116102ef578063701f6604116102825780638456cb59116102515780638456cb5914610b1d57806385f02dd614610b25578063889adfa814610b2d5780638da5cb5b14610b35576103d0565b8063701f660414610acf578063715018a614610b0557806376a9023114610b0d5780637ff36fbe14610b15576103d0565b80635c975abb116102be5780635c975abb14610a81578063607f35a014610a8957806363fe3e3a14610a9157806367206d4014610a99576103d0565b80634a56fcd414610a375780634d9f7bb21461099f57806351b699cd14610a3f578063570ca73514610a79576103d0565b806327e6dcbb1161036757806342da4eb31161033657806342da4eb3146109dc57806344a3955e146109e457806345d6b667146109ec57806347e7ef2414610a0b576103d0565b806327e6dcbb146109a757806336e9332d146109af5780633e1a8912146109b75780633f4ba83a146109d4576103d0565b80631a43da93116103a35780631a43da93146107bc5780631fe4a686146107e05780632224fa25146107e85780632717eff31461099f576103d0565b8063061c7d48146103d55780630fa4e01e146103ef5780631334903f146103f7578063197c760b146103ff575b600080fd5b6103dd610e2e565b60408051918252519081900360200190f35b6103dd610e34565b6103dd610e3a565b6107ba600480360360e081101561041557600080fd5b81019060208101813564010000000081111561043057600080fd5b82018360208201111561044257600080fd5b8035906020019184602083028401116401000000008311171561046457600080fd5b91908080602002602001604051908101604052809392919081815260200183836020028082843760009201919091525092959493602081019350359150506401000000008111156104b457600080fd5b8201836020820111156104c657600080fd5b803590602001918460208302840111640100000000831117156104e857600080fd5b919080806020026020016040519081016040528093929190818152602001838360200280828437600092019190915250929594936020810193503591505064010000000081111561053857600080fd5b82018360208201111561054a57600080fd5b8035906020019184602083028401116401000000008311171561056c57600080fd5b91908080602002602001604051908101604052809392919081815260200183836020028082843760009201919091525092959493602081019350359150506401000000008111156105bc57600080fd5b8201836020820111156105ce57600080fd5b803590602001918460208302840111640100000000831117156105f057600080fd5b919080806020026020016040519081016040528093929190818152602001838360200280828437600092019190915250929594936020810193503591505064010000000081111561064057600080fd5b82018360208201111561065257600080fd5b8035906020019184602083028401116401000000008311171561067457600080fd5b91908080602002602001604051908101604052809392919081815260200183836020028082843760009201919091525092959493602081019350359150506401000000008111156106c457600080fd5b8201836020820111156106d657600080fd5b803590602001918460208302840111640100000000831117156106f857600080fd5b919080806020026020016040519081016040528093929190818152602001838360200280828437600092019190915250929594936020810193503591505064010000000081111561074857600080fd5b82018360208201111561075a57600080fd5b8035906020019184602083028401116401000000008311171561077c57600080fd5b919080806020026020016040519081016040528093929190818152602001838360200280828437600092019190915250929550610e40945050505050565b005b6107c4611042565b604080516001600160a01b039092168252519081900360200190f35b6107c4611051565b61092a600480360360808110156107fe57600080fd5b6001600160a01b038235169160208101359181019060608101604082013564010000000081111561082e57600080fd5b82018360208201111561084057600080fd5b8035906020019184600183028401116401000000008311171561086257600080fd5b91908080601f01602080910402602001604051908101604052809392919081815260200183838082843760009201919091525092959493602081019350359150506401000000008111156108b557600080fd5b8201836020820111156108c757600080fd5b803590602001918460018302840111640100000000831117156108e957600080fd5b91908080601f016020809104026020016040519081016040528093929190818152602001838380828437600092019190915250929550611060945050505050565b6040805160208082528351818301528351919283929083019185019080838360005b8381101561096457818101518382015260200161094c565b50505050905090810190601f1680156109915780820380516001836020036101000a031916815260200191505b509250505060405180910390f35b6103dd61135d565b6107c4611363565b6107ba611372565b6107ba600480360360208110156109cd57600080fd5b50356113dd565b6107ba6114c2565b6103dd611515565b6103dd61151b565b6107ba60048036036020811015610a0257600080fd5b50351515611521565b6103dd60048036036040811015610a2157600080fd5b506001600160a01b0381351690602001356115b4565b6107c461175a565b610a6560048036036020811015610a5557600080fd5b50356001600160a01b0316611769565b604080519115158252519081900360200190f35b6107c46117af565b610a656117be565b6107c46117c7565b6107c46117d6565b6107ba60048036036060811015610aaf57600080fd5b506001600160a01b038135811691602081013591604090910135166117ee565b6103dd60048036036060811015610ae557600080fd5b506001600160a01b03813581169160208101359091169060400135611962565b6107ba611b3a565b6107c4611c06565b6107c4611c1e565b6107ba611c2d565b6103dd611c7e565b6103dd611c84565b6107c4611cd0565b6103dd611cdf565b6103dd611ce5565b6107c460048036036060811015610b6357600080fd5b506001600160a01b03813581169160208101359091169060400135611ceb565b6107c4611d2d565b6107ba60048036036020811015610ba157600080fd5b50356001600160a01b0316611d42565b6103dd611e22565b6107ba60048036036020811015610bcf57600080fd5b50356001600160a01b0316611e28565b6107ba60048036036020811015610bf557600080fd5b5035611eab565b6107ba60048036036060811015610c1257600080fd5b6001600160a01b038235811692602081013590911691810190606081016040820135640100000000811115610c4657600080fd5b820183602082011115610c5857600080fd5b80359060200191846020830284011164010000000083111715610c7a57600080fd5b919080806020026020016040519081016040528093929190818152602001838360200280828437600092019190915250929550611f52945050505050565b6107ba60048036036020811015610cce57600080fd5b50356001600160a01b0316611fd6565b6107ba60048036036020811015610cf457600080fd5b5035612059565b6107ba612100565b6103dd612332565b6107ba60048036036020811015610d2157600080fd5b50356001600160a01b0316612338565b6107ba60048036036020811015610d4757600080fd5b50356001600160a01b031661241a565b6107c461249d565b6107c46124ac565b6107ba6124bb565b6107c46129b0565b610a656129bf565b6103dd6129e0565b6107c4612b08565b6103dd612b17565b6103dd612b1d565b610a65612b23565b6107c4612b31565b6107c4612b40565b6103dd612b4f565b6107ba60048036036020811015610dd557600080fd5b50356001600160a01b0316612b55565b6103dd60048036036040811015610dfb57600080fd5b506001600160a01b038135169060200135612c77565b6107ba60048036036020811015610e2757600080fd5b5035612f5b565b61012c81565b60105481565b601a5481565b600d546001600160a01b03163314610e895760405162461bcd60e51b815260040180806020018281038252602b81526020018061433c602b913960400191505060405180910390fd5b6007546001600160a01b039081166000908152600c6020908152604080832060155490941683529281529190208851610ec4928a01906141fc565b506007546001600160a01b039081166000908152600c6020908152604080832060185490941683529281529190208751610f00928901906141fc565b506007546001600160a01b039081166000908152600c6020908152604080832060055490941683529281529190208651610f3c928801906141fc565b506007546001600160a01b039081166000908152600c6020908152604080832060065490941683529281529190208551610f78928701906141fc565b506007546001600160a01b03166000908152600c6020908152604080832073e9e7cea3dedca5984780bafc599bd69add087d56845282529091208451610fc0928601906141fc565b506005546001600160a01b039081166000908152600c6020908152604080832060075490941683529281529190208351610ffc928501906141fc565b506006546001600160a01b039081166000908152600c6020908152604080832060075490941683529281529190208251611038928401906141fc565b5050505050505050565b6016546001600160a01b031681565b600e546001600160a01b031681565b600f546060906001600160a01b031633146110ac5760405162461bcd60e51b81526004018080602001828103825260278152602001806143886027913960400191505060405180910390fd5b60608351600014156110bf575081611157565b83805190602001208360405160200180837bffffffffffffffffffffffffffffffffffffffffffffffffffffffff1916815260040182805190602001908083835b6020831061111f5780518252601f199092019160209182019101611100565b6001836020036101000a0380198251168184511680821785525050505050509050019250505060405160208183030381529060405290505b60006060876001600160a01b031687846040518082805190602001908083835b602083106111965780518252601f199092019160209182019101611177565b6001836020036101000a03801982511681845116808217855250505050505090500191505060006040518083038185875af1925050503d80600081146111f8576040519150601f19603f3d011682016040523d82523d6000602084013e6111fd565b606091505b50915091508161123e5760405162461bcd60e51b81526004018080602001828103825260448152602001806142b16044913960600191505060405180910390fd5b876001600160a01b03167f88405ca50016c636e025868e263efe5a9f63bf11cc45404f7616394c7dc389d0888888604051808481526020018060200180602001838103835285818151815260200191508051906020019080838360005b838110156112b357818101518382015260200161129b565b50505050905090810190601f1680156112e05780820380516001836020036101000a031916815260200191505b50838103825284518152845160209182019186019080838360005b838110156113135781810151838201526020016112fb565b50505050905090810190601f1680156113405780820380516001836020036101000a031916815260200191505b509550505050505060405180910390a2925050505b949350505050565b61271081565b600b546001600160a01b031681565b600260015414156113ca576040805162461bcd60e51b815260206004820152601f60248201527f5265656e7472616e637947756172643a207265656e7472616e742063616c6c00604482015290519081900360640190fd5b60026001556113d7613049565b60018055565b600d546001600160a01b031633146114265760405162461bcd60e51b815260040180806020018281038252602b81526020018061433c602b913960400191505060405180910390fd5b6126de811161147c576040805162461bcd60e51b815260206004820181905260248201527f427661756c747353747261746567793a202173616665202d20746f6f206c6f77604482015290519081900360640190fd5b6127108111156114bd5760405162461bcd60e51b81526004018080602001828103825260218152602001806142f56021913960400191505060405180910390fd5b601a55565b600d546001600160a01b0316331461150b5760405162461bcd60e51b815260040180806020018281038252602b81526020018061433c602b913960400191505060405180910390fd5b6115136131ad565b565b60115481565b60125481565b600d546001600160a01b0316331461156a5760405162461bcd60e51b815260040180806020018281038252602b81526020018061433c602b913960400191505060405180910390fd5b600f805491151574010000000000000000000000000000000000000000027fffffffffffffffffffffff00ffffffffffffffffffffffffffffffffffffffff909216919091179055565b60006115be613272565b6000546001600160a01b03908116911614611620576040805162461bcd60e51b815260206004820181905260248201527f4f776e61626c653a2063616c6c6572206973206e6f7420746865206f776e6572604482015290519081900360640190fd5b60025460ff1615611678576040805162461bcd60e51b815260206004820152601060248201527f5061757361626c653a2070617573656400000000000000000000000000000000604482015290519081900360640190fd5b600454611690906001600160a01b0316333085613276565b6011548290158015906116a557506000601254115b156116e0576116dd6127106116d76011546116d7601a546116d16012548a6132fe90919063ffffffff16565b906132fe565b90613357565b90505b6012546116ed9082613399565b601255600254610100900460ff161561170d57611708613049565b61171e565b60115461171a9084613399565b6011555b6040805184815290517f4d6ce1e535dbade1c23defba91e23b8f791ce5edc0cc320257a2b364e4e384269181900360200190a190505b92915050565b6019546001600160a01b031681565b600d546000906001600160a01b03838116911614806117925750600e546001600160a01b031633145b806117a75750600f546001600160a01b031633145b90505b919050565b600d546001600160a01b031681565b60025460ff1690565b6018546001600160a01b031681565b73bb4cdb9cbd36b01bd1cbaebf2de08d9173bc095c81565b600d546001600160a01b031633146118375760405162461bcd60e51b815260040180806020018281038252602b81526020018061433c602b913960400191505060405180910390fd5b6007546001600160a01b038481169116141561189a576040805162461bcd60e51b815260206004820152600660248201527f6561726e65640000000000000000000000000000000000000000000000000000604482015290519081900360640190fd5b6004546001600160a01b03848116911614156118ff576040805162461bcd60e51b8152602060048083019190915260248201527f77616e7400000000000000000000000000000000000000000000000000000000604482015290519081900360640190fd5b6119136001600160a01b03841682846133f3565b604080516001600160a01b0380861682526020820185905283168183015290517f22f92dfb4f608ea5db1e9bb08c0b4f5518af93b1259d335fe05900056096ab2c9181900360600190a1505050565b600b546001600160a01b038481166000818152600c60209081526040808320888616808552925280832090517f8fabd82d0000000000000000000000000000000000000000000000000000000081526004810194855260248101929092526044820187905260806064830190815281546084840181905293966060961694638fabd82d948b948b948b94909392909160a4019084908015611a2c57602002820191906000526020600020905b81546001600160a01b03168152600190910190602001808311611a0e575b50509550505050505060006040518083038186803b158015611a4d57600080fd5b505afa158015611a61573d6000803e3d6000fd5b505050506040513d6000823e601f3d908101601f191682016040526020811015611a8a57600080fd5b8101908080516040519392919084640100000000821115611aaa57600080fd5b908301906020820185811115611abf57600080fd5b8251866020820283011164010000000082111715611adc57600080fd5b82525081516020918201928201910280838360005b83811015611b09578181015183820152602001611af1565b50505050905001604052505050905080600182510381518110611b2857fe5b60200260200101519150509392505050565b611b42613272565b6000546001600160a01b03908116911614611ba4576040805162461bcd60e51b815260206004820181905260248201527f4f776e61626c653a2063616c6c6572206973206e6f7420746865206f776e6572604482015290519081900360640190fd5b600080546040516001600160a01b03909116907f8be0079c531659141344cd1fd0a4f28419497f9722a3daafe3b4186f6b6457e0908390a3600080547fffffffffffffffffffffffff0000000000000000000000000000000000000000169055565b73e9e7cea3dedca5984780bafc599bd69add087d5681565b6005546001600160a01b031681565b600d546001600160a01b03163314611c765760405162461bcd60e51b815260040180806020018281038252602b81526020018061433c602b913960400191505060405180910390fd5b611513613478565b60135481565b600080611c8f6129e0565b90508015611cc757600754611cc2906001600160a01b031673e9e7cea3dedca5984780bafc599bd69add087d5683611962565b611cca565b60005b91505090565b6000546001600160a01b031690565b60095481565b60085481565b600c6020528260005260406000206020528160005260406000208181548110611d1057fe5b6000918252602090912001546001600160a01b0316925083915050565b6002546201000090046001600160a01b031681565b600d546001600160a01b03163314611d8b5760405162461bcd60e51b815260040180806020018281038252602b81526020018061433c602b913960400191505060405180910390fd5b6001600160a01b038116611de8576040805162461bcd60e51b8152602060048083019190915260248201527f7a65726f00000000000000000000000000000000000000000000000000000000604482015290519081900360640190fd5b601980547fffffffffffffffffffffffff0000000000000000000000000000000000000000166001600160a01b0392909216919091179055565b61032081565b600d546001600160a01b03163314611e715760405162461bcd60e51b815260040180806020018281038252602b81526020018061433c602b913960400191505060405180910390fd5b600d80547fffffffffffffffffffffffff0000000000000000000000000000000000000000166001600160a01b0392909216919091179055565b600d546001600160a01b03163314611ef45760405162461bcd60e51b815260040180806020018281038252602b81526020018061433c602b913960400191505060405180910390fd5b6103206017541115611f4d576040805162461bcd60e51b815260206004820152601960248201527f427661756c747353747261746567793a20746f6f206869676800000000000000604482015290519081900360640190fd5b601755565b600d546001600160a01b03163314611f9b5760405162461bcd60e51b815260040180806020018281038252602b81526020018061433c602b913960400191505060405180910390fd5b6001600160a01b038084166000908152600c6020908152604080832093861683529281529190208251611fd0928401906141fc565b50505050565b600f546001600160a01b0316331461201f5760405162461bcd60e51b81526004018080602001828103825260278152602001806143886027913960400191505060405180910390fd5b600f80547fffffffffffffffffffffffff0000000000000000000000000000000000000000166001600160a01b0392909216919091179055565b600d546001600160a01b031633146120a25760405162461bcd60e51b815260040180806020018281038252602b81526020018061433c602b913960400191505060405180910390fd5b61032060145411156120fb576040805162461bcd60e51b815260206004820152601960248201527f427661756c747353747261746567793a20746f6f206869676800000000000000604482015290519081900360640190fd5b601455565b60025460ff1615612158576040805162461bcd60e51b815260206004820152601060248201527f5061757361626c653a2070617573656400000000000000000000000000000000604482015290519081900360640190fd5b600254610100900460ff166121b4576040805162461bcd60e51b815260206004820152600b60248201527f2169734175746f436f6d70000000000000000000000000000000000000000000604482015290519081900360640190fd5b600554604080516370a0823160e01b815230600482015290516000926001600160a01b0316916370a08231916024808301926020929190829003018186803b1580156121ff57600080fd5b505afa158015612213573d6000803e3d6000fd5b505050506040513d602081101561222957600080fd5b50516007546005549192506001600160a01b0391821691161480159061224f5750600081115b1561227157600554600754612271916001600160a01b03908116911683613524565b600654604080516370a0823160e01b815230600482015290516000926001600160a01b0316916370a08231916024808301926020929190829003018186803b1580156122bc57600080fd5b505afa1580156122d0573d6000803e3d6000fd5b505050506040513d60208110156122e657600080fd5b50516007546006549192506001600160a01b0391821691161480159061230c5750600081115b1561232e5760065460075461232e916001600160a01b03908116911683613524565b5050565b6126de81565b600d546001600160a01b031633146123815760405162461bcd60e51b815260040180806020018281038252602b81526020018061433c602b913960400191505060405180910390fd5b6016546001600160a01b03166123e0576040805162461bcd60e51b8152602060048083019190915260248201527f7a65726f00000000000000000000000000000000000000000000000000000000604482015290519081900360640190fd5b601680547fffffffffffffffffffffffff0000000000000000000000000000000000000000166001600160a01b0392909216919091179055565b600d546001600160a01b031633146124635760405162461bcd60e51b815260040180806020018281038252602b81526020018061433c602b913960400191505060405180910390fd5b600e80547fffffffffffffffffffffffff0000000000000000000000000000000000000000166001600160a01b0392909216919091179055565b6015546001600160a01b031681565b600f546001600160a01b031681565b60025460ff1615612513576040805162461bcd60e51b815260206004820152601060248201527f5061757361626c653a2070617573656400000000000000000000000000000000604482015290519081900360640190fd5b600254610100900460ff1661256f576040805162461bcd60e51b815260206004820152601c60248201527f427661756c747353747261746567793a202169734175746f436f6d7000000000604482015290519081900360640190fd5b600f5474010000000000000000000000000000000000000000900460ff16158061259d575061259d33611769565b6125ee576040805162461bcd60e51b815260206004820152601c60248201527f427661756c747353747261746567793a2021617574686f726973656400000000604482015290519081900360640190fd5b60028054906101000a90046001600160a01b03166001600160a01b031663e2bbb15860035460006040518363ffffffff1660e01b81526004018083815260200182815260200192505050600060405180830381600087803b15801561265257600080fd5b505af1158015612666573d6000803e3d6000fd5b5050600754604080516370a0823160e01b81523060048201529051600094506001600160a01b0390921692506370a08231916024808301926020929190829003018186803b1580156126b757600080fd5b505afa1580156126cb573d6000803e3d6000fd5b505050506040513d60208110156126e157600080fd5b5051600754604080516001600160a01b0390921682526020820183905280519293507f053fa1fc52294a40b4ff1a988765bd298c00caa24d685cc3f767dcfde254ef9a92918290030190a1600061273782613718565b90506000612744836137ba565b9050600061275184613a02565b90506127698161276384818888613000565b90613000565b600a54600754919550612789916001600160a01b03908116911686613cce565b6005546007546001600160a01b039081169116146127d4576007546005546008546127d4926001600160a01b039081169216906127cf90612710906116d7908a906132fe565b613524565b6006546007546001600160a01b0390811691161461281a5760075460065460095461281a926001600160a01b039081169216906127cf90612710906116d7908a906132fe565b600554604080516370a0823160e01b815230600482015290516000926001600160a01b0316916370a08231916024808301926020929190829003018186803b15801561286557600080fd5b505afa158015612879573d6000803e3d6000fd5b505050506040513d602081101561288f57600080fd5b5051600654604080516370a0823160e01b815230600482015290519293506000926001600160a01b03909216916370a0823191602480820192602092909190829003018186803b1580156128e257600080fd5b505afa1580156128f6573d6000803e3d6000fd5b505050506040513d602081101561290c57600080fd5b50519050811580159061291f5750600081115b1561299c57600554600654612942916001600160a01b0390811691168484613db5565b600554600654604080516001600160a01b0393841681526020810186905291909216818301526060810183905290517f44552da03f807ace3e5f27e98e694712dfe668c743514b28d4d9f5ab70574b0f9181900360800190a15b436010556129a8613049565b505050505050565b6006546001600160a01b031681565b600f5474010000000000000000000000000000000000000000900460ff1681565b600754604080516370a0823160e01b8152306004820152905160009283926001600160a01b03909116916370a0823191602480820192602092909190829003018186803b158015612a3057600080fd5b505afa158015612a44573d6000803e3d6000fd5b505050506040513d6020811015612a5a57600080fd5b5051600254600354604080517fcf4b55cb000000000000000000000000000000000000000000000000000000008152600481019290925230602483015251929350611cca9284926201000090046001600160a01b03169163cf4b55cb916044808301926020929190829003018186803b158015612ad657600080fd5b505afa158015612aea573d6000803e3d6000fd5b505050506040513d6020811015612b0057600080fd5b505190613399565b600a546001600160a01b031681565b60145481565b60175481565b600254610100900460ff1681565b6007546001600160a01b031681565b6004546001600160a01b031681565b60035481565b612b5d613272565b6000546001600160a01b03908116911614612bbf576040805162461bcd60e51b815260206004820181905260248201527f4f776e61626c653a2063616c6c6572206973206e6f7420746865206f776e6572604482015290519081900360640190fd5b6001600160a01b038116612c045760405162461bcd60e51b81526004018080602001828103825260268152602001806143166026913960400191505060405180910390fd5b600080546040516001600160a01b03808516939216917f8be0079c531659141344cd1fd0a4f28419497f9722a3daafe3b4186f6b6457e091a3600080547fffffffffffffffffffffffff0000000000000000000000000000000000000000166001600160a01b0392909216919091179055565b6000612c81613272565b6000546001600160a01b03908116911614612ce3576040805162461bcd60e51b815260206004820181905260248201527f4f776e61626c653a2063616c6c6572206973206e6f7420746865206f776e6572604482015290519081900360640190fd5b60026001541415612d3b576040805162461bcd60e51b815260206004820152601f60248201527f5265656e7472616e637947756172643a207265656e7472616e742063616c6c00604482015290519081900360640190fd5b600260015581612d92576040805162461bcd60e51b815260206004820152601a60248201527f427661756c747353747261746567793a20215f77616e74416d74000000000000604482015290519081900360640190fd5b600254610100900460ff1615612e1e5760028054906101000a90046001600160a01b03166001600160a01b031663441a3e70600354846040518363ffffffff1660e01b81526004018083815260200182815260200192505050600060405180830381600087803b158015612e0557600080fd5b505af1158015612e19573d6000803e3d6000fd5b505050505b60048054604080516370a0823160e01b81523093810193909352516000926001600160a01b03909216916370a08231916024808301926020929190829003018186803b158015612e6d57600080fd5b505afa158015612e81573d6000803e3d6000fd5b505050506040513d6020811015612e9757600080fd5b5051905080831115612ea7578092505b826011541015612eb75760115492505b6000612ed46011546116d7601254876132fe90919063ffffffff16565b9050601254811115612ee557506012545b601254612ef29082613000565b601255601154612f029085613000565b601155600454612f1c906001600160a01b031633866133f3565b6040805185815290517f5b6b431d4476a211bb7d41c20d1aab9ae2321deee0d20be3d9fc9b1093fa6e3d9181900360200190a160018055949350505050565b600d546001600160a01b03163314612fa45760405162461bcd60e51b815260040180806020018281038252602b81526020018061433c602b913960400191505060405180910390fd5b61012c811115612ffb576040805162461bcd60e51b815260206004820152601960248201527f427661756c747353747261746567793a20746f6f206869676800000000000000604482015290519081900360640190fd5b601355565b600061304283836040518060400160405280601e81526020017f536166654d6174683a207375627472616374696f6e206f766572666c6f770000815250613ed2565b9392505050565b60048054604080516370a0823160e01b81523093810193909352516000926001600160a01b03909216916370a08231916024808301926020929190829003018186803b15801561309857600080fd5b505afa1580156130ac573d6000803e3d6000fd5b505050506040513d60208110156130c257600080fd5b50516011549091506130d49082613399565b6011556002546004546130fb916001600160a01b0391821691620100009091041683613cce565b60028054906101000a90046001600160a01b03166001600160a01b031663e2bbb158600354836040518363ffffffff1660e01b81526004018083815260200182815260200192505050600060405180830381600087803b15801561315e57600080fd5b505af1158015613172573d6000803e3d6000fd5b50506040805184815290517fc217459869eed80bfbe5c11e78ab58912eedfd106342671821b6e96d1615dc7f9350908190036020019150a150565b60025460ff16613204576040805162461bcd60e51b815260206004820152601460248201527f5061757361626c653a206e6f7420706175736564000000000000000000000000604482015290519081900360640190fd5b600280547fffffffffffffffffffffffffffffffffffffffffffffffffffffffffffffff001690557f5db9ee0a495bf2e6ff9c91a7834c1ba4fdd244a5e8aa4e537bd38aeae4b073aa613255613272565b604080516001600160a01b039092168252519081900360200190a1565b3390565b604080516001600160a01b0380861660248301528416604482015260648082018490528251808303909101815260849091019091526020810180517bffffffffffffffffffffffffffffffffffffffffffffffffffffffff167f23b872dd00000000000000000000000000000000000000000000000000000000179052611fd0908590613f69565b60008261330d57506000611754565b8282028284828161331a57fe5b04146130425760405162461bcd60e51b81526004018080602001828103825260218152602001806143676021913960400191505060405180910390fd5b600061304283836040518060400160405280601a81526020017f536166654d6174683a206469766973696f6e206279207a65726f00000000000081525061401a565b600082820183811015613042576040805162461bcd60e51b815260206004820152601b60248201527f536166654d6174683a206164646974696f6e206f766572666c6f770000000000604482015290519081900360640190fd5b604080516001600160a01b038416602482015260448082018490528251808303909101815260649091019091526020810180517bffffffffffffffffffffffffffffffffffffffffffffffffffffffff167fa9059cbb00000000000000000000000000000000000000000000000000000000179052613473908490613f69565b505050565b60025460ff16156134d0576040805162461bcd60e51b815260206004820152601060248201527f5061757361626c653a2070617573656400000000000000000000000000000000604482015290519081900360640190fd5b600280547fffffffffffffffffffffffffffffffffffffffffffffffffffffffffffffff001660011790557f62e78cea01bee320cd4e420270b5ea74000d11b0c9f74754ebdbfc544b05a258613255613272565b600a5461353e906001600160a01b03858116911683613cce565b600a546001600160a01b038481166000908152600c602090815260408083208785168452909152902091169063bff51d71908590859085906001903061358642610708613399565b6040518863ffffffff1660e01b815260040180886001600160a01b03168152602001876001600160a01b0316815260200186815260200185815260200180602001846001600160a01b03168152602001838152602001828103825285818154815260200191508054801561362357602002820191906000526020600020905b81546001600160a01b03168152600190910190602001808311613605575b505098505050505050505050600060405180830381600087803b15801561364957600080fd5b505af115801561365d573d6000803e3d6000fd5b505050506040513d6000823e601f3d908101601f19168201604052602081101561368657600080fd5b81019080805160405193929190846401000000008211156136a657600080fd5b9083019060208201858111156136bb57600080fd5b82518660208202830111640100000000821117156136d857600080fd5b82525081516020918201928201910280838360005b838110156137055781810151838201526020016136ed565b5050505090500160405250505050505050565b600081156117aa57601354156117aa576137436127106116d7601354856132fe90919063ffffffff16565b600d54600754919250613763916001600160a01b039081169116836133f3565b600754600d54604080516001600160a01b03938416815260208101859052919092168183015290517f056e5430e11cfdfb90a183ec3bf63ed22abe70cdf4e7bd3018d8b459bbd7f6199181900360600190a1919050565b60145460009015806137d557506016546001600160a01b0316155b156137e2575060006117aa565b60006137ff6127106116d7601454866132fe90919063ffffffff16565b6007546001600160a01b039081166000908152600c6020908152604080832060155485168085529083528184205460165483516370a0823160e01b81529616600487015291519596509094929390926370a0823192602480840193919291829003018186803b15801561387157600080fd5b505afa158015613885573d6000803e3d6000fd5b505050506040513d602081101561389b57600080fd5b5051905081158015906138bf57506015546007546001600160a01b03908116911614155b156138e6576007546015546138e1916001600160a01b03908116911685613524565b613903565b601654600754613903916001600160a01b039182169116856133f3565b601554601654604080516370a0823160e01b81526001600160a01b039283166004820152905160009392909216916370a0823191602480820192602092909190829003018186803b15801561395757600080fd5b505afa15801561396b573d6000803e3d6000fd5b505050506040513d602081101561398157600080fd5b5051905060006139918284613000565b600754601554601654604080516001600160a01b03948516815292841660208401528281018a9052606083018590529216608082015290519192507fb152a9c4203a9515a80fadb5b18afb6bfce5350eccdfda9d0908ac37ec094222919081900360a00190a1509295945050505050565b6017546000901580613a1d57506019546001600160a01b0316155b15613a2a575060006117aa565b6000613a476127106116d7601754866132fe90919063ffffffff16565b6007546001600160a01b039081166000908152600c6020908152604080832060185485168085529083528184205460195483516370a0823160e01b81529616600487015291519596509094929390926370a0823192602480840193919291829003018186803b158015613ab957600080fd5b505afa158015613acd573d6000803e3d6000fd5b505050506040513d6020811015613ae357600080fd5b505190508115801590613b0757506018546007546001600160a01b03908116911614155b15613b2e57600754601854613b29916001600160a01b03908116911685613524565b613b4b565b601954600754613b4b916001600160a01b039182169116856133f3565b601854601954604080516370a0823160e01b81526001600160a01b039283166004820152905160009392909216916370a0823191602480820192602092909190829003018186803b158015613b9f57600080fd5b505afa158015613bb3573d6000803e3d6000fd5b505050506040513d6020811015613bc957600080fd5b505190506000613bd98284613000565b90508015613cc357601954604080517f50afa34b0000000000000000000000000000000000000000000000000000000081526004810184905290516001600160a01b03909216916350afa34b9160248082019260009290919082900301818387803b158015613c4757600080fd5b505af1158015613c5b573d6000803e3d6000fd5b5050600754601854601954604080516001600160a01b03948516815292841660208401528281018b9052606083018790529216608082015290517fb152a9c4203a9515a80fadb5b18afb6bfce5350eccdfda9d0908ac37ec09422293509081900360a0019150a15b509295945050505050565b6000613d3282856001600160a01b031663dd62ed3e30876040518363ffffffff1660e01b815260040180836001600160a01b03168152602001826001600160a01b031681526020019250505060206040518083038186803b158015612ad657600080fd5b604080516001600160a01b038616602482015260448082018490528251808303909101815260649091019091526020810180517bffffffffffffffffffffffffffffffffffffffffffffffffffffffff167f095ea7b300000000000000000000000000000000000000000000000000000000179052909150611fd0908590613f69565b600a54613dcf906001600160a01b03868116911684613cce565b600a54613de9906001600160a01b03858116911683613cce565b600a546004546001600160a01b039182169163fbf4513591168686868660008030613e1642610708613399565b6040518a63ffffffff1660e01b8152600401808a6001600160a01b03168152602001896001600160a01b03168152602001886001600160a01b03168152602001878152602001868152602001858152602001848152602001836001600160a01b031681526020018281526020019950505050505050505050606060405180830381600087803b158015613ea857600080fd5b505af1158015613ebc573d6000803e3d6000fd5b505050506040513d60608110156129a857600080fd5b60008184841115613f615760405162461bcd60e51b81526004018080602001828103825283818151815260200191508051906020019080838360005b83811015613f26578181015183820152602001613f0e565b50505050905090810190601f168015613f535780820380516001836020036101000a031916815260200191505b509250505060405180910390fd5b505050900390565b6060613fbe826040518060400160405280602081526020017f5361666545524332303a206c6f772d6c6576656c2063616c6c206661696c6564815250856001600160a01b031661407f9092919063ffffffff16565b80519091501561347357808060200190516020811015613fdd57600080fd5b50516134735760405162461bcd60e51b815260040180806020018281038252602a8152602001806143af602a913960400191505060405180910390fd5b600081836140695760405162461bcd60e51b8152602060048201818152835160248401528351909283926044909101919085019080838360008315613f26578181015183820152602001613f0e565b50600083858161407557fe5b0495945050505050565b606061135584846000856060614094856141f6565b6140e5576040805162461bcd60e51b815260206004820152601d60248201527f416464726573733a2063616c6c20746f206e6f6e2d636f6e7472616374000000604482015290519081900360640190fd5b60006060866001600160a01b031685876040518082805190602001908083835b602083106141245780518252601f199092019160209182019101614105565b6001836020036101000a03801982511681845116808217855250505050505090500191505060006040518083038185875af1925050503d8060008114614186576040519150601f19603f3d011682016040523d82523d6000602084013e61418b565b606091505b5091509150811561419f5791506113559050565b8051156141af5780518082602001fd5b60405162461bcd60e51b8152602060048201818152865160248401528651879391928392604401919085019080838360008315613f26578181015183820152602001613f0e565b3b151590565b828054828255906000526020600020908101928215614269579160200282015b8281111561426957825182547fffffffffffffffffffffffff0000000000000000000000000000000000000000166001600160a01b0390911617825560209092019160019091019061421c565b50614275929150614279565b5090565b5b808211156142755780547fffffffffffffffffffffffff000000000000000000000000000000000000000016815560010161427a56fe427661756c747353747261746567793a3a657865637574655472616e73616374696f6e3a205472616e73616374696f6e20657865637574696f6e2072657665727465642e427661756c747353747261746567793a202173616665202d20746f6f20686967684f776e61626c653a206e6577206f776e657220697320746865207a65726f2061646472657373427661756c747353747261746567793a2063616c6c6572206973206e6f7420746865206f70657261746f72536166654d6174683a206d756c7469706c69636174696f6e206f766572666c6f77427661756c747353747261746567793a2063616c6c6572206973206e6f742074696d656c6f636b5361666545524332303a204552433230206f7065726174696f6e20646964206e6f742073756363656564a26469706673582212209cbace3f86841fe10884138289b8fd921677894c22f53e0142e5790f7ee0d5b864736f6c634300060c00334f776e61626c653a206e6577206f776e657220697320746865207a65726f20616464726573738be0079c531659141344cd1fd0a4f28419497f9722a3daafe3b4186f6b6457e0",
  "linkReferences": {},
  "deployedLinkReferences": {}
}