{
  "_format": "hh-sol-artifact-1",
  "contractName": "BvaultsStrategy",
  "sourceName": "contracts/BvaultsStrategy.alpaca.pair.sol",
  "abi": [
    {
      "inputs": [
        {
          "internalType": "address",
          "name": "_controller",
          "type": "address"
        },
        {
          "internalType": "bool",
          "name": "_isAutoComp",
          "type": "bool"
        },
        {
          "internalType": "address",
          "name": "_farmContractAddress",
          "type": "address"
        },
        {
          "internalType": "uint256",
          "name": "_pid",
          "type": "uint256"
        },
        {
          "internalType": "address",
          "name": "_wantAddress",
          "type": "address"
        },
        {
          "internalType": "address",
          "name": "_earnedAddress",
          "type": "address"
        },
        {
          "internalType": "address",
          "name": "_uniRouterAddress",
          "type": "address"
        },
        {
          "internalType": "address[]",
          "name": "_buyBackToken1Info",
          "type": "address[]"
        },
        {
          "internalType": "address[]",
          "name": "_buyBackToken2Info",
          "type": "address[]"
        },
        {
          "internalType": "address",
          "name": "_token0Address",
          "type": "address"
        },
        {
          "internalType": "address",
          "name": "_token1Address",
          "type": "address"
        }
      ],
      "stateMutability": "nonpayable",
      "type": "constructor"
    },
    {
      "anonymous": false,
      "inputs": [
        {
          "indexed": false,
          "internalType": "address",
          "name": "earnedAddress",
          "type": "address"
        },
        {
          "indexed": false,
          "internalType": "address",
          "name": "buyBackToken",
          "type": "address"
        },
        {
          "indexed": false,
          "internalType": "uint256",
          "name": "earnedAmt",
          "type": "uint256"
        },
        {
          "indexed": false,
          "internalType": "uint256",
          "name": "buyBackAmt",
          "type": "uint256"
        },
        {
          "indexed": false,
          "internalType": "address",
          "name": "receiver",
          "type": "address"
        }
      ],
      "name": "BuyBack",
      "type": "event"
    },
    {
      "anonymous": false,
      "inputs": [
        {
          "indexed": false,
          "internalType": "address",
          "name": "token0Address",
          "type": "address"
        },
        {
          "indexed": false,
          "internalType": "uint256",
          "name": "token0Amt",
          "type": "uint256"
        },
        {
          "indexed": false,
          "internalType": "address",
          "name": "token1Address",
          "type": "address"
        },
        {
          "indexed": false,
          "internalType": "uint256",
          "name": "token1Amt",
          "type": "uint256"
        }
      ],
      "name": "Compound",
      "type": "event"
    },
    {
      "anonymous": false,
      "inputs": [
        {
          "indexed": false,
          "internalType": "address",
          "name": "tokenAddress",
          "type": "address"
        },
        {
          "indexed": false,
          "internalType": "address",
          "name": "earnedAddress",
          "type": "address"
        },
        {
          "indexed": false,
          "internalType": "uint256",
          "name": "tokenAmt",
          "type": "uint256"
        }
      ],
      "name": "ConvertDustToEarned",
      "type": "event"
    },
    {
      "anonymous": false,
      "inputs": [
        {
          "indexed": false,
          "internalType": "uint256",
          "name": "amount",
          "type": "uint256"
        }
      ],
      "name": "Deposit",
      "type": "event"
    },
    {
      "anonymous": false,
      "inputs": [
        {
          "indexed": false,
          "internalType": "address",
          "name": "earnedAddress",
          "type": "address"
        },
        {
          "indexed": false,
          "internalType": "uint256",
          "name": "fee",
          "type": "uint256"
        },
        {
          "indexed": false,
          "internalType": "address",
          "name": "receiver",
          "type": "address"
        }
      ],
      "name": "DistributeFee",
      "type": "event"
    },
    {
      "anonymous": false,
      "inputs": [
        {
          "indexed": false,
          "internalType": "address",
          "name": "earnedAddress",
          "type": "address"
        },
        {
          "indexed": false,
          "internalType": "uint256",
          "name": "earnedAmt",
          "type": "uint256"
        }
      ],
      "name": "Earned",
      "type": "event"
    },
    {
      "anonymous": false,
      "inputs": [
        {
          "indexed": true,
          "internalType": "address",
          "name": "target",
          "type": "address"
        },
        {
          "indexed": false,
          "internalType": "uint256",
          "name": "value",
          "type": "uint256"
        },
        {
          "indexed": false,
          "internalType": "string",
          "name": "signature",
          "type": "string"
        },
        {
          "indexed": false,
          "internalType": "bytes",
          "name": "data",
          "type": "bytes"
        }
      ],
      "name": "ExecuteTransaction",
      "type": "event"
    },
    {
      "anonymous": false,
      "inputs": [
        {
          "indexed": false,
          "internalType": "uint256",
          "name": "amount",
          "type": "uint256"
        }
      ],
      "name": "Farm",
      "type": "event"
    },
    {
      "anonymous": false,
      "inputs": [
        {
          "indexed": false,
          "internalType": "address",
          "name": "tokenAddress",
          "type": "address"
        },
        {
          "indexed": false,
          "internalType": "uint256",
          "name": "tokenAmt",
          "type": "uint256"
        },
        {
          "indexed": false,
          "internalType": "address",
          "name": "receiver",
          "type": "address"
        }
      ],
      "name": "InCaseTokensGetStuck",
      "type": "event"
    },
    {
      "anonymous": false,
      "inputs": [
        {
          "indexed": true,
          "internalType": "address",
          "name": "previousOwner",
          "type": "address"
        },
        {
          "indexed": true,
          "internalType": "address",
          "name": "newOwner",
          "type": "address"
        }
      ],
      "name": "OwnershipTransferred",
      "type": "event"
    },
    {
      "anonymous": false,
      "inputs": [
        {
          "indexed": false,
          "internalType": "address",
          "name": "account",
          "type": "address"
        }
      ],
      "name": "Paused",
      "type": "event"
    },
    {
      "anonymous": false,
      "inputs": [
        {
          "indexed": false,
          "internalType": "address",
          "name": "account",
          "type": "address"
        }
      ],
      "name": "Unpaused",
      "type": "event"
    },
    {
      "anonymous": false,
      "inputs": [
        {
          "indexed": false,
          "internalType": "uint256",
          "name": "amount",
          "type": "uint256"
        }
      ],
      "name": "Withdraw",
      "type": "event"
    },
    {
      "inputs": [],
      "name": "balanceInPool",
      "outputs": [
        {
          "internalType": "uint256",
          "name": "",
          "type": "uint256"
        }
      ],
      "stateMutability": "view",
      "type": "function"
    },
    {
      "inputs": [],
      "name": "busdAddress",
      "outputs": [
        {
          "internalType": "address",
          "name": "",
          "type": "address"
        }
      ],
      "stateMutability": "view",
      "type": "function"
    },
    {
      "inputs": [],
      "name": "buyBackAddress1",
      "outputs": [
        {
          "internalType": "address",
          "name": "",
          "type": "address"
        }
      ],
      "stateMutability": "view",
      "type": "function"
    },
    {
      "inputs": [],
      "name": "buyBackAddress2",
      "outputs": [
        {
          "internalType": "address",
          "name": "",
          "type": "address"
        }
      ],
      "stateMutability": "view",
      "type": "function"
    },
    {
      "inputs": [],
      "name": "buyBackRate1",
      "outputs": [
        {
          "internalType": "uint256",
          "name": "",
          "type": "uint256"
        }
      ],
      "stateMutability": "view",
      "type": "function"
    },
    {
      "inputs": [],
      "name": "buyBackRate2",
      "outputs": [
        {
          "internalType": "uint256",
          "name": "",
          "type": "uint256"
        }
      ],
      "stateMutability": "view",
      "type": "function"
    },
    {
      "inputs": [],
      "name": "buyBackRateMax",
      "outputs": [
        {
          "internalType": "uint256",
          "name": "",
          "type": "uint256"
        }
      ],
      "stateMutability": "view",
      "type": "function"
    },
    {
      "inputs": [],
      "name": "buyBackRateUL",
      "outputs": [
        {
          "internalType": "uint256",
          "name": "",
          "type": "uint256"
        }
      ],
      "stateMutability": "view",
      "type": "function"
    },
    {
      "inputs": [],
      "name": "buyBackToken1",
      "outputs": [
        {
          "internalType": "address",
          "name": "",
          "type": "address"
        }
      ],
      "stateMutability": "view",
      "type": "function"
    },
    {
      "inputs": [],
      "name": "buyBackToken2",
      "outputs": [
        {
          "internalType": "address",
          "name": "",
          "type": "address"
        }
      ],
      "stateMutability": "view",
      "type": "function"
    },
    {
      "inputs": [],
      "name": "checkForUnlockReward",
      "outputs": [
        {
          "internalType": "bool",
          "name": "",
          "type": "bool"
        }
      ],
      "stateMutability": "view",
      "type": "function"
    },
    {
      "inputs": [],
      "name": "controllerFee",
      "outputs": [
        {
          "internalType": "uint256",
          "name": "",
          "type": "uint256"
        }
      ],
      "stateMutability": "view",
      "type": "function"
    },
    {
      "inputs": [],
      "name": "controllerFeeMax",
      "outputs": [
        {
          "internalType": "uint256",
          "name": "",
          "type": "uint256"
        }
      ],
      "stateMutability": "view",
      "type": "function"
    },
    {
      "inputs": [],
      "name": "controllerFeeUL",
      "outputs": [
        {
          "internalType": "uint256",
          "name": "",
          "type": "uint256"
        }
      ],
      "stateMutability": "view",
      "type": "function"
    },
    {
      "inputs": [],
      "name": "convertDustToEarned",
      "outputs": [],
      "stateMutability": "nonpayable",
      "type": "function"
    },
    {
      "inputs": [
        {
          "internalType": "address",
          "name": "",
          "type": "address"
        },
        {
          "internalType": "uint256",
          "name": "_wantAmt",
          "type": "uint256"
        }
      ],
      "name": "deposit",
      "outputs": [
        {
          "internalType": "uint256",
          "name": "",
          "type": "uint256"
        }
      ],
      "stateMutability": "nonpayable",
      "type": "function"
    },
    {
      "inputs": [],
      "name": "earn",
      "outputs": [],
      "stateMutability": "nonpayable",
      "type": "function"
    },
    {
      "inputs": [],
      "name": "earnedAddress",
      "outputs": [
        {
          "internalType": "address",
          "name": "",
          "type": "address"
        }
      ],
      "stateMutability": "view",
      "type": "function"
    },
    {
      "inputs": [],
      "name": "emergencyWithraw",
      "outputs": [],
      "stateMutability": "nonpayable",
      "type": "function"
    },
    {
      "inputs": [],
      "name": "entranceFeeFactor",
      "outputs": [
        {
          "internalType": "uint256",
          "name": "",
          "type": "uint256"
        }
      ],
      "stateMutability": "view",
      "type": "function"
    },
    {
      "inputs": [],
      "name": "entranceFeeFactorLL",
      "outputs": [
        {
          "internalType": "uint256",
          "name": "",
          "type": "uint256"
        }
      ],
      "stateMutability": "view",
      "type": "function"
    },
    {
      "inputs": [],
      "name": "entranceFeeFactorMax",
      "outputs": [
        {
          "internalType": "uint256",
          "name": "",
          "type": "uint256"
        }
      ],
      "stateMutability": "view",
      "type": "function"
    },
    {
      "inputs": [
        {
          "internalType": "address",
          "name": "target",
          "type": "address"
        },
        {
          "internalType": "uint256",
          "name": "value",
          "type": "uint256"
        },
        {
          "internalType": "string",
          "name": "signature",
          "type": "string"
        },
        {
          "internalType": "bytes",
          "name": "data",
          "type": "bytes"
        }
      ],
      "name": "executeTransaction",
      "outputs": [
        {
          "internalType": "bytes",
          "name": "",
          "type": "bytes"
        }
      ],
      "stateMutability": "nonpayable",
      "type": "function"
    },
    {
      "inputs": [],
      "name": "farm",
      "outputs": [],
      "stateMutability": "nonpayable",
      "type": "function"
    },
    {
      "inputs": [],
      "name": "farmContractAddress",
      "outputs": [
        {
          "internalType": "address",
          "name": "",
          "type": "address"
        }
      ],
      "stateMutability": "view",
      "type": "function"
    },
    {
      "inputs": [
        {
          "internalType": "address",
          "name": "_token",
          "type": "address"
        },
        {
          "internalType": "uint256",
          "name": "_amount",
          "type": "uint256"
        },
        {
          "internalType": "address",
          "name": "_to",
          "type": "address"
        }
      ],
      "name": "inCaseTokensGetStuck",
      "outputs": [],
      "stateMutability": "nonpayable",
      "type": "function"
    },
    {
      "inputs": [
        {
          "internalType": "address",
          "name": "_account",
          "type": "address"
        }
      ],
      "name": "isAuthorised",
      "outputs": [
        {
          "internalType": "bool",
          "name": "",
          "type": "bool"
        }
      ],
      "stateMutability": "view",
      "type": "function"
    },
    {
      "inputs": [],
      "name": "isAutoComp",
      "outputs": [
        {
          "internalType": "bool",
          "name": "",
          "type": "bool"
        }
      ],
      "stateMutability": "view",
      "type": "function"
    },
    {
      "inputs": [],
      "name": "lastEarnBlock",
      "outputs": [
        {
          "internalType": "uint256",
          "name": "",
          "type": "uint256"
        }
      ],
      "stateMutability": "view",
      "type": "function"
    },
    {
      "inputs": [],
      "name": "notPublic",
      "outputs": [
        {
          "internalType": "bool",
          "name": "",
          "type": "bool"
        }
      ],
      "stateMutability": "view",
      "type": "function"
    },
    {
      "inputs": [],
      "name": "operator",
      "outputs": [
        {
          "internalType": "address",
          "name": "",
          "type": "address"
        }
      ],
      "stateMutability": "view",
      "type": "function"
    },
    {
      "inputs": [],
      "name": "owner",
      "outputs": [
        {
          "internalType": "address",
          "name": "",
          "type": "address"
        }
      ],
      "stateMutability": "view",
      "type": "function"
    },
    {
      "inputs": [
        {
          "internalType": "address",
          "name": "",
          "type": "address"
        },
        {
          "internalType": "address",
          "name": "",
          "type": "address"
        },
        {
          "internalType": "uint256",
          "name": "",
          "type": "uint256"
        }
      ],
      "name": "paths",
      "outputs": [
        {
          "internalType": "address",
          "name": "",
          "type": "address"
        }
      ],
      "stateMutability": "view",
      "type": "function"
    },
    {
      "inputs": [],
      "name": "pause",
      "outputs": [],
      "stateMutability": "nonpayable",
      "type": "function"
    },
    {
      "inputs": [],
      "name": "paused",
      "outputs": [
        {
          "internalType": "bool",
          "name": "",
          "type": "bool"
        }
      ],
      "stateMutability": "view",
      "type": "function"
    },
    {
      "inputs": [],
      "name": "pendingHarvest",
      "outputs": [
        {
          "internalType": "uint256",
          "name": "",
          "type": "uint256"
        }
      ],
      "stateMutability": "view",
      "type": "function"
    },
    {
      "inputs": [],
      "name": "pendingHarvestDollarValue",
      "outputs": [
        {
          "internalType": "uint256",
          "name": "",
          "type": "uint256"
        }
      ],
      "stateMutability": "view",
      "type": "function"
    },
    {
      "inputs": [],
      "name": "pid",
      "outputs": [
        {
          "internalType": "uint256",
          "name": "",
          "type": "uint256"
        }
      ],
      "stateMutability": "view",
      "type": "function"
    },
    {
      "inputs": [],
      "name": "renounceOwnership",
      "outputs": [],
      "stateMutability": "nonpayable",
      "type": "function"
    },
    {
      "inputs": [],
      "name": "resumeStrategy",
      "outputs": [],
      "stateMutability": "nonpayable",
      "type": "function"
    },
    {
      "inputs": [
        {
          "internalType": "address",
          "name": "_buyBackAddress1",
          "type": "address"
        }
      ],
      "name": "setBuyBackAddress1",
      "outputs": [],
      "stateMutability": "nonpayable",
      "type": "function"
    },
    {
      "inputs": [
        {
          "internalType": "address",
          "name": "_buyBackAddress2",
          "type": "address"
        }
      ],
      "name": "setBuyBackAddress2",
      "outputs": [],
      "stateMutability": "nonpayable",
      "type": "function"
    },
    {
      "inputs": [
        {
          "internalType": "uint256",
          "name": "_buyBackRate1",
          "type": "uint256"
        }
      ],
      "name": "setBuyBackRate1",
      "outputs": [],
      "stateMutability": "nonpayable",
      "type": "function"
    },
    {
      "inputs": [
        {
          "internalType": "uint256",
          "name": "_buyBackRate2",
          "type": "uint256"
        }
      ],
      "name": "setBuyBackRate2",
      "outputs": [],
      "stateMutability": "nonpayable",
      "type": "function"
    },
    {
      "inputs": [
        {
          "internalType": "bool",
          "name": "_checkForUnlockReward",
          "type": "bool"
        }
      ],
      "name": "setCheckForUnlockReward",
      "outputs": [],
      "stateMutability": "nonpayable",
      "type": "function"
    },
    {
      "inputs": [
        {
          "internalType": "uint256",
          "name": "_controllerFee",
          "type": "uint256"
        }
      ],
      "name": "setControllerFee",
      "outputs": [],
      "stateMutability": "nonpayable",
      "type": "function"
    },
    {
      "inputs": [
        {
          "internalType": "uint256",
          "name": "_entranceFeeFactor",
          "type": "uint256"
        }
      ],
      "name": "setEntranceFeeFactor",
      "outputs": [],
      "stateMutability": "nonpayable",
      "type": "function"
    },
    {
      "inputs": [
        {
          "internalType": "address[]",
          "name": "_earnedToBuyBackToken1Path",
          "type": "address[]"
        },
        {
          "internalType": "address[]",
          "name": "_earnedToBuyBackToken2Path",
          "type": "address[]"
        },
        {
          "internalType": "address[]",
          "name": "_earnedToBusdPath",
          "type": "address[]"
        },
        {
          "internalType": "address[]",
          "name": "_earnedToToken0Path",
          "type": "address[]"
        },
        {
          "internalType": "address[]",
          "name": "_earnedToToken1Path",
          "type": "address[]"
        },
        {
          "internalType": "address[]",
          "name": "_token0ToEarnedPath",
          "type": "address[]"
        },
        {
          "internalType": "address[]",
          "name": "_token1ToEarnedPath",
          "type": "address[]"
        }
      ],
      "name": "setMainPaths",
      "outputs": [],
      "stateMutability": "nonpayable",
      "type": "function"
    },
    {
      "inputs": [
        {
          "internalType": "bool",
          "name": "_notPublic",
          "type": "bool"
        }
      ],
      "name": "setNotPublic",
      "outputs": [],
      "stateMutability": "nonpayable",
      "type": "function"
    },
    {
      "inputs": [
        {
          "internalType": "address",
          "name": "_operator",
          "type": "address"
        }
      ],
      "name": "setOperator",
      "outputs": [],
      "stateMutability": "nonpayable",
      "type": "function"
    },
    {
      "inputs": [
        {
          "internalType": "address",
          "name": "_inputToken",
          "type": "address"
        },
        {
          "internalType": "address",
          "name": "_outputToken",
          "type": "address"
        },
        {
          "internalType": "address[]",
          "name": "_path",
          "type": "address[]"
        }
      ],
      "name": "setPath",
      "outputs": [],
      "stateMutability": "nonpayable",
      "type": "function"
    },
    {
      "inputs": [
        {
          "internalType": "address",
          "name": "_strategist",
          "type": "address"
        }
      ],
      "name": "setStrategist",
      "outputs": [],
      "stateMutability": "nonpayable",
      "type": "function"
    },
    {
      "inputs": [
        {
          "internalType": "address",
          "name": "_timelock",
          "type": "address"
        }
      ],
      "name": "setTimelock",
      "outputs": [],
      "stateMutability": "nonpayable",
      "type": "function"
    },
    {
      "inputs": [],
      "name": "sharesTotal",
      "outputs": [
        {
          "internalType": "uint256",
          "name": "",
          "type": "uint256"
        }
      ],
      "stateMutability": "view",
      "type": "function"
    },
    {
      "inputs": [],
      "name": "strategist",
      "outputs": [
        {
          "internalType": "address",
          "name": "",
          "type": "address"
        }
      ],
      "stateMutability": "view",
      "type": "function"
    },
    {
      "inputs": [],
      "name": "strategyStopped",
      "outputs": [
        {
          "internalType": "bool",
          "name": "",
          "type": "bool"
        }
      ],
      "stateMutability": "view",
      "type": "function"
    },
    {
      "inputs": [],
      "name": "timelock",
      "outputs": [
        {
          "internalType": "address",
          "name": "",
          "type": "address"
        }
      ],
      "stateMutability": "view",
      "type": "function"
    },
    {
      "inputs": [],
      "name": "token0Address",
      "outputs": [
        {
          "internalType": "address",
          "name": "",
          "type": "address"
        }
      ],
      "stateMutability": "view",
      "type": "function"
    },
    {
      "inputs": [],
      "name": "token1Address",
      "outputs": [
        {
          "internalType": "address",
          "name": "",
          "type": "address"
        }
      ],
      "stateMutability": "view",
      "type": "function"
    },
    {
      "inputs": [
        {
          "internalType": "address",
          "name": "newOwner",
          "type": "address"
        }
      ],
      "name": "transferOwnership",
      "outputs": [],
      "stateMutability": "nonpayable",
      "type": "function"
    },
    {
      "inputs": [
        {
          "internalType": "uint256",
          "name": "_tokenAmount",
          "type": "uint256"
        },
        {
          "internalType": "address[]",
          "name": "_path",
          "type": "address[]"
        }
      ],
      "name": "uniExchangeRate",
      "outputs": [
        {
          "internalType": "uint256",
          "name": "",
          "type": "uint256"
        }
      ],
      "stateMutability": "view",
      "type": "function"
    },
    {
      "inputs": [],
      "name": "uniRouterAddress",
      "outputs": [
        {
          "internalType": "address",
          "name": "",
          "type": "address"
        }
      ],
      "stateMutability": "view",
      "type": "function"
    },
    {
      "inputs": [],
      "name": "unpause",
      "outputs": [],
      "stateMutability": "nonpayable",
      "type": "function"
    },
    {
      "inputs": [],
      "name": "wantAddress",
      "outputs": [
        {
          "internalType": "address",
          "name": "",
          "type": "address"
        }
      ],
      "stateMutability": "view",
      "type": "function"
    },
    {
      "inputs": [],
      "name": "wantLockedTotal",
      "outputs": [
        {
          "internalType": "uint256",
          "name": "",
          "type": "uint256"
        }
      ],
      "stateMutability": "view",
      "type": "function"
    },
    {
      "inputs": [],
      "name": "wbnbAddress",
      "outputs": [
        {
          "internalType": "address",
          "name": "",
          "type": "address"
        }
      ],
      "stateMutability": "view",
      "type": "function"
    },
    {
      "inputs": [
        {
          "internalType": "address",
          "name": "",
          "type": "address"
        },
        {
          "internalType": "uint256",
          "name": "_wantAmt",
          "type": "uint256"
        }
      ],
      "name": "withdraw",
      "outputs": [
        {
          "internalType": "uint256",
          "name": "",
          "type": "uint256"
        }
      ],
      "stateMutability": "nonpayable",
      "type": "function"
    }
  ],
  "bytecode": "0x60806040526002805463ffff000019169055600980546001600160a01b03199081167305ff2b0db69458a0750badebc4f9e13add608c7f17909155600c805460ff60a01b199083167392a082ad5a942140bcc791081f775900d0a514d9171690556000600d819055600e819055600f5560c860105560be6011556012805482167381859801b01764d4f0fa5e64729f5a6c3b91435b17905560138054821661dead908117909155606460145560158054831673190b589cf9fb8ddeabbfeae36a813ffb2a70245417905560168054909216179055612710601755348015620000e657600080fd5b50604051620057043803806200570483398181016040526101608110156200010d57600080fd5b815160208301516040808501516060860151608087015160a088015160c089015160e08a0180519651989a9799959894979396929591949391820192846401000000008211156200015d57600080fd5b9083019060208201858111156200017357600080fd5b82518660208202830111640100000000821117156200019157600080fd5b82525081516020918201928201910280838360005b83811015620001c0578181015183820152602001620001a6565b5050505090500160405260200180516040519392919084640100000000821115620001ea57600080fd5b9083019060208201858111156200020057600080fd5b82518660208202830111640100000000821117156200021e57600080fd5b82525081516020918201928201910280838360005b838110156200024d57818101518382015260200162000233565b5050505091909101604090815260208301519201519193509091506000905062000276620004cb565b600080546001600160a01b0319166001600160a01b038316908117825560405192935091600080516020620056e4833981519152908290a3506001805560028054600a8054336001600160a01b03199182168117909255600b8054821690921790915561ffff199091166101008d15150217909155600480549091166001600160a01b03898116919091179091558516156200032857600980546001600160a01b0319166001600160a01b0387161790555b836000815181106200033657fe5b6020026020010151601260006101000a8154816001600160a01b0302191690836001600160a01b03160217905550836001815181106200037257fe5b6020026020010151601360006101000a8154816001600160a01b0302191690836001600160a01b0316021790555082600081518110620003ae57fe5b6020026020010151601560006101000a8154816001600160a01b0302191690836001600160a01b0316021790555082600181518110620003ea57fe5b6020908102919091010151601680546001600160a01b0319166001600160a01b03909216919091179055600254610100900460ff16156200047f57600280546001600160a01b03808c1664010000000002600160201b600160c01b0319909216919091179091556003899055600780548883166001600160a01b03199182161790915560098054928816929091169190911790555b600580546001600160a01b038085166001600160a01b0319928316179092556006805492841692909116919091179055620004ba8b620004cf565b5050505050505050505050620005cd565b3390565b620004d9620004cb565b6000546001600160a01b039081169116146200053c576040805162461bcd60e51b815260206004820181905260248201527f4f776e61626c653a2063616c6c6572206973206e6f7420746865206f776e6572604482015290519081900360640190fd5b6001600160a01b038116620005835760405162461bcd60e51b8152600401808060200182810382526026815260200180620056be6026913960400191505060405180910390fd5b600080546040516001600160a01b0380851693921691600080516020620056e483398151915291a3600080546001600160a01b0319166001600160a01b0392909216919091179055565b6150e180620005dd6000396000f3fe608060405234801561001057600080fd5b50600436106104215760003560e01c80637ff36fbe11610235578063ce5328e411610135578063dfee1dd9116100c8578063ee50dc3411610097578063f2fde38b1161007c578063f2fde38b14610eb3578063f3fef3a314610ed9578063f400d31114610f0557610421565b8063ee50dc3414610ad3578063f106845414610eab57610421565b8063dfee1dd914610e8b578063e5dd455a14610e93578063e719847414610e9b578063e7a0367914610ea357610421565b8063d7cb416f11610104578063d7cb416f14610e6b578063d8be16da14610e73578063db7a3c0f14610e7b578063df5c8a9e14610e8357610421565b8063ce5328e414610e1d578063cef4cde414610e25578063d33219b414610e5b578063d389800f14610e6357610421565b8063b3545c01116101c8578063bf94c0ba11610197578063c302a4d01161017c578063c302a4d014610dc9578063c3ec8dda14610dd1578063c7b9d53014610df757610421565b8063bf94c0ba14610da4578063c11c2e9214610dc157610421565b8063b3545c0114610d33578063b3ab15fb14610d3b578063bb9928c614610d61578063bdacb30314610d7e57610421565b80638da5cb5b116102045780638da5cb5b14610cf55780639b5e8b1414610cfd5780639fc33a9f14610d05578063a552863214610d0d57610421565b80637ff36fbe14610cd55780638456cb5914610cdd57806385f02dd614610ce5578063889adfa814610ced57610421565b806345d6b66711610340578063607f35a0116102d35780636804d54a116102a2578063715018a611610287578063715018a614610cbd57806376a9023114610cc557806376ba098a14610ccd57610421565b80636804d54a14610c0b578063693a090b14610cb557610421565b8063607f35a014610bbd57806363fe3e3a14610bc557806366c31db714610bcd57806367206d4014610bd557610421565b80634d9f7bb21161030f5780634d9f7bb214610ad357806351b699cd14610b73578063570ca73514610bad5780635c975abb14610bb557610421565b806345d6b66714610b1857806347e7ef2414610b375780634838c5f114610b635780634a56fcd414610b6b57610421565b80631fe4a686116103b85780633e1a8912116103875780633e1a891214610ae35780633f4ba83a14610b0057806342da4eb314610b0857806344a3955e14610b1057610421565b80631fe4a686146109145780632224fa251461091c5780632717eff314610ad357806336e9332d14610adb57610421565b80631334903f116103f45780631334903f1461050e578063197c760b146105165780631a43da93146108d15780631f81650c146108f557610421565b8063055227a114610426578063061c7d48146104e45780630fa4e01e146104fe5780631295172314610506575b600080fd5b6104e26004803603606081101561043c57600080fd5b6001600160a01b03823581169260208101359091169181019060608101604082013564010000000081111561047057600080fd5b82018360208201111561048257600080fd5b803590602001918460208302840111640100000000831117156104a457600080fd5b919080806020026020016040519081016040528093929190818152602001838360200280828437600092019190915250929550610f22945050505050565b005b6104ec610fa6565b60408051918252519081900360200190f35b6104ec610fac565b6104e2610fb2565b6104ec61102d565b6104e2600480360360e081101561052c57600080fd5b81019060208101813564010000000081111561054757600080fd5b82018360208201111561055957600080fd5b8035906020019184602083028401116401000000008311171561057b57600080fd5b91908080602002602001604051908101604052809392919081815260200183836020028082843760009201919091525092959493602081019350359150506401000000008111156105cb57600080fd5b8201836020820111156105dd57600080fd5b803590602001918460208302840111640100000000831117156105ff57600080fd5b919080806020026020016040519081016040528093929190818152602001838360200280828437600092019190915250929594936020810193503591505064010000000081111561064f57600080fd5b82018360208201111561066157600080fd5b8035906020019184602083028401116401000000008311171561068357600080fd5b91908080602002602001604051908101604052809392919081815260200183836020028082843760009201919091525092959493602081019350359150506401000000008111156106d357600080fd5b8201836020820111156106e557600080fd5b8035906020019184602083028401116401000000008311171561070757600080fd5b919080806020026020016040519081016040528093929190818152602001838360200280828437600092019190915250929594936020810193503591505064010000000081111561075757600080fd5b82018360208201111561076957600080fd5b8035906020019184602083028401116401000000008311171561078b57600080fd5b91908080602002602001604051908101604052809392919081815260200183836020028082843760009201919091525092959493602081019350359150506401000000008111156107db57600080fd5b8201836020820111156107ed57600080fd5b8035906020019184602083028401116401000000008311171561080f57600080fd5b919080806020026020016040519081016040528093929190818152602001838360200280828437600092019190915250929594936020810193503591505064010000000081111561085f57600080fd5b82018360208201111561087157600080fd5b8035906020019184602083028401116401000000008311171561089357600080fd5b919080806020026020016040519081016040528093929190818152602001838360200280828437600092019190915250929550611033945050505050565b6108d9611235565b604080516001600160a01b039092168252519081900360200190f35b6104e26004803603602081101561090b57600080fd5b50351515611244565b6108d96112c6565b610a5e6004803603608081101561093257600080fd5b6001600160a01b038235169160208101359181019060608101604082013564010000000081111561096257600080fd5b82018360208201111561097457600080fd5b8035906020019184600183028401116401000000008311171561099657600080fd5b91908080601f01602080910402602001604051908101604052809392919081815260200183838082843760009201919091525092959493602081019350359150506401000000008111156109e957600080fd5b8201836020820111156109fb57600080fd5b80359060200191846001830284011164010000000083111715610a1d57600080fd5b91908080601f0160208091040260200160405190810160405280939291908181526020018383808284376000920191909152509295506112d5945050505050565b6040805160208082528351818301528351919283929083019185019080838360005b83811015610a98578181015183820152602001610a80565b50505050905090810190601f168015610ac55780820380516001836020036101000a031916815260200191505b509250505060405180910390f35b6104ec61160e565b6104e2611614565b6104e260048036036020811015610af957600080fd5b50356116c7565b6104e26117ac565b6104ec6117fd565b6104ec611803565b6104e260048036036020811015610b2e57600080fd5b50351515611809565b6104ec60048036036040811015610b4d57600080fd5b506001600160a01b03813516906020013561189c565b6104e2611a7a565b6108d9611c2d565b610b9960048036036020811015610b8957600080fd5b50356001600160a01b0316611c3c565b604080519115158252519081900360200190f35b6108d9611c82565b610b99611c91565b6108d9611c9a565b6108d9611ca9565b6104ec611cc1565b6104e260048036036060811015610beb57600080fd5b506001600160a01b03813581169160208101359160409091013516611d62565b6104ec60048036036040811015610c2157600080fd5b81359190810190604081016020820135640100000000811115610c4357600080fd5b820183602082011115610c5557600080fd5b80359060200191846020830284011164010000000083111715610c7757600080fd5b919080806020026020016040519081016040528093929190818152602001838360200280828437600092019190915250929550611ed4945050505050565b6108d9612089565b6104e2612098565b6108d9612164565b610b9961217c565b6108d961218c565b6104e261219b565b6104ec6121ec565b6104ec6121f2565b6108d96122ab565b610b996122ba565b6108d96122c9565b6104e260048036036020811015610d2357600080fd5b50356001600160a01b03166122e0565b6104ec6123c0565b6104e260048036036020811015610d5157600080fd5b50356001600160a01b03166123c6565b6104e260048036036020811015610d7757600080fd5b5035612449565b6104e260048036036020811015610d9457600080fd5b50356001600160a01b03166124f0565b6104e260048036036020811015610dba57600080fd5b5035612573565b6104e261261a565b6104ec612b16565b6104e260048036036020811015610de757600080fd5b50356001600160a01b0316612b1c565b6104e260048036036020811015610e0d57600080fd5b50356001600160a01b0316612bfe565b6108d9612c81565b6108d960048036036060811015610e3b57600080fd5b506001600160a01b03813581169160208101359091169060400135612c90565b6108d9612cd2565b6104e2612ce1565b6108d96135be565b610b996135cd565b6104ec6135ee565b6104ec613718565b6104ec61371e565b610b99613724565b6108d9613732565b6108d9613741565b6104ec613750565b6104e260048036036020811015610ec957600080fd5b50356001600160a01b0316613756565b6104ec60048036036040811015610eef57600080fd5b506001600160a01b038135169060200135613878565b6104e260048036036020811015610f1b57600080fd5b5035613b8b565b600a546001600160a01b03163314610f6b5760405162461bcd60e51b815260040180806020018281038252602b81526020018061500f602b913960400191505060405180910390fd5b6001600160a01b03808416600090815260086020908152604080832093861683529281529190208251610fa092840190614ea7565b50505050565b61012c81565b600d5481565b600a546001600160a01b03163314610ffb5760405162461bcd60e51b815260040180806020018281038252602b81526020018061500f602b913960400191505060405180910390fd5b600280547fffffffffffffffffffffffffffffffffffffffffffffffffffffffffff00ffff16905561102b611614565b565b60175481565b600a546001600160a01b0316331461107c5760405162461bcd60e51b815260040180806020018281038252602b81526020018061500f602b913960400191505060405180910390fd5b6007546001600160a01b039081166000908152600860209081526040808320601254909416835292815291902088516110b7928a0190614ea7565b506007546001600160a01b039081166000908152600860209081526040808320601554909416835292815291902087516110f392890190614ea7565b506007546001600160a01b0316600090815260086020908152604080832073e9e7cea3dedca5984780bafc599bd69add087d5684528252909120865161113b92880190614ea7565b506007546001600160a01b0390811660009081526008602090815260408083206005549094168352928152919020855161117792870190614ea7565b506007546001600160a01b039081166000908152600860209081526040808320600654909416835292815291902084516111b392860190614ea7565b506005546001600160a01b039081166000908152600860209081526040808320600754909416835292815291902083516111ef92850190614ea7565b506006546001600160a01b0390811660009081526008602090815260408083206007549094168352928152919020825161122b92840190614ea7565b5050505050505050565b6013546001600160a01b031681565b600a546001600160a01b0316331461128d5760405162461bcd60e51b815260040180806020018281038252602b81526020018061500f602b913960400191505060405180910390fd5b600280549115156301000000027fffffffffffffffffffffffffffffffffffffffffffffffffffffffff00ffffff909216919091179055565b600b546001600160a01b031681565b600c546060906001600160a01b031633146113215760405162461bcd60e51b815260040180806020018281038252602781526020018061505b6027913960400191505060405180910390fd5b60608351600014156113345750816113ea565b83805190602001208360405160200180837bffffffffffffffffffffffffffffffffffffffffffffffffffffffff1916815260040182805190602001908083835b602083106113b257805182527fffffffffffffffffffffffffffffffffffffffffffffffffffffffffffffffe09092019160209182019101611375565b6001836020036101000a0380198251168184511680821785525050505050509050019250505060405160208183030381529060405290505b60006060876001600160a01b031687846040518082805190602001908083835b6020831061144757805182527fffffffffffffffffffffffffffffffffffffffffffffffffffffffffffffffe0909201916020918201910161140a565b6001836020036101000a03801982511681845116808217855250505050505090500191505060006040518083038185875af1925050503d80600081146114a9576040519150601f19603f3d011682016040523d82523d6000602084013e6114ae565b606091505b5091509150816114ef5760405162461bcd60e51b8152600401808060200182810382526044815260200180614f5c6044913960600191505060405180910390fd5b876001600160a01b03167f88405ca50016c636e025868e263efe5a9f63bf11cc45404f7616394c7dc389d0888888604051808481526020018060200180602001838103835285818151815260200191508051906020019080838360005b8381101561156457818101518382015260200161154c565b50505050905090810190601f1680156115915780820380516001836020036101000a031916815260200191505b50838103825284518152845160209182019186019080838360005b838110156115c45781810151838201526020016115ac565b50505050905090810190601f1680156115f15780820380516001836020036101000a031916815260200191505b509550505050505060405180910390a2925050505b949350505050565b61271081565b6002600154141561166c576040805162461bcd60e51b815260206004820152601f60248201527f5265656e7472616e637947756172643a207265656e7472616e742063616c6c00604482015290519081900360640190fd5b600260018190555462010000900460ff16156116b95760405162461bcd60e51b8152600401808060200182810382526028815260200180614fc16028913960400191505060405180910390fd5b6116c1613c30565b60018055565b600a546001600160a01b031633146117105760405162461bcd60e51b815260040180806020018281038252602b81526020018061500f602b913960400191505060405180910390fd5b6126de8111611766576040805162461bcd60e51b815260206004820181905260248201527f427661756c747353747261746567793a202173616665202d20746f6f206c6f77604482015290519081900360640190fd5b6127108111156117a75760405162461bcd60e51b8152600401808060200182810382526021815260200180614fa06021913960400191505060405180910390fd5b601755565b600a546001600160a01b031633146117f55760405162461bcd60e51b815260040180806020018281038252602b81526020018061500f602b913960400191505060405180910390fd5b61102b613db0565b600e5481565b600f5481565b600a546001600160a01b031633146118525760405162461bcd60e51b815260040180806020018281038252602b81526020018061500f602b913960400191505060405180910390fd5b600c805491151574010000000000000000000000000000000000000000027fffffffffffffffffffffff00ffffffffffffffffffffffffffffffffffffffff909216919091179055565b60006118a6613e75565b6000546001600160a01b03908116911614611908576040805162461bcd60e51b815260206004820181905260248201527f4f776e61626c653a2063616c6c6572206973206e6f7420746865206f776e6572604482015290519081900360640190fd5b60025460ff1615611960576040805162461bcd60e51b815260206004820152601060248201527f5061757361626c653a2070617573656400000000000000000000000000000000604482015290519081900360640190fd5b60025462010000900460ff16156119a85760405162461bcd60e51b8152600401808060200182810382526028815260200180614fc16028913960400191505060405180910390fd5b6004546119c0906001600160a01b0316333085613e79565b600e54829015611a00576119fd6127106119f7600e546119f76017546119f1600f548a613f0190919063ffffffff16565b90613f01565b90613f61565b90505b600f54611a0d9082613fa3565b600f55600254610100900460ff1615611a2d57611a28613c30565b611a3e565b600e54611a3a9084613fa3565b600e555b6040805184815290517f4d6ce1e535dbade1c23defba91e23b8f791ce5edc0cc320257a2b364e4e384269181900360200190a190505b92915050565b600a546001600160a01b03163314611ac35760405162461bcd60e51b815260040180806020018281038252602b81526020018061500f602b913960400191505060405180910390fd5b600254600354604080517f93f1a40b00000000000000000000000000000000000000000000000000000000815260048101929092523060248301525160009264010000000090046001600160a01b0316916393f1a40b916044808301926080929190829003018186803b158015611b3957600080fd5b505afa158015611b4d573d6000803e3d6000fd5b505050506040513d6080811015611b6357600080fd5b5051600254600354604080517fb5c5f672000000000000000000000000000000000000000000000000000000008152306004820152602481019290925260448201849052519293506401000000009091046001600160a01b03169163b5c5f6729160648082019260009290919082900301818387803b158015611be557600080fd5b505af1158015611bf9573d6000803e3d6000fd5b5050600280547fffffffffffffffffffffffffffffffffffffffffffffffffffffffffff00ffff1662010000179055505050565b6016546001600160a01b031681565b600a546000906001600160a01b0383811691161480611c655750600b546001600160a01b031633145b80611c7a5750600c546001600160a01b031633145b90505b919050565b600a546001600160a01b031681565b60025460ff1690565b6015546001600160a01b031681565b73bb4cdb9cbd36b01bd1cbaebf2de08d9173bc095c81565b600080600260049054906101000a90046001600160a01b03166001600160a01b03166393f1a40b600354306040518363ffffffff1660e01b815260040180838152602001826001600160a01b031681526020019250505060806040518083038186803b158015611d3057600080fd5b505afa158015611d44573d6000803e3d6000fd5b505050506040513d6080811015611d5a57600080fd5b505191505090565b600a546001600160a01b03163314611dab5760405162461bcd60e51b815260040180806020018281038252602b81526020018061500f602b913960400191505060405180910390fd5b6007546001600160a01b0384811691161415611e0e576040805162461bcd60e51b815260206004820152600560248201527f2173616665000000000000000000000000000000000000000000000000000000604482015290519081900360640190fd5b6004546001600160a01b0384811691161415611e71576040805162461bcd60e51b815260206004820152600560248201527f2173616665000000000000000000000000000000000000000000000000000000604482015290519081900360640190fd5b611e856001600160a01b0384168284613ffd565b604080516001600160a01b0380861682526020820185905283168183015290517f22f92dfb4f608ea5db1e9bb08c0b4f5518af93b1259d335fe05900056096ab2c9181900360600190a1505050565b600954604080517fd06ca61f00000000000000000000000000000000000000000000000000000000815260048101858152602482019283528451604483015284516000946060946001600160a01b039091169363d06ca61f9389938993919260640190602080860191028083838d5b83811015611f5b578181015183820152602001611f43565b50505050905001935050505060006040518083038186803b158015611f7f57600080fd5b505afa158015611f93573d6000803e3d6000fd5b505050506040513d6000823e601f3d9081017fffffffffffffffffffffffffffffffffffffffffffffffffffffffffffffffe01682016040526020811015611fda57600080fd5b8101908080516040519392919084640100000000821115611ffa57600080fd5b90830190602082018581111561200f57600080fd5b825186602082028301116401000000008211171561202c57600080fd5b82525081516020918201928201910280838360005b83811015612059578181015183820152602001612041565b5050505090500160405250505090508060018251038151811061207857fe5b602002602001015191505092915050565b6009546001600160a01b031681565b6120a0613e75565b6000546001600160a01b03908116911614612102576040805162461bcd60e51b815260206004820181905260248201527f4f776e61626c653a2063616c6c6572206973206e6f7420746865206f776e6572604482015290519081900360640190fd5b600080546040516001600160a01b03909116907f8be0079c531659141344cd1fd0a4f28419497f9722a3daafe3b4186f6b6457e0908390a3600080547fffffffffffffffffffffffff0000000000000000000000000000000000000000169055565b73e9e7cea3dedca5984780bafc599bd69add087d5681565b6002546301000000900460ff1681565b6005546001600160a01b031681565b600a546001600160a01b031633146121e45760405162461bcd60e51b815260040180806020018281038252602b81526020018061500f602b913960400191505060405180910390fd5b61102b614082565b60105481565b6000806121fd6135ee565b905080156122a2576007546001600160a01b0316600090815260086020908152604080832073e9e7cea3dedca5984780bafc599bd69add087d568452825291829020805483518184028101840190945280845261229d9385939092919083018282801561229357602002820191906000526020600020905b81546001600160a01b03168152600190910190602001808311612275575b5050505050611ed4565b6122a5565b60005b91505090565b6000546001600160a01b031690565b60025462010000900460ff1681565b60025464010000000090046001600160a01b031681565b600a546001600160a01b031633146123295760405162461bcd60e51b815260040180806020018281038252602b81526020018061500f602b913960400191505060405180910390fd5b6001600160a01b038116612386576040805162461bcd60e51b8152602060048083019190915260248201527f7a65726f00000000000000000000000000000000000000000000000000000000604482015290519081900360640190fd5b601680547fffffffffffffffffffffffff0000000000000000000000000000000000000000166001600160a01b0392909216919091179055565b61032081565b600a546001600160a01b0316331461240f5760405162461bcd60e51b815260040180806020018281038252602b81526020018061500f602b913960400191505060405180910390fd5b600a80547fffffffffffffffffffffffff0000000000000000000000000000000000000000166001600160a01b0392909216919091179055565b600a546001600160a01b031633146124925760405162461bcd60e51b815260040180806020018281038252602b81526020018061500f602b913960400191505060405180910390fd5b61032060145411156124eb576040805162461bcd60e51b815260206004820152601960248201527f427661756c747353747261746567793a20746f6f206869676800000000000000604482015290519081900360640190fd5b601455565b600c546001600160a01b031633146125395760405162461bcd60e51b815260040180806020018281038252602781526020018061505b6027913960400191505060405180910390fd5b600c80547fffffffffffffffffffffffff0000000000000000000000000000000000000000166001600160a01b0392909216919091179055565b600a546001600160a01b031633146125bc5760405162461bcd60e51b815260040180806020018281038252602b81526020018061500f602b913960400191505060405180910390fd5b6103206011541115612615576040805162461bcd60e51b815260206004820152601960248201527f427661756c747353747261746567793a20746f6f206869676800000000000000604482015290519081900360640190fd5b601155565b60025460ff1615612672576040805162461bcd60e51b815260206004820152601060248201527f5061757361626c653a2070617573656400000000000000000000000000000000604482015290519081900360640190fd5b600254610100900460ff166126ce576040805162461bcd60e51b815260206004820152600b60248201527f2169734175746f436f6d70000000000000000000000000000000000000000000604482015290519081900360640190fd5b600554604080516370a0823160e01b815230600482015290516000926001600160a01b0316916370a08231916024808301926020929190829003018186803b15801561271957600080fd5b505afa15801561272d573d6000803e3d6000fd5b505050506040513d602081101561274357600080fd5b50516007546005549192506001600160a01b039182169116148015906127695750600081115b156128f05760095460055461278b916001600160a01b0391821691168361412e565b6009546005546001600160a01b0390811660009081526008602090815260408083206007548516845290915280822090517f5c11d79500000000000000000000000000000000000000000000000000000000815260048101868152602482018490523060648301819052603c42016084840181905260a060448501908152855460a486018190529790981697635c11d795978a9796959394929360c401908690801561286057602002820191906000526020600020905b81546001600160a01b03168152600190910190602001808311612842575b50509650505050505050600060405180830381600087803b15801561288457600080fd5b505af1158015612898573d6000803e3d6000fd5b5050600554600754604080516001600160a01b03938416815291909216602082015280820185905290517f65dcf313a2a7fa900bdbeb87203f9ac8009224d4656965a6b8498b8b245e0e1c9350908190036060019150a15b600654604080516370a0823160e01b815230600482015290516000926001600160a01b0316916370a08231916024808301926020929190829003018186803b15801561293b57600080fd5b505afa15801561294f573d6000803e3d6000fd5b505050506040513d602081101561296557600080fd5b50516007546006549192506001600160a01b0391821691161480159061298b5750600081115b15612b12576009546006546129ad916001600160a01b0391821691168361412e565b6009546006546001600160a01b0390811660009081526008602090815260408083206007548516845290915280822090517f5c11d79500000000000000000000000000000000000000000000000000000000815260048101868152602482018490523060648301819052603c42016084840181905260a060448501908152855460a486018190529790981697635c11d795978a9796959394929360c4019086908015612a8257602002820191906000526020600020905b81546001600160a01b03168152600190910190602001808311612a64575b50509650505050505050600060405180830381600087803b158015612aa657600080fd5b505af1158015612aba573d6000803e3d6000fd5b5050600654600754604080516001600160a01b03938416815291909216602082015280820185905290517f65dcf313a2a7fa900bdbeb87203f9ac8009224d4656965a6b8498b8b245e0e1c9350908190036060019150a15b5050565b6126de81565b600a546001600160a01b03163314612b655760405162461bcd60e51b815260040180806020018281038252602b81526020018061500f602b913960400191505060405180910390fd5b6013546001600160a01b0316612bc4576040805162461bcd60e51b8152602060048083019190915260248201527f7a65726f00000000000000000000000000000000000000000000000000000000604482015290519081900360640190fd5b601380547fffffffffffffffffffffffff0000000000000000000000000000000000000000166001600160a01b0392909216919091179055565b600a546001600160a01b03163314612c475760405162461bcd60e51b815260040180806020018281038252602b81526020018061500f602b913960400191505060405180910390fd5b600b80547fffffffffffffffffffffffff0000000000000000000000000000000000000000166001600160a01b0392909216919091179055565b6012546001600160a01b031681565b60086020528260005260406000206020528160005260406000208181548110612cb557fe5b6000918252602090912001546001600160a01b0316925083915050565b600c546001600160a01b031681565b60025460ff1615612d39576040805162461bcd60e51b815260206004820152601060248201527f5061757361626c653a2070617573656400000000000000000000000000000000604482015290519081900360640190fd5b600254610100900460ff16612d95576040805162461bcd60e51b815260206004820152601c60248201527f427661756c747353747261746567793a202169734175746f436f6d7000000000604482015290519081900360640190fd5b600c5474010000000000000000000000000000000000000000900460ff161580612dc35750612dc333611c3c565b612e14576040805162461bcd60e51b815260206004820152601c60248201527f427661756c747353747261746567793a2021617574686f726973656400000000604482015290519081900360640190fd5b600260049054906101000a90046001600160a01b03166001600160a01b031663ddc632626003546040518263ffffffff1660e01b815260040180828152602001915050600060405180830381600087803b158015612e7157600080fd5b505af1158015612e85573d6000803e3d6000fd5b50506002546301000000900460ff16159150612f9c905057600754604080517f202b176000000000000000000000000000000000000000000000000000000000815230600482015290516000926001600160a01b03169163202b1760916024808301926020929190829003018186803b158015612f0157600080fd5b505afa158015612f15573d6000803e3d6000fd5b505050506040513d6020811015612f2b57600080fd5b50511115612f9c57600760009054906101000a90046001600160a01b03166001600160a01b031663a69df4b56040518163ffffffff1660e01b8152600401600060405180830381600087803b158015612f8357600080fd5b505af1158015612f97573d6000803e3d6000fd5b505050505b600754604080516370a0823160e01b815230600482015290516000926001600160a01b0316916370a08231916024808301926020929190829003018186803b158015612fe757600080fd5b505afa158015612ffb573d6000803e3d6000fd5b505050506040513d602081101561301157600080fd5b5051600754604080516001600160a01b0390921682526020820183905280519293507f053fa1fc52294a40b4ff1a988765bd298c00caa24d685cc3f767dcfde254ef9a92918290030190a1600061306782614215565b90506000613074836142b7565b90506000613081846146a8565b90506130998161309384818888614b1d565b90614b1d565b6009546007549195506130b9916001600160a01b0390811691168661412e565b6005546007546001600160a01b039081169116146131fa576009546001600160a01b0316635c11d7956130ed866002613f61565b6007546001600160a01b039081166000908152600860209081526040808320600554909416835292905281812091517fffffffff0000000000000000000000000000000000000000000000000000000060e086901b16815260048101848152602482018390523060648301819052603c42016084840181905260a060448501908152865460a486018190529596959294919392909160c40190869080156131bd57602002820191906000526020600020905b81546001600160a01b0316815260019091019060200180831161319f575b50509650505050505050600060405180830381600087803b1580156131e157600080fd5b505af11580156131f5573d6000803e3d6000fd5b505050505b6006546007546001600160a01b0390811691161461333b576009546001600160a01b0316635c11d79561322e866002613f61565b6007546001600160a01b039081166000908152600860209081526040808320600654909416835292905281812091517fffffffff0000000000000000000000000000000000000000000000000000000060e086901b16815260048101848152602482018390523060648301819052603c42016084840181905260a060448501908152865460a486018190529596959294919392909160c40190869080156132fe57602002820191906000526020600020905b81546001600160a01b031681526001909101906020018083116132e0575b50509650505050505050600060405180830381600087803b15801561332257600080fd5b505af1158015613336573d6000803e3d6000fd5b505050505b600554604080516370a0823160e01b815230600482015290516000926001600160a01b0316916370a08231916024808301926020929190829003018186803b15801561338657600080fd5b505afa15801561339a573d6000803e3d6000fd5b505050506040513d60208110156133b057600080fd5b5051600654604080516370a0823160e01b815230600482015290519293506000926001600160a01b03909216916370a0823191602480820192602092909190829003018186803b15801561340357600080fd5b505afa158015613417573d6000803e3d6000fd5b505050506040513d602081101561342d57600080fd5b5051905081158015906134405750600081115b156135aa57600954600554613462916001600160a01b0391821691168461412e565b60095460065461347f916001600160a01b0391821691168361412e565b600954600554600654604080517fe8e337000000000000000000000000000000000000000000000000000000000081526001600160a01b0393841660048201529183166024830152604482018690526064820185905260006084830181905260a483018190523060c4840152603c420160e48401529051929093169263e8e3370092610104808401936060939083900390910190829087803b15801561352457600080fd5b505af1158015613538573d6000803e3d6000fd5b505050506040513d606081101561354e57600080fd5b5050600554600654604080516001600160a01b0393841681526020810186905291909216818301526060810183905290517f44552da03f807ace3e5f27e98e694712dfe668c743514b28d4d9f5ab70574b0f9181900360800190a15b43600d556135b6613c30565b505050505050565b6006546001600160a01b031681565b600c5474010000000000000000000000000000000000000000900460ff1681565b600754604080516370a0823160e01b8152306004820152905160009283926001600160a01b03909116916370a0823191602480820192602092909190829003018186803b15801561363e57600080fd5b505afa158015613652573d6000803e3d6000fd5b505050506040513d602081101561366857600080fd5b5051600254600354604080517f94443b730000000000000000000000000000000000000000000000000000000081526004810192909252306024830152519293506122a592849264010000000090046001600160a01b0316916394443b73916044808301926020929190829003018186803b1580156136e657600080fd5b505afa1580156136fa573d6000803e3d6000fd5b505050506040513d602081101561371057600080fd5b505190613fa3565b60115481565b60145481565b600254610100900460ff1681565b6007546001600160a01b031681565b6004546001600160a01b031681565b60035481565b61375e613e75565b6000546001600160a01b039081169116146137c0576040805162461bcd60e51b815260206004820181905260248201527f4f776e61626c653a2063616c6c6572206973206e6f7420746865206f776e6572604482015290519081900360640190fd5b6001600160a01b0381166138055760405162461bcd60e51b8152600401808060200182810382526026815260200180614fe96026913960400191505060405180910390fd5b600080546040516001600160a01b03808516939216917f8be0079c531659141344cd1fd0a4f28419497f9722a3daafe3b4186f6b6457e091a3600080547fffffffffffffffffffffffff0000000000000000000000000000000000000000166001600160a01b0392909216919091179055565b6000613882613e75565b6000546001600160a01b039081169116146138e4576040805162461bcd60e51b815260206004820181905260248201527f4f776e61626c653a2063616c6c6572206973206e6f7420746865206f776e6572604482015290519081900360640190fd5b6002600154141561393c576040805162461bcd60e51b815260206004820152601f60248201527f5265656e7472616e637947756172643a207265656e7472616e742063616c6c00604482015290519081900360640190fd5b600260015581613993576040805162461bcd60e51b815260206004820152601a60248201527f427661756c747353747261746567793a20215f77616e74416d74000000000000604482015290519081900360640190fd5b600254610100900460ff1680156139b3575060025462010000900460ff16155b15613a4e57600254600354604080517fb5c5f672000000000000000000000000000000000000000000000000000000008152306004820152602481019290925260448201859052516401000000009092046001600160a01b03169163b5c5f6729160648082019260009290919082900301818387803b158015613a3557600080fd5b505af1158015613a49573d6000803e3d6000fd5b505050505b60048054604080516370a0823160e01b81523093810193909352516000926001600160a01b03909216916370a08231916024808301926020929190829003018186803b158015613a9d57600080fd5b505afa158015613ab1573d6000803e3d6000fd5b505050506040513d6020811015613ac757600080fd5b5051905080831115613ad7578092505b82600e541015613ae757600e5492505b6000613b04600e546119f7600f5487613f0190919063ffffffff16565b9050600f54811115613b155750600f545b600f54613b229082614b1d565b600f55600e54613b329085614b1d565b600e55600454613b4c906001600160a01b03163386613ffd565b6040805185815290517f5b6b431d4476a211bb7d41c20d1aab9ae2321deee0d20be3d9fc9b1093fa6e3d9181900360200190a160018055949350505050565b600a546001600160a01b03163314613bd45760405162461bcd60e51b815260040180806020018281038252602b81526020018061500f602b913960400191505060405180910390fd5b61012c811115613c2b576040805162461bcd60e51b815260206004820152601960248201527f427661756c747353747261746567793a20746f6f206869676800000000000000604482015290519081900360640190fd5b601055565b60048054604080516370a0823160e01b81523093810193909352516000926001600160a01b03909216916370a08231916024808301926020929190829003018186803b158015613c7f57600080fd5b505afa158015613c93573d6000803e3d6000fd5b505050506040513d6020811015613ca957600080fd5b5051600e54909150613cbb9082613fa3565b600e55600254600454613ce4916001600160a01b0391821691640100000000909104168361412e565b600254600354604080517f0efe6a8b000000000000000000000000000000000000000000000000000000008152306004820152602481019290925260448201849052516401000000009092046001600160a01b031691630efe6a8b9160648082019260009290919082900301818387803b158015613d6157600080fd5b505af1158015613d75573d6000803e3d6000fd5b50506040805184815290517fc217459869eed80bfbe5c11e78ab58912eedfd106342671821b6e96d1615dc7f9350908190036020019150a150565b60025460ff16613e07576040805162461bcd60e51b815260206004820152601460248201527f5061757361626c653a206e6f7420706175736564000000000000000000000000604482015290519081900360640190fd5b600280547fffffffffffffffffffffffffffffffffffffffffffffffffffffffffffffff001690557f5db9ee0a495bf2e6ff9c91a7834c1ba4fdd244a5e8aa4e537bd38aeae4b073aa613e58613e75565b604080516001600160a01b039092168252519081900360200190a1565b3390565b604080516001600160a01b0380861660248301528416604482015260648082018490528251808303909101815260849091019091526020810180517bffffffffffffffffffffffffffffffffffffffffffffffffffffffff167f23b872dd00000000000000000000000000000000000000000000000000000000179052610fa0908590614b5f565b600082613f1057506000611a74565b82820282848281613f1d57fe5b0414613f5a5760405162461bcd60e51b815260040180806020018281038252602181526020018061503a6021913960400191505060405180910390fd5b9392505050565b6000613f5a83836040518060400160405280601a81526020017f536166654d6174683a206469766973696f6e206279207a65726f000000000000815250614c10565b600082820183811015613f5a576040805162461bcd60e51b815260206004820152601b60248201527f536166654d6174683a206164646974696f6e206f766572666c6f770000000000604482015290519081900360640190fd5b604080516001600160a01b038416602482015260448082018490528251808303909101815260649091019091526020810180517bffffffffffffffffffffffffffffffffffffffffffffffffffffffff167fa9059cbb0000000000000000000000000000000000000000000000000000000017905261407d908490614b5f565b505050565b60025460ff16156140da576040805162461bcd60e51b815260206004820152601060248201527f5061757361626c653a2070617573656400000000000000000000000000000000604482015290519081900360640190fd5b600280547fffffffffffffffffffffffffffffffffffffffffffffffffffffffffffffff001660011790557f62e78cea01bee320cd4e420270b5ea74000d11b0c9f74754ebdbfc544b05a258613e58613e75565b600061419282856001600160a01b031663dd62ed3e30876040518363ffffffff1660e01b815260040180836001600160a01b03168152602001826001600160a01b031681526020019250505060206040518083038186803b1580156136e657600080fd5b604080516001600160a01b038616602482015260448082018490528251808303909101815260649091019091526020810180517bffffffffffffffffffffffffffffffffffffffffffffffffffffffff167f095ea7b300000000000000000000000000000000000000000000000000000000179052909150610fa0908590614b5f565b60008115611c7d5760105415611c7d576142406127106119f760105485613f0190919063ffffffff16565b600a54600754919250614260916001600160a01b03908116911683613ffd565b600754600a54604080516001600160a01b03938416815260208101859052919092168183015290517f056e5430e11cfdfb90a183ec3bf63ed22abe70cdf4e7bd3018d8b459bbd7f6199181900360600190a1919050565b60115460009015806142d257506013546001600160a01b0316155b156142df57506000611c7d565b60006142fc6127106119f760115486613f0190919063ffffffff16565b6007546001600160a01b03908116600090815260086020908152604080832060125485168085529083528184205460135483516370a0823160e01b81529616600487015291519596509094929390926370a0823192602480840193919291829003018186803b15801561436e57600080fd5b505afa158015614382573d6000803e3d6000fd5b505050506040513d602081101561439857600080fd5b50516007546001600160a01b0390811660009081526008602090815260408083206012549094168352929052208054919250907fffffffffffffffffffffffffffffffffffffffffffffffffffffffffffffffff84019081106143f757fe5b60009182526020808320909101546007546001600160a01b0390811684526008835260408085206012548316865290935291832080549290911692909161443a57fe5b6000918252602090912001546001600160a01b03161461458c57600954600754614471916001600160a01b0391821691168561412e565b6009546007546001600160a01b0390811660009081526008602090815260408083206012548516845290915280822060135491517f5c11d795000000000000000000000000000000000000000000000000000000008152600481018981526024820185905292851660648201819052603c42016084830181905260a060448401908152845460a485018190529790981697635c11d795978c9796939492939260c401908690801561454b57602002820191906000526020600020905b81546001600160a01b0316815260019091019060200180831161452d575b50509650505050505050600060405180830381600087803b15801561456f57600080fd5b505af1158015614583573d6000803e3d6000fd5b505050506145a9565b6013546007546145a9916001600160a01b03918216911685613ffd565b601254601354604080516370a0823160e01b81526001600160a01b039283166004820152905160009392909216916370a0823191602480820192602092909190829003018186803b1580156145fd57600080fd5b505afa158015614611573d6000803e3d6000fd5b505050506040513d602081101561462757600080fd5b5051905060006146378284614b1d565b600754601254601354604080516001600160a01b03948516815292841660208401528281018a9052606083018590529216608082015290519192507fb152a9c4203a9515a80fadb5b18afb6bfce5350eccdfda9d0908ac37ec094222919081900360a00190a1509295945050505050565b60145460009015806146c357506016546001600160a01b0316155b156146d057506000611c7d565b60006146ed6127106119f760145486613f0190919063ffffffff16565b6007546001600160a01b03908116600090815260086020908152604080832060155485168085529083528184205460165483516370a0823160e01b81529616600487015291519596509094929390926370a0823192602480840193919291829003018186803b15801561475f57600080fd5b505afa158015614773573d6000803e3d6000fd5b505050506040513d602081101561478957600080fd5b50516007546001600160a01b0390811660009081526008602090815260408083206015549094168352929052208054919250907fffffffffffffffffffffffffffffffffffffffffffffffffffffffffffffffff84019081106147e857fe5b60009182526020808320909101546007546001600160a01b0390811684526008835260408085206015548316865290935291832080549290911692909161482b57fe5b6000918252602090912001546001600160a01b03161461497d57600954600754614862916001600160a01b0391821691168561412e565b6009546007546001600160a01b0390811660009081526008602090815260408083206015548516845290915280822060165491517f5c11d795000000000000000000000000000000000000000000000000000000008152600481018981526024820185905292851660648201819052603c42016084830181905260a060448401908152845460a485018190529790981697635c11d795978c9796939492939260c401908690801561493c57602002820191906000526020600020905b81546001600160a01b0316815260019091019060200180831161491e575b50509650505050505050600060405180830381600087803b15801561496057600080fd5b505af1158015614974573d6000803e3d6000fd5b5050505061499a565b60165460075461499a916001600160a01b03918216911685613ffd565b601554601654604080516370a0823160e01b81526001600160a01b039283166004820152905160009392909216916370a0823191602480820192602092909190829003018186803b1580156149ee57600080fd5b505afa158015614a02573d6000803e3d6000fd5b505050506040513d6020811015614a1857600080fd5b505190506000614a288284614b1d565b90508015614b1257601654604080517f50afa34b0000000000000000000000000000000000000000000000000000000081526004810184905290516001600160a01b03909216916350afa34b9160248082019260009290919082900301818387803b158015614a9657600080fd5b505af1158015614aaa573d6000803e3d6000fd5b5050600754601554601654604080516001600160a01b03948516815292841660208401528281018b9052606083018790529216608082015290517fb152a9c4203a9515a80fadb5b18afb6bfce5350eccdfda9d0908ac37ec09422293509081900360a0019150a15b509295945050505050565b6000613f5a83836040518060400160405280601e81526020017f536166654d6174683a207375627472616374696f6e206f766572666c6f770000815250614cb2565b6060614bb4826040518060400160405280602081526020017f5361666545524332303a206c6f772d6c6576656c2063616c6c206661696c6564815250856001600160a01b0316614d0c9092919063ffffffff16565b80519091501561407d57808060200190516020811015614bd357600080fd5b505161407d5760405162461bcd60e51b815260040180806020018281038252602a815260200180615082602a913960400191505060405180910390fd5b60008183614c9c5760405162461bcd60e51b81526004018080602001828103825283818151815260200191508051906020019080838360005b83811015614c61578181015183820152602001614c49565b50505050905090810190601f168015614c8e5780820380516001836020036101000a031916815260200191505b509250505060405180910390fd5b506000838581614ca857fe5b0495945050505050565b60008184841115614d045760405162461bcd60e51b8152602060048201818152835160248401528351909283926044909101919085019080838360008315614c61578181015183820152602001614c49565b505050900390565b606061160684846000856060614d2185614ea1565b614d72576040805162461bcd60e51b815260206004820152601d60248201527f416464726573733a2063616c6c20746f206e6f6e2d636f6e7472616374000000604482015290519081900360640190fd5b60006060866001600160a01b031685876040518082805190602001908083835b60208310614dcf57805182527fffffffffffffffffffffffffffffffffffffffffffffffffffffffffffffffe09092019160209182019101614d92565b6001836020036101000a03801982511681845116808217855250505050505090500191505060006040518083038185875af1925050503d8060008114614e31576040519150601f19603f3d011682016040523d82523d6000602084013e614e36565b606091505b50915091508115614e4a5791506116069050565b805115614e5a5780518082602001fd5b60405162461bcd60e51b8152602060048201818152865160248401528651879391928392604401919085019080838360008315614c61578181015183820152602001614c49565b3b151590565b828054828255906000526020600020908101928215614f14579160200282015b82811115614f1457825182547fffffffffffffffffffffffff0000000000000000000000000000000000000000166001600160a01b03909116178255602090920191600190910190614ec7565b50614f20929150614f24565b5090565b5b80821115614f205780547fffffffffffffffffffffffff0000000000000000000000000000000000000000168155600101614f2556fe427661756c747353747261746567793a3a657865637574655472616e73616374696f6e3a205472616e73616374696f6e20657865637574696f6e2072657665727465642e427661756c747353747261746567793a202173616665202d20746f6f2068696768427661756c747353747261746567793a207374726174656779206973206e6f742072756e6e696e674f776e61626c653a206e6577206f776e657220697320746865207a65726f2061646472657373427661756c747353747261746567793a2063616c6c6572206973206e6f7420746865206f70657261746f72536166654d6174683a206d756c7469706c69636174696f6e206f766572666c6f77427661756c747353747261746567793a2063616c6c6572206973206e6f742074696d656c6f636b5361666545524332303a204552433230206f7065726174696f6e20646964206e6f742073756363656564a2646970667358221220ff7b5b36ef26fe8f96b23824bd3ba8daff66822679519b57634594820aeb084864736f6c634300060c00334f776e61626c653a206e6577206f776e657220697320746865207a65726f20616464726573738be0079c531659141344cd1fd0a4f28419497f9722a3daafe3b4186f6b6457e0",
  "linkReferences": {},
  "deployedLinkReferences": {}
}