{
  "contracts/contracts-deployed/BvaultsStrategy.3.SOUP.sol": {
    "BvaultsStrategy": {
      "abi": [
        {
          "inputs": [
            {
              "internalType": "address",
              "name": "_controller",
              "type": "address"
            },
            {
              "internalType": "bool",
              "name": "_isCAKEStaking",
              "type": "bool"
            },
            {
              "internalType": "bool",
              "name": "_isAutoComp",
              "type": "bool"
            },
            {
              "internalType": "address",
              "name": "_farmContractAddress",
              "type": "address"
            },
            {
              "internalType": "uint256",
              "name": "_pid",
              "type": "uint256"
            },
            {
              "internalType": "address",
              "name": "_wantAddress",
              "type": "address"
            },
            {
              "internalType": "address",
              "name": "_earnedAddress",
              "type": "address"
            },
            {
              "internalType": "address",
              "name": "_uniRouterAddress",
              "type": "address"
            },
            {
              "internalType": "address[]",
              "name": "_buyBackToken1Info",
              "type": "address[]"
            },
            {
              "internalType": "address[]",
              "name": "_buyBackToken2Info",
              "type": "address[]"
            },
            {
              "internalType": "address[]",
              "name": "_token0Info",
              "type": "address[]"
            },
            {
              "internalType": "address[]",
              "name": "_token1Info",
              "type": "address[]"
            }
          ],
          "stateMutability": "nonpayable",
          "type": "constructor"
        },
        {
          "anonymous": false,
          "inputs": [
            {
              "indexed": false,
              "internalType": "address",
              "name": "earnedAddress",
              "type": "address"
            },
            {
              "indexed": false,
              "internalType": "address",
              "name": "buyBackToken",
              "type": "address"
            },
            {
              "indexed": false,
              "internalType": "uint256",
              "name": "earnedAmt",
              "type": "uint256"
            },
            {
              "indexed": false,
              "internalType": "uint256",
              "name": "buyBackAmt",
              "type": "uint256"
            },
            {
              "indexed": false,
              "internalType": "address",
              "name": "receiver",
              "type": "address"
            }
          ],
          "name": "BuyBack",
          "type": "event"
        },
        {
          "anonymous": false,
          "inputs": [
            {
              "indexed": false,
              "internalType": "address",
              "name": "token0Address",
              "type": "address"
            },
            {
              "indexed": false,
              "internalType": "uint256",
              "name": "token0Amt",
              "type": "uint256"
            },
            {
              "indexed": false,
              "internalType": "address",
              "name": "token1Address",
              "type": "address"
            },
            {
              "indexed": false,
              "internalType": "uint256",
              "name": "token1Amt",
              "type": "uint256"
            }
          ],
          "name": "Compound",
          "type": "event"
        },
        {
          "anonymous": false,
          "inputs": [
            {
              "indexed": false,
              "internalType": "address",
              "name": "tokenAddress",
              "type": "address"
            },
            {
              "indexed": false,
              "internalType": "address",
              "name": "earnedAddress",
              "type": "address"
            },
            {
              "indexed": false,
              "internalType": "uint256",
              "name": "tokenAmt",
              "type": "uint256"
            }
          ],
          "name": "ConvertDustToEarned",
          "type": "event"
        },
        {
          "anonymous": false,
          "inputs": [
            {
              "indexed": false,
              "internalType": "uint256",
              "name": "amount",
              "type": "uint256"
            }
          ],
          "name": "Deposit",
          "type": "event"
        },
        {
          "anonymous": false,
          "inputs": [
            {
              "indexed": false,
              "internalType": "address",
              "name": "earnedAddress",
              "type": "address"
            },
            {
              "indexed": false,
              "internalType": "uint256",
              "name": "fee",
              "type": "uint256"
            },
            {
              "indexed": false,
              "internalType": "address",
              "name": "receiver",
              "type": "address"
            }
          ],
          "name": "DistributeFee",
          "type": "event"
        },
        {
          "anonymous": false,
          "inputs": [
            {
              "indexed": false,
              "internalType": "address",
              "name": "earnedAddress",
              "type": "address"
            },
            {
              "indexed": false,
              "internalType": "uint256",
              "name": "earnedAmt",
              "type": "uint256"
            }
          ],
          "name": "Earned",
          "type": "event"
        },
        {
          "anonymous": false,
          "inputs": [
            {
              "indexed": true,
              "internalType": "address",
              "name": "target",
              "type": "address"
            },
            {
              "indexed": false,
              "internalType": "uint256",
              "name": "value",
              "type": "uint256"
            },
            {
              "indexed": false,
              "internalType": "string",
              "name": "signature",
              "type": "string"
            },
            {
              "indexed": false,
              "internalType": "bytes",
              "name": "data",
              "type": "bytes"
            }
          ],
          "name": "ExecuteTransaction",
          "type": "event"
        },
        {
          "anonymous": false,
          "inputs": [
            {
              "indexed": false,
              "internalType": "uint256",
              "name": "amount",
              "type": "uint256"
            }
          ],
          "name": "Farm",
          "type": "event"
        },
        {
          "anonymous": false,
          "inputs": [
            {
              "indexed": false,
              "internalType": "address",
              "name": "tokenAddress",
              "type": "address"
            },
            {
              "indexed": false,
              "internalType": "uint256",
              "name": "tokenAmt",
              "type": "uint256"
            },
            {
              "indexed": false,
              "internalType": "address",
              "name": "receiver",
              "type": "address"
            }
          ],
          "name": "InCaseTokensGetStuck",
          "type": "event"
        },
        {
          "anonymous": false,
          "inputs": [
            {
              "indexed": true,
              "internalType": "address",
              "name": "previousOwner",
              "type": "address"
            },
            {
              "indexed": true,
              "internalType": "address",
              "name": "newOwner",
              "type": "address"
            }
          ],
          "name": "OwnershipTransferred",
          "type": "event"
        },
        {
          "anonymous": false,
          "inputs": [
            {
              "indexed": false,
              "internalType": "address",
              "name": "account",
              "type": "address"
            }
          ],
          "name": "Paused",
          "type": "event"
        },
        {
          "anonymous": false,
          "inputs": [
            {
              "indexed": false,
              "internalType": "address",
              "name": "account",
              "type": "address"
            }
          ],
          "name": "Unpaused",
          "type": "event"
        },
        {
          "anonymous": false,
          "inputs": [
            {
              "indexed": false,
              "internalType": "uint256",
              "name": "amount",
              "type": "uint256"
            }
          ],
          "name": "Withdraw",
          "type": "event"
        },
        {
          "inputs": [],
          "name": "busdAddress",
          "outputs": [
            {
              "internalType": "address",
              "name": "",
              "type": "address"
            }
          ],
          "stateMutability": "view",
          "type": "function"
        },
        {
          "inputs": [],
          "name": "buyBackAddress1",
          "outputs": [
            {
              "internalType": "address",
              "name": "",
              "type": "address"
            }
          ],
          "stateMutability": "view",
          "type": "function"
        },
        {
          "inputs": [],
          "name": "buyBackAddress2",
          "outputs": [
            {
              "internalType": "address",
              "name": "",
              "type": "address"
            }
          ],
          "stateMutability": "view",
          "type": "function"
        },
        {
          "inputs": [],
          "name": "buyBackRate1",
          "outputs": [
            {
              "internalType": "uint256",
              "name": "",
              "type": "uint256"
            }
          ],
          "stateMutability": "view",
          "type": "function"
        },
        {
          "inputs": [],
          "name": "buyBackRate2",
          "outputs": [
            {
              "internalType": "uint256",
              "name": "",
              "type": "uint256"
            }
          ],
          "stateMutability": "view",
          "type": "function"
        },
        {
          "inputs": [],
          "name": "buyBackRateMax",
          "outputs": [
            {
              "internalType": "uint256",
              "name": "",
              "type": "uint256"
            }
          ],
          "stateMutability": "view",
          "type": "function"
        },
        {
          "inputs": [],
          "name": "buyBackRateUL",
          "outputs": [
            {
              "internalType": "uint256",
              "name": "",
              "type": "uint256"
            }
          ],
          "stateMutability": "view",
          "type": "function"
        },
        {
          "inputs": [],
          "name": "buyBackToken1",
          "outputs": [
            {
              "internalType": "address",
              "name": "",
              "type": "address"
            }
          ],
          "stateMutability": "view",
          "type": "function"
        },
        {
          "inputs": [],
          "name": "buyBackToken2",
          "outputs": [
            {
              "internalType": "address",
              "name": "",
              "type": "address"
            }
          ],
          "stateMutability": "view",
          "type": "function"
        },
        {
          "inputs": [],
          "name": "controllerFee",
          "outputs": [
            {
              "internalType": "uint256",
              "name": "",
              "type": "uint256"
            }
          ],
          "stateMutability": "view",
          "type": "function"
        },
        {
          "inputs": [],
          "name": "controllerFeeMax",
          "outputs": [
            {
              "internalType": "uint256",
              "name": "",
              "type": "uint256"
            }
          ],
          "stateMutability": "view",
          "type": "function"
        },
        {
          "inputs": [],
          "name": "controllerFeeUL",
          "outputs": [
            {
              "internalType": "uint256",
              "name": "",
              "type": "uint256"
            }
          ],
          "stateMutability": "view",
          "type": "function"
        },
        {
          "inputs": [],
          "name": "convertDustToEarned",
          "outputs": [],
          "stateMutability": "nonpayable",
          "type": "function"
        },
        {
          "inputs": [
            {
              "internalType": "address",
              "name": "",
              "type": "address"
            },
            {
              "internalType": "uint256",
              "name": "_wantAmt",
              "type": "uint256"
            }
          ],
          "name": "deposit",
          "outputs": [
            {
              "internalType": "uint256",
              "name": "",
              "type": "uint256"
            }
          ],
          "stateMutability": "nonpayable",
          "type": "function"
        },
        {
          "inputs": [],
          "name": "earn",
          "outputs": [],
          "stateMutability": "nonpayable",
          "type": "function"
        },
        {
          "inputs": [],
          "name": "earnedAddress",
          "outputs": [
            {
              "internalType": "address",
              "name": "",
              "type": "address"
            }
          ],
          "stateMutability": "view",
          "type": "function"
        },
        {
          "inputs": [
            {
              "internalType": "uint256",
              "name": "",
              "type": "uint256"
            }
          ],
          "name": "earnedToBusdPath",
          "outputs": [
            {
              "internalType": "address",
              "name": "",
              "type": "address"
            }
          ],
          "stateMutability": "view",
          "type": "function"
        },
        {
          "inputs": [
            {
              "internalType": "uint256",
              "name": "",
              "type": "uint256"
            }
          ],
          "name": "earnedToBuyBackToken1Path",
          "outputs": [
            {
              "internalType": "address",
              "name": "",
              "type": "address"
            }
          ],
          "stateMutability": "view",
          "type": "function"
        },
        {
          "inputs": [
            {
              "internalType": "uint256",
              "name": "",
              "type": "uint256"
            }
          ],
          "name": "earnedToBuyBackToken2Path",
          "outputs": [
            {
              "internalType": "address",
              "name": "",
              "type": "address"
            }
          ],
          "stateMutability": "view",
          "type": "function"
        },
        {
          "inputs": [
            {
              "internalType": "uint256",
              "name": "",
              "type": "uint256"
            }
          ],
          "name": "earnedToToken0Path",
          "outputs": [
            {
              "internalType": "address",
              "name": "",
              "type": "address"
            }
          ],
          "stateMutability": "view",
          "type": "function"
        },
        {
          "inputs": [
            {
              "internalType": "uint256",
              "name": "",
              "type": "uint256"
            }
          ],
          "name": "earnedToToken1Path",
          "outputs": [
            {
              "internalType": "address",
              "name": "",
              "type": "address"
            }
          ],
          "stateMutability": "view",
          "type": "function"
        },
        {
          "inputs": [],
          "name": "entranceFeeFactor",
          "outputs": [
            {
              "internalType": "uint256",
              "name": "",
              "type": "uint256"
            }
          ],
          "stateMutability": "view",
          "type": "function"
        },
        {
          "inputs": [],
          "name": "entranceFeeFactorLL",
          "outputs": [
            {
              "internalType": "uint256",
              "name": "",
              "type": "uint256"
            }
          ],
          "stateMutability": "view",
          "type": "function"
        },
        {
          "inputs": [],
          "name": "entranceFeeFactorMax",
          "outputs": [
            {
              "internalType": "uint256",
              "name": "",
              "type": "uint256"
            }
          ],
          "stateMutability": "view",
          "type": "function"
        },
        {
          "inputs": [
            {
              "internalType": "address",
              "name": "target",
              "type": "address"
            },
            {
              "internalType": "uint256",
              "name": "value",
              "type": "uint256"
            },
            {
              "internalType": "string",
              "name": "signature",
              "type": "string"
            },
            {
              "internalType": "bytes",
              "name": "data",
              "type": "bytes"
            }
          ],
          "name": "executeTransaction",
          "outputs": [
            {
              "internalType": "bytes",
              "name": "",
              "type": "bytes"
            }
          ],
          "stateMutability": "nonpayable",
          "type": "function"
        },
        {
          "inputs": [],
          "name": "farm",
          "outputs": [],
          "stateMutability": "nonpayable",
          "type": "function"
        },
        {
          "inputs": [],
          "name": "farmContractAddress",
          "outputs": [
            {
              "internalType": "address",
              "name": "",
              "type": "address"
            }
          ],
          "stateMutability": "view",
          "type": "function"
        },
        {
          "inputs": [
            {
              "internalType": "address",
              "name": "_token",
              "type": "address"
            },
            {
              "internalType": "uint256",
              "name": "_amount",
              "type": "uint256"
            },
            {
              "internalType": "address",
              "name": "_to",
              "type": "address"
            }
          ],
          "name": "inCaseTokensGetStuck",
          "outputs": [],
          "stateMutability": "nonpayable",
          "type": "function"
        },
        {
          "inputs": [
            {
              "internalType": "address",
              "name": "_account",
              "type": "address"
            }
          ],
          "name": "isAuthorised",
          "outputs": [
            {
              "internalType": "bool",
              "name": "",
              "type": "bool"
            }
          ],
          "stateMutability": "view",
          "type": "function"
        },
        {
          "inputs": [],
          "name": "isAutoComp",
          "outputs": [
            {
              "internalType": "bool",
              "name": "",
              "type": "bool"
            }
          ],
          "stateMutability": "view",
          "type": "function"
        },
        {
          "inputs": [],
          "name": "isCAKEStaking",
          "outputs": [
            {
              "internalType": "bool",
              "name": "",
              "type": "bool"
            }
          ],
          "stateMutability": "view",
          "type": "function"
        },
        {
          "inputs": [],
          "name": "lastEarnBlock",
          "outputs": [
            {
              "internalType": "uint256",
              "name": "",
              "type": "uint256"
            }
          ],
          "stateMutability": "view",
          "type": "function"
        },
        {
          "inputs": [],
          "name": "notPublic",
          "outputs": [
            {
              "internalType": "bool",
              "name": "",
              "type": "bool"
            }
          ],
          "stateMutability": "view",
          "type": "function"
        },
        {
          "inputs": [],
          "name": "operator",
          "outputs": [
            {
              "internalType": "address",
              "name": "",
              "type": "address"
            }
          ],
          "stateMutability": "view",
          "type": "function"
        },
        {
          "inputs": [],
          "name": "owner",
          "outputs": [
            {
              "internalType": "address",
              "name": "",
              "type": "address"
            }
          ],
          "stateMutability": "view",
          "type": "function"
        },
        {
          "inputs": [],
          "name": "pause",
          "outputs": [],
          "stateMutability": "nonpayable",
          "type": "function"
        },
        {
          "inputs": [],
          "name": "paused",
          "outputs": [
            {
              "internalType": "bool",
              "name": "",
              "type": "bool"
            }
          ],
          "stateMutability": "view",
          "type": "function"
        },
        {
          "inputs": [],
          "name": "pendingHarvest",
          "outputs": [
            {
              "internalType": "uint256",
              "name": "",
              "type": "uint256"
            }
          ],
          "stateMutability": "view",
          "type": "function"
        },
        {
          "inputs": [],
          "name": "pendingHarvestDollarValue",
          "outputs": [
            {
              "internalType": "uint256",
              "name": "",
              "type": "uint256"
            }
          ],
          "stateMutability": "view",
          "type": "function"
        },
        {
          "inputs": [],
          "name": "pid",
          "outputs": [
            {
              "internalType": "uint256",
              "name": "",
              "type": "uint256"
            }
          ],
          "stateMutability": "view",
          "type": "function"
        },
        {
          "inputs": [],
          "name": "renounceOwnership",
          "outputs": [],
          "stateMutability": "nonpayable",
          "type": "function"
        },
        {
          "inputs": [
            {
              "internalType": "address",
              "name": "_buyBackAddress1",
              "type": "address"
            }
          ],
          "name": "setBuyBackAddress1",
          "outputs": [],
          "stateMutability": "nonpayable",
          "type": "function"
        },
        {
          "inputs": [
            {
              "internalType": "address",
              "name": "_buyBackAddress2",
              "type": "address"
            }
          ],
          "name": "setBuyBackAddress2",
          "outputs": [],
          "stateMutability": "nonpayable",
          "type": "function"
        },
        {
          "inputs": [
            {
              "internalType": "uint256",
              "name": "_buyBackRate1",
              "type": "uint256"
            }
          ],
          "name": "setBuyBackRate1",
          "outputs": [],
          "stateMutability": "nonpayable",
          "type": "function"
        },
        {
          "inputs": [
            {
              "internalType": "uint256",
              "name": "_buyBackRate2",
              "type": "uint256"
            }
          ],
          "name": "setBuyBackRate2",
          "outputs": [],
          "stateMutability": "nonpayable",
          "type": "function"
        },
        {
          "inputs": [
            {
              "internalType": "uint256",
              "name": "_controllerFee",
              "type": "uint256"
            }
          ],
          "name": "setControllerFee",
          "outputs": [],
          "stateMutability": "nonpayable",
          "type": "function"
        },
        {
          "inputs": [
            {
              "internalType": "address[]",
              "name": "_path",
              "type": "address[]"
            }
          ],
          "name": "setEarnedToBusdPath",
          "outputs": [],
          "stateMutability": "nonpayable",
          "type": "function"
        },
        {
          "inputs": [
            {
              "internalType": "address[]",
              "name": "_path",
              "type": "address[]"
            }
          ],
          "name": "setEarnedToBuyBackToken1Path",
          "outputs": [],
          "stateMutability": "nonpayable",
          "type": "function"
        },
        {
          "inputs": [
            {
              "internalType": "address[]",
              "name": "_path",
              "type": "address[]"
            }
          ],
          "name": "setEarnedToBuyBackToken2Path",
          "outputs": [],
          "stateMutability": "nonpayable",
          "type": "function"
        },
        {
          "inputs": [
            {
              "internalType": "address[]",
              "name": "_path",
              "type": "address[]"
            }
          ],
          "name": "setEarnedToToken0Path",
          "outputs": [],
          "stateMutability": "nonpayable",
          "type": "function"
        },
        {
          "inputs": [
            {
              "internalType": "address[]",
              "name": "_path",
              "type": "address[]"
            }
          ],
          "name": "setEarnedToToken1Path",
          "outputs": [],
          "stateMutability": "nonpayable",
          "type": "function"
        },
        {
          "inputs": [
            {
              "internalType": "uint256",
              "name": "_entranceFeeFactor",
              "type": "uint256"
            }
          ],
          "name": "setEntranceFeeFactor",
          "outputs": [],
          "stateMutability": "nonpayable",
          "type": "function"
        },
        {
          "inputs": [
            {
              "internalType": "bool",
              "name": "_notPublic",
              "type": "bool"
            }
          ],
          "name": "setNotPublic",
          "outputs": [],
          "stateMutability": "nonpayable",
          "type": "function"
        },
        {
          "inputs": [
            {
              "internalType": "address",
              "name": "_operator",
              "type": "address"
            }
          ],
          "name": "setOperator",
          "outputs": [],
          "stateMutability": "nonpayable",
          "type": "function"
        },
        {
          "inputs": [
            {
              "internalType": "address",
              "name": "_strategist",
              "type": "address"
            }
          ],
          "name": "setStrategist",
          "outputs": [],
          "stateMutability": "nonpayable",
          "type": "function"
        },
        {
          "inputs": [
            {
              "internalType": "address",
              "name": "_timelock",
              "type": "address"
            }
          ],
          "name": "setTimelock",
          "outputs": [],
          "stateMutability": "nonpayable",
          "type": "function"
        },
        {
          "inputs": [
            {
              "internalType": "address[]",
              "name": "_path",
              "type": "address[]"
            }
          ],
          "name": "setToken0ToEarnedPath",
          "outputs": [],
          "stateMutability": "nonpayable",
          "type": "function"
        },
        {
          "inputs": [
            {
              "internalType": "address[]",
              "name": "_path",
              "type": "address[]"
            }
          ],
          "name": "setToken1ToEarnedPath",
          "outputs": [],
          "stateMutability": "nonpayable",
          "type": "function"
        },
        {
          "inputs": [],
          "name": "sharesTotal",
          "outputs": [
            {
              "internalType": "uint256",
              "name": "",
              "type": "uint256"
            }
          ],
          "stateMutability": "view",
          "type": "function"
        },
        {
          "inputs": [],
          "name": "strategist",
          "outputs": [
            {
              "internalType": "address",
              "name": "",
              "type": "address"
            }
          ],
          "stateMutability": "view",
          "type": "function"
        },
        {
          "inputs": [],
          "name": "timelock",
          "outputs": [
            {
              "internalType": "address",
              "name": "",
              "type": "address"
            }
          ],
          "stateMutability": "view",
          "type": "function"
        },
        {
          "inputs": [],
          "name": "token0Address",
          "outputs": [
            {
              "internalType": "address",
              "name": "",
              "type": "address"
            }
          ],
          "stateMutability": "view",
          "type": "function"
        },
        {
          "inputs": [
            {
              "internalType": "uint256",
              "name": "",
              "type": "uint256"
            }
          ],
          "name": "token0ToEarnedPath",
          "outputs": [
            {
              "internalType": "address",
              "name": "",
              "type": "address"
            }
          ],
          "stateMutability": "view",
          "type": "function"
        },
        {
          "inputs": [],
          "name": "token1Address",
          "outputs": [
            {
              "internalType": "address",
              "name": "",
              "type": "address"
            }
          ],
          "stateMutability": "view",
          "type": "function"
        },
        {
          "inputs": [
            {
              "internalType": "uint256",
              "name": "",
              "type": "uint256"
            }
          ],
          "name": "token1ToEarnedPath",
          "outputs": [
            {
              "internalType": "address",
              "name": "",
              "type": "address"
            }
          ],
          "stateMutability": "view",
          "type": "function"
        },
        {
          "inputs": [
            {
              "internalType": "address",
              "name": "newOwner",
              "type": "address"
            }
          ],
          "name": "transferOwnership",
          "outputs": [],
          "stateMutability": "nonpayable",
          "type": "function"
        },
        {
          "inputs": [
            {
              "internalType": "uint256",
              "name": "_tokenAmount",
              "type": "uint256"
            },
            {
              "internalType": "address[]",
              "name": "_path",
              "type": "address[]"
            }
          ],
          "name": "uniExchangeRate",
          "outputs": [
            {
              "internalType": "uint256",
              "name": "",
              "type": "uint256"
            }
          ],
          "stateMutability": "view",
          "type": "function"
        },
        {
          "inputs": [],
          "name": "uniRouterAddress",
          "outputs": [
            {
              "internalType": "address",
              "name": "",
              "type": "address"
            }
          ],
          "stateMutability": "view",
          "type": "function"
        },
        {
          "inputs": [],
          "name": "unpause",
          "outputs": [],
          "stateMutability": "nonpayable",
          "type": "function"
        },
        {
          "inputs": [],
          "name": "wantAddress",
          "outputs": [
            {
              "internalType": "address",
              "name": "",
              "type": "address"
            }
          ],
          "stateMutability": "view",
          "type": "function"
        },
        {
          "inputs": [],
          "name": "wantLockedTotal",
          "outputs": [
            {
              "internalType": "uint256",
              "name": "",
              "type": "uint256"
            }
          ],
          "stateMutability": "view",
          "type": "function"
        },
        {
          "inputs": [],
          "name": "wbnbAddress",
          "outputs": [
            {
              "internalType": "address",
              "name": "",
              "type": "address"
            }
          ],
          "stateMutability": "view",
          "type": "function"
        },
        {
          "inputs": [
            {
              "internalType": "address",
              "name": "",
              "type": "address"
            },
            {
              "internalType": "uint256",
              "name": "_wantAmt",
              "type": "uint256"
            }
          ],
          "name": "withdraw",
          "outputs": [
            {
              "internalType": "uint256",
              "name": "",
              "type": "uint256"
            }
          ],
          "stateMutability": "nonpayable",
          "type": "function"
        }
      ],
      "devdoc": {
        "kind": "dev",
        "methods": {
          "executeTransaction(address,uint256,string,bytes)": {
            "details": "This is from Timelock contract."
          },
          "owner()": {
            "details": "Returns the address of the current owner."
          },
          "paused()": {
            "details": "Returns true if the contract is paused, and false otherwise."
          },
          "renounceOwnership()": {
            "details": "Leaves the contract without owner. It will not be possible to call `onlyOwner` functions anymore. Can only be called by the current owner. NOTE: Renouncing ownership will leave the contract without an owner, thereby removing any functionality that is only available to the owner."
          },
          "transferOwnership(address)": {
            "details": "Transfers ownership of the contract to a new account (`newOwner`). Can only be called by the current owner."
          }
        },
        "version": 1
      },
      "evm": {
        "bytecode": {
          "linkReferences": {},
          "object": "6080604052600880546001600160a01b03199081167305ff2b0db69458a0750badebc4f9e13add608c7f17909155600b805460ff60a01b199083167392a082ad5a942140bcc791081f775900d0a514d9171690556000600c819055600d819055600e819055600f5560be6010556011805482167381859801b01764d4f0fa5e64729f5a6c3b91435b17905560128054821661dead908117909155606460135560148054831673190b589cf9fb8ddeabbfeae36a813ffb2a70245417905560158054909216179055612710601655348015620000d957600080fd5b5060405162005c5938038062005c5983398181016040526101808110156200010057600080fd5b815160208301516040808501516060860151608087015160a088015160c089015160e08a01516101008b0180519751999b989a969995989497939692959194919392820192846401000000008211156200015957600080fd5b9083019060208201858111156200016f57600080fd5b82518660208202830111640100000000821117156200018d57600080fd5b82525081516020918201928201910280838360005b83811015620001bc578181015183820152602001620001a2565b5050505090500160405260200180516040519392919084640100000000821115620001e657600080fd5b908301906020820185811115620001fc57600080fd5b82518660208202830111640100000000821117156200021a57600080fd5b82525081516020918201928201910280838360005b83811015620002495781810151838201526020016200022f565b50505050905001604052602001805160405193929190846401000000008211156200027357600080fd5b9083019060208201858111156200028957600080fd5b8251866020820283011164010000000082111715620002a757600080fd5b82525081516020918201928201910280838360005b83811015620002d6578181015183820152602001620002bc565b50505050905001604052602001805160405193929190846401000000008211156200030057600080fd5b9083019060208201858111156200031657600080fd5b82518660208202830111640100000000821117156200033457600080fd5b82525081516020918201928201910280838360005b838110156200036357818101518382015260200162000349565b5050505090500160405250505060006200038262000da660201b60201c565b600080546001600160a01b0319166001600160a01b03831690811782556040519293509160008051602062005c39833981519152908290a350600180556002805460098054336001600160a01b03199182168117909255600a8054821690921790915561ffff199091166101008e1515021762ff00001916620100008d15150217909155600480549091166001600160a01b03898116919091179091558516156200044357600880546001600160a01b0319166001600160a01b0387161790555b836000815181106200045157fe5b6020026020010151601160006101000a8154816001600160a01b0302191690836001600160a01b03160217905550836001815181106200048d57fe5b6020026020010151601260006101000a8154816001600160a01b0302191690836001600160a01b0316021790555082600081518110620004c957fe5b6020026020010151601460006101000a8154816001600160a01b0302191690836001600160a01b03160217905550826001815181106200050557fe5b6020908102919091010151601580546001600160a01b0319166001600160a01b0390921691909117905560025462010000900460ff161562000d8957600254610100900460ff16620005ca57816000815181106200055f57fe5b6020026020010151600560006101000a8154816001600160a01b0302191690836001600160a01b03160217905550806000815181106200059b57fe5b6020026020010151600660006101000a8154816001600160a01b0302191690836001600160a01b031602179055505b600280546001600160a01b03808c166301000000026301000000600160b81b031990921691909117825560038a9055600780548983166001600160a01b03199182161790915560088054928916929091169190911790558451600091869181106200063157fe5b60200260200101516001600160a01b031614156200068d5773bb4cdb9cbd36b01bd1cbaebf2de08d9173bc095c846002815181106200066c57fe5b60200260200101906001600160a01b031690816001600160a01b0316815250505b60408051606081019091526007546001600160a01b031681528451602082019086906002908110620006bb57fe5b6020908102919091018101516001600160a01b03908116835260115416910152620006eb90601790600362000ea8565b5060075484516001600160a01b0390911690859060029081106200070b57fe5b60200260200101516001600160a01b031614156200076e576040518060400160405280856002815181106200073c57fe5b6020908102919091018101516001600160a01b039081168352601154169101526200076c90601790600262000ea8565b505b60006001600160a01b0316836002815181106200078757fe5b60200260200101516001600160a01b03161415620007e35773bb4cdb9cbd36b01bd1cbaebf2de08d9173bc095c83600281518110620007c257fe5b60200260200101906001600160a01b031690816001600160a01b0316815250505b60408051606081019091526007546001600160a01b0316815283516020820190859060029081106200081157fe5b6020908102919091018101516001600160a01b039081168352601454169101526200084190601890600362000ea8565b5060075483516001600160a01b0390911690849060029081106200086157fe5b60200260200101516001600160a01b03161415620008c4576040518060400160405280846002815181106200089257fe5b6020908102919091018101516001600160a01b03908116835260145416910152620008c290601890600262000ea8565b505b604080518082019091526007546001600160a01b0316815273e9e7cea3dedca5984780bafc599bd69add087d5660208201526200090690601990600262000ea8565b5060006001600160a01b0316826001815181106200092057fe5b60200260200101516001600160a01b031614156200097c5773bb4cdb9cbd36b01bd1cbaebf2de08d9173bc095c826001815181106200095b57fe5b60200260200101906001600160a01b031690816001600160a01b0316815250505b60408051606081019091526007546001600160a01b031681528251602082019084906001908110620009aa57fe5b6020908102919091018101516001600160a01b03908116835260055416910152620009da90601a90600362000ea8565b5060055482516001600160a01b039091169083906001908110620009fa57fe5b60200260200101516001600160a01b0316141562000a6757604080518082019091526007546001600160a01b03168152825160208201908490600190811062000a3f57fe5b60209081029190910101516001600160a01b0316905262000a6590601a90600262000ea8565b505b60006001600160a01b03168160018151811062000a8057fe5b60200260200101516001600160a01b0316141562000adc5773bb4cdb9cbd36b01bd1cbaebf2de08d9173bc095c8160018151811062000abb57fe5b60200260200101906001600160a01b031690816001600160a01b0316815250505b60408051606081019091526007546001600160a01b03168152815160208201908390600190811062000b0a57fe5b6020908102919091018101516001600160a01b0390811683526006541691015262000b3a90601b90600362000ea8565b5060065481516001600160a01b03909116908290600190811062000b5a57fe5b60200260200101516001600160a01b0316141562000bc757604080518082019091526007546001600160a01b03168152815160208201908390600190811062000b9f57fe5b60209081029190910101516001600160a01b0316905262000bc590601b90600262000ea8565b505b60408051606081019091526005546001600160a01b03168152825160208201908490600190811062000bf557fe5b6020908102919091018101516001600160a01b0390811683526007541691015262000c2590601c90600362000ea8565b5060055482516001600160a01b03909116908390600190811062000c4557fe5b60200260200101516001600160a01b0316141562000ca85760405180604001604052808360018151811062000c7657fe5b6020908102919091018101516001600160a01b0390811683526007541691015262000ca690601c90600262000ea8565b505b60408051606081019091526006546001600160a01b03168152815160208201908390600190811062000cd657fe5b6020908102919091018101516001600160a01b0390811683526007541691015262000d0690601d90600362000ea8565b5060065481516001600160a01b03909116908290600190811062000d2657fe5b60200260200101516001600160a01b0316141562000d895760405180604001604052808260018151811062000d5757fe5b6020908102919091018101516001600160a01b0390811683526007541691015262000d8790601d90600262000ea8565b505b62000d948c62000daa565b50505050505050505050505062000f33565b3390565b62000db462000da6565b6000546001600160a01b0390811691161462000e17576040805162461bcd60e51b815260206004820181905260248201527f4f776e61626c653a2063616c6c6572206973206e6f7420746865206f776e6572604482015290519081900360640190fd5b6001600160a01b03811662000e5e5760405162461bcd60e51b815260040180806020018281038252602681526020018062005c136026913960400191505060405180910390fd5b600080546040516001600160a01b038085169392169160008051602062005c3983398151915291a3600080546001600160a01b0319166001600160a01b0392909216919091179055565b82805482825590600052602060002090810192821562000f00579160200282015b8281111562000f0057825182546001600160a01b0319166001600160a01b0390911617825560209092019160019091019062000ec9565b5062000f0e92915062000f12565b5090565b5b8082111562000f0e5780546001600160a01b031916815560010162000f13565b614cd08062000f436000396000f3fe608060405234801561001057600080fd5b50600436106104c25760003560e01c8063889adfa811610286578063ce5328e41161016b578063e5dd455a116100e3578063f106845411610097578063f3fef3a31161007c578063f3fef3a314610f2b578063f400d31114610f57578063fd3440c114610f74576104c2565b8063f106845414610efd578063f2fde38b14610f05576104c2565b8063e7a03679116100c8578063e7a0367914610e52578063ee50dc34146107b3578063efd9a47914610e5a576104c2565b8063e5dd455a14610e42578063e719847414610e4a576104c2565b8063d7cb416f1161013a578063db7a3c0f1161011f578063db7a3c0f14610e2a578063df5c8a9e14610e32578063dfee1dd914610e3a576104c2565b8063d7cb416f14610e1a578063d8be16da14610e22576104c2565b8063ce5328e414610d5f578063cf26843414610d67578063d33219b414610e0a578063d389800f14610e12576104c2565b8063bb9928c6116101fe578063c11c2e92116101cd578063c3ec8dda116101b2578063c3ec8dda14610cf6578063c7b9d53014610d1c578063c8e3d18b14610d42576104c2565b8063c11c2e9214610ce6578063c302a4d014610cee576104c2565b8063bb9928c614610be3578063bd1e7c2c14610c00578063bdacb30314610ca3578063bf94c0ba14610cc9576104c2565b8063a05968cd11610255578063b3545c011161023a578063b3545c0114610b98578063b3ab15fb14610ba0578063b77050e714610bc6576104c2565b8063a05968cd14610b55578063a552863214610b72576104c2565b8063889adfa814610b205780638da5cb5b14610b2857806396e9aff814610b305780639fc33a9f14610b4d576104c2565b80634d9f7bb2116103ac578063693a090b116103245780637ff36fbe116102f3578063846d9e17116102d8578063846d9e1714610a6d578063858f238414610a7557806385f02dd614610b18576104c2565b80637ff36fbe14610a5d5780638456cb5914610a65576104c2565b8063693a090b146109a2578063715018a6146109aa57806376a90231146109b25780637a20281e146109ba576104c2565b8063607f35a01161037b57806367206d401161036057806367206d40146108a55780636804d54a146108db5780636855b2e714610985576104c2565b8063607f35a01461089557806363fe3e3a1461089d576104c2565b80634d9f7bb2146107b357806351b699cd1461084b578063570ca735146108855780635c975abb1461088d576104c2565b80632717eff31161043f57806342da4eb31161040e57806345d6b667116103f357806345d6b667146107f857806347e7ef24146108175780634a56fcd414610843576104c2565b806342da4eb3146107e857806344a3955e146107f0576104c2565b80632717eff3146107b357806336e9332d146107bb5780633e1a8912146107c35780633f4ba83a146107e0576104c2565b80630fa4e01e116104965780631a43da931161047b5780631a43da93146105ec5780631fe4a686146105f45780632224fa25146105fc576104c2565b80630fa4e01e146105dc5780631334903f146105e4576104c2565b80627a2ae3146104c757806305b7bff214610500578063061c7d48146105a55780630754a71c146105bf575b600080fd5b6104e4600480360360208110156104dd57600080fd5b5035611017565b604080516001600160a01b039092168252519081900360200190f35b6105a36004803603602081101561051657600080fd5b81019060208101813564010000000081111561053157600080fd5b82018360208201111561054357600080fd5b8035906020019184602083028401116401000000008311171561056557600080fd5b91908080602002602001604051908101604052809392919081815260200183836020028082843760009201919091525092955061103e945050505050565b005b6105ad61109e565b60408051918252519081900360200190f35b6104e4600480360360208110156105d557600080fd5b50356110a4565b6105ad6110b1565b6105ad6110b7565b6104e46110bd565b6104e46110cc565b61073e6004803603608081101561061257600080fd5b6001600160a01b038235169160208101359181019060608101604082013564010000000081111561064257600080fd5b82018360208201111561065457600080fd5b8035906020019184600183028401116401000000008311171561067657600080fd5b91908080601f01602080910402602001604051908101604052809392919081815260200183838082843760009201919091525092959493602081019350359150506401000000008111156106c957600080fd5b8201836020820111156106db57600080fd5b803590602001918460018302840111640100000000831117156106fd57600080fd5b91908080601f0160208091040260200160405190810160405280939291908181526020018383808284376000920191909152509295506110db945050505050565b6040805160208082528351818301528351919283929083019185019080838360005b83811015610778578181015183820152602001610760565b50505050905090810190601f1680156107a55780820380516001836020036101000a031916815260200191505b509250505060405180910390f35b6105ad611414565b6105a361141a565b6105a3600480360360208110156107d957600080fd5b5035611485565b6105a361156a565b6105ad6115bd565b6105ad6115c3565b6105a36004803603602081101561080e57600080fd5b503515156115c9565b6105ad6004803603604081101561082d57600080fd5b506001600160a01b03813516906020013561165c565b6104e46117f3565b6108716004803603602081101561086157600080fd5b50356001600160a01b0316611802565b604080519115158252519081900360200190f35b6104e4611848565b610871611857565b6104e4611860565b6104e461186f565b6105a3600480360360608110156108bb57600080fd5b506001600160a01b03813581169160208101359160409091013516611887565b6105ad600480360360408110156108f157600080fd5b8135919081019060408101602082013564010000000081111561091357600080fd5b82018360208201111561092557600080fd5b8035906020019184602083028401116401000000008311171561094757600080fd5b9190808060200260200160405190810160405280939291908181526020018383602002808284376000920191909152509295506119f9945050505050565b6104e46004803603602081101561099b57600080fd5b5035611bae565b6104e4611bbb565b6105a3611bca565b6104e4611c96565b6105a3600480360360208110156109d057600080fd5b8101906020810181356401000000008111156109eb57600080fd5b8201836020820111156109fd57600080fd5b80359060200191846020830284011164010000000083111715610a1f57600080fd5b919080806020026020016040519081016040528093929190818152602001838360200280828437600092019190915250929550611cae945050505050565b6104e4611d0a565b6105a3611d19565b610871611d6a565b6105a360048036036020811015610a8b57600080fd5b810190602081018135640100000000811115610aa657600080fd5b820183602082011115610ab857600080fd5b80359060200191846020830284011164010000000083111715610ada57600080fd5b919080806020026020016040519081016040528093929190818152602001838360200280828437600092019190915250929550611d78945050505050565b6105ad611dd4565b6105ad611dda565b6104e4611e5f565b6104e460048036036020811015610b4657600080fd5b5035611e6e565b6104e4611e7b565b6104e460048036036020811015610b6b57600080fd5b5035611e91565b6105a360048036036020811015610b8857600080fd5b50356001600160a01b0316611e9e565b6105ad611f7e565b6105a360048036036020811015610bb657600080fd5b50356001600160a01b0316611f84565b6104e460048036036020811015610bdc57600080fd5b5035612007565b6105a360048036036020811015610bf957600080fd5b5035612014565b6105a360048036036020811015610c1657600080fd5b810190602081018135640100000000811115610c3157600080fd5b820183602082011115610c4357600080fd5b80359060200191846020830284011164010000000083111715610c6557600080fd5b9190808060200260200160405190810160405280939291908181526020018383602002808284376000920191909152509295506120bb945050505050565b6105a360048036036020811015610cb957600080fd5b50356001600160a01b0316612117565b6105a360048036036020811015610cdf57600080fd5b503561219a565b6105a3612241565b6105ad61275c565b6105a360048036036020811015610d0c57600080fd5b50356001600160a01b0316612762565b6105a360048036036020811015610d3257600080fd5b50356001600160a01b0316612844565b6104e460048036036020811015610d5857600080fd5b50356128c7565b6104e46128d4565b6105a360048036036020811015610d7d57600080fd5b810190602081018135640100000000811115610d9857600080fd5b820183602082011115610daa57600080fd5b80359060200191846020830284011164010000000083111715610dcc57600080fd5b9190808060200260200160405190810160405280939291908181526020018383602002808284376000920191909152509295506128e3945050505050565b6104e461293f565b6105a361294e565b6104e4613141565b610871613150565b6105ad613171565b6105ad61329a565b6105ad6132a0565b6108716132a6565b6104e46132b5565b6104e46132c4565b6105a360048036036020811015610e7057600080fd5b810190602081018135640100000000811115610e8b57600080fd5b820183602082011115610e9d57600080fd5b80359060200191846020830284011164010000000083111715610ebf57600080fd5b9190808060200260200160405190810160405280939291908181526020018383602002808284376000920191909152509295506132d3945050505050565b6105ad61332f565b6105a360048036036020811015610f1b57600080fd5b50356001600160a01b0316613335565b6105ad60048036036040811015610f4157600080fd5b506001600160a01b038135169060200135613457565b6105a360048036036020811015610f6d57600080fd5b50356137c6565b6105a360048036036020811015610f8a57600080fd5b810190602081018135640100000000811115610fa557600080fd5b820183602082011115610fb757600080fd5b80359060200191846020830284011164010000000083111715610fd957600080fd5b91908080602002602001604051908101604052809392919081815260200183836020028082843760009201919091525092955061386b945050505050565b601d818154811061102457fe5b6000918252602090912001546001600160a01b0316905081565b6009546001600160a01b031633146110875760405162461bcd60e51b815260040180806020018281038252602b815260200180614bfe602b913960400191505060405180910390fd5b805161109a906019906020840190614abe565b5050565b61012c81565b6019818154811061102457fe5b600c5481565b60165481565b6012546001600160a01b031681565b600a546001600160a01b031681565b600b546060906001600160a01b031633146111275760405162461bcd60e51b8152600401808060200182810382526027815260200180614c4a6027913960400191505060405180910390fd5b606083516000141561113a5750816111f0565b83805190602001208360405160200180837bffffffffffffffffffffffffffffffffffffffffffffffffffffffff1916815260040182805190602001908083835b602083106111b857805182527fffffffffffffffffffffffffffffffffffffffffffffffffffffffffffffffe0909201916020918201910161117b565b6001836020036101000a0380198251168184511680821785525050505050509050019250505060405160208183030381529060405290505b60006060876001600160a01b031687846040518082805190602001908083835b6020831061124d57805182527fffffffffffffffffffffffffffffffffffffffffffffffffffffffffffffffe09092019160209182019101611210565b6001836020036101000a03801982511681845116808217855250505050505090500191505060006040518083038185875af1925050503d80600081146112af576040519150601f19603f3d011682016040523d82523d6000602084013e6112b4565b606091505b5091509150816112f55760405162461bcd60e51b8152600401808060200182810382526044815260200180614b736044913960600191505060405180910390fd5b876001600160a01b03167f88405ca50016c636e025868e263efe5a9f63bf11cc45404f7616394c7dc389d0888888604051808481526020018060200180602001838103835285818151815260200191508051906020019080838360005b8381101561136a578181015183820152602001611352565b50505050905090810190601f1680156113975780820380516001836020036101000a031916815260200191505b50838103825284518152845160209182019186019080838360005b838110156113ca5781810151838201526020016113b2565b50505050905090810190601f1680156113f75780820380516001836020036101000a031916815260200191505b509550505050505060405180910390a2925050505b949350505050565b61271081565b60026001541415611472576040805162461bcd60e51b815260206004820152601f60248201527f5265656e7472616e637947756172643a207265656e7472616e742063616c6c00604482015290519081900360640190fd5b600260015561147f6138c7565b60018055565b6009546001600160a01b031633146114ce5760405162461bcd60e51b815260040180806020018281038252602b815260200180614bfe602b913960400191505060405180910390fd5b6126de8111611524576040805162461bcd60e51b815260206004820181905260248201527f427661756c747353747261746567793a202173616665202d20746f6f206c6f77604482015290519081900360640190fd5b6127108111156115655760405162461bcd60e51b8152600401808060200182810382526021815260200180614bb76021913960400191505060405180910390fd5b601655565b6009546001600160a01b031633146115b35760405162461bcd60e51b815260040180806020018281038252602b815260200180614bfe602b913960400191505060405180910390fd5b6115bb613abb565b565b600d5481565b600e5481565b6009546001600160a01b031633146116125760405162461bcd60e51b815260040180806020018281038252602b815260200180614bfe602b913960400191505060405180910390fd5b600b805491151574010000000000000000000000000000000000000000027fffffffffffffffffffffff00ffffffffffffffffffffffffffffffffffffffff909216919091179055565b6000611666613b80565b6000546001600160a01b039081169116146116c8576040805162461bcd60e51b815260206004820181905260248201527f4f776e61626c653a2063616c6c6572206973206e6f7420746865206f776e6572604482015290519081900360640190fd5b60025460ff1615611720576040805162461bcd60e51b815260206004820152601060248201527f5061757361626c653a2070617573656400000000000000000000000000000000604482015290519081900360640190fd5b600454611738906001600160a01b0316333085613b84565b600d548290156117785761177561271061176f600d5461176f601654611769600e548a613c1290919063ffffffff16565b90613c12565b90613c72565b90505b600e546117859082613cb4565b600e5560025462010000900460ff16156117a6576117a16138c7565b6117b7565b600d546117b39084613cb4565b600d555b6040805184815290517f4d6ce1e535dbade1c23defba91e23b8f791ce5edc0cc320257a2b364e4e384269181900360200190a190505b92915050565b6015546001600160a01b031681565b6009546000906001600160a01b038381169116148061182b5750600a546001600160a01b031633145b806118405750600b546001600160a01b031633145b90505b919050565b6009546001600160a01b031681565b60025460ff1690565b6014546001600160a01b031681565b73bb4cdb9cbd36b01bd1cbaebf2de08d9173bc095c81565b6009546001600160a01b031633146118d05760405162461bcd60e51b815260040180806020018281038252602b815260200180614bfe602b913960400191505060405180910390fd5b6007546001600160a01b0384811691161415611933576040805162461bcd60e51b815260206004820152600560248201527f2173616665000000000000000000000000000000000000000000000000000000604482015290519081900360640190fd5b6004546001600160a01b0384811691161415611996576040805162461bcd60e51b815260206004820152600560248201527f2173616665000000000000000000000000000000000000000000000000000000604482015290519081900360640190fd5b6119aa6001600160a01b0384168284613d0e565b604080516001600160a01b0380861682526020820185905283168183015290517f22f92dfb4f608ea5db1e9bb08c0b4f5518af93b1259d335fe05900056096ab2c9181900360600190a1505050565b600854604080517fd06ca61f00000000000000000000000000000000000000000000000000000000815260048101858152602482019283528451604483015284516000946060946001600160a01b039091169363d06ca61f9389938993919260640190602080860191028083838d5b83811015611a80578181015183820152602001611a68565b50505050905001935050505060006040518083038186803b158015611aa457600080fd5b505afa158015611ab8573d6000803e3d6000fd5b505050506040513d6000823e601f3d9081017fffffffffffffffffffffffffffffffffffffffffffffffffffffffffffffffe01682016040526020811015611aff57600080fd5b8101908080516040519392919084640100000000821115611b1f57600080fd5b908301906020820185811115611b3457600080fd5b8251866020820283011164010000000082111715611b5157600080fd5b82525081516020918201928201910280838360005b83811015611b7e578181015183820152602001611b66565b50505050905001604052505050905080600182510381518110611b9d57fe5b602002602001015191505092915050565b6017818154811061102457fe5b6008546001600160a01b031681565b611bd2613b80565b6000546001600160a01b03908116911614611c34576040805162461bcd60e51b815260206004820181905260248201527f4f776e61626c653a2063616c6c6572206973206e6f7420746865206f776e6572604482015290519081900360640190fd5b600080546040516001600160a01b03909116907f8be0079c531659141344cd1fd0a4f28419497f9722a3daafe3b4186f6b6457e0908390a3600080547fffffffffffffffffffffffff0000000000000000000000000000000000000000169055565b73e9e7cea3dedca5984780bafc599bd69add087d5681565b6009546001600160a01b03163314611cf75760405162461bcd60e51b815260040180806020018281038252602b815260200180614bfe602b913960400191505060405180910390fd5b805161109a90601c906020840190614abe565b6005546001600160a01b031681565b6009546001600160a01b03163314611d625760405162461bcd60e51b815260040180806020018281038252602b815260200180614bfe602b913960400191505060405180910390fd5b6115bb613d93565b600254610100900460ff1681565b6009546001600160a01b03163314611dc15760405162461bcd60e51b815260040180806020018281038252602b815260200180614bfe602b913960400191505060405180910390fd5b805161109a90601d906020840190614abe565b600f5481565b600080611de5613171565b90508015611e5657611e51816019805480602002602001604051908101604052809291908181526020018280548015611e4757602002820191906000526020600020905b81546001600160a01b03168152600190910190602001808311611e29575b50505050506119f9565b611e59565b60005b91505090565b6000546001600160a01b031690565b601b818154811061102457fe5b600254630100000090046001600160a01b031681565b6018818154811061102457fe5b6009546001600160a01b03163314611ee75760405162461bcd60e51b815260040180806020018281038252602b815260200180614bfe602b913960400191505060405180910390fd5b6001600160a01b038116611f44576040805162461bcd60e51b8152602060048083019190915260248201527f7a65726f00000000000000000000000000000000000000000000000000000000604482015290519081900360640190fd5b601580547fffffffffffffffffffffffff0000000000000000000000000000000000000000166001600160a01b0392909216919091179055565b61032081565b6009546001600160a01b03163314611fcd5760405162461bcd60e51b815260040180806020018281038252602b815260200180614bfe602b913960400191505060405180910390fd5b600980547fffffffffffffffffffffffff0000000000000000000000000000000000000000166001600160a01b0392909216919091179055565b601c818154811061102457fe5b6009546001600160a01b0316331461205d5760405162461bcd60e51b815260040180806020018281038252602b815260200180614bfe602b913960400191505060405180910390fd5b61032060135411156120b6576040805162461bcd60e51b815260206004820152601960248201527f427661756c747353747261746567793a20746f6f206869676800000000000000604482015290519081900360640190fd5b601355565b6009546001600160a01b031633146121045760405162461bcd60e51b815260040180806020018281038252602b815260200180614bfe602b913960400191505060405180910390fd5b805161109a90601a906020840190614abe565b600b546001600160a01b031633146121605760405162461bcd60e51b8152600401808060200182810382526027815260200180614c4a6027913960400191505060405180910390fd5b600b80547fffffffffffffffffffffffff0000000000000000000000000000000000000000166001600160a01b0392909216919091179055565b6009546001600160a01b031633146121e35760405162461bcd60e51b815260040180806020018281038252602b815260200180614bfe602b913960400191505060405180910390fd5b610320601054111561223c576040805162461bcd60e51b815260206004820152601960248201527f427661756c747353747261746567793a20746f6f206869676800000000000000604482015290519081900360640190fd5b601055565b60025460ff1615612299576040805162461bcd60e51b815260206004820152601060248201527f5061757361626c653a2070617573656400000000000000000000000000000000604482015290519081900360640190fd5b60025462010000900460ff166122f6576040805162461bcd60e51b815260206004820152600b60248201527f2169734175746f436f6d70000000000000000000000000000000000000000000604482015290519081900360640190fd5b600254610100900460ff1615612353576040805162461bcd60e51b815260206004820152600d60248201527f697343414b455374616b696e6700000000000000000000000000000000000000604482015290519081900360640190fd5b600554604080516370a0823160e01b815230600482015290516000926001600160a01b0316916370a08231916024808301926020929190829003018186803b15801561239e57600080fd5b505afa1580156123b2573d6000803e3d6000fd5b505050506040513d60208110156123c857600080fd5b50516007546005549192506001600160a01b039182169116148015906123ee5750600081115b1561255657600854600554612410916001600160a01b03918216911683613e3f565b6008546040517f5c11d795000000000000000000000000000000000000000000000000000000008152600481018381526000602483018190523060648401819052603c42016084850181905260a060448601908152601c805460a488018190526001600160a01b0390981697635c11d795978a97929594939160c490910190869080156124c657602002820191906000526020600020905b81546001600160a01b031681526001909101906020018083116124a8575b50509650505050505050600060405180830381600087803b1580156124ea57600080fd5b505af11580156124fe573d6000803e3d6000fd5b5050600554600754604080516001600160a01b03938416815291909216602082015280820185905290517f65dcf313a2a7fa900bdbeb87203f9ac8009224d4656965a6b8498b8b245e0e1c9350908190036060019150a15b600654604080516370a0823160e01b815230600482015290516000926001600160a01b0316916370a08231916024808301926020929190829003018186803b1580156125a157600080fd5b505afa1580156125b5573d6000803e3d6000fd5b505050506040513d60208110156125cb57600080fd5b50516007546006549192506001600160a01b039182169116148015906125f15750600081115b1561109a57600854600654612613916001600160a01b03918216911683613e3f565b6008546040517f5c11d795000000000000000000000000000000000000000000000000000000008152600481018381526000602483018190523060648401819052603c42016084850181905260a060448601908152601d805460a488018190526001600160a01b0390981697635c11d795978a97929594939160c490910190869080156126c957602002820191906000526020600020905b81546001600160a01b031681526001909101906020018083116126ab575b50509650505050505050600060405180830381600087803b1580156126ed57600080fd5b505af1158015612701573d6000803e3d6000fd5b5050600654600754604080516001600160a01b03938416815291909216602082015280820185905290517f65dcf313a2a7fa900bdbeb87203f9ac8009224d4656965a6b8498b8b245e0e1c9350908190036060019150a15050565b6126de81565b6009546001600160a01b031633146127ab5760405162461bcd60e51b815260040180806020018281038252602b815260200180614bfe602b913960400191505060405180910390fd5b6012546001600160a01b031661280a576040805162461bcd60e51b8152602060048083019190915260248201527f7a65726f00000000000000000000000000000000000000000000000000000000604482015290519081900360640190fd5b601280547fffffffffffffffffffffffff0000000000000000000000000000000000000000166001600160a01b0392909216919091179055565b6009546001600160a01b0316331461288d5760405162461bcd60e51b815260040180806020018281038252602b815260200180614bfe602b913960400191505060405180910390fd5b600a80547fffffffffffffffffffffffff0000000000000000000000000000000000000000166001600160a01b0392909216919091179055565b601a818154811061102457fe5b6011546001600160a01b031681565b6009546001600160a01b0316331461292c5760405162461bcd60e51b815260040180806020018281038252602b815260200180614bfe602b913960400191505060405180910390fd5b805161109a90601b906020840190614abe565b600b546001600160a01b031681565b60025460ff16156129a6576040805162461bcd60e51b815260206004820152601060248201527f5061757361626c653a2070617573656400000000000000000000000000000000604482015290519081900360640190fd5b60025462010000900460ff16612a03576040805162461bcd60e51b815260206004820152601c60248201527f427661756c747353747261746567793a202169734175746f436f6d7000000000604482015290519081900360640190fd5b600b5474010000000000000000000000000000000000000000900460ff161580612a315750612a3133611802565b612a82576040805162461bcd60e51b815260206004820152601c60248201527f427661756c747353747261746567793a2021617574686f726973656400000000604482015290519081900360640190fd5b600254610100900460ff1615612b0b57600260039054906101000a90046001600160a01b03166001600160a01b0316631058d28160006040518263ffffffff1660e01b815260040180828152602001915050600060405180830381600087803b158015612aee57600080fd5b505af1158015612b02573d6000803e3d6000fd5b50505050612b8a565b600260039054906101000a90046001600160a01b03166001600160a01b031663e2bbb15860035460006040518363ffffffff1660e01b81526004018083815260200182815260200192505050600060405180830381600087803b158015612b7157600080fd5b505af1158015612b85573d6000803e3d6000fd5b505050505b600754604080516370a0823160e01b815230600482015290516000926001600160a01b0316916370a08231916024808301926020929190829003018186803b158015612bd557600080fd5b505afa158015612be9573d6000803e3d6000fd5b505050506040513d6020811015612bff57600080fd5b5051600754604080516001600160a01b0390921682526020820183905280519293507f053fa1fc52294a40b4ff1a988765bd298c00caa24d685cc3f767dcfde254ef9a92918290030190a16000612c5582613f26565b90506000612c6283613fc8565b90506000612c6f8461433c565b9050612c8781612c8184818888614734565b90614734565b600254909450610100900460ff1615612caf5743600c55612ca66138c7565b505050506115bb565b600854600754612ccc916001600160a01b03918216911686613e3f565b6005546007546001600160a01b03908116911614612dc5576008546001600160a01b0316635c11d795612d00866002613c72565b6000601a3042603c016040518663ffffffff1660e01b81526004018086815260200185815260200180602001846001600160a01b031681526020018381526020018281038252858181548152602001915080548015612d8857602002820191906000526020600020905b81546001600160a01b03168152600190910190602001808311612d6a575b50509650505050505050600060405180830381600087803b158015612dac57600080fd5b505af1158015612dc0573d6000803e3d6000fd5b505050505b6006546007546001600160a01b03908116911614612ebe576008546001600160a01b0316635c11d795612df9866002613c72565b6000601b3042603c016040518663ffffffff1660e01b81526004018086815260200185815260200180602001846001600160a01b031681526020018381526020018281038252858181548152602001915080548015612e8157602002820191906000526020600020905b81546001600160a01b03168152600190910190602001808311612e63575b50509650505050505050600060405180830381600087803b158015612ea557600080fd5b505af1158015612eb9573d6000803e3d6000fd5b505050505b600554604080516370a0823160e01b815230600482015290516000926001600160a01b0316916370a08231916024808301926020929190829003018186803b158015612f0957600080fd5b505afa158015612f1d573d6000803e3d6000fd5b505050506040513d6020811015612f3357600080fd5b5051600654604080516370a0823160e01b815230600482015290519293506000926001600160a01b03909216916370a0823191602480820192602092909190829003018186803b158015612f8657600080fd5b505afa158015612f9a573d6000803e3d6000fd5b505050506040513d6020811015612fb057600080fd5b505190508115801590612fc35750600081115b1561312d57600854600554612fe5916001600160a01b03918216911684613e3f565b600854600654613002916001600160a01b03918216911683613e3f565b600854600554600654604080517fe8e337000000000000000000000000000000000000000000000000000000000081526001600160a01b0393841660048201529183166024830152604482018690526064820185905260006084830181905260a483018190523060c4840152603c420160e48401529051929093169263e8e3370092610104808401936060939083900390910190829087803b1580156130a757600080fd5b505af11580156130bb573d6000803e3d6000fd5b505050506040513d60608110156130d157600080fd5b5050600554600654604080516001600160a01b0393841681526020810186905291909216818301526060810183905290517f44552da03f807ace3e5f27e98e694712dfe668c743514b28d4d9f5ab70574b0f9181900360800190a15b43600c556131396138c7565b505050505050565b6006546001600160a01b031681565b600b5474010000000000000000000000000000000000000000900460ff1681565b600754604080516370a0823160e01b8152306004820152905160009283926001600160a01b03909116916370a0823191602480820192602092909190829003018186803b1580156131c157600080fd5b505afa1580156131d5573d6000803e3d6000fd5b505050506040513d60208110156131eb57600080fd5b5051600254600354604080517fd18df53c000000000000000000000000000000000000000000000000000000008152600481019290925230602483015251929350611e59928492630100000090046001600160a01b03169163d18df53c916044808301926020929190829003018186803b15801561326857600080fd5b505afa15801561327c573d6000803e3d6000fd5b505050506040513d602081101561329257600080fd5b505190613cb4565b60105481565b60135481565b60025462010000900460ff1681565b6007546001600160a01b031681565b6004546001600160a01b031681565b6009546001600160a01b0316331461331c5760405162461bcd60e51b815260040180806020018281038252602b815260200180614bfe602b913960400191505060405180910390fd5b805161109a906018906020840190614abe565b60035481565b61333d613b80565b6000546001600160a01b0390811691161461339f576040805162461bcd60e51b815260206004820181905260248201527f4f776e61626c653a2063616c6c6572206973206e6f7420746865206f776e6572604482015290519081900360640190fd5b6001600160a01b0381166133e45760405162461bcd60e51b8152600401808060200182810382526026815260200180614bd86026913960400191505060405180910390fd5b600080546040516001600160a01b03808516939216917f8be0079c531659141344cd1fd0a4f28419497f9722a3daafe3b4186f6b6457e091a3600080547fffffffffffffffffffffffff0000000000000000000000000000000000000000166001600160a01b0392909216919091179055565b6000613461613b80565b6000546001600160a01b039081169116146134c3576040805162461bcd60e51b815260206004820181905260248201527f4f776e61626c653a2063616c6c6572206973206e6f7420746865206f776e6572604482015290519081900360640190fd5b6002600154141561351b576040805162461bcd60e51b815260206004820152601f60248201527f5265656e7472616e637947756172643a207265656e7472616e742063616c6c00604482015290519081900360640190fd5b600260015581613572576040805162461bcd60e51b815260206004820152601a60248201527f427661756c747353747261746567793a20215f77616e74416d74000000000000604482015290519081900360640190fd5b60025462010000900460ff161561368957600254610100900460ff161561360b57600260039054906101000a90046001600160a01b03166001600160a01b0316631058d281836040518263ffffffff1660e01b815260040180828152602001915050600060405180830381600087803b1580156135ee57600080fd5b505af1158015613602573d6000803e3d6000fd5b50505050613689565b600260039054906101000a90046001600160a01b03166001600160a01b031663441a3e70600354846040518363ffffffff1660e01b81526004018083815260200182815260200192505050600060405180830381600087803b15801561367057600080fd5b505af1158015613684573d6000803e3d6000fd5b505050505b60048054604080516370a0823160e01b81523093810193909352516000926001600160a01b03909216916370a08231916024808301926020929190829003018186803b1580156136d857600080fd5b505afa1580156136ec573d6000803e3d6000fd5b505050506040513d602081101561370257600080fd5b5051905080831115613712578092505b82600d54101561372257600d5492505b600061373f600d5461176f600e5487613c1290919063ffffffff16565b9050600e548111156137505750600e545b600e5461375d9082614734565b600e55600d5461376d9085614734565b600d55600454613787906001600160a01b03163386613d0e565b6040805185815290517f5b6b431d4476a211bb7d41c20d1aab9ae2321deee0d20be3d9fc9b1093fa6e3d9181900360200190a160018055949350505050565b6009546001600160a01b0316331461380f5760405162461bcd60e51b815260040180806020018281038252602b815260200180614bfe602b913960400191505060405180910390fd5b61012c811115613866576040805162461bcd60e51b815260206004820152601960248201527f427661756c747353747261746567793a20746f6f206869676800000000000000604482015290519081900360640190fd5b600f55565b6009546001600160a01b031633146138b45760405162461bcd60e51b815260040180806020018281038252602b815260200180614bfe602b913960400191505060405180910390fd5b805161109a906017906020840190614abe565b60048054604080516370a0823160e01b81523093810193909352516000926001600160a01b03909216916370a08231916024808301926020929190829003018186803b15801561391657600080fd5b505afa15801561392a573d6000803e3d6000fd5b505050506040513d602081101561394057600080fd5b5051600d549091506139529082613cb4565b600d5560025460045461397a916001600160a01b039182169163010000009091041683613e3f565b600254610100900460ff1615613a0757600260039054906101000a90046001600160a01b03166001600160a01b03166341441d3b826040518263ffffffff1660e01b815260040180828152602001915050600060405180830381600087803b1580156139e557600080fd5b505af11580156139f9573d6000803e3d6000fd5b505043600c5550613a859050565b600260039054906101000a90046001600160a01b03166001600160a01b031663e2bbb158600354836040518363ffffffff1660e01b81526004018083815260200182815260200192505050600060405180830381600087803b158015613a6c57600080fd5b505af1158015613a80573d6000803e3d6000fd5b505050505b6040805182815290517fc217459869eed80bfbe5c11e78ab58912eedfd106342671821b6e96d1615dc7f9181900360200190a150565b60025460ff16613b12576040805162461bcd60e51b815260206004820152601460248201527f5061757361626c653a206e6f7420706175736564000000000000000000000000604482015290519081900360640190fd5b600280547fffffffffffffffffffffffffffffffffffffffffffffffffffffffffffffff001690557f5db9ee0a495bf2e6ff9c91a7834c1ba4fdd244a5e8aa4e537bd38aeae4b073aa613b63613b80565b604080516001600160a01b039092168252519081900360200190a1565b3390565b604080516001600160a01b0380861660248301528416604482015260648082018490528251808303909101815260849091019091526020810180517bffffffffffffffffffffffffffffffffffffffffffffffffffffffff167f23b872dd00000000000000000000000000000000000000000000000000000000179052613c0c908590614776565b50505050565b600082613c21575060006117ed565b82820282848281613c2e57fe5b0414613c6b5760405162461bcd60e51b8152600401808060200182810382526021815260200180614c296021913960400191505060405180910390fd5b9392505050565b6000613c6b83836040518060400160405280601a81526020017f536166654d6174683a206469766973696f6e206279207a65726f000000000000815250614827565b600082820183811015613c6b576040805162461bcd60e51b815260206004820152601b60248201527f536166654d6174683a206164646974696f6e206f766572666c6f770000000000604482015290519081900360640190fd5b604080516001600160a01b038416602482015260448082018490528251808303909101815260649091019091526020810180517bffffffffffffffffffffffffffffffffffffffffffffffffffffffff167fa9059cbb00000000000000000000000000000000000000000000000000000000179052613d8e908490614776565b505050565b60025460ff1615613deb576040805162461bcd60e51b815260206004820152601060248201527f5061757361626c653a2070617573656400000000000000000000000000000000604482015290519081900360640190fd5b600280547fffffffffffffffffffffffffffffffffffffffffffffffffffffffffffffff001660011790557f62e78cea01bee320cd4e420270b5ea74000d11b0c9f74754ebdbfc544b05a258613b63613b80565b6000613ea382856001600160a01b031663dd62ed3e30876040518363ffffffff1660e01b815260040180836001600160a01b03168152602001826001600160a01b031681526020019250505060206040518083038186803b15801561326857600080fd5b604080516001600160a01b038616602482015260448082018490528251808303909101815260649091019091526020810180517bffffffffffffffffffffffffffffffffffffffffffffffffffffffff167f095ea7b300000000000000000000000000000000000000000000000000000000179052909150613c0c908590614776565b6000811561184357600f541561184357613f5161271061176f600f5485613c1290919063ffffffff16565b600954600754919250613f71916001600160a01b03908116911683613d0e565b600754600954604080516001600160a01b03938416815260208101859052919092168183015290517f056e5430e11cfdfb90a183ec3bf63ed22abe70cdf4e7bd3018d8b459bbd7f6199181900360600190a1919050565b6010546000901580613fe357506012546001600160a01b0316155b15613ff057506000611843565b600061400d61271061176f60105486613c1290919063ffffffff16565b601754601154601254604080516370a0823160e01b81526001600160a01b0392831660048201529051949550929360009391909216916370a0823191602480820192602092909190829003018186803b15801561406957600080fd5b505afa15801561407d573d6000803e3d6000fd5b505050506040513d602081101561409357600080fd5b505160178054919250907fffffffffffffffffffffffffffffffffffffffffffffffffffffffffffffffff84019081106140c957fe5b6000918252602082200154601780546001600160a01b039092169290916140ec57fe5b6000918252602090912001546001600160a01b03161461422057600854600754614123916001600160a01b03918216911685613e3f565b6008546012546040517f5c11d795000000000000000000000000000000000000000000000000000000008152600481018681526000602483018190526001600160a01b0393841660648401819052603c42016084850181905260a0604486019081526017805460a488018190529790981697635c11d795978c979596919591929160c40190869080156141df57602002820191906000526020600020905b81546001600160a01b031681526001909101906020018083116141c1575b50509650505050505050600060405180830381600087803b15801561420357600080fd5b505af1158015614217573d6000803e3d6000fd5b5050505061423d565b60125460075461423d916001600160a01b03918216911685613d0e565b601154601254604080516370a0823160e01b81526001600160a01b039283166004820152905160009392909216916370a0823191602480820192602092909190829003018186803b15801561429157600080fd5b505afa1580156142a5573d6000803e3d6000fd5b505050506040513d60208110156142bb57600080fd5b5051905060006142cb8284614734565b600754601154601254604080516001600160a01b03948516815292841660208401528281018a9052606083018590529216608082015290519192507fb152a9c4203a9515a80fadb5b18afb6bfce5350eccdfda9d0908ac37ec094222919081900360a00190a1509295945050505050565b601354600090158061435757506015546001600160a01b0316155b1561436457506000611843565b600061438161271061176f60135486613c1290919063ffffffff16565b601854601454601554604080516370a0823160e01b81526001600160a01b0392831660048201529051949550929360009391909216916370a0823191602480820192602092909190829003018186803b1580156143dd57600080fd5b505afa1580156143f1573d6000803e3d6000fd5b505050506040513d602081101561440757600080fd5b505160188054919250907fffffffffffffffffffffffffffffffffffffffffffffffffffffffffffffffff840190811061443d57fe5b6000918252602082200154601880546001600160a01b0390921692909161446057fe5b6000918252602090912001546001600160a01b03161461459457600854600754614497916001600160a01b03918216911685613e3f565b6008546015546040517f5c11d795000000000000000000000000000000000000000000000000000000008152600481018681526000602483018190526001600160a01b0393841660648401819052603c42016084850181905260a0604486019081526018805460a488018190529790981697635c11d795978c979596919591929160c401908690801561455357602002820191906000526020600020905b81546001600160a01b03168152600190910190602001808311614535575b50509650505050505050600060405180830381600087803b15801561457757600080fd5b505af115801561458b573d6000803e3d6000fd5b505050506145b1565b6015546007546145b1916001600160a01b03918216911685613d0e565b601454601554604080516370a0823160e01b81526001600160a01b039283166004820152905160009392909216916370a0823191602480820192602092909190829003018186803b15801561460557600080fd5b505afa158015614619573d6000803e3d6000fd5b505050506040513d602081101561462f57600080fd5b50519050600061463f8284614734565b9050801561472957601554604080517f50afa34b0000000000000000000000000000000000000000000000000000000081526004810184905290516001600160a01b03909216916350afa34b9160248082019260009290919082900301818387803b1580156146ad57600080fd5b505af11580156146c1573d6000803e3d6000fd5b5050600754601454601554604080516001600160a01b03948516815292841660208401528281018b9052606083018790529216608082015290517fb152a9c4203a9515a80fadb5b18afb6bfce5350eccdfda9d0908ac37ec09422293509081900360a0019150a15b509295945050505050565b6000613c6b83836040518060400160405280601e81526020017f536166654d6174683a207375627472616374696f6e206f766572666c6f7700008152506148c9565b60606147cb826040518060400160405280602081526020017f5361666545524332303a206c6f772d6c6576656c2063616c6c206661696c6564815250856001600160a01b03166149239092919063ffffffff16565b805190915015613d8e578080602001905160208110156147ea57600080fd5b5051613d8e5760405162461bcd60e51b815260040180806020018281038252602a815260200180614c71602a913960400191505060405180910390fd5b600081836148b35760405162461bcd60e51b81526004018080602001828103825283818151815260200191508051906020019080838360005b83811015614878578181015183820152602001614860565b50505050905090810190601f1680156148a55780820380516001836020036101000a031916815260200191505b509250505060405180910390fd5b5060008385816148bf57fe5b0495945050505050565b6000818484111561491b5760405162461bcd60e51b8152602060048201818152835160248401528351909283926044909101919085019080838360008315614878578181015183820152602001614860565b505050900390565b606061140c8484600085606061493885614ab8565b614989576040805162461bcd60e51b815260206004820152601d60248201527f416464726573733a2063616c6c20746f206e6f6e2d636f6e7472616374000000604482015290519081900360640190fd5b60006060866001600160a01b031685876040518082805190602001908083835b602083106149e657805182527fffffffffffffffffffffffffffffffffffffffffffffffffffffffffffffffe090920191602091820191016149a9565b6001836020036101000a03801982511681845116808217855250505050505090500191505060006040518083038185875af1925050503d8060008114614a48576040519150601f19603f3d011682016040523d82523d6000602084013e614a4d565b606091505b50915091508115614a6157915061140c9050565b805115614a715780518082602001fd5b60405162461bcd60e51b8152602060048201818152865160248401528651879391928392604401919085019080838360008315614878578181015183820152602001614860565b3b151590565b828054828255906000526020600020908101928215614b2b579160200282015b82811115614b2b57825182547fffffffffffffffffffffffff0000000000000000000000000000000000000000166001600160a01b03909116178255602090920191600190910190614ade565b50614b37929150614b3b565b5090565b5b80821115614b375780547fffffffffffffffffffffffff0000000000000000000000000000000000000000168155600101614b3c56fe427661756c747353747261746567793a3a657865637574655472616e73616374696f6e3a205472616e73616374696f6e20657865637574696f6e2072657665727465642e427661756c747353747261746567793a202173616665202d20746f6f20686967684f776e61626c653a206e6577206f776e657220697320746865207a65726f2061646472657373427661756c747353747261746567793a2063616c6c6572206973206e6f7420746865206f70657261746f72536166654d6174683a206d756c7469706c69636174696f6e206f766572666c6f77427661756c747353747261746567793a2063616c6c6572206973206e6f742074696d656c6f636b5361666545524332303a204552433230206f7065726174696f6e20646964206e6f742073756363656564a26469706673582212203838fcb822f4a9fe4b8721e5d85ec808d6cabf55c3b1cde26b44010a0cd95f7e64736f6c634300060c00334f776e61626c653a206e6577206f776e657220697320746865207a65726f20616464726573738be0079c531659141344cd1fd0a4f28419497f9722a3daafe3b4186f6b6457e0",
          "opcodes": "PUSH1 0x80 PUSH1 0x40 MSTORE PUSH1 0x8 DUP1 SLOAD PUSH1 0x1 PUSH1 0x1 PUSH1 0xA0 SHL SUB NOT SWAP1 DUP2 AND PUSH20 0x5FF2B0DB69458A0750BADEBC4F9E13ADD608C7F OR SWAP1 SWAP2 SSTORE PUSH1 0xB DUP1 SLOAD PUSH1 0xFF PUSH1 0xA0 SHL NOT SWAP1 DUP4 AND PUSH20 0x92A082AD5A942140BCC791081F775900D0A514D9 OR AND SWAP1 SSTORE PUSH1 0x0 PUSH1 0xC DUP2 SWAP1 SSTORE PUSH1 0xD DUP2 SWAP1 SSTORE PUSH1 0xE DUP2 SWAP1 SSTORE PUSH1 0xF SSTORE PUSH1 0xBE PUSH1 0x10 SSTORE PUSH1 0x11 DUP1 SLOAD DUP3 AND PUSH20 0x81859801B01764D4F0FA5E64729F5A6C3B91435B OR SWAP1 SSTORE PUSH1 0x12 DUP1 SLOAD DUP3 AND PUSH2 0xDEAD SWAP1 DUP2 OR SWAP1 SWAP2 SSTORE PUSH1 0x64 PUSH1 0x13 SSTORE PUSH1 0x14 DUP1 SLOAD DUP4 AND PUSH20 0x190B589CF9FB8DDEABBFEAE36A813FFB2A702454 OR SWAP1 SSTORE PUSH1 0x15 DUP1 SLOAD SWAP1 SWAP3 AND OR SWAP1 SSTORE PUSH2 0x2710 PUSH1 0x16 SSTORE CALLVALUE DUP1 ISZERO PUSH3 0xD9 JUMPI PUSH1 0x0 DUP1 REVERT JUMPDEST POP PUSH1 0x40 MLOAD PUSH3 0x5C59 CODESIZE SUB DUP1 PUSH3 0x5C59 DUP4 CODECOPY DUP2 DUP2 ADD PUSH1 0x40 MSTORE PUSH2 0x180 DUP2 LT ISZERO PUSH3 0x100 JUMPI PUSH1 0x0 DUP1 REVERT JUMPDEST DUP2 MLOAD PUSH1 0x20 DUP4 ADD MLOAD PUSH1 0x40 DUP1 DUP6 ADD MLOAD PUSH1 0x60 DUP7 ADD MLOAD PUSH1 0x80 DUP8 ADD MLOAD PUSH1 0xA0 DUP9 ADD MLOAD PUSH1 0xC0 DUP10 ADD MLOAD PUSH1 0xE0 DUP11 ADD MLOAD PUSH2 0x100 DUP12 ADD DUP1 MLOAD SWAP8 MLOAD SWAP10 SWAP12 SWAP9 SWAP11 SWAP7 SWAP10 SWAP6 SWAP9 SWAP5 SWAP8 SWAP4 SWAP7 SWAP3 SWAP6 SWAP2 SWAP5 SWAP2 SWAP4 SWAP3 DUP3 ADD SWAP3 DUP5 PUSH5 0x100000000 DUP3 GT ISZERO PUSH3 0x159 JUMPI PUSH1 0x0 DUP1 REVERT JUMPDEST SWAP1 DUP4 ADD SWAP1 PUSH1 0x20 DUP3 ADD DUP6 DUP2 GT ISZERO PUSH3 0x16F JUMPI PUSH1 0x0 DUP1 REVERT JUMPDEST DUP3 MLOAD DUP7 PUSH1 0x20 DUP3 MUL DUP4 ADD GT PUSH5 0x100000000 DUP3 GT OR ISZERO PUSH3 0x18D JUMPI PUSH1 0x0 DUP1 REVERT JUMPDEST DUP3 MSTORE POP DUP2 MLOAD PUSH1 0x20 SWAP2 DUP3 ADD SWAP3 DUP3 ADD SWAP2 MUL DUP1 DUP4 DUP4 PUSH1 0x0 JUMPDEST DUP4 DUP2 LT ISZERO PUSH3 0x1BC JUMPI DUP2 DUP2 ADD MLOAD DUP4 DUP3 ADD MSTORE PUSH1 0x20 ADD PUSH3 0x1A2 JUMP JUMPDEST POP POP POP POP SWAP1 POP ADD PUSH1 0x40 MSTORE PUSH1 0x20 ADD DUP1 MLOAD PUSH1 0x40 MLOAD SWAP4 SWAP3 SWAP2 SWAP1 DUP5 PUSH5 0x100000000 DUP3 GT ISZERO PUSH3 0x1E6 JUMPI PUSH1 0x0 DUP1 REVERT JUMPDEST SWAP1 DUP4 ADD SWAP1 PUSH1 0x20 DUP3 ADD DUP6 DUP2 GT ISZERO PUSH3 0x1FC JUMPI PUSH1 0x0 DUP1 REVERT JUMPDEST DUP3 MLOAD DUP7 PUSH1 0x20 DUP3 MUL DUP4 ADD GT PUSH5 0x100000000 DUP3 GT OR ISZERO PUSH3 0x21A JUMPI PUSH1 0x0 DUP1 REVERT JUMPDEST DUP3 MSTORE POP DUP2 MLOAD PUSH1 0x20 SWAP2 DUP3 ADD SWAP3 DUP3 ADD SWAP2 MUL DUP1 DUP4 DUP4 PUSH1 0x0 JUMPDEST DUP4 DUP2 LT ISZERO PUSH3 0x249 JUMPI DUP2 DUP2 ADD MLOAD DUP4 DUP3 ADD MSTORE PUSH1 0x20 ADD PUSH3 0x22F JUMP JUMPDEST POP POP POP POP SWAP1 POP ADD PUSH1 0x40 MSTORE PUSH1 0x20 ADD DUP1 MLOAD PUSH1 0x40 MLOAD SWAP4 SWAP3 SWAP2 SWAP1 DUP5 PUSH5 0x100000000 DUP3 GT ISZERO PUSH3 0x273 JUMPI PUSH1 0x0 DUP1 REVERT JUMPDEST SWAP1 DUP4 ADD SWAP1 PUSH1 0x20 DUP3 ADD DUP6 DUP2 GT ISZERO PUSH3 0x289 JUMPI PUSH1 0x0 DUP1 REVERT JUMPDEST DUP3 MLOAD DUP7 PUSH1 0x20 DUP3 MUL DUP4 ADD GT PUSH5 0x100000000 DUP3 GT OR ISZERO PUSH3 0x2A7 JUMPI PUSH1 0x0 DUP1 REVERT JUMPDEST DUP3 MSTORE POP DUP2 MLOAD PUSH1 0x20 SWAP2 DUP3 ADD SWAP3 DUP3 ADD SWAP2 MUL DUP1 DUP4 DUP4 PUSH1 0x0 JUMPDEST DUP4 DUP2 LT ISZERO PUSH3 0x2D6 JUMPI DUP2 DUP2 ADD MLOAD DUP4 DUP3 ADD MSTORE PUSH1 0x20 ADD PUSH3 0x2BC JUMP JUMPDEST POP POP POP POP SWAP1 POP ADD PUSH1 0x40 MSTORE PUSH1 0x20 ADD DUP1 MLOAD PUSH1 0x40 MLOAD SWAP4 SWAP3 SWAP2 SWAP1 DUP5 PUSH5 0x100000000 DUP3 GT ISZERO PUSH3 0x300 JUMPI PUSH1 0x0 DUP1 REVERT JUMPDEST SWAP1 DUP4 ADD SWAP1 PUSH1 0x20 DUP3 ADD DUP6 DUP2 GT ISZERO PUSH3 0x316 JUMPI PUSH1 0x0 DUP1 REVERT JUMPDEST DUP3 MLOAD DUP7 PUSH1 0x20 DUP3 MUL DUP4 ADD GT PUSH5 0x100000000 DUP3 GT OR ISZERO PUSH3 0x334 JUMPI PUSH1 0x0 DUP1 REVERT JUMPDEST DUP3 MSTORE POP DUP2 MLOAD PUSH1 0x20 SWAP2 DUP3 ADD SWAP3 DUP3 ADD SWAP2 MUL DUP1 DUP4 DUP4 PUSH1 0x0 JUMPDEST DUP4 DUP2 LT ISZERO PUSH3 0x363 JUMPI DUP2 DUP2 ADD MLOAD DUP4 DUP3 ADD MSTORE PUSH1 0x20 ADD PUSH3 0x349 JUMP JUMPDEST POP POP POP POP SWAP1 POP ADD PUSH1 0x40 MSTORE POP POP POP PUSH1 0x0 PUSH3 0x382 PUSH3 0xDA6 PUSH1 0x20 SHL PUSH1 0x20 SHR JUMP JUMPDEST PUSH1 0x0 DUP1 SLOAD PUSH1 0x1 PUSH1 0x1 PUSH1 0xA0 SHL SUB NOT AND PUSH1 0x1 PUSH1 0x1 PUSH1 0xA0 SHL SUB DUP4 AND SWAP1 DUP2 OR DUP3 SSTORE PUSH1 0x40 MLOAD SWAP3 SWAP4 POP SWAP2 PUSH1 0x0 DUP1 MLOAD PUSH1 0x20 PUSH3 0x5C39 DUP4 CODECOPY DUP2 MLOAD SWAP2 MSTORE SWAP1 DUP3 SWAP1 LOG3 POP PUSH1 0x1 DUP1 SSTORE PUSH1 0x2 DUP1 SLOAD PUSH1 0x9 DUP1 SLOAD CALLER PUSH1 0x1 PUSH1 0x1 PUSH1 0xA0 SHL SUB NOT SWAP2 DUP3 AND DUP2 OR SWAP1 SWAP3 SSTORE PUSH1 0xA DUP1 SLOAD DUP3 AND SWAP1 SWAP3 OR SWAP1 SWAP2 SSTORE PUSH2 0xFFFF NOT SWAP1 SWAP2 AND PUSH2 0x100 DUP15 ISZERO ISZERO MUL OR PUSH3 0xFF0000 NOT AND PUSH3 0x10000 DUP14 ISZERO ISZERO MUL OR SWAP1 SWAP2 SSTORE PUSH1 0x4 DUP1 SLOAD SWAP1 SWAP2 AND PUSH1 0x1 PUSH1 0x1 PUSH1 0xA0 SHL SUB DUP10 DUP2 AND SWAP2 SWAP1 SWAP2 OR SWAP1 SWAP2 SSTORE DUP6 AND ISZERO PUSH3 0x443 JUMPI PUSH1 0x8 DUP1 SLOAD PUSH1 0x1 PUSH1 0x1 PUSH1 0xA0 SHL SUB NOT AND PUSH1 0x1 PUSH1 0x1 PUSH1 0xA0 SHL SUB DUP8 AND OR SWAP1 SSTORE JUMPDEST DUP4 PUSH1 0x0 DUP2 MLOAD DUP2 LT PUSH3 0x451 JUMPI INVALID JUMPDEST PUSH1 0x20 MUL PUSH1 0x20 ADD ADD MLOAD PUSH1 0x11 PUSH1 0x0 PUSH2 0x100 EXP DUP2 SLOAD DUP2 PUSH1 0x1 PUSH1 0x1 PUSH1 0xA0 SHL SUB MUL NOT AND SWAP1 DUP4 PUSH1 0x1 PUSH1 0x1 PUSH1 0xA0 SHL SUB AND MUL OR SWAP1 SSTORE POP DUP4 PUSH1 0x1 DUP2 MLOAD DUP2 LT PUSH3 0x48D JUMPI INVALID JUMPDEST PUSH1 0x20 MUL PUSH1 0x20 ADD ADD MLOAD PUSH1 0x12 PUSH1 0x0 PUSH2 0x100 EXP DUP2 SLOAD DUP2 PUSH1 0x1 PUSH1 0x1 PUSH1 0xA0 SHL SUB MUL NOT AND SWAP1 DUP4 PUSH1 0x1 PUSH1 0x1 PUSH1 0xA0 SHL SUB AND MUL OR SWAP1 SSTORE POP DUP3 PUSH1 0x0 DUP2 MLOAD DUP2 LT PUSH3 0x4C9 JUMPI INVALID JUMPDEST PUSH1 0x20 MUL PUSH1 0x20 ADD ADD MLOAD PUSH1 0x14 PUSH1 0x0 PUSH2 0x100 EXP DUP2 SLOAD DUP2 PUSH1 0x1 PUSH1 0x1 PUSH1 0xA0 SHL SUB MUL NOT AND SWAP1 DUP4 PUSH1 0x1 PUSH1 0x1 PUSH1 0xA0 SHL SUB AND MUL OR SWAP1 SSTORE POP DUP3 PUSH1 0x1 DUP2 MLOAD DUP2 LT PUSH3 0x505 JUMPI INVALID JUMPDEST PUSH1 0x20 SWAP1 DUP2 MUL SWAP2 SWAP1 SWAP2 ADD ADD MLOAD PUSH1 0x15 DUP1 SLOAD PUSH1 0x1 PUSH1 0x1 PUSH1 0xA0 SHL SUB NOT AND PUSH1 0x1 PUSH1 0x1 PUSH1 0xA0 SHL SUB SWAP1 SWAP3 AND SWAP2 SWAP1 SWAP2 OR SWAP1 SSTORE PUSH1 0x2 SLOAD PUSH3 0x10000 SWAP1 DIV PUSH1 0xFF AND ISZERO PUSH3 0xD89 JUMPI PUSH1 0x2 SLOAD PUSH2 0x100 SWAP1 DIV PUSH1 0xFF AND PUSH3 0x5CA JUMPI DUP2 PUSH1 0x0 DUP2 MLOAD DUP2 LT PUSH3 0x55F JUMPI INVALID JUMPDEST PUSH1 0x20 MUL PUSH1 0x20 ADD ADD MLOAD PUSH1 0x5 PUSH1 0x0 PUSH2 0x100 EXP DUP2 SLOAD DUP2 PUSH1 0x1 PUSH1 0x1 PUSH1 0xA0 SHL SUB MUL NOT AND SWAP1 DUP4 PUSH1 0x1 PUSH1 0x1 PUSH1 0xA0 SHL SUB AND MUL OR SWAP1 SSTORE POP DUP1 PUSH1 0x0 DUP2 MLOAD DUP2 LT PUSH3 0x59B JUMPI INVALID JUMPDEST PUSH1 0x20 MUL PUSH1 0x20 ADD ADD MLOAD PUSH1 0x6 PUSH1 0x0 PUSH2 0x100 EXP DUP2 SLOAD DUP2 PUSH1 0x1 PUSH1 0x1 PUSH1 0xA0 SHL SUB MUL NOT AND SWAP1 DUP4 PUSH1 0x1 PUSH1 0x1 PUSH1 0xA0 SHL SUB AND MUL OR SWAP1 SSTORE POP JUMPDEST PUSH1 0x2 DUP1 SLOAD PUSH1 0x1 PUSH1 0x1 PUSH1 0xA0 SHL SUB DUP1 DUP13 AND PUSH4 0x1000000 MUL PUSH4 0x1000000 PUSH1 0x1 PUSH1 0xB8 SHL SUB NOT SWAP1 SWAP3 AND SWAP2 SWAP1 SWAP2 OR DUP3 SSTORE PUSH1 0x3 DUP11 SWAP1 SSTORE PUSH1 0x7 DUP1 SLOAD DUP10 DUP4 AND PUSH1 0x1 PUSH1 0x1 PUSH1 0xA0 SHL SUB NOT SWAP2 DUP3 AND OR SWAP1 SWAP2 SSTORE PUSH1 0x8 DUP1 SLOAD SWAP3 DUP10 AND SWAP3 SWAP1 SWAP2 AND SWAP2 SWAP1 SWAP2 OR SWAP1 SSTORE DUP5 MLOAD PUSH1 0x0 SWAP2 DUP7 SWAP2 DUP2 LT PUSH3 0x631 JUMPI INVALID JUMPDEST PUSH1 0x20 MUL PUSH1 0x20 ADD ADD MLOAD PUSH1 0x1 PUSH1 0x1 PUSH1 0xA0 SHL SUB AND EQ ISZERO PUSH3 0x68D JUMPI PUSH20 0xBB4CDB9CBD36B01BD1CBAEBF2DE08D9173BC095C DUP5 PUSH1 0x2 DUP2 MLOAD DUP2 LT PUSH3 0x66C JUMPI INVALID JUMPDEST PUSH1 0x20 MUL PUSH1 0x20 ADD ADD SWAP1 PUSH1 0x1 PUSH1 0x1 PUSH1 0xA0 SHL SUB AND SWAP1 DUP2 PUSH1 0x1 PUSH1 0x1 PUSH1 0xA0 SHL SUB AND DUP2 MSTORE POP POP JUMPDEST PUSH1 0x40 DUP1 MLOAD PUSH1 0x60 DUP2 ADD SWAP1 SWAP2 MSTORE PUSH1 0x7 SLOAD PUSH1 0x1 PUSH1 0x1 PUSH1 0xA0 SHL SUB AND DUP2 MSTORE DUP5 MLOAD PUSH1 0x20 DUP3 ADD SWAP1 DUP7 SWAP1 PUSH1 0x2 SWAP1 DUP2 LT PUSH3 0x6BB JUMPI INVALID JUMPDEST PUSH1 0x20 SWAP1 DUP2 MUL SWAP2 SWAP1 SWAP2 ADD DUP2 ADD MLOAD PUSH1 0x1 PUSH1 0x1 PUSH1 0xA0 SHL SUB SWAP1 DUP2 AND DUP4 MSTORE PUSH1 0x11 SLOAD AND SWAP2 ADD MSTORE PUSH3 0x6EB SWAP1 PUSH1 0x17 SWAP1 PUSH1 0x3 PUSH3 0xEA8 JUMP JUMPDEST POP PUSH1 0x7 SLOAD DUP5 MLOAD PUSH1 0x1 PUSH1 0x1 PUSH1 0xA0 SHL SUB SWAP1 SWAP2 AND SWAP1 DUP6 SWAP1 PUSH1 0x2 SWAP1 DUP2 LT PUSH3 0x70B JUMPI INVALID JUMPDEST PUSH1 0x20 MUL PUSH1 0x20 ADD ADD MLOAD PUSH1 0x1 PUSH1 0x1 PUSH1 0xA0 SHL SUB AND EQ ISZERO PUSH3 0x76E JUMPI PUSH1 0x40 MLOAD DUP1 PUSH1 0x40 ADD PUSH1 0x40 MSTORE DUP1 DUP6 PUSH1 0x2 DUP2 MLOAD DUP2 LT PUSH3 0x73C JUMPI INVALID JUMPDEST PUSH1 0x20 SWAP1 DUP2 MUL SWAP2 SWAP1 SWAP2 ADD DUP2 ADD MLOAD PUSH1 0x1 PUSH1 0x1 PUSH1 0xA0 SHL SUB SWAP1 DUP2 AND DUP4 MSTORE PUSH1 0x11 SLOAD AND SWAP2 ADD MSTORE PUSH3 0x76C SWAP1 PUSH1 0x17 SWAP1 PUSH1 0x2 PUSH3 0xEA8 JUMP JUMPDEST POP JUMPDEST PUSH1 0x0 PUSH1 0x1 PUSH1 0x1 PUSH1 0xA0 SHL SUB AND DUP4 PUSH1 0x2 DUP2 MLOAD DUP2 LT PUSH3 0x787 JUMPI INVALID JUMPDEST PUSH1 0x20 MUL PUSH1 0x20 ADD ADD MLOAD PUSH1 0x1 PUSH1 0x1 PUSH1 0xA0 SHL SUB AND EQ ISZERO PUSH3 0x7E3 JUMPI PUSH20 0xBB4CDB9CBD36B01BD1CBAEBF2DE08D9173BC095C DUP4 PUSH1 0x2 DUP2 MLOAD DUP2 LT PUSH3 0x7C2 JUMPI INVALID JUMPDEST PUSH1 0x20 MUL PUSH1 0x20 ADD ADD SWAP1 PUSH1 0x1 PUSH1 0x1 PUSH1 0xA0 SHL SUB AND SWAP1 DUP2 PUSH1 0x1 PUSH1 0x1 PUSH1 0xA0 SHL SUB AND DUP2 MSTORE POP POP JUMPDEST PUSH1 0x40 DUP1 MLOAD PUSH1 0x60 DUP2 ADD SWAP1 SWAP2 MSTORE PUSH1 0x7 SLOAD PUSH1 0x1 PUSH1 0x1 PUSH1 0xA0 SHL SUB AND DUP2 MSTORE DUP4 MLOAD PUSH1 0x20 DUP3 ADD SWAP1 DUP6 SWAP1 PUSH1 0x2 SWAP1 DUP2 LT PUSH3 0x811 JUMPI INVALID JUMPDEST PUSH1 0x20 SWAP1 DUP2 MUL SWAP2 SWAP1 SWAP2 ADD DUP2 ADD MLOAD PUSH1 0x1 PUSH1 0x1 PUSH1 0xA0 SHL SUB SWAP1 DUP2 AND DUP4 MSTORE PUSH1 0x14 SLOAD AND SWAP2 ADD MSTORE PUSH3 0x841 SWAP1 PUSH1 0x18 SWAP1 PUSH1 0x3 PUSH3 0xEA8 JUMP JUMPDEST POP PUSH1 0x7 SLOAD DUP4 MLOAD PUSH1 0x1 PUSH1 0x1 PUSH1 0xA0 SHL SUB SWAP1 SWAP2 AND SWAP1 DUP5 SWAP1 PUSH1 0x2 SWAP1 DUP2 LT PUSH3 0x861 JUMPI INVALID JUMPDEST PUSH1 0x20 MUL PUSH1 0x20 ADD ADD MLOAD PUSH1 0x1 PUSH1 0x1 PUSH1 0xA0 SHL SUB AND EQ ISZERO PUSH3 0x8C4 JUMPI PUSH1 0x40 MLOAD DUP1 PUSH1 0x40 ADD PUSH1 0x40 MSTORE DUP1 DUP5 PUSH1 0x2 DUP2 MLOAD DUP2 LT PUSH3 0x892 JUMPI INVALID JUMPDEST PUSH1 0x20 SWAP1 DUP2 MUL SWAP2 SWAP1 SWAP2 ADD DUP2 ADD MLOAD PUSH1 0x1 PUSH1 0x1 PUSH1 0xA0 SHL SUB SWAP1 DUP2 AND DUP4 MSTORE PUSH1 0x14 SLOAD AND SWAP2 ADD MSTORE PUSH3 0x8C2 SWAP1 PUSH1 0x18 SWAP1 PUSH1 0x2 PUSH3 0xEA8 JUMP JUMPDEST POP JUMPDEST PUSH1 0x40 DUP1 MLOAD DUP1 DUP3 ADD SWAP1 SWAP2 MSTORE PUSH1 0x7 SLOAD PUSH1 0x1 PUSH1 0x1 PUSH1 0xA0 SHL SUB AND DUP2 MSTORE PUSH20 0xE9E7CEA3DEDCA5984780BAFC599BD69ADD087D56 PUSH1 0x20 DUP3 ADD MSTORE PUSH3 0x906 SWAP1 PUSH1 0x19 SWAP1 PUSH1 0x2 PUSH3 0xEA8 JUMP JUMPDEST POP PUSH1 0x0 PUSH1 0x1 PUSH1 0x1 PUSH1 0xA0 SHL SUB AND DUP3 PUSH1 0x1 DUP2 MLOAD DUP2 LT PUSH3 0x920 JUMPI INVALID JUMPDEST PUSH1 0x20 MUL PUSH1 0x20 ADD ADD MLOAD PUSH1 0x1 PUSH1 0x1 PUSH1 0xA0 SHL SUB AND EQ ISZERO PUSH3 0x97C JUMPI PUSH20 0xBB4CDB9CBD36B01BD1CBAEBF2DE08D9173BC095C DUP3 PUSH1 0x1 DUP2 MLOAD DUP2 LT PUSH3 0x95B JUMPI INVALID JUMPDEST PUSH1 0x20 MUL PUSH1 0x20 ADD ADD SWAP1 PUSH1 0x1 PUSH1 0x1 PUSH1 0xA0 SHL SUB AND SWAP1 DUP2 PUSH1 0x1 PUSH1 0x1 PUSH1 0xA0 SHL SUB AND DUP2 MSTORE POP POP JUMPDEST PUSH1 0x40 DUP1 MLOAD PUSH1 0x60 DUP2 ADD SWAP1 SWAP2 MSTORE PUSH1 0x7 SLOAD PUSH1 0x1 PUSH1 0x1 PUSH1 0xA0 SHL SUB AND DUP2 MSTORE DUP3 MLOAD PUSH1 0x20 DUP3 ADD SWAP1 DUP5 SWAP1 PUSH1 0x1 SWAP1 DUP2 LT PUSH3 0x9AA JUMPI INVALID JUMPDEST PUSH1 0x20 SWAP1 DUP2 MUL SWAP2 SWAP1 SWAP2 ADD DUP2 ADD MLOAD PUSH1 0x1 PUSH1 0x1 PUSH1 0xA0 SHL SUB SWAP1 DUP2 AND DUP4 MSTORE PUSH1 0x5 SLOAD AND SWAP2 ADD MSTORE PUSH3 0x9DA SWAP1 PUSH1 0x1A SWAP1 PUSH1 0x3 PUSH3 0xEA8 JUMP JUMPDEST POP PUSH1 0x5 SLOAD DUP3 MLOAD PUSH1 0x1 PUSH1 0x1 PUSH1 0xA0 SHL SUB SWAP1 SWAP2 AND SWAP1 DUP4 SWAP1 PUSH1 0x1 SWAP1 DUP2 LT PUSH3 0x9FA JUMPI INVALID JUMPDEST PUSH1 0x20 MUL PUSH1 0x20 ADD ADD MLOAD PUSH1 0x1 PUSH1 0x1 PUSH1 0xA0 SHL SUB AND EQ ISZERO PUSH3 0xA67 JUMPI PUSH1 0x40 DUP1 MLOAD DUP1 DUP3 ADD SWAP1 SWAP2 MSTORE PUSH1 0x7 SLOAD PUSH1 0x1 PUSH1 0x1 PUSH1 0xA0 SHL SUB AND DUP2 MSTORE DUP3 MLOAD PUSH1 0x20 DUP3 ADD SWAP1 DUP5 SWAP1 PUSH1 0x1 SWAP1 DUP2 LT PUSH3 0xA3F JUMPI INVALID JUMPDEST PUSH1 0x20 SWAP1 DUP2 MUL SWAP2 SWAP1 SWAP2 ADD ADD MLOAD PUSH1 0x1 PUSH1 0x1 PUSH1 0xA0 SHL SUB AND SWAP1 MSTORE PUSH3 0xA65 SWAP1 PUSH1 0x1A SWAP1 PUSH1 0x2 PUSH3 0xEA8 JUMP JUMPDEST POP JUMPDEST PUSH1 0x0 PUSH1 0x1 PUSH1 0x1 PUSH1 0xA0 SHL SUB AND DUP2 PUSH1 0x1 DUP2 MLOAD DUP2 LT PUSH3 0xA80 JUMPI INVALID JUMPDEST PUSH1 0x20 MUL PUSH1 0x20 ADD ADD MLOAD PUSH1 0x1 PUSH1 0x1 PUSH1 0xA0 SHL SUB AND EQ ISZERO PUSH3 0xADC JUMPI PUSH20 0xBB4CDB9CBD36B01BD1CBAEBF2DE08D9173BC095C DUP2 PUSH1 0x1 DUP2 MLOAD DUP2 LT PUSH3 0xABB JUMPI INVALID JUMPDEST PUSH1 0x20 MUL PUSH1 0x20 ADD ADD SWAP1 PUSH1 0x1 PUSH1 0x1 PUSH1 0xA0 SHL SUB AND SWAP1 DUP2 PUSH1 0x1 PUSH1 0x1 PUSH1 0xA0 SHL SUB AND DUP2 MSTORE POP POP JUMPDEST PUSH1 0x40 DUP1 MLOAD PUSH1 0x60 DUP2 ADD SWAP1 SWAP2 MSTORE PUSH1 0x7 SLOAD PUSH1 0x1 PUSH1 0x1 PUSH1 0xA0 SHL SUB AND DUP2 MSTORE DUP2 MLOAD PUSH1 0x20 DUP3 ADD SWAP1 DUP4 SWAP1 PUSH1 0x1 SWAP1 DUP2 LT PUSH3 0xB0A JUMPI INVALID JUMPDEST PUSH1 0x20 SWAP1 DUP2 MUL SWAP2 SWAP1 SWAP2 ADD DUP2 ADD MLOAD PUSH1 0x1 PUSH1 0x1 PUSH1 0xA0 SHL SUB SWAP1 DUP2 AND DUP4 MSTORE PUSH1 0x6 SLOAD AND SWAP2 ADD MSTORE PUSH3 0xB3A SWAP1 PUSH1 0x1B SWAP1 PUSH1 0x3 PUSH3 0xEA8 JUMP JUMPDEST POP PUSH1 0x6 SLOAD DUP2 MLOAD PUSH1 0x1 PUSH1 0x1 PUSH1 0xA0 SHL SUB SWAP1 SWAP2 AND SWAP1 DUP3 SWAP1 PUSH1 0x1 SWAP1 DUP2 LT PUSH3 0xB5A JUMPI INVALID JUMPDEST PUSH1 0x20 MUL PUSH1 0x20 ADD ADD MLOAD PUSH1 0x1 PUSH1 0x1 PUSH1 0xA0 SHL SUB AND EQ ISZERO PUSH3 0xBC7 JUMPI PUSH1 0x40 DUP1 MLOAD DUP1 DUP3 ADD SWAP1 SWAP2 MSTORE PUSH1 0x7 SLOAD PUSH1 0x1 PUSH1 0x1 PUSH1 0xA0 SHL SUB AND DUP2 MSTORE DUP2 MLOAD PUSH1 0x20 DUP3 ADD SWAP1 DUP4 SWAP1 PUSH1 0x1 SWAP1 DUP2 LT PUSH3 0xB9F JUMPI INVALID JUMPDEST PUSH1 0x20 SWAP1 DUP2 MUL SWAP2 SWAP1 SWAP2 ADD ADD MLOAD PUSH1 0x1 PUSH1 0x1 PUSH1 0xA0 SHL SUB AND SWAP1 MSTORE PUSH3 0xBC5 SWAP1 PUSH1 0x1B SWAP1 PUSH1 0x2 PUSH3 0xEA8 JUMP JUMPDEST POP JUMPDEST PUSH1 0x40 DUP1 MLOAD PUSH1 0x60 DUP2 ADD SWAP1 SWAP2 MSTORE PUSH1 0x5 SLOAD PUSH1 0x1 PUSH1 0x1 PUSH1 0xA0 SHL SUB AND DUP2 MSTORE DUP3 MLOAD PUSH1 0x20 DUP3 ADD SWAP1 DUP5 SWAP1 PUSH1 0x1 SWAP1 DUP2 LT PUSH3 0xBF5 JUMPI INVALID JUMPDEST PUSH1 0x20 SWAP1 DUP2 MUL SWAP2 SWAP1 SWAP2 ADD DUP2 ADD MLOAD PUSH1 0x1 PUSH1 0x1 PUSH1 0xA0 SHL SUB SWAP1 DUP2 AND DUP4 MSTORE PUSH1 0x7 SLOAD AND SWAP2 ADD MSTORE PUSH3 0xC25 SWAP1 PUSH1 0x1C SWAP1 PUSH1 0x3 PUSH3 0xEA8 JUMP JUMPDEST POP PUSH1 0x5 SLOAD DUP3 MLOAD PUSH1 0x1 PUSH1 0x1 PUSH1 0xA0 SHL SUB SWAP1 SWAP2 AND SWAP1 DUP4 SWAP1 PUSH1 0x1 SWAP1 DUP2 LT PUSH3 0xC45 JUMPI INVALID JUMPDEST PUSH1 0x20 MUL PUSH1 0x20 ADD ADD MLOAD PUSH1 0x1 PUSH1 0x1 PUSH1 0xA0 SHL SUB AND EQ ISZERO PUSH3 0xCA8 JUMPI PUSH1 0x40 MLOAD DUP1 PUSH1 0x40 ADD PUSH1 0x40 MSTORE DUP1 DUP4 PUSH1 0x1 DUP2 MLOAD DUP2 LT PUSH3 0xC76 JUMPI INVALID JUMPDEST PUSH1 0x20 SWAP1 DUP2 MUL SWAP2 SWAP1 SWAP2 ADD DUP2 ADD MLOAD PUSH1 0x1 PUSH1 0x1 PUSH1 0xA0 SHL SUB SWAP1 DUP2 AND DUP4 MSTORE PUSH1 0x7 SLOAD AND SWAP2 ADD MSTORE PUSH3 0xCA6 SWAP1 PUSH1 0x1C SWAP1 PUSH1 0x2 PUSH3 0xEA8 JUMP JUMPDEST POP JUMPDEST PUSH1 0x40 DUP1 MLOAD PUSH1 0x60 DUP2 ADD SWAP1 SWAP2 MSTORE PUSH1 0x6 SLOAD PUSH1 0x1 PUSH1 0x1 PUSH1 0xA0 SHL SUB AND DUP2 MSTORE DUP2 MLOAD PUSH1 0x20 DUP3 ADD SWAP1 DUP4 SWAP1 PUSH1 0x1 SWAP1 DUP2 LT PUSH3 0xCD6 JUMPI INVALID JUMPDEST PUSH1 0x20 SWAP1 DUP2 MUL SWAP2 SWAP1 SWAP2 ADD DUP2 ADD MLOAD PUSH1 0x1 PUSH1 0x1 PUSH1 0xA0 SHL SUB SWAP1 DUP2 AND DUP4 MSTORE PUSH1 0x7 SLOAD AND SWAP2 ADD MSTORE PUSH3 0xD06 SWAP1 PUSH1 0x1D SWAP1 PUSH1 0x3 PUSH3 0xEA8 JUMP JUMPDEST POP PUSH1 0x6 SLOAD DUP2 MLOAD PUSH1 0x1 PUSH1 0x1 PUSH1 0xA0 SHL SUB SWAP1 SWAP2 AND SWAP1 DUP3 SWAP1 PUSH1 0x1 SWAP1 DUP2 LT PUSH3 0xD26 JUMPI INVALID JUMPDEST PUSH1 0x20 MUL PUSH1 0x20 ADD ADD MLOAD PUSH1 0x1 PUSH1 0x1 PUSH1 0xA0 SHL SUB AND EQ ISZERO PUSH3 0xD89 JUMPI PUSH1 0x40 MLOAD DUP1 PUSH1 0x40 ADD PUSH1 0x40 MSTORE DUP1 DUP3 PUSH1 0x1 DUP2 MLOAD DUP2 LT PUSH3 0xD57 JUMPI INVALID JUMPDEST PUSH1 0x20 SWAP1 DUP2 MUL SWAP2 SWAP1 SWAP2 ADD DUP2 ADD MLOAD PUSH1 0x1 PUSH1 0x1 PUSH1 0xA0 SHL SUB SWAP1 DUP2 AND DUP4 MSTORE PUSH1 0x7 SLOAD AND SWAP2 ADD MSTORE PUSH3 0xD87 SWAP1 PUSH1 0x1D SWAP1 PUSH1 0x2 PUSH3 0xEA8 JUMP JUMPDEST POP JUMPDEST PUSH3 0xD94 DUP13 PUSH3 0xDAA JUMP JUMPDEST POP POP POP POP POP POP POP POP POP POP POP POP PUSH3 0xF33 JUMP JUMPDEST CALLER SWAP1 JUMP JUMPDEST PUSH3 0xDB4 PUSH3 0xDA6 JUMP JUMPDEST PUSH1 0x0 SLOAD PUSH1 0x1 PUSH1 0x1 PUSH1 0xA0 SHL SUB SWAP1 DUP2 AND SWAP2 AND EQ PUSH3 0xE17 JUMPI PUSH1 0x40 DUP1 MLOAD PUSH3 0x461BCD PUSH1 0xE5 SHL DUP2 MSTORE PUSH1 0x20 PUSH1 0x4 DUP3 ADD DUP2 SWAP1 MSTORE PUSH1 0x24 DUP3 ADD MSTORE PUSH32 0x4F776E61626C653A2063616C6C6572206973206E6F7420746865206F776E6572 PUSH1 0x44 DUP3 ADD MSTORE SWAP1 MLOAD SWAP1 DUP2 SWAP1 SUB PUSH1 0x64 ADD SWAP1 REVERT JUMPDEST PUSH1 0x1 PUSH1 0x1 PUSH1 0xA0 SHL SUB DUP2 AND PUSH3 0xE5E JUMPI PUSH1 0x40 MLOAD PUSH3 0x461BCD PUSH1 0xE5 SHL DUP2 MSTORE PUSH1 0x4 ADD DUP1 DUP1 PUSH1 0x20 ADD DUP3 DUP2 SUB DUP3 MSTORE PUSH1 0x26 DUP2 MSTORE PUSH1 0x20 ADD DUP1 PUSH3 0x5C13 PUSH1 0x26 SWAP2 CODECOPY PUSH1 0x40 ADD SWAP2 POP POP PUSH1 0x40 MLOAD DUP1 SWAP2 SUB SWAP1 REVERT JUMPDEST PUSH1 0x0 DUP1 SLOAD PUSH1 0x40 MLOAD PUSH1 0x1 PUSH1 0x1 PUSH1 0xA0 SHL SUB DUP1 DUP6 AND SWAP4 SWAP3 AND SWAP2 PUSH1 0x0 DUP1 MLOAD PUSH1 0x20 PUSH3 0x5C39 DUP4 CODECOPY DUP2 MLOAD SWAP2 MSTORE SWAP2 LOG3 PUSH1 0x0 DUP1 SLOAD PUSH1 0x1 PUSH1 0x1 PUSH1 0xA0 SHL SUB NOT AND PUSH1 0x1 PUSH1 0x1 PUSH1 0xA0 SHL SUB SWAP3 SWAP1 SWAP3 AND SWAP2 SWAP1 SWAP2 OR SWAP1 SSTORE JUMP JUMPDEST DUP3 DUP1 SLOAD DUP3 DUP3 SSTORE SWAP1 PUSH1 0x0 MSTORE PUSH1 0x20 PUSH1 0x0 KECCAK256 SWAP1 DUP2 ADD SWAP3 DUP3 ISZERO PUSH3 0xF00 JUMPI SWAP2 PUSH1 0x20 MUL DUP3 ADD JUMPDEST DUP3 DUP2 GT ISZERO PUSH3 0xF00 JUMPI DUP3 MLOAD DUP3 SLOAD PUSH1 0x1 PUSH1 0x1 PUSH1 0xA0 SHL SUB NOT AND PUSH1 0x1 PUSH1 0x1 PUSH1 0xA0 SHL SUB SWAP1 SWAP2 AND OR DUP3 SSTORE PUSH1 0x20 SWAP1 SWAP3 ADD SWAP2 PUSH1 0x1 SWAP1 SWAP2 ADD SWAP1 PUSH3 0xEC9 JUMP JUMPDEST POP PUSH3 0xF0E SWAP3 SWAP2 POP PUSH3 0xF12 JUMP JUMPDEST POP SWAP1 JUMP JUMPDEST JUMPDEST DUP1 DUP3 GT ISZERO PUSH3 0xF0E JUMPI DUP1 SLOAD PUSH1 0x1 PUSH1 0x1 PUSH1 0xA0 SHL SUB NOT AND DUP2 SSTORE PUSH1 0x1 ADD PUSH3 0xF13 JUMP JUMPDEST PUSH2 0x4CD0 DUP1 PUSH3 0xF43 PUSH1 0x0 CODECOPY PUSH1 0x0 RETURN INVALID PUSH1 0x80 PUSH1 0x40 MSTORE CALLVALUE DUP1 ISZERO PUSH2 0x10 JUMPI PUSH1 0x0 DUP1 REVERT JUMPDEST POP PUSH1 0x4 CALLDATASIZE LT PUSH2 0x4C2 JUMPI PUSH1 0x0 CALLDATALOAD PUSH1 0xE0 SHR DUP1 PUSH4 0x889ADFA8 GT PUSH2 0x286 JUMPI DUP1 PUSH4 0xCE5328E4 GT PUSH2 0x16B JUMPI DUP1 PUSH4 0xE5DD455A GT PUSH2 0xE3 JUMPI DUP1 PUSH4 0xF1068454 GT PUSH2 0x97 JUMPI DUP1 PUSH4 0xF3FEF3A3 GT PUSH2 0x7C JUMPI DUP1 PUSH4 0xF3FEF3A3 EQ PUSH2 0xF2B JUMPI DUP1 PUSH4 0xF400D311 EQ PUSH2 0xF57 JUMPI DUP1 PUSH4 0xFD3440C1 EQ PUSH2 0xF74 JUMPI PUSH2 0x4C2 JUMP JUMPDEST DUP1 PUSH4 0xF1068454 EQ PUSH2 0xEFD JUMPI DUP1 PUSH4 0xF2FDE38B EQ PUSH2 0xF05 JUMPI PUSH2 0x4C2 JUMP JUMPDEST DUP1 PUSH4 0xE7A03679 GT PUSH2 0xC8 JUMPI DUP1 PUSH4 0xE7A03679 EQ PUSH2 0xE52 JUMPI DUP1 PUSH4 0xEE50DC34 EQ PUSH2 0x7B3 JUMPI DUP1 PUSH4 0xEFD9A479 EQ PUSH2 0xE5A JUMPI PUSH2 0x4C2 JUMP JUMPDEST DUP1 PUSH4 0xE5DD455A EQ PUSH2 0xE42 JUMPI DUP1 PUSH4 0xE7198474 EQ PUSH2 0xE4A JUMPI PUSH2 0x4C2 JUMP JUMPDEST DUP1 PUSH4 0xD7CB416F GT PUSH2 0x13A JUMPI DUP1 PUSH4 0xDB7A3C0F GT PUSH2 0x11F JUMPI DUP1 PUSH4 0xDB7A3C0F EQ PUSH2 0xE2A JUMPI DUP1 PUSH4 0xDF5C8A9E EQ PUSH2 0xE32 JUMPI DUP1 PUSH4 0xDFEE1DD9 EQ PUSH2 0xE3A JUMPI PUSH2 0x4C2 JUMP JUMPDEST DUP1 PUSH4 0xD7CB416F EQ PUSH2 0xE1A JUMPI DUP1 PUSH4 0xD8BE16DA EQ PUSH2 0xE22 JUMPI PUSH2 0x4C2 JUMP JUMPDEST DUP1 PUSH4 0xCE5328E4 EQ PUSH2 0xD5F JUMPI DUP1 PUSH4 0xCF268434 EQ PUSH2 0xD67 JUMPI DUP1 PUSH4 0xD33219B4 EQ PUSH2 0xE0A JUMPI DUP1 PUSH4 0xD389800F EQ PUSH2 0xE12 JUMPI PUSH2 0x4C2 JUMP JUMPDEST DUP1 PUSH4 0xBB9928C6 GT PUSH2 0x1FE JUMPI DUP1 PUSH4 0xC11C2E92 GT PUSH2 0x1CD JUMPI DUP1 PUSH4 0xC3EC8DDA GT PUSH2 0x1B2 JUMPI DUP1 PUSH4 0xC3EC8DDA EQ PUSH2 0xCF6 JUMPI DUP1 PUSH4 0xC7B9D530 EQ PUSH2 0xD1C JUMPI DUP1 PUSH4 0xC8E3D18B EQ PUSH2 0xD42 JUMPI PUSH2 0x4C2 JUMP JUMPDEST DUP1 PUSH4 0xC11C2E92 EQ PUSH2 0xCE6 JUMPI DUP1 PUSH4 0xC302A4D0 EQ PUSH2 0xCEE JUMPI PUSH2 0x4C2 JUMP JUMPDEST DUP1 PUSH4 0xBB9928C6 EQ PUSH2 0xBE3 JUMPI DUP1 PUSH4 0xBD1E7C2C EQ PUSH2 0xC00 JUMPI DUP1 PUSH4 0xBDACB303 EQ PUSH2 0xCA3 JUMPI DUP1 PUSH4 0xBF94C0BA EQ PUSH2 0xCC9 JUMPI PUSH2 0x4C2 JUMP JUMPDEST DUP1 PUSH4 0xA05968CD GT PUSH2 0x255 JUMPI DUP1 PUSH4 0xB3545C01 GT PUSH2 0x23A JUMPI DUP1 PUSH4 0xB3545C01 EQ PUSH2 0xB98 JUMPI DUP1 PUSH4 0xB3AB15FB EQ PUSH2 0xBA0 JUMPI DUP1 PUSH4 0xB77050E7 EQ PUSH2 0xBC6 JUMPI PUSH2 0x4C2 JUMP JUMPDEST DUP1 PUSH4 0xA05968CD EQ PUSH2 0xB55 JUMPI DUP1 PUSH4 0xA5528632 EQ PUSH2 0xB72 JUMPI PUSH2 0x4C2 JUMP JUMPDEST DUP1 PUSH4 0x889ADFA8 EQ PUSH2 0xB20 JUMPI DUP1 PUSH4 0x8DA5CB5B EQ PUSH2 0xB28 JUMPI DUP1 PUSH4 0x96E9AFF8 EQ PUSH2 0xB30 JUMPI DUP1 PUSH4 0x9FC33A9F EQ PUSH2 0xB4D JUMPI PUSH2 0x4C2 JUMP JUMPDEST DUP1 PUSH4 0x4D9F7BB2 GT PUSH2 0x3AC JUMPI DUP1 PUSH4 0x693A090B GT PUSH2 0x324 JUMPI DUP1 PUSH4 0x7FF36FBE GT PUSH2 0x2F3 JUMPI DUP1 PUSH4 0x846D9E17 GT PUSH2 0x2D8 JUMPI DUP1 PUSH4 0x846D9E17 EQ PUSH2 0xA6D JUMPI DUP1 PUSH4 0x858F2384 EQ PUSH2 0xA75 JUMPI DUP1 PUSH4 0x85F02DD6 EQ PUSH2 0xB18 JUMPI PUSH2 0x4C2 JUMP JUMPDEST DUP1 PUSH4 0x7FF36FBE EQ PUSH2 0xA5D JUMPI DUP1 PUSH4 0x8456CB59 EQ PUSH2 0xA65 JUMPI PUSH2 0x4C2 JUMP JUMPDEST DUP1 PUSH4 0x693A090B EQ PUSH2 0x9A2 JUMPI DUP1 PUSH4 0x715018A6 EQ PUSH2 0x9AA JUMPI DUP1 PUSH4 0x76A90231 EQ PUSH2 0x9B2 JUMPI DUP1 PUSH4 0x7A20281E EQ PUSH2 0x9BA JUMPI PUSH2 0x4C2 JUMP JUMPDEST DUP1 PUSH4 0x607F35A0 GT PUSH2 0x37B JUMPI DUP1 PUSH4 0x67206D40 GT PUSH2 0x360 JUMPI DUP1 PUSH4 0x67206D40 EQ PUSH2 0x8A5 JUMPI DUP1 PUSH4 0x6804D54A EQ PUSH2 0x8DB JUMPI DUP1 PUSH4 0x6855B2E7 EQ PUSH2 0x985 JUMPI PUSH2 0x4C2 JUMP JUMPDEST DUP1 PUSH4 0x607F35A0 EQ PUSH2 0x895 JUMPI DUP1 PUSH4 0x63FE3E3A EQ PUSH2 0x89D JUMPI PUSH2 0x4C2 JUMP JUMPDEST DUP1 PUSH4 0x4D9F7BB2 EQ PUSH2 0x7B3 JUMPI DUP1 PUSH4 0x51B699CD EQ PUSH2 0x84B JUMPI DUP1 PUSH4 0x570CA735 EQ PUSH2 0x885 JUMPI DUP1 PUSH4 0x5C975ABB EQ PUSH2 0x88D JUMPI PUSH2 0x4C2 JUMP JUMPDEST DUP1 PUSH4 0x2717EFF3 GT PUSH2 0x43F JUMPI DUP1 PUSH4 0x42DA4EB3 GT PUSH2 0x40E JUMPI DUP1 PUSH4 0x45D6B667 GT PUSH2 0x3F3 JUMPI DUP1 PUSH4 0x45D6B667 EQ PUSH2 0x7F8 JUMPI DUP1 PUSH4 0x47E7EF24 EQ PUSH2 0x817 JUMPI DUP1 PUSH4 0x4A56FCD4 EQ PUSH2 0x843 JUMPI PUSH2 0x4C2 JUMP JUMPDEST DUP1 PUSH4 0x42DA4EB3 EQ PUSH2 0x7E8 JUMPI DUP1 PUSH4 0x44A3955E EQ PUSH2 0x7F0 JUMPI PUSH2 0x4C2 JUMP JUMPDEST DUP1 PUSH4 0x2717EFF3 EQ PUSH2 0x7B3 JUMPI DUP1 PUSH4 0x36E9332D EQ PUSH2 0x7BB JUMPI DUP1 PUSH4 0x3E1A8912 EQ PUSH2 0x7C3 JUMPI DUP1 PUSH4 0x3F4BA83A EQ PUSH2 0x7E0 JUMPI PUSH2 0x4C2 JUMP JUMPDEST DUP1 PUSH4 0xFA4E01E GT PUSH2 0x496 JUMPI DUP1 PUSH4 0x1A43DA93 GT PUSH2 0x47B JUMPI DUP1 PUSH4 0x1A43DA93 EQ PUSH2 0x5EC JUMPI DUP1 PUSH4 0x1FE4A686 EQ PUSH2 0x5F4 JUMPI DUP1 PUSH4 0x2224FA25 EQ PUSH2 0x5FC JUMPI PUSH2 0x4C2 JUMP JUMPDEST DUP1 PUSH4 0xFA4E01E EQ PUSH2 0x5DC JUMPI DUP1 PUSH4 0x1334903F EQ PUSH2 0x5E4 JUMPI PUSH2 0x4C2 JUMP JUMPDEST DUP1 PUSH3 0x7A2AE3 EQ PUSH2 0x4C7 JUMPI DUP1 PUSH4 0x5B7BFF2 EQ PUSH2 0x500 JUMPI DUP1 PUSH4 0x61C7D48 EQ PUSH2 0x5A5 JUMPI DUP1 PUSH4 0x754A71C EQ PUSH2 0x5BF JUMPI JUMPDEST PUSH1 0x0 DUP1 REVERT JUMPDEST PUSH2 0x4E4 PUSH1 0x4 DUP1 CALLDATASIZE SUB PUSH1 0x20 DUP2 LT ISZERO PUSH2 0x4DD JUMPI PUSH1 0x0 DUP1 REVERT JUMPDEST POP CALLDATALOAD PUSH2 0x1017 JUMP JUMPDEST PUSH1 0x40 DUP1 MLOAD PUSH1 0x1 PUSH1 0x1 PUSH1 0xA0 SHL SUB SWAP1 SWAP3 AND DUP3 MSTORE MLOAD SWAP1 DUP2 SWAP1 SUB PUSH1 0x20 ADD SWAP1 RETURN JUMPDEST PUSH2 0x5A3 PUSH1 0x4 DUP1 CALLDATASIZE SUB PUSH1 0x20 DUP2 LT ISZERO PUSH2 0x516 JUMPI PUSH1 0x0 DUP1 REVERT JUMPDEST DUP2 ADD SWAP1 PUSH1 0x20 DUP2 ADD DUP2 CALLDATALOAD PUSH5 0x100000000 DUP2 GT ISZERO PUSH2 0x531 JUMPI PUSH1 0x0 DUP1 REVERT JUMPDEST DUP3 ADD DUP4 PUSH1 0x20 DUP3 ADD GT ISZERO PUSH2 0x543 JUMPI PUSH1 0x0 DUP1 REVERT JUMPDEST DUP1 CALLDATALOAD SWAP1 PUSH1 0x20 ADD SWAP2 DUP5 PUSH1 0x20 DUP4 MUL DUP5 ADD GT PUSH5 0x100000000 DUP4 GT OR ISZERO PUSH2 0x565 JUMPI PUSH1 0x0 DUP1 REVERT JUMPDEST SWAP2 SWAP1 DUP1 DUP1 PUSH1 0x20 MUL PUSH1 0x20 ADD PUSH1 0x40 MLOAD SWAP1 DUP2 ADD PUSH1 0x40 MSTORE DUP1 SWAP4 SWAP3 SWAP2 SWAP1 DUP2 DUP2 MSTORE PUSH1 0x20 ADD DUP4 DUP4 PUSH1 0x20 MUL DUP1 DUP3 DUP5 CALLDATACOPY PUSH1 0x0 SWAP3 ADD SWAP2 SWAP1 SWAP2 MSTORE POP SWAP3 SWAP6 POP PUSH2 0x103E SWAP5 POP POP POP POP POP JUMP JUMPDEST STOP JUMPDEST PUSH2 0x5AD PUSH2 0x109E JUMP JUMPDEST PUSH1 0x40 DUP1 MLOAD SWAP2 DUP3 MSTORE MLOAD SWAP1 DUP2 SWAP1 SUB PUSH1 0x20 ADD SWAP1 RETURN JUMPDEST PUSH2 0x4E4 PUSH1 0x4 DUP1 CALLDATASIZE SUB PUSH1 0x20 DUP2 LT ISZERO PUSH2 0x5D5 JUMPI PUSH1 0x0 DUP1 REVERT JUMPDEST POP CALLDATALOAD PUSH2 0x10A4 JUMP JUMPDEST PUSH2 0x5AD PUSH2 0x10B1 JUMP JUMPDEST PUSH2 0x5AD PUSH2 0x10B7 JUMP JUMPDEST PUSH2 0x4E4 PUSH2 0x10BD JUMP JUMPDEST PUSH2 0x4E4 PUSH2 0x10CC JUMP JUMPDEST PUSH2 0x73E PUSH1 0x4 DUP1 CALLDATASIZE SUB PUSH1 0x80 DUP2 LT ISZERO PUSH2 0x612 JUMPI PUSH1 0x0 DUP1 REVERT JUMPDEST PUSH1 0x1 PUSH1 0x1 PUSH1 0xA0 SHL SUB DUP3 CALLDATALOAD AND SWAP2 PUSH1 0x20 DUP2 ADD CALLDATALOAD SWAP2 DUP2 ADD SWAP1 PUSH1 0x60 DUP2 ADD PUSH1 0x40 DUP3 ADD CALLDATALOAD PUSH5 0x100000000 DUP2 GT ISZERO PUSH2 0x642 JUMPI PUSH1 0x0 DUP1 REVERT JUMPDEST DUP3 ADD DUP4 PUSH1 0x20 DUP3 ADD GT ISZERO PUSH2 0x654 JUMPI PUSH1 0x0 DUP1 REVERT JUMPDEST DUP1 CALLDATALOAD SWAP1 PUSH1 0x20 ADD SWAP2 DUP5 PUSH1 0x1 DUP4 MUL DUP5 ADD GT PUSH5 0x100000000 DUP4 GT OR ISZERO PUSH2 0x676 JUMPI PUSH1 0x0 DUP1 REVERT JUMPDEST SWAP2 SWAP1 DUP1 DUP1 PUSH1 0x1F ADD PUSH1 0x20 DUP1 SWAP2 DIV MUL PUSH1 0x20 ADD PUSH1 0x40 MLOAD SWAP1 DUP2 ADD PUSH1 0x40 MSTORE DUP1 SWAP4 SWAP3 SWAP2 SWAP1 DUP2 DUP2 MSTORE PUSH1 0x20 ADD DUP4 DUP4 DUP1 DUP3 DUP5 CALLDATACOPY PUSH1 0x0 SWAP3 ADD SWAP2 SWAP1 SWAP2 MSTORE POP SWAP3 SWAP6 SWAP5 SWAP4 PUSH1 0x20 DUP2 ADD SWAP4 POP CALLDATALOAD SWAP2 POP POP PUSH5 0x100000000 DUP2 GT ISZERO PUSH2 0x6C9 JUMPI PUSH1 0x0 DUP1 REVERT JUMPDEST DUP3 ADD DUP4 PUSH1 0x20 DUP3 ADD GT ISZERO PUSH2 0x6DB JUMPI PUSH1 0x0 DUP1 REVERT JUMPDEST DUP1 CALLDATALOAD SWAP1 PUSH1 0x20 ADD SWAP2 DUP5 PUSH1 0x1 DUP4 MUL DUP5 ADD GT PUSH5 0x100000000 DUP4 GT OR ISZERO PUSH2 0x6FD JUMPI PUSH1 0x0 DUP1 REVERT JUMPDEST SWAP2 SWAP1 DUP1 DUP1 PUSH1 0x1F ADD PUSH1 0x20 DUP1 SWAP2 DIV MUL PUSH1 0x20 ADD PUSH1 0x40 MLOAD SWAP1 DUP2 ADD PUSH1 0x40 MSTORE DUP1 SWAP4 SWAP3 SWAP2 SWAP1 DUP2 DUP2 MSTORE PUSH1 0x20 ADD DUP4 DUP4 DUP1 DUP3 DUP5 CALLDATACOPY PUSH1 0x0 SWAP3 ADD SWAP2 SWAP1 SWAP2 MSTORE POP SWAP3 SWAP6 POP PUSH2 0x10DB SWAP5 POP POP POP POP POP JUMP JUMPDEST PUSH1 0x40 DUP1 MLOAD PUSH1 0x20 DUP1 DUP3 MSTORE DUP4 MLOAD DUP2 DUP4 ADD MSTORE DUP4 MLOAD SWAP2 SWAP3 DUP4 SWAP3 SWAP1 DUP4 ADD SWAP2 DUP6 ADD SWAP1 DUP1 DUP4 DUP4 PUSH1 0x0 JUMPDEST DUP4 DUP2 LT ISZERO PUSH2 0x778 JUMPI DUP2 DUP2 ADD MLOAD DUP4 DUP3 ADD MSTORE PUSH1 0x20 ADD PUSH2 0x760 JUMP JUMPDEST POP POP POP POP SWAP1 POP SWAP1 DUP2 ADD SWAP1 PUSH1 0x1F AND DUP1 ISZERO PUSH2 0x7A5 JUMPI DUP1 DUP3 SUB DUP1 MLOAD PUSH1 0x1 DUP4 PUSH1 0x20 SUB PUSH2 0x100 EXP SUB NOT AND DUP2 MSTORE PUSH1 0x20 ADD SWAP2 POP JUMPDEST POP SWAP3 POP POP POP PUSH1 0x40 MLOAD DUP1 SWAP2 SUB SWAP1 RETURN JUMPDEST PUSH2 0x5AD PUSH2 0x1414 JUMP JUMPDEST PUSH2 0x5A3 PUSH2 0x141A JUMP JUMPDEST PUSH2 0x5A3 PUSH1 0x4 DUP1 CALLDATASIZE SUB PUSH1 0x20 DUP2 LT ISZERO PUSH2 0x7D9 JUMPI PUSH1 0x0 DUP1 REVERT JUMPDEST POP CALLDATALOAD PUSH2 0x1485 JUMP JUMPDEST PUSH2 0x5A3 PUSH2 0x156A JUMP JUMPDEST PUSH2 0x5AD PUSH2 0x15BD JUMP JUMPDEST PUSH2 0x5AD PUSH2 0x15C3 JUMP JUMPDEST PUSH2 0x5A3 PUSH1 0x4 DUP1 CALLDATASIZE SUB PUSH1 0x20 DUP2 LT ISZERO PUSH2 0x80E JUMPI PUSH1 0x0 DUP1 REVERT JUMPDEST POP CALLDATALOAD ISZERO ISZERO PUSH2 0x15C9 JUMP JUMPDEST PUSH2 0x5AD PUSH1 0x4 DUP1 CALLDATASIZE SUB PUSH1 0x40 DUP2 LT ISZERO PUSH2 0x82D JUMPI PUSH1 0x0 DUP1 REVERT JUMPDEST POP PUSH1 0x1 PUSH1 0x1 PUSH1 0xA0 SHL SUB DUP2 CALLDATALOAD AND SWAP1 PUSH1 0x20 ADD CALLDATALOAD PUSH2 0x165C JUMP JUMPDEST PUSH2 0x4E4 PUSH2 0x17F3 JUMP JUMPDEST PUSH2 0x871 PUSH1 0x4 DUP1 CALLDATASIZE SUB PUSH1 0x20 DUP2 LT ISZERO PUSH2 0x861 JUMPI PUSH1 0x0 DUP1 REVERT JUMPDEST POP CALLDATALOAD PUSH1 0x1 PUSH1 0x1 PUSH1 0xA0 SHL SUB AND PUSH2 0x1802 JUMP JUMPDEST PUSH1 0x40 DUP1 MLOAD SWAP2 ISZERO ISZERO DUP3 MSTORE MLOAD SWAP1 DUP2 SWAP1 SUB PUSH1 0x20 ADD SWAP1 RETURN JUMPDEST PUSH2 0x4E4 PUSH2 0x1848 JUMP JUMPDEST PUSH2 0x871 PUSH2 0x1857 JUMP JUMPDEST PUSH2 0x4E4 PUSH2 0x1860 JUMP JUMPDEST PUSH2 0x4E4 PUSH2 0x186F JUMP JUMPDEST PUSH2 0x5A3 PUSH1 0x4 DUP1 CALLDATASIZE SUB PUSH1 0x60 DUP2 LT ISZERO PUSH2 0x8BB JUMPI PUSH1 0x0 DUP1 REVERT JUMPDEST POP PUSH1 0x1 PUSH1 0x1 PUSH1 0xA0 SHL SUB DUP2 CALLDATALOAD DUP2 AND SWAP2 PUSH1 0x20 DUP2 ADD CALLDATALOAD SWAP2 PUSH1 0x40 SWAP1 SWAP2 ADD CALLDATALOAD AND PUSH2 0x1887 JUMP JUMPDEST PUSH2 0x5AD PUSH1 0x4 DUP1 CALLDATASIZE SUB PUSH1 0x40 DUP2 LT ISZERO PUSH2 0x8F1 JUMPI PUSH1 0x0 DUP1 REVERT JUMPDEST DUP2 CALLDATALOAD SWAP2 SWAP1 DUP2 ADD SWAP1 PUSH1 0x40 DUP2 ADD PUSH1 0x20 DUP3 ADD CALLDATALOAD PUSH5 0x100000000 DUP2 GT ISZERO PUSH2 0x913 JUMPI PUSH1 0x0 DUP1 REVERT JUMPDEST DUP3 ADD DUP4 PUSH1 0x20 DUP3 ADD GT ISZERO PUSH2 0x925 JUMPI PUSH1 0x0 DUP1 REVERT JUMPDEST DUP1 CALLDATALOAD SWAP1 PUSH1 0x20 ADD SWAP2 DUP5 PUSH1 0x20 DUP4 MUL DUP5 ADD GT PUSH5 0x100000000 DUP4 GT OR ISZERO PUSH2 0x947 JUMPI PUSH1 0x0 DUP1 REVERT JUMPDEST SWAP2 SWAP1 DUP1 DUP1 PUSH1 0x20 MUL PUSH1 0x20 ADD PUSH1 0x40 MLOAD SWAP1 DUP2 ADD PUSH1 0x40 MSTORE DUP1 SWAP4 SWAP3 SWAP2 SWAP1 DUP2 DUP2 MSTORE PUSH1 0x20 ADD DUP4 DUP4 PUSH1 0x20 MUL DUP1 DUP3 DUP5 CALLDATACOPY PUSH1 0x0 SWAP3 ADD SWAP2 SWAP1 SWAP2 MSTORE POP SWAP3 SWAP6 POP PUSH2 0x19F9 SWAP5 POP POP POP POP POP JUMP JUMPDEST PUSH2 0x4E4 PUSH1 0x4 DUP1 CALLDATASIZE SUB PUSH1 0x20 DUP2 LT ISZERO PUSH2 0x99B JUMPI PUSH1 0x0 DUP1 REVERT JUMPDEST POP CALLDATALOAD PUSH2 0x1BAE JUMP JUMPDEST PUSH2 0x4E4 PUSH2 0x1BBB JUMP JUMPDEST PUSH2 0x5A3 PUSH2 0x1BCA JUMP JUMPDEST PUSH2 0x4E4 PUSH2 0x1C96 JUMP JUMPDEST PUSH2 0x5A3 PUSH1 0x4 DUP1 CALLDATASIZE SUB PUSH1 0x20 DUP2 LT ISZERO PUSH2 0x9D0 JUMPI PUSH1 0x0 DUP1 REVERT JUMPDEST DUP2 ADD SWAP1 PUSH1 0x20 DUP2 ADD DUP2 CALLDATALOAD PUSH5 0x100000000 DUP2 GT ISZERO PUSH2 0x9EB JUMPI PUSH1 0x0 DUP1 REVERT JUMPDEST DUP3 ADD DUP4 PUSH1 0x20 DUP3 ADD GT ISZERO PUSH2 0x9FD JUMPI PUSH1 0x0 DUP1 REVERT JUMPDEST DUP1 CALLDATALOAD SWAP1 PUSH1 0x20 ADD SWAP2 DUP5 PUSH1 0x20 DUP4 MUL DUP5 ADD GT PUSH5 0x100000000 DUP4 GT OR ISZERO PUSH2 0xA1F JUMPI PUSH1 0x0 DUP1 REVERT JUMPDEST SWAP2 SWAP1 DUP1 DUP1 PUSH1 0x20 MUL PUSH1 0x20 ADD PUSH1 0x40 MLOAD SWAP1 DUP2 ADD PUSH1 0x40 MSTORE DUP1 SWAP4 SWAP3 SWAP2 SWAP1 DUP2 DUP2 MSTORE PUSH1 0x20 ADD DUP4 DUP4 PUSH1 0x20 MUL DUP1 DUP3 DUP5 CALLDATACOPY PUSH1 0x0 SWAP3 ADD SWAP2 SWAP1 SWAP2 MSTORE POP SWAP3 SWAP6 POP PUSH2 0x1CAE SWAP5 POP POP POP POP POP JUMP JUMPDEST PUSH2 0x4E4 PUSH2 0x1D0A JUMP JUMPDEST PUSH2 0x5A3 PUSH2 0x1D19 JUMP JUMPDEST PUSH2 0x871 PUSH2 0x1D6A JUMP JUMPDEST PUSH2 0x5A3 PUSH1 0x4 DUP1 CALLDATASIZE SUB PUSH1 0x20 DUP2 LT ISZERO PUSH2 0xA8B JUMPI PUSH1 0x0 DUP1 REVERT JUMPDEST DUP2 ADD SWAP1 PUSH1 0x20 DUP2 ADD DUP2 CALLDATALOAD PUSH5 0x100000000 DUP2 GT ISZERO PUSH2 0xAA6 JUMPI PUSH1 0x0 DUP1 REVERT JUMPDEST DUP3 ADD DUP4 PUSH1 0x20 DUP3 ADD GT ISZERO PUSH2 0xAB8 JUMPI PUSH1 0x0 DUP1 REVERT JUMPDEST DUP1 CALLDATALOAD SWAP1 PUSH1 0x20 ADD SWAP2 DUP5 PUSH1 0x20 DUP4 MUL DUP5 ADD GT PUSH5 0x100000000 DUP4 GT OR ISZERO PUSH2 0xADA JUMPI PUSH1 0x0 DUP1 REVERT JUMPDEST SWAP2 SWAP1 DUP1 DUP1 PUSH1 0x20 MUL PUSH1 0x20 ADD PUSH1 0x40 MLOAD SWAP1 DUP2 ADD PUSH1 0x40 MSTORE DUP1 SWAP4 SWAP3 SWAP2 SWAP1 DUP2 DUP2 MSTORE PUSH1 0x20 ADD DUP4 DUP4 PUSH1 0x20 MUL DUP1 DUP3 DUP5 CALLDATACOPY PUSH1 0x0 SWAP3 ADD SWAP2 SWAP1 SWAP2 MSTORE POP SWAP3 SWAP6 POP PUSH2 0x1D78 SWAP5 POP POP POP POP POP JUMP JUMPDEST PUSH2 0x5AD PUSH2 0x1DD4 JUMP JUMPDEST PUSH2 0x5AD PUSH2 0x1DDA JUMP JUMPDEST PUSH2 0x4E4 PUSH2 0x1E5F JUMP JUMPDEST PUSH2 0x4E4 PUSH1 0x4 DUP1 CALLDATASIZE SUB PUSH1 0x20 DUP2 LT ISZERO PUSH2 0xB46 JUMPI PUSH1 0x0 DUP1 REVERT JUMPDEST POP CALLDATALOAD PUSH2 0x1E6E JUMP JUMPDEST PUSH2 0x4E4 PUSH2 0x1E7B JUMP JUMPDEST PUSH2 0x4E4 PUSH1 0x4 DUP1 CALLDATASIZE SUB PUSH1 0x20 DUP2 LT ISZERO PUSH2 0xB6B JUMPI PUSH1 0x0 DUP1 REVERT JUMPDEST POP CALLDATALOAD PUSH2 0x1E91 JUMP JUMPDEST PUSH2 0x5A3 PUSH1 0x4 DUP1 CALLDATASIZE SUB PUSH1 0x20 DUP2 LT ISZERO PUSH2 0xB88 JUMPI PUSH1 0x0 DUP1 REVERT JUMPDEST POP CALLDATALOAD PUSH1 0x1 PUSH1 0x1 PUSH1 0xA0 SHL SUB AND PUSH2 0x1E9E JUMP JUMPDEST PUSH2 0x5AD PUSH2 0x1F7E JUMP JUMPDEST PUSH2 0x5A3 PUSH1 0x4 DUP1 CALLDATASIZE SUB PUSH1 0x20 DUP2 LT ISZERO PUSH2 0xBB6 JUMPI PUSH1 0x0 DUP1 REVERT JUMPDEST POP CALLDATALOAD PUSH1 0x1 PUSH1 0x1 PUSH1 0xA0 SHL SUB AND PUSH2 0x1F84 JUMP JUMPDEST PUSH2 0x4E4 PUSH1 0x4 DUP1 CALLDATASIZE SUB PUSH1 0x20 DUP2 LT ISZERO PUSH2 0xBDC JUMPI PUSH1 0x0 DUP1 REVERT JUMPDEST POP CALLDATALOAD PUSH2 0x2007 JUMP JUMPDEST PUSH2 0x5A3 PUSH1 0x4 DUP1 CALLDATASIZE SUB PUSH1 0x20 DUP2 LT ISZERO PUSH2 0xBF9 JUMPI PUSH1 0x0 DUP1 REVERT JUMPDEST POP CALLDATALOAD PUSH2 0x2014 JUMP JUMPDEST PUSH2 0x5A3 PUSH1 0x4 DUP1 CALLDATASIZE SUB PUSH1 0x20 DUP2 LT ISZERO PUSH2 0xC16 JUMPI PUSH1 0x0 DUP1 REVERT JUMPDEST DUP2 ADD SWAP1 PUSH1 0x20 DUP2 ADD DUP2 CALLDATALOAD PUSH5 0x100000000 DUP2 GT ISZERO PUSH2 0xC31 JUMPI PUSH1 0x0 DUP1 REVERT JUMPDEST DUP3 ADD DUP4 PUSH1 0x20 DUP3 ADD GT ISZERO PUSH2 0xC43 JUMPI PUSH1 0x0 DUP1 REVERT JUMPDEST DUP1 CALLDATALOAD SWAP1 PUSH1 0x20 ADD SWAP2 DUP5 PUSH1 0x20 DUP4 MUL DUP5 ADD GT PUSH5 0x100000000 DUP4 GT OR ISZERO PUSH2 0xC65 JUMPI PUSH1 0x0 DUP1 REVERT JUMPDEST SWAP2 SWAP1 DUP1 DUP1 PUSH1 0x20 MUL PUSH1 0x20 ADD PUSH1 0x40 MLOAD SWAP1 DUP2 ADD PUSH1 0x40 MSTORE DUP1 SWAP4 SWAP3 SWAP2 SWAP1 DUP2 DUP2 MSTORE PUSH1 0x20 ADD DUP4 DUP4 PUSH1 0x20 MUL DUP1 DUP3 DUP5 CALLDATACOPY PUSH1 0x0 SWAP3 ADD SWAP2 SWAP1 SWAP2 MSTORE POP SWAP3 SWAP6 POP PUSH2 0x20BB SWAP5 POP POP POP POP POP JUMP JUMPDEST PUSH2 0x5A3 PUSH1 0x4 DUP1 CALLDATASIZE SUB PUSH1 0x20 DUP2 LT ISZERO PUSH2 0xCB9 JUMPI PUSH1 0x0 DUP1 REVERT JUMPDEST POP CALLDATALOAD PUSH1 0x1 PUSH1 0x1 PUSH1 0xA0 SHL SUB AND PUSH2 0x2117 JUMP JUMPDEST PUSH2 0x5A3 PUSH1 0x4 DUP1 CALLDATASIZE SUB PUSH1 0x20 DUP2 LT ISZERO PUSH2 0xCDF JUMPI PUSH1 0x0 DUP1 REVERT JUMPDEST POP CALLDATALOAD PUSH2 0x219A JUMP JUMPDEST PUSH2 0x5A3 PUSH2 0x2241 JUMP JUMPDEST PUSH2 0x5AD PUSH2 0x275C JUMP JUMPDEST PUSH2 0x5A3 PUSH1 0x4 DUP1 CALLDATASIZE SUB PUSH1 0x20 DUP2 LT ISZERO PUSH2 0xD0C JUMPI PUSH1 0x0 DUP1 REVERT JUMPDEST POP CALLDATALOAD PUSH1 0x1 PUSH1 0x1 PUSH1 0xA0 SHL SUB AND PUSH2 0x2762 JUMP JUMPDEST PUSH2 0x5A3 PUSH1 0x4 DUP1 CALLDATASIZE SUB PUSH1 0x20 DUP2 LT ISZERO PUSH2 0xD32 JUMPI PUSH1 0x0 DUP1 REVERT JUMPDEST POP CALLDATALOAD PUSH1 0x1 PUSH1 0x1 PUSH1 0xA0 SHL SUB AND PUSH2 0x2844 JUMP JUMPDEST PUSH2 0x4E4 PUSH1 0x4 DUP1 CALLDATASIZE SUB PUSH1 0x20 DUP2 LT ISZERO PUSH2 0xD58 JUMPI PUSH1 0x0 DUP1 REVERT JUMPDEST POP CALLDATALOAD PUSH2 0x28C7 JUMP JUMPDEST PUSH2 0x4E4 PUSH2 0x28D4 JUMP JUMPDEST PUSH2 0x5A3 PUSH1 0x4 DUP1 CALLDATASIZE SUB PUSH1 0x20 DUP2 LT ISZERO PUSH2 0xD7D JUMPI PUSH1 0x0 DUP1 REVERT JUMPDEST DUP2 ADD SWAP1 PUSH1 0x20 DUP2 ADD DUP2 CALLDATALOAD PUSH5 0x100000000 DUP2 GT ISZERO PUSH2 0xD98 JUMPI PUSH1 0x0 DUP1 REVERT JUMPDEST DUP3 ADD DUP4 PUSH1 0x20 DUP3 ADD GT ISZERO PUSH2 0xDAA JUMPI PUSH1 0x0 DUP1 REVERT JUMPDEST DUP1 CALLDATALOAD SWAP1 PUSH1 0x20 ADD SWAP2 DUP5 PUSH1 0x20 DUP4 MUL DUP5 ADD GT PUSH5 0x100000000 DUP4 GT OR ISZERO PUSH2 0xDCC JUMPI PUSH1 0x0 DUP1 REVERT JUMPDEST SWAP2 SWAP1 DUP1 DUP1 PUSH1 0x20 MUL PUSH1 0x20 ADD PUSH1 0x40 MLOAD SWAP1 DUP2 ADD PUSH1 0x40 MSTORE DUP1 SWAP4 SWAP3 SWAP2 SWAP1 DUP2 DUP2 MSTORE PUSH1 0x20 ADD DUP4 DUP4 PUSH1 0x20 MUL DUP1 DUP3 DUP5 CALLDATACOPY PUSH1 0x0 SWAP3 ADD SWAP2 SWAP1 SWAP2 MSTORE POP SWAP3 SWAP6 POP PUSH2 0x28E3 SWAP5 POP POP POP POP POP JUMP JUMPDEST PUSH2 0x4E4 PUSH2 0x293F JUMP JUMPDEST PUSH2 0x5A3 PUSH2 0x294E JUMP JUMPDEST PUSH2 0x4E4 PUSH2 0x3141 JUMP JUMPDEST PUSH2 0x871 PUSH2 0x3150 JUMP JUMPDEST PUSH2 0x5AD PUSH2 0x3171 JUMP JUMPDEST PUSH2 0x5AD PUSH2 0x329A JUMP JUMPDEST PUSH2 0x5AD PUSH2 0x32A0 JUMP JUMPDEST PUSH2 0x871 PUSH2 0x32A6 JUMP JUMPDEST PUSH2 0x4E4 PUSH2 0x32B5 JUMP JUMPDEST PUSH2 0x4E4 PUSH2 0x32C4 JUMP JUMPDEST PUSH2 0x5A3 PUSH1 0x4 DUP1 CALLDATASIZE SUB PUSH1 0x20 DUP2 LT ISZERO PUSH2 0xE70 JUMPI PUSH1 0x0 DUP1 REVERT JUMPDEST DUP2 ADD SWAP1 PUSH1 0x20 DUP2 ADD DUP2 CALLDATALOAD PUSH5 0x100000000 DUP2 GT ISZERO PUSH2 0xE8B JUMPI PUSH1 0x0 DUP1 REVERT JUMPDEST DUP3 ADD DUP4 PUSH1 0x20 DUP3 ADD GT ISZERO PUSH2 0xE9D JUMPI PUSH1 0x0 DUP1 REVERT JUMPDEST DUP1 CALLDATALOAD SWAP1 PUSH1 0x20 ADD SWAP2 DUP5 PUSH1 0x20 DUP4 MUL DUP5 ADD GT PUSH5 0x100000000 DUP4 GT OR ISZERO PUSH2 0xEBF JUMPI PUSH1 0x0 DUP1 REVERT JUMPDEST SWAP2 SWAP1 DUP1 DUP1 PUSH1 0x20 MUL PUSH1 0x20 ADD PUSH1 0x40 MLOAD SWAP1 DUP2 ADD PUSH1 0x40 MSTORE DUP1 SWAP4 SWAP3 SWAP2 SWAP1 DUP2 DUP2 MSTORE PUSH1 0x20 ADD DUP4 DUP4 PUSH1 0x20 MUL DUP1 DUP3 DUP5 CALLDATACOPY PUSH1 0x0 SWAP3 ADD SWAP2 SWAP1 SWAP2 MSTORE POP SWAP3 SWAP6 POP PUSH2 0x32D3 SWAP5 POP POP POP POP POP JUMP JUMPDEST PUSH2 0x5AD PUSH2 0x332F JUMP JUMPDEST PUSH2 0x5A3 PUSH1 0x4 DUP1 CALLDATASIZE SUB PUSH1 0x20 DUP2 LT ISZERO PUSH2 0xF1B JUMPI PUSH1 0x0 DUP1 REVERT JUMPDEST POP CALLDATALOAD PUSH1 0x1 PUSH1 0x1 PUSH1 0xA0 SHL SUB AND PUSH2 0x3335 JUMP JUMPDEST PUSH2 0x5AD PUSH1 0x4 DUP1 CALLDATASIZE SUB PUSH1 0x40 DUP2 LT ISZERO PUSH2 0xF41 JUMPI PUSH1 0x0 DUP1 REVERT JUMPDEST POP PUSH1 0x1 PUSH1 0x1 PUSH1 0xA0 SHL SUB DUP2 CALLDATALOAD AND SWAP1 PUSH1 0x20 ADD CALLDATALOAD PUSH2 0x3457 JUMP JUMPDEST PUSH2 0x5A3 PUSH1 0x4 DUP1 CALLDATASIZE SUB PUSH1 0x20 DUP2 LT ISZERO PUSH2 0xF6D JUMPI PUSH1 0x0 DUP1 REVERT JUMPDEST POP CALLDATALOAD PUSH2 0x37C6 JUMP JUMPDEST PUSH2 0x5A3 PUSH1 0x4 DUP1 CALLDATASIZE SUB PUSH1 0x20 DUP2 LT ISZERO PUSH2 0xF8A JUMPI PUSH1 0x0 DUP1 REVERT JUMPDEST DUP2 ADD SWAP1 PUSH1 0x20 DUP2 ADD DUP2 CALLDATALOAD PUSH5 0x100000000 DUP2 GT ISZERO PUSH2 0xFA5 JUMPI PUSH1 0x0 DUP1 REVERT JUMPDEST DUP3 ADD DUP4 PUSH1 0x20 DUP3 ADD GT ISZERO PUSH2 0xFB7 JUMPI PUSH1 0x0 DUP1 REVERT JUMPDEST DUP1 CALLDATALOAD SWAP1 PUSH1 0x20 ADD SWAP2 DUP5 PUSH1 0x20 DUP4 MUL DUP5 ADD GT PUSH5 0x100000000 DUP4 GT OR ISZERO PUSH2 0xFD9 JUMPI PUSH1 0x0 DUP1 REVERT JUMPDEST SWAP2 SWAP1 DUP1 DUP1 PUSH1 0x20 MUL PUSH1 0x20 ADD PUSH1 0x40 MLOAD SWAP1 DUP2 ADD PUSH1 0x40 MSTORE DUP1 SWAP4 SWAP3 SWAP2 SWAP1 DUP2 DUP2 MSTORE PUSH1 0x20 ADD DUP4 DUP4 PUSH1 0x20 MUL DUP1 DUP3 DUP5 CALLDATACOPY PUSH1 0x0 SWAP3 ADD SWAP2 SWAP1 SWAP2 MSTORE POP SWAP3 SWAP6 POP PUSH2 0x386B SWAP5 POP POP POP POP POP JUMP JUMPDEST PUSH1 0x1D DUP2 DUP2 SLOAD DUP2 LT PUSH2 0x1024 JUMPI INVALID JUMPDEST PUSH1 0x0 SWAP2 DUP3 MSTORE PUSH1 0x20 SWAP1 SWAP2 KECCAK256 ADD SLOAD PUSH1 0x1 PUSH1 0x1 PUSH1 0xA0 SHL SUB AND SWAP1 POP DUP2 JUMP JUMPDEST PUSH1 0x9 SLOAD PUSH1 0x1 PUSH1 0x1 PUSH1 0xA0 SHL SUB AND CALLER EQ PUSH2 0x1087 JUMPI PUSH1 0x40 MLOAD PUSH3 0x461BCD PUSH1 0xE5 SHL DUP2 MSTORE PUSH1 0x4 ADD DUP1 DUP1 PUSH1 0x20 ADD DUP3 DUP2 SUB DUP3 MSTORE PUSH1 0x2B DUP2 MSTORE PUSH1 0x20 ADD DUP1 PUSH2 0x4BFE PUSH1 0x2B SWAP2 CODECOPY PUSH1 0x40 ADD SWAP2 POP POP PUSH1 0x40 MLOAD DUP1 SWAP2 SUB SWAP1 REVERT JUMPDEST DUP1 MLOAD PUSH2 0x109A SWAP1 PUSH1 0x19 SWAP1 PUSH1 0x20 DUP5 ADD SWAP1 PUSH2 0x4ABE JUMP JUMPDEST POP POP JUMP JUMPDEST PUSH2 0x12C DUP2 JUMP JUMPDEST PUSH1 0x19 DUP2 DUP2 SLOAD DUP2 LT PUSH2 0x1024 JUMPI INVALID JUMPDEST PUSH1 0xC SLOAD DUP2 JUMP JUMPDEST PUSH1 0x16 SLOAD DUP2 JUMP JUMPDEST PUSH1 0x12 SLOAD PUSH1 0x1 PUSH1 0x1 PUSH1 0xA0 SHL SUB AND DUP2 JUMP JUMPDEST PUSH1 0xA SLOAD PUSH1 0x1 PUSH1 0x1 PUSH1 0xA0 SHL SUB AND DUP2 JUMP JUMPDEST PUSH1 0xB SLOAD PUSH1 0x60 SWAP1 PUSH1 0x1 PUSH1 0x1 PUSH1 0xA0 SHL SUB AND CALLER EQ PUSH2 0x1127 JUMPI PUSH1 0x40 MLOAD PUSH3 0x461BCD PUSH1 0xE5 SHL DUP2 MSTORE PUSH1 0x4 ADD DUP1 DUP1 PUSH1 0x20 ADD DUP3 DUP2 SUB DUP3 MSTORE PUSH1 0x27 DUP2 MSTORE PUSH1 0x20 ADD DUP1 PUSH2 0x4C4A PUSH1 0x27 SWAP2 CODECOPY PUSH1 0x40 ADD SWAP2 POP POP PUSH1 0x40 MLOAD DUP1 SWAP2 SUB SWAP1 REVERT JUMPDEST PUSH1 0x60 DUP4 MLOAD PUSH1 0x0 EQ ISZERO PUSH2 0x113A JUMPI POP DUP2 PUSH2 0x11F0 JUMP JUMPDEST DUP4 DUP1 MLOAD SWAP1 PUSH1 0x20 ADD KECCAK256 DUP4 PUSH1 0x40 MLOAD PUSH1 0x20 ADD DUP1 DUP4 PUSH28 0xFFFFFFFFFFFFFFFFFFFFFFFFFFFFFFFFFFFFFFFFFFFFFFFFFFFFFFFF NOT AND DUP2 MSTORE PUSH1 0x4 ADD DUP3 DUP1 MLOAD SWAP1 PUSH1 0x20 ADD SWAP1 DUP1 DUP4 DUP4 JUMPDEST PUSH1 0x20 DUP4 LT PUSH2 0x11B8 JUMPI DUP1 MLOAD DUP3 MSTORE PUSH32 0xFFFFFFFFFFFFFFFFFFFFFFFFFFFFFFFFFFFFFFFFFFFFFFFFFFFFFFFFFFFFFFE0 SWAP1 SWAP3 ADD SWAP2 PUSH1 0x20 SWAP2 DUP3 ADD SWAP2 ADD PUSH2 0x117B JUMP JUMPDEST PUSH1 0x1 DUP4 PUSH1 0x20 SUB PUSH2 0x100 EXP SUB DUP1 NOT DUP3 MLOAD AND DUP2 DUP5 MLOAD AND DUP1 DUP3 OR DUP6 MSTORE POP POP POP POP POP POP SWAP1 POP ADD SWAP3 POP POP POP PUSH1 0x40 MLOAD PUSH1 0x20 DUP2 DUP4 SUB SUB DUP2 MSTORE SWAP1 PUSH1 0x40 MSTORE SWAP1 POP JUMPDEST PUSH1 0x0 PUSH1 0x60 DUP8 PUSH1 0x1 PUSH1 0x1 PUSH1 0xA0 SHL SUB AND DUP8 DUP5 PUSH1 0x40 MLOAD DUP1 DUP3 DUP1 MLOAD SWAP1 PUSH1 0x20 ADD SWAP1 DUP1 DUP4 DUP4 JUMPDEST PUSH1 0x20 DUP4 LT PUSH2 0x124D JUMPI DUP1 MLOAD DUP3 MSTORE PUSH32 0xFFFFFFFFFFFFFFFFFFFFFFFFFFFFFFFFFFFFFFFFFFFFFFFFFFFFFFFFFFFFFFE0 SWAP1 SWAP3 ADD SWAP2 PUSH1 0x20 SWAP2 DUP3 ADD SWAP2 ADD PUSH2 0x1210 JUMP JUMPDEST PUSH1 0x1 DUP4 PUSH1 0x20 SUB PUSH2 0x100 EXP SUB DUP1 NOT DUP3 MLOAD AND DUP2 DUP5 MLOAD AND DUP1 DUP3 OR DUP6 MSTORE POP POP POP POP POP POP SWAP1 POP ADD SWAP2 POP POP PUSH1 0x0 PUSH1 0x40 MLOAD DUP1 DUP4 SUB DUP2 DUP6 DUP8 GAS CALL SWAP3 POP POP POP RETURNDATASIZE DUP1 PUSH1 0x0 DUP2 EQ PUSH2 0x12AF JUMPI PUSH1 0x40 MLOAD SWAP2 POP PUSH1 0x1F NOT PUSH1 0x3F RETURNDATASIZE ADD AND DUP3 ADD PUSH1 0x40 MSTORE RETURNDATASIZE DUP3 MSTORE RETURNDATASIZE PUSH1 0x0 PUSH1 0x20 DUP5 ADD RETURNDATACOPY PUSH2 0x12B4 JUMP JUMPDEST PUSH1 0x60 SWAP2 POP JUMPDEST POP SWAP2 POP SWAP2 POP DUP2 PUSH2 0x12F5 JUMPI PUSH1 0x40 MLOAD PUSH3 0x461BCD PUSH1 0xE5 SHL DUP2 MSTORE PUSH1 0x4 ADD DUP1 DUP1 PUSH1 0x20 ADD DUP3 DUP2 SUB DUP3 MSTORE PUSH1 0x44 DUP2 MSTORE PUSH1 0x20 ADD DUP1 PUSH2 0x4B73 PUSH1 0x44 SWAP2 CODECOPY PUSH1 0x60 ADD SWAP2 POP POP PUSH1 0x40 MLOAD DUP1 SWAP2 SUB SWAP1 REVERT JUMPDEST DUP8 PUSH1 0x1 PUSH1 0x1 PUSH1 0xA0 SHL SUB AND PUSH32 0x88405CA50016C636E025868E263EFE5A9F63BF11CC45404F7616394C7DC389D0 DUP9 DUP9 DUP9 PUSH1 0x40 MLOAD DUP1 DUP5 DUP2 MSTORE PUSH1 0x20 ADD DUP1 PUSH1 0x20 ADD DUP1 PUSH1 0x20 ADD DUP4 DUP2 SUB DUP4 MSTORE DUP6 DUP2 DUP2 MLOAD DUP2 MSTORE PUSH1 0x20 ADD SWAP2 POP DUP1 MLOAD SWAP1 PUSH1 0x20 ADD SWAP1 DUP1 DUP4 DUP4 PUSH1 0x0 JUMPDEST DUP4 DUP2 LT ISZERO PUSH2 0x136A JUMPI DUP2 DUP2 ADD MLOAD DUP4 DUP3 ADD MSTORE PUSH1 0x20 ADD PUSH2 0x1352 JUMP JUMPDEST POP POP POP POP SWAP1 POP SWAP1 DUP2 ADD SWAP1 PUSH1 0x1F AND DUP1 ISZERO PUSH2 0x1397 JUMPI DUP1 DUP3 SUB DUP1 MLOAD PUSH1 0x1 DUP4 PUSH1 0x20 SUB PUSH2 0x100 EXP SUB NOT AND DUP2 MSTORE PUSH1 0x20 ADD SWAP2 POP JUMPDEST POP DUP4 DUP2 SUB DUP3 MSTORE DUP5 MLOAD DUP2 MSTORE DUP5 MLOAD PUSH1 0x20 SWAP2 DUP3 ADD SWAP2 DUP7 ADD SWAP1 DUP1 DUP4 DUP4 PUSH1 0x0 JUMPDEST DUP4 DUP2 LT ISZERO PUSH2 0x13CA JUMPI DUP2 DUP2 ADD MLOAD DUP4 DUP3 ADD MSTORE PUSH1 0x20 ADD PUSH2 0x13B2 JUMP JUMPDEST POP POP POP POP SWAP1 POP SWAP1 DUP2 ADD SWAP1 PUSH1 0x1F AND DUP1 ISZERO PUSH2 0x13F7 JUMPI DUP1 DUP3 SUB DUP1 MLOAD PUSH1 0x1 DUP4 PUSH1 0x20 SUB PUSH2 0x100 EXP SUB NOT AND DUP2 MSTORE PUSH1 0x20 ADD SWAP2 POP JUMPDEST POP SWAP6 POP POP POP POP POP POP PUSH1 0x40 MLOAD DUP1 SWAP2 SUB SWAP1 LOG2 SWAP3 POP POP POP JUMPDEST SWAP5 SWAP4 POP POP POP POP JUMP JUMPDEST PUSH2 0x2710 DUP2 JUMP JUMPDEST PUSH1 0x2 PUSH1 0x1 SLOAD EQ ISZERO PUSH2 0x1472 JUMPI PUSH1 0x40 DUP1 MLOAD PUSH3 0x461BCD PUSH1 0xE5 SHL DUP2 MSTORE PUSH1 0x20 PUSH1 0x4 DUP3 ADD MSTORE PUSH1 0x1F PUSH1 0x24 DUP3 ADD MSTORE PUSH32 0x5265656E7472616E637947756172643A207265656E7472616E742063616C6C00 PUSH1 0x44 DUP3 ADD MSTORE SWAP1 MLOAD SWAP1 DUP2 SWAP1 SUB PUSH1 0x64 ADD SWAP1 REVERT JUMPDEST PUSH1 0x2 PUSH1 0x1 SSTORE PUSH2 0x147F PUSH2 0x38C7 JUMP JUMPDEST PUSH1 0x1 DUP1 SSTORE JUMP JUMPDEST PUSH1 0x9 SLOAD PUSH1 0x1 PUSH1 0x1 PUSH1 0xA0 SHL SUB AND CALLER EQ PUSH2 0x14CE JUMPI PUSH1 0x40 MLOAD PUSH3 0x461BCD PUSH1 0xE5 SHL DUP2 MSTORE PUSH1 0x4 ADD DUP1 DUP1 PUSH1 0x20 ADD DUP3 DUP2 SUB DUP3 MSTORE PUSH1 0x2B DUP2 MSTORE PUSH1 0x20 ADD DUP1 PUSH2 0x4BFE PUSH1 0x2B SWAP2 CODECOPY PUSH1 0x40 ADD SWAP2 POP POP PUSH1 0x40 MLOAD DUP1 SWAP2 SUB SWAP1 REVERT JUMPDEST PUSH2 0x26DE DUP2 GT PUSH2 0x1524 JUMPI PUSH1 0x40 DUP1 MLOAD PUSH3 0x461BCD PUSH1 0xE5 SHL DUP2 MSTORE PUSH1 0x20 PUSH1 0x4 DUP3 ADD DUP2 SWAP1 MSTORE PUSH1 0x24 DUP3 ADD MSTORE PUSH32 0x427661756C747353747261746567793A202173616665202D20746F6F206C6F77 PUSH1 0x44 DUP3 ADD MSTORE SWAP1 MLOAD SWAP1 DUP2 SWAP1 SUB PUSH1 0x64 ADD SWAP1 REVERT JUMPDEST PUSH2 0x2710 DUP2 GT ISZERO PUSH2 0x1565 JUMPI PUSH1 0x40 MLOAD PUSH3 0x461BCD PUSH1 0xE5 SHL DUP2 MSTORE PUSH1 0x4 ADD DUP1 DUP1 PUSH1 0x20 ADD DUP3 DUP2 SUB DUP3 MSTORE PUSH1 0x21 DUP2 MSTORE PUSH1 0x20 ADD DUP1 PUSH2 0x4BB7 PUSH1 0x21 SWAP2 CODECOPY PUSH1 0x40 ADD SWAP2 POP POP PUSH1 0x40 MLOAD DUP1 SWAP2 SUB SWAP1 REVERT JUMPDEST PUSH1 0x16 SSTORE JUMP JUMPDEST PUSH1 0x9 SLOAD PUSH1 0x1 PUSH1 0x1 PUSH1 0xA0 SHL SUB AND CALLER EQ PUSH2 0x15B3 JUMPI PUSH1 0x40 MLOAD PUSH3 0x461BCD PUSH1 0xE5 SHL DUP2 MSTORE PUSH1 0x4 ADD DUP1 DUP1 PUSH1 0x20 ADD DUP3 DUP2 SUB DUP3 MSTORE PUSH1 0x2B DUP2 MSTORE PUSH1 0x20 ADD DUP1 PUSH2 0x4BFE PUSH1 0x2B SWAP2 CODECOPY PUSH1 0x40 ADD SWAP2 POP POP PUSH1 0x40 MLOAD DUP1 SWAP2 SUB SWAP1 REVERT JUMPDEST PUSH2 0x15BB PUSH2 0x3ABB JUMP JUMPDEST JUMP JUMPDEST PUSH1 0xD SLOAD DUP2 JUMP JUMPDEST PUSH1 0xE SLOAD DUP2 JUMP JUMPDEST PUSH1 0x9 SLOAD PUSH1 0x1 PUSH1 0x1 PUSH1 0xA0 SHL SUB AND CALLER EQ PUSH2 0x1612 JUMPI PUSH1 0x40 MLOAD PUSH3 0x461BCD PUSH1 0xE5 SHL DUP2 MSTORE PUSH1 0x4 ADD DUP1 DUP1 PUSH1 0x20 ADD DUP3 DUP2 SUB DUP3 MSTORE PUSH1 0x2B DUP2 MSTORE PUSH1 0x20 ADD DUP1 PUSH2 0x4BFE PUSH1 0x2B SWAP2 CODECOPY PUSH1 0x40 ADD SWAP2 POP POP PUSH1 0x40 MLOAD DUP1 SWAP2 SUB SWAP1 REVERT JUMPDEST PUSH1 0xB DUP1 SLOAD SWAP2 ISZERO ISZERO PUSH21 0x10000000000000000000000000000000000000000 MUL PUSH32 0xFFFFFFFFFFFFFFFFFFFFFF00FFFFFFFFFFFFFFFFFFFFFFFFFFFFFFFFFFFFFFFF SWAP1 SWAP3 AND SWAP2 SWAP1 SWAP2 OR SWAP1 SSTORE JUMP JUMPDEST PUSH1 0x0 PUSH2 0x1666 PUSH2 0x3B80 JUMP JUMPDEST PUSH1 0x0 SLOAD PUSH1 0x1 PUSH1 0x1 PUSH1 0xA0 SHL SUB SWAP1 DUP2 AND SWAP2 AND EQ PUSH2 0x16C8 JUMPI PUSH1 0x40 DUP1 MLOAD PUSH3 0x461BCD PUSH1 0xE5 SHL DUP2 MSTORE PUSH1 0x20 PUSH1 0x4 DUP3 ADD DUP2 SWAP1 MSTORE PUSH1 0x24 DUP3 ADD MSTORE PUSH32 0x4F776E61626C653A2063616C6C6572206973206E6F7420746865206F776E6572 PUSH1 0x44 DUP3 ADD MSTORE SWAP1 MLOAD SWAP1 DUP2 SWAP1 SUB PUSH1 0x64 ADD SWAP1 REVERT JUMPDEST PUSH1 0x2 SLOAD PUSH1 0xFF AND ISZERO PUSH2 0x1720 JUMPI PUSH1 0x40 DUP1 MLOAD PUSH3 0x461BCD PUSH1 0xE5 SHL DUP2 MSTORE PUSH1 0x20 PUSH1 0x4 DUP3 ADD MSTORE PUSH1 0x10 PUSH1 0x24 DUP3 ADD MSTORE PUSH32 0x5061757361626C653A2070617573656400000000000000000000000000000000 PUSH1 0x44 DUP3 ADD MSTORE SWAP1 MLOAD SWAP1 DUP2 SWAP1 SUB PUSH1 0x64 ADD SWAP1 REVERT JUMPDEST PUSH1 0x4 SLOAD PUSH2 0x1738 SWAP1 PUSH1 0x1 PUSH1 0x1 PUSH1 0xA0 SHL SUB AND CALLER ADDRESS DUP6 PUSH2 0x3B84 JUMP JUMPDEST PUSH1 0xD SLOAD DUP3 SWAP1 ISZERO PUSH2 0x1778 JUMPI PUSH2 0x1775 PUSH2 0x2710 PUSH2 0x176F PUSH1 0xD SLOAD PUSH2 0x176F PUSH1 0x16 SLOAD PUSH2 0x1769 PUSH1 0xE SLOAD DUP11 PUSH2 0x3C12 SWAP1 SWAP2 SWAP1 PUSH4 0xFFFFFFFF AND JUMP JUMPDEST SWAP1 PUSH2 0x3C12 JUMP JUMPDEST SWAP1 PUSH2 0x3C72 JUMP JUMPDEST SWAP1 POP JUMPDEST PUSH1 0xE SLOAD PUSH2 0x1785 SWAP1 DUP3 PUSH2 0x3CB4 JUMP JUMPDEST PUSH1 0xE SSTORE PUSH1 0x2 SLOAD PUSH3 0x10000 SWAP1 DIV PUSH1 0xFF AND ISZERO PUSH2 0x17A6 JUMPI PUSH2 0x17A1 PUSH2 0x38C7 JUMP JUMPDEST PUSH2 0x17B7 JUMP JUMPDEST PUSH1 0xD SLOAD PUSH2 0x17B3 SWAP1 DUP5 PUSH2 0x3CB4 JUMP JUMPDEST PUSH1 0xD SSTORE JUMPDEST PUSH1 0x40 DUP1 MLOAD DUP5 DUP2 MSTORE SWAP1 MLOAD PUSH32 0x4D6CE1E535DBADE1C23DEFBA91E23B8F791CE5EDC0CC320257A2B364E4E38426 SWAP2 DUP2 SWAP1 SUB PUSH1 0x20 ADD SWAP1 LOG1 SWAP1 POP JUMPDEST SWAP3 SWAP2 POP POP JUMP JUMPDEST PUSH1 0x15 SLOAD PUSH1 0x1 PUSH1 0x1 PUSH1 0xA0 SHL SUB AND DUP2 JUMP JUMPDEST PUSH1 0x9 SLOAD PUSH1 0x0 SWAP1 PUSH1 0x1 PUSH1 0x1 PUSH1 0xA0 SHL SUB DUP4 DUP2 AND SWAP2 AND EQ DUP1 PUSH2 0x182B JUMPI POP PUSH1 0xA SLOAD PUSH1 0x1 PUSH1 0x1 PUSH1 0xA0 SHL SUB AND CALLER EQ JUMPDEST DUP1 PUSH2 0x1840 JUMPI POP PUSH1 0xB SLOAD PUSH1 0x1 PUSH1 0x1 PUSH1 0xA0 SHL SUB AND CALLER EQ JUMPDEST SWAP1 POP JUMPDEST SWAP2 SWAP1 POP JUMP JUMPDEST PUSH1 0x9 SLOAD PUSH1 0x1 PUSH1 0x1 PUSH1 0xA0 SHL SUB AND DUP2 JUMP JUMPDEST PUSH1 0x2 SLOAD PUSH1 0xFF AND SWAP1 JUMP JUMPDEST PUSH1 0x14 SLOAD PUSH1 0x1 PUSH1 0x1 PUSH1 0xA0 SHL SUB AND DUP2 JUMP JUMPDEST PUSH20 0xBB4CDB9CBD36B01BD1CBAEBF2DE08D9173BC095C DUP2 JUMP JUMPDEST PUSH1 0x9 SLOAD PUSH1 0x1 PUSH1 0x1 PUSH1 0xA0 SHL SUB AND CALLER EQ PUSH2 0x18D0 JUMPI PUSH1 0x40 MLOAD PUSH3 0x461BCD PUSH1 0xE5 SHL DUP2 MSTORE PUSH1 0x4 ADD DUP1 DUP1 PUSH1 0x20 ADD DUP3 DUP2 SUB DUP3 MSTORE PUSH1 0x2B DUP2 MSTORE PUSH1 0x20 ADD DUP1 PUSH2 0x4BFE PUSH1 0x2B SWAP2 CODECOPY PUSH1 0x40 ADD SWAP2 POP POP PUSH1 0x40 MLOAD DUP1 SWAP2 SUB SWAP1 REVERT JUMPDEST PUSH1 0x7 SLOAD PUSH1 0x1 PUSH1 0x1 PUSH1 0xA0 SHL SUB DUP5 DUP2 AND SWAP2 AND EQ ISZERO PUSH2 0x1933 JUMPI PUSH1 0x40 DUP1 MLOAD PUSH3 0x461BCD PUSH1 0xE5 SHL DUP2 MSTORE PUSH1 0x20 PUSH1 0x4 DUP3 ADD MSTORE PUSH1 0x5 PUSH1 0x24 DUP3 ADD MSTORE PUSH32 0x2173616665000000000000000000000000000000000000000000000000000000 PUSH1 0x44 DUP3 ADD MSTORE SWAP1 MLOAD SWAP1 DUP2 SWAP1 SUB PUSH1 0x64 ADD SWAP1 REVERT JUMPDEST PUSH1 0x4 SLOAD PUSH1 0x1 PUSH1 0x1 PUSH1 0xA0 SHL SUB DUP5 DUP2 AND SWAP2 AND EQ ISZERO PUSH2 0x1996 JUMPI PUSH1 0x40 DUP1 MLOAD PUSH3 0x461BCD PUSH1 0xE5 SHL DUP2 MSTORE PUSH1 0x20 PUSH1 0x4 DUP3 ADD MSTORE PUSH1 0x5 PUSH1 0x24 DUP3 ADD MSTORE PUSH32 0x2173616665000000000000000000000000000000000000000000000000000000 PUSH1 0x44 DUP3 ADD MSTORE SWAP1 MLOAD SWAP1 DUP2 SWAP1 SUB PUSH1 0x64 ADD SWAP1 REVERT JUMPDEST PUSH2 0x19AA PUSH1 0x1 PUSH1 0x1 PUSH1 0xA0 SHL SUB DUP5 AND DUP3 DUP5 PUSH2 0x3D0E JUMP JUMPDEST PUSH1 0x40 DUP1 MLOAD PUSH1 0x1 PUSH1 0x1 PUSH1 0xA0 SHL SUB DUP1 DUP7 AND DUP3 MSTORE PUSH1 0x20 DUP3 ADD DUP6 SWAP1 MSTORE DUP4 AND DUP2 DUP4 ADD MSTORE SWAP1 MLOAD PUSH32 0x22F92DFB4F608EA5DB1E9BB08C0B4F5518AF93B1259D335FE05900056096AB2C SWAP2 DUP2 SWAP1 SUB PUSH1 0x60 ADD SWAP1 LOG1 POP POP POP JUMP JUMPDEST PUSH1 0x8 SLOAD PUSH1 0x40 DUP1 MLOAD PUSH32 0xD06CA61F00000000000000000000000000000000000000000000000000000000 DUP2 MSTORE PUSH1 0x4 DUP2 ADD DUP6 DUP2 MSTORE PUSH1 0x24 DUP3 ADD SWAP3 DUP4 MSTORE DUP5 MLOAD PUSH1 0x44 DUP4 ADD MSTORE DUP5 MLOAD PUSH1 0x0 SWAP5 PUSH1 0x60 SWAP5 PUSH1 0x1 PUSH1 0x1 PUSH1 0xA0 SHL SUB SWAP1 SWAP2 AND SWAP4 PUSH4 0xD06CA61F SWAP4 DUP10 SWAP4 DUP10 SWAP4 SWAP2 SWAP3 PUSH1 0x64 ADD SWAP1 PUSH1 0x20 DUP1 DUP7 ADD SWAP2 MUL DUP1 DUP4 DUP4 DUP14 JUMPDEST DUP4 DUP2 LT ISZERO PUSH2 0x1A80 JUMPI DUP2 DUP2 ADD MLOAD DUP4 DUP3 ADD MSTORE PUSH1 0x20 ADD PUSH2 0x1A68 JUMP JUMPDEST POP POP POP POP SWAP1 POP ADD SWAP4 POP POP POP POP PUSH1 0x0 PUSH1 0x40 MLOAD DUP1 DUP4 SUB DUP2 DUP7 DUP1 EXTCODESIZE ISZERO DUP1 ISZERO PUSH2 0x1AA4 JUMPI PUSH1 0x0 DUP1 REVERT JUMPDEST POP GAS STATICCALL ISZERO DUP1 ISZERO PUSH2 0x1AB8 JUMPI RETURNDATASIZE PUSH1 0x0 DUP1 RETURNDATACOPY RETURNDATASIZE PUSH1 0x0 REVERT JUMPDEST POP POP POP POP PUSH1 0x40 MLOAD RETURNDATASIZE PUSH1 0x0 DUP3 RETURNDATACOPY PUSH1 0x1F RETURNDATASIZE SWAP1 DUP2 ADD PUSH32 0xFFFFFFFFFFFFFFFFFFFFFFFFFFFFFFFFFFFFFFFFFFFFFFFFFFFFFFFFFFFFFFE0 AND DUP3 ADD PUSH1 0x40 MSTORE PUSH1 0x20 DUP2 LT ISZERO PUSH2 0x1AFF JUMPI PUSH1 0x0 DUP1 REVERT JUMPDEST DUP2 ADD SWAP1 DUP1 DUP1 MLOAD PUSH1 0x40 MLOAD SWAP4 SWAP3 SWAP2 SWAP1 DUP5 PUSH5 0x100000000 DUP3 GT ISZERO PUSH2 0x1B1F JUMPI PUSH1 0x0 DUP1 REVERT JUMPDEST SWAP1 DUP4 ADD SWAP1 PUSH1 0x20 DUP3 ADD DUP6 DUP2 GT ISZERO PUSH2 0x1B34 JUMPI PUSH1 0x0 DUP1 REVERT JUMPDEST DUP3 MLOAD DUP7 PUSH1 0x20 DUP3 MUL DUP4 ADD GT PUSH5 0x100000000 DUP3 GT OR ISZERO PUSH2 0x1B51 JUMPI PUSH1 0x0 DUP1 REVERT JUMPDEST DUP3 MSTORE POP DUP2 MLOAD PUSH1 0x20 SWAP2 DUP3 ADD SWAP3 DUP3 ADD SWAP2 MUL DUP1 DUP4 DUP4 PUSH1 0x0 JUMPDEST DUP4 DUP2 LT ISZERO PUSH2 0x1B7E JUMPI DUP2 DUP2 ADD MLOAD DUP4 DUP3 ADD MSTORE PUSH1 0x20 ADD PUSH2 0x1B66 JUMP JUMPDEST POP POP POP POP SWAP1 POP ADD PUSH1 0x40 MSTORE POP POP POP SWAP1 POP DUP1 PUSH1 0x1 DUP3 MLOAD SUB DUP2 MLOAD DUP2 LT PUSH2 0x1B9D JUMPI INVALID JUMPDEST PUSH1 0x20 MUL PUSH1 0x20 ADD ADD MLOAD SWAP2 POP POP SWAP3 SWAP2 POP POP JUMP JUMPDEST PUSH1 0x17 DUP2 DUP2 SLOAD DUP2 LT PUSH2 0x1024 JUMPI INVALID JUMPDEST PUSH1 0x8 SLOAD PUSH1 0x1 PUSH1 0x1 PUSH1 0xA0 SHL SUB AND DUP2 JUMP JUMPDEST PUSH2 0x1BD2 PUSH2 0x3B80 JUMP JUMPDEST PUSH1 0x0 SLOAD PUSH1 0x1 PUSH1 0x1 PUSH1 0xA0 SHL SUB SWAP1 DUP2 AND SWAP2 AND EQ PUSH2 0x1C34 JUMPI PUSH1 0x40 DUP1 MLOAD PUSH3 0x461BCD PUSH1 0xE5 SHL DUP2 MSTORE PUSH1 0x20 PUSH1 0x4 DUP3 ADD DUP2 SWAP1 MSTORE PUSH1 0x24 DUP3 ADD MSTORE PUSH32 0x4F776E61626C653A2063616C6C6572206973206E6F7420746865206F776E6572 PUSH1 0x44 DUP3 ADD MSTORE SWAP1 MLOAD SWAP1 DUP2 SWAP1 SUB PUSH1 0x64 ADD SWAP1 REVERT JUMPDEST PUSH1 0x0 DUP1 SLOAD PUSH1 0x40 MLOAD PUSH1 0x1 PUSH1 0x1 PUSH1 0xA0 SHL SUB SWAP1 SWAP2 AND SWAP1 PUSH32 0x8BE0079C531659141344CD1FD0A4F28419497F9722A3DAAFE3B4186F6B6457E0 SWAP1 DUP4 SWAP1 LOG3 PUSH1 0x0 DUP1 SLOAD PUSH32 0xFFFFFFFFFFFFFFFFFFFFFFFF0000000000000000000000000000000000000000 AND SWAP1 SSTORE JUMP JUMPDEST PUSH20 0xE9E7CEA3DEDCA5984780BAFC599BD69ADD087D56 DUP2 JUMP JUMPDEST PUSH1 0x9 SLOAD PUSH1 0x1 PUSH1 0x1 PUSH1 0xA0 SHL SUB AND CALLER EQ PUSH2 0x1CF7 JUMPI PUSH1 0x40 MLOAD PUSH3 0x461BCD PUSH1 0xE5 SHL DUP2 MSTORE PUSH1 0x4 ADD DUP1 DUP1 PUSH1 0x20 ADD DUP3 DUP2 SUB DUP3 MSTORE PUSH1 0x2B DUP2 MSTORE PUSH1 0x20 ADD DUP1 PUSH2 0x4BFE PUSH1 0x2B SWAP2 CODECOPY PUSH1 0x40 ADD SWAP2 POP POP PUSH1 0x40 MLOAD DUP1 SWAP2 SUB SWAP1 REVERT JUMPDEST DUP1 MLOAD PUSH2 0x109A SWAP1 PUSH1 0x1C SWAP1 PUSH1 0x20 DUP5 ADD SWAP1 PUSH2 0x4ABE JUMP JUMPDEST PUSH1 0x5 SLOAD PUSH1 0x1 PUSH1 0x1 PUSH1 0xA0 SHL SUB AND DUP2 JUMP JUMPDEST PUSH1 0x9 SLOAD PUSH1 0x1 PUSH1 0x1 PUSH1 0xA0 SHL SUB AND CALLER EQ PUSH2 0x1D62 JUMPI PUSH1 0x40 MLOAD PUSH3 0x461BCD PUSH1 0xE5 SHL DUP2 MSTORE PUSH1 0x4 ADD DUP1 DUP1 PUSH1 0x20 ADD DUP3 DUP2 SUB DUP3 MSTORE PUSH1 0x2B DUP2 MSTORE PUSH1 0x20 ADD DUP1 PUSH2 0x4BFE PUSH1 0x2B SWAP2 CODECOPY PUSH1 0x40 ADD SWAP2 POP POP PUSH1 0x40 MLOAD DUP1 SWAP2 SUB SWAP1 REVERT JUMPDEST PUSH2 0x15BB PUSH2 0x3D93 JUMP JUMPDEST PUSH1 0x2 SLOAD PUSH2 0x100 SWAP1 DIV PUSH1 0xFF AND DUP2 JUMP JUMPDEST PUSH1 0x9 SLOAD PUSH1 0x1 PUSH1 0x1 PUSH1 0xA0 SHL SUB AND CALLER EQ PUSH2 0x1DC1 JUMPI PUSH1 0x40 MLOAD PUSH3 0x461BCD PUSH1 0xE5 SHL DUP2 MSTORE PUSH1 0x4 ADD DUP1 DUP1 PUSH1 0x20 ADD DUP3 DUP2 SUB DUP3 MSTORE PUSH1 0x2B DUP2 MSTORE PUSH1 0x20 ADD DUP1 PUSH2 0x4BFE PUSH1 0x2B SWAP2 CODECOPY PUSH1 0x40 ADD SWAP2 POP POP PUSH1 0x40 MLOAD DUP1 SWAP2 SUB SWAP1 REVERT JUMPDEST DUP1 MLOAD PUSH2 0x109A SWAP1 PUSH1 0x1D SWAP1 PUSH1 0x20 DUP5 ADD SWAP1 PUSH2 0x4ABE JUMP JUMPDEST PUSH1 0xF SLOAD DUP2 JUMP JUMPDEST PUSH1 0x0 DUP1 PUSH2 0x1DE5 PUSH2 0x3171 JUMP JUMPDEST SWAP1 POP DUP1 ISZERO PUSH2 0x1E56 JUMPI PUSH2 0x1E51 DUP2 PUSH1 0x19 DUP1 SLOAD DUP1 PUSH1 0x20 MUL PUSH1 0x20 ADD PUSH1 0x40 MLOAD SWAP1 DUP2 ADD PUSH1 0x40 MSTORE DUP1 SWAP3 SWAP2 SWAP1 DUP2 DUP2 MSTORE PUSH1 0x20 ADD DUP3 DUP1 SLOAD DUP1 ISZERO PUSH2 0x1E47 JUMPI PUSH1 0x20 MUL DUP3 ADD SWAP2 SWAP1 PUSH1 0x0 MSTORE PUSH1 0x20 PUSH1 0x0 KECCAK256 SWAP1 JUMPDEST DUP2 SLOAD PUSH1 0x1 PUSH1 0x1 PUSH1 0xA0 SHL SUB AND DUP2 MSTORE PUSH1 0x1 SWAP1 SWAP2 ADD SWAP1 PUSH1 0x20 ADD DUP1 DUP4 GT PUSH2 0x1E29 JUMPI JUMPDEST POP POP POP POP POP PUSH2 0x19F9 JUMP JUMPDEST PUSH2 0x1E59 JUMP JUMPDEST PUSH1 0x0 JUMPDEST SWAP2 POP POP SWAP1 JUMP JUMPDEST PUSH1 0x0 SLOAD PUSH1 0x1 PUSH1 0x1 PUSH1 0xA0 SHL SUB AND SWAP1 JUMP JUMPDEST PUSH1 0x1B DUP2 DUP2 SLOAD DUP2 LT PUSH2 0x1024 JUMPI INVALID JUMPDEST PUSH1 0x2 SLOAD PUSH4 0x1000000 SWAP1 DIV PUSH1 0x1 PUSH1 0x1 PUSH1 0xA0 SHL SUB AND DUP2 JUMP JUMPDEST PUSH1 0x18 DUP2 DUP2 SLOAD DUP2 LT PUSH2 0x1024 JUMPI INVALID JUMPDEST PUSH1 0x9 SLOAD PUSH1 0x1 PUSH1 0x1 PUSH1 0xA0 SHL SUB AND CALLER EQ PUSH2 0x1EE7 JUMPI PUSH1 0x40 MLOAD PUSH3 0x461BCD PUSH1 0xE5 SHL DUP2 MSTORE PUSH1 0x4 ADD DUP1 DUP1 PUSH1 0x20 ADD DUP3 DUP2 SUB DUP3 MSTORE PUSH1 0x2B DUP2 MSTORE PUSH1 0x20 ADD DUP1 PUSH2 0x4BFE PUSH1 0x2B SWAP2 CODECOPY PUSH1 0x40 ADD SWAP2 POP POP PUSH1 0x40 MLOAD DUP1 SWAP2 SUB SWAP1 REVERT JUMPDEST PUSH1 0x1 PUSH1 0x1 PUSH1 0xA0 SHL SUB DUP2 AND PUSH2 0x1F44 JUMPI PUSH1 0x40 DUP1 MLOAD PUSH3 0x461BCD PUSH1 0xE5 SHL DUP2 MSTORE PUSH1 0x20 PUSH1 0x4 DUP1 DUP4 ADD SWAP2 SWAP1 SWAP2 MSTORE PUSH1 0x24 DUP3 ADD MSTORE PUSH32 0x7A65726F00000000000000000000000000000000000000000000000000000000 PUSH1 0x44 DUP3 ADD MSTORE SWAP1 MLOAD SWAP1 DUP2 SWAP1 SUB PUSH1 0x64 ADD SWAP1 REVERT JUMPDEST PUSH1 0x15 DUP1 SLOAD PUSH32 0xFFFFFFFFFFFFFFFFFFFFFFFF0000000000000000000000000000000000000000 AND PUSH1 0x1 PUSH1 0x1 PUSH1 0xA0 SHL SUB SWAP3 SWAP1 SWAP3 AND SWAP2 SWAP1 SWAP2 OR SWAP1 SSTORE JUMP JUMPDEST PUSH2 0x320 DUP2 JUMP JUMPDEST PUSH1 0x9 SLOAD PUSH1 0x1 PUSH1 0x1 PUSH1 0xA0 SHL SUB AND CALLER EQ PUSH2 0x1FCD JUMPI PUSH1 0x40 MLOAD PUSH3 0x461BCD PUSH1 0xE5 SHL DUP2 MSTORE PUSH1 0x4 ADD DUP1 DUP1 PUSH1 0x20 ADD DUP3 DUP2 SUB DUP3 MSTORE PUSH1 0x2B DUP2 MSTORE PUSH1 0x20 ADD DUP1 PUSH2 0x4BFE PUSH1 0x2B SWAP2 CODECOPY PUSH1 0x40 ADD SWAP2 POP POP PUSH1 0x40 MLOAD DUP1 SWAP2 SUB SWAP1 REVERT JUMPDEST PUSH1 0x9 DUP1 SLOAD PUSH32 0xFFFFFFFFFFFFFFFFFFFFFFFF0000000000000000000000000000000000000000 AND PUSH1 0x1 PUSH1 0x1 PUSH1 0xA0 SHL SUB SWAP3 SWAP1 SWAP3 AND SWAP2 SWAP1 SWAP2 OR SWAP1 SSTORE JUMP JUMPDEST PUSH1 0x1C DUP2 DUP2 SLOAD DUP2 LT PUSH2 0x1024 JUMPI INVALID JUMPDEST PUSH1 0x9 SLOAD PUSH1 0x1 PUSH1 0x1 PUSH1 0xA0 SHL SUB AND CALLER EQ PUSH2 0x205D JUMPI PUSH1 0x40 MLOAD PUSH3 0x461BCD PUSH1 0xE5 SHL DUP2 MSTORE PUSH1 0x4 ADD DUP1 DUP1 PUSH1 0x20 ADD DUP3 DUP2 SUB DUP3 MSTORE PUSH1 0x2B DUP2 MSTORE PUSH1 0x20 ADD DUP1 PUSH2 0x4BFE PUSH1 0x2B SWAP2 CODECOPY PUSH1 0x40 ADD SWAP2 POP POP PUSH1 0x40 MLOAD DUP1 SWAP2 SUB SWAP1 REVERT JUMPDEST PUSH2 0x320 PUSH1 0x13 SLOAD GT ISZERO PUSH2 0x20B6 JUMPI PUSH1 0x40 DUP1 MLOAD PUSH3 0x461BCD PUSH1 0xE5 SHL DUP2 MSTORE PUSH1 0x20 PUSH1 0x4 DUP3 ADD MSTORE PUSH1 0x19 PUSH1 0x24 DUP3 ADD MSTORE PUSH32 0x427661756C747353747261746567793A20746F6F206869676800000000000000 PUSH1 0x44 DUP3 ADD MSTORE SWAP1 MLOAD SWAP1 DUP2 SWAP1 SUB PUSH1 0x64 ADD SWAP1 REVERT JUMPDEST PUSH1 0x13 SSTORE JUMP JUMPDEST PUSH1 0x9 SLOAD PUSH1 0x1 PUSH1 0x1 PUSH1 0xA0 SHL SUB AND CALLER EQ PUSH2 0x2104 JUMPI PUSH1 0x40 MLOAD PUSH3 0x461BCD PUSH1 0xE5 SHL DUP2 MSTORE PUSH1 0x4 ADD DUP1 DUP1 PUSH1 0x20 ADD DUP3 DUP2 SUB DUP3 MSTORE PUSH1 0x2B DUP2 MSTORE PUSH1 0x20 ADD DUP1 PUSH2 0x4BFE PUSH1 0x2B SWAP2 CODECOPY PUSH1 0x40 ADD SWAP2 POP POP PUSH1 0x40 MLOAD DUP1 SWAP2 SUB SWAP1 REVERT JUMPDEST DUP1 MLOAD PUSH2 0x109A SWAP1 PUSH1 0x1A SWAP1 PUSH1 0x20 DUP5 ADD SWAP1 PUSH2 0x4ABE JUMP JUMPDEST PUSH1 0xB SLOAD PUSH1 0x1 PUSH1 0x1 PUSH1 0xA0 SHL SUB AND CALLER EQ PUSH2 0x2160 JUMPI PUSH1 0x40 MLOAD PUSH3 0x461BCD PUSH1 0xE5 SHL DUP2 MSTORE PUSH1 0x4 ADD DUP1 DUP1 PUSH1 0x20 ADD DUP3 DUP2 SUB DUP3 MSTORE PUSH1 0x27 DUP2 MSTORE PUSH1 0x20 ADD DUP1 PUSH2 0x4C4A PUSH1 0x27 SWAP2 CODECOPY PUSH1 0x40 ADD SWAP2 POP POP PUSH1 0x40 MLOAD DUP1 SWAP2 SUB SWAP1 REVERT JUMPDEST PUSH1 0xB DUP1 SLOAD PUSH32 0xFFFFFFFFFFFFFFFFFFFFFFFF0000000000000000000000000000000000000000 AND PUSH1 0x1 PUSH1 0x1 PUSH1 0xA0 SHL SUB SWAP3 SWAP1 SWAP3 AND SWAP2 SWAP1 SWAP2 OR SWAP1 SSTORE JUMP JUMPDEST PUSH1 0x9 SLOAD PUSH1 0x1 PUSH1 0x1 PUSH1 0xA0 SHL SUB AND CALLER EQ PUSH2 0x21E3 JUMPI PUSH1 0x40 MLOAD PUSH3 0x461BCD PUSH1 0xE5 SHL DUP2 MSTORE PUSH1 0x4 ADD DUP1 DUP1 PUSH1 0x20 ADD DUP3 DUP2 SUB DUP3 MSTORE PUSH1 0x2B DUP2 MSTORE PUSH1 0x20 ADD DUP1 PUSH2 0x4BFE PUSH1 0x2B SWAP2 CODECOPY PUSH1 0x40 ADD SWAP2 POP POP PUSH1 0x40 MLOAD DUP1 SWAP2 SUB SWAP1 REVERT JUMPDEST PUSH2 0x320 PUSH1 0x10 SLOAD GT ISZERO PUSH2 0x223C JUMPI PUSH1 0x40 DUP1 MLOAD PUSH3 0x461BCD PUSH1 0xE5 SHL DUP2 MSTORE PUSH1 0x20 PUSH1 0x4 DUP3 ADD MSTORE PUSH1 0x19 PUSH1 0x24 DUP3 ADD MSTORE PUSH32 0x427661756C747353747261746567793A20746F6F206869676800000000000000 PUSH1 0x44 DUP3 ADD MSTORE SWAP1 MLOAD SWAP1 DUP2 SWAP1 SUB PUSH1 0x64 ADD SWAP1 REVERT JUMPDEST PUSH1 0x10 SSTORE JUMP JUMPDEST PUSH1 0x2 SLOAD PUSH1 0xFF AND ISZERO PUSH2 0x2299 JUMPI PUSH1 0x40 DUP1 MLOAD PUSH3 0x461BCD PUSH1 0xE5 SHL DUP2 MSTORE PUSH1 0x20 PUSH1 0x4 DUP3 ADD MSTORE PUSH1 0x10 PUSH1 0x24 DUP3 ADD MSTORE PUSH32 0x5061757361626C653A2070617573656400000000000000000000000000000000 PUSH1 0x44 DUP3 ADD MSTORE SWAP1 MLOAD SWAP1 DUP2 SWAP1 SUB PUSH1 0x64 ADD SWAP1 REVERT JUMPDEST PUSH1 0x2 SLOAD PUSH3 0x10000 SWAP1 DIV PUSH1 0xFF AND PUSH2 0x22F6 JUMPI PUSH1 0x40 DUP1 MLOAD PUSH3 0x461BCD PUSH1 0xE5 SHL DUP2 MSTORE PUSH1 0x20 PUSH1 0x4 DUP3 ADD MSTORE PUSH1 0xB PUSH1 0x24 DUP3 ADD MSTORE PUSH32 0x2169734175746F436F6D70000000000000000000000000000000000000000000 PUSH1 0x44 DUP3 ADD MSTORE SWAP1 MLOAD SWAP1 DUP2 SWAP1 SUB PUSH1 0x64 ADD SWAP1 REVERT JUMPDEST PUSH1 0x2 SLOAD PUSH2 0x100 SWAP1 DIV PUSH1 0xFF AND ISZERO PUSH2 0x2353 JUMPI PUSH1 0x40 DUP1 MLOAD PUSH3 0x461BCD PUSH1 0xE5 SHL DUP2 MSTORE PUSH1 0x20 PUSH1 0x4 DUP3 ADD MSTORE PUSH1 0xD PUSH1 0x24 DUP3 ADD MSTORE PUSH32 0x697343414B455374616B696E6700000000000000000000000000000000000000 PUSH1 0x44 DUP3 ADD MSTORE SWAP1 MLOAD SWAP1 DUP2 SWAP1 SUB PUSH1 0x64 ADD SWAP1 REVERT JUMPDEST PUSH1 0x5 SLOAD PUSH1 0x40 DUP1 MLOAD PUSH4 0x70A08231 PUSH1 0xE0 SHL DUP2 MSTORE ADDRESS PUSH1 0x4 DUP3 ADD MSTORE SWAP1 MLOAD PUSH1 0x0 SWAP3 PUSH1 0x1 PUSH1 0x1 PUSH1 0xA0 SHL SUB AND SWAP2 PUSH4 0x70A08231 SWAP2 PUSH1 0x24 DUP1 DUP4 ADD SWAP3 PUSH1 0x20 SWAP3 SWAP2 SWAP1 DUP3 SWAP1 SUB ADD DUP2 DUP7 DUP1 EXTCODESIZE ISZERO DUP1 ISZERO PUSH2 0x239E JUMPI PUSH1 0x0 DUP1 REVERT JUMPDEST POP GAS STATICCALL ISZERO DUP1 ISZERO PUSH2 0x23B2 JUMPI RETURNDATASIZE PUSH1 0x0 DUP1 RETURNDATACOPY RETURNDATASIZE PUSH1 0x0 REVERT JUMPDEST POP POP POP POP PUSH1 0x40 MLOAD RETURNDATASIZE PUSH1 0x20 DUP2 LT ISZERO PUSH2 0x23C8 JUMPI PUSH1 0x0 DUP1 REVERT JUMPDEST POP MLOAD PUSH1 0x7 SLOAD PUSH1 0x5 SLOAD SWAP2 SWAP3 POP PUSH1 0x1 PUSH1 0x1 PUSH1 0xA0 SHL SUB SWAP2 DUP3 AND SWAP2 AND EQ DUP1 ISZERO SWAP1 PUSH2 0x23EE JUMPI POP PUSH1 0x0 DUP2 GT JUMPDEST ISZERO PUSH2 0x2556 JUMPI PUSH1 0x8 SLOAD PUSH1 0x5 SLOAD PUSH2 0x2410 SWAP2 PUSH1 0x1 PUSH1 0x1 PUSH1 0xA0 SHL SUB SWAP2 DUP3 AND SWAP2 AND DUP4 PUSH2 0x3E3F JUMP JUMPDEST PUSH1 0x8 SLOAD PUSH1 0x40 MLOAD PUSH32 0x5C11D79500000000000000000000000000000000000000000000000000000000 DUP2 MSTORE PUSH1 0x4 DUP2 ADD DUP4 DUP2 MSTORE PUSH1 0x0 PUSH1 0x24 DUP4 ADD DUP2 SWAP1 MSTORE ADDRESS PUSH1 0x64 DUP5 ADD DUP2 SWAP1 MSTORE PUSH1 0x3C TIMESTAMP ADD PUSH1 0x84 DUP6 ADD DUP2 SWAP1 MSTORE PUSH1 0xA0 PUSH1 0x44 DUP7 ADD SWAP1 DUP2 MSTORE PUSH1 0x1C DUP1 SLOAD PUSH1 0xA4 DUP9 ADD DUP2 SWAP1 MSTORE PUSH1 0x1 PUSH1 0x1 PUSH1 0xA0 SHL SUB SWAP1 SWAP9 AND SWAP8 PUSH4 0x5C11D795 SWAP8 DUP11 SWAP8 SWAP3 SWAP6 SWAP5 SWAP4 SWAP2 PUSH1 0xC4 SWAP1 SWAP2 ADD SWAP1 DUP7 SWAP1 DUP1 ISZERO PUSH2 0x24C6 JUMPI PUSH1 0x20 MUL DUP3 ADD SWAP2 SWAP1 PUSH1 0x0 MSTORE PUSH1 0x20 PUSH1 0x0 KECCAK256 SWAP1 JUMPDEST DUP2 SLOAD PUSH1 0x1 PUSH1 0x1 PUSH1 0xA0 SHL SUB AND DUP2 MSTORE PUSH1 0x1 SWAP1 SWAP2 ADD SWAP1 PUSH1 0x20 ADD DUP1 DUP4 GT PUSH2 0x24A8 JUMPI JUMPDEST POP POP SWAP7 POP POP POP POP POP POP POP PUSH1 0x0 PUSH1 0x40 MLOAD DUP1 DUP4 SUB DUP2 PUSH1 0x0 DUP8 DUP1 EXTCODESIZE ISZERO DUP1 ISZERO PUSH2 0x24EA JUMPI PUSH1 0x0 DUP1 REVERT JUMPDEST POP GAS CALL ISZERO DUP1 ISZERO PUSH2 0x24FE JUMPI RETURNDATASIZE PUSH1 0x0 DUP1 RETURNDATACOPY RETURNDATASIZE PUSH1 0x0 REVERT JUMPDEST POP POP PUSH1 0x5 SLOAD PUSH1 0x7 SLOAD PUSH1 0x40 DUP1 MLOAD PUSH1 0x1 PUSH1 0x1 PUSH1 0xA0 SHL SUB SWAP4 DUP5 AND DUP2 MSTORE SWAP2 SWAP1 SWAP3 AND PUSH1 0x20 DUP3 ADD MSTORE DUP1 DUP3 ADD DUP6 SWAP1 MSTORE SWAP1 MLOAD PUSH32 0x65DCF313A2A7FA900BDBEB87203F9AC8009224D4656965A6B8498B8B245E0E1C SWAP4 POP SWAP1 DUP2 SWAP1 SUB PUSH1 0x60 ADD SWAP2 POP LOG1 JUMPDEST PUSH1 0x6 SLOAD PUSH1 0x40 DUP1 MLOAD PUSH4 0x70A08231 PUSH1 0xE0 SHL DUP2 MSTORE ADDRESS PUSH1 0x4 DUP3 ADD MSTORE SWAP1 MLOAD PUSH1 0x0 SWAP3 PUSH1 0x1 PUSH1 0x1 PUSH1 0xA0 SHL SUB AND SWAP2 PUSH4 0x70A08231 SWAP2 PUSH1 0x24 DUP1 DUP4 ADD SWAP3 PUSH1 0x20 SWAP3 SWAP2 SWAP1 DUP3 SWAP1 SUB ADD DUP2 DUP7 DUP1 EXTCODESIZE ISZERO DUP1 ISZERO PUSH2 0x25A1 JUMPI PUSH1 0x0 DUP1 REVERT JUMPDEST POP GAS STATICCALL ISZERO DUP1 ISZERO PUSH2 0x25B5 JUMPI RETURNDATASIZE PUSH1 0x0 DUP1 RETURNDATACOPY RETURNDATASIZE PUSH1 0x0 REVERT JUMPDEST POP POP POP POP PUSH1 0x40 MLOAD RETURNDATASIZE PUSH1 0x20 DUP2 LT ISZERO PUSH2 0x25CB JUMPI PUSH1 0x0 DUP1 REVERT JUMPDEST POP MLOAD PUSH1 0x7 SLOAD PUSH1 0x6 SLOAD SWAP2 SWAP3 POP PUSH1 0x1 PUSH1 0x1 PUSH1 0xA0 SHL SUB SWAP2 DUP3 AND SWAP2 AND EQ DUP1 ISZERO SWAP1 PUSH2 0x25F1 JUMPI POP PUSH1 0x0 DUP2 GT JUMPDEST ISZERO PUSH2 0x109A JUMPI PUSH1 0x8 SLOAD PUSH1 0x6 SLOAD PUSH2 0x2613 SWAP2 PUSH1 0x1 PUSH1 0x1 PUSH1 0xA0 SHL SUB SWAP2 DUP3 AND SWAP2 AND DUP4 PUSH2 0x3E3F JUMP JUMPDEST PUSH1 0x8 SLOAD PUSH1 0x40 MLOAD PUSH32 0x5C11D79500000000000000000000000000000000000000000000000000000000 DUP2 MSTORE PUSH1 0x4 DUP2 ADD DUP4 DUP2 MSTORE PUSH1 0x0 PUSH1 0x24 DUP4 ADD DUP2 SWAP1 MSTORE ADDRESS PUSH1 0x64 DUP5 ADD DUP2 SWAP1 MSTORE PUSH1 0x3C TIMESTAMP ADD PUSH1 0x84 DUP6 ADD DUP2 SWAP1 MSTORE PUSH1 0xA0 PUSH1 0x44 DUP7 ADD SWAP1 DUP2 MSTORE PUSH1 0x1D DUP1 SLOAD PUSH1 0xA4 DUP9 ADD DUP2 SWAP1 MSTORE PUSH1 0x1 PUSH1 0x1 PUSH1 0xA0 SHL SUB SWAP1 SWAP9 AND SWAP8 PUSH4 0x5C11D795 SWAP8 DUP11 SWAP8 SWAP3 SWAP6 SWAP5 SWAP4 SWAP2 PUSH1 0xC4 SWAP1 SWAP2 ADD SWAP1 DUP7 SWAP1 DUP1 ISZERO PUSH2 0x26C9 JUMPI PUSH1 0x20 MUL DUP3 ADD SWAP2 SWAP1 PUSH1 0x0 MSTORE PUSH1 0x20 PUSH1 0x0 KECCAK256 SWAP1 JUMPDEST DUP2 SLOAD PUSH1 0x1 PUSH1 0x1 PUSH1 0xA0 SHL SUB AND DUP2 MSTORE PUSH1 0x1 SWAP1 SWAP2 ADD SWAP1 PUSH1 0x20 ADD DUP1 DUP4 GT PUSH2 0x26AB JUMPI JUMPDEST POP POP SWAP7 POP POP POP POP POP POP POP PUSH1 0x0 PUSH1 0x40 MLOAD DUP1 DUP4 SUB DUP2 PUSH1 0x0 DUP8 DUP1 EXTCODESIZE ISZERO DUP1 ISZERO PUSH2 0x26ED JUMPI PUSH1 0x0 DUP1 REVERT JUMPDEST POP GAS CALL ISZERO DUP1 ISZERO PUSH2 0x2701 JUMPI RETURNDATASIZE PUSH1 0x0 DUP1 RETURNDATACOPY RETURNDATASIZE PUSH1 0x0 REVERT JUMPDEST POP POP PUSH1 0x6 SLOAD PUSH1 0x7 SLOAD PUSH1 0x40 DUP1 MLOAD PUSH1 0x1 PUSH1 0x1 PUSH1 0xA0 SHL SUB SWAP4 DUP5 AND DUP2 MSTORE SWAP2 SWAP1 SWAP3 AND PUSH1 0x20 DUP3 ADD MSTORE DUP1 DUP3 ADD DUP6 SWAP1 MSTORE SWAP1 MLOAD PUSH32 0x65DCF313A2A7FA900BDBEB87203F9AC8009224D4656965A6B8498B8B245E0E1C SWAP4 POP SWAP1 DUP2 SWAP1 SUB PUSH1 0x60 ADD SWAP2 POP LOG1 POP POP JUMP JUMPDEST PUSH2 0x26DE DUP2 JUMP JUMPDEST PUSH1 0x9 SLOAD PUSH1 0x1 PUSH1 0x1 PUSH1 0xA0 SHL SUB AND CALLER EQ PUSH2 0x27AB JUMPI PUSH1 0x40 MLOAD PUSH3 0x461BCD PUSH1 0xE5 SHL DUP2 MSTORE PUSH1 0x4 ADD DUP1 DUP1 PUSH1 0x20 ADD DUP3 DUP2 SUB DUP3 MSTORE PUSH1 0x2B DUP2 MSTORE PUSH1 0x20 ADD DUP1 PUSH2 0x4BFE PUSH1 0x2B SWAP2 CODECOPY PUSH1 0x40 ADD SWAP2 POP POP PUSH1 0x40 MLOAD DUP1 SWAP2 SUB SWAP1 REVERT JUMPDEST PUSH1 0x12 SLOAD PUSH1 0x1 PUSH1 0x1 PUSH1 0xA0 SHL SUB AND PUSH2 0x280A JUMPI PUSH1 0x40 DUP1 MLOAD PUSH3 0x461BCD PUSH1 0xE5 SHL DUP2 MSTORE PUSH1 0x20 PUSH1 0x4 DUP1 DUP4 ADD SWAP2 SWAP1 SWAP2 MSTORE PUSH1 0x24 DUP3 ADD MSTORE PUSH32 0x7A65726F00000000000000000000000000000000000000000000000000000000 PUSH1 0x44 DUP3 ADD MSTORE SWAP1 MLOAD SWAP1 DUP2 SWAP1 SUB PUSH1 0x64 ADD SWAP1 REVERT JUMPDEST PUSH1 0x12 DUP1 SLOAD PUSH32 0xFFFFFFFFFFFFFFFFFFFFFFFF0000000000000000000000000000000000000000 AND PUSH1 0x1 PUSH1 0x1 PUSH1 0xA0 SHL SUB SWAP3 SWAP1 SWAP3 AND SWAP2 SWAP1 SWAP2 OR SWAP1 SSTORE JUMP JUMPDEST PUSH1 0x9 SLOAD PUSH1 0x1 PUSH1 0x1 PUSH1 0xA0 SHL SUB AND CALLER EQ PUSH2 0x288D JUMPI PUSH1 0x40 MLOAD PUSH3 0x461BCD PUSH1 0xE5 SHL DUP2 MSTORE PUSH1 0x4 ADD DUP1 DUP1 PUSH1 0x20 ADD DUP3 DUP2 SUB DUP3 MSTORE PUSH1 0x2B DUP2 MSTORE PUSH1 0x20 ADD DUP1 PUSH2 0x4BFE PUSH1 0x2B SWAP2 CODECOPY PUSH1 0x40 ADD SWAP2 POP POP PUSH1 0x40 MLOAD DUP1 SWAP2 SUB SWAP1 REVERT JUMPDEST PUSH1 0xA DUP1 SLOAD PUSH32 0xFFFFFFFFFFFFFFFFFFFFFFFF0000000000000000000000000000000000000000 AND PUSH1 0x1 PUSH1 0x1 PUSH1 0xA0 SHL SUB SWAP3 SWAP1 SWAP3 AND SWAP2 SWAP1 SWAP2 OR SWAP1 SSTORE JUMP JUMPDEST PUSH1 0x1A DUP2 DUP2 SLOAD DUP2 LT PUSH2 0x1024 JUMPI INVALID JUMPDEST PUSH1 0x11 SLOAD PUSH1 0x1 PUSH1 0x1 PUSH1 0xA0 SHL SUB AND DUP2 JUMP JUMPDEST PUSH1 0x9 SLOAD PUSH1 0x1 PUSH1 0x1 PUSH1 0xA0 SHL SUB AND CALLER EQ PUSH2 0x292C JUMPI PUSH1 0x40 MLOAD PUSH3 0x461BCD PUSH1 0xE5 SHL DUP2 MSTORE PUSH1 0x4 ADD DUP1 DUP1 PUSH1 0x20 ADD DUP3 DUP2 SUB DUP3 MSTORE PUSH1 0x2B DUP2 MSTORE PUSH1 0x20 ADD DUP1 PUSH2 0x4BFE PUSH1 0x2B SWAP2 CODECOPY PUSH1 0x40 ADD SWAP2 POP POP PUSH1 0x40 MLOAD DUP1 SWAP2 SUB SWAP1 REVERT JUMPDEST DUP1 MLOAD PUSH2 0x109A SWAP1 PUSH1 0x1B SWAP1 PUSH1 0x20 DUP5 ADD SWAP1 PUSH2 0x4ABE JUMP JUMPDEST PUSH1 0xB SLOAD PUSH1 0x1 PUSH1 0x1 PUSH1 0xA0 SHL SUB AND DUP2 JUMP JUMPDEST PUSH1 0x2 SLOAD PUSH1 0xFF AND ISZERO PUSH2 0x29A6 JUMPI PUSH1 0x40 DUP1 MLOAD PUSH3 0x461BCD PUSH1 0xE5 SHL DUP2 MSTORE PUSH1 0x20 PUSH1 0x4 DUP3 ADD MSTORE PUSH1 0x10 PUSH1 0x24 DUP3 ADD MSTORE PUSH32 0x5061757361626C653A2070617573656400000000000000000000000000000000 PUSH1 0x44 DUP3 ADD MSTORE SWAP1 MLOAD SWAP1 DUP2 SWAP1 SUB PUSH1 0x64 ADD SWAP1 REVERT JUMPDEST PUSH1 0x2 SLOAD PUSH3 0x10000 SWAP1 DIV PUSH1 0xFF AND PUSH2 0x2A03 JUMPI PUSH1 0x40 DUP1 MLOAD PUSH3 0x461BCD PUSH1 0xE5 SHL DUP2 MSTORE PUSH1 0x20 PUSH1 0x4 DUP3 ADD MSTORE PUSH1 0x1C PUSH1 0x24 DUP3 ADD MSTORE PUSH32 0x427661756C747353747261746567793A202169734175746F436F6D7000000000 PUSH1 0x44 DUP3 ADD MSTORE SWAP1 MLOAD SWAP1 DUP2 SWAP1 SUB PUSH1 0x64 ADD SWAP1 REVERT JUMPDEST PUSH1 0xB SLOAD PUSH21 0x10000000000000000000000000000000000000000 SWAP1 DIV PUSH1 0xFF AND ISZERO DUP1 PUSH2 0x2A31 JUMPI POP PUSH2 0x2A31 CALLER PUSH2 0x1802 JUMP JUMPDEST PUSH2 0x2A82 JUMPI PUSH1 0x40 DUP1 MLOAD PUSH3 0x461BCD PUSH1 0xE5 SHL DUP2 MSTORE PUSH1 0x20 PUSH1 0x4 DUP3 ADD MSTORE PUSH1 0x1C PUSH1 0x24 DUP3 ADD MSTORE PUSH32 0x427661756C747353747261746567793A2021617574686F726973656400000000 PUSH1 0x44 DUP3 ADD MSTORE SWAP1 MLOAD SWAP1 DUP2 SWAP1 SUB PUSH1 0x64 ADD SWAP1 REVERT JUMPDEST PUSH1 0x2 SLOAD PUSH2 0x100 SWAP1 DIV PUSH1 0xFF AND ISZERO PUSH2 0x2B0B JUMPI PUSH1 0x2 PUSH1 0x3 SWAP1 SLOAD SWAP1 PUSH2 0x100 EXP SWAP1 DIV PUSH1 0x1 PUSH1 0x1 PUSH1 0xA0 SHL SUB AND PUSH1 0x1 PUSH1 0x1 PUSH1 0xA0 SHL SUB AND PUSH4 0x1058D281 PUSH1 0x0 PUSH1 0x40 MLOAD DUP3 PUSH4 0xFFFFFFFF AND PUSH1 0xE0 SHL DUP2 MSTORE PUSH1 0x4 ADD DUP1 DUP3 DUP2 MSTORE PUSH1 0x20 ADD SWAP2 POP POP PUSH1 0x0 PUSH1 0x40 MLOAD DUP1 DUP4 SUB DUP2 PUSH1 0x0 DUP8 DUP1 EXTCODESIZE ISZERO DUP1 ISZERO PUSH2 0x2AEE JUMPI PUSH1 0x0 DUP1 REVERT JUMPDEST POP GAS CALL ISZERO DUP1 ISZERO PUSH2 0x2B02 JUMPI RETURNDATASIZE PUSH1 0x0 DUP1 RETURNDATACOPY RETURNDATASIZE PUSH1 0x0 REVERT JUMPDEST POP POP POP POP PUSH2 0x2B8A JUMP JUMPDEST PUSH1 0x2 PUSH1 0x3 SWAP1 SLOAD SWAP1 PUSH2 0x100 EXP SWAP1 DIV PUSH1 0x1 PUSH1 0x1 PUSH1 0xA0 SHL SUB AND PUSH1 0x1 PUSH1 0x1 PUSH1 0xA0 SHL SUB AND PUSH4 0xE2BBB158 PUSH1 0x3 SLOAD PUSH1 0x0 PUSH1 0x40 MLOAD DUP4 PUSH4 0xFFFFFFFF AND PUSH1 0xE0 SHL DUP2 MSTORE PUSH1 0x4 ADD DUP1 DUP4 DUP2 MSTORE PUSH1 0x20 ADD DUP3 DUP2 MSTORE PUSH1 0x20 ADD SWAP3 POP POP POP PUSH1 0x0 PUSH1 0x40 MLOAD DUP1 DUP4 SUB DUP2 PUSH1 0x0 DUP8 DUP1 EXTCODESIZE ISZERO DUP1 ISZERO PUSH2 0x2B71 JUMPI PUSH1 0x0 DUP1 REVERT JUMPDEST POP GAS CALL ISZERO DUP1 ISZERO PUSH2 0x2B85 JUMPI RETURNDATASIZE PUSH1 0x0 DUP1 RETURNDATACOPY RETURNDATASIZE PUSH1 0x0 REVERT JUMPDEST POP POP POP POP JUMPDEST PUSH1 0x7 SLOAD PUSH1 0x40 DUP1 MLOAD PUSH4 0x70A08231 PUSH1 0xE0 SHL DUP2 MSTORE ADDRESS PUSH1 0x4 DUP3 ADD MSTORE SWAP1 MLOAD PUSH1 0x0 SWAP3 PUSH1 0x1 PUSH1 0x1 PUSH1 0xA0 SHL SUB AND SWAP2 PUSH4 0x70A08231 SWAP2 PUSH1 0x24 DUP1 DUP4 ADD SWAP3 PUSH1 0x20 SWAP3 SWAP2 SWAP1 DUP3 SWAP1 SUB ADD DUP2 DUP7 DUP1 EXTCODESIZE ISZERO DUP1 ISZERO PUSH2 0x2BD5 JUMPI PUSH1 0x0 DUP1 REVERT JUMPDEST POP GAS STATICCALL ISZERO DUP1 ISZERO PUSH2 0x2BE9 JUMPI RETURNDATASIZE PUSH1 0x0 DUP1 RETURNDATACOPY RETURNDATASIZE PUSH1 0x0 REVERT JUMPDEST POP POP POP POP PUSH1 0x40 MLOAD RETURNDATASIZE PUSH1 0x20 DUP2 LT ISZERO PUSH2 0x2BFF JUMPI PUSH1 0x0 DUP1 REVERT JUMPDEST POP MLOAD PUSH1 0x7 SLOAD PUSH1 0x40 DUP1 MLOAD PUSH1 0x1 PUSH1 0x1 PUSH1 0xA0 SHL SUB SWAP1 SWAP3 AND DUP3 MSTORE PUSH1 0x20 DUP3 ADD DUP4 SWAP1 MSTORE DUP1 MLOAD SWAP3 SWAP4 POP PUSH32 0x53FA1FC52294A40B4FF1A988765BD298C00CAA24D685CC3F767DCFDE254EF9A SWAP3 SWAP2 DUP3 SWAP1 SUB ADD SWAP1 LOG1 PUSH1 0x0 PUSH2 0x2C55 DUP3 PUSH2 0x3F26 JUMP JUMPDEST SWAP1 POP PUSH1 0x0 PUSH2 0x2C62 DUP4 PUSH2 0x3FC8 JUMP JUMPDEST SWAP1 POP PUSH1 0x0 PUSH2 0x2C6F DUP5 PUSH2 0x433C JUMP JUMPDEST SWAP1 POP PUSH2 0x2C87 DUP2 PUSH2 0x2C81 DUP5 DUP2 DUP9 DUP9 PUSH2 0x4734 JUMP JUMPDEST SWAP1 PUSH2 0x4734 JUMP JUMPDEST PUSH1 0x2 SLOAD SWAP1 SWAP5 POP PUSH2 0x100 SWAP1 DIV PUSH1 0xFF AND ISZERO PUSH2 0x2CAF JUMPI NUMBER PUSH1 0xC SSTORE PUSH2 0x2CA6 PUSH2 0x38C7 JUMP JUMPDEST POP POP POP POP PUSH2 0x15BB JUMP JUMPDEST PUSH1 0x8 SLOAD PUSH1 0x7 SLOAD PUSH2 0x2CCC SWAP2 PUSH1 0x1 PUSH1 0x1 PUSH1 0xA0 SHL SUB SWAP2 DUP3 AND SWAP2 AND DUP7 PUSH2 0x3E3F JUMP JUMPDEST PUSH1 0x5 SLOAD PUSH1 0x7 SLOAD PUSH1 0x1 PUSH1 0x1 PUSH1 0xA0 SHL SUB SWAP1 DUP2 AND SWAP2 AND EQ PUSH2 0x2DC5 JUMPI PUSH1 0x8 SLOAD PUSH1 0x1 PUSH1 0x1 PUSH1 0xA0 SHL SUB AND PUSH4 0x5C11D795 PUSH2 0x2D00 DUP7 PUSH1 0x2 PUSH2 0x3C72 JUMP JUMPDEST PUSH1 0x0 PUSH1 0x1A ADDRESS TIMESTAMP PUSH1 0x3C ADD PUSH1 0x40 MLOAD DUP7 PUSH4 0xFFFFFFFF AND PUSH1 0xE0 SHL DUP2 MSTORE PUSH1 0x4 ADD DUP1 DUP7 DUP2 MSTORE PUSH1 0x20 ADD DUP6 DUP2 MSTORE PUSH1 0x20 ADD DUP1 PUSH1 0x20 ADD DUP5 PUSH1 0x1 PUSH1 0x1 PUSH1 0xA0 SHL SUB AND DUP2 MSTORE PUSH1 0x20 ADD DUP4 DUP2 MSTORE PUSH1 0x20 ADD DUP3 DUP2 SUB DUP3 MSTORE DUP6 DUP2 DUP2 SLOAD DUP2 MSTORE PUSH1 0x20 ADD SWAP2 POP DUP1 SLOAD DUP1 ISZERO PUSH2 0x2D88 JUMPI PUSH1 0x20 MUL DUP3 ADD SWAP2 SWAP1 PUSH1 0x0 MSTORE PUSH1 0x20 PUSH1 0x0 KECCAK256 SWAP1 JUMPDEST DUP2 SLOAD PUSH1 0x1 PUSH1 0x1 PUSH1 0xA0 SHL SUB AND DUP2 MSTORE PUSH1 0x1 SWAP1 SWAP2 ADD SWAP1 PUSH1 0x20 ADD DUP1 DUP4 GT PUSH2 0x2D6A JUMPI JUMPDEST POP POP SWAP7 POP POP POP POP POP POP POP PUSH1 0x0 PUSH1 0x40 MLOAD DUP1 DUP4 SUB DUP2 PUSH1 0x0 DUP8 DUP1 EXTCODESIZE ISZERO DUP1 ISZERO PUSH2 0x2DAC JUMPI PUSH1 0x0 DUP1 REVERT JUMPDEST POP GAS CALL ISZERO DUP1 ISZERO PUSH2 0x2DC0 JUMPI RETURNDATASIZE PUSH1 0x0 DUP1 RETURNDATACOPY RETURNDATASIZE PUSH1 0x0 REVERT JUMPDEST POP POP POP POP JUMPDEST PUSH1 0x6 SLOAD PUSH1 0x7 SLOAD PUSH1 0x1 PUSH1 0x1 PUSH1 0xA0 SHL SUB SWAP1 DUP2 AND SWAP2 AND EQ PUSH2 0x2EBE JUMPI PUSH1 0x8 SLOAD PUSH1 0x1 PUSH1 0x1 PUSH1 0xA0 SHL SUB AND PUSH4 0x5C11D795 PUSH2 0x2DF9 DUP7 PUSH1 0x2 PUSH2 0x3C72 JUMP JUMPDEST PUSH1 0x0 PUSH1 0x1B ADDRESS TIMESTAMP PUSH1 0x3C ADD PUSH1 0x40 MLOAD DUP7 PUSH4 0xFFFFFFFF AND PUSH1 0xE0 SHL DUP2 MSTORE PUSH1 0x4 ADD DUP1 DUP7 DUP2 MSTORE PUSH1 0x20 ADD DUP6 DUP2 MSTORE PUSH1 0x20 ADD DUP1 PUSH1 0x20 ADD DUP5 PUSH1 0x1 PUSH1 0x1 PUSH1 0xA0 SHL SUB AND DUP2 MSTORE PUSH1 0x20 ADD DUP4 DUP2 MSTORE PUSH1 0x20 ADD DUP3 DUP2 SUB DUP3 MSTORE DUP6 DUP2 DUP2 SLOAD DUP2 MSTORE PUSH1 0x20 ADD SWAP2 POP DUP1 SLOAD DUP1 ISZERO PUSH2 0x2E81 JUMPI PUSH1 0x20 MUL DUP3 ADD SWAP2 SWAP1 PUSH1 0x0 MSTORE PUSH1 0x20 PUSH1 0x0 KECCAK256 SWAP1 JUMPDEST DUP2 SLOAD PUSH1 0x1 PUSH1 0x1 PUSH1 0xA0 SHL SUB AND DUP2 MSTORE PUSH1 0x1 SWAP1 SWAP2 ADD SWAP1 PUSH1 0x20 ADD DUP1 DUP4 GT PUSH2 0x2E63 JUMPI JUMPDEST POP POP SWAP7 POP POP POP POP POP POP POP PUSH1 0x0 PUSH1 0x40 MLOAD DUP1 DUP4 SUB DUP2 PUSH1 0x0 DUP8 DUP1 EXTCODESIZE ISZERO DUP1 ISZERO PUSH2 0x2EA5 JUMPI PUSH1 0x0 DUP1 REVERT JUMPDEST POP GAS CALL ISZERO DUP1 ISZERO PUSH2 0x2EB9 JUMPI RETURNDATASIZE PUSH1 0x0 DUP1 RETURNDATACOPY RETURNDATASIZE PUSH1 0x0 REVERT JUMPDEST POP POP POP POP JUMPDEST PUSH1 0x5 SLOAD PUSH1 0x40 DUP1 MLOAD PUSH4 0x70A08231 PUSH1 0xE0 SHL DUP2 MSTORE ADDRESS PUSH1 0x4 DUP3 ADD MSTORE SWAP1 MLOAD PUSH1 0x0 SWAP3 PUSH1 0x1 PUSH1 0x1 PUSH1 0xA0 SHL SUB AND SWAP2 PUSH4 0x70A08231 SWAP2 PUSH1 0x24 DUP1 DUP4 ADD SWAP3 PUSH1 0x20 SWAP3 SWAP2 SWAP1 DUP3 SWAP1 SUB ADD DUP2 DUP7 DUP1 EXTCODESIZE ISZERO DUP1 ISZERO PUSH2 0x2F09 JUMPI PUSH1 0x0 DUP1 REVERT JUMPDEST POP GAS STATICCALL ISZERO DUP1 ISZERO PUSH2 0x2F1D JUMPI RETURNDATASIZE PUSH1 0x0 DUP1 RETURNDATACOPY RETURNDATASIZE PUSH1 0x0 REVERT JUMPDEST POP POP POP POP PUSH1 0x40 MLOAD RETURNDATASIZE PUSH1 0x20 DUP2 LT ISZERO PUSH2 0x2F33 JUMPI PUSH1 0x0 DUP1 REVERT JUMPDEST POP MLOAD PUSH1 0x6 SLOAD PUSH1 0x40 DUP1 MLOAD PUSH4 0x70A08231 PUSH1 0xE0 SHL DUP2 MSTORE ADDRESS PUSH1 0x4 DUP3 ADD MSTORE SWAP1 MLOAD SWAP3 SWAP4 POP PUSH1 0x0 SWAP3 PUSH1 0x1 PUSH1 0x1 PUSH1 0xA0 SHL SUB SWAP1 SWAP3 AND SWAP2 PUSH4 0x70A08231 SWAP2 PUSH1 0x24 DUP1 DUP3 ADD SWAP3 PUSH1 0x20 SWAP3 SWAP1 SWAP2 SWAP1 DUP3 SWAP1 SUB ADD DUP2 DUP7 DUP1 EXTCODESIZE ISZERO DUP1 ISZERO PUSH2 0x2F86 JUMPI PUSH1 0x0 DUP1 REVERT JUMPDEST POP GAS STATICCALL ISZERO DUP1 ISZERO PUSH2 0x2F9A JUMPI RETURNDATASIZE PUSH1 0x0 DUP1 RETURNDATACOPY RETURNDATASIZE PUSH1 0x0 REVERT JUMPDEST POP POP POP POP PUSH1 0x40 MLOAD RETURNDATASIZE PUSH1 0x20 DUP2 LT ISZERO PUSH2 0x2FB0 JUMPI PUSH1 0x0 DUP1 REVERT JUMPDEST POP MLOAD SWAP1 POP DUP2 ISZERO DUP1 ISZERO SWAP1 PUSH2 0x2FC3 JUMPI POP PUSH1 0x0 DUP2 GT JUMPDEST ISZERO PUSH2 0x312D JUMPI PUSH1 0x8 SLOAD PUSH1 0x5 SLOAD PUSH2 0x2FE5 SWAP2 PUSH1 0x1 PUSH1 0x1 PUSH1 0xA0 SHL SUB SWAP2 DUP3 AND SWAP2 AND DUP5 PUSH2 0x3E3F JUMP JUMPDEST PUSH1 0x8 SLOAD PUSH1 0x6 SLOAD PUSH2 0x3002 SWAP2 PUSH1 0x1 PUSH1 0x1 PUSH1 0xA0 SHL SUB SWAP2 DUP3 AND SWAP2 AND DUP4 PUSH2 0x3E3F JUMP JUMPDEST PUSH1 0x8 SLOAD PUSH1 0x5 SLOAD PUSH1 0x6 SLOAD PUSH1 0x40 DUP1 MLOAD PUSH32 0xE8E3370000000000000000000000000000000000000000000000000000000000 DUP2 MSTORE PUSH1 0x1 PUSH1 0x1 PUSH1 0xA0 SHL SUB SWAP4 DUP5 AND PUSH1 0x4 DUP3 ADD MSTORE SWAP2 DUP4 AND PUSH1 0x24 DUP4 ADD MSTORE PUSH1 0x44 DUP3 ADD DUP7 SWAP1 MSTORE PUSH1 0x64 DUP3 ADD DUP6 SWAP1 MSTORE PUSH1 0x0 PUSH1 0x84 DUP4 ADD DUP2 SWAP1 MSTORE PUSH1 0xA4 DUP4 ADD DUP2 SWAP1 MSTORE ADDRESS PUSH1 0xC4 DUP5 ADD MSTORE PUSH1 0x3C TIMESTAMP ADD PUSH1 0xE4 DUP5 ADD MSTORE SWAP1 MLOAD SWAP3 SWAP1 SWAP4 AND SWAP3 PUSH4 0xE8E33700 SWAP3 PUSH2 0x104 DUP1 DUP5 ADD SWAP4 PUSH1 0x60 SWAP4 SWAP1 DUP4 SWAP1 SUB SWAP1 SWAP2 ADD SWAP1 DUP3 SWAP1 DUP8 DUP1 EXTCODESIZE ISZERO DUP1 ISZERO PUSH2 0x30A7 JUMPI PUSH1 0x0 DUP1 REVERT JUMPDEST POP GAS CALL ISZERO DUP1 ISZERO PUSH2 0x30BB JUMPI RETURNDATASIZE PUSH1 0x0 DUP1 RETURNDATACOPY RETURNDATASIZE PUSH1 0x0 REVERT JUMPDEST POP POP POP POP PUSH1 0x40 MLOAD RETURNDATASIZE PUSH1 0x60 DUP2 LT ISZERO PUSH2 0x30D1 JUMPI PUSH1 0x0 DUP1 REVERT JUMPDEST POP POP PUSH1 0x5 SLOAD PUSH1 0x6 SLOAD PUSH1 0x40 DUP1 MLOAD PUSH1 0x1 PUSH1 0x1 PUSH1 0xA0 SHL SUB SWAP4 DUP5 AND DUP2 MSTORE PUSH1 0x20 DUP2 ADD DUP7 SWAP1 MSTORE SWAP2 SWAP1 SWAP3 AND DUP2 DUP4 ADD MSTORE PUSH1 0x60 DUP2 ADD DUP4 SWAP1 MSTORE SWAP1 MLOAD PUSH32 0x44552DA03F807ACE3E5F27E98E694712DFE668C743514B28D4D9F5AB70574B0F SWAP2 DUP2 SWAP1 SUB PUSH1 0x80 ADD SWAP1 LOG1 JUMPDEST NUMBER PUSH1 0xC SSTORE PUSH2 0x3139 PUSH2 0x38C7 JUMP JUMPDEST POP POP POP POP POP POP JUMP JUMPDEST PUSH1 0x6 SLOAD PUSH1 0x1 PUSH1 0x1 PUSH1 0xA0 SHL SUB AND DUP2 JUMP JUMPDEST PUSH1 0xB SLOAD PUSH21 0x10000000000000000000000000000000000000000 SWAP1 DIV PUSH1 0xFF AND DUP2 JUMP JUMPDEST PUSH1 0x7 SLOAD PUSH1 0x40 DUP1 MLOAD PUSH4 0x70A08231 PUSH1 0xE0 SHL DUP2 MSTORE ADDRESS PUSH1 0x4 DUP3 ADD MSTORE SWAP1 MLOAD PUSH1 0x0 SWAP3 DUP4 SWAP3 PUSH1 0x1 PUSH1 0x1 PUSH1 0xA0 SHL SUB SWAP1 SWAP2 AND SWAP2 PUSH4 0x70A08231 SWAP2 PUSH1 0x24 DUP1 DUP3 ADD SWAP3 PUSH1 0x20 SWAP3 SWAP1 SWAP2 SWAP1 DUP3 SWAP1 SUB ADD DUP2 DUP7 DUP1 EXTCODESIZE ISZERO DUP1 ISZERO PUSH2 0x31C1 JUMPI PUSH1 0x0 DUP1 REVERT JUMPDEST POP GAS STATICCALL ISZERO DUP1 ISZERO PUSH2 0x31D5 JUMPI RETURNDATASIZE PUSH1 0x0 DUP1 RETURNDATACOPY RETURNDATASIZE PUSH1 0x0 REVERT JUMPDEST POP POP POP POP PUSH1 0x40 MLOAD RETURNDATASIZE PUSH1 0x20 DUP2 LT ISZERO PUSH2 0x31EB JUMPI PUSH1 0x0 DUP1 REVERT JUMPDEST POP MLOAD PUSH1 0x2 SLOAD PUSH1 0x3 SLOAD PUSH1 0x40 DUP1 MLOAD PUSH32 0xD18DF53C00000000000000000000000000000000000000000000000000000000 DUP2 MSTORE PUSH1 0x4 DUP2 ADD SWAP3 SWAP1 SWAP3 MSTORE ADDRESS PUSH1 0x24 DUP4 ADD MSTORE MLOAD SWAP3 SWAP4 POP PUSH2 0x1E59 SWAP3 DUP5 SWAP3 PUSH4 0x1000000 SWAP1 DIV PUSH1 0x1 PUSH1 0x1 PUSH1 0xA0 SHL SUB AND SWAP2 PUSH4 0xD18DF53C SWAP2 PUSH1 0x44 DUP1 DUP4 ADD SWAP3 PUSH1 0x20 SWAP3 SWAP2 SWAP1 DUP3 SWAP1 SUB ADD DUP2 DUP7 DUP1 EXTCODESIZE ISZERO DUP1 ISZERO PUSH2 0x3268 JUMPI PUSH1 0x0 DUP1 REVERT JUMPDEST POP GAS STATICCALL ISZERO DUP1 ISZERO PUSH2 0x327C JUMPI RETURNDATASIZE PUSH1 0x0 DUP1 RETURNDATACOPY RETURNDATASIZE PUSH1 0x0 REVERT JUMPDEST POP POP POP POP PUSH1 0x40 MLOAD RETURNDATASIZE PUSH1 0x20 DUP2 LT ISZERO PUSH2 0x3292 JUMPI PUSH1 0x0 DUP1 REVERT JUMPDEST POP MLOAD SWAP1 PUSH2 0x3CB4 JUMP JUMPDEST PUSH1 0x10 SLOAD DUP2 JUMP JUMPDEST PUSH1 0x13 SLOAD DUP2 JUMP JUMPDEST PUSH1 0x2 SLOAD PUSH3 0x10000 SWAP1 DIV PUSH1 0xFF AND DUP2 JUMP JUMPDEST PUSH1 0x7 SLOAD PUSH1 0x1 PUSH1 0x1 PUSH1 0xA0 SHL SUB AND DUP2 JUMP JUMPDEST PUSH1 0x4 SLOAD PUSH1 0x1 PUSH1 0x1 PUSH1 0xA0 SHL SUB AND DUP2 JUMP JUMPDEST PUSH1 0x9 SLOAD PUSH1 0x1 PUSH1 0x1 PUSH1 0xA0 SHL SUB AND CALLER EQ PUSH2 0x331C JUMPI PUSH1 0x40 MLOAD PUSH3 0x461BCD PUSH1 0xE5 SHL DUP2 MSTORE PUSH1 0x4 ADD DUP1 DUP1 PUSH1 0x20 ADD DUP3 DUP2 SUB DUP3 MSTORE PUSH1 0x2B DUP2 MSTORE PUSH1 0x20 ADD DUP1 PUSH2 0x4BFE PUSH1 0x2B SWAP2 CODECOPY PUSH1 0x40 ADD SWAP2 POP POP PUSH1 0x40 MLOAD DUP1 SWAP2 SUB SWAP1 REVERT JUMPDEST DUP1 MLOAD PUSH2 0x109A SWAP1 PUSH1 0x18 SWAP1 PUSH1 0x20 DUP5 ADD SWAP1 PUSH2 0x4ABE JUMP JUMPDEST PUSH1 0x3 SLOAD DUP2 JUMP JUMPDEST PUSH2 0x333D PUSH2 0x3B80 JUMP JUMPDEST PUSH1 0x0 SLOAD PUSH1 0x1 PUSH1 0x1 PUSH1 0xA0 SHL SUB SWAP1 DUP2 AND SWAP2 AND EQ PUSH2 0x339F JUMPI PUSH1 0x40 DUP1 MLOAD PUSH3 0x461BCD PUSH1 0xE5 SHL DUP2 MSTORE PUSH1 0x20 PUSH1 0x4 DUP3 ADD DUP2 SWAP1 MSTORE PUSH1 0x24 DUP3 ADD MSTORE PUSH32 0x4F776E61626C653A2063616C6C6572206973206E6F7420746865206F776E6572 PUSH1 0x44 DUP3 ADD MSTORE SWAP1 MLOAD SWAP1 DUP2 SWAP1 SUB PUSH1 0x64 ADD SWAP1 REVERT JUMPDEST PUSH1 0x1 PUSH1 0x1 PUSH1 0xA0 SHL SUB DUP2 AND PUSH2 0x33E4 JUMPI PUSH1 0x40 MLOAD PUSH3 0x461BCD PUSH1 0xE5 SHL DUP2 MSTORE PUSH1 0x4 ADD DUP1 DUP1 PUSH1 0x20 ADD DUP3 DUP2 SUB DUP3 MSTORE PUSH1 0x26 DUP2 MSTORE PUSH1 0x20 ADD DUP1 PUSH2 0x4BD8 PUSH1 0x26 SWAP2 CODECOPY PUSH1 0x40 ADD SWAP2 POP POP PUSH1 0x40 MLOAD DUP1 SWAP2 SUB SWAP1 REVERT JUMPDEST PUSH1 0x0 DUP1 SLOAD PUSH1 0x40 MLOAD PUSH1 0x1 PUSH1 0x1 PUSH1 0xA0 SHL SUB DUP1 DUP6 AND SWAP4 SWAP3 AND SWAP2 PUSH32 0x8BE0079C531659141344CD1FD0A4F28419497F9722A3DAAFE3B4186F6B6457E0 SWAP2 LOG3 PUSH1 0x0 DUP1 SLOAD PUSH32 0xFFFFFFFFFFFFFFFFFFFFFFFF0000000000000000000000000000000000000000 AND PUSH1 0x1 PUSH1 0x1 PUSH1 0xA0 SHL SUB SWAP3 SWAP1 SWAP3 AND SWAP2 SWAP1 SWAP2 OR SWAP1 SSTORE JUMP JUMPDEST PUSH1 0x0 PUSH2 0x3461 PUSH2 0x3B80 JUMP JUMPDEST PUSH1 0x0 SLOAD PUSH1 0x1 PUSH1 0x1 PUSH1 0xA0 SHL SUB SWAP1 DUP2 AND SWAP2 AND EQ PUSH2 0x34C3 JUMPI PUSH1 0x40 DUP1 MLOAD PUSH3 0x461BCD PUSH1 0xE5 SHL DUP2 MSTORE PUSH1 0x20 PUSH1 0x4 DUP3 ADD DUP2 SWAP1 MSTORE PUSH1 0x24 DUP3 ADD MSTORE PUSH32 0x4F776E61626C653A2063616C6C6572206973206E6F7420746865206F776E6572 PUSH1 0x44 DUP3 ADD MSTORE SWAP1 MLOAD SWAP1 DUP2 SWAP1 SUB PUSH1 0x64 ADD SWAP1 REVERT JUMPDEST PUSH1 0x2 PUSH1 0x1 SLOAD EQ ISZERO PUSH2 0x351B JUMPI PUSH1 0x40 DUP1 MLOAD PUSH3 0x461BCD PUSH1 0xE5 SHL DUP2 MSTORE PUSH1 0x20 PUSH1 0x4 DUP3 ADD MSTORE PUSH1 0x1F PUSH1 0x24 DUP3 ADD MSTORE PUSH32 0x5265656E7472616E637947756172643A207265656E7472616E742063616C6C00 PUSH1 0x44 DUP3 ADD MSTORE SWAP1 MLOAD SWAP1 DUP2 SWAP1 SUB PUSH1 0x64 ADD SWAP1 REVERT JUMPDEST PUSH1 0x2 PUSH1 0x1 SSTORE DUP2 PUSH2 0x3572 JUMPI PUSH1 0x40 DUP1 MLOAD PUSH3 0x461BCD PUSH1 0xE5 SHL DUP2 MSTORE PUSH1 0x20 PUSH1 0x4 DUP3 ADD MSTORE PUSH1 0x1A PUSH1 0x24 DUP3 ADD MSTORE PUSH32 0x427661756C747353747261746567793A20215F77616E74416D74000000000000 PUSH1 0x44 DUP3 ADD MSTORE SWAP1 MLOAD SWAP1 DUP2 SWAP1 SUB PUSH1 0x64 ADD SWAP1 REVERT JUMPDEST PUSH1 0x2 SLOAD PUSH3 0x10000 SWAP1 DIV PUSH1 0xFF AND ISZERO PUSH2 0x3689 JUMPI PUSH1 0x2 SLOAD PUSH2 0x100 SWAP1 DIV PUSH1 0xFF AND ISZERO PUSH2 0x360B JUMPI PUSH1 0x2 PUSH1 0x3 SWAP1 SLOAD SWAP1 PUSH2 0x100 EXP SWAP1 DIV PUSH1 0x1 PUSH1 0x1 PUSH1 0xA0 SHL SUB AND PUSH1 0x1 PUSH1 0x1 PUSH1 0xA0 SHL SUB AND PUSH4 0x1058D281 DUP4 PUSH1 0x40 MLOAD DUP3 PUSH4 0xFFFFFFFF AND PUSH1 0xE0 SHL DUP2 MSTORE PUSH1 0x4 ADD DUP1 DUP3 DUP2 MSTORE PUSH1 0x20 ADD SWAP2 POP POP PUSH1 0x0 PUSH1 0x40 MLOAD DUP1 DUP4 SUB DUP2 PUSH1 0x0 DUP8 DUP1 EXTCODESIZE ISZERO DUP1 ISZERO PUSH2 0x35EE JUMPI PUSH1 0x0 DUP1 REVERT JUMPDEST POP GAS CALL ISZERO DUP1 ISZERO PUSH2 0x3602 JUMPI RETURNDATASIZE PUSH1 0x0 DUP1 RETURNDATACOPY RETURNDATASIZE PUSH1 0x0 REVERT JUMPDEST POP POP POP POP PUSH2 0x3689 JUMP JUMPDEST PUSH1 0x2 PUSH1 0x3 SWAP1 SLOAD SWAP1 PUSH2 0x100 EXP SWAP1 DIV PUSH1 0x1 PUSH1 0x1 PUSH1 0xA0 SHL SUB AND PUSH1 0x1 PUSH1 0x1 PUSH1 0xA0 SHL SUB AND PUSH4 0x441A3E70 PUSH1 0x3 SLOAD DUP5 PUSH1 0x40 MLOAD DUP4 PUSH4 0xFFFFFFFF AND PUSH1 0xE0 SHL DUP2 MSTORE PUSH1 0x4 ADD DUP1 DUP4 DUP2 MSTORE PUSH1 0x20 ADD DUP3 DUP2 MSTORE PUSH1 0x20 ADD SWAP3 POP POP POP PUSH1 0x0 PUSH1 0x40 MLOAD DUP1 DUP4 SUB DUP2 PUSH1 0x0 DUP8 DUP1 EXTCODESIZE ISZERO DUP1 ISZERO PUSH2 0x3670 JUMPI PUSH1 0x0 DUP1 REVERT JUMPDEST POP GAS CALL ISZERO DUP1 ISZERO PUSH2 0x3684 JUMPI RETURNDATASIZE PUSH1 0x0 DUP1 RETURNDATACOPY RETURNDATASIZE PUSH1 0x0 REVERT JUMPDEST POP POP POP POP JUMPDEST PUSH1 0x4 DUP1 SLOAD PUSH1 0x40 DUP1 MLOAD PUSH4 0x70A08231 PUSH1 0xE0 SHL DUP2 MSTORE ADDRESS SWAP4 DUP2 ADD SWAP4 SWAP1 SWAP4 MSTORE MLOAD PUSH1 0x0 SWAP3 PUSH1 0x1 PUSH1 0x1 PUSH1 0xA0 SHL SUB SWAP1 SWAP3 AND SWAP2 PUSH4 0x70A08231 SWAP2 PUSH1 0x24 DUP1 DUP4 ADD SWAP3 PUSH1 0x20 SWAP3 SWAP2 SWAP1 DUP3 SWAP1 SUB ADD DUP2 DUP7 DUP1 EXTCODESIZE ISZERO DUP1 ISZERO PUSH2 0x36D8 JUMPI PUSH1 0x0 DUP1 REVERT JUMPDEST POP GAS STATICCALL ISZERO DUP1 ISZERO PUSH2 0x36EC JUMPI RETURNDATASIZE PUSH1 0x0 DUP1 RETURNDATACOPY RETURNDATASIZE PUSH1 0x0 REVERT JUMPDEST POP POP POP POP PUSH1 0x40 MLOAD RETURNDATASIZE PUSH1 0x20 DUP2 LT ISZERO PUSH2 0x3702 JUMPI PUSH1 0x0 DUP1 REVERT JUMPDEST POP MLOAD SWAP1 POP DUP1 DUP4 GT ISZERO PUSH2 0x3712 JUMPI DUP1 SWAP3 POP JUMPDEST DUP3 PUSH1 0xD SLOAD LT ISZERO PUSH2 0x3722 JUMPI PUSH1 0xD SLOAD SWAP3 POP JUMPDEST PUSH1 0x0 PUSH2 0x373F PUSH1 0xD SLOAD PUSH2 0x176F PUSH1 0xE SLOAD DUP8 PUSH2 0x3C12 SWAP1 SWAP2 SWAP1 PUSH4 0xFFFFFFFF AND JUMP JUMPDEST SWAP1 POP PUSH1 0xE SLOAD DUP2 GT ISZERO PUSH2 0x3750 JUMPI POP PUSH1 0xE SLOAD JUMPDEST PUSH1 0xE SLOAD PUSH2 0x375D SWAP1 DUP3 PUSH2 0x4734 JUMP JUMPDEST PUSH1 0xE SSTORE PUSH1 0xD SLOAD PUSH2 0x376D SWAP1 DUP6 PUSH2 0x4734 JUMP JUMPDEST PUSH1 0xD SSTORE PUSH1 0x4 SLOAD PUSH2 0x3787 SWAP1 PUSH1 0x1 PUSH1 0x1 PUSH1 0xA0 SHL SUB AND CALLER DUP7 PUSH2 0x3D0E JUMP JUMPDEST PUSH1 0x40 DUP1 MLOAD DUP6 DUP2 MSTORE SWAP1 MLOAD PUSH32 0x5B6B431D4476A211BB7D41C20D1AAB9AE2321DEEE0D20BE3D9FC9B1093FA6E3D SWAP2 DUP2 SWAP1 SUB PUSH1 0x20 ADD SWAP1 LOG1 PUSH1 0x1 DUP1 SSTORE SWAP5 SWAP4 POP POP POP POP JUMP JUMPDEST PUSH1 0x9 SLOAD PUSH1 0x1 PUSH1 0x1 PUSH1 0xA0 SHL SUB AND CALLER EQ PUSH2 0x380F JUMPI PUSH1 0x40 MLOAD PUSH3 0x461BCD PUSH1 0xE5 SHL DUP2 MSTORE PUSH1 0x4 ADD DUP1 DUP1 PUSH1 0x20 ADD DUP3 DUP2 SUB DUP3 MSTORE PUSH1 0x2B DUP2 MSTORE PUSH1 0x20 ADD DUP1 PUSH2 0x4BFE PUSH1 0x2B SWAP2 CODECOPY PUSH1 0x40 ADD SWAP2 POP POP PUSH1 0x40 MLOAD DUP1 SWAP2 SUB SWAP1 REVERT JUMPDEST PUSH2 0x12C DUP2 GT ISZERO PUSH2 0x3866 JUMPI PUSH1 0x40 DUP1 MLOAD PUSH3 0x461BCD PUSH1 0xE5 SHL DUP2 MSTORE PUSH1 0x20 PUSH1 0x4 DUP3 ADD MSTORE PUSH1 0x19 PUSH1 0x24 DUP3 ADD MSTORE PUSH32 0x427661756C747353747261746567793A20746F6F206869676800000000000000 PUSH1 0x44 DUP3 ADD MSTORE SWAP1 MLOAD SWAP1 DUP2 SWAP1 SUB PUSH1 0x64 ADD SWAP1 REVERT JUMPDEST PUSH1 0xF SSTORE JUMP JUMPDEST PUSH1 0x9 SLOAD PUSH1 0x1 PUSH1 0x1 PUSH1 0xA0 SHL SUB AND CALLER EQ PUSH2 0x38B4 JUMPI PUSH1 0x40 MLOAD PUSH3 0x461BCD PUSH1 0xE5 SHL DUP2 MSTORE PUSH1 0x4 ADD DUP1 DUP1 PUSH1 0x20 ADD DUP3 DUP2 SUB DUP3 MSTORE PUSH1 0x2B DUP2 MSTORE PUSH1 0x20 ADD DUP1 PUSH2 0x4BFE PUSH1 0x2B SWAP2 CODECOPY PUSH1 0x40 ADD SWAP2 POP POP PUSH1 0x40 MLOAD DUP1 SWAP2 SUB SWAP1 REVERT JUMPDEST DUP1 MLOAD PUSH2 0x109A SWAP1 PUSH1 0x17 SWAP1 PUSH1 0x20 DUP5 ADD SWAP1 PUSH2 0x4ABE JUMP JUMPDEST PUSH1 0x4 DUP1 SLOAD PUSH1 0x40 DUP1 MLOAD PUSH4 0x70A08231 PUSH1 0xE0 SHL DUP2 MSTORE ADDRESS SWAP4 DUP2 ADD SWAP4 SWAP1 SWAP4 MSTORE MLOAD PUSH1 0x0 SWAP3 PUSH1 0x1 PUSH1 0x1 PUSH1 0xA0 SHL SUB SWAP1 SWAP3 AND SWAP2 PUSH4 0x70A08231 SWAP2 PUSH1 0x24 DUP1 DUP4 ADD SWAP3 PUSH1 0x20 SWAP3 SWAP2 SWAP1 DUP3 SWAP1 SUB ADD DUP2 DUP7 DUP1 EXTCODESIZE ISZERO DUP1 ISZERO PUSH2 0x3916 JUMPI PUSH1 0x0 DUP1 REVERT JUMPDEST POP GAS STATICCALL ISZERO DUP1 ISZERO PUSH2 0x392A JUMPI RETURNDATASIZE PUSH1 0x0 DUP1 RETURNDATACOPY RETURNDATASIZE PUSH1 0x0 REVERT JUMPDEST POP POP POP POP PUSH1 0x40 MLOAD RETURNDATASIZE PUSH1 0x20 DUP2 LT ISZERO PUSH2 0x3940 JUMPI PUSH1 0x0 DUP1 REVERT JUMPDEST POP MLOAD PUSH1 0xD SLOAD SWAP1 SWAP2 POP PUSH2 0x3952 SWAP1 DUP3 PUSH2 0x3CB4 JUMP JUMPDEST PUSH1 0xD SSTORE PUSH1 0x2 SLOAD PUSH1 0x4 SLOAD PUSH2 0x397A SWAP2 PUSH1 0x1 PUSH1 0x1 PUSH1 0xA0 SHL SUB SWAP2 DUP3 AND SWAP2 PUSH4 0x1000000 SWAP1 SWAP2 DIV AND DUP4 PUSH2 0x3E3F JUMP JUMPDEST PUSH1 0x2 SLOAD PUSH2 0x100 SWAP1 DIV PUSH1 0xFF AND ISZERO PUSH2 0x3A07 JUMPI PUSH1 0x2 PUSH1 0x3 SWAP1 SLOAD SWAP1 PUSH2 0x100 EXP SWAP1 DIV PUSH1 0x1 PUSH1 0x1 PUSH1 0xA0 SHL SUB AND PUSH1 0x1 PUSH1 0x1 PUSH1 0xA0 SHL SUB AND PUSH4 0x41441D3B DUP3 PUSH1 0x40 MLOAD DUP3 PUSH4 0xFFFFFFFF AND PUSH1 0xE0 SHL DUP2 MSTORE PUSH1 0x4 ADD DUP1 DUP3 DUP2 MSTORE PUSH1 0x20 ADD SWAP2 POP POP PUSH1 0x0 PUSH1 0x40 MLOAD DUP1 DUP4 SUB DUP2 PUSH1 0x0 DUP8 DUP1 EXTCODESIZE ISZERO DUP1 ISZERO PUSH2 0x39E5 JUMPI PUSH1 0x0 DUP1 REVERT JUMPDEST POP GAS CALL ISZERO DUP1 ISZERO PUSH2 0x39F9 JUMPI RETURNDATASIZE PUSH1 0x0 DUP1 RETURNDATACOPY RETURNDATASIZE PUSH1 0x0 REVERT JUMPDEST POP POP NUMBER PUSH1 0xC SSTORE POP PUSH2 0x3A85 SWAP1 POP JUMP JUMPDEST PUSH1 0x2 PUSH1 0x3 SWAP1 SLOAD SWAP1 PUSH2 0x100 EXP SWAP1 DIV PUSH1 0x1 PUSH1 0x1 PUSH1 0xA0 SHL SUB AND PUSH1 0x1 PUSH1 0x1 PUSH1 0xA0 SHL SUB AND PUSH4 0xE2BBB158 PUSH1 0x3 SLOAD DUP4 PUSH1 0x40 MLOAD DUP4 PUSH4 0xFFFFFFFF AND PUSH1 0xE0 SHL DUP2 MSTORE PUSH1 0x4 ADD DUP1 DUP4 DUP2 MSTORE PUSH1 0x20 ADD DUP3 DUP2 MSTORE PUSH1 0x20 ADD SWAP3 POP POP POP PUSH1 0x0 PUSH1 0x40 MLOAD DUP1 DUP4 SUB DUP2 PUSH1 0x0 DUP8 DUP1 EXTCODESIZE ISZERO DUP1 ISZERO PUSH2 0x3A6C JUMPI PUSH1 0x0 DUP1 REVERT JUMPDEST POP GAS CALL ISZERO DUP1 ISZERO PUSH2 0x3A80 JUMPI RETURNDATASIZE PUSH1 0x0 DUP1 RETURNDATACOPY RETURNDATASIZE PUSH1 0x0 REVERT JUMPDEST POP POP POP POP JUMPDEST PUSH1 0x40 DUP1 MLOAD DUP3 DUP2 MSTORE SWAP1 MLOAD PUSH32 0xC217459869EED80BFBE5C11E78AB58912EEDFD106342671821B6E96D1615DC7F SWAP2 DUP2 SWAP1 SUB PUSH1 0x20 ADD SWAP1 LOG1 POP JUMP JUMPDEST PUSH1 0x2 SLOAD PUSH1 0xFF AND PUSH2 0x3B12 JUMPI PUSH1 0x40 DUP1 MLOAD PUSH3 0x461BCD PUSH1 0xE5 SHL DUP2 MSTORE PUSH1 0x20 PUSH1 0x4 DUP3 ADD MSTORE PUSH1 0x14 PUSH1 0x24 DUP3 ADD MSTORE PUSH32 0x5061757361626C653A206E6F7420706175736564000000000000000000000000 PUSH1 0x44 DUP3 ADD MSTORE SWAP1 MLOAD SWAP1 DUP2 SWAP1 SUB PUSH1 0x64 ADD SWAP1 REVERT JUMPDEST PUSH1 0x2 DUP1 SLOAD PUSH32 0xFFFFFFFFFFFFFFFFFFFFFFFFFFFFFFFFFFFFFFFFFFFFFFFFFFFFFFFFFFFFFF00 AND SWAP1 SSTORE PUSH32 0x5DB9EE0A495BF2E6FF9C91A7834C1BA4FDD244A5E8AA4E537BD38AEAE4B073AA PUSH2 0x3B63 PUSH2 0x3B80 JUMP JUMPDEST PUSH1 0x40 DUP1 MLOAD PUSH1 0x1 PUSH1 0x1 PUSH1 0xA0 SHL SUB SWAP1 SWAP3 AND DUP3 MSTORE MLOAD SWAP1 DUP2 SWAP1 SUB PUSH1 0x20 ADD SWAP1 LOG1 JUMP JUMPDEST CALLER SWAP1 JUMP JUMPDEST PUSH1 0x40 DUP1 MLOAD PUSH1 0x1 PUSH1 0x1 PUSH1 0xA0 SHL SUB DUP1 DUP7 AND PUSH1 0x24 DUP4 ADD MSTORE DUP5 AND PUSH1 0x44 DUP3 ADD MSTORE PUSH1 0x64 DUP1 DUP3 ADD DUP5 SWAP1 MSTORE DUP3 MLOAD DUP1 DUP4 SUB SWAP1 SWAP2 ADD DUP2 MSTORE PUSH1 0x84 SWAP1 SWAP2 ADD SWAP1 SWAP2 MSTORE PUSH1 0x20 DUP2 ADD DUP1 MLOAD PUSH28 0xFFFFFFFFFFFFFFFFFFFFFFFFFFFFFFFFFFFFFFFFFFFFFFFFFFFFFFFF AND PUSH32 0x23B872DD00000000000000000000000000000000000000000000000000000000 OR SWAP1 MSTORE PUSH2 0x3C0C SWAP1 DUP6 SWAP1 PUSH2 0x4776 JUMP JUMPDEST POP POP POP POP JUMP JUMPDEST PUSH1 0x0 DUP3 PUSH2 0x3C21 JUMPI POP PUSH1 0x0 PUSH2 0x17ED JUMP JUMPDEST DUP3 DUP3 MUL DUP3 DUP5 DUP3 DUP2 PUSH2 0x3C2E JUMPI INVALID JUMPDEST DIV EQ PUSH2 0x3C6B JUMPI PUSH1 0x40 MLOAD PUSH3 0x461BCD PUSH1 0xE5 SHL DUP2 MSTORE PUSH1 0x4 ADD DUP1 DUP1 PUSH1 0x20 ADD DUP3 DUP2 SUB DUP3 MSTORE PUSH1 0x21 DUP2 MSTORE PUSH1 0x20 ADD DUP1 PUSH2 0x4C29 PUSH1 0x21 SWAP2 CODECOPY PUSH1 0x40 ADD SWAP2 POP POP PUSH1 0x40 MLOAD DUP1 SWAP2 SUB SWAP1 REVERT JUMPDEST SWAP4 SWAP3 POP POP POP JUMP JUMPDEST PUSH1 0x0 PUSH2 0x3C6B DUP4 DUP4 PUSH1 0x40 MLOAD DUP1 PUSH1 0x40 ADD PUSH1 0x40 MSTORE DUP1 PUSH1 0x1A DUP2 MSTORE PUSH1 0x20 ADD PUSH32 0x536166654D6174683A206469766973696F6E206279207A65726F000000000000 DUP2 MSTORE POP PUSH2 0x4827 JUMP JUMPDEST PUSH1 0x0 DUP3 DUP3 ADD DUP4 DUP2 LT ISZERO PUSH2 0x3C6B JUMPI PUSH1 0x40 DUP1 MLOAD PUSH3 0x461BCD PUSH1 0xE5 SHL DUP2 MSTORE PUSH1 0x20 PUSH1 0x4 DUP3 ADD MSTORE PUSH1 0x1B PUSH1 0x24 DUP3 ADD MSTORE PUSH32 0x536166654D6174683A206164646974696F6E206F766572666C6F770000000000 PUSH1 0x44 DUP3 ADD MSTORE SWAP1 MLOAD SWAP1 DUP2 SWAP1 SUB PUSH1 0x64 ADD SWAP1 REVERT JUMPDEST PUSH1 0x40 DUP1 MLOAD PUSH1 0x1 PUSH1 0x1 PUSH1 0xA0 SHL SUB DUP5 AND PUSH1 0x24 DUP3 ADD MSTORE PUSH1 0x44 DUP1 DUP3 ADD DUP5 SWAP1 MSTORE DUP3 MLOAD DUP1 DUP4 SUB SWAP1 SWAP2 ADD DUP2 MSTORE PUSH1 0x64 SWAP1 SWAP2 ADD SWAP1 SWAP2 MSTORE PUSH1 0x20 DUP2 ADD DUP1 MLOAD PUSH28 0xFFFFFFFFFFFFFFFFFFFFFFFFFFFFFFFFFFFFFFFFFFFFFFFFFFFFFFFF AND PUSH32 0xA9059CBB00000000000000000000000000000000000000000000000000000000 OR SWAP1 MSTORE PUSH2 0x3D8E SWAP1 DUP5 SWAP1 PUSH2 0x4776 JUMP JUMPDEST POP POP POP JUMP JUMPDEST PUSH1 0x2 SLOAD PUSH1 0xFF AND ISZERO PUSH2 0x3DEB JUMPI PUSH1 0x40 DUP1 MLOAD PUSH3 0x461BCD PUSH1 0xE5 SHL DUP2 MSTORE PUSH1 0x20 PUSH1 0x4 DUP3 ADD MSTORE PUSH1 0x10 PUSH1 0x24 DUP3 ADD MSTORE PUSH32 0x5061757361626C653A2070617573656400000000000000000000000000000000 PUSH1 0x44 DUP3 ADD MSTORE SWAP1 MLOAD SWAP1 DUP2 SWAP1 SUB PUSH1 0x64 ADD SWAP1 REVERT JUMPDEST PUSH1 0x2 DUP1 SLOAD PUSH32 0xFFFFFFFFFFFFFFFFFFFFFFFFFFFFFFFFFFFFFFFFFFFFFFFFFFFFFFFFFFFFFF00 AND PUSH1 0x1 OR SWAP1 SSTORE PUSH32 0x62E78CEA01BEE320CD4E420270B5EA74000D11B0C9F74754EBDBFC544B05A258 PUSH2 0x3B63 PUSH2 0x3B80 JUMP JUMPDEST PUSH1 0x0 PUSH2 0x3EA3 DUP3 DUP6 PUSH1 0x1 PUSH1 0x1 PUSH1 0xA0 SHL SUB AND PUSH4 0xDD62ED3E ADDRESS DUP8 PUSH1 0x40 MLOAD DUP4 PUSH4 0xFFFFFFFF AND PUSH1 0xE0 SHL DUP2 MSTORE PUSH1 0x4 ADD DUP1 DUP4 PUSH1 0x1 PUSH1 0x1 PUSH1 0xA0 SHL SUB AND DUP2 MSTORE PUSH1 0x20 ADD DUP3 PUSH1 0x1 PUSH1 0x1 PUSH1 0xA0 SHL SUB AND DUP2 MSTORE PUSH1 0x20 ADD SWAP3 POP POP POP PUSH1 0x20 PUSH1 0x40 MLOAD DUP1 DUP4 SUB DUP2 DUP7 DUP1 EXTCODESIZE ISZERO DUP1 ISZERO PUSH2 0x3268 JUMPI PUSH1 0x0 DUP1 REVERT JUMPDEST PUSH1 0x40 DUP1 MLOAD PUSH1 0x1 PUSH1 0x1 PUSH1 0xA0 SHL SUB DUP7 AND PUSH1 0x24 DUP3 ADD MSTORE PUSH1 0x44 DUP1 DUP3 ADD DUP5 SWAP1 MSTORE DUP3 MLOAD DUP1 DUP4 SUB SWAP1 SWAP2 ADD DUP2 MSTORE PUSH1 0x64 SWAP1 SWAP2 ADD SWAP1 SWAP2 MSTORE PUSH1 0x20 DUP2 ADD DUP1 MLOAD PUSH28 0xFFFFFFFFFFFFFFFFFFFFFFFFFFFFFFFFFFFFFFFFFFFFFFFFFFFFFFFF AND PUSH32 0x95EA7B300000000000000000000000000000000000000000000000000000000 OR SWAP1 MSTORE SWAP1 SWAP2 POP PUSH2 0x3C0C SWAP1 DUP6 SWAP1 PUSH2 0x4776 JUMP JUMPDEST PUSH1 0x0 DUP2 ISZERO PUSH2 0x1843 JUMPI PUSH1 0xF SLOAD ISZERO PUSH2 0x1843 JUMPI PUSH2 0x3F51 PUSH2 0x2710 PUSH2 0x176F PUSH1 0xF SLOAD DUP6 PUSH2 0x3C12 SWAP1 SWAP2 SWAP1 PUSH4 0xFFFFFFFF AND JUMP JUMPDEST PUSH1 0x9 SLOAD PUSH1 0x7 SLOAD SWAP2 SWAP3 POP PUSH2 0x3F71 SWAP2 PUSH1 0x1 PUSH1 0x1 PUSH1 0xA0 SHL SUB SWAP1 DUP2 AND SWAP2 AND DUP4 PUSH2 0x3D0E JUMP JUMPDEST PUSH1 0x7 SLOAD PUSH1 0x9 SLOAD PUSH1 0x40 DUP1 MLOAD PUSH1 0x1 PUSH1 0x1 PUSH1 0xA0 SHL SUB SWAP4 DUP5 AND DUP2 MSTORE PUSH1 0x20 DUP2 ADD DUP6 SWAP1 MSTORE SWAP2 SWAP1 SWAP3 AND DUP2 DUP4 ADD MSTORE SWAP1 MLOAD PUSH32 0x56E5430E11CFDFB90A183EC3BF63ED22ABE70CDF4E7BD3018D8B459BBD7F619 SWAP2 DUP2 SWAP1 SUB PUSH1 0x60 ADD SWAP1 LOG1 SWAP2 SWAP1 POP JUMP JUMPDEST PUSH1 0x10 SLOAD PUSH1 0x0 SWAP1 ISZERO DUP1 PUSH2 0x3FE3 JUMPI POP PUSH1 0x12 SLOAD PUSH1 0x1 PUSH1 0x1 PUSH1 0xA0 SHL SUB AND ISZERO JUMPDEST ISZERO PUSH2 0x3FF0 JUMPI POP PUSH1 0x0 PUSH2 0x1843 JUMP JUMPDEST PUSH1 0x0 PUSH2 0x400D PUSH2 0x2710 PUSH2 0x176F PUSH1 0x10 SLOAD DUP7 PUSH2 0x3C12 SWAP1 SWAP2 SWAP1 PUSH4 0xFFFFFFFF AND JUMP JUMPDEST PUSH1 0x17 SLOAD PUSH1 0x11 SLOAD PUSH1 0x12 SLOAD PUSH1 0x40 DUP1 MLOAD PUSH4 0x70A08231 PUSH1 0xE0 SHL DUP2 MSTORE PUSH1 0x1 PUSH1 0x1 PUSH1 0xA0 SHL SUB SWAP3 DUP4 AND PUSH1 0x4 DUP3 ADD MSTORE SWAP1 MLOAD SWAP5 SWAP6 POP SWAP3 SWAP4 PUSH1 0x0 SWAP4 SWAP2 SWAP1 SWAP3 AND SWAP2 PUSH4 0x70A08231 SWAP2 PUSH1 0x24 DUP1 DUP3 ADD SWAP3 PUSH1 0x20 SWAP3 SWAP1 SWAP2 SWAP1 DUP3 SWAP1 SUB ADD DUP2 DUP7 DUP1 EXTCODESIZE ISZERO DUP1 ISZERO PUSH2 0x4069 JUMPI PUSH1 0x0 DUP1 REVERT JUMPDEST POP GAS STATICCALL ISZERO DUP1 ISZERO PUSH2 0x407D JUMPI RETURNDATASIZE PUSH1 0x0 DUP1 RETURNDATACOPY RETURNDATASIZE PUSH1 0x0 REVERT JUMPDEST POP POP POP POP PUSH1 0x40 MLOAD RETURNDATASIZE PUSH1 0x20 DUP2 LT ISZERO PUSH2 0x4093 JUMPI PUSH1 0x0 DUP1 REVERT JUMPDEST POP MLOAD PUSH1 0x17 DUP1 SLOAD SWAP2 SWAP3 POP SWAP1 PUSH32 0xFFFFFFFFFFFFFFFFFFFFFFFFFFFFFFFFFFFFFFFFFFFFFFFFFFFFFFFFFFFFFFFF DUP5 ADD SWAP1 DUP2 LT PUSH2 0x40C9 JUMPI INVALID JUMPDEST PUSH1 0x0 SWAP2 DUP3 MSTORE PUSH1 0x20 DUP3 KECCAK256 ADD SLOAD PUSH1 0x17 DUP1 SLOAD PUSH1 0x1 PUSH1 0x1 PUSH1 0xA0 SHL SUB SWAP1 SWAP3 AND SWAP3 SWAP1 SWAP2 PUSH2 0x40EC JUMPI INVALID JUMPDEST PUSH1 0x0 SWAP2 DUP3 MSTORE PUSH1 0x20 SWAP1 SWAP2 KECCAK256 ADD SLOAD PUSH1 0x1 PUSH1 0x1 PUSH1 0xA0 SHL SUB AND EQ PUSH2 0x4220 JUMPI PUSH1 0x8 SLOAD PUSH1 0x7 SLOAD PUSH2 0x4123 SWAP2 PUSH1 0x1 PUSH1 0x1 PUSH1 0xA0 SHL SUB SWAP2 DUP3 AND SWAP2 AND DUP6 PUSH2 0x3E3F JUMP JUMPDEST PUSH1 0x8 SLOAD PUSH1 0x12 SLOAD PUSH1 0x40 MLOAD PUSH32 0x5C11D79500000000000000000000000000000000000000000000000000000000 DUP2 MSTORE PUSH1 0x4 DUP2 ADD DUP7 DUP2 MSTORE PUSH1 0x0 PUSH1 0x24 DUP4 ADD DUP2 SWAP1 MSTORE PUSH1 0x1 PUSH1 0x1 PUSH1 0xA0 SHL SUB SWAP4 DUP5 AND PUSH1 0x64 DUP5 ADD DUP2 SWAP1 MSTORE PUSH1 0x3C TIMESTAMP ADD PUSH1 0x84 DUP6 ADD DUP2 SWAP1 MSTORE PUSH1 0xA0 PUSH1 0x44 DUP7 ADD SWAP1 DUP2 MSTORE PUSH1 0x17 DUP1 SLOAD PUSH1 0xA4 DUP9 ADD DUP2 SWAP1 MSTORE SWAP8 SWAP1 SWAP9 AND SWAP8 PUSH4 0x5C11D795 SWAP8 DUP13 SWAP8 SWAP6 SWAP7 SWAP2 SWAP6 SWAP2 SWAP3 SWAP2 PUSH1 0xC4 ADD SWAP1 DUP7 SWAP1 DUP1 ISZERO PUSH2 0x41DF JUMPI PUSH1 0x20 MUL DUP3 ADD SWAP2 SWAP1 PUSH1 0x0 MSTORE PUSH1 0x20 PUSH1 0x0 KECCAK256 SWAP1 JUMPDEST DUP2 SLOAD PUSH1 0x1 PUSH1 0x1 PUSH1 0xA0 SHL SUB AND DUP2 MSTORE PUSH1 0x1 SWAP1 SWAP2 ADD SWAP1 PUSH1 0x20 ADD DUP1 DUP4 GT PUSH2 0x41C1 JUMPI JUMPDEST POP POP SWAP7 POP POP POP POP POP POP POP PUSH1 0x0 PUSH1 0x40 MLOAD DUP1 DUP4 SUB DUP2 PUSH1 0x0 DUP8 DUP1 EXTCODESIZE ISZERO DUP1 ISZERO PUSH2 0x4203 JUMPI PUSH1 0x0 DUP1 REVERT JUMPDEST POP GAS CALL ISZERO DUP1 ISZERO PUSH2 0x4217 JUMPI RETURNDATASIZE PUSH1 0x0 DUP1 RETURNDATACOPY RETURNDATASIZE PUSH1 0x0 REVERT JUMPDEST POP POP POP POP PUSH2 0x423D JUMP JUMPDEST PUSH1 0x12 SLOAD PUSH1 0x7 SLOAD PUSH2 0x423D SWAP2 PUSH1 0x1 PUSH1 0x1 PUSH1 0xA0 SHL SUB SWAP2 DUP3 AND SWAP2 AND DUP6 PUSH2 0x3D0E JUMP JUMPDEST PUSH1 0x11 SLOAD PUSH1 0x12 SLOAD PUSH1 0x40 DUP1 MLOAD PUSH4 0x70A08231 PUSH1 0xE0 SHL DUP2 MSTORE PUSH1 0x1 PUSH1 0x1 PUSH1 0xA0 SHL SUB SWAP3 DUP4 AND PUSH1 0x4 DUP3 ADD MSTORE SWAP1 MLOAD PUSH1 0x0 SWAP4 SWAP3 SWAP1 SWAP3 AND SWAP2 PUSH4 0x70A08231 SWAP2 PUSH1 0x24 DUP1 DUP3 ADD SWAP3 PUSH1 0x20 SWAP3 SWAP1 SWAP2 SWAP1 DUP3 SWAP1 SUB ADD DUP2 DUP7 DUP1 EXTCODESIZE ISZERO DUP1 ISZERO PUSH2 0x4291 JUMPI PUSH1 0x0 DUP1 REVERT JUMPDEST POP GAS STATICCALL ISZERO DUP1 ISZERO PUSH2 0x42A5 JUMPI RETURNDATASIZE PUSH1 0x0 DUP1 RETURNDATACOPY RETURNDATASIZE PUSH1 0x0 REVERT JUMPDEST POP POP POP POP PUSH1 0x40 MLOAD RETURNDATASIZE PUSH1 0x20 DUP2 LT ISZERO PUSH2 0x42BB JUMPI PUSH1 0x0 DUP1 REVERT JUMPDEST POP MLOAD SWAP1 POP PUSH1 0x0 PUSH2 0x42CB DUP3 DUP5 PUSH2 0x4734 JUMP JUMPDEST PUSH1 0x7 SLOAD PUSH1 0x11 SLOAD PUSH1 0x12 SLOAD PUSH1 0x40 DUP1 MLOAD PUSH1 0x1 PUSH1 0x1 PUSH1 0xA0 SHL SUB SWAP5 DUP6 AND DUP2 MSTORE SWAP3 DUP5 AND PUSH1 0x20 DUP5 ADD MSTORE DUP3 DUP2 ADD DUP11 SWAP1 MSTORE PUSH1 0x60 DUP4 ADD DUP6 SWAP1 MSTORE SWAP3 AND PUSH1 0x80 DUP3 ADD MSTORE SWAP1 MLOAD SWAP2 SWAP3 POP PUSH32 0xB152A9C4203A9515A80FADB5B18AFB6BFCE5350ECCDFDA9D0908AC37EC094222 SWAP2 SWAP1 DUP2 SWAP1 SUB PUSH1 0xA0 ADD SWAP1 LOG1 POP SWAP3 SWAP6 SWAP5 POP POP POP POP POP JUMP JUMPDEST PUSH1 0x13 SLOAD PUSH1 0x0 SWAP1 ISZERO DUP1 PUSH2 0x4357 JUMPI POP PUSH1 0x15 SLOAD PUSH1 0x1 PUSH1 0x1 PUSH1 0xA0 SHL SUB AND ISZERO JUMPDEST ISZERO PUSH2 0x4364 JUMPI POP PUSH1 0x0 PUSH2 0x1843 JUMP JUMPDEST PUSH1 0x0 PUSH2 0x4381 PUSH2 0x2710 PUSH2 0x176F PUSH1 0x13 SLOAD DUP7 PUSH2 0x3C12 SWAP1 SWAP2 SWAP1 PUSH4 0xFFFFFFFF AND JUMP JUMPDEST PUSH1 0x18 SLOAD PUSH1 0x14 SLOAD PUSH1 0x15 SLOAD PUSH1 0x40 DUP1 MLOAD PUSH4 0x70A08231 PUSH1 0xE0 SHL DUP2 MSTORE PUSH1 0x1 PUSH1 0x1 PUSH1 0xA0 SHL SUB SWAP3 DUP4 AND PUSH1 0x4 DUP3 ADD MSTORE SWAP1 MLOAD SWAP5 SWAP6 POP SWAP3 SWAP4 PUSH1 0x0 SWAP4 SWAP2 SWAP1 SWAP3 AND SWAP2 PUSH4 0x70A08231 SWAP2 PUSH1 0x24 DUP1 DUP3 ADD SWAP3 PUSH1 0x20 SWAP3 SWAP1 SWAP2 SWAP1 DUP3 SWAP1 SUB ADD DUP2 DUP7 DUP1 EXTCODESIZE ISZERO DUP1 ISZERO PUSH2 0x43DD JUMPI PUSH1 0x0 DUP1 REVERT JUMPDEST POP GAS STATICCALL ISZERO DUP1 ISZERO PUSH2 0x43F1 JUMPI RETURNDATASIZE PUSH1 0x0 DUP1 RETURNDATACOPY RETURNDATASIZE PUSH1 0x0 REVERT JUMPDEST POP POP POP POP PUSH1 0x40 MLOAD RETURNDATASIZE PUSH1 0x20 DUP2 LT ISZERO PUSH2 0x4407 JUMPI PUSH1 0x0 DUP1 REVERT JUMPDEST POP MLOAD PUSH1 0x18 DUP1 SLOAD SWAP2 SWAP3 POP SWAP1 PUSH32 0xFFFFFFFFFFFFFFFFFFFFFFFFFFFFFFFFFFFFFFFFFFFFFFFFFFFFFFFFFFFFFFFF DUP5 ADD SWAP1 DUP2 LT PUSH2 0x443D JUMPI INVALID JUMPDEST PUSH1 0x0 SWAP2 DUP3 MSTORE PUSH1 0x20 DUP3 KECCAK256 ADD SLOAD PUSH1 0x18 DUP1 SLOAD PUSH1 0x1 PUSH1 0x1 PUSH1 0xA0 SHL SUB SWAP1 SWAP3 AND SWAP3 SWAP1 SWAP2 PUSH2 0x4460 JUMPI INVALID JUMPDEST PUSH1 0x0 SWAP2 DUP3 MSTORE PUSH1 0x20 SWAP1 SWAP2 KECCAK256 ADD SLOAD PUSH1 0x1 PUSH1 0x1 PUSH1 0xA0 SHL SUB AND EQ PUSH2 0x4594 JUMPI PUSH1 0x8 SLOAD PUSH1 0x7 SLOAD PUSH2 0x4497 SWAP2 PUSH1 0x1 PUSH1 0x1 PUSH1 0xA0 SHL SUB SWAP2 DUP3 AND SWAP2 AND DUP6 PUSH2 0x3E3F JUMP JUMPDEST PUSH1 0x8 SLOAD PUSH1 0x15 SLOAD PUSH1 0x40 MLOAD PUSH32 0x5C11D79500000000000000000000000000000000000000000000000000000000 DUP2 MSTORE PUSH1 0x4 DUP2 ADD DUP7 DUP2 MSTORE PUSH1 0x0 PUSH1 0x24 DUP4 ADD DUP2 SWAP1 MSTORE PUSH1 0x1 PUSH1 0x1 PUSH1 0xA0 SHL SUB SWAP4 DUP5 AND PUSH1 0x64 DUP5 ADD DUP2 SWAP1 MSTORE PUSH1 0x3C TIMESTAMP ADD PUSH1 0x84 DUP6 ADD DUP2 SWAP1 MSTORE PUSH1 0xA0 PUSH1 0x44 DUP7 ADD SWAP1 DUP2 MSTORE PUSH1 0x18 DUP1 SLOAD PUSH1 0xA4 DUP9 ADD DUP2 SWAP1 MSTORE SWAP8 SWAP1 SWAP9 AND SWAP8 PUSH4 0x5C11D795 SWAP8 DUP13 SWAP8 SWAP6 SWAP7 SWAP2 SWAP6 SWAP2 SWAP3 SWAP2 PUSH1 0xC4 ADD SWAP1 DUP7 SWAP1 DUP1 ISZERO PUSH2 0x4553 JUMPI PUSH1 0x20 MUL DUP3 ADD SWAP2 SWAP1 PUSH1 0x0 MSTORE PUSH1 0x20 PUSH1 0x0 KECCAK256 SWAP1 JUMPDEST DUP2 SLOAD PUSH1 0x1 PUSH1 0x1 PUSH1 0xA0 SHL SUB AND DUP2 MSTORE PUSH1 0x1 SWAP1 SWAP2 ADD SWAP1 PUSH1 0x20 ADD DUP1 DUP4 GT PUSH2 0x4535 JUMPI JUMPDEST POP POP SWAP7 POP POP POP POP POP POP POP PUSH1 0x0 PUSH1 0x40 MLOAD DUP1 DUP4 SUB DUP2 PUSH1 0x0 DUP8 DUP1 EXTCODESIZE ISZERO DUP1 ISZERO PUSH2 0x4577 JUMPI PUSH1 0x0 DUP1 REVERT JUMPDEST POP GAS CALL ISZERO DUP1 ISZERO PUSH2 0x458B JUMPI RETURNDATASIZE PUSH1 0x0 DUP1 RETURNDATACOPY RETURNDATASIZE PUSH1 0x0 REVERT JUMPDEST POP POP POP POP PUSH2 0x45B1 JUMP JUMPDEST PUSH1 0x15 SLOAD PUSH1 0x7 SLOAD PUSH2 0x45B1 SWAP2 PUSH1 0x1 PUSH1 0x1 PUSH1 0xA0 SHL SUB SWAP2 DUP3 AND SWAP2 AND DUP6 PUSH2 0x3D0E JUMP JUMPDEST PUSH1 0x14 SLOAD PUSH1 0x15 SLOAD PUSH1 0x40 DUP1 MLOAD PUSH4 0x70A08231 PUSH1 0xE0 SHL DUP2 MSTORE PUSH1 0x1 PUSH1 0x1 PUSH1 0xA0 SHL SUB SWAP3 DUP4 AND PUSH1 0x4 DUP3 ADD MSTORE SWAP1 MLOAD PUSH1 0x0 SWAP4 SWAP3 SWAP1 SWAP3 AND SWAP2 PUSH4 0x70A08231 SWAP2 PUSH1 0x24 DUP1 DUP3 ADD SWAP3 PUSH1 0x20 SWAP3 SWAP1 SWAP2 SWAP1 DUP3 SWAP1 SUB ADD DUP2 DUP7 DUP1 EXTCODESIZE ISZERO DUP1 ISZERO PUSH2 0x4605 JUMPI PUSH1 0x0 DUP1 REVERT JUMPDEST POP GAS STATICCALL ISZERO DUP1 ISZERO PUSH2 0x4619 JUMPI RETURNDATASIZE PUSH1 0x0 DUP1 RETURNDATACOPY RETURNDATASIZE PUSH1 0x0 REVERT JUMPDEST POP POP POP POP PUSH1 0x40 MLOAD RETURNDATASIZE PUSH1 0x20 DUP2 LT ISZERO PUSH2 0x462F JUMPI PUSH1 0x0 DUP1 REVERT JUMPDEST POP MLOAD SWAP1 POP PUSH1 0x0 PUSH2 0x463F DUP3 DUP5 PUSH2 0x4734 JUMP JUMPDEST SWAP1 POP DUP1 ISZERO PUSH2 0x4729 JUMPI PUSH1 0x15 SLOAD PUSH1 0x40 DUP1 MLOAD PUSH32 0x50AFA34B00000000000000000000000000000000000000000000000000000000 DUP2 MSTORE PUSH1 0x4 DUP2 ADD DUP5 SWAP1 MSTORE SWAP1 MLOAD PUSH1 0x1 PUSH1 0x1 PUSH1 0xA0 SHL SUB SWAP1 SWAP3 AND SWAP2 PUSH4 0x50AFA34B SWAP2 PUSH1 0x24 DUP1 DUP3 ADD SWAP3 PUSH1 0x0 SWAP3 SWAP1 SWAP2 SWAP1 DUP3 SWAP1 SUB ADD DUP2 DUP4 DUP8 DUP1 EXTCODESIZE ISZERO DUP1 ISZERO PUSH2 0x46AD JUMPI PUSH1 0x0 DUP1 REVERT JUMPDEST POP GAS CALL ISZERO DUP1 ISZERO PUSH2 0x46C1 JUMPI RETURNDATASIZE PUSH1 0x0 DUP1 RETURNDATACOPY RETURNDATASIZE PUSH1 0x0 REVERT JUMPDEST POP POP PUSH1 0x7 SLOAD PUSH1 0x14 SLOAD PUSH1 0x15 SLOAD PUSH1 0x40 DUP1 MLOAD PUSH1 0x1 PUSH1 0x1 PUSH1 0xA0 SHL SUB SWAP5 DUP6 AND DUP2 MSTORE SWAP3 DUP5 AND PUSH1 0x20 DUP5 ADD MSTORE DUP3 DUP2 ADD DUP12 SWAP1 MSTORE PUSH1 0x60 DUP4 ADD DUP8 SWAP1 MSTORE SWAP3 AND PUSH1 0x80 DUP3 ADD MSTORE SWAP1 MLOAD PUSH32 0xB152A9C4203A9515A80FADB5B18AFB6BFCE5350ECCDFDA9D0908AC37EC094222 SWAP4 POP SWAP1 DUP2 SWAP1 SUB PUSH1 0xA0 ADD SWAP2 POP LOG1 JUMPDEST POP SWAP3 SWAP6 SWAP5 POP POP POP POP POP JUMP JUMPDEST PUSH1 0x0 PUSH2 0x3C6B DUP4 DUP4 PUSH1 0x40 MLOAD DUP1 PUSH1 0x40 ADD PUSH1 0x40 MSTORE DUP1 PUSH1 0x1E DUP2 MSTORE PUSH1 0x20 ADD PUSH32 0x536166654D6174683A207375627472616374696F6E206F766572666C6F770000 DUP2 MSTORE POP PUSH2 0x48C9 JUMP JUMPDEST PUSH1 0x60 PUSH2 0x47CB DUP3 PUSH1 0x40 MLOAD DUP1 PUSH1 0x40 ADD PUSH1 0x40 MSTORE DUP1 PUSH1 0x20 DUP2 MSTORE PUSH1 0x20 ADD PUSH32 0x5361666545524332303A206C6F772D6C6576656C2063616C6C206661696C6564 DUP2 MSTORE POP DUP6 PUSH1 0x1 PUSH1 0x1 PUSH1 0xA0 SHL SUB AND PUSH2 0x4923 SWAP1 SWAP3 SWAP2 SWAP1 PUSH4 0xFFFFFFFF AND JUMP JUMPDEST DUP1 MLOAD SWAP1 SWAP2 POP ISZERO PUSH2 0x3D8E JUMPI DUP1 DUP1 PUSH1 0x20 ADD SWAP1 MLOAD PUSH1 0x20 DUP2 LT ISZERO PUSH2 0x47EA JUMPI PUSH1 0x0 DUP1 REVERT JUMPDEST POP MLOAD PUSH2 0x3D8E JUMPI PUSH1 0x40 MLOAD PUSH3 0x461BCD PUSH1 0xE5 SHL DUP2 MSTORE PUSH1 0x4 ADD DUP1 DUP1 PUSH1 0x20 ADD DUP3 DUP2 SUB DUP3 MSTORE PUSH1 0x2A DUP2 MSTORE PUSH1 0x20 ADD DUP1 PUSH2 0x4C71 PUSH1 0x2A SWAP2 CODECOPY PUSH1 0x40 ADD SWAP2 POP POP PUSH1 0x40 MLOAD DUP1 SWAP2 SUB SWAP1 REVERT JUMPDEST PUSH1 0x0 DUP2 DUP4 PUSH2 0x48B3 JUMPI PUSH1 0x40 MLOAD PUSH3 0x461BCD PUSH1 0xE5 SHL DUP2 MSTORE PUSH1 0x4 ADD DUP1 DUP1 PUSH1 0x20 ADD DUP3 DUP2 SUB DUP3 MSTORE DUP4 DUP2 DUP2 MLOAD DUP2 MSTORE PUSH1 0x20 ADD SWAP2 POP DUP1 MLOAD SWAP1 PUSH1 0x20 ADD SWAP1 DUP1 DUP4 DUP4 PUSH1 0x0 JUMPDEST DUP4 DUP2 LT ISZERO PUSH2 0x4878 JUMPI DUP2 DUP2 ADD MLOAD DUP4 DUP3 ADD MSTORE PUSH1 0x20 ADD PUSH2 0x4860 JUMP JUMPDEST POP POP POP POP SWAP1 POP SWAP1 DUP2 ADD SWAP1 PUSH1 0x1F AND DUP1 ISZERO PUSH2 0x48A5 JUMPI DUP1 DUP3 SUB DUP1 MLOAD PUSH1 0x1 DUP4 PUSH1 0x20 SUB PUSH2 0x100 EXP SUB NOT AND DUP2 MSTORE PUSH1 0x20 ADD SWAP2 POP JUMPDEST POP SWAP3 POP POP POP PUSH1 0x40 MLOAD DUP1 SWAP2 SUB SWAP1 REVERT JUMPDEST POP PUSH1 0x0 DUP4 DUP6 DUP2 PUSH2 0x48BF JUMPI INVALID JUMPDEST DIV SWAP6 SWAP5 POP POP POP POP POP JUMP JUMPDEST PUSH1 0x0 DUP2 DUP5 DUP5 GT ISZERO PUSH2 0x491B JUMPI PUSH1 0x40 MLOAD PUSH3 0x461BCD PUSH1 0xE5 SHL DUP2 MSTORE PUSH1 0x20 PUSH1 0x4 DUP3 ADD DUP2 DUP2 MSTORE DUP4 MLOAD PUSH1 0x24 DUP5 ADD MSTORE DUP4 MLOAD SWAP1 SWAP3 DUP4 SWAP3 PUSH1 0x44 SWAP1 SWAP2 ADD SWAP2 SWAP1 DUP6 ADD SWAP1 DUP1 DUP4 DUP4 PUSH1 0x0 DUP4 ISZERO PUSH2 0x4878 JUMPI DUP2 DUP2 ADD MLOAD DUP4 DUP3 ADD MSTORE PUSH1 0x20 ADD PUSH2 0x4860 JUMP JUMPDEST POP POP POP SWAP1 SUB SWAP1 JUMP JUMPDEST PUSH1 0x60 PUSH2 0x140C DUP5 DUP5 PUSH1 0x0 DUP6 PUSH1 0x60 PUSH2 0x4938 DUP6 PUSH2 0x4AB8 JUMP JUMPDEST PUSH2 0x4989 JUMPI PUSH1 0x40 DUP1 MLOAD PUSH3 0x461BCD PUSH1 0xE5 SHL DUP2 MSTORE PUSH1 0x20 PUSH1 0x4 DUP3 ADD MSTORE PUSH1 0x1D PUSH1 0x24 DUP3 ADD MSTORE PUSH32 0x416464726573733A2063616C6C20746F206E6F6E2D636F6E7472616374000000 PUSH1 0x44 DUP3 ADD MSTORE SWAP1 MLOAD SWAP1 DUP2 SWAP1 SUB PUSH1 0x64 ADD SWAP1 REVERT JUMPDEST PUSH1 0x0 PUSH1 0x60 DUP7 PUSH1 0x1 PUSH1 0x1 PUSH1 0xA0 SHL SUB AND DUP6 DUP8 PUSH1 0x40 MLOAD DUP1 DUP3 DUP1 MLOAD SWAP1 PUSH1 0x20 ADD SWAP1 DUP1 DUP4 DUP4 JUMPDEST PUSH1 0x20 DUP4 LT PUSH2 0x49E6 JUMPI DUP1 MLOAD DUP3 MSTORE PUSH32 0xFFFFFFFFFFFFFFFFFFFFFFFFFFFFFFFFFFFFFFFFFFFFFFFFFFFFFFFFFFFFFFE0 SWAP1 SWAP3 ADD SWAP2 PUSH1 0x20 SWAP2 DUP3 ADD SWAP2 ADD PUSH2 0x49A9 JUMP JUMPDEST PUSH1 0x1 DUP4 PUSH1 0x20 SUB PUSH2 0x100 EXP SUB DUP1 NOT DUP3 MLOAD AND DUP2 DUP5 MLOAD AND DUP1 DUP3 OR DUP6 MSTORE POP POP POP POP POP POP SWAP1 POP ADD SWAP2 POP POP PUSH1 0x0 PUSH1 0x40 MLOAD DUP1 DUP4 SUB DUP2 DUP6 DUP8 GAS CALL SWAP3 POP POP POP RETURNDATASIZE DUP1 PUSH1 0x0 DUP2 EQ PUSH2 0x4A48 JUMPI PUSH1 0x40 MLOAD SWAP2 POP PUSH1 0x1F NOT PUSH1 0x3F RETURNDATASIZE ADD AND DUP3 ADD PUSH1 0x40 MSTORE RETURNDATASIZE DUP3 MSTORE RETURNDATASIZE PUSH1 0x0 PUSH1 0x20 DUP5 ADD RETURNDATACOPY PUSH2 0x4A4D JUMP JUMPDEST PUSH1 0x60 SWAP2 POP JUMPDEST POP SWAP2 POP SWAP2 POP DUP2 ISZERO PUSH2 0x4A61 JUMPI SWAP2 POP PUSH2 0x140C SWAP1 POP JUMP JUMPDEST DUP1 MLOAD ISZERO PUSH2 0x4A71 JUMPI DUP1 MLOAD DUP1 DUP3 PUSH1 0x20 ADD REVERT JUMPDEST PUSH1 0x40 MLOAD PUSH3 0x461BCD PUSH1 0xE5 SHL DUP2 MSTORE PUSH1 0x20 PUSH1 0x4 DUP3 ADD DUP2 DUP2 MSTORE DUP7 MLOAD PUSH1 0x24 DUP5 ADD MSTORE DUP7 MLOAD DUP8 SWAP4 SWAP2 SWAP3 DUP4 SWAP3 PUSH1 0x44 ADD SWAP2 SWAP1 DUP6 ADD SWAP1 DUP1 DUP4 DUP4 PUSH1 0x0 DUP4 ISZERO PUSH2 0x4878 JUMPI DUP2 DUP2 ADD MLOAD DUP4 DUP3 ADD MSTORE PUSH1 0x20 ADD PUSH2 0x4860 JUMP JUMPDEST EXTCODESIZE ISZERO ISZERO SWAP1 JUMP JUMPDEST DUP3 DUP1 SLOAD DUP3 DUP3 SSTORE SWAP1 PUSH1 0x0 MSTORE PUSH1 0x20 PUSH1 0x0 KECCAK256 SWAP1 DUP2 ADD SWAP3 DUP3 ISZERO PUSH2 0x4B2B JUMPI SWAP2 PUSH1 0x20 MUL DUP3 ADD JUMPDEST DUP3 DUP2 GT ISZERO PUSH2 0x4B2B JUMPI DUP3 MLOAD DUP3 SLOAD PUSH32 0xFFFFFFFFFFFFFFFFFFFFFFFF0000000000000000000000000000000000000000 AND PUSH1 0x1 PUSH1 0x1 PUSH1 0xA0 SHL SUB SWAP1 SWAP2 AND OR DUP3 SSTORE PUSH1 0x20 SWAP1 SWAP3 ADD SWAP2 PUSH1 0x1 SWAP1 SWAP2 ADD SWAP1 PUSH2 0x4ADE JUMP JUMPDEST POP PUSH2 0x4B37 SWAP3 SWAP2 POP PUSH2 0x4B3B JUMP JUMPDEST POP SWAP1 JUMP JUMPDEST JUMPDEST DUP1 DUP3 GT ISZERO PUSH2 0x4B37 JUMPI DUP1 SLOAD PUSH32 0xFFFFFFFFFFFFFFFFFFFFFFFF0000000000000000000000000000000000000000 AND DUP2 SSTORE PUSH1 0x1 ADD PUSH2 0x4B3C JUMP INVALID TIMESTAMP PUSH23 0x61756C747353747261746567793A3A6578656375746554 PUSH19 0x616E73616374696F6E3A205472616E73616374 PUSH10 0x6F6E2065786563757469 PUSH16 0x6E2072657665727465642E427661756C PUSH21 0x7353747261746567793A202173616665202D20746F PUSH16 0x20686967684F776E61626C653A206E65 PUSH24 0x206F776E657220697320746865207A65726F206164647265 PUSH20 0x73427661756C747353747261746567793A206361 PUSH13 0x6C6572206973206E6F74207468 PUSH6 0x206F70657261 PUSH21 0x6F72536166654D6174683A206D756C7469706C6963 PUSH2 0x7469 PUSH16 0x6E206F766572666C6F77427661756C74 PUSH20 0x53747261746567793A2063616C6C657220697320 PUSH15 0x6F742074696D656C6F636B53616665 GASLIMIT MSTORE NUMBER ORIGIN ADDRESS GASPRICE KECCAK256 GASLIMIT MSTORE NUMBER ORIGIN ADDRESS KECCAK256 PUSH16 0x7065726174696F6E20646964206E6F74 KECCAK256 PUSH20 0x756363656564A26469706673582212203838FCB8 0x22 DELEGATECALL 0xA9 INVALID 0x4B DUP8 0x21 0xE5 0xD8 0x5E 0xC8 ADDMOD 0xD6 0xCA 0xBF SSTORE 0xC3 0xB1 0xCD 0xE2 PUSH12 0x44010A0CD95F7E64736F6C63 NUMBER STOP MOD 0xC STOP CALLER 0x4F PUSH24 0x6E61626C653A206E6577206F776E65722069732074686520 PUSH27 0x65726F20616464726573738BE0079C531659141344CD1FD0A4F284 NOT 0x49 PUSH32 0x9722A3DAAFE3B4186F6B6457E000000000000000000000000000000000000000 "
        },
        "gasEstimates": {
          "creation": {
            "codeDepositCost": "3932800",
            "executionCost": "infinite",
            "totalCost": "infinite"
          },
          "external": {
            "busdAddress()": "331",
            "buyBackAddress1()": "1128",
            "buyBackAddress2()": "1171",
            "buyBackRate1()": "1109",
            "buyBackRate2()": "1131",
            "buyBackRateMax()": "267",
            "buyBackRateUL()": "288",
            "buyBackToken1()": "1105",
            "buyBackToken2()": "1128",
            "controllerFee()": "1131",
            "controllerFeeMax()": "267",
            "controllerFeeUL()": "312",
            "convertDustToEarned()": "infinite",
            "deposit(address,uint256)": "infinite",
            "earn()": "infinite",
            "earnedAddress()": "1149",
            "earnedToBusdPath(uint256)": "2106",
            "earnedToBuyBackToken1Path(uint256)": "2104",
            "earnedToBuyBackToken2Path(uint256)": "2061",
            "earnedToToken0Path(uint256)": "2103",
            "earnedToToken1Path(uint256)": "2083",
            "entranceFeeFactor()": "1112",
            "entranceFeeFactorLL()": "310",
            "entranceFeeFactorMax()": "309",
            "executeTransaction(address,uint256,string,bytes)": "infinite",
            "farm()": "infinite",
            "farmContractAddress()": "1183",
            "inCaseTokensGetStuck(address,uint256,address)": "infinite",
            "isAuthorised(address)": "2895",
            "isAutoComp()": "1111",
            "isCAKEStaking()": "1110",
            "lastEarnBlock()": "1090",
            "notPublic()": "1133",
            "operator()": "1150",
            "owner()": "1128",
            "pause()": "infinite",
            "paused()": "1145",
            "pendingHarvest()": "infinite",
            "pendingHarvestDollarValue()": "infinite",
            "pid()": "1087",
            "renounceOwnership()": "24279",
            "setBuyBackAddress1(address)": "infinite",
            "setBuyBackAddress2(address)": "infinite",
            "setBuyBackRate1(uint256)": "infinite",
            "setBuyBackRate2(uint256)": "infinite",
            "setControllerFee(uint256)": "infinite",
            "setEarnedToBusdPath(address[])": "infinite",
            "setEarnedToBuyBackToken1Path(address[])": "infinite",
            "setEarnedToBuyBackToken2Path(address[])": "infinite",
            "setEarnedToToken0Path(address[])": "infinite",
            "setEarnedToToken1Path(address[])": "infinite",
            "setEntranceFeeFactor(uint256)": "infinite",
            "setNotPublic(bool)": "infinite",
            "setOperator(address)": "infinite",
            "setStrategist(address)": "infinite",
            "setTimelock(address)": "infinite",
            "setToken0ToEarnedPath(address[])": "infinite",
            "setToken1ToEarnedPath(address[])": "infinite",
            "sharesTotal()": "1111",
            "strategist()": "1150",
            "timelock()": "1149",
            "token0Address()": "1127",
            "token0ToEarnedPath(uint256)": "2104",
            "token1Address()": "1127",
            "token1ToEarnedPath(uint256)": "2040",
            "transferOwnership(address)": "infinite",
            "uniExchangeRate(uint256,address[])": "infinite",
            "uniRouterAddress()": "1105",
            "unpause()": "infinite",
            "wantAddress()": "1126",
            "wantLockedTotal()": "1089",
            "wbnbAddress()": "332",
            "withdraw(address,uint256)": "infinite"
          },
          "internal": {
            "_farm()": "infinite",
            "buyBack1(uint256)": "infinite",
            "buyBack2(uint256)": "infinite",
            "distributeFees(uint256)": "infinite"
          }
        },
        "methodIdentifiers": {
          "busdAddress()": "76a90231",
          "buyBackAddress1()": "1a43da93",
          "buyBackAddress2()": "4a56fcd4",
          "buyBackRate1()": "df5c8a9e",
          "buyBackRate2()": "dfee1dd9",
          "buyBackRateMax()": "4d9f7bb2",
          "buyBackRateUL()": "b3545c01",
          "buyBackToken1()": "ce5328e4",
          "buyBackToken2()": "607f35a0",
          "controllerFee()": "85f02dd6",
          "controllerFeeMax()": "2717eff3",
          "controllerFeeUL()": "061c7d48",
          "convertDustToEarned()": "c11c2e92",
          "deposit(address,uint256)": "47e7ef24",
          "earn()": "d389800f",
          "earnedAddress()": "e7198474",
          "earnedToBusdPath(uint256)": "0754a71c",
          "earnedToBuyBackToken1Path(uint256)": "6855b2e7",
          "earnedToBuyBackToken2Path(uint256)": "a05968cd",
          "earnedToToken0Path(uint256)": "c8e3d18b",
          "earnedToToken1Path(uint256)": "96e9aff8",
          "entranceFeeFactor()": "1334903f",
          "entranceFeeFactorLL()": "c302a4d0",
          "entranceFeeFactorMax()": "ee50dc34",
          "executeTransaction(address,uint256,string,bytes)": "2224fa25",
          "farm()": "36e9332d",
          "farmContractAddress()": "9fc33a9f",
          "inCaseTokensGetStuck(address,uint256,address)": "67206d40",
          "isAuthorised(address)": "51b699cd",
          "isAutoComp()": "e5dd455a",
          "isCAKEStaking()": "846d9e17",
          "lastEarnBlock()": "0fa4e01e",
          "notPublic()": "d8be16da",
          "operator()": "570ca735",
          "owner()": "8da5cb5b",
          "pause()": "8456cb59",
          "paused()": "5c975abb",
          "pendingHarvest()": "db7a3c0f",
          "pendingHarvestDollarValue()": "889adfa8",
          "pid()": "f1068454",
          "renounceOwnership()": "715018a6",
          "setBuyBackAddress1(address)": "c3ec8dda",
          "setBuyBackAddress2(address)": "a5528632",
          "setBuyBackRate1(uint256)": "bf94c0ba",
          "setBuyBackRate2(uint256)": "bb9928c6",
          "setControllerFee(uint256)": "f400d311",
          "setEarnedToBusdPath(address[])": "05b7bff2",
          "setEarnedToBuyBackToken1Path(address[])": "fd3440c1",
          "setEarnedToBuyBackToken2Path(address[])": "efd9a479",
          "setEarnedToToken0Path(address[])": "bd1e7c2c",
          "setEarnedToToken1Path(address[])": "cf268434",
          "setEntranceFeeFactor(uint256)": "3e1a8912",
          "setNotPublic(bool)": "45d6b667",
          "setOperator(address)": "b3ab15fb",
          "setStrategist(address)": "c7b9d530",
          "setTimelock(address)": "bdacb303",
          "setToken0ToEarnedPath(address[])": "7a20281e",
          "setToken1ToEarnedPath(address[])": "858f2384",
          "sharesTotal()": "44a3955e",
          "strategist()": "1fe4a686",
          "timelock()": "d33219b4",
          "token0Address()": "7ff36fbe",
          "token0ToEarnedPath(uint256)": "b77050e7",
          "token1Address()": "d7cb416f",
          "token1ToEarnedPath(uint256)": "007a2ae3",
          "transferOwnership(address)": "f2fde38b",
          "uniExchangeRate(uint256,address[])": "6804d54a",
          "uniRouterAddress()": "693a090b",
          "unpause()": "3f4ba83a",
          "wantAddress()": "e7a03679",
          "wantLockedTotal()": "42da4eb3",
          "wbnbAddress()": "63fe3e3a",
          "withdraw(address,uint256)": "f3fef3a3"
        }
      },
      "storageLayout": {
        "storage": [
          {
            "astId": 27,
            "contract": "contracts/contracts-deployed/BvaultsStrategy.3.SOUP.sol:BvaultsStrategy",
            "label": "_owner",
            "offset": 0,
            "slot": "0",
            "type": "t_address"
          },
          {
            "astId": 808,
            "contract": "contracts/contracts-deployed/BvaultsStrategy.3.SOUP.sol:BvaultsStrategy",
            "label": "_status",
            "offset": 0,
            "slot": "1",
            "type": "t_uint256"
          },
          {
            "astId": 852,
            "contract": "contracts/contracts-deployed/BvaultsStrategy.3.SOUP.sol:BvaultsStrategy",
            "label": "_paused",
            "offset": 0,
            "slot": "2",
            "type": "t_bool"
          },
          {
            "astId": 1438,
            "contract": "contracts/contracts-deployed/BvaultsStrategy.3.SOUP.sol:BvaultsStrategy",
            "label": "isCAKEStaking",
            "offset": 1,
            "slot": "2",
            "type": "t_bool"
          },
          {
            "astId": 1440,
            "contract": "contracts/contracts-deployed/BvaultsStrategy.3.SOUP.sol:BvaultsStrategy",
            "label": "isAutoComp",
            "offset": 2,
            "slot": "2",
            "type": "t_bool"
          },
          {
            "astId": 1442,
            "contract": "contracts/contracts-deployed/BvaultsStrategy.3.SOUP.sol:BvaultsStrategy",
            "label": "farmContractAddress",
            "offset": 3,
            "slot": "2",
            "type": "t_address"
          },
          {
            "astId": 1444,
            "contract": "contracts/contracts-deployed/BvaultsStrategy.3.SOUP.sol:BvaultsStrategy",
            "label": "pid",
            "offset": 0,
            "slot": "3",
            "type": "t_uint256"
          },
          {
            "astId": 1446,
            "contract": "contracts/contracts-deployed/BvaultsStrategy.3.SOUP.sol:BvaultsStrategy",
            "label": "wantAddress",
            "offset": 0,
            "slot": "4",
            "type": "t_address"
          },
          {
            "astId": 1448,
            "contract": "contracts/contracts-deployed/BvaultsStrategy.3.SOUP.sol:BvaultsStrategy",
            "label": "token0Address",
            "offset": 0,
            "slot": "5",
            "type": "t_address"
          },
          {
            "astId": 1450,
            "contract": "contracts/contracts-deployed/BvaultsStrategy.3.SOUP.sol:BvaultsStrategy",
            "label": "token1Address",
            "offset": 0,
            "slot": "6",
            "type": "t_address"
          },
          {
            "astId": 1452,
            "contract": "contracts/contracts-deployed/BvaultsStrategy.3.SOUP.sol:BvaultsStrategy",
            "label": "earnedAddress",
            "offset": 0,
            "slot": "7",
            "type": "t_address"
          },
          {
            "astId": 1458,
            "contract": "contracts/contracts-deployed/BvaultsStrategy.3.SOUP.sol:BvaultsStrategy",
            "label": "uniRouterAddress",
            "offset": 0,
            "slot": "8",
            "type": "t_address"
          },
          {
            "astId": 1472,
            "contract": "contracts/contracts-deployed/BvaultsStrategy.3.SOUP.sol:BvaultsStrategy",
            "label": "operator",
            "offset": 0,
            "slot": "9",
            "type": "t_address"
          },
          {
            "astId": 1474,
            "contract": "contracts/contracts-deployed/BvaultsStrategy.3.SOUP.sol:BvaultsStrategy",
            "label": "strategist",
            "offset": 0,
            "slot": "10",
            "type": "t_address"
          },
          {
            "astId": 1480,
            "contract": "contracts/contracts-deployed/BvaultsStrategy.3.SOUP.sol:BvaultsStrategy",
            "label": "timelock",
            "offset": 0,
            "slot": "11",
            "type": "t_address"
          },
          {
            "astId": 1483,
            "contract": "contracts/contracts-deployed/BvaultsStrategy.3.SOUP.sol:BvaultsStrategy",
            "label": "notPublic",
            "offset": 20,
            "slot": "11",
            "type": "t_bool"
          },
          {
            "astId": 1486,
            "contract": "contracts/contracts-deployed/BvaultsStrategy.3.SOUP.sol:BvaultsStrategy",
            "label": "lastEarnBlock",
            "offset": 0,
            "slot": "12",
            "type": "t_uint256"
          },
          {
            "astId": 1489,
            "contract": "contracts/contracts-deployed/BvaultsStrategy.3.SOUP.sol:BvaultsStrategy",
            "label": "wantLockedTotal",
            "offset": 0,
            "slot": "13",
            "type": "t_uint256"
          },
          {
            "astId": 1492,
            "contract": "contracts/contracts-deployed/BvaultsStrategy.3.SOUP.sol:BvaultsStrategy",
            "label": "sharesTotal",
            "offset": 0,
            "slot": "14",
            "type": "t_uint256"
          },
          {
            "astId": 1495,
            "contract": "contracts/contracts-deployed/BvaultsStrategy.3.SOUP.sol:BvaultsStrategy",
            "label": "controllerFee",
            "offset": 0,
            "slot": "15",
            "type": "t_uint256"
          },
          {
            "astId": 1510,
            "contract": "contracts/contracts-deployed/BvaultsStrategy.3.SOUP.sol:BvaultsStrategy",
            "label": "buyBackRate1",
            "offset": 0,
            "slot": "16",
            "type": "t_uint256"
          },
          {
            "astId": 1516,
            "contract": "contracts/contracts-deployed/BvaultsStrategy.3.SOUP.sol:BvaultsStrategy",
            "label": "buyBackToken1",
            "offset": 0,
            "slot": "17",
            "type": "t_address"
          },
          {
            "astId": 1522,
            "contract": "contracts/contracts-deployed/BvaultsStrategy.3.SOUP.sol:BvaultsStrategy",
            "label": "buyBackAddress1",
            "offset": 0,
            "slot": "18",
            "type": "t_address"
          },
          {
            "astId": 1525,
            "contract": "contracts/contracts-deployed/BvaultsStrategy.3.SOUP.sol:BvaultsStrategy",
            "label": "buyBackRate2",
            "offset": 0,
            "slot": "19",
            "type": "t_uint256"
          },
          {
            "astId": 1531,
            "contract": "contracts/contracts-deployed/BvaultsStrategy.3.SOUP.sol:BvaultsStrategy",
            "label": "buyBackToken2",
            "offset": 0,
            "slot": "20",
            "type": "t_address"
          },
          {
            "astId": 1537,
            "contract": "contracts/contracts-deployed/BvaultsStrategy.3.SOUP.sol:BvaultsStrategy",
            "label": "buyBackAddress2",
            "offset": 0,
            "slot": "21",
            "type": "t_address"
          },
          {
            "astId": 1540,
            "contract": "contracts/contracts-deployed/BvaultsStrategy.3.SOUP.sol:BvaultsStrategy",
            "label": "entranceFeeFactor",
            "offset": 0,
            "slot": "22",
            "type": "t_uint256"
          },
          {
            "astId": 1549,
            "contract": "contracts/contracts-deployed/BvaultsStrategy.3.SOUP.sol:BvaultsStrategy",
            "label": "earnedToBuyBackToken1Path",
            "offset": 0,
            "slot": "23",
            "type": "t_array(t_address)dyn_storage"
          },
          {
            "astId": 1552,
            "contract": "contracts/contracts-deployed/BvaultsStrategy.3.SOUP.sol:BvaultsStrategy",
            "label": "earnedToBuyBackToken2Path",
            "offset": 0,
            "slot": "24",
            "type": "t_array(t_address)dyn_storage"
          },
          {
            "astId": 1555,
            "contract": "contracts/contracts-deployed/BvaultsStrategy.3.SOUP.sol:BvaultsStrategy",
            "label": "earnedToBusdPath",
            "offset": 0,
            "slot": "25",
            "type": "t_array(t_address)dyn_storage"
          },
          {
            "astId": 1558,
            "contract": "contracts/contracts-deployed/BvaultsStrategy.3.SOUP.sol:BvaultsStrategy",
            "label": "earnedToToken0Path",
            "offset": 0,
            "slot": "26",
            "type": "t_array(t_address)dyn_storage"
          },
          {
            "astId": 1561,
            "contract": "contracts/contracts-deployed/BvaultsStrategy.3.SOUP.sol:BvaultsStrategy",
            "label": "earnedToToken1Path",
            "offset": 0,
            "slot": "27",
            "type": "t_array(t_address)dyn_storage"
          },
          {
            "astId": 1564,
            "contract": "contracts/contracts-deployed/BvaultsStrategy.3.SOUP.sol:BvaultsStrategy",
            "label": "token0ToEarnedPath",
            "offset": 0,
            "slot": "28",
            "type": "t_array(t_address)dyn_storage"
          },
          {
            "astId": 1567,
            "contract": "contracts/contracts-deployed/BvaultsStrategy.3.SOUP.sol:BvaultsStrategy",
            "label": "token1ToEarnedPath",
            "offset": 0,
            "slot": "29",
            "type": "t_array(t_address)dyn_storage"
          }
        ],
        "types": {
          "t_address": {
            "encoding": "inplace",
            "label": "address",
            "numberOfBytes": "20"
          },
          "t_array(t_address)dyn_storage": {
            "base": "t_address",
            "encoding": "dynamic_array",
            "label": "address[]",
            "numberOfBytes": "32"
          },
          "t_bool": {
            "encoding": "inplace",
            "label": "bool",
            "numberOfBytes": "1"
          },
          "t_uint256": {
            "encoding": "inplace",
            "label": "uint256",
            "numberOfBytes": "32"
          }
        }
      },
      "userdoc": {
        "kind": "user",
        "methods": {},
        "version": 1
      }
    }
  }
}