{
  "_format": "hh-sol-artifact-1",
  "contractName": "BvaultsStrategy",
  "sourceName": "contracts/BvaultsStrategy.4.vswap.stake.mdg.sol",
  "abi": [
    {
      "inputs": [
        {
          "internalType": "address",
          "name": "_controller",
          "type": "address"
        },
        {
          "internalType": "bool",
          "name": "_isAutoComp",
          "type": "bool"
        },
        {
          "internalType": "address",
          "name": "_farmContractAddress",
          "type": "address"
        },
        {
          "internalType": "uint256",
          "name": "_pid",
          "type": "uint256"
        },
        {
          "internalType": "address",
          "name": "_wantAddress",
          "type": "address"
        },
        {
          "internalType": "address",
          "name": "_earnedAddress",
          "type": "address"
        },
        {
          "internalType": "address",
          "name": "_mdgLockerAddress",
          "type": "address"
        },
        {
          "internalType": "address[]",
          "name": "_bonusRewards",
          "type": "address[]"
        },
        {
          "internalType": "address",
          "name": "_vswapRouterAddress",
          "type": "address"
        },
        {
          "internalType": "address",
          "name": "_vswapFormula",
          "type": "address"
        },
        {
          "internalType": "address[]",
          "name": "_buyBackToken1Info",
          "type": "address[]"
        },
        {
          "internalType": "address[]",
          "name": "_buyBackToken2Info",
          "type": "address[]"
        }
      ],
      "stateMutability": "nonpayable",
      "type": "constructor"
    },
    {
      "anonymous": false,
      "inputs": [
        {
          "indexed": false,
          "internalType": "address",
          "name": "earnedAddress",
          "type": "address"
        },
        {
          "indexed": false,
          "internalType": "address",
          "name": "buyBackToken",
          "type": "address"
        },
        {
          "indexed": false,
          "internalType": "uint256",
          "name": "earnedAmt",
          "type": "uint256"
        },
        {
          "indexed": false,
          "internalType": "uint256",
          "name": "buyBackAmt",
          "type": "uint256"
        },
        {
          "indexed": false,
          "internalType": "address",
          "name": "receiver",
          "type": "address"
        }
      ],
      "name": "BuyBack",
      "type": "event"
    },
    {
      "anonymous": false,
      "inputs": [
        {
          "indexed": false,
          "internalType": "address",
          "name": "token0Address",
          "type": "address"
        },
        {
          "indexed": false,
          "internalType": "uint256",
          "name": "token0Amt",
          "type": "uint256"
        },
        {
          "indexed": false,
          "internalType": "address",
          "name": "token1Address",
          "type": "address"
        },
        {
          "indexed": false,
          "internalType": "uint256",
          "name": "token1Amt",
          "type": "uint256"
        }
      ],
      "name": "Compound",
      "type": "event"
    },
    {
      "anonymous": false,
      "inputs": [
        {
          "indexed": false,
          "internalType": "address",
          "name": "tokenAddress",
          "type": "address"
        },
        {
          "indexed": false,
          "internalType": "address",
          "name": "earnedAddress",
          "type": "address"
        },
        {
          "indexed": false,
          "internalType": "uint256",
          "name": "tokenAmt",
          "type": "uint256"
        }
      ],
      "name": "ConvertDustToEarned",
      "type": "event"
    },
    {
      "anonymous": false,
      "inputs": [
        {
          "indexed": false,
          "internalType": "uint256",
          "name": "amount",
          "type": "uint256"
        }
      ],
      "name": "Deposit",
      "type": "event"
    },
    {
      "anonymous": false,
      "inputs": [
        {
          "indexed": false,
          "internalType": "address",
          "name": "earnedAddress",
          "type": "address"
        },
        {
          "indexed": false,
          "internalType": "uint256",
          "name": "fee",
          "type": "uint256"
        },
        {
          "indexed": false,
          "internalType": "address",
          "name": "receiver",
          "type": "address"
        }
      ],
      "name": "DistributeFee",
      "type": "event"
    },
    {
      "anonymous": false,
      "inputs": [
        {
          "indexed": false,
          "internalType": "address",
          "name": "earnedAddress",
          "type": "address"
        },
        {
          "indexed": false,
          "internalType": "uint256",
          "name": "earnedAmt",
          "type": "uint256"
        }
      ],
      "name": "Earned",
      "type": "event"
    },
    {
      "anonymous": false,
      "inputs": [
        {
          "indexed": true,
          "internalType": "address",
          "name": "target",
          "type": "address"
        },
        {
          "indexed": false,
          "internalType": "uint256",
          "name": "value",
          "type": "uint256"
        },
        {
          "indexed": false,
          "internalType": "string",
          "name": "signature",
          "type": "string"
        },
        {
          "indexed": false,
          "internalType": "bytes",
          "name": "data",
          "type": "bytes"
        }
      ],
      "name": "ExecuteTransaction",
      "type": "event"
    },
    {
      "anonymous": false,
      "inputs": [
        {
          "indexed": false,
          "internalType": "uint256",
          "name": "amount",
          "type": "uint256"
        }
      ],
      "name": "Farm",
      "type": "event"
    },
    {
      "anonymous": false,
      "inputs": [
        {
          "indexed": false,
          "internalType": "address",
          "name": "tokenAddress",
          "type": "address"
        },
        {
          "indexed": false,
          "internalType": "uint256",
          "name": "tokenAmt",
          "type": "uint256"
        },
        {
          "indexed": false,
          "internalType": "address",
          "name": "receiver",
          "type": "address"
        }
      ],
      "name": "InCaseTokensGetStuck",
      "type": "event"
    },
    {
      "anonymous": false,
      "inputs": [
        {
          "indexed": true,
          "internalType": "address",
          "name": "previousOwner",
          "type": "address"
        },
        {
          "indexed": true,
          "internalType": "address",
          "name": "newOwner",
          "type": "address"
        }
      ],
      "name": "OwnershipTransferred",
      "type": "event"
    },
    {
      "anonymous": false,
      "inputs": [
        {
          "indexed": false,
          "internalType": "address",
          "name": "account",
          "type": "address"
        }
      ],
      "name": "Paused",
      "type": "event"
    },
    {
      "anonymous": false,
      "inputs": [
        {
          "indexed": false,
          "internalType": "address",
          "name": "account",
          "type": "address"
        }
      ],
      "name": "Unpaused",
      "type": "event"
    },
    {
      "anonymous": false,
      "inputs": [
        {
          "indexed": false,
          "internalType": "uint256",
          "name": "amount",
          "type": "uint256"
        }
      ],
      "name": "Withdraw",
      "type": "event"
    },
    {
      "inputs": [],
      "name": "bcashAddress",
      "outputs": [
        {
          "internalType": "address",
          "name": "",
          "type": "address"
        }
      ],
      "stateMutability": "view",
      "type": "function"
    },
    {
      "inputs": [],
      "name": "busdAddress",
      "outputs": [
        {
          "internalType": "address",
          "name": "",
          "type": "address"
        }
      ],
      "stateMutability": "view",
      "type": "function"
    },
    {
      "inputs": [],
      "name": "buyBackAddress1",
      "outputs": [
        {
          "internalType": "address",
          "name": "",
          "type": "address"
        }
      ],
      "stateMutability": "view",
      "type": "function"
    },
    {
      "inputs": [],
      "name": "buyBackAddress2",
      "outputs": [
        {
          "internalType": "address",
          "name": "",
          "type": "address"
        }
      ],
      "stateMutability": "view",
      "type": "function"
    },
    {
      "inputs": [],
      "name": "buyBackRate1",
      "outputs": [
        {
          "internalType": "uint256",
          "name": "",
          "type": "uint256"
        }
      ],
      "stateMutability": "view",
      "type": "function"
    },
    {
      "inputs": [],
      "name": "buyBackRate2",
      "outputs": [
        {
          "internalType": "uint256",
          "name": "",
          "type": "uint256"
        }
      ],
      "stateMutability": "view",
      "type": "function"
    },
    {
      "inputs": [],
      "name": "buyBackRateMax",
      "outputs": [
        {
          "internalType": "uint256",
          "name": "",
          "type": "uint256"
        }
      ],
      "stateMutability": "view",
      "type": "function"
    },
    {
      "inputs": [],
      "name": "buyBackRateUL",
      "outputs": [
        {
          "internalType": "uint256",
          "name": "",
          "type": "uint256"
        }
      ],
      "stateMutability": "view",
      "type": "function"
    },
    {
      "inputs": [],
      "name": "buyBackToken1",
      "outputs": [
        {
          "internalType": "address",
          "name": "",
          "type": "address"
        }
      ],
      "stateMutability": "view",
      "type": "function"
    },
    {
      "inputs": [],
      "name": "buyBackToken2",
      "outputs": [
        {
          "internalType": "address",
          "name": "",
          "type": "address"
        }
      ],
      "stateMutability": "view",
      "type": "function"
    },
    {
      "inputs": [],
      "name": "checkForUnlockReward",
      "outputs": [
        {
          "internalType": "bool",
          "name": "",
          "type": "bool"
        }
      ],
      "stateMutability": "view",
      "type": "function"
    },
    {
      "inputs": [],
      "name": "controllerFee",
      "outputs": [
        {
          "internalType": "uint256",
          "name": "",
          "type": "uint256"
        }
      ],
      "stateMutability": "view",
      "type": "function"
    },
    {
      "inputs": [],
      "name": "controllerFeeMax",
      "outputs": [
        {
          "internalType": "uint256",
          "name": "",
          "type": "uint256"
        }
      ],
      "stateMutability": "view",
      "type": "function"
    },
    {
      "inputs": [],
      "name": "controllerFeeUL",
      "outputs": [
        {
          "internalType": "uint256",
          "name": "",
          "type": "uint256"
        }
      ],
      "stateMutability": "view",
      "type": "function"
    },
    {
      "inputs": [],
      "name": "convertDustToEarned",
      "outputs": [],
      "stateMutability": "nonpayable",
      "type": "function"
    },
    {
      "inputs": [
        {
          "internalType": "address",
          "name": "",
          "type": "address"
        },
        {
          "internalType": "uint256",
          "name": "_wantAmt",
          "type": "uint256"
        }
      ],
      "name": "deposit",
      "outputs": [
        {
          "internalType": "uint256",
          "name": "",
          "type": "uint256"
        }
      ],
      "stateMutability": "nonpayable",
      "type": "function"
    },
    {
      "inputs": [],
      "name": "earn",
      "outputs": [],
      "stateMutability": "nonpayable",
      "type": "function"
    },
    {
      "inputs": [],
      "name": "earnedAddress",
      "outputs": [
        {
          "internalType": "address",
          "name": "",
          "type": "address"
        }
      ],
      "stateMutability": "view",
      "type": "function"
    },
    {
      "inputs": [],
      "name": "entranceFeeFactor",
      "outputs": [
        {
          "internalType": "uint256",
          "name": "",
          "type": "uint256"
        }
      ],
      "stateMutability": "view",
      "type": "function"
    },
    {
      "inputs": [],
      "name": "entranceFeeFactorLL",
      "outputs": [
        {
          "internalType": "uint256",
          "name": "",
          "type": "uint256"
        }
      ],
      "stateMutability": "view",
      "type": "function"
    },
    {
      "inputs": [],
      "name": "entranceFeeFactorMax",
      "outputs": [
        {
          "internalType": "uint256",
          "name": "",
          "type": "uint256"
        }
      ],
      "stateMutability": "view",
      "type": "function"
    },
    {
      "inputs": [
        {
          "internalType": "address",
          "name": "_inputToken",
          "type": "address"
        },
        {
          "internalType": "address",
          "name": "_outputToken",
          "type": "address"
        },
        {
          "internalType": "uint256",
          "name": "_tokenAmount",
          "type": "uint256"
        }
      ],
      "name": "exchangeRate",
      "outputs": [
        {
          "internalType": "uint256",
          "name": "",
          "type": "uint256"
        }
      ],
      "stateMutability": "view",
      "type": "function"
    },
    {
      "inputs": [
        {
          "internalType": "address",
          "name": "target",
          "type": "address"
        },
        {
          "internalType": "uint256",
          "name": "value",
          "type": "uint256"
        },
        {
          "internalType": "string",
          "name": "signature",
          "type": "string"
        },
        {
          "internalType": "bytes",
          "name": "data",
          "type": "bytes"
        }
      ],
      "name": "executeTransaction",
      "outputs": [
        {
          "internalType": "bytes",
          "name": "",
          "type": "bytes"
        }
      ],
      "stateMutability": "nonpayable",
      "type": "function"
    },
    {
      "inputs": [],
      "name": "farm",
      "outputs": [],
      "stateMutability": "nonpayable",
      "type": "function"
    },
    {
      "inputs": [],
      "name": "farmContractAddress",
      "outputs": [
        {
          "internalType": "address",
          "name": "",
          "type": "address"
        }
      ],
      "stateMutability": "view",
      "type": "function"
    },
    {
      "inputs": [
        {
          "internalType": "address",
          "name": "_token",
          "type": "address"
        },
        {
          "internalType": "uint256",
          "name": "_amount",
          "type": "uint256"
        },
        {
          "internalType": "address",
          "name": "_to",
          "type": "address"
        }
      ],
      "name": "inCaseTokensGetStuck",
      "outputs": [],
      "stateMutability": "nonpayable",
      "type": "function"
    },
    {
      "inputs": [
        {
          "internalType": "address",
          "name": "_account",
          "type": "address"
        }
      ],
      "name": "isAuthorised",
      "outputs": [
        {
          "internalType": "bool",
          "name": "",
          "type": "bool"
        }
      ],
      "stateMutability": "view",
      "type": "function"
    },
    {
      "inputs": [],
      "name": "isAutoComp",
      "outputs": [
        {
          "internalType": "bool",
          "name": "",
          "type": "bool"
        }
      ],
      "stateMutability": "view",
      "type": "function"
    },
    {
      "inputs": [],
      "name": "lastEarnBlock",
      "outputs": [
        {
          "internalType": "uint256",
          "name": "",
          "type": "uint256"
        }
      ],
      "stateMutability": "view",
      "type": "function"
    },
    {
      "inputs": [],
      "name": "mdgLockerAddress",
      "outputs": [
        {
          "internalType": "address",
          "name": "",
          "type": "address"
        }
      ],
      "stateMutability": "view",
      "type": "function"
    },
    {
      "inputs": [],
      "name": "mdoAddress",
      "outputs": [
        {
          "internalType": "address",
          "name": "",
          "type": "address"
        }
      ],
      "stateMutability": "view",
      "type": "function"
    },
    {
      "inputs": [],
      "name": "notPublic",
      "outputs": [
        {
          "internalType": "bool",
          "name": "",
          "type": "bool"
        }
      ],
      "stateMutability": "view",
      "type": "function"
    },
    {
      "inputs": [],
      "name": "operator",
      "outputs": [
        {
          "internalType": "address",
          "name": "",
          "type": "address"
        }
      ],
      "stateMutability": "view",
      "type": "function"
    },
    {
      "inputs": [],
      "name": "owner",
      "outputs": [
        {
          "internalType": "address",
          "name": "",
          "type": "address"
        }
      ],
      "stateMutability": "view",
      "type": "function"
    },
    {
      "inputs": [],
      "name": "pause",
      "outputs": [],
      "stateMutability": "nonpayable",
      "type": "function"
    },
    {
      "inputs": [],
      "name": "paused",
      "outputs": [
        {
          "internalType": "bool",
          "name": "",
          "type": "bool"
        }
      ],
      "stateMutability": "view",
      "type": "function"
    },
    {
      "inputs": [],
      "name": "pendingHarvest",
      "outputs": [
        {
          "internalType": "uint256",
          "name": "",
          "type": "uint256"
        }
      ],
      "stateMutability": "view",
      "type": "function"
    },
    {
      "inputs": [],
      "name": "pendingHarvestDollarValue",
      "outputs": [
        {
          "internalType": "uint256",
          "name": "",
          "type": "uint256"
        }
      ],
      "stateMutability": "view",
      "type": "function"
    },
    {
      "inputs": [],
      "name": "pid",
      "outputs": [
        {
          "internalType": "uint256",
          "name": "",
          "type": "uint256"
        }
      ],
      "stateMutability": "view",
      "type": "function"
    },
    {
      "inputs": [],
      "name": "renounceOwnership",
      "outputs": [],
      "stateMutability": "nonpayable",
      "type": "function"
    },
    {
      "inputs": [
        {
          "internalType": "address",
          "name": "_buyBackAddress1",
          "type": "address"
        }
      ],
      "name": "setBuyBackAddress1",
      "outputs": [],
      "stateMutability": "nonpayable",
      "type": "function"
    },
    {
      "inputs": [
        {
          "internalType": "address",
          "name": "_buyBackAddress2",
          "type": "address"
        }
      ],
      "name": "setBuyBackAddress2",
      "outputs": [],
      "stateMutability": "nonpayable",
      "type": "function"
    },
    {
      "inputs": [
        {
          "internalType": "uint256",
          "name": "_buyBackRate1",
          "type": "uint256"
        }
      ],
      "name": "setBuyBackRate1",
      "outputs": [],
      "stateMutability": "nonpayable",
      "type": "function"
    },
    {
      "inputs": [
        {
          "internalType": "uint256",
          "name": "_buyBackRate2",
          "type": "uint256"
        }
      ],
      "name": "setBuyBackRate2",
      "outputs": [],
      "stateMutability": "nonpayable",
      "type": "function"
    },
    {
      "inputs": [
        {
          "internalType": "bool",
          "name": "_checkForUnlockReward",
          "type": "bool"
        }
      ],
      "name": "setCheckForUnlockReward",
      "outputs": [],
      "stateMutability": "nonpayable",
      "type": "function"
    },
    {
      "inputs": [
        {
          "internalType": "uint256",
          "name": "_controllerFee",
          "type": "uint256"
        }
      ],
      "name": "setControllerFee",
      "outputs": [],
      "stateMutability": "nonpayable",
      "type": "function"
    },
    {
      "inputs": [
        {
          "internalType": "uint256",
          "name": "_entranceFeeFactor",
          "type": "uint256"
        }
      ],
      "name": "setEntranceFeeFactor",
      "outputs": [],
      "stateMutability": "nonpayable",
      "type": "function"
    },
    {
      "inputs": [
        {
          "internalType": "address[]",
          "name": "_earnedToBuyBackToken1Path",
          "type": "address[]"
        },
        {
          "internalType": "address[]",
          "name": "_earnedToBuyBackToken2Path",
          "type": "address[]"
        },
        {
          "internalType": "address[]",
          "name": "_earnedToWantPath",
          "type": "address[]"
        },
        {
          "internalType": "address[]",
          "name": "_wantToEarnedPath",
          "type": "address[]"
        },
        {
          "internalType": "address[]",
          "name": "_earnedToBusdPath",
          "type": "address[]"
        },
        {
          "internalType": "address[]",
          "name": "_mdoToEarnedPath",
          "type": "address[]"
        },
        {
          "internalType": "address[]",
          "name": "_bcashToEarnedPath",
          "type": "address[]"
        }
      ],
      "name": "setMainPaths",
      "outputs": [],
      "stateMutability": "nonpayable",
      "type": "function"
    },
    {
      "inputs": [
        {
          "internalType": "bool",
          "name": "_notPublic",
          "type": "bool"
        }
      ],
      "name": "setNotPublic",
      "outputs": [],
      "stateMutability": "nonpayable",
      "type": "function"
    },
    {
      "inputs": [
        {
          "internalType": "address",
          "name": "_operator",
          "type": "address"
        }
      ],
      "name": "setOperator",
      "outputs": [],
      "stateMutability": "nonpayable",
      "type": "function"
    },
    {
      "inputs": [
        {
          "internalType": "address",
          "name": "_strategist",
          "type": "address"
        }
      ],
      "name": "setStrategist",
      "outputs": [],
      "stateMutability": "nonpayable",
      "type": "function"
    },
    {
      "inputs": [
        {
          "internalType": "address",
          "name": "_timelock",
          "type": "address"
        }
      ],
      "name": "setTimelock",
      "outputs": [],
      "stateMutability": "nonpayable",
      "type": "function"
    },
    {
      "inputs": [
        {
          "internalType": "address",
          "name": "_inputToken",
          "type": "address"
        },
        {
          "internalType": "address",
          "name": "_outputToken",
          "type": "address"
        },
        {
          "internalType": "address[]",
          "name": "_path",
          "type": "address[]"
        }
      ],
      "name": "setVswapPaths",
      "outputs": [],
      "stateMutability": "nonpayable",
      "type": "function"
    },
    {
      "inputs": [],
      "name": "sharesTotal",
      "outputs": [
        {
          "internalType": "uint256",
          "name": "",
          "type": "uint256"
        }
      ],
      "stateMutability": "view",
      "type": "function"
    },
    {
      "inputs": [],
      "name": "strategist",
      "outputs": [
        {
          "internalType": "address",
          "name": "",
          "type": "address"
        }
      ],
      "stateMutability": "view",
      "type": "function"
    },
    {
      "inputs": [],
      "name": "timelock",
      "outputs": [
        {
          "internalType": "address",
          "name": "",
          "type": "address"
        }
      ],
      "stateMutability": "view",
      "type": "function"
    },
    {
      "inputs": [
        {
          "internalType": "address",
          "name": "newOwner",
          "type": "address"
        }
      ],
      "name": "transferOwnership",
      "outputs": [],
      "stateMutability": "nonpayable",
      "type": "function"
    },
    {
      "inputs": [],
      "name": "unpause",
      "outputs": [],
      "stateMutability": "nonpayable",
      "type": "function"
    },
    {
      "inputs": [],
      "name": "vswapFormula",
      "outputs": [
        {
          "internalType": "address",
          "name": "",
          "type": "address"
        }
      ],
      "stateMutability": "view",
      "type": "function"
    },
    {
      "inputs": [
        {
          "internalType": "address",
          "name": "",
          "type": "address"
        },
        {
          "internalType": "address",
          "name": "",
          "type": "address"
        },
        {
          "internalType": "uint256",
          "name": "",
          "type": "uint256"
        }
      ],
      "name": "vswapPaths",
      "outputs": [
        {
          "internalType": "address",
          "name": "",
          "type": "address"
        }
      ],
      "stateMutability": "view",
      "type": "function"
    },
    {
      "inputs": [],
      "name": "vswapRouterAddress",
      "outputs": [
        {
          "internalType": "address",
          "name": "",
          "type": "address"
        }
      ],
      "stateMutability": "view",
      "type": "function"
    },
    {
      "inputs": [],
      "name": "wantAddress",
      "outputs": [
        {
          "internalType": "address",
          "name": "",
          "type": "address"
        }
      ],
      "stateMutability": "view",
      "type": "function"
    },
    {
      "inputs": [],
      "name": "wantLockedTotal",
      "outputs": [
        {
          "internalType": "uint256",
          "name": "",
          "type": "uint256"
        }
      ],
      "stateMutability": "view",
      "type": "function"
    },
    {
      "inputs": [],
      "name": "wbnbAddress",
      "outputs": [
        {
          "internalType": "address",
          "name": "",
          "type": "address"
        }
      ],
      "stateMutability": "view",
      "type": "function"
    },
    {
      "inputs": [
        {
          "internalType": "address",
          "name": "",
          "type": "address"
        },
        {
          "internalType": "uint256",
          "name": "_wantAmt",
          "type": "uint256"
        }
      ],
      "name": "withdraw",
      "outputs": [
        {
          "internalType": "uint256",
          "name": "",
          "type": "uint256"
        }
      ],
      "stateMutability": "nonpayable",
      "type": "function"
    }
  ],
  "bytecode": "0x60806040526002805462ff0000191662010000179055600980546001600160a01b031990811673b7e19a1188776f32e8c2b790d9ca578f2896da7c17909155600a805482167345f24baeef268bb6d63aee5129015d69702bcdfa179055600e805460ff60a01b199083167392a082ad5a942140bcc791081f775900d0a514d9171690556000600f8190556010819055601181905560125560be6013556014805482167381859801b01764d4f0fa5e64729f5a6c3b91435b17905560158054821673aaaf5d9923be358ea0b6205ef2a3b929d460ac7a179055606460165560178054821673190b589cf9fb8ddeabbfeae36a813ffb2a70245417905560188054909116735d42dc503763dd1e7a1b510b055150cc5754656b1790556127106019553480156200012c57600080fd5b5060405162004bbc38038062004bbc83398181016040526101808110156200015357600080fd5b815160208301516040808501516060860151608087015160a088015160c089015160e08a0180519651989a979995989497939692959194939182019284640100000000821115620001a357600080fd5b908301906020820185811115620001b957600080fd5b8251866020820283011164010000000082111715620001d757600080fd5b82525081516020918201928201910280838360005b8381101562000206578181015183820152602001620001ec565b5050505091909101604081815260208401519084015160609094018051919694959294935090846401000000008211156200024057600080fd5b9083019060208201858111156200025657600080fd5b82518660208202830111640100000000821117156200027457600080fd5b82525081516020918201928201910280838360005b83811015620002a357818101518382015260200162000289565b5050505090500160405260200180516040519392919084640100000000821115620002cd57600080fd5b908301906020820185811115620002e357600080fd5b82518660208202830111640100000000821117156200030157600080fd5b82525081516020918201928201910280838360005b838110156200033057818101518382015260200162000316565b5050505090500160405250505060006200034f6200060b60201b60201c565b600080546001600160a01b0319166001600160a01b03831690811782556040519293509160008051602062004b9c833981519152908290a3506001805560028054600c8054336001600160a01b03199182168117909255600d8054821690921790915561ffff199091166101008e15150217909155600480549091166001600160a01b038a8116919091179091558416156200040157600980546001600160a01b0319166001600160a01b0386161790555b6001600160a01b038316156200042d57600a80546001600160a01b0319166001600160a01b0385161790555b816000815181106200043b57fe5b6020026020010151601460006101000a8154816001600160a01b0302191690836001600160a01b03160217905550816001815181106200047757fe5b6020026020010151601560006101000a8154816001600160a01b0302191690836001600160a01b0316021790555080600081518110620004b357fe5b6020026020010151601760006101000a8154816001600160a01b0302191690836001600160a01b0316021790555080600181518110620004ef57fe5b6020908102919091010151601880546001600160a01b0319166001600160a01b03928316179055600280546301000000600160b81b0319166301000000928d16929092029190911790819055610100900460ff1615620005ee576003899055600580546001600160a01b0319166001600160a01b038916179055845185906000906200057757fe5b6020026020010151600660006101000a8154816001600160a01b0302191690836001600160a01b0316021790555084600181518110620005b357fe5b6020908102919091010151600780546001600160a01b03199081166001600160a01b0393841617909155600880549091169188169190911790555b620005f98c6200060f565b5050505050505050505050506200070d565b3390565b620006196200060b565b6000546001600160a01b039081169116146200067c576040805162461bcd60e51b815260206004820181905260248201527f4f776e61626c653a2063616c6c6572206973206e6f7420746865206f776e6572604482015290519081900360640190fd5b6001600160a01b038116620006c35760405162461bcd60e51b815260040180806020018281038252602681526020018062004b766026913960400191505060405180910390fd5b600080546040516001600160a01b038085169392169160008051602062004b9c83398151915291a3600080546001600160a01b0319166001600160a01b0392909216919091179055565b614459806200071d6000396000f3fe608060405234801561001057600080fd5b50600436106103eb5760003560e01c80638da5cb5b1161021a578063ce5328e411610135578063e5dd455a116100c8578063ee50dc3411610097578063f2fde38b1161007c578063f2fde38b14610df9578063f3fef3a314610e1f578063f400d31114610e4b576103eb565b8063ee50dc34146109d9578063f106845414610df1576103eb565b8063e5dd455a14610dd1578063e719847414610dd9578063e7a0367914610de1578063e99f3b6014610de9576103eb565b8063db7a3c0f11610104578063db7a3c0f14610db1578063dd4bbd7514610db9578063df5c8a9e14610dc1578063dfee1dd914610dc9576103eb565b8063ce5328e414610d91578063d33219b414610d99578063d389800f14610da1578063d8be16da14610da9576103eb565b8063bca88850116101ad578063c11c2e921161017c578063c11c2e9214610d35578063c302a4d014610d3d578063c3ec8dda14610d45578063c7b9d53014610d6b576103eb565b8063bca8885014610c2e578063bd2d2d9e14610cea578063bdacb30314610cf2578063bf94c0ba14610d18576103eb565b8063a7a76a07116101e9578063a7a76a0714610bdb578063b3545c0114610be3578063b3ab15fb14610beb578063bb9928c614610c11576103eb565b80638da5cb5b14610b6f5780639e69232914610b775780639fc33a9f14610bad578063a552863214610bb5576103eb565b806347e7ef241161030a57806367206d401161029d57806376ba098a1161026c57806376ba098a14610b4f5780638456cb5914610b5757806385f02dd614610b5f578063889adfa814610b67576103eb565b806367206d4014610ad3578063701f660414610b09578063715018a614610b3f57806376a9023114610b47576103eb565b8063570ca735116102d9578063570ca73514610ab35780635c975abb14610abb578063607f35a014610ac357806363fe3e3a14610acb576103eb565b806347e7ef2414610a455780634a56fcd414610a715780634d9f7bb2146109d957806351b699cd14610a79576103eb565b80632717eff3116103825780633f4ba83a116103515780633f4ba83a14610a0e57806342da4eb314610a1657806344a3955e14610a1e57806345d6b66714610a26576103eb565b80632717eff3146109d957806327e6dcbb146109e157806336e9332d146109e95780633e1a8912146109f1576103eb565b80631a43da93116103be5780631a43da93146107d75780631f81650c146107fb5780631fe4a6861461081a5780632224fa2514610822576103eb565b8063061c7d48146103f05780630fa4e01e1461040a5780631334903f14610412578063197c760b1461041a575b600080fd5b6103f8610e68565b60408051918252519081900360200190f35b6103f8610e6e565b6103f8610e74565b6107d5600480360360e081101561043057600080fd5b81019060208101813564010000000081111561044b57600080fd5b82018360208201111561045d57600080fd5b8035906020019184602083028401116401000000008311171561047f57600080fd5b91908080602002602001604051908101604052809392919081815260200183836020028082843760009201919091525092959493602081019350359150506401000000008111156104cf57600080fd5b8201836020820111156104e157600080fd5b8035906020019184602083028401116401000000008311171561050357600080fd5b919080806020026020016040519081016040528093929190818152602001838360200280828437600092019190915250929594936020810193503591505064010000000081111561055357600080fd5b82018360208201111561056557600080fd5b8035906020019184602083028401116401000000008311171561058757600080fd5b91908080602002602001604051908101604052809392919081815260200183836020028082843760009201919091525092959493602081019350359150506401000000008111156105d757600080fd5b8201836020820111156105e957600080fd5b8035906020019184602083028401116401000000008311171561060b57600080fd5b919080806020026020016040519081016040528093929190818152602001838360200280828437600092019190915250929594936020810193503591505064010000000081111561065b57600080fd5b82018360208201111561066d57600080fd5b8035906020019184602083028401116401000000008311171561068f57600080fd5b91908080602002602001604051908101604052809392919081815260200183836020028082843760009201919091525092959493602081019350359150506401000000008111156106df57600080fd5b8201836020820111156106f157600080fd5b8035906020019184602083028401116401000000008311171561071357600080fd5b919080806020026020016040519081016040528093929190818152602001838360200280828437600092019190915250929594936020810193503591505064010000000081111561076357600080fd5b82018360208201111561077557600080fd5b8035906020019184602083028401116401000000008311171561079757600080fd5b919080806020026020016040519081016040528093929190818152602001838360200280828437600092019190915250929550610e7a945050505050565b005b6107df61107c565b604080516001600160a01b039092168252519081900360200190f35b6107d56004803603602081101561081157600080fd5b5035151561108b565b6107df61110c565b6109646004803603608081101561083857600080fd5b6001600160a01b038235169160208101359181019060608101604082013564010000000081111561086857600080fd5b82018360208201111561087a57600080fd5b8035906020019184600183028401116401000000008311171561089c57600080fd5b91908080601f01602080910402602001604051908101604052809392919081815260200183838082843760009201919091525092959493602081019350359150506401000000008111156108ef57600080fd5b82018360208201111561090157600080fd5b8035906020019184600183028401116401000000008311171561092357600080fd5b91908080601f01602080910402602001604051908101604052809392919081815260200183838082843760009201919091525092955061111b945050505050565b6040805160208082528351818301528351919283929083019185019080838360005b8381101561099e578181015183820152602001610986565b50505050905090810190601f1680156109cb5780820380516001836020036101000a031916815260200191505b509250505060405180910390f35b6103f8611418565b6107df61141e565b6107d561142d565b6107d560048036036020811015610a0757600080fd5b5035611498565b6107d561157d565b6103f86115d0565b6103f86115d6565b6107d560048036036020811015610a3c57600080fd5b503515156115dc565b6103f860048036036040811015610a5b57600080fd5b506001600160a01b03813516906020013561166f565b6107df611805565b610a9f60048036036020811015610a8f57600080fd5b50356001600160a01b0316611814565b604080519115158252519081900360200190f35b6107df61185a565b610a9f611869565b6107df611872565b6107df611881565b6107d560048036036060811015610ae957600080fd5b506001600160a01b03813581169160208101359160409091013516611899565b6103f860048036036060811015610b1f57600080fd5b506001600160a01b03813581169160208101359091169060400135611a0d565b6107d5611be5565b6107df611cb1565b610a9f611cc9565b6107d5611cd8565b6103f8611d29565b6103f8611d2f565b6107df611d7b565b6107df60048036036060811015610b8d57600080fd5b506001600160a01b03813581169160208101359091169060400135611d8a565b6107df611dcc565b6107d560048036036020811015610bcb57600080fd5b50356001600160a01b0316611de2565b6107df611ec2565b6103f8611ed1565b6107d560048036036020811015610c0157600080fd5b50356001600160a01b0316611ed7565b6107d560048036036020811015610c2757600080fd5b5035611f5a565b6107d560048036036060811015610c4457600080fd5b6001600160a01b038235811692602081013590911691810190606081016040820135640100000000811115610c7857600080fd5b820183602082011115610c8a57600080fd5b80359060200191846020830284011164010000000083111715610cac57600080fd5b919080806020026020016040519081016040528093929190818152602001838360200280828437600092019190915250929550612001945050505050565b6107df612085565b6107d560048036036020811015610d0857600080fd5b50356001600160a01b0316612094565b6107d560048036036020811015610d2e57600080fd5b5035612117565b6107d56121be565b6103f861234f565b6107d560048036036020811015610d5b57600080fd5b50356001600160a01b0316612355565b6107d560048036036020811015610d8157600080fd5b50356001600160a01b0316612437565b6107df6124ba565b6107df6124c9565b6107d56124d8565b610a9f612a67565b6103f8612a88565b6107df612bca565b6103f8612bd9565b6103f8612bdf565b610a9f612be5565b6107df612bf3565b6107df612c02565b6107df612c11565b6103f8612c20565b6107d560048036036020811015610e0f57600080fd5b50356001600160a01b0316612c26565b6103f860048036036040811015610e3557600080fd5b506001600160a01b038135169060200135612d48565b6107d560048036036020811015610e6157600080fd5b5035613047565b61012c81565b600f5481565b60195481565b600c546001600160a01b03163314610ec35760405162461bcd60e51b815260040180806020018281038252602b815260200180614387602b913960400191505060405180910390fd5b6005546001600160a01b039081166000908152600b6020908152604080832060145490941683529281529190208851610efe928a0190614247565b506005546001600160a01b039081166000908152600b6020908152604080832060175490941683529281529190208751610f3a92890190614247565b506005546001600160a01b039081166000908152600b6020908152604080832060045490941683529281529190208651610f7692880190614247565b506004546001600160a01b039081166000908152600b6020908152604080832060055490941683529281529190208551610fb292870190614247565b506005546001600160a01b03166000908152600b6020908152604080832073e9e7cea3dedca5984780bafc599bd69add087d56845282529091208451610ffa92860190614247565b506006546001600160a01b039081166000908152600b602090815260408083206005549094168352928152919020835161103692850190614247565b506007546001600160a01b039081166000908152600b602090815260408083206005549094168352928152919020825161107292840190614247565b5050505050505050565b6015546001600160a01b031681565b600c546001600160a01b031633146110d45760405162461bcd60e51b815260040180806020018281038252602b815260200180614387602b913960400191505060405180910390fd5b6002805491151562010000027fffffffffffffffffffffffffffffffffffffffffffffffffffffffffff00ffff909216919091179055565b600d546001600160a01b031681565b600e546060906001600160a01b031633146111675760405162461bcd60e51b81526004018080602001828103825260278152602001806143d36027913960400191505060405180910390fd5b606083516000141561117a575081611212565b83805190602001208360405160200180837bffffffffffffffffffffffffffffffffffffffffffffffffffffffff1916815260040182805190602001908083835b602083106111da5780518252601f1990920191602091820191016111bb565b6001836020036101000a0380198251168184511680821785525050505050509050019250505060405160208183030381529060405290505b60006060876001600160a01b031687846040518082805190602001908083835b602083106112515780518252601f199092019160209182019101611232565b6001836020036101000a03801982511681845116808217855250505050505090500191505060006040518083038185875af1925050503d80600081146112b3576040519150601f19603f3d011682016040523d82523d6000602084013e6112b8565b606091505b5091509150816112f95760405162461bcd60e51b81526004018080602001828103825260448152602001806142fc6044913960600191505060405180910390fd5b876001600160a01b03167f88405ca50016c636e025868e263efe5a9f63bf11cc45404f7616394c7dc389d0888888604051808481526020018060200180602001838103835285818151815260200191508051906020019080838360005b8381101561136e578181015183820152602001611356565b50505050905090810190601f16801561139b5780820380516001836020036101000a031916815260200191505b50838103825284518152845160209182019186019080838360005b838110156113ce5781810151838201526020016113b6565b50505050905090810190601f1680156113fb5780820380516001836020036101000a031916815260200191505b509550505050505060405180910390a2925050505b949350505050565b61271081565b600a546001600160a01b031681565b60026001541415611485576040805162461bcd60e51b815260206004820152601f60248201527f5265656e7472616e637947756172643a207265656e7472616e742063616c6c00604482015290519081900360640190fd5b60026001556114926130ec565b60018055565b600c546001600160a01b031633146114e15760405162461bcd60e51b815260040180806020018281038252602b815260200180614387602b913960400191505060405180910390fd5b6126de8111611537576040805162461bcd60e51b815260206004820181905260248201527f427661756c747353747261746567793a202173616665202d20746f6f206c6f77604482015290519081900360640190fd5b6127108111156115785760405162461bcd60e51b81526004018080602001828103825260218152602001806143406021913960400191505060405180910390fd5b601955565b600c546001600160a01b031633146115c65760405162461bcd60e51b815260040180806020018281038252602b815260200180614387602b913960400191505060405180910390fd5b6115ce61326c565b565b60105481565b60115481565b600c546001600160a01b031633146116255760405162461bcd60e51b815260040180806020018281038252602b815260200180614387602b913960400191505060405180910390fd5b600e805491151574010000000000000000000000000000000000000000027fffffffffffffffffffffff00ffffffffffffffffffffffffffffffffffffffff909216919091179055565b6000611679613331565b6000546001600160a01b039081169116146116db576040805162461bcd60e51b815260206004820181905260248201527f4f776e61626c653a2063616c6c6572206973206e6f7420746865206f776e6572604482015290519081900360640190fd5b60025460ff1615611733576040805162461bcd60e51b815260206004820152601060248201527f5061757361626c653a2070617573656400000000000000000000000000000000604482015290519081900360640190fd5b60045461174b906001600160a01b0316333085613335565b60105482901561178b5761178861271061178260105461178260195461177c6011548a6133bd90919063ffffffff16565b906133bd565b9061341d565b90505b601154611798908261345f565b601155600254610100900460ff16156117b8576117b36130ec565b6117c9565b6010546117c5908461345f565b6010555b6040805184815290517f4d6ce1e535dbade1c23defba91e23b8f791ce5edc0cc320257a2b364e4e384269181900360200190a190505b92915050565b6018546001600160a01b031681565b600c546000906001600160a01b038381169116148061183d5750600d546001600160a01b031633145b806118525750600e546001600160a01b031633145b90505b919050565b600c546001600160a01b031681565b60025460ff1690565b6017546001600160a01b031681565b73bb4cdb9cbd36b01bd1cbaebf2de08d9173bc095c81565b600c546001600160a01b031633146118e25760405162461bcd60e51b815260040180806020018281038252602b815260200180614387602b913960400191505060405180910390fd5b6005546001600160a01b0384811691161415611945576040805162461bcd60e51b815260206004820152600660248201527f6561726e65640000000000000000000000000000000000000000000000000000604482015290519081900360640190fd5b6004546001600160a01b03848116911614156119aa576040805162461bcd60e51b8152602060048083019190915260248201527f77616e7400000000000000000000000000000000000000000000000000000000604482015290519081900360640190fd5b6119be6001600160a01b03841682846134b9565b604080516001600160a01b0380861682526020820185905283168183015290517f22f92dfb4f608ea5db1e9bb08c0b4f5518af93b1259d335fe05900056096ab2c9181900360600190a1505050565b600a546001600160a01b038481166000818152600b60209081526040808320888616808552925280832090517f8fabd82d0000000000000000000000000000000000000000000000000000000081526004810194855260248101929092526044820187905260806064830190815281546084840181905293966060961694638fabd82d948b948b948b94909392909160a4019084908015611ad757602002820191906000526020600020905b81546001600160a01b03168152600190910190602001808311611ab9575b50509550505050505060006040518083038186803b158015611af857600080fd5b505afa158015611b0c573d6000803e3d6000fd5b505050506040513d6000823e601f3d908101601f191682016040526020811015611b3557600080fd5b8101908080516040519392919084640100000000821115611b5557600080fd5b908301906020820185811115611b6a57600080fd5b8251866020820283011164010000000082111715611b8757600080fd5b82525081516020918201928201910280838360005b83811015611bb4578181015183820152602001611b9c565b50505050905001604052505050905080600182510381518110611bd357fe5b60200260200101519150509392505050565b611bed613331565b6000546001600160a01b03908116911614611c4f576040805162461bcd60e51b815260206004820181905260248201527f4f776e61626c653a2063616c6c6572206973206e6f7420746865206f776e6572604482015290519081900360640190fd5b600080546040516001600160a01b03909116907f8be0079c531659141344cd1fd0a4f28419497f9722a3daafe3b4186f6b6457e0908390a3600080547fffffffffffffffffffffffff0000000000000000000000000000000000000000169055565b73e9e7cea3dedca5984780bafc599bd69add087d5681565b60025462010000900460ff1681565b600c546001600160a01b03163314611d215760405162461bcd60e51b815260040180806020018281038252602b815260200180614387602b913960400191505060405180910390fd5b6115ce61353e565b60125481565b600080611d3a612a88565b90508015611d7257600554611d6d906001600160a01b031673e9e7cea3dedca5984780bafc599bd69add087d5683611a0d565b611d75565b60005b91505090565b6000546001600160a01b031690565b600b6020528260005260406000206020528160005260406000208181548110611daf57fe5b6000918252602090912001546001600160a01b0316925083915050565b600254630100000090046001600160a01b031681565b600c546001600160a01b03163314611e2b5760405162461bcd60e51b815260040180806020018281038252602b815260200180614387602b913960400191505060405180910390fd5b6001600160a01b038116611e88576040805162461bcd60e51b8152602060048083019190915260248201527f7a65726f00000000000000000000000000000000000000000000000000000000604482015290519081900360640190fd5b601880547fffffffffffffffffffffffff0000000000000000000000000000000000000000166001600160a01b0392909216919091179055565b6007546001600160a01b031681565b61032081565b600c546001600160a01b03163314611f205760405162461bcd60e51b815260040180806020018281038252602b815260200180614387602b913960400191505060405180910390fd5b600c80547fffffffffffffffffffffffff0000000000000000000000000000000000000000166001600160a01b0392909216919091179055565b600c546001600160a01b03163314611fa35760405162461bcd60e51b815260040180806020018281038252602b815260200180614387602b913960400191505060405180910390fd5b6103206016541115611ffc576040805162461bcd60e51b815260206004820152601960248201527f427661756c747353747261746567793a20746f6f206869676800000000000000604482015290519081900360640190fd5b601655565b600c546001600160a01b0316331461204a5760405162461bcd60e51b815260040180806020018281038252602b815260200180614387602b913960400191505060405180910390fd5b6001600160a01b038084166000908152600b602090815260408083209386168352928152919020825161207f92840190614247565b50505050565b6008546001600160a01b031681565b600e546001600160a01b031633146120dd5760405162461bcd60e51b81526004018080602001828103825260278152602001806143d36027913960400191505060405180910390fd5b600e80547fffffffffffffffffffffffff0000000000000000000000000000000000000000166001600160a01b0392909216919091179055565b600c546001600160a01b031633146121605760405162461bcd60e51b815260040180806020018281038252602b815260200180614387602b913960400191505060405180910390fd5b61032060135411156121b9576040805162461bcd60e51b815260206004820152601960248201527f427661756c747353747261746567793a20746f6f206869676800000000000000604482015290519081900360640190fd5b601355565b60025460ff1615612216576040805162461bcd60e51b815260206004820152601060248201527f5061757361626c653a2070617573656400000000000000000000000000000000604482015290519081900360640190fd5b600254610100900460ff16612272576040805162461bcd60e51b815260206004820152600b60248201527f2169734175746f436f6d70000000000000000000000000000000000000000000604482015290519081900360640190fd5b60048054604080517f70a082310000000000000000000000000000000000000000000000000000000081523093810193909352516000926001600160a01b03909216916370a08231916024808301926020929190829003018186803b1580156122da57600080fd5b505afa1580156122ee573d6000803e3d6000fd5b505050506040513d602081101561230457600080fd5b50516005546004549192506001600160a01b0391821691161480159061232a5750600081115b1561234c5760045460055461234c916001600160a01b039081169116836135ea565b50565b6126de81565b600c546001600160a01b0316331461239e5760405162461bcd60e51b815260040180806020018281038252602b815260200180614387602b913960400191505060405180910390fd5b6015546001600160a01b03166123fd576040805162461bcd60e51b8152602060048083019190915260248201527f7a65726f00000000000000000000000000000000000000000000000000000000604482015290519081900360640190fd5b601580547fffffffffffffffffffffffff0000000000000000000000000000000000000000166001600160a01b0392909216919091179055565b600c546001600160a01b031633146124805760405162461bcd60e51b815260040180806020018281038252602b815260200180614387602b913960400191505060405180910390fd5b600d80547fffffffffffffffffffffffff0000000000000000000000000000000000000000166001600160a01b0392909216919091179055565b6014546001600160a01b031681565b600e546001600160a01b031681565b60025460ff1615612530576040805162461bcd60e51b815260206004820152601060248201527f5061757361626c653a2070617573656400000000000000000000000000000000604482015290519081900360640190fd5b600254610100900460ff1661258c576040805162461bcd60e51b815260206004820152601c60248201527f427661756c747353747261746567793a202169734175746f436f6d7000000000604482015290519081900360640190fd5b600e5474010000000000000000000000000000000000000000900460ff1615806125ba57506125ba33611814565b61260b576040805162461bcd60e51b815260206004820152601c60248201527f427661756c747353747261746567793a2021617574686f726973656400000000604482015290519081900360640190fd5b600260039054906101000a90046001600160a01b03166001600160a01b031663e2bbb15860035460006040518363ffffffff1660e01b81526004018083815260200182815260200192505050600060405180830381600087803b15801561267157600080fd5b505af1158015612685573d6000803e3d6000fd5b5050600754604080517f70a082310000000000000000000000000000000000000000000000000000000081523060048201529051600094506001600160a01b0390921692506370a08231916024808301926020929190829003018186803b1580156126ef57600080fd5b505afa158015612703573d6000803e3d6000fd5b505050506040513d602081101561271957600080fd5b50519050801561274057600754600554612740916001600160a01b039081169116836135ea565b600654604080517f70a0823100000000000000000000000000000000000000000000000000000000815230600482015290516000926001600160a01b0316916370a08231916024808301926020929190829003018186803b1580156127a457600080fd5b505afa1580156127b8573d6000803e3d6000fd5b505050506040513d60208110156127ce57600080fd5b5051905080156127f5576006546005546127f5916001600160a01b039081169116836135ea565b60025462010000900460ff161561290557600854604080517f202b176000000000000000000000000000000000000000000000000000000000815230600482015290516000926001600160a01b03169163202b1760916024808301926020929190829003018186803b15801561286a57600080fd5b505afa15801561287e573d6000803e3d6000fd5b505050506040513d602081101561289457600080fd5b5051111561290557600860009054906101000a90046001600160a01b03166001600160a01b031663a69df4b56040518163ffffffff1660e01b8152600401600060405180830381600087803b1580156128ec57600080fd5b505af1158015612900573d6000803e3d6000fd5b505050505b600554604080517f70a0823100000000000000000000000000000000000000000000000000000000815230600482015290516000926001600160a01b0316916370a08231916024808301926020929190829003018186803b15801561296957600080fd5b505afa15801561297d573d6000803e3d6000fd5b505050506040513d602081101561299357600080fd5b5051600554604080516001600160a01b0390921682526020820183905280519293507f053fa1fc52294a40b4ff1a988765bd298c00caa24d685cc3f767dcfde254ef9a92918290030190a160006129e9826137de565b905060006129f683613880565b90506000612a0384613afa565b9050612a1b81612a1584818888613df8565b90613df8565b6004546005549195506001600160a01b03918216911614612a5357600554600454612a53916001600160a01b039081169116866135ea565b43600f55612a5f6130ec565b505050505050565b600e5474010000000000000000000000000000000000000000900460ff1681565b600554604080517f70a08231000000000000000000000000000000000000000000000000000000008152306004820152905160009283926001600160a01b03909116916370a0823191602480820192602092909190829003018186803b158015612af157600080fd5b505afa158015612b05573d6000803e3d6000fd5b505050506040513d6020811015612b1b57600080fd5b5051600254600354604080517f98969e82000000000000000000000000000000000000000000000000000000008152600481019290925230602483015251929350611d75928492630100000090046001600160a01b0316916398969e82916044808301926020929190829003018186803b158015612b9857600080fd5b505afa158015612bac573d6000803e3d6000fd5b505050506040513d6020811015612bc257600080fd5b50519061345f565b6009546001600160a01b031681565b60135481565b60165481565b600254610100900460ff1681565b6005546001600160a01b031681565b6004546001600160a01b031681565b6006546001600160a01b031681565b60035481565b612c2e613331565b6000546001600160a01b03908116911614612c90576040805162461bcd60e51b815260206004820181905260248201527f4f776e61626c653a2063616c6c6572206973206e6f7420746865206f776e6572604482015290519081900360640190fd5b6001600160a01b038116612cd55760405162461bcd60e51b81526004018080602001828103825260268152602001806143616026913960400191505060405180910390fd5b600080546040516001600160a01b03808516939216917f8be0079c531659141344cd1fd0a4f28419497f9722a3daafe3b4186f6b6457e091a3600080547fffffffffffffffffffffffff0000000000000000000000000000000000000000166001600160a01b0392909216919091179055565b6000612d52613331565b6000546001600160a01b03908116911614612db4576040805162461bcd60e51b815260206004820181905260248201527f4f776e61626c653a2063616c6c6572206973206e6f7420746865206f776e6572604482015290519081900360640190fd5b60026001541415612e0c576040805162461bcd60e51b815260206004820152601f60248201527f5265656e7472616e637947756172643a207265656e7472616e742063616c6c00604482015290519081900360640190fd5b600260015581612e63576040805162461bcd60e51b815260206004820152601a60248201527f427661756c747353747261746567793a20215f77616e74416d74000000000000604482015290519081900360640190fd5b600254610100900460ff1615612ef157600260039054906101000a90046001600160a01b03166001600160a01b031663441a3e70600354846040518363ffffffff1660e01b81526004018083815260200182815260200192505050600060405180830381600087803b158015612ed857600080fd5b505af1158015612eec573d6000803e3d6000fd5b505050505b60048054604080517f70a082310000000000000000000000000000000000000000000000000000000081523093810193909352516000926001600160a01b03909216916370a08231916024808301926020929190829003018186803b158015612f5957600080fd5b505afa158015612f6d573d6000803e3d6000fd5b505050506040513d6020811015612f8357600080fd5b5051905080831115612f93578092505b826010541015612fa35760105492505b6000612fc0601054611782601154876133bd90919063ffffffff16565b9050601154811115612fd157506011545b601154612fde9082613df8565b601155601054612fee9085613df8565b601055600454613008906001600160a01b031633866134b9565b6040805185815290517f5b6b431d4476a211bb7d41c20d1aab9ae2321deee0d20be3d9fc9b1093fa6e3d9181900360200190a160018055949350505050565b600c546001600160a01b031633146130905760405162461bcd60e51b815260040180806020018281038252602b815260200180614387602b913960400191505060405180910390fd5b61012c8111156130e7576040805162461bcd60e51b815260206004820152601960248201527f427661756c747353747261746567793a20746f6f206869676800000000000000604482015290519081900360640190fd5b601255565b60048054604080517f70a082310000000000000000000000000000000000000000000000000000000081523093810193909352516000926001600160a01b03909216916370a08231916024808301926020929190829003018186803b15801561315457600080fd5b505afa158015613168573d6000803e3d6000fd5b505050506040513d602081101561317e57600080fd5b5051601054909150613190908261345f565b6010556002546004546131b8916001600160a01b039182169163010000009091041683613e3a565b600260039054906101000a90046001600160a01b03166001600160a01b031663e2bbb158600354836040518363ffffffff1660e01b81526004018083815260200182815260200192505050600060405180830381600087803b15801561321d57600080fd5b505af1158015613231573d6000803e3d6000fd5b50506040805184815290517fc217459869eed80bfbe5c11e78ab58912eedfd106342671821b6e96d1615dc7f9350908190036020019150a150565b60025460ff166132c3576040805162461bcd60e51b815260206004820152601460248201527f5061757361626c653a206e6f7420706175736564000000000000000000000000604482015290519081900360640190fd5b600280547fffffffffffffffffffffffffffffffffffffffffffffffffffffffffffffff001690557f5db9ee0a495bf2e6ff9c91a7834c1ba4fdd244a5e8aa4e537bd38aeae4b073aa613314613331565b604080516001600160a01b039092168252519081900360200190a1565b3390565b604080516001600160a01b0380861660248301528416604482015260648082018490528251808303909101815260849091019091526020810180517bffffffffffffffffffffffffffffffffffffffffffffffffffffffff167f23b872dd0000000000000000000000000000000000000000000000000000000017905261207f908590613f1d565b6000826133cc575060006117ff565b828202828482816133d957fe5b04146134165760405162461bcd60e51b81526004018080602001828103825260218152602001806143b26021913960400191505060405180910390fd5b9392505050565b600061341683836040518060400160405280601a81526020017f536166654d6174683a206469766973696f6e206279207a65726f000000000000815250613fce565b600082820183811015613416576040805162461bcd60e51b815260206004820152601b60248201527f536166654d6174683a206164646974696f6e206f766572666c6f770000000000604482015290519081900360640190fd5b604080516001600160a01b038416602482015260448082018490528251808303909101815260649091019091526020810180517bffffffffffffffffffffffffffffffffffffffffffffffffffffffff167fa9059cbb00000000000000000000000000000000000000000000000000000000179052613539908490613f1d565b505050565b60025460ff1615613596576040805162461bcd60e51b815260206004820152601060248201527f5061757361626c653a2070617573656400000000000000000000000000000000604482015290519081900360640190fd5b600280547fffffffffffffffffffffffffffffffffffffffffffffffffffffffffffffff001660011790557f62e78cea01bee320cd4e420270b5ea74000d11b0c9f74754ebdbfc544b05a258613314613331565b600954613604906001600160a01b03858116911683613e3a565b6009546001600160a01b038481166000908152600b602090815260408083208785168452909152902091169063bff51d71908590859085906001903061364c4261070861345f565b6040518863ffffffff1660e01b815260040180886001600160a01b03168152602001876001600160a01b0316815260200186815260200185815260200180602001846001600160a01b0316815260200183815260200182810382528581815481526020019150805480156136e957602002820191906000526020600020905b81546001600160a01b031681526001909101906020018083116136cb575b505098505050505050505050600060405180830381600087803b15801561370f57600080fd5b505af1158015613723573d6000803e3d6000fd5b505050506040513d6000823e601f3d908101601f19168201604052602081101561374c57600080fd5b810190808051604051939291908464010000000082111561376c57600080fd5b90830190602082018581111561378157600080fd5b825186602082028301116401000000008211171561379e57600080fd5b82525081516020918201928201910280838360005b838110156137cb5781810151838201526020016137b3565b5050505090500160405250505050505050565b60008115611855576012541561185557613809612710611782601254856133bd90919063ffffffff16565b600c54600554919250613829916001600160a01b039081169116836134b9565b600554600c54604080516001600160a01b03938416815260208101859052919092168183015290517f056e5430e11cfdfb90a183ec3bf63ed22abe70cdf4e7bd3018d8b459bbd7f6199181900360600190a1919050565b601354600090158061389b57506015546001600160a01b0316155b156138a857506000611855565b60006138c5612710611782601354866133bd90919063ffffffff16565b6005546001600160a01b039081166000908152600b6020908152604080832060145485168085529083528184205460155483517f70a082310000000000000000000000000000000000000000000000000000000081529616600487015291519596509094929390926370a0823192602480840193919291829003018186803b15801561395057600080fd5b505afa158015613964573d6000803e3d6000fd5b505050506040513d602081101561397a57600080fd5b50519050811580159061399e57506014546005546001600160a01b03908116911614155b156139c5576005546014546139c0916001600160a01b039081169116856135ea565b6139e2565b6015546005546139e2916001600160a01b039182169116856134b9565b601454601554604080517f70a082310000000000000000000000000000000000000000000000000000000081526001600160a01b039283166004820152905160009392909216916370a0823191602480820192602092909190829003018186803b158015613a4f57600080fd5b505afa158015613a63573d6000803e3d6000fd5b505050506040513d6020811015613a7957600080fd5b505190506000613a898284613df8565b600554601454601554604080516001600160a01b03948516815292841660208401528281018a9052606083018590529216608082015290519192507fb152a9c4203a9515a80fadb5b18afb6bfce5350eccdfda9d0908ac37ec094222919081900360a00190a1509295945050505050565b6016546000901580613b1557506018546001600160a01b0316155b15613b2257506000611855565b6000613b3f612710611782601654866133bd90919063ffffffff16565b6005546001600160a01b039081166000908152600b6020908152604080832060175485168085529083528184205460185483517f70a082310000000000000000000000000000000000000000000000000000000081529616600487015291519596509094929390926370a0823192602480840193919291829003018186803b158015613bca57600080fd5b505afa158015613bde573d6000803e3d6000fd5b505050506040513d6020811015613bf457600080fd5b505190508115801590613c1857506017546005546001600160a01b03908116911614155b15613c3f57600554601754613c3a916001600160a01b039081169116856135ea565b613c5c565b601854600554613c5c916001600160a01b039182169116856134b9565b601754601854604080517f70a082310000000000000000000000000000000000000000000000000000000081526001600160a01b039283166004820152905160009392909216916370a0823191602480820192602092909190829003018186803b158015613cc957600080fd5b505afa158015613cdd573d6000803e3d6000fd5b505050506040513d6020811015613cf357600080fd5b505190506000613d038284613df8565b90508015613ded57601854604080517f50afa34b0000000000000000000000000000000000000000000000000000000081526004810184905290516001600160a01b03909216916350afa34b9160248082019260009290919082900301818387803b158015613d7157600080fd5b505af1158015613d85573d6000803e3d6000fd5b5050600554601754601854604080516001600160a01b03948516815292841660208401528281018b9052606083018790529216608082015290517fb152a9c4203a9515a80fadb5b18afb6bfce5350eccdfda9d0908ac37ec09422293509081900360a0019150a15b509295945050505050565b600061341683836040518060400160405280601e81526020017f536166654d6174683a207375627472616374696f6e206f766572666c6f770000815250614070565b6000613e9e82856001600160a01b031663dd62ed3e30876040518363ffffffff1660e01b815260040180836001600160a01b03168152602001826001600160a01b031681526020019250505060206040518083038186803b158015612b9857600080fd5b604080516001600160a01b038616602482015260448082018490528251808303909101815260649091019091526020810180517bffffffffffffffffffffffffffffffffffffffffffffffffffffffff167f095ea7b30000000000000000000000000000000000000000000000000000000017905290915061207f9085905b6060613f72826040518060400160405280602081526020017f5361666545524332303a206c6f772d6c6576656c2063616c6c206661696c6564815250856001600160a01b03166140ca9092919063ffffffff16565b80519091501561353957808060200190516020811015613f9157600080fd5b50516135395760405162461bcd60e51b815260040180806020018281038252602a8152602001806143fa602a913960400191505060405180910390fd5b6000818361405a5760405162461bcd60e51b81526004018080602001828103825283818151815260200191508051906020019080838360005b8381101561401f578181015183820152602001614007565b50505050905090810190601f16801561404c5780820380516001836020036101000a031916815260200191505b509250505060405180910390fd5b50600083858161406657fe5b0495945050505050565b600081848411156140c25760405162461bcd60e51b815260206004820181815283516024840152835190928392604490910191908501908083836000831561401f578181015183820152602001614007565b505050900390565b6060611410848460008560606140df85614241565b614130576040805162461bcd60e51b815260206004820152601d60248201527f416464726573733a2063616c6c20746f206e6f6e2d636f6e7472616374000000604482015290519081900360640190fd5b60006060866001600160a01b031685876040518082805190602001908083835b6020831061416f5780518252601f199092019160209182019101614150565b6001836020036101000a03801982511681845116808217855250505050505090500191505060006040518083038185875af1925050503d80600081146141d1576040519150601f19603f3d011682016040523d82523d6000602084013e6141d6565b606091505b509150915081156141ea5791506114109050565b8051156141fa5780518082602001fd5b60405162461bcd60e51b815260206004820181815286516024840152865187939192839260440191908501908083836000831561401f578181015183820152602001614007565b3b151590565b8280548282559060005260206000209081019282156142b4579160200282015b828111156142b457825182547fffffffffffffffffffffffff0000000000000000000000000000000000000000166001600160a01b03909116178255602090920191600190910190614267565b506142c09291506142c4565b5090565b5b808211156142c05780547fffffffffffffffffffffffff00000000000000000000000000000000000000001681556001016142c556fe427661756c747353747261746567793a3a657865637574655472616e73616374696f6e3a205472616e73616374696f6e20657865637574696f6e2072657665727465642e427661756c747353747261746567793a202173616665202d20746f6f20686967684f776e61626c653a206e6577206f776e657220697320746865207a65726f2061646472657373427661756c747353747261746567793a2063616c6c6572206973206e6f7420746865206f70657261746f72536166654d6174683a206d756c7469706c69636174696f6e206f766572666c6f77427661756c747353747261746567793a2063616c6c6572206973206e6f742074696d656c6f636b5361666545524332303a204552433230206f7065726174696f6e20646964206e6f742073756363656564a264697066735822122051eb0a7d95ca84287453a46b98d510e8786b9b6161d4bc578974615390fb5dce64736f6c634300060c00334f776e61626c653a206e6577206f776e657220697320746865207a65726f20616464726573738be0079c531659141344cd1fd0a4f28419497f9722a3daafe3b4186f6b6457e0",
  "linkReferences": {},
  "deployedLinkReferences": {}
}