{
  "_format": "hh-sol-artifact-1",
  "contractName": "BvaultsStrategy",
  "sourceName": "contracts/BvaultsStrategy.4.vswap.ratio.mdg2.sol",
  "abi": [
    {
      "inputs": [
        {
          "internalType": "address",
          "name": "_controller",
          "type": "address"
        },
        {
          "internalType": "bool",
          "name": "_isAutoComp",
          "type": "bool"
        },
        {
          "internalType": "address",
          "name": "_farmContractAddress",
          "type": "address"
        },
        {
          "internalType": "uint256",
          "name": "_pid",
          "type": "uint256"
        },
        {
          "internalType": "address",
          "name": "_wantAddress",
          "type": "address"
        },
        {
          "internalType": "address",
          "name": "_earnedAddress",
          "type": "address"
        },
        {
          "internalType": "address",
          "name": "_mdgLockerAddress",
          "type": "address"
        },
        {
          "internalType": "address",
          "name": "_vswapRouterAddress",
          "type": "address"
        },
        {
          "internalType": "address",
          "name": "_vswapFormula",
          "type": "address"
        },
        {
          "internalType": "address[]",
          "name": "_buyBackToken1Info",
          "type": "address[]"
        },
        {
          "internalType": "address[]",
          "name": "_buyBackToken2Info",
          "type": "address[]"
        },
        {
          "internalType": "address",
          "name": "_token0",
          "type": "address"
        },
        {
          "internalType": "address",
          "name": "_token1",
          "type": "address"
        },
        {
          "internalType": "uint256",
          "name": "_ratio0",
          "type": "uint256"
        }
      ],
      "stateMutability": "nonpayable",
      "type": "constructor"
    },
    {
      "anonymous": false,
      "inputs": [
        {
          "indexed": false,
          "internalType": "address",
          "name": "earnedAddress",
          "type": "address"
        },
        {
          "indexed": false,
          "internalType": "address",
          "name": "buyBackToken",
          "type": "address"
        },
        {
          "indexed": false,
          "internalType": "uint256",
          "name": "earnedAmt",
          "type": "uint256"
        },
        {
          "indexed": false,
          "internalType": "uint256",
          "name": "buyBackAmt",
          "type": "uint256"
        },
        {
          "indexed": false,
          "internalType": "address",
          "name": "receiver",
          "type": "address"
        }
      ],
      "name": "BuyBack",
      "type": "event"
    },
    {
      "anonymous": false,
      "inputs": [
        {
          "indexed": false,
          "internalType": "address",
          "name": "token0Address",
          "type": "address"
        },
        {
          "indexed": false,
          "internalType": "uint256",
          "name": "token0Amt",
          "type": "uint256"
        },
        {
          "indexed": false,
          "internalType": "address",
          "name": "token1Address",
          "type": "address"
        },
        {
          "indexed": false,
          "internalType": "uint256",
          "name": "token1Amt",
          "type": "uint256"
        }
      ],
      "name": "Compound",
      "type": "event"
    },
    {
      "anonymous": false,
      "inputs": [
        {
          "indexed": false,
          "internalType": "address",
          "name": "tokenAddress",
          "type": "address"
        },
        {
          "indexed": false,
          "internalType": "address",
          "name": "earnedAddress",
          "type": "address"
        },
        {
          "indexed": false,
          "internalType": "uint256",
          "name": "tokenAmt",
          "type": "uint256"
        }
      ],
      "name": "ConvertDustToEarned",
      "type": "event"
    },
    {
      "anonymous": false,
      "inputs": [
        {
          "indexed": false,
          "internalType": "uint256",
          "name": "amount",
          "type": "uint256"
        }
      ],
      "name": "Deposit",
      "type": "event"
    },
    {
      "anonymous": false,
      "inputs": [
        {
          "indexed": false,
          "internalType": "address",
          "name": "earnedAddress",
          "type": "address"
        },
        {
          "indexed": false,
          "internalType": "uint256",
          "name": "fee",
          "type": "uint256"
        },
        {
          "indexed": false,
          "internalType": "address",
          "name": "receiver",
          "type": "address"
        }
      ],
      "name": "DistributeFee",
      "type": "event"
    },
    {
      "anonymous": false,
      "inputs": [
        {
          "indexed": false,
          "internalType": "address",
          "name": "earnedAddress",
          "type": "address"
        },
        {
          "indexed": false,
          "internalType": "uint256",
          "name": "earnedAmt",
          "type": "uint256"
        }
      ],
      "name": "Earned",
      "type": "event"
    },
    {
      "anonymous": false,
      "inputs": [
        {
          "indexed": true,
          "internalType": "address",
          "name": "target",
          "type": "address"
        },
        {
          "indexed": false,
          "internalType": "uint256",
          "name": "value",
          "type": "uint256"
        },
        {
          "indexed": false,
          "internalType": "string",
          "name": "signature",
          "type": "string"
        },
        {
          "indexed": false,
          "internalType": "bytes",
          "name": "data",
          "type": "bytes"
        }
      ],
      "name": "ExecuteTransaction",
      "type": "event"
    },
    {
      "anonymous": false,
      "inputs": [
        {
          "indexed": false,
          "internalType": "uint256",
          "name": "amount",
          "type": "uint256"
        }
      ],
      "name": "Farm",
      "type": "event"
    },
    {
      "anonymous": false,
      "inputs": [
        {
          "indexed": false,
          "internalType": "address",
          "name": "tokenAddress",
          "type": "address"
        },
        {
          "indexed": false,
          "internalType": "uint256",
          "name": "tokenAmt",
          "type": "uint256"
        },
        {
          "indexed": false,
          "internalType": "address",
          "name": "receiver",
          "type": "address"
        }
      ],
      "name": "InCaseTokensGetStuck",
      "type": "event"
    },
    {
      "anonymous": false,
      "inputs": [
        {
          "indexed": true,
          "internalType": "address",
          "name": "previousOwner",
          "type": "address"
        },
        {
          "indexed": true,
          "internalType": "address",
          "name": "newOwner",
          "type": "address"
        }
      ],
      "name": "OwnershipTransferred",
      "type": "event"
    },
    {
      "anonymous": false,
      "inputs": [
        {
          "indexed": false,
          "internalType": "address",
          "name": "account",
          "type": "address"
        }
      ],
      "name": "Paused",
      "type": "event"
    },
    {
      "anonymous": false,
      "inputs": [
        {
          "indexed": false,
          "internalType": "address",
          "name": "account",
          "type": "address"
        }
      ],
      "name": "Unpaused",
      "type": "event"
    },
    {
      "anonymous": false,
      "inputs": [
        {
          "indexed": false,
          "internalType": "uint256",
          "name": "amount",
          "type": "uint256"
        }
      ],
      "name": "Withdraw",
      "type": "event"
    },
    {
      "inputs": [],
      "name": "busdAddress",
      "outputs": [
        {
          "internalType": "address",
          "name": "",
          "type": "address"
        }
      ],
      "stateMutability": "view",
      "type": "function"
    },
    {
      "inputs": [],
      "name": "buyBackAddress1",
      "outputs": [
        {
          "internalType": "address",
          "name": "",
          "type": "address"
        }
      ],
      "stateMutability": "view",
      "type": "function"
    },
    {
      "inputs": [],
      "name": "buyBackAddress2",
      "outputs": [
        {
          "internalType": "address",
          "name": "",
          "type": "address"
        }
      ],
      "stateMutability": "view",
      "type": "function"
    },
    {
      "inputs": [],
      "name": "buyBackRate1",
      "outputs": [
        {
          "internalType": "uint256",
          "name": "",
          "type": "uint256"
        }
      ],
      "stateMutability": "view",
      "type": "function"
    },
    {
      "inputs": [],
      "name": "buyBackRate2",
      "outputs": [
        {
          "internalType": "uint256",
          "name": "",
          "type": "uint256"
        }
      ],
      "stateMutability": "view",
      "type": "function"
    },
    {
      "inputs": [],
      "name": "buyBackRateMax",
      "outputs": [
        {
          "internalType": "uint256",
          "name": "",
          "type": "uint256"
        }
      ],
      "stateMutability": "view",
      "type": "function"
    },
    {
      "inputs": [],
      "name": "buyBackRateUL",
      "outputs": [
        {
          "internalType": "uint256",
          "name": "",
          "type": "uint256"
        }
      ],
      "stateMutability": "view",
      "type": "function"
    },
    {
      "inputs": [],
      "name": "buyBackToken1",
      "outputs": [
        {
          "internalType": "address",
          "name": "",
          "type": "address"
        }
      ],
      "stateMutability": "view",
      "type": "function"
    },
    {
      "inputs": [],
      "name": "buyBackToken2",
      "outputs": [
        {
          "internalType": "address",
          "name": "",
          "type": "address"
        }
      ],
      "stateMutability": "view",
      "type": "function"
    },
    {
      "inputs": [],
      "name": "checkForUnlockReward",
      "outputs": [
        {
          "internalType": "bool",
          "name": "",
          "type": "bool"
        }
      ],
      "stateMutability": "view",
      "type": "function"
    },
    {
      "inputs": [],
      "name": "controllerFee",
      "outputs": [
        {
          "internalType": "uint256",
          "name": "",
          "type": "uint256"
        }
      ],
      "stateMutability": "view",
      "type": "function"
    },
    {
      "inputs": [],
      "name": "controllerFeeMax",
      "outputs": [
        {
          "internalType": "uint256",
          "name": "",
          "type": "uint256"
        }
      ],
      "stateMutability": "view",
      "type": "function"
    },
    {
      "inputs": [],
      "name": "controllerFeeUL",
      "outputs": [
        {
          "internalType": "uint256",
          "name": "",
          "type": "uint256"
        }
      ],
      "stateMutability": "view",
      "type": "function"
    },
    {
      "inputs": [],
      "name": "convertDustToEarned",
      "outputs": [],
      "stateMutability": "nonpayable",
      "type": "function"
    },
    {
      "inputs": [
        {
          "internalType": "address",
          "name": "",
          "type": "address"
        },
        {
          "internalType": "uint256",
          "name": "_wantAmt",
          "type": "uint256"
        }
      ],
      "name": "deposit",
      "outputs": [
        {
          "internalType": "uint256",
          "name": "",
          "type": "uint256"
        }
      ],
      "stateMutability": "nonpayable",
      "type": "function"
    },
    {
      "inputs": [],
      "name": "earn",
      "outputs": [],
      "stateMutability": "nonpayable",
      "type": "function"
    },
    {
      "inputs": [],
      "name": "earnedAddress",
      "outputs": [
        {
          "internalType": "address",
          "name": "",
          "type": "address"
        }
      ],
      "stateMutability": "view",
      "type": "function"
    },
    {
      "inputs": [],
      "name": "entranceFeeFactor",
      "outputs": [
        {
          "internalType": "uint256",
          "name": "",
          "type": "uint256"
        }
      ],
      "stateMutability": "view",
      "type": "function"
    },
    {
      "inputs": [],
      "name": "entranceFeeFactorLL",
      "outputs": [
        {
          "internalType": "uint256",
          "name": "",
          "type": "uint256"
        }
      ],
      "stateMutability": "view",
      "type": "function"
    },
    {
      "inputs": [],
      "name": "entranceFeeFactorMax",
      "outputs": [
        {
          "internalType": "uint256",
          "name": "",
          "type": "uint256"
        }
      ],
      "stateMutability": "view",
      "type": "function"
    },
    {
      "inputs": [
        {
          "internalType": "address",
          "name": "_inputToken",
          "type": "address"
        },
        {
          "internalType": "address",
          "name": "_outputToken",
          "type": "address"
        },
        {
          "internalType": "uint256",
          "name": "_tokenAmount",
          "type": "uint256"
        }
      ],
      "name": "exchangeRate",
      "outputs": [
        {
          "internalType": "uint256",
          "name": "",
          "type": "uint256"
        }
      ],
      "stateMutability": "view",
      "type": "function"
    },
    {
      "inputs": [
        {
          "internalType": "address",
          "name": "target",
          "type": "address"
        },
        {
          "internalType": "uint256",
          "name": "value",
          "type": "uint256"
        },
        {
          "internalType": "string",
          "name": "signature",
          "type": "string"
        },
        {
          "internalType": "bytes",
          "name": "data",
          "type": "bytes"
        }
      ],
      "name": "executeTransaction",
      "outputs": [
        {
          "internalType": "bytes",
          "name": "",
          "type": "bytes"
        }
      ],
      "stateMutability": "nonpayable",
      "type": "function"
    },
    {
      "inputs": [],
      "name": "farm",
      "outputs": [],
      "stateMutability": "nonpayable",
      "type": "function"
    },
    {
      "inputs": [],
      "name": "farmContractAddress",
      "outputs": [
        {
          "internalType": "address",
          "name": "",
          "type": "address"
        }
      ],
      "stateMutability": "view",
      "type": "function"
    },
    {
      "inputs": [
        {
          "internalType": "address",
          "name": "_token",
          "type": "address"
        },
        {
          "internalType": "uint256",
          "name": "_amount",
          "type": "uint256"
        },
        {
          "internalType": "address",
          "name": "_to",
          "type": "address"
        }
      ],
      "name": "inCaseTokensGetStuck",
      "outputs": [],
      "stateMutability": "nonpayable",
      "type": "function"
    },
    {
      "inputs": [
        {
          "internalType": "address",
          "name": "_account",
          "type": "address"
        }
      ],
      "name": "isAuthorised",
      "outputs": [
        {
          "internalType": "bool",
          "name": "",
          "type": "bool"
        }
      ],
      "stateMutability": "view",
      "type": "function"
    },
    {
      "inputs": [],
      "name": "isAutoComp",
      "outputs": [
        {
          "internalType": "bool",
          "name": "",
          "type": "bool"
        }
      ],
      "stateMutability": "view",
      "type": "function"
    },
    {
      "inputs": [],
      "name": "lastEarnBlock",
      "outputs": [
        {
          "internalType": "uint256",
          "name": "",
          "type": "uint256"
        }
      ],
      "stateMutability": "view",
      "type": "function"
    },
    {
      "inputs": [],
      "name": "mdgLockerAddress",
      "outputs": [
        {
          "internalType": "address",
          "name": "",
          "type": "address"
        }
      ],
      "stateMutability": "view",
      "type": "function"
    },
    {
      "inputs": [],
      "name": "notPublic",
      "outputs": [
        {
          "internalType": "bool",
          "name": "",
          "type": "bool"
        }
      ],
      "stateMutability": "view",
      "type": "function"
    },
    {
      "inputs": [],
      "name": "operator",
      "outputs": [
        {
          "internalType": "address",
          "name": "",
          "type": "address"
        }
      ],
      "stateMutability": "view",
      "type": "function"
    },
    {
      "inputs": [],
      "name": "owner",
      "outputs": [
        {
          "internalType": "address",
          "name": "",
          "type": "address"
        }
      ],
      "stateMutability": "view",
      "type": "function"
    },
    {
      "inputs": [],
      "name": "pause",
      "outputs": [],
      "stateMutability": "nonpayable",
      "type": "function"
    },
    {
      "inputs": [],
      "name": "paused",
      "outputs": [
        {
          "internalType": "bool",
          "name": "",
          "type": "bool"
        }
      ],
      "stateMutability": "view",
      "type": "function"
    },
    {
      "inputs": [],
      "name": "pendingHarvest",
      "outputs": [
        {
          "internalType": "uint256",
          "name": "",
          "type": "uint256"
        }
      ],
      "stateMutability": "view",
      "type": "function"
    },
    {
      "inputs": [],
      "name": "pendingHarvestDollarValue",
      "outputs": [
        {
          "internalType": "uint256",
          "name": "",
          "type": "uint256"
        }
      ],
      "stateMutability": "view",
      "type": "function"
    },
    {
      "inputs": [],
      "name": "pid",
      "outputs": [
        {
          "internalType": "uint256",
          "name": "",
          "type": "uint256"
        }
      ],
      "stateMutability": "view",
      "type": "function"
    },
    {
      "inputs": [],
      "name": "ratio0",
      "outputs": [
        {
          "internalType": "uint256",
          "name": "",
          "type": "uint256"
        }
      ],
      "stateMutability": "view",
      "type": "function"
    },
    {
      "inputs": [],
      "name": "ratio1",
      "outputs": [
        {
          "internalType": "uint256",
          "name": "",
          "type": "uint256"
        }
      ],
      "stateMutability": "view",
      "type": "function"
    },
    {
      "inputs": [],
      "name": "renounceOwnership",
      "outputs": [],
      "stateMutability": "nonpayable",
      "type": "function"
    },
    {
      "inputs": [
        {
          "internalType": "address",
          "name": "_buyBackAddress1",
          "type": "address"
        }
      ],
      "name": "setBuyBackAddress1",
      "outputs": [],
      "stateMutability": "nonpayable",
      "type": "function"
    },
    {
      "inputs": [
        {
          "internalType": "address",
          "name": "_buyBackAddress2",
          "type": "address"
        }
      ],
      "name": "setBuyBackAddress2",
      "outputs": [],
      "stateMutability": "nonpayable",
      "type": "function"
    },
    {
      "inputs": [
        {
          "internalType": "uint256",
          "name": "_buyBackRate1",
          "type": "uint256"
        }
      ],
      "name": "setBuyBackRate1",
      "outputs": [],
      "stateMutability": "nonpayable",
      "type": "function"
    },
    {
      "inputs": [
        {
          "internalType": "uint256",
          "name": "_buyBackRate2",
          "type": "uint256"
        }
      ],
      "name": "setBuyBackRate2",
      "outputs": [],
      "stateMutability": "nonpayable",
      "type": "function"
    },
    {
      "inputs": [
        {
          "internalType": "bool",
          "name": "_checkForUnlockReward",
          "type": "bool"
        }
      ],
      "name": "setCheckForUnlockReward",
      "outputs": [],
      "stateMutability": "nonpayable",
      "type": "function"
    },
    {
      "inputs": [
        {
          "internalType": "uint256",
          "name": "_controllerFee",
          "type": "uint256"
        }
      ],
      "name": "setControllerFee",
      "outputs": [],
      "stateMutability": "nonpayable",
      "type": "function"
    },
    {
      "inputs": [
        {
          "internalType": "uint256",
          "name": "_entranceFeeFactor",
          "type": "uint256"
        }
      ],
      "name": "setEntranceFeeFactor",
      "outputs": [],
      "stateMutability": "nonpayable",
      "type": "function"
    },
    {
      "inputs": [
        {
          "internalType": "address[]",
          "name": "_earnedToBuyBackToken1Path",
          "type": "address[]"
        },
        {
          "internalType": "address[]",
          "name": "_earnedToBuyBackToken2Path",
          "type": "address[]"
        },
        {
          "internalType": "address[]",
          "name": "_earnedToToken0Path",
          "type": "address[]"
        },
        {
          "internalType": "address[]",
          "name": "_earnedToToken1Path",
          "type": "address[]"
        },
        {
          "internalType": "address[]",
          "name": "_earnedToBusdPath",
          "type": "address[]"
        },
        {
          "internalType": "address[]",
          "name": "_token0ToEarnedPath",
          "type": "address[]"
        },
        {
          "internalType": "address[]",
          "name": "_token1ToEarnedPath",
          "type": "address[]"
        }
      ],
      "name": "setMainPaths",
      "outputs": [],
      "stateMutability": "nonpayable",
      "type": "function"
    },
    {
      "inputs": [
        {
          "internalType": "bool",
          "name": "_notPublic",
          "type": "bool"
        }
      ],
      "name": "setNotPublic",
      "outputs": [],
      "stateMutability": "nonpayable",
      "type": "function"
    },
    {
      "inputs": [
        {
          "internalType": "address",
          "name": "_operator",
          "type": "address"
        }
      ],
      "name": "setOperator",
      "outputs": [],
      "stateMutability": "nonpayable",
      "type": "function"
    },
    {
      "inputs": [
        {
          "internalType": "address",
          "name": "_strategist",
          "type": "address"
        }
      ],
      "name": "setStrategist",
      "outputs": [],
      "stateMutability": "nonpayable",
      "type": "function"
    },
    {
      "inputs": [
        {
          "internalType": "address",
          "name": "_timelock",
          "type": "address"
        }
      ],
      "name": "setTimelock",
      "outputs": [],
      "stateMutability": "nonpayable",
      "type": "function"
    },
    {
      "inputs": [
        {
          "internalType": "address",
          "name": "_inputToken",
          "type": "address"
        },
        {
          "internalType": "address",
          "name": "_outputToken",
          "type": "address"
        },
        {
          "internalType": "address[]",
          "name": "_path",
          "type": "address[]"
        }
      ],
      "name": "setVswapPaths",
      "outputs": [],
      "stateMutability": "nonpayable",
      "type": "function"
    },
    {
      "inputs": [],
      "name": "sharesTotal",
      "outputs": [
        {
          "internalType": "uint256",
          "name": "",
          "type": "uint256"
        }
      ],
      "stateMutability": "view",
      "type": "function"
    },
    {
      "inputs": [],
      "name": "strategist",
      "outputs": [
        {
          "internalType": "address",
          "name": "",
          "type": "address"
        }
      ],
      "stateMutability": "view",
      "type": "function"
    },
    {
      "inputs": [],
      "name": "timelock",
      "outputs": [
        {
          "internalType": "address",
          "name": "",
          "type": "address"
        }
      ],
      "stateMutability": "view",
      "type": "function"
    },
    {
      "inputs": [],
      "name": "token0Address",
      "outputs": [
        {
          "internalType": "address",
          "name": "",
          "type": "address"
        }
      ],
      "stateMutability": "view",
      "type": "function"
    },
    {
      "inputs": [],
      "name": "token1Address",
      "outputs": [
        {
          "internalType": "address",
          "name": "",
          "type": "address"
        }
      ],
      "stateMutability": "view",
      "type": "function"
    },
    {
      "inputs": [
        {
          "internalType": "address",
          "name": "newOwner",
          "type": "address"
        }
      ],
      "name": "transferOwnership",
      "outputs": [],
      "stateMutability": "nonpayable",
      "type": "function"
    },
    {
      "inputs": [],
      "name": "unpause",
      "outputs": [],
      "stateMutability": "nonpayable",
      "type": "function"
    },
    {
      "inputs": [],
      "name": "vswapFormula",
      "outputs": [
        {
          "internalType": "address",
          "name": "",
          "type": "address"
        }
      ],
      "stateMutability": "view",
      "type": "function"
    },
    {
      "inputs": [
        {
          "internalType": "address",
          "name": "",
          "type": "address"
        },
        {
          "internalType": "address",
          "name": "",
          "type": "address"
        },
        {
          "internalType": "uint256",
          "name": "",
          "type": "uint256"
        }
      ],
      "name": "vswapPaths",
      "outputs": [
        {
          "internalType": "address",
          "name": "",
          "type": "address"
        }
      ],
      "stateMutability": "view",
      "type": "function"
    },
    {
      "inputs": [],
      "name": "vswapRouterAddress",
      "outputs": [
        {
          "internalType": "address",
          "name": "",
          "type": "address"
        }
      ],
      "stateMutability": "view",
      "type": "function"
    },
    {
      "inputs": [],
      "name": "wantAddress",
      "outputs": [
        {
          "internalType": "address",
          "name": "",
          "type": "address"
        }
      ],
      "stateMutability": "view",
      "type": "function"
    },
    {
      "inputs": [],
      "name": "wantLockedTotal",
      "outputs": [
        {
          "internalType": "uint256",
          "name": "",
          "type": "uint256"
        }
      ],
      "stateMutability": "view",
      "type": "function"
    },
    {
      "inputs": [],
      "name": "wbnbAddress",
      "outputs": [
        {
          "internalType": "address",
          "name": "",
          "type": "address"
        }
      ],
      "stateMutability": "view",
      "type": "function"
    },
    {
      "inputs": [
        {
          "internalType": "address",
          "name": "",
          "type": "address"
        },
        {
          "internalType": "uint256",
          "name": "_wantAmt",
          "type": "uint256"
        }
      ],
      "name": "withdraw",
      "outputs": [
        {
          "internalType": "uint256",
          "name": "",
          "type": "uint256"
        }
      ],
      "stateMutability": "nonpayable",
      "type": "function"
    }
  ],
  "bytecode": "0x60806040526002805462ff00001916620100001790556113886009819055600a55600b80546001600160a01b031990811673b7e19a1188776f32e8c2b790d9ca578f2896da7c17909155600c805482167345f24baeef268bb6d63aee5129015d69702bcdfa1790556010805460ff60a01b199083167392a082ad5a942140bcc791081f775900d0a514d9171690556000601181905560128190556013556064601481905560be6015556016805483167381859801b01764d4f0fa5e64729f5a6c3b91435b17905560178054831673aaaf5d9923be358ea0b6205ef2a3b929d460ac7a17905560185560198054821673190b589cf9fb8ddeabbfeae36a813ffb2a702454179055601a8054909116735d42dc503763dd1e7a1b510b055150cc5754656b179055612710601b553480156200013757600080fd5b5060405162004e0a38038062004e0a83398181016040526101c08110156200015e57600080fd5b815160208301516040808501516060860151608087015160a088015160c089015160e08a01516101008b01516101208c01805198519a9c999b979a969995989497939692959194929382019284640100000000821115620001be57600080fd5b908301906020820185811115620001d457600080fd5b8251866020820283011164010000000082111715620001f257600080fd5b82525081516020918201928201910280838360005b838110156200022157818101518382015260200162000207565b50505050905001604052602001805160405193929190846401000000008211156200024b57600080fd5b9083019060208201858111156200026157600080fd5b82518660208202830111640100000000821117156200027f57600080fd5b82525081516020918201928201910280838360005b83811015620002ae57818101518382015260200162000294565b5050505091909101604090815260208301519083015160609093015190945091925060009050620002de62000588565b600080546001600160a01b0319166001600160a01b03831690811782556040519293509160008051602062004dea833981519152908290a3506001805560028054600e80546001600160a01b031990811633908117909255600f805482169092179091558f15156101000261ffff1990921691909117909155600480546001600160a01b038d8116919093161790558716156200039157600b80546001600160a01b0319166001600160a01b0389161790555b6001600160a01b03861615620003bd57600c80546001600160a01b0319166001600160a01b0388161790555b84600081518110620003cb57fe5b6020026020010151601660006101000a8154816001600160a01b0302191690836001600160a01b03160217905550846001815181106200040757fe5b6020026020010151601760006101000a8154816001600160a01b0302191690836001600160a01b03160217905550836000815181106200044357fe5b6020026020010151601960006101000a8154816001600160a01b0302191690836001600160a01b03160217905550836001815181106200047f57fe5b6020908102919091010151601a80546001600160a01b0319166001600160a01b03928316179055600280546301000000600160b81b0319166301000000928f16929092029190911790819055610100900460ff16156200056957600580546001600160a01b038086166001600160a01b03199283161790925560068054928516929091169190911790558015620005335760098190556200052f612710826200058c602090811b6200322d17901c565b600a555b60038b9055600780546001600160a01b03808c166001600160a01b03199283161790925560088054928b16929091169190911790555b620005748e620005dd565b505050505050505050505050505062000776565b3390565b6000620005d683836040518060400160405280601e81526020017f536166654d6174683a207375627472616374696f6e206f766572666c6f770000815250620006db60201b60201c565b9392505050565b620005e762000588565b6000546001600160a01b039081169116146200064a576040805162461bcd60e51b815260206004820181905260248201527f4f776e61626c653a2063616c6c6572206973206e6f7420746865206f776e6572604482015290519081900360640190fd5b6001600160a01b038116620006915760405162461bcd60e51b815260040180806020018281038252602681526020018062004dc46026913960400191505060405180910390fd5b600080546040516001600160a01b038085169392169160008051602062004dea83398151915291a3600080546001600160a01b0319166001600160a01b0392909216919091179055565b600081848411156200076e5760405162461bcd60e51b81526004018080602001828103825283818151815260200191508051906020019080838360005b838110156200073257818101518382015260200162000718565b50505050905090810190601f168015620007605780820380516001836020036101000a031916815260200191505b509250505060405180910390fd5b505050900390565b61463e80620007866000396000f3fe608060405234801561001057600080fd5b50600436106104215760003560e01c80638da5cb5b11610235578063ce5328e411610135578063dfee1dd9116100c8578063ee50dc3411610097578063f2fde38b1161007c578063f2fde38b14610e3f578063f3fef3a314610e65578063f400d31114610e9157610421565b8063ee50dc3414610a0f578063f106845414610e3757610421565b8063dfee1dd914610e17578063e5dd455a14610e1f578063e719847414610e27578063e7a0367914610e2f57610421565b8063d8be16da11610104578063d8be16da14610df7578063db7a3c0f14610dff578063dd4bbd7514610e07578063df5c8a9e14610e0f57610421565b8063ce5328e414610dd7578063d33219b414610ddf578063d389800f14610de7578063d7cb416f14610def57610421565b8063bb9928c6116101c8578063bf94c0ba11610197578063c302a4d01161017c578063c302a4d014610d83578063c3ec8dda14610d8b578063c7b9d53014610db157610421565b8063bf94c0ba14610d5e578063c11c2e9214610d7b57610421565b8063bb9928c614610c57578063bca8885014610c74578063bd2d2d9e14610d30578063bdacb30314610d3857610421565b80639fc33a9f116102045780639fc33a9f14610bfb578063a552863214610c03578063b3545c0114610c29578063b3ab15fb14610c3157610421565b80638da5cb5b14610bad5780639665e82a14610bb55780639748911a14610bbd5780639e69232914610bc557610421565b806347e7ef241161034057806367206d40116102d357806376ba098a116102a25780638456cb59116102875780638456cb5914610b9557806385f02dd614610b9d578063889adfa814610ba557610421565b806376ba098a14610b855780637ff36fbe14610b8d57610421565b806367206d4014610b09578063701f660414610b3f578063715018a614610b7557806376a9023114610b7d57610421565b8063570ca7351161030f578063570ca73514610ae95780635c975abb14610af1578063607f35a014610af957806363fe3e3a14610b0157610421565b806347e7ef2414610a7b5780634a56fcd414610aa75780634d9f7bb214610a0f57806351b699cd14610aaf57610421565b80632717eff3116103b85780633f4ba83a116103875780633f4ba83a14610a4457806342da4eb314610a4c57806344a3955e14610a5457806345d6b66714610a5c57610421565b80632717eff314610a0f57806327e6dcbb14610a1757806336e9332d14610a1f5780633e1a891214610a2757610421565b80631a43da93116103f45780631a43da931461080d5780631f81650c146108315780631fe4a686146108505780632224fa251461085857610421565b8063061c7d48146104265780630fa4e01e146104405780631334903f14610448578063197c760b14610450575b600080fd5b61042e610eae565b60408051918252519081900360200190f35b61042e610eb4565b61042e610eba565b61080b600480360360e081101561046657600080fd5b81019060208101813564010000000081111561048157600080fd5b82018360208201111561049357600080fd5b803590602001918460208302840111640100000000831117156104b557600080fd5b919080806020026020016040519081016040528093929190818152602001838360200280828437600092019190915250929594936020810193503591505064010000000081111561050557600080fd5b82018360208201111561051757600080fd5b8035906020019184602083028401116401000000008311171561053957600080fd5b919080806020026020016040519081016040528093929190818152602001838360200280828437600092019190915250929594936020810193503591505064010000000081111561058957600080fd5b82018360208201111561059b57600080fd5b803590602001918460208302840111640100000000831117156105bd57600080fd5b919080806020026020016040519081016040528093929190818152602001838360200280828437600092019190915250929594936020810193503591505064010000000081111561060d57600080fd5b82018360208201111561061f57600080fd5b8035906020019184602083028401116401000000008311171561064157600080fd5b919080806020026020016040519081016040528093929190818152602001838360200280828437600092019190915250929594936020810193503591505064010000000081111561069157600080fd5b8201836020820111156106a357600080fd5b803590602001918460208302840111640100000000831117156106c557600080fd5b919080806020026020016040519081016040528093929190818152602001838360200280828437600092019190915250929594936020810193503591505064010000000081111561071557600080fd5b82018360208201111561072757600080fd5b8035906020019184602083028401116401000000008311171561074957600080fd5b919080806020026020016040519081016040528093929190818152602001838360200280828437600092019190915250929594936020810193503591505064010000000081111561079957600080fd5b8201836020820111156107ab57600080fd5b803590602001918460208302840111640100000000831117156107cd57600080fd5b919080806020026020016040519081016040528093929190818152602001838360200280828437600092019190915250929550610ec0945050505050565b005b6108156110c2565b604080516001600160a01b039092168252519081900360200190f35b61080b6004803603602081101561084757600080fd5b503515156110d1565b610815611152565b61099a6004803603608081101561086e57600080fd5b6001600160a01b038235169160208101359181019060608101604082013564010000000081111561089e57600080fd5b8201836020820111156108b057600080fd5b803590602001918460018302840111640100000000831117156108d257600080fd5b91908080601f016020809104026020016040519081016040528093929190818152602001838380828437600092019190915250929594936020810193503591505064010000000081111561092557600080fd5b82018360208201111561093757600080fd5b8035906020019184600183028401116401000000008311171561095957600080fd5b91908080601f016020809104026020016040519081016040528093929190818152602001838380828437600092019190915250929550611161945050505050565b6040805160208082528351818301528351919283929083019185019080838360005b838110156109d45781810151838201526020016109bc565b50505050905090810190601f168015610a015780820380516001836020036101000a031916815260200191505b509250505060405180910390f35b61042e61145e565b610815611464565b61080b611473565b61080b60048036036020811015610a3d57600080fd5b50356114de565b61080b6115c3565b61042e611616565b61042e61161c565b61080b60048036036020811015610a7257600080fd5b50351515611622565b61042e60048036036040811015610a9157600080fd5b506001600160a01b0381351690602001356116b5565b610815611853565b610ad560048036036020811015610ac557600080fd5b50356001600160a01b0316611862565b604080519115158252519081900360200190f35b6108156118a8565b610ad56118b7565b6108156118c0565b6108156118cf565b61080b60048036036060811015610b1f57600080fd5b506001600160a01b038135811691602081013591604090910135166118e7565b61042e60048036036060811015610b5557600080fd5b506001600160a01b03813581169160208101359091169060400135611a5b565b61080b611c33565b610815611cff565b610ad5611d17565b610815611d26565b61080b611d35565b61042e611d86565b61042e611d8c565b610815611dd8565b61042e611de7565b61042e611ded565b61081560048036036060811015610bdb57600080fd5b506001600160a01b03813581169160208101359091169060400135611df3565b610815611e35565b61080b60048036036020811015610c1957600080fd5b50356001600160a01b0316611e4b565b61042e611f2b565b61080b60048036036020811015610c4757600080fd5b50356001600160a01b0316611f31565b61080b60048036036020811015610c6d57600080fd5b5035611fb4565b61080b60048036036060811015610c8a57600080fd5b6001600160a01b038235811692602081013590911691810190606081016040820135640100000000811115610cbe57600080fd5b820183602082011115610cd057600080fd5b80359060200191846020830284011164010000000083111715610cf257600080fd5b91908080602002602001604051908101604052809392919081815260200183836020028082843760009201919091525092955061205b945050505050565b6108156120df565b61080b60048036036020811015610d4e57600080fd5b50356001600160a01b03166120ee565b61080b60048036036020811015610d7457600080fd5b5035612171565b61080b612218565b61042e61244a565b61080b60048036036020811015610da157600080fd5b50356001600160a01b0316612450565b61080b60048036036020811015610dc757600080fd5b50356001600160a01b0316612532565b6108156125b5565b6108156125c4565b61080b6125d3565b610815612bda565b610ad5612be9565b61042e612c0a565b610815612d33565b61042e612d42565b61042e612d48565b610ad5612d4e565b610815612d5c565b610815612d6b565b61042e612d7a565b61080b60048036036020811015610e5557600080fd5b50356001600160a01b0316612d80565b61042e60048036036040811015610e7b57600080fd5b506001600160a01b038135169060200135612ea2565b61080b60048036036020811015610ea757600080fd5b5035613188565b61012c81565b60115481565b601b5481565b600e546001600160a01b03163314610f095760405162461bcd60e51b815260040180806020018281038252602b81526020018061456c602b913960400191505060405180910390fd5b6007546001600160a01b039081166000908152600d6020908152604080832060165490941683529281529190208851610f44928a019061442c565b506007546001600160a01b039081166000908152600d6020908152604080832060195490941683529281529190208751610f809289019061442c565b506007546001600160a01b039081166000908152600d6020908152604080832060055490941683529281529190208651610fbc9288019061442c565b506007546001600160a01b039081166000908152600d6020908152604080832060065490941683529281529190208551610ff89287019061442c565b506007546001600160a01b03166000908152600d6020908152604080832073e9e7cea3dedca5984780bafc599bd69add087d568452825290912084516110409286019061442c565b506005546001600160a01b039081166000908152600d602090815260408083206007549094168352928152919020835161107c9285019061442c565b506006546001600160a01b039081166000908152600d60209081526040808320600754909416835292815291902082516110b89284019061442c565b5050505050505050565b6017546001600160a01b031681565b600e546001600160a01b0316331461111a5760405162461bcd60e51b815260040180806020018281038252602b81526020018061456c602b913960400191505060405180910390fd5b6002805491151562010000027fffffffffffffffffffffffffffffffffffffffffffffffffffffffffff00ffff909216919091179055565b600f546001600160a01b031681565b6010546060906001600160a01b031633146111ad5760405162461bcd60e51b81526004018080602001828103825260278152602001806145b86027913960400191505060405180910390fd5b60608351600014156111c0575081611258565b83805190602001208360405160200180837bffffffffffffffffffffffffffffffffffffffffffffffffffffffff1916815260040182805190602001908083835b602083106112205780518252601f199092019160209182019101611201565b6001836020036101000a0380198251168184511680821785525050505050509050019250505060405160208183030381529060405290505b60006060876001600160a01b031687846040518082805190602001908083835b602083106112975780518252601f199092019160209182019101611278565b6001836020036101000a03801982511681845116808217855250505050505090500191505060006040518083038185875af1925050503d80600081146112f9576040519150601f19603f3d011682016040523d82523d6000602084013e6112fe565b606091505b50915091508161133f5760405162461bcd60e51b81526004018080602001828103825260448152602001806144e16044913960600191505060405180910390fd5b876001600160a01b03167f88405ca50016c636e025868e263efe5a9f63bf11cc45404f7616394c7dc389d0888888604051808481526020018060200180602001838103835285818151815260200191508051906020019080838360005b838110156113b457818101518382015260200161139c565b50505050905090810190601f1680156113e15780820380516001836020036101000a031916815260200191505b50838103825284518152845160209182019186019080838360005b838110156114145781810151838201526020016113fc565b50505050905090810190601f1680156114415780820380516001836020036101000a031916815260200191505b509550505050505060405180910390a2925050505b949350505050565b61271081565b600c546001600160a01b031681565b600260015414156114cb576040805162461bcd60e51b815260206004820152601f60248201527f5265656e7472616e637947756172643a207265656e7472616e742063616c6c00604482015290519081900360640190fd5b60026001556114d8613276565b60018055565b600e546001600160a01b031633146115275760405162461bcd60e51b815260040180806020018281038252602b81526020018061456c602b913960400191505060405180910390fd5b6126de811161157d576040805162461bcd60e51b815260206004820181905260248201527f427661756c747353747261746567793a202173616665202d20746f6f206c6f77604482015290519081900360640190fd5b6127108111156115be5760405162461bcd60e51b81526004018080602001828103825260218152602001806145256021913960400191505060405180910390fd5b601b55565b600e546001600160a01b0316331461160c5760405162461bcd60e51b815260040180806020018281038252602b81526020018061456c602b913960400191505060405180910390fd5b6116146133dd565b565b60125481565b60135481565b600e546001600160a01b0316331461166b5760405162461bcd60e51b815260040180806020018281038252602b81526020018061456c602b913960400191505060405180910390fd5b6010805491151574010000000000000000000000000000000000000000027fffffffffffffffffffffff00ffffffffffffffffffffffffffffffffffffffff909216919091179055565b60006116bf6134a2565b6000546001600160a01b03908116911614611721576040805162461bcd60e51b815260206004820181905260248201527f4f776e61626c653a2063616c6c6572206973206e6f7420746865206f776e6572604482015290519081900360640190fd5b60025460ff1615611779576040805162461bcd60e51b815260206004820152601060248201527f5061757361626c653a2070617573656400000000000000000000000000000000604482015290519081900360640190fd5b6117816125d3565b600454611799906001600160a01b03163330856134a6565b6012548290156117d9576117d66127106117d06012546117d0601b546117ca6013548a61352e90919063ffffffff16565b9061352e565b90613587565b90505b6013546117e690826135c9565b601355600254610100900460ff161561180657611801613276565b611817565b60125461181390846135c9565b6012555b6040805184815290517f4d6ce1e535dbade1c23defba91e23b8f791ce5edc0cc320257a2b364e4e384269181900360200190a190505b92915050565b601a546001600160a01b031681565b600e546000906001600160a01b038381169116148061188b5750600f546001600160a01b031633145b806118a057506010546001600160a01b031633145b90505b919050565b600e546001600160a01b031681565b60025460ff1690565b6019546001600160a01b031681565b73bb4cdb9cbd36b01bd1cbaebf2de08d9173bc095c81565b600e546001600160a01b031633146119305760405162461bcd60e51b815260040180806020018281038252602b81526020018061456c602b913960400191505060405180910390fd5b6007546001600160a01b0384811691161415611993576040805162461bcd60e51b815260206004820152600660248201527f6561726e65640000000000000000000000000000000000000000000000000000604482015290519081900360640190fd5b6004546001600160a01b03848116911614156119f8576040805162461bcd60e51b8152602060048083019190915260248201527f77616e7400000000000000000000000000000000000000000000000000000000604482015290519081900360640190fd5b611a0c6001600160a01b0384168284613623565b604080516001600160a01b0380861682526020820185905283168183015290517f22f92dfb4f608ea5db1e9bb08c0b4f5518af93b1259d335fe05900056096ab2c9181900360600190a1505050565b600c546001600160a01b038481166000818152600d60209081526040808320888616808552925280832090517f8fabd82d0000000000000000000000000000000000000000000000000000000081526004810194855260248101929092526044820187905260806064830190815281546084840181905293966060961694638fabd82d948b948b948b94909392909160a4019084908015611b2557602002820191906000526020600020905b81546001600160a01b03168152600190910190602001808311611b07575b50509550505050505060006040518083038186803b158015611b4657600080fd5b505afa158015611b5a573d6000803e3d6000fd5b505050506040513d6000823e601f3d908101601f191682016040526020811015611b8357600080fd5b8101908080516040519392919084640100000000821115611ba357600080fd5b908301906020820185811115611bb857600080fd5b8251866020820283011164010000000082111715611bd557600080fd5b82525081516020918201928201910280838360005b83811015611c02578181015183820152602001611bea565b50505050905001604052505050905080600182510381518110611c2157fe5b60200260200101519150509392505050565b611c3b6134a2565b6000546001600160a01b03908116911614611c9d576040805162461bcd60e51b815260206004820181905260248201527f4f776e61626c653a2063616c6c6572206973206e6f7420746865206f776e6572604482015290519081900360640190fd5b600080546040516001600160a01b03909116907f8be0079c531659141344cd1fd0a4f28419497f9722a3daafe3b4186f6b6457e0908390a3600080547fffffffffffffffffffffffff0000000000000000000000000000000000000000169055565b73e9e7cea3dedca5984780bafc599bd69add087d5681565b60025462010000900460ff1681565b6005546001600160a01b031681565b600e546001600160a01b03163314611d7e5760405162461bcd60e51b815260040180806020018281038252602b81526020018061456c602b913960400191505060405180910390fd5b6116146136a8565b60145481565b600080611d97612c0a565b90508015611dcf57600754611dca906001600160a01b031673e9e7cea3dedca5984780bafc599bd69add087d5683611a5b565b611dd2565b60005b91505090565b6000546001600160a01b031690565b600a5481565b60095481565b600d6020528260005260406000206020528160005260406000208181548110611e1857fe5b6000918252602090912001546001600160a01b0316925083915050565b600254630100000090046001600160a01b031681565b600e546001600160a01b03163314611e945760405162461bcd60e51b815260040180806020018281038252602b81526020018061456c602b913960400191505060405180910390fd5b6001600160a01b038116611ef1576040805162461bcd60e51b8152602060048083019190915260248201527f7a65726f00000000000000000000000000000000000000000000000000000000604482015290519081900360640190fd5b601a80547fffffffffffffffffffffffff0000000000000000000000000000000000000000166001600160a01b0392909216919091179055565b61032081565b600e546001600160a01b03163314611f7a5760405162461bcd60e51b815260040180806020018281038252602b81526020018061456c602b913960400191505060405180910390fd5b600e80547fffffffffffffffffffffffff0000000000000000000000000000000000000000166001600160a01b0392909216919091179055565b600e546001600160a01b03163314611ffd5760405162461bcd60e51b815260040180806020018281038252602b81526020018061456c602b913960400191505060405180910390fd5b6103206018541115612056576040805162461bcd60e51b815260206004820152601960248201527f427661756c747353747261746567793a20746f6f206869676800000000000000604482015290519081900360640190fd5b601855565b600e546001600160a01b031633146120a45760405162461bcd60e51b815260040180806020018281038252602b81526020018061456c602b913960400191505060405180910390fd5b6001600160a01b038084166000908152600d60209081526040808320938616835292815291902082516120d99284019061442c565b50505050565b6008546001600160a01b031681565b6010546001600160a01b031633146121375760405162461bcd60e51b81526004018080602001828103825260278152602001806145b86027913960400191505060405180910390fd5b601080547fffffffffffffffffffffffff0000000000000000000000000000000000000000166001600160a01b0392909216919091179055565b600e546001600160a01b031633146121ba5760405162461bcd60e51b815260040180806020018281038252602b81526020018061456c602b913960400191505060405180910390fd5b6103206015541115612213576040805162461bcd60e51b815260206004820152601960248201527f427661756c747353747261746567793a20746f6f206869676800000000000000604482015290519081900360640190fd5b601555565b60025460ff1615612270576040805162461bcd60e51b815260206004820152601060248201527f5061757361626c653a2070617573656400000000000000000000000000000000604482015290519081900360640190fd5b600254610100900460ff166122cc576040805162461bcd60e51b815260206004820152600b60248201527f2169734175746f436f6d70000000000000000000000000000000000000000000604482015290519081900360640190fd5b600554604080516370a0823160e01b815230600482015290516000926001600160a01b0316916370a08231916024808301926020929190829003018186803b15801561231757600080fd5b505afa15801561232b573d6000803e3d6000fd5b505050506040513d602081101561234157600080fd5b50516007546005549192506001600160a01b039182169116148015906123675750600081115b1561238957600554600754612389916001600160a01b03908116911683613754565b600654604080516370a0823160e01b815230600482015290516000926001600160a01b0316916370a08231916024808301926020929190829003018186803b1580156123d457600080fd5b505afa1580156123e8573d6000803e3d6000fd5b505050506040513d60208110156123fe57600080fd5b50516007546006549192506001600160a01b039182169116148015906124245750600081115b1561244657600654600754612446916001600160a01b03908116911683613754565b5050565b6126de81565b600e546001600160a01b031633146124995760405162461bcd60e51b815260040180806020018281038252602b81526020018061456c602b913960400191505060405180910390fd5b6017546001600160a01b03166124f8576040805162461bcd60e51b8152602060048083019190915260248201527f7a65726f00000000000000000000000000000000000000000000000000000000604482015290519081900360640190fd5b601780547fffffffffffffffffffffffff0000000000000000000000000000000000000000166001600160a01b0392909216919091179055565b600e546001600160a01b0316331461257b5760405162461bcd60e51b815260040180806020018281038252602b81526020018061456c602b913960400191505060405180910390fd5b600f80547fffffffffffffffffffffffff0000000000000000000000000000000000000000166001600160a01b0392909216919091179055565b6016546001600160a01b031681565b6010546001600160a01b031681565b60025460ff161561262b576040805162461bcd60e51b815260206004820152601060248201527f5061757361626c653a2070617573656400000000000000000000000000000000604482015290519081900360640190fd5b600254610100900460ff16612687576040805162461bcd60e51b815260206004820152601c60248201527f427661756c747353747261746567793a202169734175746f436f6d7000000000604482015290519081900360640190fd5b60105474010000000000000000000000000000000000000000900460ff1615806126b557506126b533611862565b612706576040805162461bcd60e51b815260206004820152601c60248201527f427661756c747353747261746567793a2021617574686f726973656400000000604482015290519081900360640190fd5b600260039054906101000a90046001600160a01b03166001600160a01b031663e2bbb15860035460006040518363ffffffff1660e01b81526004018083815260200182815260200192505050600060405180830381600087803b15801561276c57600080fd5b505af1158015612780573d6000803e3d6000fd5b5050505060028054906101000a900460ff161561289657600854604080517f202b176000000000000000000000000000000000000000000000000000000000815230600482015290516000926001600160a01b03169163202b1760916024808301926020929190829003018186803b1580156127fb57600080fd5b505afa15801561280f573d6000803e3d6000fd5b505050506040513d602081101561282557600080fd5b5051111561289657600860009054906101000a90046001600160a01b03166001600160a01b031663a69df4b56040518163ffffffff1660e01b8152600401600060405180830381600087803b15801561287d57600080fd5b505af1158015612891573d6000803e3d6000fd5b505050505b600754604080516370a0823160e01b815230600482015290516000926001600160a01b0316916370a08231916024808301926020929190829003018186803b1580156128e157600080fd5b505afa1580156128f5573d6000803e3d6000fd5b505050506040513d602081101561290b57600080fd5b5051600754604080516001600160a01b0390921682526020820183905280519293507f053fa1fc52294a40b4ff1a988765bd298c00caa24d685cc3f767dcfde254ef9a92918290030190a1600061296182613948565b9050600061296e836139ea565b9050600061297b84613c32565b90506129938161298d8481888861322d565b9061322d565b600b546007549195506129b3916001600160a01b03908116911686613efe565b6005546007546001600160a01b039081169116146129fe576007546005546009546129fe926001600160a01b039081169216906129f990612710906117d0908a9061352e565b613754565b6006546007546001600160a01b03908116911614612a4457600754600654600a54612a44926001600160a01b039081169216906129f990612710906117d0908a9061352e565b600554604080516370a0823160e01b815230600482015290516000926001600160a01b0316916370a08231916024808301926020929190829003018186803b158015612a8f57600080fd5b505afa158015612aa3573d6000803e3d6000fd5b505050506040513d6020811015612ab957600080fd5b5051600654604080516370a0823160e01b815230600482015290519293506000926001600160a01b03909216916370a0823191602480820192602092909190829003018186803b158015612b0c57600080fd5b505afa158015612b20573d6000803e3d6000fd5b505050506040513d6020811015612b3657600080fd5b505190508115801590612b495750600081115b15612bc657600554600654612b6c916001600160a01b0390811691168484613fe5565b600554600654604080516001600160a01b0393841681526020810186905291909216818301526060810183905290517f44552da03f807ace3e5f27e98e694712dfe668c743514b28d4d9f5ab70574b0f9181900360800190a15b43601155612bd2613276565b505050505050565b6006546001600160a01b031681565b60105474010000000000000000000000000000000000000000900460ff1681565b600754604080516370a0823160e01b8152306004820152905160009283926001600160a01b03909116916370a0823191602480820192602092909190829003018186803b158015612c5a57600080fd5b505afa158015612c6e573d6000803e3d6000fd5b505050506040513d6020811015612c8457600080fd5b5051600254600354604080517f98969e82000000000000000000000000000000000000000000000000000000008152600481019290925230602483015251929350611dd2928492630100000090046001600160a01b0316916398969e82916044808301926020929190829003018186803b158015612d0157600080fd5b505afa158015612d15573d6000803e3d6000fd5b505050506040513d6020811015612d2b57600080fd5b5051906135c9565b600b546001600160a01b031681565b60155481565b60185481565b600254610100900460ff1681565b6007546001600160a01b031681565b6004546001600160a01b031681565b60035481565b612d886134a2565b6000546001600160a01b03908116911614612dea576040805162461bcd60e51b815260206004820181905260248201527f4f776e61626c653a2063616c6c6572206973206e6f7420746865206f776e6572604482015290519081900360640190fd5b6001600160a01b038116612e2f5760405162461bcd60e51b81526004018080602001828103825260268152602001806145466026913960400191505060405180910390fd5b600080546040516001600160a01b03808516939216917f8be0079c531659141344cd1fd0a4f28419497f9722a3daafe3b4186f6b6457e091a3600080547fffffffffffffffffffffffff0000000000000000000000000000000000000000166001600160a01b0392909216919091179055565b6000612eac6134a2565b6000546001600160a01b03908116911614612f0e576040805162461bcd60e51b815260206004820181905260248201527f4f776e61626c653a2063616c6c6572206973206e6f7420746865206f776e6572604482015290519081900360640190fd5b60026001541415612f66576040805162461bcd60e51b815260206004820152601f60248201527f5265656e7472616e637947756172643a207265656e7472616e742063616c6c00604482015290519081900360640190fd5b600260015581612fbd576040805162461bcd60e51b815260206004820152601a60248201527f427661756c747353747261746567793a20215f77616e74416d74000000000000604482015290519081900360640190fd5b600254610100900460ff161561304b57600260039054906101000a90046001600160a01b03166001600160a01b031663441a3e70600354846040518363ffffffff1660e01b81526004018083815260200182815260200192505050600060405180830381600087803b15801561303257600080fd5b505af1158015613046573d6000803e3d6000fd5b505050505b60048054604080516370a0823160e01b81523093810193909352516000926001600160a01b03909216916370a08231916024808301926020929190829003018186803b15801561309a57600080fd5b505afa1580156130ae573d6000803e3d6000fd5b505050506040513d60208110156130c457600080fd5b50519050808311156130d4578092505b8260125410156130e45760125492505b60006131016012546117d06013548761352e90919063ffffffff16565b905060135481111561311257506013545b60135461311f908261322d565b60135560125461312f908561322d565b601255600454613149906001600160a01b03163386613623565b6040805185815290517f5b6b431d4476a211bb7d41c20d1aab9ae2321deee0d20be3d9fc9b1093fa6e3d9181900360200190a160018055949350505050565b600e546001600160a01b031633146131d15760405162461bcd60e51b815260040180806020018281038252602b81526020018061456c602b913960400191505060405180910390fd5b61012c811115613228576040805162461bcd60e51b815260206004820152601960248201527f427661756c747353747261746567793a20746f6f206869676800000000000000604482015290519081900360640190fd5b601455565b600061326f83836040518060400160405280601e81526020017f536166654d6174683a207375627472616374696f6e206f766572666c6f770000815250614102565b9392505050565b60048054604080516370a0823160e01b81523093810193909352516000926001600160a01b03909216916370a08231916024808301926020929190829003018186803b1580156132c557600080fd5b505afa1580156132d9573d6000803e3d6000fd5b505050506040513d60208110156132ef57600080fd5b505160125490915061330190826135c9565b601255600254600454613329916001600160a01b039182169163010000009091041683613efe565b600260039054906101000a90046001600160a01b03166001600160a01b031663e2bbb158600354836040518363ffffffff1660e01b81526004018083815260200182815260200192505050600060405180830381600087803b15801561338e57600080fd5b505af11580156133a2573d6000803e3d6000fd5b50506040805184815290517fc217459869eed80bfbe5c11e78ab58912eedfd106342671821b6e96d1615dc7f9350908190036020019150a150565b60025460ff16613434576040805162461bcd60e51b815260206004820152601460248201527f5061757361626c653a206e6f7420706175736564000000000000000000000000604482015290519081900360640190fd5b600280547fffffffffffffffffffffffffffffffffffffffffffffffffffffffffffffff001690557f5db9ee0a495bf2e6ff9c91a7834c1ba4fdd244a5e8aa4e537bd38aeae4b073aa6134856134a2565b604080516001600160a01b039092168252519081900360200190a1565b3390565b604080516001600160a01b0380861660248301528416604482015260648082018490528251808303909101815260849091019091526020810180517bffffffffffffffffffffffffffffffffffffffffffffffffffffffff167f23b872dd000000000000000000000000000000000000000000000000000000001790526120d9908590614199565b60008261353d5750600061184d565b8282028284828161354a57fe5b041461326f5760405162461bcd60e51b81526004018080602001828103825260218152602001806145976021913960400191505060405180910390fd5b600061326f83836040518060400160405280601a81526020017f536166654d6174683a206469766973696f6e206279207a65726f00000000000081525061424a565b60008282018381101561326f576040805162461bcd60e51b815260206004820152601b60248201527f536166654d6174683a206164646974696f6e206f766572666c6f770000000000604482015290519081900360640190fd5b604080516001600160a01b038416602482015260448082018490528251808303909101815260649091019091526020810180517bffffffffffffffffffffffffffffffffffffffffffffffffffffffff167fa9059cbb000000000000000000000000000000000000000000000000000000001790526136a3908490614199565b505050565b60025460ff1615613700576040805162461bcd60e51b815260206004820152601060248201527f5061757361626c653a2070617573656400000000000000000000000000000000604482015290519081900360640190fd5b600280547fffffffffffffffffffffffffffffffffffffffffffffffffffffffffffffff001660011790557f62e78cea01bee320cd4e420270b5ea74000d11b0c9f74754ebdbfc544b05a2586134856134a2565b600b5461376e906001600160a01b03858116911683613efe565b600b546001600160a01b038481166000908152600d602090815260408083208785168452909152902091169063bff51d7190859085908590600190306137b6426107086135c9565b6040518863ffffffff1660e01b815260040180886001600160a01b03168152602001876001600160a01b0316815260200186815260200185815260200180602001846001600160a01b03168152602001838152602001828103825285818154815260200191508054801561385357602002820191906000526020600020905b81546001600160a01b03168152600190910190602001808311613835575b505098505050505050505050600060405180830381600087803b15801561387957600080fd5b505af115801561388d573d6000803e3d6000fd5b505050506040513d6000823e601f3d908101601f1916820160405260208110156138b657600080fd5b81019080805160405193929190846401000000008211156138d657600080fd5b9083019060208201858111156138eb57600080fd5b825186602082028301116401000000008211171561390857600080fd5b82525081516020918201928201910280838360005b8381101561393557818101518382015260200161391d565b5050505090500160405250505050505050565b600081156118a357601454156118a3576139736127106117d06014548561352e90919063ffffffff16565b600e54600754919250613993916001600160a01b03908116911683613623565b600754600e54604080516001600160a01b03938416815260208101859052919092168183015290517f056e5430e11cfdfb90a183ec3bf63ed22abe70cdf4e7bd3018d8b459bbd7f6199181900360600190a1919050565b6015546000901580613a0557506017546001600160a01b0316155b15613a12575060006118a3565b6000613a2f6127106117d06015548661352e90919063ffffffff16565b6007546001600160a01b039081166000908152600d6020908152604080832060165485168085529083528184205460175483516370a0823160e01b81529616600487015291519596509094929390926370a0823192602480840193919291829003018186803b158015613aa157600080fd5b505afa158015613ab5573d6000803e3d6000fd5b505050506040513d6020811015613acb57600080fd5b505190508115801590613aef57506016546007546001600160a01b03908116911614155b15613b1657600754601654613b11916001600160a01b03908116911685613754565b613b33565b601754600754613b33916001600160a01b03918216911685613623565b601654601754604080516370a0823160e01b81526001600160a01b039283166004820152905160009392909216916370a0823191602480820192602092909190829003018186803b158015613b8757600080fd5b505afa158015613b9b573d6000803e3d6000fd5b505050506040513d6020811015613bb157600080fd5b505190506000613bc1828461322d565b600754601654601754604080516001600160a01b03948516815292841660208401528281018a9052606083018590529216608082015290519192507fb152a9c4203a9515a80fadb5b18afb6bfce5350eccdfda9d0908ac37ec094222919081900360a00190a1509295945050505050565b6018546000901580613c4d5750601a546001600160a01b0316155b15613c5a575060006118a3565b6000613c776127106117d06018548661352e90919063ffffffff16565b6007546001600160a01b039081166000908152600d60209081526040808320601954851680855290835281842054601a5483516370a0823160e01b81529616600487015291519596509094929390926370a0823192602480840193919291829003018186803b158015613ce957600080fd5b505afa158015613cfd573d6000803e3d6000fd5b505050506040513d6020811015613d1357600080fd5b505190508115801590613d3757506019546007546001600160a01b03908116911614155b15613d5e57600754601954613d59916001600160a01b03908116911685613754565b613d7b565b601a54600754613d7b916001600160a01b03918216911685613623565b601954601a54604080516370a0823160e01b81526001600160a01b039283166004820152905160009392909216916370a0823191602480820192602092909190829003018186803b158015613dcf57600080fd5b505afa158015613de3573d6000803e3d6000fd5b505050506040513d6020811015613df957600080fd5b505190506000613e09828461322d565b90508015613ef357601a54604080517f50afa34b0000000000000000000000000000000000000000000000000000000081526004810184905290516001600160a01b03909216916350afa34b9160248082019260009290919082900301818387803b158015613e7757600080fd5b505af1158015613e8b573d6000803e3d6000fd5b5050600754601954601a54604080516001600160a01b03948516815292841660208401528281018b9052606083018790529216608082015290517fb152a9c4203a9515a80fadb5b18afb6bfce5350eccdfda9d0908ac37ec09422293509081900360a0019150a15b509295945050505050565b6000613f6282856001600160a01b031663dd62ed3e30876040518363ffffffff1660e01b815260040180836001600160a01b03168152602001826001600160a01b031681526020019250505060206040518083038186803b158015612d0157600080fd5b604080516001600160a01b038616602482015260448082018490528251808303909101815260649091019091526020810180517bffffffffffffffffffffffffffffffffffffffffffffffffffffffff167f095ea7b3000000000000000000000000000000000000000000000000000000001790529091506120d9908590614199565b600b54613fff906001600160a01b03868116911684613efe565b600b54614019906001600160a01b03858116911683613efe565b600b546004546001600160a01b039182169163fbf4513591168686868660008030614046426107086135c9565b6040518a63ffffffff1660e01b8152600401808a6001600160a01b03168152602001896001600160a01b03168152602001886001600160a01b03168152602001878152602001868152602001858152602001848152602001836001600160a01b031681526020018281526020019950505050505050505050606060405180830381600087803b1580156140d857600080fd5b505af11580156140ec573d6000803e3d6000fd5b505050506040513d6060811015612bd257600080fd5b600081848411156141915760405162461bcd60e51b81526004018080602001828103825283818151815260200191508051906020019080838360005b8381101561415657818101518382015260200161413e565b50505050905090810190601f1680156141835780820380516001836020036101000a031916815260200191505b509250505060405180910390fd5b505050900390565b60606141ee826040518060400160405280602081526020017f5361666545524332303a206c6f772d6c6576656c2063616c6c206661696c6564815250856001600160a01b03166142af9092919063ffffffff16565b8051909150156136a35780806020019051602081101561420d57600080fd5b50516136a35760405162461bcd60e51b815260040180806020018281038252602a8152602001806145df602a913960400191505060405180910390fd5b600081836142995760405162461bcd60e51b815260206004820181815283516024840152835190928392604490910191908501908083836000831561415657818101518382015260200161413e565b5060008385816142a557fe5b0495945050505050565b6060611456848460008560606142c485614426565b614315576040805162461bcd60e51b815260206004820152601d60248201527f416464726573733a2063616c6c20746f206e6f6e2d636f6e7472616374000000604482015290519081900360640190fd5b60006060866001600160a01b031685876040518082805190602001908083835b602083106143545780518252601f199092019160209182019101614335565b6001836020036101000a03801982511681845116808217855250505050505090500191505060006040518083038185875af1925050503d80600081146143b6576040519150601f19603f3d011682016040523d82523d6000602084013e6143bb565b606091505b509150915081156143cf5791506114569050565b8051156143df5780518082602001fd5b60405162461bcd60e51b815260206004820181815286516024840152865187939192839260440191908501908083836000831561415657818101518382015260200161413e565b3b151590565b828054828255906000526020600020908101928215614499579160200282015b8281111561449957825182547fffffffffffffffffffffffff0000000000000000000000000000000000000000166001600160a01b0390911617825560209092019160019091019061444c565b506144a59291506144a9565b5090565b5b808211156144a55780547fffffffffffffffffffffffff00000000000000000000000000000000000000001681556001016144aa56fe427661756c747353747261746567793a3a657865637574655472616e73616374696f6e3a205472616e73616374696f6e20657865637574696f6e2072657665727465642e427661756c747353747261746567793a202173616665202d20746f6f20686967684f776e61626c653a206e6577206f776e657220697320746865207a65726f2061646472657373427661756c747353747261746567793a2063616c6c6572206973206e6f7420746865206f70657261746f72536166654d6174683a206d756c7469706c69636174696f6e206f766572666c6f77427661756c747353747261746567793a2063616c6c6572206973206e6f742074696d656c6f636b5361666545524332303a204552433230206f7065726174696f6e20646964206e6f742073756363656564a26469706673582212205fb24ecc672ba756efdb99d48e4f909f4bdaa40768f8c4eb0ae68d2ea3b44aed64736f6c634300060c00334f776e61626c653a206e6577206f776e657220697320746865207a65726f20616464726573738be0079c531659141344cd1fd0a4f28419497f9722a3daafe3b4186f6b6457e0",
  "linkReferences": {},
  "deployedLinkReferences": {}
}