{
  "_format": "hh-sol-artifact-1",
  "contractName": "BvaultsStrategy",
  "sourceName": "contracts/BvaultsStrategy.pcs.bdovdollar.sol",
  "abi": [
    {
      "inputs": [
        {
          "internalType": "address",
          "name": "_controller",
          "type": "address"
        },
        {
          "internalType": "bool",
          "name": "_isAutoComp",
          "type": "bool"
        },
        {
          "internalType": "address",
          "name": "_farmContractAddress",
          "type": "address"
        },
        {
          "internalType": "uint256",
          "name": "_pid",
          "type": "uint256"
        },
        {
          "internalType": "address",
          "name": "_wantAddress",
          "type": "address"
        },
        {
          "internalType": "address",
          "name": "_earnedAddress",
          "type": "address"
        },
        {
          "internalType": "address",
          "name": "_uniRouterAddress",
          "type": "address"
        },
        {
          "internalType": "address",
          "name": "_vPegSwapRouterAddress",
          "type": "address"
        },
        {
          "internalType": "address[]",
          "name": "_buyBackToken1Info",
          "type": "address[]"
        },
        {
          "internalType": "address[]",
          "name": "_buyBackToken2Info",
          "type": "address[]"
        },
        {
          "internalType": "address",
          "name": "_token0",
          "type": "address"
        }
      ],
      "stateMutability": "nonpayable",
      "type": "constructor"
    },
    {
      "anonymous": false,
      "inputs": [
        {
          "indexed": false,
          "internalType": "address",
          "name": "earnedAddress",
          "type": "address"
        },
        {
          "indexed": false,
          "internalType": "address",
          "name": "buyBackToken",
          "type": "address"
        },
        {
          "indexed": false,
          "internalType": "uint256",
          "name": "earnedAmt",
          "type": "uint256"
        },
        {
          "indexed": false,
          "internalType": "uint256",
          "name": "buyBackAmt",
          "type": "uint256"
        },
        {
          "indexed": false,
          "internalType": "address",
          "name": "receiver",
          "type": "address"
        }
      ],
      "name": "BuyBack",
      "type": "event"
    },
    {
      "anonymous": false,
      "inputs": [
        {
          "indexed": false,
          "internalType": "address",
          "name": "token0Address",
          "type": "address"
        },
        {
          "indexed": false,
          "internalType": "uint256",
          "name": "token0Amt",
          "type": "uint256"
        },
        {
          "indexed": false,
          "internalType": "address",
          "name": "token1Address",
          "type": "address"
        },
        {
          "indexed": false,
          "internalType": "uint256",
          "name": "token1Amt",
          "type": "uint256"
        }
      ],
      "name": "Compound",
      "type": "event"
    },
    {
      "anonymous": false,
      "inputs": [
        {
          "indexed": false,
          "internalType": "address",
          "name": "tokenAddress",
          "type": "address"
        },
        {
          "indexed": false,
          "internalType": "address",
          "name": "earnedAddress",
          "type": "address"
        },
        {
          "indexed": false,
          "internalType": "uint256",
          "name": "tokenAmt",
          "type": "uint256"
        }
      ],
      "name": "ConvertDustToEarned",
      "type": "event"
    },
    {
      "anonymous": false,
      "inputs": [
        {
          "indexed": false,
          "internalType": "uint256",
          "name": "amount",
          "type": "uint256"
        }
      ],
      "name": "Deposit",
      "type": "event"
    },
    {
      "anonymous": false,
      "inputs": [
        {
          "indexed": false,
          "internalType": "address",
          "name": "earnedAddress",
          "type": "address"
        },
        {
          "indexed": false,
          "internalType": "uint256",
          "name": "fee",
          "type": "uint256"
        },
        {
          "indexed": false,
          "internalType": "address",
          "name": "receiver",
          "type": "address"
        }
      ],
      "name": "DistributeFee",
      "type": "event"
    },
    {
      "anonymous": false,
      "inputs": [
        {
          "indexed": false,
          "internalType": "address",
          "name": "earnedAddress",
          "type": "address"
        },
        {
          "indexed": false,
          "internalType": "uint256",
          "name": "earnedAmt",
          "type": "uint256"
        }
      ],
      "name": "Earned",
      "type": "event"
    },
    {
      "anonymous": false,
      "inputs": [
        {
          "indexed": true,
          "internalType": "address",
          "name": "target",
          "type": "address"
        },
        {
          "indexed": false,
          "internalType": "uint256",
          "name": "value",
          "type": "uint256"
        },
        {
          "indexed": false,
          "internalType": "string",
          "name": "signature",
          "type": "string"
        },
        {
          "indexed": false,
          "internalType": "bytes",
          "name": "data",
          "type": "bytes"
        }
      ],
      "name": "ExecuteTransaction",
      "type": "event"
    },
    {
      "anonymous": false,
      "inputs": [
        {
          "indexed": false,
          "internalType": "uint256",
          "name": "amount",
          "type": "uint256"
        }
      ],
      "name": "Farm",
      "type": "event"
    },
    {
      "anonymous": false,
      "inputs": [
        {
          "indexed": false,
          "internalType": "address",
          "name": "tokenAddress",
          "type": "address"
        },
        {
          "indexed": false,
          "internalType": "uint256",
          "name": "tokenAmt",
          "type": "uint256"
        },
        {
          "indexed": false,
          "internalType": "address",
          "name": "receiver",
          "type": "address"
        }
      ],
      "name": "InCaseTokensGetStuck",
      "type": "event"
    },
    {
      "anonymous": false,
      "inputs": [
        {
          "indexed": true,
          "internalType": "address",
          "name": "previousOwner",
          "type": "address"
        },
        {
          "indexed": true,
          "internalType": "address",
          "name": "newOwner",
          "type": "address"
        }
      ],
      "name": "OwnershipTransferred",
      "type": "event"
    },
    {
      "anonymous": false,
      "inputs": [
        {
          "indexed": false,
          "internalType": "address",
          "name": "account",
          "type": "address"
        }
      ],
      "name": "Paused",
      "type": "event"
    },
    {
      "anonymous": false,
      "inputs": [
        {
          "indexed": false,
          "internalType": "address",
          "name": "account",
          "type": "address"
        }
      ],
      "name": "Unpaused",
      "type": "event"
    },
    {
      "anonymous": false,
      "inputs": [
        {
          "indexed": false,
          "internalType": "uint256",
          "name": "amount",
          "type": "uint256"
        }
      ],
      "name": "Withdraw",
      "type": "event"
    },
    {
      "inputs": [],
      "name": "busdAddress",
      "outputs": [
        {
          "internalType": "address",
          "name": "",
          "type": "address"
        }
      ],
      "stateMutability": "view",
      "type": "function"
    },
    {
      "inputs": [],
      "name": "buyBackAddress1",
      "outputs": [
        {
          "internalType": "address",
          "name": "",
          "type": "address"
        }
      ],
      "stateMutability": "view",
      "type": "function"
    },
    {
      "inputs": [],
      "name": "buyBackAddress2",
      "outputs": [
        {
          "internalType": "address",
          "name": "",
          "type": "address"
        }
      ],
      "stateMutability": "view",
      "type": "function"
    },
    {
      "inputs": [],
      "name": "buyBackRate1",
      "outputs": [
        {
          "internalType": "uint256",
          "name": "",
          "type": "uint256"
        }
      ],
      "stateMutability": "view",
      "type": "function"
    },
    {
      "inputs": [],
      "name": "buyBackRate2",
      "outputs": [
        {
          "internalType": "uint256",
          "name": "",
          "type": "uint256"
        }
      ],
      "stateMutability": "view",
      "type": "function"
    },
    {
      "inputs": [],
      "name": "buyBackRateMax",
      "outputs": [
        {
          "internalType": "uint256",
          "name": "",
          "type": "uint256"
        }
      ],
      "stateMutability": "view",
      "type": "function"
    },
    {
      "inputs": [],
      "name": "buyBackRateUL",
      "outputs": [
        {
          "internalType": "uint256",
          "name": "",
          "type": "uint256"
        }
      ],
      "stateMutability": "view",
      "type": "function"
    },
    {
      "inputs": [],
      "name": "buyBackToken1",
      "outputs": [
        {
          "internalType": "address",
          "name": "",
          "type": "address"
        }
      ],
      "stateMutability": "view",
      "type": "function"
    },
    {
      "inputs": [],
      "name": "buyBackToken2",
      "outputs": [
        {
          "internalType": "address",
          "name": "",
          "type": "address"
        }
      ],
      "stateMutability": "view",
      "type": "function"
    },
    {
      "inputs": [],
      "name": "controllerFee",
      "outputs": [
        {
          "internalType": "uint256",
          "name": "",
          "type": "uint256"
        }
      ],
      "stateMutability": "view",
      "type": "function"
    },
    {
      "inputs": [],
      "name": "controllerFeeMax",
      "outputs": [
        {
          "internalType": "uint256",
          "name": "",
          "type": "uint256"
        }
      ],
      "stateMutability": "view",
      "type": "function"
    },
    {
      "inputs": [],
      "name": "controllerFeeUL",
      "outputs": [
        {
          "internalType": "uint256",
          "name": "",
          "type": "uint256"
        }
      ],
      "stateMutability": "view",
      "type": "function"
    },
    {
      "inputs": [],
      "name": "convertDustToEarned",
      "outputs": [],
      "stateMutability": "nonpayable",
      "type": "function"
    },
    {
      "inputs": [
        {
          "internalType": "address",
          "name": "",
          "type": "address"
        },
        {
          "internalType": "uint256",
          "name": "_wantAmt",
          "type": "uint256"
        }
      ],
      "name": "deposit",
      "outputs": [
        {
          "internalType": "uint256",
          "name": "",
          "type": "uint256"
        }
      ],
      "stateMutability": "nonpayable",
      "type": "function"
    },
    {
      "inputs": [],
      "name": "earn",
      "outputs": [],
      "stateMutability": "nonpayable",
      "type": "function"
    },
    {
      "inputs": [],
      "name": "earnedAddress",
      "outputs": [
        {
          "internalType": "address",
          "name": "",
          "type": "address"
        }
      ],
      "stateMutability": "view",
      "type": "function"
    },
    {
      "inputs": [],
      "name": "entranceFeeFactor",
      "outputs": [
        {
          "internalType": "uint256",
          "name": "",
          "type": "uint256"
        }
      ],
      "stateMutability": "view",
      "type": "function"
    },
    {
      "inputs": [],
      "name": "entranceFeeFactorLL",
      "outputs": [
        {
          "internalType": "uint256",
          "name": "",
          "type": "uint256"
        }
      ],
      "stateMutability": "view",
      "type": "function"
    },
    {
      "inputs": [],
      "name": "entranceFeeFactorMax",
      "outputs": [
        {
          "internalType": "uint256",
          "name": "",
          "type": "uint256"
        }
      ],
      "stateMutability": "view",
      "type": "function"
    },
    {
      "inputs": [
        {
          "internalType": "address",
          "name": "target",
          "type": "address"
        },
        {
          "internalType": "uint256",
          "name": "value",
          "type": "uint256"
        },
        {
          "internalType": "string",
          "name": "signature",
          "type": "string"
        },
        {
          "internalType": "bytes",
          "name": "data",
          "type": "bytes"
        }
      ],
      "name": "executeTransaction",
      "outputs": [
        {
          "internalType": "bytes",
          "name": "",
          "type": "bytes"
        }
      ],
      "stateMutability": "nonpayable",
      "type": "function"
    },
    {
      "inputs": [],
      "name": "farm",
      "outputs": [],
      "stateMutability": "nonpayable",
      "type": "function"
    },
    {
      "inputs": [],
      "name": "farmContractAddress",
      "outputs": [
        {
          "internalType": "address",
          "name": "",
          "type": "address"
        }
      ],
      "stateMutability": "view",
      "type": "function"
    },
    {
      "inputs": [
        {
          "internalType": "address",
          "name": "_token",
          "type": "address"
        },
        {
          "internalType": "uint256",
          "name": "_amount",
          "type": "uint256"
        },
        {
          "internalType": "address",
          "name": "_to",
          "type": "address"
        }
      ],
      "name": "inCaseTokensGetStuck",
      "outputs": [],
      "stateMutability": "nonpayable",
      "type": "function"
    },
    {
      "inputs": [
        {
          "internalType": "address",
          "name": "_account",
          "type": "address"
        }
      ],
      "name": "isAuthorised",
      "outputs": [
        {
          "internalType": "bool",
          "name": "",
          "type": "bool"
        }
      ],
      "stateMutability": "view",
      "type": "function"
    },
    {
      "inputs": [],
      "name": "isAutoComp",
      "outputs": [
        {
          "internalType": "bool",
          "name": "",
          "type": "bool"
        }
      ],
      "stateMutability": "view",
      "type": "function"
    },
    {
      "inputs": [],
      "name": "lastEarnBlock",
      "outputs": [
        {
          "internalType": "uint256",
          "name": "",
          "type": "uint256"
        }
      ],
      "stateMutability": "view",
      "type": "function"
    },
    {
      "inputs": [],
      "name": "notPublic",
      "outputs": [
        {
          "internalType": "bool",
          "name": "",
          "type": "bool"
        }
      ],
      "stateMutability": "view",
      "type": "function"
    },
    {
      "inputs": [],
      "name": "operator",
      "outputs": [
        {
          "internalType": "address",
          "name": "",
          "type": "address"
        }
      ],
      "stateMutability": "view",
      "type": "function"
    },
    {
      "inputs": [],
      "name": "owner",
      "outputs": [
        {
          "internalType": "address",
          "name": "",
          "type": "address"
        }
      ],
      "stateMutability": "view",
      "type": "function"
    },
    {
      "inputs": [
        {
          "internalType": "address",
          "name": "",
          "type": "address"
        },
        {
          "internalType": "address",
          "name": "",
          "type": "address"
        },
        {
          "internalType": "uint256",
          "name": "",
          "type": "uint256"
        }
      ],
      "name": "paths",
      "outputs": [
        {
          "internalType": "address",
          "name": "",
          "type": "address"
        }
      ],
      "stateMutability": "view",
      "type": "function"
    },
    {
      "inputs": [],
      "name": "pause",
      "outputs": [],
      "stateMutability": "nonpayable",
      "type": "function"
    },
    {
      "inputs": [],
      "name": "paused",
      "outputs": [
        {
          "internalType": "bool",
          "name": "",
          "type": "bool"
        }
      ],
      "stateMutability": "view",
      "type": "function"
    },
    {
      "inputs": [],
      "name": "pendingHarvest",
      "outputs": [
        {
          "internalType": "uint256",
          "name": "",
          "type": "uint256"
        }
      ],
      "stateMutability": "view",
      "type": "function"
    },
    {
      "inputs": [],
      "name": "pendingHarvestDollarValue",
      "outputs": [
        {
          "internalType": "uint256",
          "name": "",
          "type": "uint256"
        }
      ],
      "stateMutability": "view",
      "type": "function"
    },
    {
      "inputs": [],
      "name": "pid",
      "outputs": [
        {
          "internalType": "uint256",
          "name": "",
          "type": "uint256"
        }
      ],
      "stateMutability": "view",
      "type": "function"
    },
    {
      "inputs": [],
      "name": "renounceOwnership",
      "outputs": [],
      "stateMutability": "nonpayable",
      "type": "function"
    },
    {
      "inputs": [
        {
          "internalType": "address",
          "name": "_buyBackAddress1",
          "type": "address"
        }
      ],
      "name": "setBuyBackAddress1",
      "outputs": [],
      "stateMutability": "nonpayable",
      "type": "function"
    },
    {
      "inputs": [
        {
          "internalType": "address",
          "name": "_buyBackAddress2",
          "type": "address"
        }
      ],
      "name": "setBuyBackAddress2",
      "outputs": [],
      "stateMutability": "nonpayable",
      "type": "function"
    },
    {
      "inputs": [
        {
          "internalType": "uint256",
          "name": "_buyBackRate1",
          "type": "uint256"
        }
      ],
      "name": "setBuyBackRate1",
      "outputs": [],
      "stateMutability": "nonpayable",
      "type": "function"
    },
    {
      "inputs": [
        {
          "internalType": "uint256",
          "name": "_buyBackRate2",
          "type": "uint256"
        }
      ],
      "name": "setBuyBackRate2",
      "outputs": [],
      "stateMutability": "nonpayable",
      "type": "function"
    },
    {
      "inputs": [
        {
          "internalType": "uint256",
          "name": "_controllerFee",
          "type": "uint256"
        }
      ],
      "name": "setControllerFee",
      "outputs": [],
      "stateMutability": "nonpayable",
      "type": "function"
    },
    {
      "inputs": [
        {
          "internalType": "uint256",
          "name": "_entranceFeeFactor",
          "type": "uint256"
        }
      ],
      "name": "setEntranceFeeFactor",
      "outputs": [],
      "stateMutability": "nonpayable",
      "type": "function"
    },
    {
      "inputs": [
        {
          "internalType": "address[]",
          "name": "_earnedToBuyBackToken1Path",
          "type": "address[]"
        },
        {
          "internalType": "address[]",
          "name": "_earnedToBuyBackToken2Path",
          "type": "address[]"
        },
        {
          "internalType": "address[]",
          "name": "_earnedToBusdPath",
          "type": "address[]"
        },
        {
          "internalType": "address[]",
          "name": "_token0ToEarnedPath",
          "type": "address[]"
        },
        {
          "internalType": "address[]",
          "name": "_earnedToToken0Path",
          "type": "address[]"
        }
      ],
      "name": "setMainPaths",
      "outputs": [],
      "stateMutability": "nonpayable",
      "type": "function"
    },
    {
      "inputs": [
        {
          "internalType": "bool",
          "name": "_notPublic",
          "type": "bool"
        }
      ],
      "name": "setNotPublic",
      "outputs": [],
      "stateMutability": "nonpayable",
      "type": "function"
    },
    {
      "inputs": [
        {
          "internalType": "address",
          "name": "_operator",
          "type": "address"
        }
      ],
      "name": "setOperator",
      "outputs": [],
      "stateMutability": "nonpayable",
      "type": "function"
    },
    {
      "inputs": [
        {
          "internalType": "address",
          "name": "_inputToken",
          "type": "address"
        },
        {
          "internalType": "address",
          "name": "_outputToken",
          "type": "address"
        },
        {
          "internalType": "address[]",
          "name": "_path",
          "type": "address[]"
        }
      ],
      "name": "setPaths",
      "outputs": [],
      "stateMutability": "nonpayable",
      "type": "function"
    },
    {
      "inputs": [
        {
          "internalType": "address",
          "name": "_strategist",
          "type": "address"
        }
      ],
      "name": "setStrategist",
      "outputs": [],
      "stateMutability": "nonpayable",
      "type": "function"
    },
    {
      "inputs": [
        {
          "internalType": "address",
          "name": "_timelock",
          "type": "address"
        }
      ],
      "name": "setTimelock",
      "outputs": [],
      "stateMutability": "nonpayable",
      "type": "function"
    },
    {
      "inputs": [
        {
          "internalType": "address",
          "name": "_vSwapPool",
          "type": "address"
        },
        {
          "internalType": "address",
          "name": "_vSwapBasePool",
          "type": "address"
        }
      ],
      "name": "setVPegSwapInnfo",
      "outputs": [],
      "stateMutability": "nonpayable",
      "type": "function"
    },
    {
      "inputs": [],
      "name": "sharesTotal",
      "outputs": [
        {
          "internalType": "uint256",
          "name": "",
          "type": "uint256"
        }
      ],
      "stateMutability": "view",
      "type": "function"
    },
    {
      "inputs": [],
      "name": "strategist",
      "outputs": [
        {
          "internalType": "address",
          "name": "",
          "type": "address"
        }
      ],
      "stateMutability": "view",
      "type": "function"
    },
    {
      "inputs": [],
      "name": "timelock",
      "outputs": [
        {
          "internalType": "address",
          "name": "",
          "type": "address"
        }
      ],
      "stateMutability": "view",
      "type": "function"
    },
    {
      "inputs": [],
      "name": "token0Address",
      "outputs": [
        {
          "internalType": "address",
          "name": "",
          "type": "address"
        }
      ],
      "stateMutability": "view",
      "type": "function"
    },
    {
      "inputs": [
        {
          "internalType": "address",
          "name": "newOwner",
          "type": "address"
        }
      ],
      "name": "transferOwnership",
      "outputs": [],
      "stateMutability": "nonpayable",
      "type": "function"
    },
    {
      "inputs": [
        {
          "internalType": "uint256",
          "name": "_tokenAmount",
          "type": "uint256"
        },
        {
          "internalType": "address[]",
          "name": "_path",
          "type": "address[]"
        }
      ],
      "name": "uniExchangeRate",
      "outputs": [
        {
          "internalType": "uint256",
          "name": "",
          "type": "uint256"
        }
      ],
      "stateMutability": "view",
      "type": "function"
    },
    {
      "inputs": [],
      "name": "uniRouterAddress",
      "outputs": [
        {
          "internalType": "address",
          "name": "",
          "type": "address"
        }
      ],
      "stateMutability": "view",
      "type": "function"
    },
    {
      "inputs": [],
      "name": "unpause",
      "outputs": [],
      "stateMutability": "nonpayable",
      "type": "function"
    },
    {
      "inputs": [],
      "name": "vPegSwapRouterAddress",
      "outputs": [
        {
          "internalType": "address",
          "name": "",
          "type": "address"
        }
      ],
      "stateMutability": "view",
      "type": "function"
    },
    {
      "inputs": [],
      "name": "vSwapBasePool",
      "outputs": [
        {
          "internalType": "address",
          "name": "",
          "type": "address"
        }
      ],
      "stateMutability": "view",
      "type": "function"
    },
    {
      "inputs": [],
      "name": "vSwapPool",
      "outputs": [
        {
          "internalType": "address",
          "name": "",
          "type": "address"
        }
      ],
      "stateMutability": "view",
      "type": "function"
    },
    {
      "inputs": [],
      "name": "wantAddress",
      "outputs": [
        {
          "internalType": "address",
          "name": "",
          "type": "address"
        }
      ],
      "stateMutability": "view",
      "type": "function"
    },
    {
      "inputs": [],
      "name": "wantLockedTotal",
      "outputs": [
        {
          "internalType": "uint256",
          "name": "",
          "type": "uint256"
        }
      ],
      "stateMutability": "view",
      "type": "function"
    },
    {
      "inputs": [],
      "name": "wbnbAddress",
      "outputs": [
        {
          "internalType": "address",
          "name": "",
          "type": "address"
        }
      ],
      "stateMutability": "view",
      "type": "function"
    },
    {
      "inputs": [
        {
          "internalType": "address",
          "name": "",
          "type": "address"
        },
        {
          "internalType": "uint256",
          "name": "_wantAmt",
          "type": "uint256"
        }
      ],
      "name": "withdraw",
      "outputs": [
        {
          "internalType": "uint256",
          "name": "",
          "type": "uint256"
        }
      ],
      "stateMutability": "nonpayable",
      "type": "function"
    }
  ],
  "bytecode": "0x6080604052600780546001600160a01b03199081167305ff2b0db69458a0750badebc4f9e13add608c7f1790915560098054821673c437b8d65ecdd43cda92739e09ebd68bbe1965e1179055600a805482167318a78291a4a903ee5e8d8ce5a5945ecd2388c0f8179055600b80548216737569f9adabc99780b7a91b16666bb985177d1dca179055600e805460ff60a01b199083167392a082ad5a942140bcc791081f775900d0a514d9171690556000600f8190556010819055601181905560125561024e6013556014805482167381859801b01764d4f0fa5e64729f5a6c3b91435b17905560158054821661dead908117909155606460165560178054831673190b589cf9fb8ddeabbfeae36a813ffb2a702454179055601880549092161790556127106019553480156200013457600080fd5b5060405162004cec38038062004cec83398181016040526101608110156200015b57600080fd5b815160208301516040808501516060860151608087015160a088015160c089015160e08a01516101008b0180519751999b989a96999598949793969295919491939282019284640100000000821115620001b457600080fd5b908301906020820185811115620001ca57600080fd5b8251866020820283011164010000000082111715620001e857600080fd5b82525081516020918201928201910280838360005b8381101562000217578181015183820152602001620001fd565b50505050905001604052602001805160405193929190846401000000008211156200024157600080fd5b9083019060208201858111156200025757600080fd5b82518660208202830111640100000000821117156200027557600080fd5b82525081516020918201928201910280838360005b83811015620002a45781810151838201526020016200028a565b50505050919091016040525060200151915060009050620002c46200051a565b600080546001600160a01b0319166001600160a01b03831690811782556040519293509160008051602062004ccc833981519152908290a3506001805560028054600c8054336001600160a01b03199182168117909255600d8054821690921790915561ffff199091166101008d15150217909155600480549091166001600160a01b03898116919091179091558516156200037657600780546001600160a01b0319166001600160a01b0387161790555b6001600160a01b03841615620003a257600980546001600160a01b0319166001600160a01b0386161790555b82600081518110620003b057fe5b6020026020010151601460006101000a8154816001600160a01b0302191690836001600160a01b0316021790555082600181518110620003ec57fe5b6020026020010151601560006101000a8154816001600160a01b0302191690836001600160a01b03160217905550816000815181106200042857fe5b6020026020010151601760006101000a8154816001600160a01b0302191690836001600160a01b03160217905550816001815181106200046457fe5b6020908102919091010151601880546001600160a01b0319166001600160a01b03909216919091179055600254610100900460ff1615620004fe57600580546001600160a01b03199081166001600160a01b03848116919091179092556002805462010000600160b01b031916620100008d85160217905560038a9055600680548216898416179055600780549091169187169190911790555b620005098b6200051e565b50505050505050505050506200061c565b3390565b620005286200051a565b6000546001600160a01b039081169116146200058b576040805162461bcd60e51b815260206004820181905260248201527f4f776e61626c653a2063616c6c6572206973206e6f7420746865206f776e6572604482015290519081900360640190fd5b6001600160a01b038116620005d25760405162461bcd60e51b815260040180806020018281038252602681526020018062004ca66026913960400191505060405180910390fd5b600080546040516001600160a01b038085169392169160008051602062004ccc83398151915291a3600080546001600160a01b0319166001600160a01b0392909216919091179055565b61467a806200062c6000396000f3fe608060405234801561001057600080fd5b50600436106103d05760003560e01c8063889adfa8116101ff578063ce5328e41161011a578063e5dd455a116100ad578063f10684541161007c578063f106845414610d49578063f2fde38b14610d51578063f3fef3a314610d77578063f400d31114610da3576103d0565b8063e5dd455a14610d31578063e719847414610d39578063e7a0367914610d41578063ee50dc34146105e2576103d0565b8063d8be16da116100e9578063d8be16da14610d11578063db7a3c0f14610d19578063df5c8a9e14610d21578063dfee1dd914610d29576103d0565b8063ce5328e414610cc3578063cef4cde414610ccb578063d33219b414610d01578063d389800f14610d09576103d0565b8063bb9928c611610192578063c302a4d011610161578063c302a4d014610c41578063c3ec8dda14610c49578063c7b9d53014610c6f578063c956f32b14610c95576103d0565b8063bb9928c614610bd9578063bdacb30314610bf6578063bf94c0ba14610c1c578063c11c2e9214610c39576103d0565b8063a5528632116101ce578063a552863214610b7d578063abd6739514610ba3578063b3545c0114610bab578063b3ab15fb14610bb3576103d0565b8063889adfa8146108b25780638da5cb5b146108ba5780638fc847de146108c25780639fc33a9f14610b75576103d0565b806351b699cd116102ef578063693a090b116102825780637cd34359116102515780637cd34359146108925780637ff36fbe1461089a5780638456cb59146108a257806385f02dd6146108aa576103d0565b8063693a090b146107be578063715018a6146107c657806376a90231146107ce57806376f2892f146107d6576103d0565b8063607f35a0116102be578063607f35a0146106ce57806363fe3e3a146106d657806367206d40146106de5780636804d54a14610714576103d0565b806351b699cd1461067c578063570ca735146106b657806358ca57de146106be5780635c975abb146106c6576103d0565b80633e1a89121161036757806345d6b6671161033657806345d6b6671461062957806347e7ef24146106485780634a56fcd4146106745780634d9f7bb2146105e2576103d0565b80633e1a8912146105f45780633f4ba83a1461061157806342da4eb31461061957806344a3955e14610621576103d0565b80631fe4a686116103a35780631fe4a686146104235780632224fa251461042b5780632717eff3146105e257806336e9332d146105ea576103d0565b8063061c7d48146103d55780630fa4e01e146103ef5780631334903f146103f75780631a43da93146103ff575b600080fd5b6103dd610dc0565b60408051918252519081900360200190f35b6103dd610dc6565b6103dd610dcc565b610407610dd2565b604080516001600160a01b039092168252519081900360200190f35b610407610de1565b61056d6004803603608081101561044157600080fd5b6001600160a01b038235169160208101359181019060608101604082013564010000000081111561047157600080fd5b82018360208201111561048357600080fd5b803590602001918460018302840111640100000000831117156104a557600080fd5b91908080601f01602080910402602001604051908101604052809392919081815260200183838082843760009201919091525092959493602081019350359150506401000000008111156104f857600080fd5b82018360208201111561050a57600080fd5b8035906020019184600183028401116401000000008311171561052c57600080fd5b91908080601f016020809104026020016040519081016040528093929190818152602001838380828437600092019190915250929550610df0945050505050565b6040805160208082528351818301528351919283929083019185019080838360005b838110156105a757818101518382015260200161058f565b50505050905090810190601f1680156105d45780820380516001836020036101000a031916815260200191505b509250505060405180910390f35b6103dd611129565b6105f261112f565b005b6105f26004803603602081101561060a57600080fd5b503561119a565b6105f261127f565b6103dd6112d2565b6103dd6112d8565b6105f26004803603602081101561063f57600080fd5b503515156112de565b6103dd6004803603604081101561065e57600080fd5b506001600160a01b038135169060200135611371565b610407611517565b6106a26004803603602081101561069257600080fd5b50356001600160a01b0316611526565b604080519115158252519081900360200190f35b61040761156c565b61040761157b565b6106a261158a565b610407611593565b6104076115a2565b6105f2600480360360608110156106f457600080fd5b506001600160a01b038135811691602081013591604090910135166115ba565b6103dd6004803603604081101561072a57600080fd5b8135919081019060408101602082013564010000000081111561074c57600080fd5b82018360208201111561075e57600080fd5b8035906020019184602083028401116401000000008311171561078057600080fd5b91908080602002602001604051908101604052809392919081815260200183836020028082843760009201919091525092955061172c945050505050565b6104076118e1565b6105f26118f0565b6104076119bc565b6105f2600480360360608110156107ec57600080fd5b6001600160a01b03823581169260208101359091169181019060608101604082013564010000000081111561082057600080fd5b82018360208201111561083257600080fd5b8035906020019184602083028401116401000000008311171561085457600080fd5b9190808060200260200160405190810160405280939291908181526020018383602002808284376000920191909152509295506119d4945050505050565b610407611a58565b610407611a67565b6105f2611a76565b6103dd611ac7565b6103dd611acd565b610407611b86565b6105f2600480360360a08110156108d857600080fd5b8101906020810181356401000000008111156108f357600080fd5b82018360208201111561090557600080fd5b8035906020019184602083028401116401000000008311171561092757600080fd5b919080806020026020016040519081016040528093929190818152602001838360200280828437600092019190915250929594936020810193503591505064010000000081111561097757600080fd5b82018360208201111561098957600080fd5b803590602001918460208302840111640100000000831117156109ab57600080fd5b91908080602002602001604051908101604052809392919081815260200183836020028082843760009201919091525092959493602081019350359150506401000000008111156109fb57600080fd5b820183602082011115610a0d57600080fd5b80359060200191846020830284011164010000000083111715610a2f57600080fd5b9190808060200260200160405190810160405280939291908181526020018383602002808284376000920191909152509295949360208101935035915050640100000000811115610a7f57600080fd5b820183602082011115610a9157600080fd5b80359060200191846020830284011164010000000083111715610ab357600080fd5b9190808060200260200160405190810160405280939291908181526020018383602002808284376000920191909152509295949360208101935035915050640100000000811115610b0357600080fd5b820183602082011115610b1557600080fd5b80359060200191846020830284011164010000000083111715610b3757600080fd5b919080806020026020016040519081016040528093929190818152602001838360200280828437600092019190915250929550611b95945050505050565b610407611d1d565b6105f260048036036020811015610b9357600080fd5b50356001600160a01b0316611d32565b610407611e12565b6103dd611e21565b6105f260048036036020811015610bc957600080fd5b50356001600160a01b0316611e27565b6105f260048036036020811015610bef57600080fd5b5035611eaa565b6105f260048036036020811015610c0c57600080fd5b50356001600160a01b0316611f51565b6105f260048036036020811015610c3257600080fd5b5035611fd4565b6105f261207b565b6103dd61236d565b6105f260048036036020811015610c5f57600080fd5b50356001600160a01b0316612373565b6105f260048036036020811015610c8557600080fd5b50356001600160a01b0316612455565b6105f260048036036040811015610cab57600080fd5b506001600160a01b03813581169160200135166124d8565b610407612567565b61040760048036036060811015610ce157600080fd5b506001600160a01b03813581169160208101359091169060400135612576565b6104076125b8565b6105f26125c7565b6106a2612ca4565b6103dd612cc5565b6103dd612e06565b6103dd612e0c565b6106a2612e12565b610407612e20565b610407612e2f565b6103dd612e3e565b6105f260048036036020811015610d6757600080fd5b50356001600160a01b0316612e44565b6103dd60048036036040811015610d8d57600080fd5b506001600160a01b038135169060200135612f66565b6105f260048036036020811015610db957600080fd5b5035613263565b61012c81565b600f5481565b60195481565b6015546001600160a01b031681565b600d546001600160a01b031681565b600e546060906001600160a01b03163314610e3c5760405162461bcd60e51b81526004018080602001828103825260278152602001806145f46027913960400191505060405180910390fd5b6060835160001415610e4f575081610f05565b83805190602001208360405160200180837bffffffffffffffffffffffffffffffffffffffffffffffffffffffff1916815260040182805190602001908083835b60208310610ecd57805182527fffffffffffffffffffffffffffffffffffffffffffffffffffffffffffffffe09092019160209182019101610e90565b6001836020036101000a0380198251168184511680821785525050505050509050019250505060405160208183030381529060405290505b60006060876001600160a01b031687846040518082805190602001908083835b60208310610f6257805182527fffffffffffffffffffffffffffffffffffffffffffffffffffffffffffffffe09092019160209182019101610f25565b6001836020036101000a03801982511681845116808217855250505050505090500191505060006040518083038185875af1925050503d8060008114610fc4576040519150601f19603f3d011682016040523d82523d6000602084013e610fc9565b606091505b50915091508161100a5760405162461bcd60e51b815260040180806020018281038252604481526020018061451d6044913960600191505060405180910390fd5b876001600160a01b03167f88405ca50016c636e025868e263efe5a9f63bf11cc45404f7616394c7dc389d0888888604051808481526020018060200180602001838103835285818151815260200191508051906020019080838360005b8381101561107f578181015183820152602001611067565b50505050905090810190601f1680156110ac5780820380516001836020036101000a031916815260200191505b50838103825284518152845160209182019186019080838360005b838110156110df5781810151838201526020016110c7565b50505050905090810190601f16801561110c5780820380516001836020036101000a031916815260200191505b509550505050505060405180910390a2925050505b949350505050565b61271081565b60026001541415611187576040805162461bcd60e51b815260206004820152601f60248201527f5265656e7472616e637947756172643a207265656e7472616e742063616c6c00604482015290519081900360640190fd5b6002600155611194613308565b60018055565b600c546001600160a01b031633146111e35760405162461bcd60e51b815260040180806020018281038252602b8152602001806145a8602b913960400191505060405180910390fd5b6126de8111611239576040805162461bcd60e51b815260206004820181905260248201527f427661756c747353747261746567793a202173616665202d20746f6f206c6f77604482015290519081900360640190fd5b61271081111561127a5760405162461bcd60e51b81526004018080602001828103825260218152602001806145616021913960400191505060405180910390fd5b601955565b600c546001600160a01b031633146112c85760405162461bcd60e51b815260040180806020018281038252602b8152602001806145a8602b913960400191505060405180910390fd5b6112d0613485565b565b60105481565b60115481565b600c546001600160a01b031633146113275760405162461bcd60e51b815260040180806020018281038252602b8152602001806145a8602b913960400191505060405180910390fd5b600e805491151574010000000000000000000000000000000000000000027fffffffffffffffffffffff00ffffffffffffffffffffffffffffffffffffffff909216919091179055565b600061137b61354a565b6000546001600160a01b039081169116146113dd576040805162461bcd60e51b815260206004820181905260248201527f4f776e61626c653a2063616c6c6572206973206e6f7420746865206f776e6572604482015290519081900360640190fd5b60025460ff1615611435576040805162461bcd60e51b815260206004820152601060248201527f5061757361626c653a2070617573656400000000000000000000000000000000604482015290519081900360640190fd5b60045461144d906001600160a01b031633308561354e565b60105482901580159061146257506000601154115b1561149d5761149a61271061149460105461149460195461148e6011548a6135d690919063ffffffff16565b906135d6565b90613636565b90505b6011546114aa9082613678565b601155600254610100900460ff16156114ca576114c5613308565b6114db565b6010546114d79084613678565b6010555b6040805184815290517f4d6ce1e535dbade1c23defba91e23b8f791ce5edc0cc320257a2b364e4e384269181900360200190a190505b92915050565b6018546001600160a01b031681565b600c546000906001600160a01b038381169116148061154f5750600d546001600160a01b031633145b806115645750600e546001600160a01b031633145b90505b919050565b600c546001600160a01b031681565b600b546001600160a01b031681565b60025460ff1690565b6017546001600160a01b031681565b73bb4cdb9cbd36b01bd1cbaebf2de08d9173bc095c81565b600c546001600160a01b031633146116035760405162461bcd60e51b815260040180806020018281038252602b8152602001806145a8602b913960400191505060405180910390fd5b6006546001600160a01b0384811691161415611666576040805162461bcd60e51b815260206004820152600560248201527f2173616665000000000000000000000000000000000000000000000000000000604482015290519081900360640190fd5b6004546001600160a01b03848116911614156116c9576040805162461bcd60e51b815260206004820152600560248201527f2173616665000000000000000000000000000000000000000000000000000000604482015290519081900360640190fd5b6116dd6001600160a01b03841682846136d2565b604080516001600160a01b0380861682526020820185905283168183015290517f22f92dfb4f608ea5db1e9bb08c0b4f5518af93b1259d335fe05900056096ab2c9181900360600190a1505050565b600754604080517fd06ca61f00000000000000000000000000000000000000000000000000000000815260048101858152602482019283528451604483015284516000946060946001600160a01b039091169363d06ca61f9389938993919260640190602080860191028083838d5b838110156117b357818101518382015260200161179b565b50505050905001935050505060006040518083038186803b1580156117d757600080fd5b505afa1580156117eb573d6000803e3d6000fd5b505050506040513d6000823e601f3d9081017fffffffffffffffffffffffffffffffffffffffffffffffffffffffffffffffe0168201604052602081101561183257600080fd5b810190808051604051939291908464010000000082111561185257600080fd5b90830190602082018581111561186757600080fd5b825186602082028301116401000000008211171561188457600080fd5b82525081516020918201928201910280838360005b838110156118b1578181015183820152602001611899565b505050509050016040525050509050806001825103815181106118d057fe5b602002602001015191505092915050565b6007546001600160a01b031681565b6118f861354a565b6000546001600160a01b0390811691161461195a576040805162461bcd60e51b815260206004820181905260248201527f4f776e61626c653a2063616c6c6572206973206e6f7420746865206f776e6572604482015290519081900360640190fd5b600080546040516001600160a01b03909116907f8be0079c531659141344cd1fd0a4f28419497f9722a3daafe3b4186f6b6457e0908390a3600080547fffffffffffffffffffffffff0000000000000000000000000000000000000000169055565b73e9e7cea3dedca5984780bafc599bd69add087d5681565b600c546001600160a01b03163314611a1d5760405162461bcd60e51b815260040180806020018281038252602b8152602001806145a8602b913960400191505060405180910390fd5b6001600160a01b03808416600090815260086020908152604080832093861683529281529190208251611a5292840190614468565b50505050565b6009546001600160a01b031681565b6005546001600160a01b031681565b600c546001600160a01b03163314611abf5760405162461bcd60e51b815260040180806020018281038252602b8152602001806145a8602b913960400191505060405180910390fd5b6112d0613757565b60125481565b600080611ad8612cc5565b90508015611b7d576006546001600160a01b0316600090815260086020908152604080832073e9e7cea3dedca5984780bafc599bd69add087d5684528252918290208054835181840281018401909452808452611b7893859390929190830182828015611b6e57602002820191906000526020600020905b81546001600160a01b03168152600190910190602001808311611b50575b505050505061172c565b611b80565b60005b91505090565b6000546001600160a01b031690565b600c546001600160a01b03163314611bde5760405162461bcd60e51b815260040180806020018281038252602b8152602001806145a8602b913960400191505060405180910390fd5b6006546001600160a01b03908116600090815260086020908152604080832060145490941683529281529190208651611c1992880190614468565b506006546001600160a01b03908116600090815260086020908152604080832060175490941683529281529190208551611c5592870190614468565b506006546001600160a01b03908116600090815260086020908152604080832060055490941683529281529190208251611c9192840190614468565b506006546001600160a01b0316600090815260086020908152604080832073e9e7cea3dedca5984780bafc599bd69add087d56845282529091208451611cd992860190614468565b506005546001600160a01b03908116600090815260086020908152604080832060065490941683529281529190208351611d1592850190614468565b505050505050565b6002546201000090046001600160a01b031681565b600c546001600160a01b03163314611d7b5760405162461bcd60e51b815260040180806020018281038252602b8152602001806145a8602b913960400191505060405180910390fd5b6001600160a01b038116611dd8576040805162461bcd60e51b8152602060048083019190915260248201527f7a65726f00000000000000000000000000000000000000000000000000000000604482015290519081900360640190fd5b601880547fffffffffffffffffffffffff0000000000000000000000000000000000000000166001600160a01b0392909216919091179055565b600a546001600160a01b031681565b61032081565b600c546001600160a01b03163314611e705760405162461bcd60e51b815260040180806020018281038252602b8152602001806145a8602b913960400191505060405180910390fd5b600c80547fffffffffffffffffffffffff0000000000000000000000000000000000000000166001600160a01b0392909216919091179055565b600c546001600160a01b03163314611ef35760405162461bcd60e51b815260040180806020018281038252602b8152602001806145a8602b913960400191505060405180910390fd5b6103206016541115611f4c576040805162461bcd60e51b815260206004820152601960248201527f427661756c747353747261746567793a20746f6f206869676800000000000000604482015290519081900360640190fd5b601655565b600e546001600160a01b03163314611f9a5760405162461bcd60e51b81526004018080602001828103825260278152602001806145f46027913960400191505060405180910390fd5b600e80547fffffffffffffffffffffffff0000000000000000000000000000000000000000166001600160a01b0392909216919091179055565b600c546001600160a01b0316331461201d5760405162461bcd60e51b815260040180806020018281038252602b8152602001806145a8602b913960400191505060405180910390fd5b6103206013541115612076576040805162461bcd60e51b815260206004820152601960248201527f427661756c747353747261746567793a20746f6f206869676800000000000000604482015290519081900360640190fd5b601355565b60025460ff16156120d3576040805162461bcd60e51b815260206004820152601060248201527f5061757361626c653a2070617573656400000000000000000000000000000000604482015290519081900360640190fd5b600254610100900460ff1661212f576040805162461bcd60e51b815260206004820152600b60248201527f2169734175746f436f6d70000000000000000000000000000000000000000000604482015290519081900360640190fd5b600554604080517f70a0823100000000000000000000000000000000000000000000000000000000815230600482015290516000926001600160a01b0316916370a08231916024808301926020929190829003018186803b15801561219357600080fd5b505afa1580156121a7573d6000803e3d6000fd5b505050506040513d60208110156121bd57600080fd5b50516006546005549192506001600160a01b039182169116148015906121e35750600081115b1561236a57600754600554612205916001600160a01b03918216911683613803565b6007546005546001600160a01b0390811660009081526008602090815260408083206006548516845290915280822090517f5c11d79500000000000000000000000000000000000000000000000000000000815260048101868152602482018490523060648301819052603c42016084840181905260a060448501908152855460a486018190529790981697635c11d795978a9796959394929360c40190869080156122da57602002820191906000526020600020905b81546001600160a01b031681526001909101906020018083116122bc575b50509650505050505050600060405180830381600087803b1580156122fe57600080fd5b505af1158015612312573d6000803e3d6000fd5b5050600554600654604080516001600160a01b03938416815291909216602082015280820185905290517f65dcf313a2a7fa900bdbeb87203f9ac8009224d4656965a6b8498b8b245e0e1c9350908190036060019150a15b50565b6126de81565b600c546001600160a01b031633146123bc5760405162461bcd60e51b815260040180806020018281038252602b8152602001806145a8602b913960400191505060405180910390fd5b6015546001600160a01b031661241b576040805162461bcd60e51b8152602060048083019190915260248201527f7a65726f00000000000000000000000000000000000000000000000000000000604482015290519081900360640190fd5b601580547fffffffffffffffffffffffff0000000000000000000000000000000000000000166001600160a01b0392909216919091179055565b600c546001600160a01b0316331461249e5760405162461bcd60e51b815260040180806020018281038252602b8152602001806145a8602b913960400191505060405180910390fd5b600d80547fffffffffffffffffffffffff0000000000000000000000000000000000000000166001600160a01b0392909216919091179055565b600c546001600160a01b031633146125215760405162461bcd60e51b815260040180806020018281038252602b8152602001806145a8602b913960400191505060405180910390fd5b600a80546001600160a01b039384167fffffffffffffffffffffffff000000000000000000000000000000000000000091821617909155600b8054929093169116179055565b6014546001600160a01b031681565b6008602052826000526040600020602052816000526040600020818154811061259b57fe5b6000918252602090912001546001600160a01b0316925083915050565b600e546001600160a01b031681565b60025460ff161561261f576040805162461bcd60e51b815260206004820152601060248201527f5061757361626c653a2070617573656400000000000000000000000000000000604482015290519081900360640190fd5b600254610100900460ff1661267b576040805162461bcd60e51b815260206004820152601c60248201527f427661756c747353747261746567793a202169734175746f436f6d7000000000604482015290519081900360640190fd5b600e5474010000000000000000000000000000000000000000900460ff1615806126a957506126a933611526565b6126fa576040805162461bcd60e51b815260206004820152601c60248201527f427661756c747353747261746567793a2021617574686f726973656400000000604482015290519081900360640190fd5b60028054906101000a90046001600160a01b03166001600160a01b031663441a3e7060035460006040518363ffffffff1660e01b81526004018083815260200182815260200192505050600060405180830381600087803b15801561275e57600080fd5b505af1158015612772573d6000803e3d6000fd5b5050600654604080517f70a082310000000000000000000000000000000000000000000000000000000081523060048201529051600094506001600160a01b0390921692506370a08231916024808301926020929190829003018186803b1580156127dc57600080fd5b505afa1580156127f0573d6000803e3d6000fd5b505050506040513d602081101561280657600080fd5b5051600654604080516001600160a01b0390921682526020820183905280519293507f053fa1fc52294a40b4ff1a988765bd298c00caa24d685cc3f767dcfde254ef9a92918290030190a1600061285c826138ea565b905060006128698361398c565b9050600061287684613cf3565b905061288e81612888848188886140de565b906140de565b6007546006549195506128ae916001600160a01b03908116911686613803565b6005546006546001600160a01b039081169116146129d8576007546006546001600160a01b0390811660009081526008602090815260408083206005548516845290915280822090517f5c11d79500000000000000000000000000000000000000000000000000000000815260048101898152602482018490523060648301819052603c42016084840181905260a060448501908152855460a486018190529790981697635c11d795978d9796959394929360c401908690801561299b57602002820191906000526020600020905b81546001600160a01b0316815260019091019060200180831161297d575b50509650505050505050600060405180830381600087803b1580156129bf57600080fd5b505af11580156129d3573d6000803e3d6000fd5b505050505b600554604080517f70a0823100000000000000000000000000000000000000000000000000000000815230600482015290516000926001600160a01b0316916370a08231916024808301926020929190829003018186803b158015612a3c57600080fd5b505afa158015612a50573d6000803e3d6000fd5b505050506040513d6020811015612a6657600080fd5b505190508015612c9157600954600554612a8d916001600160a01b03918216911683613803565b6040805160028082526060808301845292602083019080368337505060408051600480825260a082019092529293506060929150602082016080803683370190505090508281600381518110612adf57fe5b602090810291909101810191909152600954600a54600b546040517f0d6307eb0000000000000000000000000000000000000000000000000000000081526001600160a01b0392831660048201818152928416602483018190526001608484018190524260a4850181905260c0604486019081528b5160c48701528b519790981698630d6307eb98949793968c968c969495939491939192606482019260e490920191898201910280838360005b83811015612ba5578181015183820152602001612b8d565b50505050905001838103825286818151815260200191508051906020019060200280838360005b83811015612be4578181015183820152602001612bcc565b5050505090500198505050505050505050602060405180830381600087803b158015612c0f57600080fd5b505af1158015612c23573d6000803e3d6000fd5b505050506040513d6020811015612c3957600080fd5b5050600554604080516001600160a01b0390921682526020820185905260008282018190526060830152517f44552da03f807ace3e5f27e98e694712dfe668c743514b28d4d9f5ab70574b0f9181900360800190a150505b43600f55612c9d613308565b5050505050565b600e5474010000000000000000000000000000000000000000900460ff1681565b600654604080517f70a08231000000000000000000000000000000000000000000000000000000008152306004820152905160009283926001600160a01b03909116916370a0823191602480820192602092909190829003018186803b158015612d2e57600080fd5b505afa158015612d42573d6000803e3d6000fd5b505050506040513d6020811015612d5857600080fd5b5051600254600354604080517fcf4b55cb000000000000000000000000000000000000000000000000000000008152600481019290925230602483015251929350611b809284926201000090046001600160a01b03169163cf4b55cb916044808301926020929190829003018186803b158015612dd457600080fd5b505afa158015612de8573d6000803e3d6000fd5b505050506040513d6020811015612dfe57600080fd5b505190613678565b60135481565b60165481565b600254610100900460ff1681565b6006546001600160a01b031681565b6004546001600160a01b031681565b60035481565b612e4c61354a565b6000546001600160a01b03908116911614612eae576040805162461bcd60e51b815260206004820181905260248201527f4f776e61626c653a2063616c6c6572206973206e6f7420746865206f776e6572604482015290519081900360640190fd5b6001600160a01b038116612ef35760405162461bcd60e51b81526004018080602001828103825260268152602001806145826026913960400191505060405180910390fd5b600080546040516001600160a01b03808516939216917f8be0079c531659141344cd1fd0a4f28419497f9722a3daafe3b4186f6b6457e091a3600080547fffffffffffffffffffffffff0000000000000000000000000000000000000000166001600160a01b0392909216919091179055565b6000612f7061354a565b6000546001600160a01b03908116911614612fd2576040805162461bcd60e51b815260206004820181905260248201527f4f776e61626c653a2063616c6c6572206973206e6f7420746865206f776e6572604482015290519081900360640190fd5b6002600154141561302a576040805162461bcd60e51b815260206004820152601f60248201527f5265656e7472616e637947756172643a207265656e7472616e742063616c6c00604482015290519081900360640190fd5b600260015581613081576040805162461bcd60e51b815260206004820152601a60248201527f427661756c747353747261746567793a20215f77616e74416d74000000000000604482015290519081900360640190fd5b600254610100900460ff161561310d5760028054906101000a90046001600160a01b03166001600160a01b031663441a3e70600354846040518363ffffffff1660e01b81526004018083815260200182815260200192505050600060405180830381600087803b1580156130f457600080fd5b505af1158015613108573d6000803e3d6000fd5b505050505b60048054604080517f70a082310000000000000000000000000000000000000000000000000000000081523093810193909352516000926001600160a01b03909216916370a08231916024808301926020929190829003018186803b15801561317557600080fd5b505afa158015613189573d6000803e3d6000fd5b505050506040513d602081101561319f57600080fd5b50519050808311156131af578092505b8260105410156131bf5760105492505b60006131dc601054611494601154876135d690919063ffffffff16565b90506011548111156131ed57506011545b6011546131fa90826140de565b60115560105461320a90856140de565b601055600454613224906001600160a01b031633866136d2565b6040805185815290517f5b6b431d4476a211bb7d41c20d1aab9ae2321deee0d20be3d9fc9b1093fa6e3d9181900360200190a160018055949350505050565b600c546001600160a01b031633146132ac5760405162461bcd60e51b815260040180806020018281038252602b8152602001806145a8602b913960400191505060405180910390fd5b61012c811115613303576040805162461bcd60e51b815260206004820152601960248201527f427661756c747353747261746567793a20746f6f206869676800000000000000604482015290519081900360640190fd5b601255565b60048054604080517f70a082310000000000000000000000000000000000000000000000000000000081523093810193909352516000926001600160a01b03909216916370a08231916024808301926020929190829003018186803b15801561337057600080fd5b505afa158015613384573d6000803e3d6000fd5b505050506040513d602081101561339a57600080fd5b50516010549091506133ac9082613678565b6010556002546004546133d3916001600160a01b0391821691620100009091041683613803565b60028054906101000a90046001600160a01b03166001600160a01b031663e2bbb158600354836040518363ffffffff1660e01b81526004018083815260200182815260200192505050600060405180830381600087803b15801561343657600080fd5b505af115801561344a573d6000803e3d6000fd5b50506040805184815290517fc217459869eed80bfbe5c11e78ab58912eedfd106342671821b6e96d1615dc7f9350908190036020019150a150565b60025460ff166134dc576040805162461bcd60e51b815260206004820152601460248201527f5061757361626c653a206e6f7420706175736564000000000000000000000000604482015290519081900360640190fd5b600280547fffffffffffffffffffffffffffffffffffffffffffffffffffffffffffffff001690557f5db9ee0a495bf2e6ff9c91a7834c1ba4fdd244a5e8aa4e537bd38aeae4b073aa61352d61354a565b604080516001600160a01b039092168252519081900360200190a1565b3390565b604080516001600160a01b0380861660248301528416604482015260648082018490528251808303909101815260849091019091526020810180517bffffffffffffffffffffffffffffffffffffffffffffffffffffffff167f23b872dd00000000000000000000000000000000000000000000000000000000179052611a52908590614120565b6000826135e557506000611511565b828202828482816135f257fe5b041461362f5760405162461bcd60e51b81526004018080602001828103825260218152602001806145d36021913960400191505060405180910390fd5b9392505050565b600061362f83836040518060400160405280601a81526020017f536166654d6174683a206469766973696f6e206279207a65726f0000000000008152506141d1565b60008282018381101561362f576040805162461bcd60e51b815260206004820152601b60248201527f536166654d6174683a206164646974696f6e206f766572666c6f770000000000604482015290519081900360640190fd5b604080516001600160a01b038416602482015260448082018490528251808303909101815260649091019091526020810180517bffffffffffffffffffffffffffffffffffffffffffffffffffffffff167fa9059cbb00000000000000000000000000000000000000000000000000000000179052613752908490614120565b505050565b60025460ff16156137af576040805162461bcd60e51b815260206004820152601060248201527f5061757361626c653a2070617573656400000000000000000000000000000000604482015290519081900360640190fd5b600280547fffffffffffffffffffffffffffffffffffffffffffffffffffffffffffffff001660011790557f62e78cea01bee320cd4e420270b5ea74000d11b0c9f74754ebdbfc544b05a25861352d61354a565b600061386782856001600160a01b031663dd62ed3e30876040518363ffffffff1660e01b815260040180836001600160a01b03168152602001826001600160a01b031681526020019250505060206040518083038186803b158015612dd457600080fd5b604080516001600160a01b038616602482015260448082018490528251808303909101815260649091019091526020810180517bffffffffffffffffffffffffffffffffffffffffffffffffffffffff167f095ea7b300000000000000000000000000000000000000000000000000000000179052909150611a52908590614120565b60008115611567576012541561156757613915612710611494601254856135d690919063ffffffff16565b600c54600654919250613935916001600160a01b039081169116836136d2565b600654600c54604080516001600160a01b03938416815260208101859052919092168183015290517f056e5430e11cfdfb90a183ec3bf63ed22abe70cdf4e7bd3018d8b459bbd7f6199181900360600190a1919050565b60135460009015806139a757506015546001600160a01b0316155b156139b457506000611567565b60006139d1612710611494601354866135d690919063ffffffff16565b601454601554604080517f70a082310000000000000000000000000000000000000000000000000000000081526001600160a01b039283166004820152905193945060009391909216916370a08231916024808301926020929190829003018186803b158015613a4057600080fd5b505afa158015613a54573d6000803e3d6000fd5b505050506040513d6020811015613a6a57600080fd5b50516014546006549192506001600160a01b03918216911614613bbf57600754600654613aa4916001600160a01b03918216911684613803565b6007546006546001600160a01b0390811660009081526008602090815260408083206014548516845290915280822060155491517f5c11d795000000000000000000000000000000000000000000000000000000008152600481018881526024820185905292851660648201819052603c42016084830181905260a060448401908152845460a485018190529790981697635c11d795978b9796939492939260c4019086908015613b7e57602002820191906000526020600020905b81546001600160a01b03168152600190910190602001808311613b60575b50509650505050505050600060405180830381600087803b158015613ba257600080fd5b505af1158015613bb6573d6000803e3d6000fd5b50505050613bdc565b601554600654613bdc916001600160a01b039182169116846136d2565b601454601554604080517f70a082310000000000000000000000000000000000000000000000000000000081526001600160a01b039283166004820152905160009392909216916370a0823191602480820192602092909190829003018186803b158015613c4957600080fd5b505afa158015613c5d573d6000803e3d6000fd5b505050506040513d6020811015613c7357600080fd5b505190506000613c8382846140de565b600654601454601554604080516001600160a01b0394851681529284166020840152828101899052606083018590529216608082015290519192507fb152a9c4203a9515a80fadb5b18afb6bfce5350eccdfda9d0908ac37ec094222919081900360a00190a15091949350505050565b6016546000901580613d0e57506018546001600160a01b0316155b15613d1b57506000611567565b6000613d38612710611494601654866135d690919063ffffffff16565b601754601854604080517f70a082310000000000000000000000000000000000000000000000000000000081526001600160a01b039283166004820152905193945060009391909216916370a08231916024808301926020929190829003018186803b158015613da757600080fd5b505afa158015613dbb573d6000803e3d6000fd5b505050506040513d6020811015613dd157600080fd5b50516017546006549192506001600160a01b03918216911614613f2657600754600654613e0b916001600160a01b03918216911684613803565b6007546006546001600160a01b0390811660009081526008602090815260408083206017548516845290915280822060185491517f5c11d795000000000000000000000000000000000000000000000000000000008152600481018881526024820185905292851660648201819052603c42016084830181905260a060448401908152845460a485018190529790981697635c11d795978b9796939492939260c4019086908015613ee557602002820191906000526020600020905b81546001600160a01b03168152600190910190602001808311613ec7575b50509650505050505050600060405180830381600087803b158015613f0957600080fd5b505af1158015613f1d573d6000803e3d6000fd5b50505050613f43565b601854600654613f43916001600160a01b039182169116846136d2565b601754601854604080517f70a082310000000000000000000000000000000000000000000000000000000081526001600160a01b039283166004820152905160009392909216916370a0823191602480820192602092909190829003018186803b158015613fb057600080fd5b505afa158015613fc4573d6000803e3d6000fd5b505050506040513d6020811015613fda57600080fd5b505190506000613fea82846140de565b905080156140d457601854604080517f50afa34b0000000000000000000000000000000000000000000000000000000081526004810184905290516001600160a01b03909216916350afa34b9160248082019260009290919082900301818387803b15801561405857600080fd5b505af115801561406c573d6000803e3d6000fd5b5050600654601754601854604080516001600160a01b03948516815292841660208401528281018a9052606083018790529216608082015290517fb152a9c4203a9515a80fadb5b18afb6bfce5350eccdfda9d0908ac37ec09422293509081900360a0019150a15b5091949350505050565b600061362f83836040518060400160405280601e81526020017f536166654d6174683a207375627472616374696f6e206f766572666c6f770000815250614273565b6060614175826040518060400160405280602081526020017f5361666545524332303a206c6f772d6c6576656c2063616c6c206661696c6564815250856001600160a01b03166142cd9092919063ffffffff16565b8051909150156137525780806020019051602081101561419457600080fd5b50516137525760405162461bcd60e51b815260040180806020018281038252602a81526020018061461b602a913960400191505060405180910390fd5b6000818361425d5760405162461bcd60e51b81526004018080602001828103825283818151815260200191508051906020019080838360005b8381101561422257818101518382015260200161420a565b50505050905090810190601f16801561424f5780820380516001836020036101000a031916815260200191505b509250505060405180910390fd5b50600083858161426957fe5b0495945050505050565b600081848411156142c55760405162461bcd60e51b815260206004820181815283516024840152835190928392604490910191908501908083836000831561422257818101518382015260200161420a565b505050900390565b6060611121848460008560606142e285614462565b614333576040805162461bcd60e51b815260206004820152601d60248201527f416464726573733a2063616c6c20746f206e6f6e2d636f6e7472616374000000604482015290519081900360640190fd5b60006060866001600160a01b031685876040518082805190602001908083835b6020831061439057805182527fffffffffffffffffffffffffffffffffffffffffffffffffffffffffffffffe09092019160209182019101614353565b6001836020036101000a03801982511681845116808217855250505050505090500191505060006040518083038185875af1925050503d80600081146143f2576040519150601f19603f3d011682016040523d82523d6000602084013e6143f7565b606091505b5091509150811561440b5791506111219050565b80511561441b5780518082602001fd5b60405162461bcd60e51b815260206004820181815286516024840152865187939192839260440191908501908083836000831561422257818101518382015260200161420a565b3b151590565b8280548282559060005260206000209081019282156144d5579160200282015b828111156144d557825182547fffffffffffffffffffffffff0000000000000000000000000000000000000000166001600160a01b03909116178255602090920191600190910190614488565b506144e19291506144e5565b5090565b5b808211156144e15780547fffffffffffffffffffffffff00000000000000000000000000000000000000001681556001016144e656fe427661756c747353747261746567793a3a657865637574655472616e73616374696f6e3a205472616e73616374696f6e20657865637574696f6e2072657665727465642e427661756c747353747261746567793a202173616665202d20746f6f20686967684f776e61626c653a206e6577206f776e657220697320746865207a65726f2061646472657373427661756c747353747261746567793a2063616c6c6572206973206e6f7420746865206f70657261746f72536166654d6174683a206d756c7469706c69636174696f6e206f766572666c6f77427661756c747353747261746567793a2063616c6c6572206973206e6f742074696d656c6f636b5361666545524332303a204552433230206f7065726174696f6e20646964206e6f742073756363656564a2646970667358221220f549239973c338817a5da4b05ef62026ff0610dfd8a9c68e3a52782c00774dce64736f6c634300060c00334f776e61626c653a206e6577206f776e657220697320746865207a65726f20616464726573738be0079c531659141344cd1fd0a4f28419497f9722a3daafe3b4186f6b6457e0",
  "linkReferences": {},
  "deployedLinkReferences": {}
}