{
  "_format": "hh-sol-artifact-1",
  "contractName": "BvaultsStrategyStaking",
  "sourceName": "contracts/BvaultsStrategyStaking.sol",
  "abi": [
    {
      "inputs": [
        {
          "internalType": "address",
          "name": "_controller",
          "type": "address"
        },
        {
          "internalType": "bool",
          "name": "_isCAKEStaking",
          "type": "bool"
        },
        {
          "internalType": "bool",
          "name": "_isAutoComp",
          "type": "bool"
        },
        {
          "internalType": "address",
          "name": "_farmContractAddress",
          "type": "address"
        },
        {
          "internalType": "uint256",
          "name": "_pid",
          "type": "uint256"
        },
        {
          "internalType": "address",
          "name": "_wantAddress",
          "type": "address"
        },
        {
          "internalType": "address",
          "name": "_earnedAddress",
          "type": "address"
        },
        {
          "internalType": "address",
          "name": "_uniRouterAddress",
          "type": "address"
        },
        {
          "internalType": "address[]",
          "name": "_buyBackToken1Info",
          "type": "address[]"
        },
        {
          "internalType": "address[]",
          "name": "_buyBackToken2Info",
          "type": "address[]"
        }
      ],
      "stateMutability": "nonpayable",
      "type": "constructor"
    },
    {
      "anonymous": false,
      "inputs": [
        {
          "indexed": false,
          "internalType": "address",
          "name": "earnedAddress",
          "type": "address"
        },
        {
          "indexed": false,
          "internalType": "address",
          "name": "buyBackToken",
          "type": "address"
        },
        {
          "indexed": false,
          "internalType": "uint256",
          "name": "earnedAmt",
          "type": "uint256"
        },
        {
          "indexed": false,
          "internalType": "uint256",
          "name": "buyBackAmt",
          "type": "uint256"
        },
        {
          "indexed": false,
          "internalType": "address",
          "name": "receiver",
          "type": "address"
        }
      ],
      "name": "BuyBack",
      "type": "event"
    },
    {
      "anonymous": false,
      "inputs": [
        {
          "indexed": false,
          "internalType": "uint256",
          "name": "amount",
          "type": "uint256"
        }
      ],
      "name": "Deposit",
      "type": "event"
    },
    {
      "anonymous": false,
      "inputs": [
        {
          "indexed": false,
          "internalType": "address",
          "name": "earnedAddress",
          "type": "address"
        },
        {
          "indexed": false,
          "internalType": "uint256",
          "name": "fee",
          "type": "uint256"
        },
        {
          "indexed": false,
          "internalType": "address",
          "name": "receiver",
          "type": "address"
        }
      ],
      "name": "DistributeFee",
      "type": "event"
    },
    {
      "anonymous": false,
      "inputs": [
        {
          "indexed": false,
          "internalType": "address",
          "name": "earnedAddress",
          "type": "address"
        },
        {
          "indexed": false,
          "internalType": "uint256",
          "name": "earnedAmt",
          "type": "uint256"
        }
      ],
      "name": "Earned",
      "type": "event"
    },
    {
      "anonymous": false,
      "inputs": [
        {
          "indexed": true,
          "internalType": "address",
          "name": "target",
          "type": "address"
        },
        {
          "indexed": false,
          "internalType": "uint256",
          "name": "value",
          "type": "uint256"
        },
        {
          "indexed": false,
          "internalType": "string",
          "name": "signature",
          "type": "string"
        },
        {
          "indexed": false,
          "internalType": "bytes",
          "name": "data",
          "type": "bytes"
        }
      ],
      "name": "ExecuteTransaction",
      "type": "event"
    },
    {
      "anonymous": false,
      "inputs": [
        {
          "indexed": false,
          "internalType": "uint256",
          "name": "amount",
          "type": "uint256"
        }
      ],
      "name": "Farm",
      "type": "event"
    },
    {
      "anonymous": false,
      "inputs": [
        {
          "indexed": false,
          "internalType": "address",
          "name": "tokenAddress",
          "type": "address"
        },
        {
          "indexed": false,
          "internalType": "uint256",
          "name": "tokenAmt",
          "type": "uint256"
        },
        {
          "indexed": false,
          "internalType": "address",
          "name": "receiver",
          "type": "address"
        }
      ],
      "name": "InCaseTokensGetStuck",
      "type": "event"
    },
    {
      "anonymous": false,
      "inputs": [
        {
          "indexed": true,
          "internalType": "address",
          "name": "previousOwner",
          "type": "address"
        },
        {
          "indexed": true,
          "internalType": "address",
          "name": "newOwner",
          "type": "address"
        }
      ],
      "name": "OwnershipTransferred",
      "type": "event"
    },
    {
      "anonymous": false,
      "inputs": [
        {
          "indexed": false,
          "internalType": "address",
          "name": "account",
          "type": "address"
        }
      ],
      "name": "Paused",
      "type": "event"
    },
    {
      "anonymous": false,
      "inputs": [
        {
          "indexed": false,
          "internalType": "address",
          "name": "account",
          "type": "address"
        }
      ],
      "name": "Unpaused",
      "type": "event"
    },
    {
      "anonymous": false,
      "inputs": [
        {
          "indexed": false,
          "internalType": "uint256",
          "name": "amount",
          "type": "uint256"
        }
      ],
      "name": "Withdraw",
      "type": "event"
    },
    {
      "inputs": [],
      "name": "busdAddress",
      "outputs": [
        {
          "internalType": "address",
          "name": "",
          "type": "address"
        }
      ],
      "stateMutability": "view",
      "type": "function"
    },
    {
      "inputs": [],
      "name": "buyBackAddress1",
      "outputs": [
        {
          "internalType": "address",
          "name": "",
          "type": "address"
        }
      ],
      "stateMutability": "view",
      "type": "function"
    },
    {
      "inputs": [],
      "name": "buyBackAddress2",
      "outputs": [
        {
          "internalType": "address",
          "name": "",
          "type": "address"
        }
      ],
      "stateMutability": "view",
      "type": "function"
    },
    {
      "inputs": [],
      "name": "buyBackRate1",
      "outputs": [
        {
          "internalType": "uint256",
          "name": "",
          "type": "uint256"
        }
      ],
      "stateMutability": "view",
      "type": "function"
    },
    {
      "inputs": [],
      "name": "buyBackRate2",
      "outputs": [
        {
          "internalType": "uint256",
          "name": "",
          "type": "uint256"
        }
      ],
      "stateMutability": "view",
      "type": "function"
    },
    {
      "inputs": [],
      "name": "buyBackRateMax",
      "outputs": [
        {
          "internalType": "uint256",
          "name": "",
          "type": "uint256"
        }
      ],
      "stateMutability": "view",
      "type": "function"
    },
    {
      "inputs": [],
      "name": "buyBackRateUL",
      "outputs": [
        {
          "internalType": "uint256",
          "name": "",
          "type": "uint256"
        }
      ],
      "stateMutability": "view",
      "type": "function"
    },
    {
      "inputs": [],
      "name": "buyBackToken1",
      "outputs": [
        {
          "internalType": "address",
          "name": "",
          "type": "address"
        }
      ],
      "stateMutability": "view",
      "type": "function"
    },
    {
      "inputs": [],
      "name": "buyBackToken2",
      "outputs": [
        {
          "internalType": "address",
          "name": "",
          "type": "address"
        }
      ],
      "stateMutability": "view",
      "type": "function"
    },
    {
      "inputs": [],
      "name": "controllerFee",
      "outputs": [
        {
          "internalType": "uint256",
          "name": "",
          "type": "uint256"
        }
      ],
      "stateMutability": "view",
      "type": "function"
    },
    {
      "inputs": [],
      "name": "controllerFeeMax",
      "outputs": [
        {
          "internalType": "uint256",
          "name": "",
          "type": "uint256"
        }
      ],
      "stateMutability": "view",
      "type": "function"
    },
    {
      "inputs": [],
      "name": "controllerFeeUL",
      "outputs": [
        {
          "internalType": "uint256",
          "name": "",
          "type": "uint256"
        }
      ],
      "stateMutability": "view",
      "type": "function"
    },
    {
      "inputs": [],
      "name": "convertDustToEarned",
      "outputs": [],
      "stateMutability": "nonpayable",
      "type": "function"
    },
    {
      "inputs": [
        {
          "internalType": "address",
          "name": "",
          "type": "address"
        },
        {
          "internalType": "uint256",
          "name": "_wantAmt",
          "type": "uint256"
        }
      ],
      "name": "deposit",
      "outputs": [
        {
          "internalType": "uint256",
          "name": "",
          "type": "uint256"
        }
      ],
      "stateMutability": "nonpayable",
      "type": "function"
    },
    {
      "inputs": [],
      "name": "earn",
      "outputs": [],
      "stateMutability": "nonpayable",
      "type": "function"
    },
    {
      "inputs": [],
      "name": "earnedAddress",
      "outputs": [
        {
          "internalType": "address",
          "name": "",
          "type": "address"
        }
      ],
      "stateMutability": "view",
      "type": "function"
    },
    {
      "inputs": [
        {
          "internalType": "uint256",
          "name": "",
          "type": "uint256"
        }
      ],
      "name": "earnedToBusdPath",
      "outputs": [
        {
          "internalType": "address",
          "name": "",
          "type": "address"
        }
      ],
      "stateMutability": "view",
      "type": "function"
    },
    {
      "inputs": [
        {
          "internalType": "uint256",
          "name": "",
          "type": "uint256"
        }
      ],
      "name": "earnedToBuyBackToken1Path",
      "outputs": [
        {
          "internalType": "address",
          "name": "",
          "type": "address"
        }
      ],
      "stateMutability": "view",
      "type": "function"
    },
    {
      "inputs": [
        {
          "internalType": "uint256",
          "name": "",
          "type": "uint256"
        }
      ],
      "name": "earnedToBuyBackToken2Path",
      "outputs": [
        {
          "internalType": "address",
          "name": "",
          "type": "address"
        }
      ],
      "stateMutability": "view",
      "type": "function"
    },
    {
      "inputs": [],
      "name": "entranceFeeFactor",
      "outputs": [
        {
          "internalType": "uint256",
          "name": "",
          "type": "uint256"
        }
      ],
      "stateMutability": "view",
      "type": "function"
    },
    {
      "inputs": [],
      "name": "entranceFeeFactorLL",
      "outputs": [
        {
          "internalType": "uint256",
          "name": "",
          "type": "uint256"
        }
      ],
      "stateMutability": "view",
      "type": "function"
    },
    {
      "inputs": [],
      "name": "entranceFeeFactorMax",
      "outputs": [
        {
          "internalType": "uint256",
          "name": "",
          "type": "uint256"
        }
      ],
      "stateMutability": "view",
      "type": "function"
    },
    {
      "inputs": [
        {
          "internalType": "address",
          "name": "target",
          "type": "address"
        },
        {
          "internalType": "uint256",
          "name": "value",
          "type": "uint256"
        },
        {
          "internalType": "string",
          "name": "signature",
          "type": "string"
        },
        {
          "internalType": "bytes",
          "name": "data",
          "type": "bytes"
        }
      ],
      "name": "executeTransaction",
      "outputs": [
        {
          "internalType": "bytes",
          "name": "",
          "type": "bytes"
        }
      ],
      "stateMutability": "nonpayable",
      "type": "function"
    },
    {
      "inputs": [],
      "name": "farm",
      "outputs": [],
      "stateMutability": "nonpayable",
      "type": "function"
    },
    {
      "inputs": [],
      "name": "farmContractAddress",
      "outputs": [
        {
          "internalType": "address",
          "name": "",
          "type": "address"
        }
      ],
      "stateMutability": "view",
      "type": "function"
    },
    {
      "inputs": [
        {
          "internalType": "address",
          "name": "_token",
          "type": "address"
        },
        {
          "internalType": "uint256",
          "name": "_amount",
          "type": "uint256"
        },
        {
          "internalType": "address",
          "name": "_to",
          "type": "address"
        }
      ],
      "name": "inCaseTokensGetStuck",
      "outputs": [],
      "stateMutability": "nonpayable",
      "type": "function"
    },
    {
      "inputs": [
        {
          "internalType": "address",
          "name": "_account",
          "type": "address"
        }
      ],
      "name": "isAuthorised",
      "outputs": [
        {
          "internalType": "bool",
          "name": "",
          "type": "bool"
        }
      ],
      "stateMutability": "view",
      "type": "function"
    },
    {
      "inputs": [],
      "name": "isAutoComp",
      "outputs": [
        {
          "internalType": "bool",
          "name": "",
          "type": "bool"
        }
      ],
      "stateMutability": "view",
      "type": "function"
    },
    {
      "inputs": [],
      "name": "isCAKEStaking",
      "outputs": [
        {
          "internalType": "bool",
          "name": "",
          "type": "bool"
        }
      ],
      "stateMutability": "view",
      "type": "function"
    },
    {
      "inputs": [],
      "name": "lastEarnBlock",
      "outputs": [
        {
          "internalType": "uint256",
          "name": "",
          "type": "uint256"
        }
      ],
      "stateMutability": "view",
      "type": "function"
    },
    {
      "inputs": [],
      "name": "notPublic",
      "outputs": [
        {
          "internalType": "bool",
          "name": "",
          "type": "bool"
        }
      ],
      "stateMutability": "view",
      "type": "function"
    },
    {
      "inputs": [],
      "name": "operator",
      "outputs": [
        {
          "internalType": "address",
          "name": "",
          "type": "address"
        }
      ],
      "stateMutability": "view",
      "type": "function"
    },
    {
      "inputs": [],
      "name": "owner",
      "outputs": [
        {
          "internalType": "address",
          "name": "",
          "type": "address"
        }
      ],
      "stateMutability": "view",
      "type": "function"
    },
    {
      "inputs": [],
      "name": "pause",
      "outputs": [],
      "stateMutability": "nonpayable",
      "type": "function"
    },
    {
      "inputs": [],
      "name": "paused",
      "outputs": [
        {
          "internalType": "bool",
          "name": "",
          "type": "bool"
        }
      ],
      "stateMutability": "view",
      "type": "function"
    },
    {
      "inputs": [],
      "name": "pendingHarvest",
      "outputs": [
        {
          "internalType": "uint256",
          "name": "",
          "type": "uint256"
        }
      ],
      "stateMutability": "view",
      "type": "function"
    },
    {
      "inputs": [],
      "name": "pendingHarvestDollarValue",
      "outputs": [
        {
          "internalType": "uint256",
          "name": "",
          "type": "uint256"
        }
      ],
      "stateMutability": "view",
      "type": "function"
    },
    {
      "inputs": [],
      "name": "performanceFee",
      "outputs": [
        {
          "internalType": "uint256",
          "name": "",
          "type": "uint256"
        }
      ],
      "stateMutability": "view",
      "type": "function"
    },
    {
      "inputs": [],
      "name": "pid",
      "outputs": [
        {
          "internalType": "uint256",
          "name": "",
          "type": "uint256"
        }
      ],
      "stateMutability": "view",
      "type": "function"
    },
    {
      "inputs": [],
      "name": "renounceOwnership",
      "outputs": [],
      "stateMutability": "nonpayable",
      "type": "function"
    },
    {
      "inputs": [
        {
          "internalType": "address",
          "name": "_buyBackAddress1",
          "type": "address"
        }
      ],
      "name": "setBuyBackAddress1",
      "outputs": [],
      "stateMutability": "nonpayable",
      "type": "function"
    },
    {
      "inputs": [
        {
          "internalType": "address",
          "name": "_buyBackAddress2",
          "type": "address"
        }
      ],
      "name": "setBuyBackAddress2",
      "outputs": [],
      "stateMutability": "nonpayable",
      "type": "function"
    },
    {
      "inputs": [
        {
          "internalType": "uint256",
          "name": "_buyBackRate1",
          "type": "uint256"
        }
      ],
      "name": "setBuyBackRate1",
      "outputs": [],
      "stateMutability": "nonpayable",
      "type": "function"
    },
    {
      "inputs": [
        {
          "internalType": "uint256",
          "name": "_buyBackRate2",
          "type": "uint256"
        }
      ],
      "name": "setBuyBackRate2",
      "outputs": [],
      "stateMutability": "nonpayable",
      "type": "function"
    },
    {
      "inputs": [
        {
          "internalType": "uint256",
          "name": "_controllerFee",
          "type": "uint256"
        }
      ],
      "name": "setControllerFee",
      "outputs": [],
      "stateMutability": "nonpayable",
      "type": "function"
    },
    {
      "inputs": [
        {
          "internalType": "address[]",
          "name": "_path",
          "type": "address[]"
        }
      ],
      "name": "setEarnedToBusdPath",
      "outputs": [],
      "stateMutability": "nonpayable",
      "type": "function"
    },
    {
      "inputs": [
        {
          "internalType": "address[]",
          "name": "_path",
          "type": "address[]"
        }
      ],
      "name": "setEarnedToBuyBackToken1Path",
      "outputs": [],
      "stateMutability": "nonpayable",
      "type": "function"
    },
    {
      "inputs": [
        {
          "internalType": "address[]",
          "name": "_path",
          "type": "address[]"
        }
      ],
      "name": "setEarnedToBuyBackToken2Path",
      "outputs": [],
      "stateMutability": "nonpayable",
      "type": "function"
    },
    {
      "inputs": [
        {
          "internalType": "uint256",
          "name": "_entranceFeeFactor",
          "type": "uint256"
        }
      ],
      "name": "setEntranceFeeFactor",
      "outputs": [],
      "stateMutability": "nonpayable",
      "type": "function"
    },
    {
      "inputs": [
        {
          "internalType": "bool",
          "name": "_notPublic",
          "type": "bool"
        }
      ],
      "name": "setNotPublic",
      "outputs": [],
      "stateMutability": "nonpayable",
      "type": "function"
    },
    {
      "inputs": [
        {
          "internalType": "address",
          "name": "_operator",
          "type": "address"
        }
      ],
      "name": "setOperator",
      "outputs": [],
      "stateMutability": "nonpayable",
      "type": "function"
    },
    {
      "inputs": [
        {
          "internalType": "address",
          "name": "_strategist",
          "type": "address"
        }
      ],
      "name": "setStrategist",
      "outputs": [],
      "stateMutability": "nonpayable",
      "type": "function"
    },
    {
      "inputs": [
        {
          "internalType": "address",
          "name": "_timelock",
          "type": "address"
        }
      ],
      "name": "setTimelock",
      "outputs": [],
      "stateMutability": "nonpayable",
      "type": "function"
    },
    {
      "inputs": [],
      "name": "sharesTotal",
      "outputs": [
        {
          "internalType": "uint256",
          "name": "",
          "type": "uint256"
        }
      ],
      "stateMutability": "view",
      "type": "function"
    },
    {
      "inputs": [],
      "name": "strategist",
      "outputs": [
        {
          "internalType": "address",
          "name": "",
          "type": "address"
        }
      ],
      "stateMutability": "view",
      "type": "function"
    },
    {
      "inputs": [],
      "name": "timelock",
      "outputs": [
        {
          "internalType": "address",
          "name": "",
          "type": "address"
        }
      ],
      "stateMutability": "view",
      "type": "function"
    },
    {
      "inputs": [
        {
          "internalType": "address",
          "name": "newOwner",
          "type": "address"
        }
      ],
      "name": "transferOwnership",
      "outputs": [],
      "stateMutability": "nonpayable",
      "type": "function"
    },
    {
      "inputs": [
        {
          "internalType": "uint256",
          "name": "_tokenAmount",
          "type": "uint256"
        },
        {
          "internalType": "address[]",
          "name": "_path",
          "type": "address[]"
        }
      ],
      "name": "uniExchangeRate",
      "outputs": [
        {
          "internalType": "uint256",
          "name": "",
          "type": "uint256"
        }
      ],
      "stateMutability": "view",
      "type": "function"
    },
    {
      "inputs": [],
      "name": "uniRouterAddress",
      "outputs": [
        {
          "internalType": "address",
          "name": "",
          "type": "address"
        }
      ],
      "stateMutability": "view",
      "type": "function"
    },
    {
      "inputs": [],
      "name": "unpause",
      "outputs": [],
      "stateMutability": "nonpayable",
      "type": "function"
    },
    {
      "inputs": [],
      "name": "wantAddress",
      "outputs": [
        {
          "internalType": "address",
          "name": "",
          "type": "address"
        }
      ],
      "stateMutability": "view",
      "type": "function"
    },
    {
      "inputs": [],
      "name": "wantLockedTotal",
      "outputs": [
        {
          "internalType": "uint256",
          "name": "",
          "type": "uint256"
        }
      ],
      "stateMutability": "view",
      "type": "function"
    },
    {
      "inputs": [],
      "name": "wbnbAddress",
      "outputs": [
        {
          "internalType": "address",
          "name": "",
          "type": "address"
        }
      ],
      "stateMutability": "view",
      "type": "function"
    },
    {
      "inputs": [
        {
          "internalType": "address",
          "name": "",
          "type": "address"
        },
        {
          "internalType": "uint256",
          "name": "_wantAmt",
          "type": "uint256"
        }
      ],
      "name": "withdraw",
      "outputs": [
        {
          "internalType": "uint256",
          "name": "",
          "type": "uint256"
        }
      ],
      "stateMutability": "nonpayable",
      "type": "function"
    }
  ],
  "bytecode": "0x6080604052600680546001600160a01b03199081167305ff2b0db69458a0750badebc4f9e13add608c7f179091556009805460ff60a01b199083167392a082ad5a942140bcc791081f775900d0a514d9171690556000600a819055600b819055600c819055600d5560be600e55600f805482167381859801b01764d4f0fa5e64729f5a6c3b91435b17905560108054821661dead908117909155606460115560128054831673190b589cf9fb8ddeabbfeae36a813ffb2a70245417905560138054909216179055612710601455348015620000d957600080fd5b50604051620048243803806200482483398181016040526101408110156200010057600080fd5b815160208301516040808501516060860151608087015160a088015160c089015160e08a01516101008b0180519751999b989a969995989497939692959194919392820192846401000000008211156200015957600080fd5b9083019060208201858111156200016f57600080fd5b82518660208202830111640100000000821117156200018d57600080fd5b82525081516020918201928201910280838360005b83811015620001bc578181015183820152602001620001a2565b5050505090500160405260200180516040519392919084640100000000821115620001e657600080fd5b908301906020820185811115620001fc57600080fd5b82518660208202830111640100000000821117156200021a57600080fd5b82525081516020918201928201910280838360005b83811015620002495781810151838201526020016200022f565b505050509050016040525050506000620002686200078060201b60201c565b600080546001600160a01b0319166001600160a01b03831690811782556040519293509160008051602062004804833981519152908290a350600180556002805460078054336001600160a01b0319918216811790925560088054821690921790915561ffff199091166101008c1515021762ff00001916620100008b15150217909155600480549091166001600160a01b03878116919091179091558316156200032957600680546001600160a01b0319166001600160a01b0385161790555b816000815181106200033757fe5b6020026020010151600f60006101000a8154816001600160a01b0302191690836001600160a01b03160217905550816001815181106200037357fe5b6020026020010151601060006101000a8154816001600160a01b0302191690836001600160a01b0316021790555080600081518110620003af57fe5b6020026020010151601260006101000a8154816001600160a01b0302191690836001600160a01b0316021790555080600181518110620003eb57fe5b6020908102919091010151601380546001600160a01b0319166001600160a01b0390921691909117905560025462010000900460ff16156200076557600280546001600160a01b03808a166301000000026301000000600160b81b03199092169190911782556003889055600580548783166001600160a01b03199182161790915560068054928716929091169190911790558251600091849181106200048e57fe5b60200260200101516001600160a01b03161415620004ea5773bb4cdb9cbd36b01bd1cbaebf2de08d9173bc095c82600281518110620004c957fe5b60200260200101906001600160a01b031690816001600160a01b0316815250505b60408051606081019091526005546001600160a01b0316815282516020820190849060029081106200051857fe5b6020908102919091018101516001600160a01b039081168352600f54169101526200054890601590600362000882565b5060055482516001600160a01b0390911690839060029081106200056857fe5b60200260200101516001600160a01b03161415620005cb576040518060400160405280836002815181106200059957fe5b6020908102919091018101516001600160a01b039081168352600f5416910152620005c990601590600262000882565b505b60006001600160a01b031681600281518110620005e457fe5b60200260200101516001600160a01b03161415620006405773bb4cdb9cbd36b01bd1cbaebf2de08d9173bc095c816002815181106200061f57fe5b60200260200101906001600160a01b031690816001600160a01b0316815250505b60408051606081019091526005546001600160a01b0316815281516020820190839060029081106200066e57fe5b6020908102919091018101516001600160a01b039081168352601254169101526200069e90601690600362000882565b5060055481516001600160a01b039091169082906002908110620006be57fe5b60200260200101516001600160a01b031614156200072157604051806040016040528082600281518110620006ef57fe5b6020908102919091018101516001600160a01b039081168352601254169101526200071f90601690600262000882565b505b604080518082019091526005546001600160a01b0316815273e9e7cea3dedca5984780bafc599bd69add087d5660208201526200076390601790600262000882565b505b620007708a62000784565b505050505050505050506200090d565b3390565b6200078e62000780565b6000546001600160a01b03908116911614620007f1576040805162461bcd60e51b815260206004820181905260248201527f4f776e61626c653a2063616c6c6572206973206e6f7420746865206f776e6572604482015290519081900360640190fd5b6001600160a01b038116620008385760405162461bcd60e51b8152600401808060200182810382526026815260200180620047de6026913960400191505060405180910390fd5b600080546040516001600160a01b03808516939216916000805160206200480483398151915291a3600080546001600160a01b0319166001600160a01b0392909216919091179055565b828054828255906000526020600020908101928215620008da579160200282015b82811115620008da57825182546001600160a01b0319166001600160a01b03909116178255602090920191600190910190620008a3565b50620008e8929150620008ec565b5090565b5b80821115620008e85780546001600160a01b0319168155600101620008ed565b613ec1806200091d6000396000f3fe608060405234801561001057600080fd5b50600436106103d05760003560e01c806387788782116101ff578063d33219b41161011a578063e7a03679116100ad578063f2fde38b1161007c578063f2fde38b14610b0b578063f3fef3a314610b31578063f400d31114610b5d578063fd3440c114610b7a576103d0565b8063e7a0367914610a58578063ee50dc34146106a4578063efd9a47914610a60578063f106845414610b03576103d0565b8063df5c8a9e116100e9578063df5c8a9e14610a38578063dfee1dd914610a40578063e5dd455a14610a48578063e719847414610a50576103d0565b8063d33219b414610a18578063d389800f14610a20578063d8be16da14610a28578063db7a3c0f14610a30576103d0565b8063bb9928c611610192578063c302a4d011610161578063c302a4d0146109bc578063c3ec8dda146109c4578063c7b9d530146109ea578063ce5328e414610a10576103d0565b8063bb9928c614610954578063bdacb30314610971578063bf94c0ba14610997578063c11c2e92146109b4576103d0565b8063a05968cd116101ce578063a05968cd146108e3578063a552863214610900578063b3545c0114610926578063b3ab15fb1461092e576103d0565b806387788782146108c3578063889adfa8146108cb5780638da5cb5b146108d35780639fc33a9f146108db576103d0565b80634a56fcd4116102ef5780636804d54a1161028257806376a902311161025157806376a90231146108a35780638456cb59146108ab578063846d9e17146108b357806385f02dd6146108bb576103d0565b80636804d54a146107cc5780636855b2e714610876578063693a090b14610893578063715018a61461089b576103d0565b80635c975abb116102be5780635c975abb1461077e578063607f35a01461078657806363fe3e3a1461078e57806367206d4014610796576103d0565b80634a56fcd4146107345780634d9f7bb2146106a457806351b699cd1461073c578063570ca73514610776576103d0565b80632717eff31161036757806342da4eb31161033657806342da4eb3146106d957806344a3955e146106e157806345d6b667146106e957806347e7ef2414610708576103d0565b80632717eff3146106a457806336e9332d146106ac5780633e1a8912146106b45780633f4ba83a146106d1576103d0565b80631334903f116103a35780631334903f146104d55780631a43da93146104dd5780631fe4a686146104e55780632224fa25146104ed576103d0565b806305b7bff2146103d5578063061c7d481461047a5780630754a71c146104945780630fa4e01e146104cd575b600080fd5b610478600480360360208110156103eb57600080fd5b81019060208101813564010000000081111561040657600080fd5b82018360208201111561041857600080fd5b8035906020019184602083028401116401000000008311171561043a57600080fd5b919080806020026020016040519081016040528093929190818152602001838360200280828437600092019190915250929550610c1d945050505050565b005b610482610c7d565b60408051918252519081900360200190f35b6104b1600480360360208110156104aa57600080fd5b5035610c83565b604080516001600160a01b039092168252519081900360200190f35b610482610caa565b610482610cb0565b6104b1610cb6565b6104b1610cc5565b61062f6004803603608081101561050357600080fd5b6001600160a01b038235169160208101359181019060608101604082013564010000000081111561053357600080fd5b82018360208201111561054557600080fd5b8035906020019184600183028401116401000000008311171561056757600080fd5b91908080601f01602080910402602001604051908101604052809392919081815260200183838082843760009201919091525092959493602081019350359150506401000000008111156105ba57600080fd5b8201836020820111156105cc57600080fd5b803590602001918460018302840111640100000000831117156105ee57600080fd5b91908080601f016020809104026020016040519081016040528093929190818152602001838380828437600092019190915250929550610cd4945050505050565b6040805160208082528351818301528351919283929083019185019080838360005b83811015610669578181015183820152602001610651565b50505050905090810190601f1680156106965780820380516001836020036101000a031916815260200191505b509250505060405180910390f35b61048261100d565b610478611013565b610478600480360360208110156106ca57600080fd5b5035611068565b61047861114d565b61048261119e565b6104826111a4565b610478600480360360208110156106ff57600080fd5b503515156111aa565b6104826004803603604081101561071e57600080fd5b506001600160a01b03813516906020013561123d565b6104b16113d5565b6107626004803603602081101561075257600080fd5b50356001600160a01b03166113e4565b604080519115158252519081900360200190f35b6104b161142a565b610762611439565b6104b1611442565b6104b1611451565b610478600480360360608110156107ac57600080fd5b506001600160a01b03813581169160208101359160409091013516611469565b610482600480360360408110156107e257600080fd5b8135919081019060408101602082013564010000000081111561080457600080fd5b82018360208201111561081657600080fd5b8035906020019184602083028401116401000000008311171561083857600080fd5b9190808060200260200160405190810160405280939291908181526020018383602002808284376000920191909152509295506115db945050505050565b6104b16004803603602081101561088c57600080fd5b5035611790565b6104b161179d565b6104786117ac565b6104b1611878565b610478611890565b6107626118e1565b6104826118ef565b6104826118f5565b610482611913565b6104b1611998565b6104b16119a7565b6104b1600480360360208110156108f957600080fd5b50356119bd565b6104786004803603602081101561091657600080fd5b50356001600160a01b03166119ca565b610482611aaa565b6104786004803603602081101561094457600080fd5b50356001600160a01b0316611ab0565b6104786004803603602081101561096a57600080fd5b5035611b33565b6104786004803603602081101561098757600080fd5b50356001600160a01b0316611bda565b610478600480360360208110156109ad57600080fd5b5035611c5d565b610478611d04565b610482611da9565b610478600480360360208110156109da57600080fd5b50356001600160a01b0316611daf565b61047860048036036020811015610a0057600080fd5b50356001600160a01b0316611e91565b6104b1611f14565b6104b1611f23565b610478611f32565b61076261229a565b6104826122bb565b6104826123fd565b610482612403565b610762612409565b6104b1612418565b6104b1612427565b61047860048036036020811015610a7657600080fd5b810190602081018135640100000000811115610a9157600080fd5b820183602082011115610aa357600080fd5b80359060200191846020830284011164010000000083111715610ac557600080fd5b919080806020026020016040519081016040528093929190818152602001838360200280828437600092019190915250929550612436945050505050565b610482612492565b61047860048036036020811015610b2157600080fd5b50356001600160a01b0316612498565b61048260048036036040811015610b4757600080fd5b506001600160a01b0381351690602001356125ba565b61047860048036036020811015610b7357600080fd5b5035612942565b61047860048036036020811015610b9057600080fd5b810190602081018135640100000000811115610bab57600080fd5b820183602082011115610bbd57600080fd5b80359060200191846020830284011164010000000083111715610bdf57600080fd5b9190808060200260200160405190810160405280939291908181526020018383602002808284376000920191909152509295506129e7945050505050565b6007546001600160a01b03163314610c665760405162461bcd60e51b815260040180806020018281038252602b815260200180613def602b913960400191505060405180910390fd5b8051610c79906017906020840190613caf565b5050565b61012c81565b60178181548110610c9057fe5b6000918252602090912001546001600160a01b0316905081565b600a5481565b60145481565b6010546001600160a01b031681565b6008546001600160a01b031681565b6009546060906001600160a01b03163314610d205760405162461bcd60e51b8152600401808060200182810382526027815260200180613e3b6027913960400191505060405180910390fd5b6060835160001415610d33575081610de9565b83805190602001208360405160200180837bffffffffffffffffffffffffffffffffffffffffffffffffffffffff1916815260040182805190602001908083835b60208310610db157805182527fffffffffffffffffffffffffffffffffffffffffffffffffffffffffffffffe09092019160209182019101610d74565b6001836020036101000a0380198251168184511680821785525050505050509050019250505060405160208183030381529060405290505b60006060876001600160a01b031687846040518082805190602001908083835b60208310610e4657805182527fffffffffffffffffffffffffffffffffffffffffffffffffffffffffffffffe09092019160209182019101610e09565b6001836020036101000a03801982511681845116808217855250505050505090500191505060006040518083038185875af1925050503d8060008114610ea8576040519150601f19603f3d011682016040523d82523d6000602084013e610ead565b606091505b509150915081610eee5760405162461bcd60e51b8152600401808060200182810382526044815260200180613d646044913960600191505060405180910390fd5b876001600160a01b03167f88405ca50016c636e025868e263efe5a9f63bf11cc45404f7616394c7dc389d0888888604051808481526020018060200180602001838103835285818151815260200191508051906020019080838360005b83811015610f63578181015183820152602001610f4b565b50505050905090810190601f168015610f905780820380516001836020036101000a031916815260200191505b50838103825284518152845160209182019186019080838360005b83811015610fc3578181015183820152602001610fab565b50505050905090810190601f168015610ff05780820380516001836020036101000a031916815260200191505b509550505050505060405180910390a2925050505b949350505050565b61271081565b6007546001600160a01b0316331461105c5760405162461bcd60e51b815260040180806020018281038252602b815260200180613def602b913960400191505060405180910390fd5b6110666000612a43565b565b6007546001600160a01b031633146110b15760405162461bcd60e51b815260040180806020018281038252602b815260200180613def602b913960400191505060405180910390fd5b6126de8111611107576040805162461bcd60e51b815260206004820181905260248201527f427661756c747353747261746567793a202173616665202d20746f6f206c6f77604482015290519081900360640190fd5b6127108111156111485760405162461bcd60e51b8152600401808060200182810382526021815260200180613da86021913960400191505060405180910390fd5b601455565b6007546001600160a01b031633146111965760405162461bcd60e51b815260040180806020018281038252602b815260200180613def602b913960400191505060405180910390fd5b611066612c52565b600b5481565b600c5481565b6007546001600160a01b031633146111f35760405162461bcd60e51b815260040180806020018281038252602b815260200180613def602b913960400191505060405180910390fd5b6009805491151574010000000000000000000000000000000000000000027fffffffffffffffffffffff00ffffffffffffffffffffffffffffffffffffffff909216919091179055565b6000611247612d17565b6000546001600160a01b039081169116146112a9576040805162461bcd60e51b815260206004820181905260248201527f4f776e61626c653a2063616c6c6572206973206e6f7420746865206f776e6572604482015290519081900360640190fd5b60025460ff1615611301576040805162461bcd60e51b815260206004820152601060248201527f5061757361626c653a2070617573656400000000000000000000000000000000604482015290519081900360640190fd5b600454611319906001600160a01b0316333085612d1b565b600b5482901561135957611356612710611350600b5461135060145461134a600c548a612da390919063ffffffff16565b90612da3565b90612e03565b90505b600c546113669082612e45565b600c5560025462010000900460ff16156113885761138383612a43565b611399565b600b546113959084612e45565b600b555b6040805184815290517f4d6ce1e535dbade1c23defba91e23b8f791ce5edc0cc320257a2b364e4e384269181900360200190a190505b92915050565b6013546001600160a01b031681565b6007546000906001600160a01b038381169116148061140d57506008546001600160a01b031633145b8061142257506009546001600160a01b031633145b90505b919050565b6007546001600160a01b031681565b60025460ff1690565b6012546001600160a01b031681565b73bb4cdb9cbd36b01bd1cbaebf2de08d9173bc095c81565b6007546001600160a01b031633146114b25760405162461bcd60e51b815260040180806020018281038252602b815260200180613def602b913960400191505060405180910390fd5b6005546001600160a01b0384811691161415611515576040805162461bcd60e51b815260206004820152600560248201527f2173616665000000000000000000000000000000000000000000000000000000604482015290519081900360640190fd5b6004546001600160a01b0384811691161415611578576040805162461bcd60e51b815260206004820152600560248201527f2173616665000000000000000000000000000000000000000000000000000000604482015290519081900360640190fd5b61158c6001600160a01b0384168284612e9f565b604080516001600160a01b0380861682526020820185905283168183015290517f22f92dfb4f608ea5db1e9bb08c0b4f5518af93b1259d335fe05900056096ab2c9181900360600190a1505050565b600654604080517fd06ca61f00000000000000000000000000000000000000000000000000000000815260048101858152602482019283528451604483015284516000946060946001600160a01b039091169363d06ca61f9389938993919260640190602080860191028083838d5b8381101561166257818101518382015260200161164a565b50505050905001935050505060006040518083038186803b15801561168657600080fd5b505afa15801561169a573d6000803e3d6000fd5b505050506040513d6000823e601f3d9081017fffffffffffffffffffffffffffffffffffffffffffffffffffffffffffffffe016820160405260208110156116e157600080fd5b810190808051604051939291908464010000000082111561170157600080fd5b90830190602082018581111561171657600080fd5b825186602082028301116401000000008211171561173357600080fd5b82525081516020918201928201910280838360005b83811015611760578181015183820152602001611748565b5050505090500160405250505090508060018251038151811061177f57fe5b602002602001015191505092915050565b60158181548110610c9057fe5b6006546001600160a01b031681565b6117b4612d17565b6000546001600160a01b03908116911614611816576040805162461bcd60e51b815260206004820181905260248201527f4f776e61626c653a2063616c6c6572206973206e6f7420746865206f776e6572604482015290519081900360640190fd5b600080546040516001600160a01b03909116907f8be0079c531659141344cd1fd0a4f28419497f9722a3daafe3b4186f6b6457e0908390a3600080547fffffffffffffffffffffffff0000000000000000000000000000000000000000169055565b73e9e7cea3dedca5984780bafc599bd69add087d5681565b6007546001600160a01b031633146118d95760405162461bcd60e51b815260040180806020018281038252602b815260200180613def602b913960400191505060405180910390fd5b611066612f24565b600254610100900460ff1681565b600d5481565b600061190e601154600e54612e4590919063ffffffff16565b905090565b60008061191e6122bb565b9050801561198f5761198a81601780548060200260200160405190810160405280929190818152602001828054801561198057602002820191906000526020600020905b81546001600160a01b03168152600190910190602001808311611962575b50505050506115db565b611992565b60005b91505090565b6000546001600160a01b031690565b600254630100000090046001600160a01b031681565b60168181548110610c9057fe5b6007546001600160a01b03163314611a135760405162461bcd60e51b815260040180806020018281038252602b815260200180613def602b913960400191505060405180910390fd5b6001600160a01b038116611a70576040805162461bcd60e51b8152602060048083019190915260248201527f7a65726f00000000000000000000000000000000000000000000000000000000604482015290519081900360640190fd5b601380547fffffffffffffffffffffffff0000000000000000000000000000000000000000166001600160a01b0392909216919091179055565b61032081565b6007546001600160a01b03163314611af95760405162461bcd60e51b815260040180806020018281038252602b815260200180613def602b913960400191505060405180910390fd5b600780547fffffffffffffffffffffffff0000000000000000000000000000000000000000166001600160a01b0392909216919091179055565b6007546001600160a01b03163314611b7c5760405162461bcd60e51b815260040180806020018281038252602b815260200180613def602b913960400191505060405180910390fd5b6103206011541115611bd5576040805162461bcd60e51b815260206004820152601960248201527f427661756c747353747261746567793a20746f6f206869676800000000000000604482015290519081900360640190fd5b601155565b6009546001600160a01b03163314611c235760405162461bcd60e51b8152600401808060200182810382526027815260200180613e3b6027913960400191505060405180910390fd5b600980547fffffffffffffffffffffffff0000000000000000000000000000000000000000166001600160a01b0392909216919091179055565b6007546001600160a01b03163314611ca65760405162461bcd60e51b815260040180806020018281038252602b815260200180613def602b913960400191505060405180910390fd5b610320600e541115611cff576040805162461bcd60e51b815260206004820152601960248201527f427661756c747353747261746567793a20746f6f206869676800000000000000604482015290519081900360640190fd5b600e55565b60025460ff1615611d5c576040805162461bcd60e51b815260206004820152601060248201527f5061757361626c653a2070617573656400000000000000000000000000000000604482015290519081900360640190fd5b6040805162461bcd60e51b815260206004820181905260248201527f6e6f206475737420666f722073696e676c65206173736574207374616b696e67604482015290519081900360640190fd5b6126de81565b6007546001600160a01b03163314611df85760405162461bcd60e51b815260040180806020018281038252602b815260200180613def602b913960400191505060405180910390fd5b6010546001600160a01b0316611e57576040805162461bcd60e51b8152602060048083019190915260248201527f7a65726f00000000000000000000000000000000000000000000000000000000604482015290519081900360640190fd5b601080547fffffffffffffffffffffffff0000000000000000000000000000000000000000166001600160a01b0392909216919091179055565b6007546001600160a01b03163314611eda5760405162461bcd60e51b815260040180806020018281038252602b815260200180613def602b913960400191505060405180910390fd5b600880547fffffffffffffffffffffffff0000000000000000000000000000000000000000166001600160a01b0392909216919091179055565b600f546001600160a01b031681565b6009546001600160a01b031681565b60025460ff1615611f8a576040805162461bcd60e51b815260206004820152601060248201527f5061757361626c653a2070617573656400000000000000000000000000000000604482015290519081900360640190fd5b60025462010000900460ff16611fe7576040805162461bcd60e51b815260206004820152601c60248201527f427661756c747353747261746567793a202169734175746f436f6d7000000000604482015290519081900360640190fd5b60095474010000000000000000000000000000000000000000900460ff1615806120155750612015336113e4565b612066576040805162461bcd60e51b815260206004820152601c60248201527f427661756c747353747261746567793a2021617574686f726973656400000000604482015290519081900360640190fd5b600254610100900460ff16156120ef57600260039054906101000a90046001600160a01b03166001600160a01b0316631058d28160006040518263ffffffff1660e01b815260040180828152602001915050600060405180830381600087803b1580156120d257600080fd5b505af11580156120e6573d6000803e3d6000fd5b5050505061216e565b600260039054906101000a90046001600160a01b03166001600160a01b031663441a3e7060035460006040518363ffffffff1660e01b81526004018083815260200182815260200192505050600060405180830381600087803b15801561215557600080fd5b505af1158015612169573d6000803e3d6000fd5b505050505b600554604080517f70a0823100000000000000000000000000000000000000000000000000000000815230600482015290516000926001600160a01b0316916370a08231916024808301926020929190829003018186803b1580156121d257600080fd5b505afa1580156121e6573d6000803e3d6000fd5b505050506040513d60208110156121fc57600080fd5b5051600554604080516001600160a01b0390921682526020820183905280519293507f053fa1fc52294a40b4ff1a988765bd298c00caa24d685cc3f767dcfde254ef9a92918290030190a1600061225282612fd0565b9050600061225f83613072565b9050600061226c84613418565b90506122848161227e84818888613842565b90613842565b43600a5593506122946000612a43565b50505050565b60095474010000000000000000000000000000000000000000900460ff1681565b600554604080517f70a08231000000000000000000000000000000000000000000000000000000008152306004820152905160009283926001600160a01b03909116916370a0823191602480820192602092909190829003018186803b15801561232457600080fd5b505afa158015612338573d6000803e3d6000fd5b505050506040513d602081101561234e57600080fd5b5051600254600354604080517fcf4b55cb000000000000000000000000000000000000000000000000000000008152600481019290925230602483015251929350611992928492630100000090046001600160a01b03169163cf4b55cb916044808301926020929190829003018186803b1580156123cb57600080fd5b505afa1580156123df573d6000803e3d6000fd5b505050506040513d60208110156123f557600080fd5b505190612e45565b600e5481565b60115481565b60025462010000900460ff1681565b6005546001600160a01b031681565b6004546001600160a01b031681565b6007546001600160a01b0316331461247f5760405162461bcd60e51b815260040180806020018281038252602b815260200180613def602b913960400191505060405180910390fd5b8051610c79906016906020840190613caf565b60035481565b6124a0612d17565b6000546001600160a01b03908116911614612502576040805162461bcd60e51b815260206004820181905260248201527f4f776e61626c653a2063616c6c6572206973206e6f7420746865206f776e6572604482015290519081900360640190fd5b6001600160a01b0381166125475760405162461bcd60e51b8152600401808060200182810382526026815260200180613dc96026913960400191505060405180910390fd5b600080546040516001600160a01b03808516939216917f8be0079c531659141344cd1fd0a4f28419497f9722a3daafe3b4186f6b6457e091a3600080547fffffffffffffffffffffffff0000000000000000000000000000000000000000166001600160a01b0392909216919091179055565b60006125c4612d17565b6000546001600160a01b03908116911614612626576040805162461bcd60e51b815260206004820181905260248201527f4f776e61626c653a2063616c6c6572206973206e6f7420746865206f776e6572604482015290519081900360640190fd5b6002600154141561267e576040805162461bcd60e51b815260206004820152601f60248201527f5265656e7472616e637947756172643a207265656e7472616e742063616c6c00604482015290519081900360640190fd5b6002600155816126d5576040805162461bcd60e51b815260206004820152601a60248201527f427661756c747353747261746567793a20215f77616e74416d74000000000000604482015290519081900360640190fd5b60025462010000900460ff16156127ec57600254610100900460ff161561276e57600260039054906101000a90046001600160a01b03166001600160a01b0316631058d281836040518263ffffffff1660e01b815260040180828152602001915050600060405180830381600087803b15801561275157600080fd5b505af1158015612765573d6000803e3d6000fd5b505050506127ec565b600260039054906101000a90046001600160a01b03166001600160a01b031663441a3e70600354846040518363ffffffff1660e01b81526004018083815260200182815260200192505050600060405180830381600087803b1580156127d357600080fd5b505af11580156127e7573d6000803e3d6000fd5b505050505b60048054604080517f70a082310000000000000000000000000000000000000000000000000000000081523093810193909352516000926001600160a01b03909216916370a08231916024808301926020929190829003018186803b15801561285457600080fd5b505afa158015612868573d6000803e3d6000fd5b505050506040513d602081101561287e57600080fd5b505190508083111561288e578092505b82600b54101561289e57600b5492505b60006128bb600b54611350600c5487612da390919063ffffffff16565b9050600c548111156128cc5750600c545b600c546128d99082613842565b600c55600b546128e99085613842565b600b55600454612903906001600160a01b03163386612e9f565b6040805185815290517f5b6b431d4476a211bb7d41c20d1aab9ae2321deee0d20be3d9fc9b1093fa6e3d9181900360200190a160018055949350505050565b6007546001600160a01b0316331461298b5760405162461bcd60e51b815260040180806020018281038252602b815260200180613def602b913960400191505060405180910390fd5b61012c8111156129e2576040805162461bcd60e51b815260206004820152601960248201527f427661756c747353747261746567793a20746f6f206869676800000000000000604482015290519081900360640190fd5b600d55565b6007546001600160a01b03163314612a305760405162461bcd60e51b815260040180806020018281038252602b815260200180613def602b913960400191505060405180910390fd5b8051610c79906015906020840190613caf565b80612adc5760048054604080517f70a082310000000000000000000000000000000000000000000000000000000081523093810193909352516001600160a01b03909116916370a08231916024808301926020929190829003018186803b158015612aad57600080fd5b505afa158015612ac1573d6000803e3d6000fd5b505050506040513d6020811015612ad757600080fd5b505190505b600b54612ae99082612e45565b600b55600254600454612b11916001600160a01b039182169163010000009091041683613884565b600254610100900460ff1615612b9e57600260039054906101000a90046001600160a01b03166001600160a01b03166341441d3b826040518263ffffffff1660e01b815260040180828152602001915050600060405180830381600087803b158015612b7c57600080fd5b505af1158015612b90573d6000803e3d6000fd5b505043600a5550612c1c9050565b600260039054906101000a90046001600160a01b03166001600160a01b031663e2bbb158600354836040518363ffffffff1660e01b81526004018083815260200182815260200192505050600060405180830381600087803b158015612c0357600080fd5b505af1158015612c17573d6000803e3d6000fd5b505050505b6040805182815290517fc217459869eed80bfbe5c11e78ab58912eedfd106342671821b6e96d1615dc7f9181900360200190a150565b60025460ff16612ca9576040805162461bcd60e51b815260206004820152601460248201527f5061757361626c653a206e6f7420706175736564000000000000000000000000604482015290519081900360640190fd5b600280547fffffffffffffffffffffffffffffffffffffffffffffffffffffffffffffff001690557f5db9ee0a495bf2e6ff9c91a7834c1ba4fdd244a5e8aa4e537bd38aeae4b073aa612cfa612d17565b604080516001600160a01b039092168252519081900360200190a1565b3390565b604080516001600160a01b0380861660248301528416604482015260648082018490528251808303909101815260849091019091526020810180517bffffffffffffffffffffffffffffffffffffffffffffffffffffffff167f23b872dd00000000000000000000000000000000000000000000000000000000179052612294908590613967565b600082612db2575060006113cf565b82820282848281612dbf57fe5b0414612dfc5760405162461bcd60e51b8152600401808060200182810382526021815260200180613e1a6021913960400191505060405180910390fd5b9392505050565b6000612dfc83836040518060400160405280601a81526020017f536166654d6174683a206469766973696f6e206279207a65726f000000000000815250613a18565b600082820183811015612dfc576040805162461bcd60e51b815260206004820152601b60248201527f536166654d6174683a206164646974696f6e206f766572666c6f770000000000604482015290519081900360640190fd5b604080516001600160a01b038416602482015260448082018490528251808303909101815260649091019091526020810180517bffffffffffffffffffffffffffffffffffffffffffffffffffffffff167fa9059cbb00000000000000000000000000000000000000000000000000000000179052612f1f908490613967565b505050565b60025460ff1615612f7c576040805162461bcd60e51b815260206004820152601060248201527f5061757361626c653a2070617573656400000000000000000000000000000000604482015290519081900360640190fd5b600280547fffffffffffffffffffffffffffffffffffffffffffffffffffffffffffffff001660011790557f62e78cea01bee320cd4e420270b5ea74000d11b0c9f74754ebdbfc544b05a258612cfa612d17565b6000811561142557600d541561142557612ffb612710611350600d5485612da390919063ffffffff16565b60075460055491925061301b916001600160a01b03908116911683612e9f565b600554600754604080516001600160a01b03938416815260208101859052919092168183015290517f056e5430e11cfdfb90a183ec3bf63ed22abe70cdf4e7bd3018d8b459bbd7f6199181900360600190a1919050565b600e54600090158061308d57506010546001600160a01b0316155b1561309a57506000611425565b60006130b7612710611350600e5486612da390919063ffffffff16565b601554600f54601054604080517f70a082310000000000000000000000000000000000000000000000000000000081526001600160a01b0392831660048201529051949550929360009391909216916370a0823191602480820192602092909190829003018186803b15801561312c57600080fd5b505afa158015613140573d6000803e3d6000fd5b505050506040513d602081101561315657600080fd5b505160158054919250907fffffffffffffffffffffffffffffffffffffffffffffffffffffffffffffffff840190811061318c57fe5b6000918252602082200154601580546001600160a01b039092169290916131af57fe5b6000918252602090912001546001600160a01b0316146132e3576006546005546131e6916001600160a01b03918216911685613884565b6006546010546040517f5c11d795000000000000000000000000000000000000000000000000000000008152600481018681526000602483018190526001600160a01b0393841660648401819052603c42016084850181905260a0604486019081526015805460a488018190529790981697635c11d795978c979596919591929160c40190869080156132a257602002820191906000526020600020905b81546001600160a01b03168152600190910190602001808311613284575b50509650505050505050600060405180830381600087803b1580156132c657600080fd5b505af11580156132da573d6000803e3d6000fd5b50505050613300565b601054600554613300916001600160a01b03918216911685612e9f565b600f54601054604080517f70a082310000000000000000000000000000000000000000000000000000000081526001600160a01b039283166004820152905160009392909216916370a0823191602480820192602092909190829003018186803b15801561336d57600080fd5b505afa158015613381573d6000803e3d6000fd5b505050506040513d602081101561339757600080fd5b5051905060006133a78284613842565b600554600f54601054604080516001600160a01b03948516815292841660208401528281018a9052606083018590529216608082015290519192507fb152a9c4203a9515a80fadb5b18afb6bfce5350eccdfda9d0908ac37ec094222919081900360a00190a1509295945050505050565b601154600090158061343357506013546001600160a01b0316155b1561344057506000611425565b600061345d61271061135060115486612da390919063ffffffff16565b601654601254601354604080517f70a082310000000000000000000000000000000000000000000000000000000081526001600160a01b0392831660048201529051949550929360009391909216916370a0823191602480820192602092909190829003018186803b1580156134d257600080fd5b505afa1580156134e6573d6000803e3d6000fd5b505050506040513d60208110156134fc57600080fd5b505160168054919250907fffffffffffffffffffffffffffffffffffffffffffffffffffffffffffffffff840190811061353257fe5b6000918252602082200154601680546001600160a01b0390921692909161355557fe5b6000918252602090912001546001600160a01b0316146136895760065460055461358c916001600160a01b03918216911685613884565b6006546013546040517f5c11d795000000000000000000000000000000000000000000000000000000008152600481018681526000602483018190526001600160a01b0393841660648401819052603c42016084850181905260a0604486019081526016805460a488018190529790981697635c11d795978c979596919591929160c401908690801561364857602002820191906000526020600020905b81546001600160a01b0316815260019091019060200180831161362a575b50509650505050505050600060405180830381600087803b15801561366c57600080fd5b505af1158015613680573d6000803e3d6000fd5b505050506136a6565b6013546005546136a6916001600160a01b03918216911685612e9f565b601254601354604080517f70a082310000000000000000000000000000000000000000000000000000000081526001600160a01b039283166004820152905160009392909216916370a0823191602480820192602092909190829003018186803b15801561371357600080fd5b505afa158015613727573d6000803e3d6000fd5b505050506040513d602081101561373d57600080fd5b50519050600061374d8284613842565b9050801561383757601354604080517f50afa34b0000000000000000000000000000000000000000000000000000000081526004810184905290516001600160a01b03909216916350afa34b9160248082019260009290919082900301818387803b1580156137bb57600080fd5b505af11580156137cf573d6000803e3d6000fd5b5050600554601254601354604080516001600160a01b03948516815292841660208401528281018b9052606083018790529216608082015290517fb152a9c4203a9515a80fadb5b18afb6bfce5350eccdfda9d0908ac37ec09422293509081900360a0019150a15b509295945050505050565b6000612dfc83836040518060400160405280601e81526020017f536166654d6174683a207375627472616374696f6e206f766572666c6f770000815250613aba565b60006138e882856001600160a01b031663dd62ed3e30876040518363ffffffff1660e01b815260040180836001600160a01b03168152602001826001600160a01b031681526020019250505060206040518083038186803b1580156123cb57600080fd5b604080516001600160a01b038616602482015260448082018490528251808303909101815260649091019091526020810180517bffffffffffffffffffffffffffffffffffffffffffffffffffffffff167f095ea7b3000000000000000000000000000000000000000000000000000000001790529091506122949085905b60606139bc826040518060400160405280602081526020017f5361666545524332303a206c6f772d6c6576656c2063616c6c206661696c6564815250856001600160a01b0316613b149092919063ffffffff16565b805190915015612f1f578080602001905160208110156139db57600080fd5b5051612f1f5760405162461bcd60e51b815260040180806020018281038252602a815260200180613e62602a913960400191505060405180910390fd5b60008183613aa45760405162461bcd60e51b81526004018080602001828103825283818151815260200191508051906020019080838360005b83811015613a69578181015183820152602001613a51565b50505050905090810190601f168015613a965780820380516001836020036101000a031916815260200191505b509250505060405180910390fd5b506000838581613ab057fe5b0495945050505050565b60008184841115613b0c5760405162461bcd60e51b8152602060048201818152835160248401528351909283926044909101919085019080838360008315613a69578181015183820152602001613a51565b505050900390565b606061100584846000856060613b2985613ca9565b613b7a576040805162461bcd60e51b815260206004820152601d60248201527f416464726573733a2063616c6c20746f206e6f6e2d636f6e7472616374000000604482015290519081900360640190fd5b60006060866001600160a01b031685876040518082805190602001908083835b60208310613bd757805182527fffffffffffffffffffffffffffffffffffffffffffffffffffffffffffffffe09092019160209182019101613b9a565b6001836020036101000a03801982511681845116808217855250505050505090500191505060006040518083038185875af1925050503d8060008114613c39576040519150601f19603f3d011682016040523d82523d6000602084013e613c3e565b606091505b50915091508115613c525791506110059050565b805115613c625780518082602001fd5b60405162461bcd60e51b8152602060048201818152865160248401528651879391928392604401919085019080838360008315613a69578181015183820152602001613a51565b3b151590565b828054828255906000526020600020908101928215613d1c579160200282015b82811115613d1c57825182547fffffffffffffffffffffffff0000000000000000000000000000000000000000166001600160a01b03909116178255602090920191600190910190613ccf565b50613d28929150613d2c565b5090565b5b80821115613d285780547fffffffffffffffffffffffff0000000000000000000000000000000000000000168155600101613d2d56fe427661756c747353747261746567793a3a657865637574655472616e73616374696f6e3a205472616e73616374696f6e20657865637574696f6e2072657665727465642e427661756c747353747261746567793a202173616665202d20746f6f20686967684f776e61626c653a206e6577206f776e657220697320746865207a65726f2061646472657373427661756c747353747261746567793a2063616c6c6572206973206e6f7420746865206f70657261746f72536166654d6174683a206d756c7469706c69636174696f6e206f766572666c6f77427661756c747353747261746567793a2063616c6c6572206973206e6f742074696d656c6f636b5361666545524332303a204552433230206f7065726174696f6e20646964206e6f742073756363656564a2646970667358221220cea91d5651428ece4374e950bbeab67d8871e7f2eeb5548fbee0ce0351d14a6764736f6c634300060c00334f776e61626c653a206e6577206f776e657220697320746865207a65726f20616464726573738be0079c531659141344cd1fd0a4f28419497f9722a3daafe3b4186f6b6457e0",
  "linkReferences": {},
  "deployedLinkReferences": {}
}