{
  "_format": "hh-sol-artifact-1",
  "contractName": "BvaultsStrategy",
  "sourceName": "contracts/BvaultsStrategy.alpaca.busd.sol",
  "abi": [
    {
      "inputs": [
        {
          "internalType": "address",
          "name": "_controller",
          "type": "address"
        },
        {
          "internalType": "bool",
          "name": "_isAutoComp",
          "type": "bool"
        },
        {
          "internalType": "address",
          "name": "_vaultContractAddress",
          "type": "address"
        },
        {
          "internalType": "address",
          "name": "_farmContractAddress",
          "type": "address"
        },
        {
          "internalType": "uint256",
          "name": "_pid",
          "type": "uint256"
        },
        {
          "internalType": "address",
          "name": "_wantAddress",
          "type": "address"
        },
        {
          "internalType": "address",
          "name": "_earnedAddress",
          "type": "address"
        },
        {
          "internalType": "address",
          "name": "_uniRouterAddress",
          "type": "address"
        },
        {
          "internalType": "address[]",
          "name": "_buyBackToken1Info",
          "type": "address[]"
        },
        {
          "internalType": "address[]",
          "name": "_buyBackToken2Info",
          "type": "address[]"
        }
      ],
      "stateMutability": "nonpayable",
      "type": "constructor"
    },
    {
      "anonymous": false,
      "inputs": [
        {
          "indexed": false,
          "internalType": "address",
          "name": "earnedAddress",
          "type": "address"
        },
        {
          "indexed": false,
          "internalType": "address",
          "name": "buyBackToken",
          "type": "address"
        },
        {
          "indexed": false,
          "internalType": "uint256",
          "name": "earnedAmt",
          "type": "uint256"
        },
        {
          "indexed": false,
          "internalType": "uint256",
          "name": "buyBackAmt",
          "type": "uint256"
        },
        {
          "indexed": false,
          "internalType": "address",
          "name": "receiver",
          "type": "address"
        }
      ],
      "name": "BuyBack",
      "type": "event"
    },
    {
      "anonymous": false,
      "inputs": [
        {
          "indexed": false,
          "internalType": "address",
          "name": "token0Address",
          "type": "address"
        },
        {
          "indexed": false,
          "internalType": "uint256",
          "name": "token0Amt",
          "type": "uint256"
        },
        {
          "indexed": false,
          "internalType": "address",
          "name": "token1Address",
          "type": "address"
        },
        {
          "indexed": false,
          "internalType": "uint256",
          "name": "token1Amt",
          "type": "uint256"
        }
      ],
      "name": "Compound",
      "type": "event"
    },
    {
      "anonymous": false,
      "inputs": [
        {
          "indexed": false,
          "internalType": "address",
          "name": "tokenAddress",
          "type": "address"
        },
        {
          "indexed": false,
          "internalType": "address",
          "name": "earnedAddress",
          "type": "address"
        },
        {
          "indexed": false,
          "internalType": "uint256",
          "name": "tokenAmt",
          "type": "uint256"
        }
      ],
      "name": "ConvertDustToEarned",
      "type": "event"
    },
    {
      "anonymous": false,
      "inputs": [
        {
          "indexed": false,
          "internalType": "uint256",
          "name": "amount",
          "type": "uint256"
        }
      ],
      "name": "Deposit",
      "type": "event"
    },
    {
      "anonymous": false,
      "inputs": [
        {
          "indexed": false,
          "internalType": "address",
          "name": "earnedAddress",
          "type": "address"
        },
        {
          "indexed": false,
          "internalType": "uint256",
          "name": "fee",
          "type": "uint256"
        },
        {
          "indexed": false,
          "internalType": "address",
          "name": "receiver",
          "type": "address"
        }
      ],
      "name": "DistributeFee",
      "type": "event"
    },
    {
      "anonymous": false,
      "inputs": [
        {
          "indexed": false,
          "internalType": "address",
          "name": "earnedAddress",
          "type": "address"
        },
        {
          "indexed": false,
          "internalType": "uint256",
          "name": "earnedAmt",
          "type": "uint256"
        }
      ],
      "name": "Earned",
      "type": "event"
    },
    {
      "anonymous": false,
      "inputs": [
        {
          "indexed": true,
          "internalType": "address",
          "name": "target",
          "type": "address"
        },
        {
          "indexed": false,
          "internalType": "uint256",
          "name": "value",
          "type": "uint256"
        },
        {
          "indexed": false,
          "internalType": "string",
          "name": "signature",
          "type": "string"
        },
        {
          "indexed": false,
          "internalType": "bytes",
          "name": "data",
          "type": "bytes"
        }
      ],
      "name": "ExecuteTransaction",
      "type": "event"
    },
    {
      "anonymous": false,
      "inputs": [
        {
          "indexed": false,
          "internalType": "uint256",
          "name": "amount",
          "type": "uint256"
        }
      ],
      "name": "Farm",
      "type": "event"
    },
    {
      "anonymous": false,
      "inputs": [
        {
          "indexed": false,
          "internalType": "address",
          "name": "tokenAddress",
          "type": "address"
        },
        {
          "indexed": false,
          "internalType": "uint256",
          "name": "tokenAmt",
          "type": "uint256"
        },
        {
          "indexed": false,
          "internalType": "address",
          "name": "receiver",
          "type": "address"
        }
      ],
      "name": "InCaseTokensGetStuck",
      "type": "event"
    },
    {
      "anonymous": false,
      "inputs": [
        {
          "indexed": true,
          "internalType": "address",
          "name": "previousOwner",
          "type": "address"
        },
        {
          "indexed": true,
          "internalType": "address",
          "name": "newOwner",
          "type": "address"
        }
      ],
      "name": "OwnershipTransferred",
      "type": "event"
    },
    {
      "anonymous": false,
      "inputs": [
        {
          "indexed": false,
          "internalType": "address",
          "name": "account",
          "type": "address"
        }
      ],
      "name": "Paused",
      "type": "event"
    },
    {
      "anonymous": false,
      "inputs": [
        {
          "indexed": false,
          "internalType": "address",
          "name": "account",
          "type": "address"
        }
      ],
      "name": "Unpaused",
      "type": "event"
    },
    {
      "anonymous": false,
      "inputs": [
        {
          "indexed": false,
          "internalType": "uint256",
          "name": "amount",
          "type": "uint256"
        }
      ],
      "name": "Withdraw",
      "type": "event"
    },
    {
      "inputs": [],
      "name": "balanceInPool",
      "outputs": [
        {
          "internalType": "uint256",
          "name": "",
          "type": "uint256"
        }
      ],
      "stateMutability": "view",
      "type": "function"
    },
    {
      "inputs": [],
      "name": "busdAddress",
      "outputs": [
        {
          "internalType": "address",
          "name": "",
          "type": "address"
        }
      ],
      "stateMutability": "view",
      "type": "function"
    },
    {
      "inputs": [],
      "name": "buyBackAddress1",
      "outputs": [
        {
          "internalType": "address",
          "name": "",
          "type": "address"
        }
      ],
      "stateMutability": "view",
      "type": "function"
    },
    {
      "inputs": [],
      "name": "buyBackAddress2",
      "outputs": [
        {
          "internalType": "address",
          "name": "",
          "type": "address"
        }
      ],
      "stateMutability": "view",
      "type": "function"
    },
    {
      "inputs": [],
      "name": "buyBackRate1",
      "outputs": [
        {
          "internalType": "uint256",
          "name": "",
          "type": "uint256"
        }
      ],
      "stateMutability": "view",
      "type": "function"
    },
    {
      "inputs": [],
      "name": "buyBackRate2",
      "outputs": [
        {
          "internalType": "uint256",
          "name": "",
          "type": "uint256"
        }
      ],
      "stateMutability": "view",
      "type": "function"
    },
    {
      "inputs": [],
      "name": "buyBackRateMax",
      "outputs": [
        {
          "internalType": "uint256",
          "name": "",
          "type": "uint256"
        }
      ],
      "stateMutability": "view",
      "type": "function"
    },
    {
      "inputs": [],
      "name": "buyBackRateUL",
      "outputs": [
        {
          "internalType": "uint256",
          "name": "",
          "type": "uint256"
        }
      ],
      "stateMutability": "view",
      "type": "function"
    },
    {
      "inputs": [],
      "name": "buyBackToken1",
      "outputs": [
        {
          "internalType": "address",
          "name": "",
          "type": "address"
        }
      ],
      "stateMutability": "view",
      "type": "function"
    },
    {
      "inputs": [],
      "name": "buyBackToken2",
      "outputs": [
        {
          "internalType": "address",
          "name": "",
          "type": "address"
        }
      ],
      "stateMutability": "view",
      "type": "function"
    },
    {
      "inputs": [],
      "name": "checkForUnlockReward",
      "outputs": [
        {
          "internalType": "bool",
          "name": "",
          "type": "bool"
        }
      ],
      "stateMutability": "view",
      "type": "function"
    },
    {
      "inputs": [],
      "name": "controllerFee",
      "outputs": [
        {
          "internalType": "uint256",
          "name": "",
          "type": "uint256"
        }
      ],
      "stateMutability": "view",
      "type": "function"
    },
    {
      "inputs": [],
      "name": "controllerFeeMax",
      "outputs": [
        {
          "internalType": "uint256",
          "name": "",
          "type": "uint256"
        }
      ],
      "stateMutability": "view",
      "type": "function"
    },
    {
      "inputs": [],
      "name": "controllerFeeUL",
      "outputs": [
        {
          "internalType": "uint256",
          "name": "",
          "type": "uint256"
        }
      ],
      "stateMutability": "view",
      "type": "function"
    },
    {
      "inputs": [],
      "name": "convertDustToEarned",
      "outputs": [],
      "stateMutability": "nonpayable",
      "type": "function"
    },
    {
      "inputs": [
        {
          "internalType": "address",
          "name": "",
          "type": "address"
        },
        {
          "internalType": "uint256",
          "name": "_wantAmt",
          "type": "uint256"
        }
      ],
      "name": "deposit",
      "outputs": [
        {
          "internalType": "uint256",
          "name": "",
          "type": "uint256"
        }
      ],
      "stateMutability": "nonpayable",
      "type": "function"
    },
    {
      "inputs": [],
      "name": "earn",
      "outputs": [],
      "stateMutability": "nonpayable",
      "type": "function"
    },
    {
      "inputs": [],
      "name": "earnedAddress",
      "outputs": [
        {
          "internalType": "address",
          "name": "",
          "type": "address"
        }
      ],
      "stateMutability": "view",
      "type": "function"
    },
    {
      "inputs": [],
      "name": "emergencyWithraw",
      "outputs": [],
      "stateMutability": "nonpayable",
      "type": "function"
    },
    {
      "inputs": [],
      "name": "entranceFeeFactor",
      "outputs": [
        {
          "internalType": "uint256",
          "name": "",
          "type": "uint256"
        }
      ],
      "stateMutability": "view",
      "type": "function"
    },
    {
      "inputs": [],
      "name": "entranceFeeFactorLL",
      "outputs": [
        {
          "internalType": "uint256",
          "name": "",
          "type": "uint256"
        }
      ],
      "stateMutability": "view",
      "type": "function"
    },
    {
      "inputs": [],
      "name": "entranceFeeFactorMax",
      "outputs": [
        {
          "internalType": "uint256",
          "name": "",
          "type": "uint256"
        }
      ],
      "stateMutability": "view",
      "type": "function"
    },
    {
      "inputs": [
        {
          "internalType": "address",
          "name": "target",
          "type": "address"
        },
        {
          "internalType": "uint256",
          "name": "value",
          "type": "uint256"
        },
        {
          "internalType": "string",
          "name": "signature",
          "type": "string"
        },
        {
          "internalType": "bytes",
          "name": "data",
          "type": "bytes"
        }
      ],
      "name": "executeTransaction",
      "outputs": [
        {
          "internalType": "bytes",
          "name": "",
          "type": "bytes"
        }
      ],
      "stateMutability": "nonpayable",
      "type": "function"
    },
    {
      "inputs": [],
      "name": "farm",
      "outputs": [],
      "stateMutability": "nonpayable",
      "type": "function"
    },
    {
      "inputs": [],
      "name": "farmContractAddress",
      "outputs": [
        {
          "internalType": "address",
          "name": "",
          "type": "address"
        }
      ],
      "stateMutability": "view",
      "type": "function"
    },
    {
      "inputs": [
        {
          "internalType": "address",
          "name": "_token",
          "type": "address"
        },
        {
          "internalType": "uint256",
          "name": "_amount",
          "type": "uint256"
        },
        {
          "internalType": "address",
          "name": "_to",
          "type": "address"
        }
      ],
      "name": "inCaseTokensGetStuck",
      "outputs": [],
      "stateMutability": "nonpayable",
      "type": "function"
    },
    {
      "inputs": [
        {
          "internalType": "address",
          "name": "_account",
          "type": "address"
        }
      ],
      "name": "isAuthorised",
      "outputs": [
        {
          "internalType": "bool",
          "name": "",
          "type": "bool"
        }
      ],
      "stateMutability": "view",
      "type": "function"
    },
    {
      "inputs": [],
      "name": "isAutoComp",
      "outputs": [
        {
          "internalType": "bool",
          "name": "",
          "type": "bool"
        }
      ],
      "stateMutability": "view",
      "type": "function"
    },
    {
      "inputs": [],
      "name": "lastEarnBlock",
      "outputs": [
        {
          "internalType": "uint256",
          "name": "",
          "type": "uint256"
        }
      ],
      "stateMutability": "view",
      "type": "function"
    },
    {
      "inputs": [],
      "name": "notPublic",
      "outputs": [
        {
          "internalType": "bool",
          "name": "",
          "type": "bool"
        }
      ],
      "stateMutability": "view",
      "type": "function"
    },
    {
      "inputs": [],
      "name": "operator",
      "outputs": [
        {
          "internalType": "address",
          "name": "",
          "type": "address"
        }
      ],
      "stateMutability": "view",
      "type": "function"
    },
    {
      "inputs": [],
      "name": "owner",
      "outputs": [
        {
          "internalType": "address",
          "name": "",
          "type": "address"
        }
      ],
      "stateMutability": "view",
      "type": "function"
    },
    {
      "inputs": [
        {
          "internalType": "address",
          "name": "",
          "type": "address"
        },
        {
          "internalType": "address",
          "name": "",
          "type": "address"
        },
        {
          "internalType": "uint256",
          "name": "",
          "type": "uint256"
        }
      ],
      "name": "paths",
      "outputs": [
        {
          "internalType": "address",
          "name": "",
          "type": "address"
        }
      ],
      "stateMutability": "view",
      "type": "function"
    },
    {
      "inputs": [],
      "name": "pause",
      "outputs": [],
      "stateMutability": "nonpayable",
      "type": "function"
    },
    {
      "inputs": [],
      "name": "paused",
      "outputs": [
        {
          "internalType": "bool",
          "name": "",
          "type": "bool"
        }
      ],
      "stateMutability": "view",
      "type": "function"
    },
    {
      "inputs": [],
      "name": "pendingHarvest",
      "outputs": [
        {
          "internalType": "uint256",
          "name": "",
          "type": "uint256"
        }
      ],
      "stateMutability": "view",
      "type": "function"
    },
    {
      "inputs": [],
      "name": "pendingHarvestDollarValue",
      "outputs": [
        {
          "internalType": "uint256",
          "name": "",
          "type": "uint256"
        }
      ],
      "stateMutability": "view",
      "type": "function"
    },
    {
      "inputs": [],
      "name": "pid",
      "outputs": [
        {
          "internalType": "uint256",
          "name": "",
          "type": "uint256"
        }
      ],
      "stateMutability": "view",
      "type": "function"
    },
    {
      "inputs": [],
      "name": "renounceOwnership",
      "outputs": [],
      "stateMutability": "nonpayable",
      "type": "function"
    },
    {
      "inputs": [],
      "name": "resumeStrategy",
      "outputs": [],
      "stateMutability": "nonpayable",
      "type": "function"
    },
    {
      "inputs": [
        {
          "internalType": "address",
          "name": "_buyBackAddress1",
          "type": "address"
        }
      ],
      "name": "setBuyBackAddress1",
      "outputs": [],
      "stateMutability": "nonpayable",
      "type": "function"
    },
    {
      "inputs": [
        {
          "internalType": "address",
          "name": "_buyBackAddress2",
          "type": "address"
        }
      ],
      "name": "setBuyBackAddress2",
      "outputs": [],
      "stateMutability": "nonpayable",
      "type": "function"
    },
    {
      "inputs": [
        {
          "internalType": "uint256",
          "name": "_buyBackRate1",
          "type": "uint256"
        }
      ],
      "name": "setBuyBackRate1",
      "outputs": [],
      "stateMutability": "nonpayable",
      "type": "function"
    },
    {
      "inputs": [
        {
          "internalType": "uint256",
          "name": "_buyBackRate2",
          "type": "uint256"
        }
      ],
      "name": "setBuyBackRate2",
      "outputs": [],
      "stateMutability": "nonpayable",
      "type": "function"
    },
    {
      "inputs": [
        {
          "internalType": "bool",
          "name": "_checkForUnlockReward",
          "type": "bool"
        }
      ],
      "name": "setCheckForUnlockReward",
      "outputs": [],
      "stateMutability": "nonpayable",
      "type": "function"
    },
    {
      "inputs": [
        {
          "internalType": "uint256",
          "name": "_controllerFee",
          "type": "uint256"
        }
      ],
      "name": "setControllerFee",
      "outputs": [],
      "stateMutability": "nonpayable",
      "type": "function"
    },
    {
      "inputs": [
        {
          "internalType": "uint256",
          "name": "_entranceFeeFactor",
          "type": "uint256"
        }
      ],
      "name": "setEntranceFeeFactor",
      "outputs": [],
      "stateMutability": "nonpayable",
      "type": "function"
    },
    {
      "inputs": [
        {
          "internalType": "address[]",
          "name": "_earnedToBuyBackToken1Path",
          "type": "address[]"
        },
        {
          "internalType": "address[]",
          "name": "_earnedToBuyBackToken2Path",
          "type": "address[]"
        },
        {
          "internalType": "address[]",
          "name": "_earnedToWantPath",
          "type": "address[]"
        },
        {
          "internalType": "address[]",
          "name": "_earnedToBusdPath",
          "type": "address[]"
        },
        {
          "internalType": "address[]",
          "name": "_wantToEarnedPath",
          "type": "address[]"
        }
      ],
      "name": "setMainPaths",
      "outputs": [],
      "stateMutability": "nonpayable",
      "type": "function"
    },
    {
      "inputs": [
        {
          "internalType": "bool",
          "name": "_notPublic",
          "type": "bool"
        }
      ],
      "name": "setNotPublic",
      "outputs": [],
      "stateMutability": "nonpayable",
      "type": "function"
    },
    {
      "inputs": [
        {
          "internalType": "address",
          "name": "_operator",
          "type": "address"
        }
      ],
      "name": "setOperator",
      "outputs": [],
      "stateMutability": "nonpayable",
      "type": "function"
    },
    {
      "inputs": [
        {
          "internalType": "address",
          "name": "_inputToken",
          "type": "address"
        },
        {
          "internalType": "address",
          "name": "_outputToken",
          "type": "address"
        },
        {
          "internalType": "address[]",
          "name": "_path",
          "type": "address[]"
        }
      ],
      "name": "setPath",
      "outputs": [],
      "stateMutability": "nonpayable",
      "type": "function"
    },
    {
      "inputs": [
        {
          "internalType": "address",
          "name": "_strategist",
          "type": "address"
        }
      ],
      "name": "setStrategist",
      "outputs": [],
      "stateMutability": "nonpayable",
      "type": "function"
    },
    {
      "inputs": [
        {
          "internalType": "address",
          "name": "_timelock",
          "type": "address"
        }
      ],
      "name": "setTimelock",
      "outputs": [],
      "stateMutability": "nonpayable",
      "type": "function"
    },
    {
      "inputs": [],
      "name": "sharesTotal",
      "outputs": [
        {
          "internalType": "uint256",
          "name": "",
          "type": "uint256"
        }
      ],
      "stateMutability": "view",
      "type": "function"
    },
    {
      "inputs": [],
      "name": "strategist",
      "outputs": [
        {
          "internalType": "address",
          "name": "",
          "type": "address"
        }
      ],
      "stateMutability": "view",
      "type": "function"
    },
    {
      "inputs": [],
      "name": "strategyStopped",
      "outputs": [
        {
          "internalType": "bool",
          "name": "",
          "type": "bool"
        }
      ],
      "stateMutability": "view",
      "type": "function"
    },
    {
      "inputs": [],
      "name": "timelock",
      "outputs": [
        {
          "internalType": "address",
          "name": "",
          "type": "address"
        }
      ],
      "stateMutability": "view",
      "type": "function"
    },
    {
      "inputs": [
        {
          "internalType": "address",
          "name": "newOwner",
          "type": "address"
        }
      ],
      "name": "transferOwnership",
      "outputs": [],
      "stateMutability": "nonpayable",
      "type": "function"
    },
    {
      "inputs": [
        {
          "internalType": "uint256",
          "name": "_tokenAmount",
          "type": "uint256"
        },
        {
          "internalType": "address[]",
          "name": "_path",
          "type": "address[]"
        }
      ],
      "name": "uniExchangeRate",
      "outputs": [
        {
          "internalType": "uint256",
          "name": "",
          "type": "uint256"
        }
      ],
      "stateMutability": "view",
      "type": "function"
    },
    {
      "inputs": [],
      "name": "uniRouterAddress",
      "outputs": [
        {
          "internalType": "address",
          "name": "",
          "type": "address"
        }
      ],
      "stateMutability": "view",
      "type": "function"
    },
    {
      "inputs": [],
      "name": "unpause",
      "outputs": [],
      "stateMutability": "nonpayable",
      "type": "function"
    },
    {
      "inputs": [],
      "name": "vaultContractAddress",
      "outputs": [
        {
          "internalType": "address",
          "name": "",
          "type": "address"
        }
      ],
      "stateMutability": "view",
      "type": "function"
    },
    {
      "inputs": [],
      "name": "wantAddress",
      "outputs": [
        {
          "internalType": "address",
          "name": "",
          "type": "address"
        }
      ],
      "stateMutability": "view",
      "type": "function"
    },
    {
      "inputs": [],
      "name": "wantLockedTotal",
      "outputs": [
        {
          "internalType": "uint256",
          "name": "",
          "type": "uint256"
        }
      ],
      "stateMutability": "view",
      "type": "function"
    },
    {
      "inputs": [],
      "name": "wbnbAddress",
      "outputs": [
        {
          "internalType": "address",
          "name": "",
          "type": "address"
        }
      ],
      "stateMutability": "view",
      "type": "function"
    },
    {
      "inputs": [
        {
          "internalType": "address",
          "name": "",
          "type": "address"
        },
        {
          "internalType": "uint256",
          "name": "_wantAmt",
          "type": "uint256"
        }
      ],
      "name": "withdraw",
      "outputs": [
        {
          "internalType": "uint256",
          "name": "",
          "type": "uint256"
        }
      ],
      "stateMutability": "nonpayable",
      "type": "function"
    }
  ],
  "bytecode": "0x60806040526002805463ffff000019169055600880546001600160a01b03199081167305ff2b0db69458a0750badebc4f9e13add608c7f17909155600b805460ff60a01b199083167392a082ad5a942140bcc791081f775900d0a514d9171690556000600c819055600d819055600e5560c8600f5560be6010556011805482167381859801b01764d4f0fa5e64729f5a6c3b91435b17905560128054821661dead908117909155606460135560148054831673190b589cf9fb8ddeabbfeae36a813ffb2a70245417905560158054909216179055612710601655348015620000e657600080fd5b50604051620053133803806200531383398181016040526101408110156200010d57600080fd5b815160208301516040808501516060860151608087015160a088015160c089015160e08a01516101008b0180519751999b989a969995989497939692959194919392820192846401000000008211156200016657600080fd5b9083019060208201858111156200017c57600080fd5b82518660208202830111640100000000821117156200019a57600080fd5b82525081516020918201928201910280838360005b83811015620001c9578181015183820152602001620001af565b5050505090500160405260200180516040519392919084640100000000821115620001f357600080fd5b9083019060208201858111156200020957600080fd5b82518660208202830111640100000000821117156200022757600080fd5b82525081516020918201928201910280838360005b83811015620002565781810151838201526020016200023c565b50505050905001604052505050600062000275620004a560201b60201c565b600080546001600160a01b0319166001600160a01b038316908117825560405192935091600080516020620052f3833981519152908290a350600180556002805460098054336001600160a01b03199182168117909255600a8054821690921790915561ffff199091166101008c15150217909155600580549091166001600160a01b03878116919091179091558316156200032757600880546001600160a01b0319166001600160a01b0385161790555b816000815181106200033557fe5b6020026020010151601160006101000a8154816001600160a01b0302191690836001600160a01b03160217905550816001815181106200037157fe5b6020026020010151601260006101000a8154816001600160a01b0302191690836001600160a01b0316021790555080600081518110620003ad57fe5b6020026020010151601460006101000a8154816001600160a01b0302191690836001600160a01b0316021790555080600181518110620003e957fe5b6020908102919091010151601580546001600160a01b0319166001600160a01b03909216919091179055600254610100900460ff16156200048a5760028054600160201b600160c01b0319166401000000006001600160a01b038b81169190910291909117909155600380546001600160a01b03199081168a8416179091556004889055600680548216878416179055600880549091169185169190911790555b620004958a620004a9565b50505050505050505050620005a7565b3390565b620004b3620004a5565b6000546001600160a01b0390811691161462000516576040805162461bcd60e51b815260206004820181905260248201527f4f776e61626c653a2063616c6c6572206973206e6f7420746865206f776e6572604482015290519081900360640190fd5b6001600160a01b0381166200055d5760405162461bcd60e51b8152600401808060200182810382526026815260200180620052cd6026913960400191505060405180910390fd5b600080546040516001600160a01b0380851693921691600080516020620052f383398151915291a3600080546001600160a01b0319166001600160a01b0392909216919091179055565b614d1680620005b76000396000f3fe608060405234801561001057600080fd5b50600436106104065760003560e01c806385f02dd61161021a578063c7b9d53011610135578063dfee1dd9116100c8578063ee50dc3411610097578063f2fde38b1161007c578063f2fde38b14610d88578063f3fef3a314610dae578063f400d31114610dda57610406565b8063ee50dc34146106fd578063f106845414610d8057610406565b8063dfee1dd914610d60578063e5dd455a14610d68578063e719847414610d70578063e7a0367914610d7857610406565b8063d389800f11610104578063d389800f14610d40578063d8be16da14610d48578063db7a3c0f14610d50578063df5c8a9e14610d5857610406565b8063c7b9d53014610cd4578063ce5328e414610cfa578063cef4cde414610d02578063d33219b414610d3857610406565b8063b3545c01116101ad578063bf94c0ba1161017c578063bf94c0ba14610c81578063c11c2e9214610c9e578063c302a4d014610ca6578063c3ec8dda14610cae57610406565b8063b3545c0114610c10578063b3ab15fb14610c18578063bb9928c614610c3e578063bdacb30314610c5b57610406565b80639b5e8b14116101e95780639b5e8b1414610bd25780639fc33a9f14610bda578063a552863214610be2578063a92ea0e014610c0857610406565b806385f02dd614610907578063889adfa81461090f5780638da5cb5b146109175780638fc847de1461091f57610406565b806347e7ef241161032557806363fe3e3a116102b8578063693a090b1161028757806376a902311161026c57806376a90231146108ef57806376ba098a146108f75780638456cb59146108ff57610406565b8063693a090b146108df578063715018a6146108e757610406565b806363fe3e3a146107ef57806366c31db7146107f757806367206d40146107ff5780636804d54a1461083557610406565b806351b699cd116102f457806351b699cd1461079d578063570ca735146107d75780635c975abb146107df578063607f35a0146107e757610406565b806347e7ef24146107615780634838c5f11461078d5780634a56fcd4146107955780634d9f7bb2146106fd57610406565b80632224fa251161039d5780633f4ba83a1161036c5780633f4ba83a1461072a57806342da4eb31461073257806344a3955e1461073a57806345d6b6671461074257610406565b80632224fa25146105465780632717eff3146106fd57806336e9332d146107055780633e1a89121461070d57610406565b80631334903f116103d95780631334903f146104f35780631a43da93146104fb5780631f81650c1461051f5780631fe4a6861461053e57610406565b8063055227a11461040b578063061c7d48146104c95780630fa4e01e146104e357806312951723146104eb575b600080fd5b6104c76004803603606081101561042157600080fd5b6001600160a01b03823581169260208101359091169181019060608101604082013564010000000081111561045557600080fd5b82018360208201111561046757600080fd5b8035906020019184602083028401116401000000008311171561048957600080fd5b919080806020026020016040519081016040528093929190818152602001838360200280828437600092019190915250929550610df7945050505050565b005b6104d1610e7b565b60408051918252519081900360200190f35b6104d1610e81565b6104c7610e87565b6104d1610f02565b610503610f08565b604080516001600160a01b039092168252519081900360200190f35b6104c76004803603602081101561053557600080fd5b50351515610f17565b610503610f99565b6106886004803603608081101561055c57600080fd5b6001600160a01b038235169160208101359181019060608101604082013564010000000081111561058c57600080fd5b82018360208201111561059e57600080fd5b803590602001918460018302840111640100000000831117156105c057600080fd5b91908080601f016020809104026020016040519081016040528093929190818152602001838380828437600092019190915250929594936020810193503591505064010000000081111561061357600080fd5b82018360208201111561062557600080fd5b8035906020019184600183028401116401000000008311171561064757600080fd5b91908080601f016020809104026020016040519081016040528093929190818152602001838380828437600092019190915250929550610fa8945050505050565b6040805160208082528351818301528351919283929083019185019080838360005b838110156106c25781810151838201526020016106aa565b50505050905090810190601f1680156106ef5780820380516001836020036101000a031916815260200191505b509250505060405180910390f35b6104d16112e1565b6104c76112e7565b6104c76004803603602081101561072357600080fd5b503561139a565b6104c761147f565b6104d16114d0565b6104d16114d6565b6104c76004803603602081101561075857600080fd5b503515156114dc565b6104d16004803603604081101561077757600080fd5b506001600160a01b03813516906020013561156f565b6104c761174d565b610503611967565b6107c3600480360360208110156107b357600080fd5b50356001600160a01b0316611976565b604080519115158252519081900360200190f35b6105036119bc565b6107c36119cb565b6105036119d4565b6105036119e3565b6104d16119fb565b6104c76004803603606081101561081557600080fd5b506001600160a01b03813581169160208101359160409091013516611aa0565b6104d16004803603604081101561084b57600080fd5b8135919081019060408101602082013564010000000081111561086d57600080fd5b82018360208201111561087f57600080fd5b803590602001918460208302840111640100000000831117156108a157600080fd5b919080806020026020016040519081016040528093929190818152602001838360200280828437600092019190915250929550611c12945050505050565b610503611dc7565b6104c7611dd6565b610503611ea2565b6107c3611eba565b6104c7611eca565b6104d1611f1b565b6104d1611f21565b610503611fda565b6104c7600480360360a081101561093557600080fd5b81019060208101813564010000000081111561095057600080fd5b82018360208201111561096257600080fd5b8035906020019184602083028401116401000000008311171561098457600080fd5b91908080602002602001604051908101604052809392919081815260200183836020028082843760009201919091525092959493602081019350359150506401000000008111156109d457600080fd5b8201836020820111156109e657600080fd5b80359060200191846020830284011164010000000083111715610a0857600080fd5b9190808060200260200160405190810160405280939291908181526020018383602002808284376000920191909152509295949360208101935035915050640100000000811115610a5857600080fd5b820183602082011115610a6a57600080fd5b80359060200191846020830284011164010000000083111715610a8c57600080fd5b9190808060200260200160405190810160405280939291908181526020018383602002808284376000920191909152509295949360208101935035915050640100000000811115610adc57600080fd5b820183602082011115610aee57600080fd5b80359060200191846020830284011164010000000083111715610b1057600080fd5b9190808060200260200160405190810160405280939291908181526020018383602002808284376000920191909152509295949360208101935035915050640100000000811115610b6057600080fd5b820183602082011115610b7257600080fd5b80359060200191846020830284011164010000000083111715610b9457600080fd5b919080806020026020016040519081016040528093929190818152602001838360200280828437600092019190915250929550611fe9945050505050565b6107c3612171565b610503612180565b6104c760048036036020811015610bf857600080fd5b50356001600160a01b031661218f565b61050361226f565b6104d1612286565b6104c760048036036020811015610c2e57600080fd5b50356001600160a01b031661228c565b6104c760048036036020811015610c5457600080fd5b503561230f565b6104c760048036036020811015610c7157600080fd5b50356001600160a01b03166123b6565b6104c760048036036020811015610c9757600080fd5b5035612439565b6104c76124e0565b6104d16127d2565b6104c760048036036020811015610cc457600080fd5b50356001600160a01b03166127d8565b6104c760048036036020811015610cea57600080fd5b50356001600160a01b03166128ba565b61050361293d565b61050360048036036060811015610d1857600080fd5b506001600160a01b0381358116916020810135909116906040013561294c565b61050361298e565b6104c761299d565b6107c3612fc3565b6104d1612fe4565b6104d161311f565b6104d1613125565b6107c361312b565b610503613139565b610503613148565b6104d1613157565b6104c760048036036020811015610d9e57600080fd5b50356001600160a01b031661315d565b6104d160048036036040811015610dc457600080fd5b506001600160a01b03813516906020013561327f565b6104c760048036036020811015610df057600080fd5b5035613616565b6009546001600160a01b03163314610e405760405162461bcd60e51b815260040180806020018281038252602b815260200180614c44602b913960400191505060405180910390fd5b6001600160a01b03808416600090815260076020908152604080832093861683529281529190208251610e7592840190614adc565b50505050565b61012c81565b600c5481565b6009546001600160a01b03163314610ed05760405162461bcd60e51b815260040180806020018281038252602b815260200180614c44602b913960400191505060405180910390fd5b600280547fffffffffffffffffffffffffffffffffffffffffffffffffffffffffff00ffff169055610f006112e7565b565b60165481565b6012546001600160a01b031681565b6009546001600160a01b03163314610f605760405162461bcd60e51b815260040180806020018281038252602b815260200180614c44602b913960400191505060405180910390fd5b600280549115156301000000027fffffffffffffffffffffffffffffffffffffffffffffffffffffffff00ffffff909216919091179055565b600a546001600160a01b031681565b600b546060906001600160a01b03163314610ff45760405162461bcd60e51b8152600401808060200182810382526027815260200180614c906027913960400191505060405180910390fd5b60608351600014156110075750816110bd565b83805190602001208360405160200180837bffffffffffffffffffffffffffffffffffffffffffffffffffffffff1916815260040182805190602001908083835b6020831061108557805182527fffffffffffffffffffffffffffffffffffffffffffffffffffffffffffffffe09092019160209182019101611048565b6001836020036101000a0380198251168184511680821785525050505050509050019250505060405160208183030381529060405290505b60006060876001600160a01b031687846040518082805190602001908083835b6020831061111a57805182527fffffffffffffffffffffffffffffffffffffffffffffffffffffffffffffffe090920191602091820191016110dd565b6001836020036101000a03801982511681845116808217855250505050505090500191505060006040518083038185875af1925050503d806000811461117c576040519150601f19603f3d011682016040523d82523d6000602084013e611181565b606091505b5091509150816111c25760405162461bcd60e51b8152600401808060200182810382526044815260200180614b916044913960600191505060405180910390fd5b876001600160a01b03167f88405ca50016c636e025868e263efe5a9f63bf11cc45404f7616394c7dc389d0888888604051808481526020018060200180602001838103835285818151815260200191508051906020019080838360005b8381101561123757818101518382015260200161121f565b50505050905090810190601f1680156112645780820380516001836020036101000a031916815260200191505b50838103825284518152845160209182019186019080838360005b8381101561129757818101518382015260200161127f565b50505050905090810190601f1680156112c45780820380516001836020036101000a031916815260200191505b509550505050505060405180910390a2925050505b949350505050565b61271081565b6002600154141561133f576040805162461bcd60e51b815260206004820152601f60248201527f5265656e7472616e637947756172643a207265656e7472616e742063616c6c00604482015290519081900360640190fd5b600260018190555462010000900460ff161561138c5760405162461bcd60e51b8152600401808060200182810382526028815260200180614bf66028913960400191505060405180910390fd5b6113946136bb565b60018055565b6009546001600160a01b031633146113e35760405162461bcd60e51b815260040180806020018281038252602b815260200180614c44602b913960400191505060405180910390fd5b6126de8111611439576040805162461bcd60e51b815260206004820181905260248201527f427661756c747353747261746567793a202173616665202d20746f6f206c6f77604482015290519081900360640190fd5b61271081111561147a5760405162461bcd60e51b8152600401808060200182810382526021815260200180614bd56021913960400191505060405180910390fd5b601655565b6009546001600160a01b031633146114c85760405162461bcd60e51b815260040180806020018281038252602b815260200180614c44602b913960400191505060405180910390fd5b610f00613981565b600d5481565b600e5481565b6009546001600160a01b031633146115255760405162461bcd60e51b815260040180806020018281038252602b815260200180614c44602b913960400191505060405180910390fd5b600b805491151574010000000000000000000000000000000000000000027fffffffffffffffffffffff00ffffffffffffffffffffffffffffffffffffffff909216919091179055565b6000611579613a46565b6000546001600160a01b039081169116146115db576040805162461bcd60e51b815260206004820181905260248201527f4f776e61626c653a2063616c6c6572206973206e6f7420746865206f776e6572604482015290519081900360640190fd5b60025460ff1615611633576040805162461bcd60e51b815260206004820152601060248201527f5061757361626c653a2070617573656400000000000000000000000000000000604482015290519081900360640190fd5b60025462010000900460ff161561167b5760405162461bcd60e51b8152600401808060200182810382526028815260200180614bf66028913960400191505060405180910390fd5b600554611693906001600160a01b0316333085613a4a565b600d548290156116d3576116d06127106116ca600d546116ca6016546116c4600e548a613ad290919063ffffffff16565b90613ad2565b90613b32565b90505b600e546116e09082613b74565b600e55600254610100900460ff1615611700576116fb6136bb565b611711565b600d5461170d9084613b74565b600d555b6040805184815290517f4d6ce1e535dbade1c23defba91e23b8f791ce5edc0cc320257a2b364e4e384269181900360200190a190505b92915050565b6009546001600160a01b031633146117965760405162461bcd60e51b815260040180806020018281038252602b815260200180614c44602b913960400191505060405180910390fd5b60035460048054604080517f93f1a40b00000000000000000000000000000000000000000000000000000000815292830191909152306024830152516000926001600160a01b0316916393f1a40b916044808301926080929190829003018186803b15801561180457600080fd5b505afa158015611818573d6000803e3d6000fd5b505050506040513d608081101561182e57600080fd5b505160035460048054604080517fb5c5f6720000000000000000000000000000000000000000000000000000000081523093810193909352602483019190915260448201849052519293506001600160a01b039091169163b5c5f6729160648082019260009290919082900301818387803b1580156118ac57600080fd5b505af11580156118c0573d6000803e3d6000fd5b50505050600260049054906101000a90046001600160a01b03166001600160a01b0316632e1a7d4d826040518263ffffffff1660e01b815260040180828152602001915050600060405180830381600087803b15801561191f57600080fd5b505af1158015611933573d6000803e3d6000fd5b5050600280547fffffffffffffffffffffffffffffffffffffffffffffffffffffffffff00ffff1662010000179055505050565b6015546001600160a01b031681565b6009546000906001600160a01b038381169116148061199f5750600a546001600160a01b031633145b806119b45750600b546001600160a01b031633145b90505b919050565b6009546001600160a01b031681565b60025460ff1690565b6014546001600160a01b031681565b73bb4cdb9cbd36b01bd1cbaebf2de08d9173bc095c81565b60035460048054604080517f93f1a40b000000000000000000000000000000000000000000000000000000008152928301919091523060248301525160009283926001600160a01b03909116916393f1a40b91604480820192608092909190829003018186803b158015611a6e57600080fd5b505afa158015611a82573d6000803e3d6000fd5b505050506040513d6080811015611a9857600080fd5b505191505090565b6009546001600160a01b03163314611ae95760405162461bcd60e51b815260040180806020018281038252602b815260200180614c44602b913960400191505060405180910390fd5b6006546001600160a01b0384811691161415611b4c576040805162461bcd60e51b815260206004820152600560248201527f2173616665000000000000000000000000000000000000000000000000000000604482015290519081900360640190fd5b6005546001600160a01b0384811691161415611baf576040805162461bcd60e51b815260206004820152600560248201527f2173616665000000000000000000000000000000000000000000000000000000604482015290519081900360640190fd5b611bc36001600160a01b0384168284613bce565b604080516001600160a01b0380861682526020820185905283168183015290517f22f92dfb4f608ea5db1e9bb08c0b4f5518af93b1259d335fe05900056096ab2c9181900360600190a1505050565b600854604080517fd06ca61f00000000000000000000000000000000000000000000000000000000815260048101858152602482019283528451604483015284516000946060946001600160a01b039091169363d06ca61f9389938993919260640190602080860191028083838d5b83811015611c99578181015183820152602001611c81565b50505050905001935050505060006040518083038186803b158015611cbd57600080fd5b505afa158015611cd1573d6000803e3d6000fd5b505050506040513d6000823e601f3d9081017fffffffffffffffffffffffffffffffffffffffffffffffffffffffffffffffe01682016040526020811015611d1857600080fd5b8101908080516040519392919084640100000000821115611d3857600080fd5b908301906020820185811115611d4d57600080fd5b8251866020820283011164010000000082111715611d6a57600080fd5b82525081516020918201928201910280838360005b83811015611d97578181015183820152602001611d7f565b50505050905001604052505050905080600182510381518110611db657fe5b602002602001015191505092915050565b6008546001600160a01b031681565b611dde613a46565b6000546001600160a01b03908116911614611e40576040805162461bcd60e51b815260206004820181905260248201527f4f776e61626c653a2063616c6c6572206973206e6f7420746865206f776e6572604482015290519081900360640190fd5b600080546040516001600160a01b03909116907f8be0079c531659141344cd1fd0a4f28419497f9722a3daafe3b4186f6b6457e0908390a3600080547fffffffffffffffffffffffff0000000000000000000000000000000000000000169055565b73e9e7cea3dedca5984780bafc599bd69add087d5681565b6002546301000000900460ff1681565b6009546001600160a01b03163314611f135760405162461bcd60e51b815260040180806020018281038252602b815260200180614c44602b913960400191505060405180910390fd5b610f00613c53565b600f5481565b600080611f2c612fe4565b90508015611fd1576006546001600160a01b0316600090815260076020908152604080832073e9e7cea3dedca5984780bafc599bd69add087d5684528252918290208054835181840281018401909452808452611fcc93859390929190830182828015611fc257602002820191906000526020600020905b81546001600160a01b03168152600190910190602001808311611fa4575b5050505050611c12565b611fd4565b60005b91505090565b6000546001600160a01b031690565b6009546001600160a01b031633146120325760405162461bcd60e51b815260040180806020018281038252602b815260200180614c44602b913960400191505060405180910390fd5b6006546001600160a01b0390811660009081526007602090815260408083206011549094168352928152919020865161206d92880190614adc565b506006546001600160a01b039081166000908152600760209081526040808320601454909416835292815291902085516120a992870190614adc565b506006546001600160a01b039081166000908152600760209081526040808320600554909416835292815291902084516120e592860190614adc565b506006546001600160a01b0316600090815260076020908152604080832073e9e7cea3dedca5984780bafc599bd69add087d5684528252909120835161212d92850190614adc565b506005546001600160a01b0390811660009081526007602090815260408083206006549094168352928152919020825161216992840190614adc565b505050505050565b60025462010000900460ff1681565b6003546001600160a01b031681565b6009546001600160a01b031633146121d85760405162461bcd60e51b815260040180806020018281038252602b815260200180614c44602b913960400191505060405180910390fd5b6001600160a01b038116612235576040805162461bcd60e51b8152602060048083019190915260248201527f7a65726f00000000000000000000000000000000000000000000000000000000604482015290519081900360640190fd5b601580547fffffffffffffffffffffffff0000000000000000000000000000000000000000166001600160a01b0392909216919091179055565b60025464010000000090046001600160a01b031681565b61032081565b6009546001600160a01b031633146122d55760405162461bcd60e51b815260040180806020018281038252602b815260200180614c44602b913960400191505060405180910390fd5b600980547fffffffffffffffffffffffff0000000000000000000000000000000000000000166001600160a01b0392909216919091179055565b6009546001600160a01b031633146123585760405162461bcd60e51b815260040180806020018281038252602b815260200180614c44602b913960400191505060405180910390fd5b61032060135411156123b1576040805162461bcd60e51b815260206004820152601960248201527f427661756c747353747261746567793a20746f6f206869676800000000000000604482015290519081900360640190fd5b601355565b600b546001600160a01b031633146123ff5760405162461bcd60e51b8152600401808060200182810382526027815260200180614c906027913960400191505060405180910390fd5b600b80547fffffffffffffffffffffffff0000000000000000000000000000000000000000166001600160a01b0392909216919091179055565b6009546001600160a01b031633146124825760405162461bcd60e51b815260040180806020018281038252602b815260200180614c44602b913960400191505060405180910390fd5b61032060105411156124db576040805162461bcd60e51b815260206004820152601960248201527f427661756c747353747261746567793a20746f6f206869676800000000000000604482015290519081900360640190fd5b601055565b60025460ff1615612538576040805162461bcd60e51b815260206004820152601060248201527f5061757361626c653a2070617573656400000000000000000000000000000000604482015290519081900360640190fd5b600254610100900460ff16612594576040805162461bcd60e51b815260206004820152600b60248201527f2169734175746f436f6d70000000000000000000000000000000000000000000604482015290519081900360640190fd5b600554604080517f70a0823100000000000000000000000000000000000000000000000000000000815230600482015290516000926001600160a01b0316916370a08231916024808301926020929190829003018186803b1580156125f857600080fd5b505afa15801561260c573d6000803e3d6000fd5b505050506040513d602081101561262257600080fd5b50516006546005549192506001600160a01b039182169116148015906126485750600081115b156127cf5760085460055461266a916001600160a01b03918216911683613cff565b6008546005546001600160a01b0390811660009081526007602090815260408083206006548516845290915280822090517f5c11d79500000000000000000000000000000000000000000000000000000000815260048101868152602482018490523060648301819052603c42016084840181905260a060448501908152855460a486018190529790981697635c11d795978a9796959394929360c401908690801561273f57602002820191906000526020600020905b81546001600160a01b03168152600190910190602001808311612721575b50509650505050505050600060405180830381600087803b15801561276357600080fd5b505af1158015612777573d6000803e3d6000fd5b5050600554600654604080516001600160a01b03938416815291909216602082015280820185905290517f65dcf313a2a7fa900bdbeb87203f9ac8009224d4656965a6b8498b8b245e0e1c9350908190036060019150a15b50565b6126de81565b6009546001600160a01b031633146128215760405162461bcd60e51b815260040180806020018281038252602b815260200180614c44602b913960400191505060405180910390fd5b6012546001600160a01b0316612880576040805162461bcd60e51b8152602060048083019190915260248201527f7a65726f00000000000000000000000000000000000000000000000000000000604482015290519081900360640190fd5b601280547fffffffffffffffffffffffff0000000000000000000000000000000000000000166001600160a01b0392909216919091179055565b6009546001600160a01b031633146129035760405162461bcd60e51b815260040180806020018281038252602b815260200180614c44602b913960400191505060405180910390fd5b600a80547fffffffffffffffffffffffff0000000000000000000000000000000000000000166001600160a01b0392909216919091179055565b6011546001600160a01b031681565b6007602052826000526040600020602052816000526040600020818154811061297157fe5b6000918252602090912001546001600160a01b0316925083915050565b600b546001600160a01b031681565b60025460ff16156129f5576040805162461bcd60e51b815260206004820152601060248201527f5061757361626c653a2070617573656400000000000000000000000000000000604482015290519081900360640190fd5b600254610100900460ff16612a51576040805162461bcd60e51b815260206004820152601c60248201527f427661756c747353747261746567793a202169734175746f436f6d7000000000604482015290519081900360640190fd5b600b5474010000000000000000000000000000000000000000900460ff161580612a7f5750612a7f33611976565b612ad0576040805162461bcd60e51b815260206004820152601c60248201527f427661756c747353747261746567793a2021617574686f726973656400000000604482015290519081900360640190fd5b60035460048054604080517fddc6326200000000000000000000000000000000000000000000000000000000815292830191909152516001600160a01b039092169163ddc632629160248082019260009290919082900301818387803b158015612b3957600080fd5b505af1158015612b4d573d6000803e3d6000fd5b50506002546301000000900460ff16159150612c64905057600654604080517f202b176000000000000000000000000000000000000000000000000000000000815230600482015290516000926001600160a01b03169163202b1760916024808301926020929190829003018186803b158015612bc957600080fd5b505afa158015612bdd573d6000803e3d6000fd5b505050506040513d6020811015612bf357600080fd5b50511115612c6457600660009054906101000a90046001600160a01b03166001600160a01b031663a69df4b56040518163ffffffff1660e01b8152600401600060405180830381600087803b158015612c4b57600080fd5b505af1158015612c5f573d6000803e3d6000fd5b505050505b600654604080517f70a0823100000000000000000000000000000000000000000000000000000000815230600482015290516000926001600160a01b0316916370a08231916024808301926020929190829003018186803b158015612cc857600080fd5b505afa158015612cdc573d6000803e3d6000fd5b505050506040513d6020811015612cf257600080fd5b5051600654604080516001600160a01b0390921682526020820183905280519293507f053fa1fc52294a40b4ff1a988765bd298c00caa24d685cc3f767dcfde254ef9a92918290030190a16000612d4882613de6565b90506000612d5583613e88565b90506000612d62846142ab565b9050612d7a81612d7484818888614752565b90614752565b600854600654919550612d9a916001600160a01b03908116911686613cff565b6005546006546001600160a01b03908116911614612ec4576008546006546001600160a01b0390811660009081526007602090815260408083206005548516845290915280822090517f5c11d79500000000000000000000000000000000000000000000000000000000815260048101898152602482018490523060648301819052603c42016084840181905260a060448501908152855460a486018190529790981697635c11d795978d9796959394929360c4019086908015612e8757602002820191906000526020600020905b81546001600160a01b03168152600190910190602001808311612e69575b50509650505050505050600060405180830381600087803b158015612eab57600080fd5b505af1158015612ebf573d6000803e3d6000fd5b505050505b600554604080517f70a0823100000000000000000000000000000000000000000000000000000000815230600482015290516000926001600160a01b0316916370a08231916024808301926020929190829003018186803b158015612f2857600080fd5b505afa158015612f3c573d6000803e3d6000fd5b505050506040513d6020811015612f5257600080fd5b505190508015612fb057600554604080516001600160a01b0390921682526020820183905260008282018190526060830152517f44552da03f807ace3e5f27e98e694712dfe668c743514b28d4d9f5ab70574b0f9181900360800190a15b43600c55612fbc6136bb565b5050505050565b600b5474010000000000000000000000000000000000000000900460ff1681565b600654604080517f70a08231000000000000000000000000000000000000000000000000000000008152306004820152905160009283926001600160a01b03909116916370a0823191602480820192602092909190829003018186803b15801561304d57600080fd5b505afa158015613061573d6000803e3d6000fd5b505050506040513d602081101561307757600080fd5b505160035460048054604080517f94443b730000000000000000000000000000000000000000000000000000000081529283019190915230602483015251929350611fd49284926001600160a01b0316916394443b73916044808301926020929190829003018186803b1580156130ed57600080fd5b505afa158015613101573d6000803e3d6000fd5b505050506040513d602081101561311757600080fd5b505190613b74565b60105481565b60135481565b600254610100900460ff1681565b6006546001600160a01b031681565b6005546001600160a01b031681565b60045481565b613165613a46565b6000546001600160a01b039081169116146131c7576040805162461bcd60e51b815260206004820181905260248201527f4f776e61626c653a2063616c6c6572206973206e6f7420746865206f776e6572604482015290519081900360640190fd5b6001600160a01b03811661320c5760405162461bcd60e51b8152600401808060200182810382526026815260200180614c1e6026913960400191505060405180910390fd5b600080546040516001600160a01b03808516939216917f8be0079c531659141344cd1fd0a4f28419497f9722a3daafe3b4186f6b6457e091a3600080547fffffffffffffffffffffffff0000000000000000000000000000000000000000166001600160a01b0392909216919091179055565b6000613289613a46565b6000546001600160a01b039081169116146132eb576040805162461bcd60e51b815260206004820181905260248201527f4f776e61626c653a2063616c6c6572206973206e6f7420746865206f776e6572604482015290519081900360640190fd5b60026001541415613343576040805162461bcd60e51b815260206004820152601f60248201527f5265656e7472616e637947756172643a207265656e7472616e742063616c6c00604482015290519081900360640190fd5b60026001558161339a576040805162461bcd60e51b815260206004820152601a60248201527f427661756c747353747261746567793a20215f77616e74416d74000000000000604482015290519081900360640190fd5b600254610100900460ff1680156133ba575060025462010000900460ff16155b156134c45760035460048054604080517fb5c5f6720000000000000000000000000000000000000000000000000000000081523093810193909352602483019190915260448201859052516001600160a01b039092169163b5c5f6729160648082019260009290919082900301818387803b15801561343857600080fd5b505af115801561344c573d6000803e3d6000fd5b50505050600260049054906101000a90046001600160a01b03166001600160a01b0316632e1a7d4d836040518263ffffffff1660e01b815260040180828152602001915050600060405180830381600087803b1580156134ab57600080fd5b505af11580156134bf573d6000803e3d6000fd5b505050505b600554604080517f70a0823100000000000000000000000000000000000000000000000000000000815230600482015290516000926001600160a01b0316916370a08231916024808301926020929190829003018186803b15801561352857600080fd5b505afa15801561353c573d6000803e3d6000fd5b505050506040513d602081101561355257600080fd5b5051905080831115613562578092505b82600d54101561357257600d5492505b600061358f600d546116ca600e5487613ad290919063ffffffff16565b9050600e548111156135a05750600e545b600e546135ad9082614752565b600e55600d546135bd9085614752565b600d556005546135d7906001600160a01b03163386613bce565b6040805185815290517f5b6b431d4476a211bb7d41c20d1aab9ae2321deee0d20be3d9fc9b1093fa6e3d9181900360200190a160018055949350505050565b6009546001600160a01b0316331461365f5760405162461bcd60e51b815260040180806020018281038252602b815260200180614c44602b913960400191505060405180910390fd5b61012c8111156136b6576040805162461bcd60e51b815260206004820152601960248201527f427661756c747353747261746567793a20746f6f206869676800000000000000604482015290519081900360640190fd5b600f55565b600554604080517f70a0823100000000000000000000000000000000000000000000000000000000815230600482015290516000926001600160a01b0316916370a08231916024808301926020929190829003018186803b15801561371f57600080fd5b505afa158015613733573d6000803e3d6000fd5b505050506040513d602081101561374957600080fd5b5051600d5490915061375b9082613b74565b600d55600254600554613784916001600160a01b03918216916401000000009091041683613cff565b600260049054906101000a90046001600160a01b03166001600160a01b031663b6b55f25826040518263ffffffff1660e01b815260040180828152602001915050600060405180830381600087803b1580156137df57600080fd5b505af11580156137f3573d6000803e3d6000fd5b5050600254604080517f70a082310000000000000000000000000000000000000000000000000000000081523060048201529051600094506401000000009092046001600160a01b031692506370a08231916024808301926020929190829003018186803b15801561386457600080fd5b505afa158015613878573d6000803e3d6000fd5b505050506040513d602081101561388e57600080fd5b50516003546002549192506138b89164010000000090046001600160a01b03908116911683613cff565b60035460048054604080517f0efe6a8b0000000000000000000000000000000000000000000000000000000081523093810193909352602483019190915260448201849052516001600160a01b0390921691630efe6a8b9160648082019260009290919082900301818387803b15801561393157600080fd5b505af1158015613945573d6000803e3d6000fd5b50506040805185815290517fc217459869eed80bfbe5c11e78ab58912eedfd106342671821b6e96d1615dc7f9350908190036020019150a15050565b60025460ff166139d8576040805162461bcd60e51b815260206004820152601460248201527f5061757361626c653a206e6f7420706175736564000000000000000000000000604482015290519081900360640190fd5b600280547fffffffffffffffffffffffffffffffffffffffffffffffffffffffffffffff001690557f5db9ee0a495bf2e6ff9c91a7834c1ba4fdd244a5e8aa4e537bd38aeae4b073aa613a29613a46565b604080516001600160a01b039092168252519081900360200190a1565b3390565b604080516001600160a01b0380861660248301528416604482015260648082018490528251808303909101815260849091019091526020810180517bffffffffffffffffffffffffffffffffffffffffffffffffffffffff167f23b872dd00000000000000000000000000000000000000000000000000000000179052610e75908590614794565b600082613ae157506000611747565b82820282848281613aee57fe5b0414613b2b5760405162461bcd60e51b8152600401808060200182810382526021815260200180614c6f6021913960400191505060405180910390fd5b9392505050565b6000613b2b83836040518060400160405280601a81526020017f536166654d6174683a206469766973696f6e206279207a65726f000000000000815250614845565b600082820183811015613b2b576040805162461bcd60e51b815260206004820152601b60248201527f536166654d6174683a206164646974696f6e206f766572666c6f770000000000604482015290519081900360640190fd5b604080516001600160a01b038416602482015260448082018490528251808303909101815260649091019091526020810180517bffffffffffffffffffffffffffffffffffffffffffffffffffffffff167fa9059cbb00000000000000000000000000000000000000000000000000000000179052613c4e908490614794565b505050565b60025460ff1615613cab576040805162461bcd60e51b815260206004820152601060248201527f5061757361626c653a2070617573656400000000000000000000000000000000604482015290519081900360640190fd5b600280547fffffffffffffffffffffffffffffffffffffffffffffffffffffffffffffff001660011790557f62e78cea01bee320cd4e420270b5ea74000d11b0c9f74754ebdbfc544b05a258613a29613a46565b6000613d6382856001600160a01b031663dd62ed3e30876040518363ffffffff1660e01b815260040180836001600160a01b03168152602001826001600160a01b031681526020019250505060206040518083038186803b1580156130ed57600080fd5b604080516001600160a01b038616602482015260448082018490528251808303909101815260649091019091526020810180517bffffffffffffffffffffffffffffffffffffffffffffffffffffffff167f095ea7b300000000000000000000000000000000000000000000000000000000179052909150610e75908590614794565b600081156119b757600f54156119b757613e116127106116ca600f5485613ad290919063ffffffff16565b600954600654919250613e31916001600160a01b03908116911683613bce565b600654600954604080516001600160a01b03938416815260208101859052919092168183015290517f056e5430e11cfdfb90a183ec3bf63ed22abe70cdf4e7bd3018d8b459bbd7f6199181900360600190a1919050565b6010546000901580613ea357506012546001600160a01b0316155b15613eb0575060006119b7565b6000613ecd6127106116ca60105486613ad290919063ffffffff16565b6006546001600160a01b03908116600090815260076020908152604080832060115485168085529083528184205460125483517f70a082310000000000000000000000000000000000000000000000000000000081529616600487015291519596509094929390926370a0823192602480840193919291829003018186803b158015613f5857600080fd5b505afa158015613f6c573d6000803e3d6000fd5b505050506040513d6020811015613f8257600080fd5b50516006546001600160a01b0390811660009081526007602090815260408083206011549094168352929052208054919250907fffffffffffffffffffffffffffffffffffffffffffffffffffffffffffffffff8401908110613fe157fe5b60009182526020808320909101546006546001600160a01b0390811684526007835260408085206011548316865290935291832080549290911692909161402457fe5b6000918252602090912001546001600160a01b0316146141765760085460065461405b916001600160a01b03918216911685613cff565b6008546006546001600160a01b0390811660009081526007602090815260408083206011548516845290915280822060125491517f5c11d795000000000000000000000000000000000000000000000000000000008152600481018981526024820185905292851660648201819052603c42016084830181905260a060448401908152845460a485018190529790981697635c11d795978c9796939492939260c401908690801561413557602002820191906000526020600020905b81546001600160a01b03168152600190910190602001808311614117575b50509650505050505050600060405180830381600087803b15801561415957600080fd5b505af115801561416d573d6000803e3d6000fd5b50505050614193565b601254600654614193916001600160a01b03918216911685613bce565b601154601254604080517f70a082310000000000000000000000000000000000000000000000000000000081526001600160a01b039283166004820152905160009392909216916370a0823191602480820192602092909190829003018186803b15801561420057600080fd5b505afa158015614214573d6000803e3d6000fd5b505050506040513d602081101561422a57600080fd5b50519050600061423a8284614752565b600654601154601254604080516001600160a01b03948516815292841660208401528281018a9052606083018590529216608082015290519192507fb152a9c4203a9515a80fadb5b18afb6bfce5350eccdfda9d0908ac37ec094222919081900360a00190a1509295945050505050565b60135460009015806142c657506015546001600160a01b0316155b156142d3575060006119b7565b60006142f06127106116ca60135486613ad290919063ffffffff16565b6006546001600160a01b03908116600090815260076020908152604080832060145485168085529083528184205460155483517f70a082310000000000000000000000000000000000000000000000000000000081529616600487015291519596509094929390926370a0823192602480840193919291829003018186803b15801561437b57600080fd5b505afa15801561438f573d6000803e3d6000fd5b505050506040513d60208110156143a557600080fd5b50516006546001600160a01b0390811660009081526007602090815260408083206014549094168352929052208054919250907fffffffffffffffffffffffffffffffffffffffffffffffffffffffffffffffff840190811061440457fe5b60009182526020808320909101546006546001600160a01b0390811684526007835260408085206014548316865290935291832080549290911692909161444757fe5b6000918252602090912001546001600160a01b0316146145995760085460065461447e916001600160a01b03918216911685613cff565b6008546006546001600160a01b0390811660009081526007602090815260408083206014548516845290915280822060155491517f5c11d795000000000000000000000000000000000000000000000000000000008152600481018981526024820185905292851660648201819052603c42016084830181905260a060448401908152845460a485018190529790981697635c11d795978c9796939492939260c401908690801561455857602002820191906000526020600020905b81546001600160a01b0316815260019091019060200180831161453a575b50509650505050505050600060405180830381600087803b15801561457c57600080fd5b505af1158015614590573d6000803e3d6000fd5b505050506145b6565b6015546006546145b6916001600160a01b03918216911685613bce565b601454601554604080517f70a082310000000000000000000000000000000000000000000000000000000081526001600160a01b039283166004820152905160009392909216916370a0823191602480820192602092909190829003018186803b15801561462357600080fd5b505afa158015614637573d6000803e3d6000fd5b505050506040513d602081101561464d57600080fd5b50519050600061465d8284614752565b9050801561474757601554604080517f50afa34b0000000000000000000000000000000000000000000000000000000081526004810184905290516001600160a01b03909216916350afa34b9160248082019260009290919082900301818387803b1580156146cb57600080fd5b505af11580156146df573d6000803e3d6000fd5b5050600654601454601554604080516001600160a01b03948516815292841660208401528281018b9052606083018790529216608082015290517fb152a9c4203a9515a80fadb5b18afb6bfce5350eccdfda9d0908ac37ec09422293509081900360a0019150a15b509295945050505050565b6000613b2b83836040518060400160405280601e81526020017f536166654d6174683a207375627472616374696f6e206f766572666c6f7700008152506148e7565b60606147e9826040518060400160405280602081526020017f5361666545524332303a206c6f772d6c6576656c2063616c6c206661696c6564815250856001600160a01b03166149419092919063ffffffff16565b805190915015613c4e5780806020019051602081101561480857600080fd5b5051613c4e5760405162461bcd60e51b815260040180806020018281038252602a815260200180614cb7602a913960400191505060405180910390fd5b600081836148d15760405162461bcd60e51b81526004018080602001828103825283818151815260200191508051906020019080838360005b8381101561489657818101518382015260200161487e565b50505050905090810190601f1680156148c35780820380516001836020036101000a031916815260200191505b509250505060405180910390fd5b5060008385816148dd57fe5b0495945050505050565b600081848411156149395760405162461bcd60e51b815260206004820181815283516024840152835190928392604490910191908501908083836000831561489657818101518382015260200161487e565b505050900390565b60606112d98484600085606061495685614ad6565b6149a7576040805162461bcd60e51b815260206004820152601d60248201527f416464726573733a2063616c6c20746f206e6f6e2d636f6e7472616374000000604482015290519081900360640190fd5b60006060866001600160a01b031685876040518082805190602001908083835b60208310614a0457805182527fffffffffffffffffffffffffffffffffffffffffffffffffffffffffffffffe090920191602091820191016149c7565b6001836020036101000a03801982511681845116808217855250505050505090500191505060006040518083038185875af1925050503d8060008114614a66576040519150601f19603f3d011682016040523d82523d6000602084013e614a6b565b606091505b50915091508115614a7f5791506112d99050565b805115614a8f5780518082602001fd5b60405162461bcd60e51b815260206004820181815286516024840152865187939192839260440191908501908083836000831561489657818101518382015260200161487e565b3b151590565b828054828255906000526020600020908101928215614b49579160200282015b82811115614b4957825182547fffffffffffffffffffffffff0000000000000000000000000000000000000000166001600160a01b03909116178255602090920191600190910190614afc565b50614b55929150614b59565b5090565b5b80821115614b555780547fffffffffffffffffffffffff0000000000000000000000000000000000000000168155600101614b5a56fe427661756c747353747261746567793a3a657865637574655472616e73616374696f6e3a205472616e73616374696f6e20657865637574696f6e2072657665727465642e427661756c747353747261746567793a202173616665202d20746f6f2068696768427661756c747353747261746567793a207374726174656779206973206e6f742072756e6e696e674f776e61626c653a206e6577206f776e657220697320746865207a65726f2061646472657373427661756c747353747261746567793a2063616c6c6572206973206e6f7420746865206f70657261746f72536166654d6174683a206d756c7469706c69636174696f6e206f766572666c6f77427661756c747353747261746567793a2063616c6c6572206973206e6f742074696d656c6f636b5361666545524332303a204552433230206f7065726174696f6e20646964206e6f742073756363656564a2646970667358221220b59cec59e305e2ca77b9484567c23a565751da9b97742779df3995a710eb052d64736f6c634300060c00334f776e61626c653a206e6577206f776e657220697320746865207a65726f20616464726573738be0079c531659141344cd1fd0a4f28419497f9722a3daafe3b4186f6b6457e0",
  "linkReferences": {},
  "deployedLinkReferences": {}
}